{
	"Upstore.sol": {
		"Upstore": {
			"abi": [
				{
					"inputs": [],
					"stateMutability": "nonpayable",
					"type": "constructor"
				},
				{
					"inputs": [
						{
							"internalType": "bytes32",
							"name": "appId",
							"type": "bytes32"
						},
						{
							"internalType": "address",
							"name": "sender",
							"type": "address"
						}
					],
					"name": "DuplicatedAddress",
					"type": "error"
				},
				{
					"inputs": [
						{
							"internalType": "address",
							"name": "owner",
							"type": "address"
						}
					],
					"name": "OwnableInvalidOwner",
					"type": "error"
				},
				{
					"inputs": [
						{
							"internalType": "address",
							"name": "account",
							"type": "address"
						}
					],
					"name": "OwnableUnauthorizedAccount",
					"type": "error"
				},
				{
					"inputs": [
						{
							"internalType": "uint256",
							"name": "price",
							"type": "uint256"
						},
						{
							"internalType": "uint256",
							"name": "amount",
							"type": "uint256"
						}
					],
					"name": "PriceNotMet",
					"type": "error"
				},
				{
					"inputs": [],
					"name": "Unauthorized",
					"type": "error"
				},
				{
					"anonymous": false,
					"inputs": [
						{
							"indexed": false,
							"internalType": "string",
							"name": "func",
							"type": "string"
						},
						{
							"indexed": false,
							"internalType": "uint256",
							"name": "gas",
							"type": "uint256"
						}
					],
					"name": "Log",
					"type": "event"
				},
				{
					"anonymous": false,
					"inputs": [
						{
							"indexed": true,
							"internalType": "address",
							"name": "previousOwner",
							"type": "address"
						},
						{
							"indexed": true,
							"internalType": "address",
							"name": "newOwner",
							"type": "address"
						}
					],
					"name": "OwnershipTransferred",
					"type": "event"
				},
				{
					"anonymous": false,
					"inputs": [
						{
							"indexed": true,
							"internalType": "address",
							"name": "sender",
							"type": "address"
						},
						{
							"indexed": true,
							"internalType": "bytes32",
							"name": "appId",
							"type": "bytes32"
						},
						{
							"indexed": false,
							"internalType": "string",
							"name": "metadata",
							"type": "string"
						},
						{
							"indexed": true,
							"internalType": "address",
							"name": "manager",
							"type": "address"
						},
						{
							"indexed": false,
							"internalType": "bool",
							"name": "status",
							"type": "bool"
						}
					],
					"name": "appAdded",
					"type": "event"
				},
				{
					"anonymous": false,
					"inputs": [
						{
							"indexed": true,
							"internalType": "address",
							"name": "sender",
							"type": "address"
						},
						{
							"indexed": true,
							"internalType": "bytes32",
							"name": "appId",
							"type": "bytes32"
						}
					],
					"name": "likeAdded",
					"type": "event"
				},
				{
					"stateMutability": "payable",
					"type": "fallback"
				},
				{
					"inputs": [],
					"name": "_appCounter",
					"outputs": [
						{
							"internalType": "uint256",
							"name": "_value",
							"type": "uint256"
						}
					],
					"stateMutability": "view",
					"type": "function"
				},
				{
					"inputs": [
						{
							"internalType": "uint256",
							"name": "",
							"type": "uint256"
						}
					],
					"name": "app",
					"outputs": [
						{
							"internalType": "bytes32",
							"name": "id",
							"type": "bytes32"
						},
						{
							"internalType": "string",
							"name": "metadata",
							"type": "string"
						},
						{
							"internalType": "address",
							"name": "manager",
							"type": "address"
						},
						{
							"internalType": "uint256",
							"name": "dt",
							"type": "uint256"
						},
						{
							"internalType": "bool",
							"name": "status",
							"type": "bool"
						}
					],
					"stateMutability": "view",
					"type": "function"
				},
				{
					"inputs": [
						{
							"internalType": "bytes32",
							"name": "",
							"type": "bytes32"
						},
						{
							"internalType": "bytes32",
							"name": "",
							"type": "bytes32"
						}
					],
					"name": "blockStorage",
					"outputs": [
						{
							"internalType": "string",
							"name": "",
							"type": "string"
						}
					],
					"stateMutability": "view",
					"type": "function"
				},
				{
					"inputs": [
						{
							"internalType": "bytes32",
							"name": "appId",
							"type": "bytes32"
						},
						{
							"internalType": "bytes32",
							"name": "key",
							"type": "bytes32"
						}
					],
					"name": "delKey",
					"outputs": [
						{
							"internalType": "bool",
							"name": "",
							"type": "bool"
						}
					],
					"stateMutability": "nonpayable",
					"type": "function"
				},
				{
					"inputs": [
						{
							"internalType": "bytes32",
							"name": "appId",
							"type": "bytes32"
						}
					],
					"name": "getApp",
					"outputs": [
						{
							"components": [
								{
									"internalType": "bytes32",
									"name": "id",
									"type": "bytes32"
								},
								{
									"internalType": "string",
									"name": "metadata",
									"type": "string"
								},
								{
									"internalType": "address",
									"name": "manager",
									"type": "address"
								},
								{
									"internalType": "uint256",
									"name": "dt",
									"type": "uint256"
								},
								{
									"internalType": "bool",
									"name": "status",
									"type": "bool"
								}
							],
							"internalType": "struct Upstore.AppStruct",
							"name": "",
							"type": "tuple"
						}
					],
					"stateMutability": "view",
					"type": "function"
				},
				{
					"inputs": [],
					"name": "getAppList",
					"outputs": [
						{
							"components": [
								{
									"internalType": "bytes32",
									"name": "id",
									"type": "bytes32"
								},
								{
									"internalType": "string",
									"name": "metadata",
									"type": "string"
								},
								{
									"internalType": "address",
									"name": "manager",
									"type": "address"
								},
								{
									"internalType": "uint256",
									"name": "dt",
									"type": "uint256"
								},
								{
									"internalType": "bool",
									"name": "status",
									"type": "bool"
								}
							],
							"internalType": "struct Upstore.AppStruct[]",
							"name": "",
							"type": "tuple[]"
						},
						{
							"internalType": "uint256",
							"name": "total",
							"type": "uint256"
						}
					],
					"stateMutability": "view",
					"type": "function"
				},
				{
					"inputs": [],
					"name": "getAppTotal",
					"outputs": [
						{
							"internalType": "uint256",
							"name": "",
							"type": "uint256"
						}
					],
					"stateMutability": "view",
					"type": "function"
				},
				{
					"inputs": [],
					"name": "getBalance",
					"outputs": [
						{
							"internalType": "uint256",
							"name": "",
							"type": "uint256"
						}
					],
					"stateMutability": "view",
					"type": "function"
				},
				{
					"inputs": [
						{
							"internalType": "bytes32",
							"name": "appId",
							"type": "bytes32"
						},
						{
							"internalType": "bytes32",
							"name": "key",
							"type": "bytes32"
						}
					],
					"name": "getKey",
					"outputs": [
						{
							"internalType": "string",
							"name": "",
							"type": "string"
						}
					],
					"stateMutability": "view",
					"type": "function"
				},
				{
					"inputs": [],
					"name": "getLikeTotal",
					"outputs": [
						{
							"internalType": "uint256",
							"name": "total",
							"type": "uint256"
						}
					],
					"stateMutability": "view",
					"type": "function"
				},
				{
					"inputs": [
						{
							"internalType": "bytes32",
							"name": "appId",
							"type": "bytes32"
						}
					],
					"name": "getLikeTotal",
					"outputs": [
						{
							"internalType": "uint256",
							"name": "",
							"type": "uint256"
						}
					],
					"stateMutability": "view",
					"type": "function"
				},
				{
					"inputs": [
						{
							"internalType": "uint256",
							"name": "",
							"type": "uint256"
						}
					],
					"name": "like",
					"outputs": [
						{
							"internalType": "bytes32",
							"name": "appId",
							"type": "bytes32"
						},
						{
							"internalType": "address",
							"name": "sender",
							"type": "address"
						},
						{
							"internalType": "uint256",
							"name": "dt",
							"type": "uint256"
						}
					],
					"stateMutability": "view",
					"type": "function"
				},
				{
					"inputs": [],
					"name": "owner",
					"outputs": [
						{
							"internalType": "address",
							"name": "",
							"type": "address"
						}
					],
					"stateMutability": "view",
					"type": "function"
				},
				{
					"inputs": [],
					"name": "price",
					"outputs": [
						{
							"internalType": "uint256",
							"name": "",
							"type": "uint256"
						}
					],
					"stateMutability": "view",
					"type": "function"
				},
				{
					"inputs": [],
					"name": "renounceOwnership",
					"outputs": [],
					"stateMutability": "nonpayable",
					"type": "function"
				},
				{
					"inputs": [
						{
							"internalType": "string",
							"name": "metadata",
							"type": "string"
						},
						{
							"internalType": "address",
							"name": "manager",
							"type": "address"
						}
					],
					"name": "setApp",
					"outputs": [
						{
							"internalType": "bytes32",
							"name": "appId",
							"type": "bytes32"
						}
					],
					"stateMutability": "payable",
					"type": "function"
				},
				{
					"inputs": [
						{
							"internalType": "bytes32",
							"name": "appId",
							"type": "bytes32"
						},
						{
							"internalType": "bytes32",
							"name": "key",
							"type": "bytes32"
						},
						{
							"internalType": "string",
							"name": "val",
							"type": "string"
						}
					],
					"name": "setKey",
					"outputs": [],
					"stateMutability": "nonpayable",
					"type": "function"
				},
				{
					"inputs": [
						{
							"internalType": "bytes32",
							"name": "appId",
							"type": "bytes32"
						}
					],
					"name": "setLike",
					"outputs": [
						{
							"internalType": "bool",
							"name": "",
							"type": "bool"
						}
					],
					"stateMutability": "nonpayable",
					"type": "function"
				},
				{
					"inputs": [
						{
							"internalType": "uint256",
							"name": "newPrice",
							"type": "uint256"
						}
					],
					"name": "setPrice",
					"outputs": [],
					"stateMutability": "nonpayable",
					"type": "function"
				},
				{
					"inputs": [
						{
							"internalType": "bytes32",
							"name": "appId",
							"type": "bytes32"
						}
					],
					"name": "toggleStatus",
					"outputs": [
						{
							"internalType": "bool",
							"name": "status",
							"type": "bool"
						}
					],
					"stateMutability": "nonpayable",
					"type": "function"
				},
				{
					"inputs": [
						{
							"internalType": "address payable",
							"name": "_to",
							"type": "address"
						},
						{
							"internalType": "uint256",
							"name": "_amount",
							"type": "uint256"
						}
					],
					"name": "transfer",
					"outputs": [],
					"stateMutability": "nonpayable",
					"type": "function"
				},
				{
					"inputs": [
						{
							"internalType": "address",
							"name": "newOwner",
							"type": "address"
						}
					],
					"name": "transferOwnership",
					"outputs": [],
					"stateMutability": "nonpayable",
					"type": "function"
				},
				{
					"inputs": [
						{
							"internalType": "bytes32",
							"name": "appId",
							"type": "bytes32"
						},
						{
							"internalType": "string",
							"name": "metadata",
							"type": "string"
						},
						{
							"internalType": "address",
							"name": "manager",
							"type": "address"
						}
					],
					"name": "updateApp",
					"outputs": [
						{
							"internalType": "bool",
							"name": "",
							"type": "bool"
						}
					],
					"stateMutability": "nonpayable",
					"type": "function"
				},
				{
					"inputs": [
						{
							"internalType": "bytes32",
							"name": "appId",
							"type": "bytes32"
						},
						{
							"internalType": "string",
							"name": "metadata",
							"type": "string"
						}
					],
					"name": "updateMetadata",
					"outputs": [
						{
							"internalType": "bool",
							"name": "",
							"type": "bool"
						}
					],
					"stateMutability": "nonpayable",
					"type": "function"
				},
				{
					"inputs": [
						{
							"internalType": "bytes32",
							"name": "appId",
							"type": "bytes32"
						},
						{
							"internalType": "address",
							"name": "manager",
							"type": "address"
						}
					],
					"name": "verifyManager",
					"outputs": [
						{
							"components": [
								{
									"internalType": "bytes32",
									"name": "id",
									"type": "bytes32"
								},
								{
									"internalType": "string",
									"name": "metadata",
									"type": "string"
								},
								{
									"internalType": "address",
									"name": "manager",
									"type": "address"
								},
								{
									"internalType": "uint256",
									"name": "dt",
									"type": "uint256"
								},
								{
									"internalType": "bool",
									"name": "status",
									"type": "bool"
								}
							],
							"internalType": "struct Upstore.AppStruct",
							"name": "",
							"type": "tuple"
						}
					],
					"stateMutability": "view",
					"type": "function"
				},
				{
					"inputs": [],
					"name": "withdraw",
					"outputs": [],
					"stateMutability": "nonpayable",
					"type": "function"
				},
				{
					"stateMutability": "payable",
					"type": "receive"
				}
			],
			"devdoc": {
				"author": "Aratta Labs",
				"custom:security-contact": "atenyun@gmail.com",
				"details": "Please ensure that you run the test before deploying. You can find the deployed contract addresses in the README.md file.",
				"errors": {
					"OwnableInvalidOwner(address)": [
						{
							"details": "The owner is not a valid owner account. (eg. `address(0)`)"
						}
					],
					"OwnableUnauthorizedAccount(address)": [
						{
							"details": "The caller account is not authorized to perform an operation."
						}
					]
				},
				"kind": "dev",
				"methods": {
					"delKey(bytes32,bytes32)": {
						"params": {
							"appId": "The bytes32 ID",
							"key": "A byte32 key"
						},
						"returns": {
							"_0": "boolean"
						}
					},
					"getApp(bytes32)": {
						"params": {
							"appId": "The unique bytes32 ID"
						},
						"returns": {
							"_0": "AppStruct"
						}
					},
					"getAppList()": {
						"details": "Returns the App array as AppStruct",
						"returns": {
							"_0": "AppStruct",
							"total": "total"
						}
					},
					"getAppTotal()": {
						"returns": {
							"_0": "uint256"
						}
					},
					"getKey(bytes32,bytes32)": {
						"params": {
							"appId": "The bytes32 ID",
							"key": "A byte32 key"
						},
						"returns": {
							"_0": "value in CID format"
						}
					},
					"getLikeTotal()": {
						"details": "Like[] starts from 0 to its length, a way to fetch all and filter it",
						"returns": {
							"total": "total"
						}
					},
					"getLikeTotal(bytes32)": {
						"params": {
							"appId": "The bytes32 ID"
						},
						"returns": {
							"_0": "uint256"
						}
					},
					"owner()": {
						"details": "Returns the address of the current owner."
					},
					"renounceOwnership()": {
						"details": "Leaves the contract without owner. It will not be possible to call `onlyOwner` functions. Can only be called by the current owner. NOTE: Renouncing ownership will leave the contract without an owner, thereby disabling any functionality that is only available to the owner."
					},
					"setApp(string,address)": {
						"details": "If the manager field is left empty, the sender will be recognized as the manager",
						"params": {
							"metadata": "(CID)"
						},
						"returns": {
							"appId": "appId"
						}
					},
					"setLike(bytes32)": {
						"details": "A like per address",
						"params": {
							"appId": "The bytes32 ID"
						},
						"returns": {
							"_0": "bool"
						}
					},
					"toggleStatus(bytes32)": {
						"details": "Only the owner of this contract can call/ aprove the dApp",
						"params": {
							"appId": "The bytes32 ID"
						},
						"returns": {
							"status": "status"
						}
					},
					"transferOwnership(address)": {
						"details": "Transfers ownership of the contract to a new account (`newOwner`). Can only be called by the current owner."
					},
					"updateApp(bytes32,string,address)": {
						"details": "Only the owner of this contract can call/ aprove the dApp",
						"params": {
							"appId": "The bytes32 ID"
						},
						"returns": {
							"_0": "boolean"
						}
					},
					"verifyManager(bytes32,address)": {
						"returns": {
							"_0": "appId"
						}
					}
				},
				"title": "Upstore 🆙",
				"version": 1
			},
			"evm": {
				"assembly": "    /* \"Upstore.sol\":403:8823  contract Upstore is Ownable(msg.sender) {... */\n  mstore(0x40, 0x80)\n    /* \"Upstore.sol\":1659:1806  constructor() {... */\n  callvalue\n  dup1\n  iszero\n  tag_1\n  jumpi\n  revert(0x00, 0x00)\ntag_1:\n  pop\n    /* \"Upstore.sol\":431:441  msg.sender */\n  caller\n    /* \"_ownable.sol\":1356:1357  0 */\n  0x00\n    /* \"_ownable.sol\":1332:1358  initialOwner == address(0) */\n  0xffffffffffffffffffffffffffffffffffffffff\n  and\n    /* \"_ownable.sol\":1332:1344  initialOwner */\n  dup2\n    /* \"_ownable.sol\":1332:1358  initialOwner == address(0) */\n  0xffffffffffffffffffffffffffffffffffffffff\n  and\n  sub\n    /* \"_ownable.sol\":1328:1425  if (initialOwner == address(0)) {... */\n  tag_5\n  jumpi\n    /* \"_ownable.sol\":1410:1411  0 */\n  0x00\n    /* \"_ownable.sol\":1382:1413  OwnableInvalidOwner(address(0)) */\n  mload(0x40)\n  0x1e4fbdf700000000000000000000000000000000000000000000000000000000\n  dup2\n  mstore\n  0x04\n  add\n  tag_6\n  swap2\n  swap1\n  tag_7\n  jump\t// in\ntag_6:\n  mload(0x40)\n  dup1\n  swap2\n  sub\n  swap1\n  revert\n    /* \"_ownable.sol\":1328:1425  if (initialOwner == address(0)) {... */\ntag_5:\n    /* \"_ownable.sol\":1435:1467  _transferOwnership(initialOwner) */\n  tag_8\n    /* \"_ownable.sol\":1454:1466  initialOwner */\n  dup2\n    /* \"_ownable.sol\":1435:1453  _transferOwnership */\n  shl(0x20, tag_9)\n    /* \"_ownable.sol\":1435:1467  _transferOwnership(initialOwner) */\n  0x20\n  shr\n  jump\t// in\ntag_8:\n    /* \"_ownable.sol\":1283:1475  constructor(address initialOwner) {... */\n  pop\n    /* \"Upstore.sol\":1770:1771  0 */\n  0x00\n    /* \"Upstore.sol\":1745:1766  _appCounter.current() */\n  tag_11\n    /* \"Upstore.sol\":1745:1756  _appCounter */\n  0x01\n    /* \"Upstore.sol\":1745:1764  _appCounter.current */\n  shl(0x20, tag_12)\n    /* \"Upstore.sol\":1745:1766  _appCounter.current() */\n  0x20\n  shr\n  jump\t// in\ntag_11:\n    /* \"Upstore.sol\":1745:1771  _appCounter.current() == 0 */\n  eq\n    /* \"Upstore.sol\":1738:1772  assert(_appCounter.current() == 0) */\n  tag_13\n  jumpi\n  tag_14\n  tag_15\n  jump\t// in\ntag_14:\ntag_13:\n    /* \"Upstore.sol\":1791:1798  1 ether */\n  0x0de0b6b3a7640000\n    /* \"Upstore.sol\":1783:1788  price */\n  0x02\n    /* \"Upstore.sol\":1783:1798  price = 1 ether */\n  dup2\n  swap1\n  sstore\n  pop\n    /* \"Upstore.sol\":403:8823  contract Upstore is Ownable(msg.sender) {... */\n  jump(tag_16)\n    /* \"_ownable.sol\":3027:3218  function _transferOwnership(address newOwner) internal virtual {... */\ntag_9:\n    /* \"_ownable.sol\":3101:3117  address oldOwner */\n  0x00\n    /* \"_ownable.sol\":3120:3126  _owner */\n  0x00\n  0x00\n  swap1\n  sload\n  swap1\n  0x0100\n  exp\n  swap1\n  div\n  0xffffffffffffffffffffffffffffffffffffffff\n  and\n    /* \"_ownable.sol\":3101:3126  address oldOwner = _owner */\n  swap1\n  pop\n    /* \"_ownable.sol\":3146:3154  newOwner */\n  dup2\n    /* \"_ownable.sol\":3137:3143  _owner */\n  0x00\n  0x00\n    /* \"_ownable.sol\":3137:3154  _owner = newOwner */\n  0x0100\n  exp\n  dup2\n  sload\n  dup2\n  0xffffffffffffffffffffffffffffffffffffffff\n  mul\n  not\n  and\n  swap1\n  dup4\n  0xffffffffffffffffffffffffffffffffffffffff\n  and\n  mul\n  or\n  swap1\n  sstore\n  pop\n    /* \"_ownable.sol\":3201:3209  newOwner */\n  dup2\n    /* \"_ownable.sol\":3170:3210  OwnershipTransferred(oldOwner, newOwner) */\n  0xffffffffffffffffffffffffffffffffffffffff\n  and\n    /* \"_ownable.sol\":3191:3199  oldOwner */\n  dup2\n    /* \"_ownable.sol\":3170:3210  OwnershipTransferred(oldOwner, newOwner) */\n  0xffffffffffffffffffffffffffffffffffffffff\n  and\n  0x8be0079c531659141344cd1fd0a4f28419497f9722a3daafe3b4186f6b6457e0\n  mload(0x40)\n  mload(0x40)\n  dup1\n  swap2\n  sub\n  swap1\n  log3\n    /* \"_ownable.sol\":3090:3218  {... */\n  pop\n    /* \"_ownable.sol\":3027:3218  function _transferOwnership(address newOwner) internal virtual {... */\n  pop\n  jump\t// out\n    /* \"@openzeppelin/contracts/utils/Counters.sol\":827:939  function current(Counter storage counter) internal view returns (uint256) {... */\ntag_12:\n    /* \"@openzeppelin/contracts/utils/Counters.sol\":892:899  uint256 */\n  0x00\n    /* \"@openzeppelin/contracts/utils/Counters.sol\":918:925  counter */\n  dup2\n    /* \"@openzeppelin/contracts/utils/Counters.sol\":918:932  counter._value */\n  0x00\n  add\n  sload\n    /* \"@openzeppelin/contracts/utils/Counters.sol\":911:932  return counter._value */\n  swap1\n  pop\n    /* \"@openzeppelin/contracts/utils/Counters.sol\":827:939  function current(Counter storage counter) internal view returns (uint256) {... */\n  swap2\n  swap1\n  pop\n  jump\t// out\n    /* \"#utility.yul\":7:133   */\ntag_19:\n    /* \"#utility.yul\":44:51   */\n  0x00\n    /* \"#utility.yul\":84:126   */\n  0xffffffffffffffffffffffffffffffffffffffff\n    /* \"#utility.yul\":77:82   */\n  dup3\n    /* \"#utility.yul\":73:127   */\n  and\n    /* \"#utility.yul\":62:127   */\n  swap1\n  pop\n    /* \"#utility.yul\":7:133   */\n  swap2\n  swap1\n  pop\n  jump\t// out\n    /* \"#utility.yul\":139:235   */\ntag_20:\n    /* \"#utility.yul\":176:183   */\n  0x00\n    /* \"#utility.yul\":205:229   */\n  tag_25\n    /* \"#utility.yul\":223:228   */\n  dup3\n    /* \"#utility.yul\":205:229   */\n  tag_19\n  jump\t// in\ntag_25:\n    /* \"#utility.yul\":194:229   */\n  swap1\n  pop\n    /* \"#utility.yul\":139:235   */\n  swap2\n  swap1\n  pop\n  jump\t// out\n    /* \"#utility.yul\":241:359   */\ntag_21:\n    /* \"#utility.yul\":328:352   */\n  tag_27\n    /* \"#utility.yul\":346:351   */\n  dup2\n    /* \"#utility.yul\":328:352   */\n  tag_20\n  jump\t// in\ntag_27:\n    /* \"#utility.yul\":323:326   */\n  dup3\n    /* \"#utility.yul\":316:353   */\n  mstore\n    /* \"#utility.yul\":241:359   */\n  pop\n  pop\n  jump\t// out\n    /* \"#utility.yul\":365:587   */\ntag_7:\n    /* \"#utility.yul\":458:462   */\n  0x00\n    /* \"#utility.yul\":496:498   */\n  0x20\n    /* \"#utility.yul\":485:494   */\n  dup3\n    /* \"#utility.yul\":481:499   */\n  add\n    /* \"#utility.yul\":473:499   */\n  swap1\n  pop\n    /* \"#utility.yul\":509:580   */\n  tag_29\n    /* \"#utility.yul\":577:578   */\n  0x00\n    /* \"#utility.yul\":566:575   */\n  dup4\n    /* \"#utility.yul\":562:579   */\n  add\n    /* \"#utility.yul\":553:559   */\n  dup5\n    /* \"#utility.yul\":509:580   */\n  tag_21\n  jump\t// in\ntag_29:\n    /* \"#utility.yul\":365:587   */\n  swap3\n  swap2\n  pop\n  pop\n  jump\t// out\n    /* \"#utility.yul\":593:773   */\ntag_15:\n    /* \"#utility.yul\":641:718   */\n  0x4e487b7100000000000000000000000000000000000000000000000000000000\n    /* \"#utility.yul\":638:639   */\n  0x00\n    /* \"#utility.yul\":631:719   */\n  mstore\n    /* \"#utility.yul\":738:742   */\n  0x01\n    /* \"#utility.yul\":735:736   */\n  0x04\n    /* \"#utility.yul\":728:743   */\n  mstore\n    /* \"#utility.yul\":762:766   */\n  0x24\n    /* \"#utility.yul\":759:760   */\n  0x00\n    /* \"#utility.yul\":752:767   */\n  revert\n    /* \"Upstore.sol\":403:8823  contract Upstore is Ownable(msg.sender) {... */\ntag_16:\n  dataSize(sub_0)\n  dup1\n  dataOffset(sub_0)\n  0x00\n  codecopy\n  0x00\n  return\nstop\n\nsub_0: assembly {\n        /* \"Upstore.sol\":403:8823  contract Upstore is Ownable(msg.sender) {... */\n      mstore(0x40, 0x80)\n      jumpi(tag_1, lt(calldatasize, 0x04))\n      shr(0xe0, calldataload(0x00))\n      dup1\n      0xa035b1fe\n      gt\n      tag_29\n      jumpi\n      dup1\n      0xc37f016c\n      gt\n      tag_30\n      jumpi\n      dup1\n      0xe0caa729\n      gt\n      tag_31\n      jumpi\n      dup1\n      0xe0caa729\n      eq\n      tag_25\n      jumpi\n      dup1\n      0xe82935da\n      eq\n      tag_26\n      jumpi\n      dup1\n      0xea2b77f2\n      eq\n      tag_27\n      jumpi\n      dup1\n      0xf2fde38b\n      eq\n      tag_28\n      jumpi\n      jump(tag_2)\n    tag_31:\n      dup1\n      0xc37f016c\n      eq\n      tag_22\n      jumpi\n      dup1\n      0xc5bdc0d3\n      eq\n      tag_23\n      jumpi\n      dup1\n      0xd0f34b10\n      eq\n      tag_24\n      jumpi\n      jump(tag_2)\n    tag_30:\n      dup1\n      0xa035b1fe\n      eq\n      tag_16\n      jumpi\n      dup1\n      0xa15ed1bc\n      eq\n      tag_17\n      jumpi\n      dup1\n      0xa375765e\n      eq\n      tag_18\n      jumpi\n      dup1\n      0xa9059cbb\n      eq\n      tag_19\n      jumpi\n      dup1\n      0xb440c736\n      eq\n      tag_20\n      jumpi\n      dup1\n      0xc3105a6b\n      eq\n      tag_21\n      jumpi\n      jump(tag_2)\n    tag_29:\n      dup1\n      0x47a8cfa4\n      gt\n      tag_32\n      jumpi\n      dup1\n      0x715018a6\n      gt\n      tag_33\n      jumpi\n      dup1\n      0x715018a6\n      eq\n      tag_12\n      jumpi\n      dup1\n      0x78b67b4f\n      eq\n      tag_13\n      jumpi\n      dup1\n      0x8da5cb5b\n      eq\n      tag_14\n      jumpi\n      dup1\n      0x91b7f5ed\n      eq\n      tag_15\n      jumpi\n      jump(tag_2)\n    tag_33:\n      dup1\n      0x47a8cfa4\n      eq\n      tag_9\n      jumpi\n      dup1\n      0x5de3b598\n      eq\n      tag_10\n      jumpi\n      dup1\n      0x5e4710a2\n      eq\n      tag_11\n      jumpi\n      jump(tag_2)\n    tag_32:\n      dup1\n      0x0ab03bf2\n      eq\n      tag_3\n      jumpi\n      dup1\n      0x12065fe0\n      eq\n      tag_4\n      jumpi\n      dup1\n      0x22a01240\n      eq\n      tag_5\n      jumpi\n      dup1\n      0x33e466ae\n      eq\n      tag_6\n      jumpi\n      dup1\n      0x3ccfd60b\n      eq\n      tag_7\n      jumpi\n      dup1\n      0x42c71f1d\n      eq\n      tag_8\n      jumpi\n      jump(tag_2)\n    tag_1:\n      jumpi(tag_2, calldatasize)\n      stop\n    tag_2:\n        /* \"Upstore.sol\":2016:2042  Log(\"fallback\", gasleft()) */\n      0xdd970dd9b5bfe707922155b058a407655cb18288b807e2216442bca8ad83d6b5\n        /* \"Upstore.sol\":2032:2041  gasleft() */\n      gas\n        /* \"Upstore.sol\":2016:2042  Log(\"fallback\", gasleft()) */\n      mload(0x40)\n      tag_38\n      swap2\n      swap1\n      tag_39\n      jump\t// in\n    tag_38:\n      mload(0x40)\n      dup1\n      swap2\n      sub\n      swap1\n      log1\n        /* \"Upstore.sol\":403:8823  contract Upstore is Ownable(msg.sender) {... */\n      stop\n        /* \"Upstore.sol\":5859:6164  function updateApp(... */\n    tag_3:\n      callvalue\n      dup1\n      iszero\n      tag_40\n      jumpi\n      revert(0x00, 0x00)\n    tag_40:\n      pop\n      tag_41\n      0x04\n      dup1\n      calldatasize\n      sub\n      dup2\n      add\n      swap1\n      tag_42\n      swap2\n      swap1\n      tag_43\n      jump\t// in\n    tag_42:\n      tag_44\n      jump\t// in\n    tag_41:\n      mload(0x40)\n      tag_45\n      swap2\n      swap1\n      tag_46\n      jump\t// in\n    tag_45:\n      mload(0x40)\n      dup1\n      swap2\n      sub\n      swap1\n      return\n        /* \"Upstore.sol\":8711:8820  function getBalance() public view onlyOwner returns (uint256) {... */\n    tag_4:\n      callvalue\n      dup1\n      iszero\n      tag_47\n      jumpi\n      revert(0x00, 0x00)\n    tag_47:\n      pop\n      tag_48\n      tag_49\n      jump\t// in\n    tag_48:\n      mload(0x40)\n      tag_50\n      swap2\n      swap1\n      tag_51\n      jump\t// in\n    tag_50:\n      mload(0x40)\n      dup1\n      swap2\n      sub\n      swap1\n      return\n        /* \"Upstore.sol\":2228:2400  function setKey(... */\n    tag_5:\n      callvalue\n      dup1\n      iszero\n      tag_52\n      jumpi\n      revert(0x00, 0x00)\n    tag_52:\n      pop\n      tag_53\n      0x04\n      dup1\n      calldatasize\n      sub\n      dup2\n      add\n      swap1\n      tag_54\n      swap2\n      swap1\n      tag_55\n      jump\t// in\n    tag_54:\n      tag_56\n      jump\t// in\n    tag_53:\n      stop\n        /* \"Upstore.sol\":1124:1146  AppStruct[] public app */\n    tag_6:\n      callvalue\n      dup1\n      iszero\n      tag_57\n      jumpi\n      revert(0x00, 0x00)\n    tag_57:\n      pop\n      tag_58\n      0x04\n      dup1\n      calldatasize\n      sub\n      dup2\n      add\n      swap1\n      tag_59\n      swap2\n      swap1\n      tag_60\n      jump\t// in\n    tag_59:\n      tag_61\n      jump\t// in\n    tag_58:\n      mload(0x40)\n      tag_62\n      swap6\n      swap5\n      swap4\n      swap3\n      swap2\n      swap1\n      tag_63\n      jump\t// in\n    tag_62:\n      mload(0x40)\n      dup1\n      swap2\n      sub\n      swap1\n      return\n        /* \"Upstore.sol\":8035:8339  function withdraw() public onlyOwner {... */\n    tag_7:\n      callvalue\n      dup1\n      iszero\n      tag_64\n      jumpi\n      revert(0x00, 0x00)\n    tag_64:\n      pop\n      tag_65\n      tag_66\n      jump\t// in\n    tag_65:\n      stop\n        /* \"Upstore.sol\":4164:4428  function getApp(bytes32 appId) public view returns (AppStruct memory) {... */\n    tag_8:\n      callvalue\n      dup1\n      iszero\n      tag_67\n      jumpi\n      revert(0x00, 0x00)\n    tag_67:\n      pop\n      tag_68\n      0x04\n      dup1\n      calldatasize\n      sub\n      dup2\n      add\n      swap1\n      tag_69\n      swap2\n      swap1\n      tag_70\n      jump\t// in\n    tag_69:\n      tag_71\n      jump\t// in\n    tag_68:\n      mload(0x40)\n      tag_72\n      swap2\n      swap1\n      tag_73\n      jump\t// in\n    tag_72:\n      mload(0x40)\n      dup1\n      swap2\n      sub\n      swap1\n      return\n        /* \"Upstore.sol\":6262:6351  function getAppTotal() public view returns (uint256) {... */\n    tag_9:\n      callvalue\n      dup1\n      iszero\n      tag_74\n      jumpi\n      revert(0x00, 0x00)\n    tag_74:\n      pop\n      tag_75\n      tag_76\n      jump\t// in\n    tag_75:\n      mload(0x40)\n      tag_77\n      swap2\n      swap1\n      tag_51\n      jump\t// in\n    tag_77:\n      mload(0x40)\n      dup1\n      swap2\n      sub\n      swap1\n      return\n        /* \"Upstore.sol\":2833:2990  function delKey(bytes32 appId, bytes32 key) public onlyManager(appId) returns (bool) {... */\n    tag_10:\n      callvalue\n      dup1\n      iszero\n      tag_78\n      jumpi\n      revert(0x00, 0x00)\n    tag_78:\n      pop\n      tag_79\n      0x04\n      dup1\n      calldatasize\n      sub\n      dup2\n      add\n      swap1\n      tag_80\n      swap2\n      swap1\n      tag_81\n      jump\t// in\n    tag_80:\n      tag_82\n      jump\t// in\n    tag_79:\n      mload(0x40)\n      tag_83\n      swap2\n      swap1\n      tag_46\n      jump\t// in\n    tag_83:\n      mload(0x40)\n      dup1\n      swap2\n      sub\n      swap1\n      return\n        /* \"Upstore.sol\":492:527  Counters.Counter public _appCounter */\n    tag_11:\n      callvalue\n      dup1\n      iszero\n      tag_84\n      jumpi\n      revert(0x00, 0x00)\n    tag_84:\n      pop\n      tag_85\n      tag_86\n      jump\t// in\n    tag_85:\n      mload(0x40)\n      tag_87\n      swap2\n      swap1\n      tag_51\n      jump\t// in\n    tag_87:\n      mload(0x40)\n      dup1\n      swap2\n      sub\n      swap1\n      return\n        /* \"_ownable.sol\":2389:2492  function renounceOwnership() public virtual onlyOwner {... */\n    tag_12:\n      callvalue\n      dup1\n      iszero\n      tag_88\n      jumpi\n      revert(0x00, 0x00)\n    tag_88:\n      pop\n      tag_89\n      tag_90\n      jump\t// in\n    tag_89:\n      stop\n        /* \"Upstore.sol\":4557:5026  function setLike(bytes32 appId) public returns (bool) {... */\n    tag_13:\n      callvalue\n      dup1\n      iszero\n      tag_91\n      jumpi\n      revert(0x00, 0x00)\n    tag_91:\n      pop\n      tag_92\n      0x04\n      dup1\n      calldatasize\n      sub\n      dup2\n      add\n      swap1\n      tag_93\n      swap2\n      swap1\n      tag_70\n      jump\t// in\n    tag_93:\n      tag_94\n      jump\t// in\n    tag_92:\n      mload(0x40)\n      tag_95\n      swap2\n      swap1\n      tag_46\n      jump\t// in\n    tag_95:\n      mload(0x40)\n      dup1\n      swap2\n      sub\n      swap1\n      return\n        /* \"_ownable.sol\":1714:1801  function owner() public view virtual returns (address) {... */\n    tag_14:\n      callvalue\n      dup1\n      iszero\n      tag_96\n      jumpi\n      revert(0x00, 0x00)\n    tag_96:\n      pop\n      tag_97\n      tag_98\n      jump\t// in\n    tag_97:\n      mload(0x40)\n      tag_99\n      swap2\n      swap1\n      tag_100\n      jump\t// in\n    tag_99:\n      mload(0x40)\n      dup1\n      swap2\n      sub\n      swap1\n      return\n        /* \"Upstore.sol\":2092:2180  function setPrice(uint256 newPrice) public onlyOwner {... */\n    tag_15:\n      callvalue\n      dup1\n      iszero\n      tag_101\n      jumpi\n      revert(0x00, 0x00)\n    tag_101:\n      pop\n      tag_102\n      0x04\n      dup1\n      calldatasize\n      sub\n      dup2\n      add\n      swap1\n      tag_103\n      swap2\n      swap1\n      tag_60\n      jump\t// in\n    tag_103:\n      tag_104\n      jump\t// in\n    tag_102:\n      stop\n        /* \"Upstore.sol\":534:554  uint256 public price */\n    tag_16:\n      callvalue\n      dup1\n      iszero\n      tag_105\n      jumpi\n      revert(0x00, 0x00)\n    tag_105:\n      pop\n      tag_106\n      tag_107\n      jump\t// in\n    tag_106:\n      mload(0x40)\n      tag_108\n      swap2\n      swap1\n      tag_51\n      jump\t// in\n    tag_108:\n      mload(0x40)\n      dup1\n      swap2\n      sub\n      swap1\n      return\n        /* \"Upstore.sol\":7560:7657  function getLikeTotal() public view returns (uint256 total) {... */\n    tag_17:\n      callvalue\n      dup1\n      iszero\n      tag_109\n      jumpi\n      revert(0x00, 0x00)\n    tag_109:\n      pop\n      tag_110\n      tag_111\n      jump\t// in\n    tag_110:\n      mload(0x40)\n      tag_112\n      swap2\n      swap1\n      tag_51\n      jump\t// in\n    tag_112:\n      mload(0x40)\n      dup1\n      swap2\n      sub\n      swap1\n      return\n        /* \"Upstore.sol\":5434:5660  function updateMetadata(bytes32 appId, string memory metadata) public onlyManager(appId) returns (bool) {... */\n    tag_18:\n      callvalue\n      dup1\n      iszero\n      tag_113\n      jumpi\n      revert(0x00, 0x00)\n    tag_113:\n      pop\n      tag_114\n      0x04\n      dup1\n      calldatasize\n      sub\n      dup2\n      add\n      swap1\n      tag_115\n      swap2\n      swap1\n      tag_116\n      jump\t// in\n    tag_115:\n      tag_117\n      jump\t// in\n    tag_114:\n      mload(0x40)\n      tag_118\n      swap2\n      swap1\n      tag_46\n      jump\t// in\n    tag_118:\n      mload(0x40)\n      dup1\n      swap2\n      sub\n      swap1\n      return\n        /* \"Upstore.sol\":8423:8663  function transfer(address payable _to, uint256 _amount) public onlyOwner {... */\n    tag_19:\n      callvalue\n      dup1\n      iszero\n      tag_119\n      jumpi\n      revert(0x00, 0x00)\n    tag_119:\n      pop\n      tag_120\n      0x04\n      dup1\n      calldatasize\n      sub\n      dup2\n      add\n      swap1\n      tag_121\n      swap2\n      swap1\n      tag_122\n      jump\t// in\n    tag_121:\n      tag_123\n      jump\t// in\n    tag_120:\n      stop\n        /* \"Upstore.sol\":3179:4053  function setApp(string memory metadata, address manager) public payable returns (bytes32 appId) {... */\n    tag_20:\n      tag_124\n      0x04\n      dup1\n      calldatasize\n      sub\n      dup2\n      add\n      swap1\n      tag_125\n      swap2\n      swap1\n      tag_126\n      jump\t// in\n    tag_125:\n      tag_127\n      jump\t// in\n    tag_124:\n      mload(0x40)\n      tag_128\n      swap2\n      swap1\n      tag_129\n      jump\t// in\n    tag_128:\n      mload(0x40)\n      dup1\n      swap2\n      sub\n      swap1\n      return\n        /* \"Upstore.sol\":2553:2683  function getKey(bytes32 appId, bytes32 key) public view returns (string memory) {... */\n    tag_21:\n      callvalue\n      dup1\n      iszero\n      tag_130\n      jumpi\n      revert(0x00, 0x00)\n    tag_130:\n      pop\n      tag_131\n      0x04\n      dup1\n      calldatasize\n      sub\n      dup2\n      add\n      swap1\n      tag_132\n      swap2\n      swap1\n      tag_81\n      jump\t// in\n    tag_132:\n      tag_133\n      jump\t// in\n    tag_131:\n      mload(0x40)\n      tag_134\n      swap2\n      swap1\n      tag_135\n      jump\t// in\n    tag_134:\n      mload(0x40)\n      dup1\n      swap2\n      sub\n      swap1\n      return\n        /* \"Upstore.sol\":5128:5348  function getLikeTotal(bytes32 appId) public view returns (uint256) {... */\n    tag_22:\n      callvalue\n      dup1\n      iszero\n      tag_136\n      jumpi\n      revert(0x00, 0x00)\n    tag_136:\n      pop\n      tag_137\n      0x04\n      dup1\n      calldatasize\n      sub\n      dup2\n      add\n      swap1\n      tag_138\n      swap2\n      swap1\n      tag_70\n      jump\t// in\n    tag_138:\n      tag_139\n      jump\t// in\n    tag_137:\n      mload(0x40)\n      tag_140\n      swap2\n      swap1\n      tag_51\n      jump\t// in\n    tag_140:\n      mload(0x40)\n      dup1\n      swap2\n      sub\n      swap1\n      return\n        /* \"Upstore.sol\":6435:6748  function verifyManager(bytes32 appId, address manager) public view returns (AppStruct memory) {... */\n    tag_23:\n      callvalue\n      dup1\n      iszero\n      tag_141\n      jumpi\n      revert(0x00, 0x00)\n    tag_141:\n      pop\n      tag_142\n      0x04\n      dup1\n      calldatasize\n      sub\n      dup2\n      add\n      swap1\n      tag_143\n      swap2\n      swap1\n      tag_144\n      jump\t// in\n    tag_143:\n      tag_145\n      jump\t// in\n    tag_142:\n      mload(0x40)\n      tag_146\n      swap2\n      swap1\n      tag_73\n      jump\t// in\n    tag_146:\n      mload(0x40)\n      dup1\n      swap2\n      sub\n      swap1\n      return\n        /* \"Upstore.sol\":7286:7407  function getAppList() public view returns (AppStruct[] memory, uint256 total) {... */\n    tag_24:\n      callvalue\n      dup1\n      iszero\n      tag_147\n      jumpi\n      revert(0x00, 0x00)\n    tag_147:\n      pop\n      tag_148\n      tag_149\n      jump\t// in\n    tag_148:\n      mload(0x40)\n      tag_150\n      swap3\n      swap2\n      swap1\n      tag_151\n      jump\t// in\n    tag_150:\n      mload(0x40)\n      dup1\n      swap2\n      sub\n      swap1\n      return\n        /* \"Upstore.sol\":1292:1358  mapping(bytes32 => mapping(bytes32 => string)) public blockStorage */\n    tag_25:\n      callvalue\n      dup1\n      iszero\n      tag_152\n      jumpi\n      revert(0x00, 0x00)\n    tag_152:\n      pop\n      tag_153\n      0x04\n      dup1\n      calldatasize\n      sub\n      dup2\n      add\n      swap1\n      tag_154\n      swap2\n      swap1\n      tag_81\n      jump\t// in\n    tag_154:\n      tag_155\n      jump\t// in\n    tag_153:\n      mload(0x40)\n      tag_156\n      swap2\n      swap1\n      tag_135\n      jump\t// in\n    tag_156:\n      mload(0x40)\n      dup1\n      swap2\n      sub\n      swap1\n      return\n        /* \"Upstore.sol\":1259:1283  LikeStruct[] public like */\n    tag_26:\n      callvalue\n      dup1\n      iszero\n      tag_157\n      jumpi\n      revert(0x00, 0x00)\n    tag_157:\n      pop\n      tag_158\n      0x04\n      dup1\n      calldatasize\n      sub\n      dup2\n      add\n      swap1\n      tag_159\n      swap2\n      swap1\n      tag_60\n      jump\t// in\n    tag_159:\n      tag_160\n      jump\t// in\n    tag_158:\n      mload(0x40)\n      tag_161\n      swap4\n      swap3\n      swap2\n      swap1\n      tag_162\n      jump\t// in\n    tag_161:\n      mload(0x40)\n      dup1\n      swap2\n      sub\n      swap1\n      return\n        /* \"Upstore.sol\":6946:7140  function toggleStatus(bytes32 appId) public onlyOwner returns (bool status) {... */\n    tag_27:\n      callvalue\n      dup1\n      iszero\n      tag_163\n      jumpi\n      revert(0x00, 0x00)\n    tag_163:\n      pop\n      tag_164\n      0x04\n      dup1\n      calldatasize\n      sub\n      dup2\n      add\n      swap1\n      tag_165\n      swap2\n      swap1\n      tag_70\n      jump\t// in\n    tag_165:\n      tag_166\n      jump\t// in\n    tag_164:\n      mload(0x40)\n      tag_167\n      swap2\n      swap1\n      tag_46\n      jump\t// in\n    tag_167:\n      mload(0x40)\n      dup1\n      swap2\n      sub\n      swap1\n      return\n        /* \"_ownable.sol\":2647:2867  function transferOwnership(address newOwner) public virtual onlyOwner {... */\n    tag_28:\n      callvalue\n      dup1\n      iszero\n      tag_168\n      jumpi\n      revert(0x00, 0x00)\n    tag_168:\n      pop\n      tag_169\n      0x04\n      dup1\n      calldatasize\n      sub\n      dup2\n      add\n      swap1\n      tag_170\n      swap2\n      swap1\n      tag_171\n      jump\t// in\n    tag_170:\n      tag_172\n      jump\t// in\n    tag_169:\n      stop\n        /* \"Upstore.sol\":5859:6164  function updateApp(... */\n    tag_44:\n        /* \"Upstore.sol\":5994:5998  bool */\n      0x00\n        /* \"_ownable.sol\":1600:1613  _checkOwner() */\n      tag_174\n        /* \"_ownable.sol\":1600:1611  _checkOwner */\n      tag_175\n        /* \"_ownable.sol\":1600:1613  _checkOwner() */\n      jump\t// in\n    tag_174:\n        /* \"Upstore.sol\":6011:6027  uint256 appIndex */\n      0x00\n        /* \"Upstore.sol\":6030:6048  _indexOfApp(appId) */\n      tag_177\n        /* \"Upstore.sol\":6042:6047  appId */\n      dup6\n        /* \"Upstore.sol\":6030:6041  _indexOfApp */\n      tag_178\n        /* \"Upstore.sol\":6030:6048  _indexOfApp(appId) */\n      jump\t// in\n    tag_177:\n        /* \"Upstore.sol\":6011:6048  uint256 appIndex = _indexOfApp(appId) */\n      swap1\n      pop\n        /* \"Upstore.sol\":6084:6092  metadata */\n      dup4\n        /* \"Upstore.sol\":6059:6062  app */\n      0x03\n        /* \"Upstore.sol\":6063:6071  appIndex */\n      dup3\n        /* \"Upstore.sol\":6059:6072  app[appIndex] */\n      dup2\n      sload\n      dup2\n      lt\n      tag_179\n      jumpi\n      tag_180\n      tag_181\n      jump\t// in\n    tag_180:\n    tag_179:\n      swap1\n      0x00\n      mstore\n      keccak256(0x00, 0x20)\n      swap1\n      0x05\n      mul\n      add\n        /* \"Upstore.sol\":6059:6081  app[appIndex].metadata */\n      0x01\n      add\n        /* \"Upstore.sol\":6059:6092  app[appIndex].metadata = metadata */\n      swap1\n      dup2\n      tag_183\n      swap2\n      swap1\n      tag_184\n      jump\t// in\n    tag_183:\n      pop\n        /* \"Upstore.sol\":6127:6134  manager */\n      dup3\n        /* \"Upstore.sol\":6103:6106  app */\n      0x03\n        /* \"Upstore.sol\":6107:6115  appIndex */\n      dup3\n        /* \"Upstore.sol\":6103:6116  app[appIndex] */\n      dup2\n      sload\n      dup2\n      lt\n      tag_185\n      jumpi\n      tag_186\n      tag_181\n      jump\t// in\n    tag_186:\n    tag_185:\n      swap1\n      0x00\n      mstore\n      keccak256(0x00, 0x20)\n      swap1\n      0x05\n      mul\n      add\n        /* \"Upstore.sol\":6103:6124  app[appIndex].manager */\n      0x02\n      add\n      0x00\n        /* \"Upstore.sol\":6103:6134  app[appIndex].manager = manager */\n      0x0100\n      exp\n      dup2\n      sload\n      dup2\n      0xffffffffffffffffffffffffffffffffffffffff\n      mul\n      not\n      and\n      swap1\n      dup4\n      0xffffffffffffffffffffffffffffffffffffffff\n      and\n      mul\n      or\n      swap1\n      sstore\n      pop\n        /* \"Upstore.sol\":6152:6156  true */\n      0x01\n        /* \"Upstore.sol\":6145:6156  return true */\n      swap2\n      pop\n      pop\n        /* \"Upstore.sol\":5859:6164  function updateApp(... */\n      swap4\n      swap3\n      pop\n      pop\n      pop\n      jump\t// out\n        /* \"Upstore.sol\":8711:8820  function getBalance() public view onlyOwner returns (uint256) {... */\n    tag_49:\n        /* \"Upstore.sol\":8764:8771  uint256 */\n      0x00\n        /* \"_ownable.sol\":1600:1613  _checkOwner() */\n      tag_189\n        /* \"_ownable.sol\":1600:1611  _checkOwner */\n      tag_175\n        /* \"_ownable.sol\":1600:1613  _checkOwner() */\n      jump\t// in\n    tag_189:\n        /* \"Upstore.sol\":8791:8812  address(this).balance */\n      selfbalance\n        /* \"Upstore.sol\":8784:8812  return address(this).balance */\n      swap1\n      pop\n        /* \"Upstore.sol\":8711:8820  function getBalance() public view onlyOwner returns (uint256) {... */\n      swap1\n      jump\t// out\n        /* \"Upstore.sol\":2228:2400  function setKey(... */\n    tag_56:\n        /* \"Upstore.sol\":2344:2349  appId */\n      dup3\n        /* \"Upstore.sol\":1483:1499  uint256 appIndex */\n      0x00\n        /* \"Upstore.sol\":1502:1520  _indexOfApp(appId) */\n      tag_192\n        /* \"Upstore.sol\":1514:1519  appId */\n      dup3\n        /* \"Upstore.sol\":1502:1513  _indexOfApp */\n      tag_178\n        /* \"Upstore.sol\":1502:1520  _indexOfApp(appId) */\n      jump\t// in\n    tag_192:\n        /* \"Upstore.sol\":1483:1520  uint256 appIndex = _indexOfApp(appId) */\n      swap1\n      pop\n        /* \"Upstore.sol\":1564:1574  msg.sender */\n      caller\n        /* \"Upstore.sol\":1539:1574  app[appIndex].manager == msg.sender */\n      0xffffffffffffffffffffffffffffffffffffffff\n      and\n        /* \"Upstore.sol\":1539:1542  app */\n      0x03\n        /* \"Upstore.sol\":1543:1551  appIndex */\n      dup3\n        /* \"Upstore.sol\":1539:1552  app[appIndex] */\n      dup2\n      sload\n      dup2\n      lt\n      tag_193\n      jumpi\n      tag_194\n      tag_181\n      jump\t// in\n    tag_194:\n    tag_193:\n      swap1\n      0x00\n      mstore\n      keccak256(0x00, 0x20)\n      swap1\n      0x05\n      mul\n      add\n        /* \"Upstore.sol\":1539:1560  app[appIndex].manager */\n      0x02\n      add\n      0x00\n      swap1\n      sload\n      swap1\n      0x0100\n      exp\n      swap1\n      div\n      0xffffffffffffffffffffffffffffffffffffffff\n      and\n        /* \"Upstore.sol\":1539:1574  app[appIndex].manager == msg.sender */\n      0xffffffffffffffffffffffffffffffffffffffff\n      and\n      eq\n        /* \"Upstore.sol\":1531:1631  require(app[appIndex].manager == msg.sender, \"The sender is not the manager of the entered app ID.\") */\n      tag_196\n      jumpi\n      mload(0x40)\n      0x08c379a000000000000000000000000000000000000000000000000000000000\n      dup2\n      mstore\n      0x04\n      add\n      tag_197\n      swap1\n      tag_198\n      jump\t// in\n    tag_197:\n      mload(0x40)\n      dup1\n      swap2\n      sub\n      swap1\n      revert\n    tag_196:\n        /* \"Upstore.sol\":2389:2392  val */\n      dup3\n        /* \"Upstore.sol\":2362:2374  blockStorage */\n      0x05\n        /* \"Upstore.sol\":2362:2381  blockStorage[appId] */\n      0x00\n        /* \"Upstore.sol\":2375:2380  appId */\n      dup8\n        /* \"Upstore.sol\":2362:2381  blockStorage[appId] */\n      dup2\n      mstore\n      0x20\n      add\n      swap1\n      dup2\n      mstore\n      0x20\n      add\n      0x00\n      keccak256\n        /* \"Upstore.sol\":2362:2386  blockStorage[appId][key] */\n      0x00\n        /* \"Upstore.sol\":2382:2385  key */\n      dup7\n        /* \"Upstore.sol\":2362:2386  blockStorage[appId][key] */\n      dup2\n      mstore\n      0x20\n      add\n      swap1\n      dup2\n      mstore\n      0x20\n      add\n      0x00\n      keccak256\n        /* \"Upstore.sol\":2362:2392  blockStorage[appId][key] = val */\n      swap1\n      dup2\n      tag_200\n      swap2\n      swap1\n      tag_184\n      jump\t// in\n    tag_200:\n      pop\n        /* \"Upstore.sol\":1472:1651  {... */\n      pop\n        /* \"Upstore.sol\":2228:2400  function setKey(... */\n      pop\n      pop\n      pop\n      pop\n      jump\t// out\n        /* \"Upstore.sol\":1124:1146  AppStruct[] public app */\n    tag_61:\n      0x03\n      dup2\n      dup2\n      sload\n      dup2\n      lt\n      tag_201\n      jumpi\n      0x00\n      dup1\n      revert\n    tag_201:\n      swap1\n      0x00\n      mstore\n      keccak256(0x00, 0x20)\n      swap1\n      0x05\n      mul\n      add\n      0x00\n      swap2\n      pop\n      swap1\n      pop\n      dup1\n      0x00\n      add\n      sload\n      swap1\n      dup1\n      0x01\n      add\n      dup1\n      sload\n      tag_203\n      swap1\n      tag_204\n      jump\t// in\n    tag_203:\n      dup1\n      0x1f\n      add\n      0x20\n      dup1\n      swap2\n      div\n      mul\n      0x20\n      add\n      mload(0x40)\n      swap1\n      dup2\n      add\n      0x40\n      mstore\n      dup1\n      swap3\n      swap2\n      swap1\n      dup2\n      dup2\n      mstore\n      0x20\n      add\n      dup3\n      dup1\n      sload\n      tag_205\n      swap1\n      tag_204\n      jump\t// in\n    tag_205:\n      dup1\n      iszero\n      tag_206\n      jumpi\n      dup1\n      0x1f\n      lt\n      tag_207\n      jumpi\n      0x0100\n      dup1\n      dup4\n      sload\n      div\n      mul\n      dup4\n      mstore\n      swap2\n      0x20\n      add\n      swap2\n      jump(tag_206)\n    tag_207:\n      dup3\n      add\n      swap2\n      swap1\n      0x00\n      mstore\n      keccak256(0x00, 0x20)\n      swap1\n    tag_208:\n      dup2\n      sload\n      dup2\n      mstore\n      swap1\n      0x01\n      add\n      swap1\n      0x20\n      add\n      dup1\n      dup4\n      gt\n      tag_208\n      jumpi\n      dup3\n      swap1\n      sub\n      0x1f\n      and\n      dup3\n      add\n      swap2\n    tag_206:\n      pop\n      pop\n      pop\n      pop\n      pop\n      swap1\n      dup1\n      0x02\n      add\n      0x00\n      swap1\n      sload\n      swap1\n      0x0100\n      exp\n      swap1\n      div\n      0xffffffffffffffffffffffffffffffffffffffff\n      and\n      swap1\n      dup1\n      0x03\n      add\n      sload\n      swap1\n      dup1\n      0x04\n      add\n      0x00\n      swap1\n      sload\n      swap1\n      0x0100\n      exp\n      swap1\n      div\n      0xff\n      and\n      swap1\n      pop\n      dup6\n      jump\t// out\n        /* \"Upstore.sol\":8035:8339  function withdraw() public onlyOwner {... */\n    tag_66:\n        /* \"_ownable.sol\":1600:1613  _checkOwner() */\n      tag_210\n        /* \"_ownable.sol\":1600:1611  _checkOwner */\n      tag_175\n        /* \"_ownable.sol\":1600:1613  _checkOwner() */\n      jump\t// in\n    tag_210:\n        /* \"Upstore.sol\":8143:8157  uint256 amount */\n      0x00\n        /* \"Upstore.sol\":8160:8181  address(this).balance */\n      selfbalance\n        /* \"Upstore.sol\":8143:8181  uint256 amount = address(this).balance */\n      swap1\n      pop\n        /* \"Upstore.sol\":8231:8243  bool success */\n      0x00\n        /* \"Upstore.sol\":8249:8256  owner() */\n      tag_212\n        /* \"Upstore.sol\":8249:8254  owner */\n      tag_98\n        /* \"Upstore.sol\":8249:8256  owner() */\n      jump\t// in\n    tag_212:\n        /* \"Upstore.sol\":8249:8261  owner().call */\n      0xffffffffffffffffffffffffffffffffffffffff\n      and\n        /* \"Upstore.sol\":8269:8275  amount */\n      dup3\n        /* \"Upstore.sol\":8249:8280  owner().call{value: amount}(\"\") */\n      mload(0x40)\n      tag_213\n      swap1\n      tag_214\n      jump\t// in\n    tag_213:\n      0x00\n      mload(0x40)\n      dup1\n      dup4\n      sub\n      dup2\n      dup6\n      dup8\n      gas\n      call\n      swap3\n      pop\n      pop\n      pop\n      returndatasize\n      dup1\n      0x00\n      dup2\n      eq\n      tag_217\n      jumpi\n      mload(0x40)\n      swap2\n      pop\n      and(add(returndatasize, 0x3f), not(0x1f))\n      dup3\n      add\n      0x40\n      mstore\n      returndatasize\n      dup3\n      mstore\n      returndatasize\n      0x00\n      0x20\n      dup5\n      add\n      returndatacopy\n      jump(tag_216)\n    tag_217:\n      0x60\n      swap2\n      pop\n    tag_216:\n      pop\n        /* \"Upstore.sol\":8230:8280  (bool success, ) = owner().call{value: amount}(\"\") */\n      pop\n      swap1\n      pop\n        /* \"Upstore.sol\":8299:8306  success */\n      dup1\n        /* \"Upstore.sol\":8291:8331  require(success, \"Failed to send Ether\") */\n      tag_218\n      jumpi\n      mload(0x40)\n      0x08c379a000000000000000000000000000000000000000000000000000000000\n      dup2\n      mstore\n      0x04\n      add\n      tag_219\n      swap1\n      tag_220\n      jump\t// in\n    tag_219:\n      mload(0x40)\n      dup1\n      swap2\n      sub\n      swap1\n      revert\n    tag_218:\n        /* \"Upstore.sol\":8072:8339  {... */\n      pop\n      pop\n        /* \"Upstore.sol\":8035:8339  function withdraw() public onlyOwner {... */\n      jump\t// out\n        /* \"Upstore.sol\":4164:4428  function getApp(bytes32 appId) public view returns (AppStruct memory) {... */\n    tag_71:\n        /* \"Upstore.sol\":4216:4232  AppStruct memory */\n      tag_221\n      tag_222\n      jump\t// in\n    tag_221:\n        /* \"Upstore.sol\":4250:4259  uint256 i */\n      0x00\n        /* \"Upstore.sol\":4262:4263  0 */\n      0x00\n        /* \"Upstore.sol\":4250:4263  uint256 i = 0 */\n      swap1\n      pop\n        /* \"Upstore.sol\":4245:4340  for (uint256 i = 0; i < app.length; i++) if (app[i].id == appId && app[i].status) return app[i] */\n    tag_224:\n        /* \"Upstore.sol\":4269:4272  app */\n      0x03\n        /* \"Upstore.sol\":4269:4279  app.length */\n      dup1\n      sload\n      swap1\n      pop\n        /* \"Upstore.sol\":4265:4266  i */\n      dup2\n        /* \"Upstore.sol\":4265:4279  i < app.length */\n      lt\n        /* \"Upstore.sol\":4245:4340  for (uint256 i = 0; i < app.length; i++) if (app[i].id == appId && app[i].status) return app[i] */\n      iszero\n      tag_225\n      jumpi\n        /* \"Upstore.sol\":4303:4308  appId */\n      dup3\n        /* \"Upstore.sol\":4290:4293  app */\n      0x03\n        /* \"Upstore.sol\":4294:4295  i */\n      dup3\n        /* \"Upstore.sol\":4290:4296  app[i] */\n      dup2\n      sload\n      dup2\n      lt\n      tag_227\n      jumpi\n      tag_228\n      tag_181\n      jump\t// in\n    tag_228:\n    tag_227:\n      swap1\n      0x00\n      mstore\n      keccak256(0x00, 0x20)\n      swap1\n      0x05\n      mul\n      add\n        /* \"Upstore.sol\":4290:4299  app[i].id */\n      0x00\n      add\n      sload\n        /* \"Upstore.sol\":4290:4308  app[i].id == appId */\n      eq\n        /* \"Upstore.sol\":4290:4325  app[i].id == appId && app[i].status */\n      dup1\n      iszero\n      tag_230\n      jumpi\n      pop\n        /* \"Upstore.sol\":4312:4315  app */\n      0x03\n        /* \"Upstore.sol\":4316:4317  i */\n      dup2\n        /* \"Upstore.sol\":4312:4318  app[i] */\n      dup2\n      sload\n      dup2\n      lt\n      tag_231\n      jumpi\n      tag_232\n      tag_181\n      jump\t// in\n    tag_232:\n    tag_231:\n      swap1\n      0x00\n      mstore\n      keccak256(0x00, 0x20)\n      swap1\n      0x05\n      mul\n      add\n        /* \"Upstore.sol\":4312:4325  app[i].status */\n      0x04\n      add\n      0x00\n      swap1\n      sload\n      swap1\n      0x0100\n      exp\n      swap1\n      div\n      0xff\n      and\n        /* \"Upstore.sol\":4290:4325  app[i].id == appId && app[i].status */\n    tag_230:\n        /* \"Upstore.sol\":4286:4340  if (app[i].id == appId && app[i].status) return app[i] */\n      iszero\n      tag_234\n      jumpi\n        /* \"Upstore.sol\":4334:4337  app */\n      0x03\n        /* \"Upstore.sol\":4338:4339  i */\n      dup2\n        /* \"Upstore.sol\":4334:4340  app[i] */\n      dup2\n      sload\n      dup2\n      lt\n      tag_235\n      jumpi\n      tag_236\n      tag_181\n      jump\t// in\n    tag_236:\n    tag_235:\n      swap1\n      0x00\n      mstore\n      keccak256(0x00, 0x20)\n      swap1\n      0x05\n      mul\n      add\n        /* \"Upstore.sol\":4327:4340  return app[i] */\n      mload(0x40)\n      dup1\n      0xa0\n      add\n      0x40\n      mstore\n      swap1\n      dup2\n      0x00\n      dup3\n      add\n      sload\n      dup2\n      mstore\n      0x20\n      add\n      0x01\n      dup3\n      add\n      dup1\n      sload\n      tag_238\n      swap1\n      tag_204\n      jump\t// in\n    tag_238:\n      dup1\n      0x1f\n      add\n      0x20\n      dup1\n      swap2\n      div\n      mul\n      0x20\n      add\n      mload(0x40)\n      swap1\n      dup2\n      add\n      0x40\n      mstore\n      dup1\n      swap3\n      swap2\n      swap1\n      dup2\n      dup2\n      mstore\n      0x20\n      add\n      dup3\n      dup1\n      sload\n      tag_239\n      swap1\n      tag_204\n      jump\t// in\n    tag_239:\n      dup1\n      iszero\n      tag_240\n      jumpi\n      dup1\n      0x1f\n      lt\n      tag_241\n      jumpi\n      0x0100\n      dup1\n      dup4\n      sload\n      div\n      mul\n      dup4\n      mstore\n      swap2\n      0x20\n      add\n      swap2\n      jump(tag_240)\n    tag_241:\n      dup3\n      add\n      swap2\n      swap1\n      0x00\n      mstore\n      keccak256(0x00, 0x20)\n      swap1\n    tag_242:\n      dup2\n      sload\n      dup2\n      mstore\n      swap1\n      0x01\n      add\n      swap1\n      0x20\n      add\n      dup1\n      dup4\n      gt\n      tag_242\n      jumpi\n      dup3\n      swap1\n      sub\n      0x1f\n      and\n      dup3\n      add\n      swap2\n    tag_240:\n      pop\n      pop\n      pop\n      pop\n      pop\n      dup2\n      mstore\n      0x20\n      add\n      0x02\n      dup3\n      add\n      0x00\n      swap1\n      sload\n      swap1\n      0x0100\n      exp\n      swap1\n      div\n      0xffffffffffffffffffffffffffffffffffffffff\n      and\n      0xffffffffffffffffffffffffffffffffffffffff\n      and\n      0xffffffffffffffffffffffffffffffffffffffff\n      and\n      dup2\n      mstore\n      0x20\n      add\n      0x03\n      dup3\n      add\n      sload\n      dup2\n      mstore\n      0x20\n      add\n      0x04\n      dup3\n      add\n      0x00\n      swap1\n      sload\n      swap1\n      0x0100\n      exp\n      swap1\n      div\n      0xff\n      and\n      iszero\n      iszero\n      iszero\n      iszero\n      dup2\n      mstore\n      pop\n      pop\n      swap2\n      pop\n      pop\n      jump(tag_223)\n        /* \"Upstore.sol\":4286:4340  if (app[i].id == appId && app[i].status) return app[i] */\n    tag_234:\n        /* \"Upstore.sol\":4281:4284  i++ */\n      dup1\n      dup1\n      0x01\n      add\n      swap2\n      pop\n      pop\n        /* \"Upstore.sol\":4245:4340  for (uint256 i = 0; i < app.length; i++) if (app[i].id == appId && app[i].status) return app[i] */\n      jump(tag_224)\n    tag_225:\n      pop\n        /* \"Upstore.sol\":4353:4420  revert(\"The dAppId entered has not been declared or approved yet.\") */\n      mload(0x40)\n      0x08c379a000000000000000000000000000000000000000000000000000000000\n      dup2\n      mstore\n      0x04\n      add\n      tag_243\n      swap1\n      tag_244\n      jump\t// in\n    tag_243:\n      mload(0x40)\n      dup1\n      swap2\n      sub\n      swap1\n      revert\n        /* \"Upstore.sol\":4164:4428  function getApp(bytes32 appId) public view returns (AppStruct memory) {... */\n    tag_223:\n      swap2\n      swap1\n      pop\n      jump\t// out\n        /* \"Upstore.sol\":6262:6351  function getAppTotal() public view returns (uint256) {... */\n    tag_76:\n        /* \"Upstore.sol\":6306:6313  uint256 */\n      0x00\n        /* \"Upstore.sol\":6333:6336  app */\n      0x03\n        /* \"Upstore.sol\":6333:6343  app.length */\n      dup1\n      sload\n      swap1\n      pop\n        /* \"Upstore.sol\":6326:6343  return app.length */\n      swap1\n      pop\n        /* \"Upstore.sol\":6262:6351  function getAppTotal() public view returns (uint256) {... */\n      swap1\n      jump\t// out\n        /* \"Upstore.sol\":2833:2990  function delKey(bytes32 appId, bytes32 key) public onlyManager(appId) returns (bool) {... */\n    tag_82:\n        /* \"Upstore.sol\":2912:2916  bool */\n      0x00\n        /* \"Upstore.sol\":2896:2901  appId */\n      dup3\n        /* \"Upstore.sol\":1483:1499  uint256 appIndex */\n      0x00\n        /* \"Upstore.sol\":1502:1520  _indexOfApp(appId) */\n      tag_247\n        /* \"Upstore.sol\":1514:1519  appId */\n      dup3\n        /* \"Upstore.sol\":1502:1513  _indexOfApp */\n      tag_178\n        /* \"Upstore.sol\":1502:1520  _indexOfApp(appId) */\n      jump\t// in\n    tag_247:\n        /* \"Upstore.sol\":1483:1520  uint256 appIndex = _indexOfApp(appId) */\n      swap1\n      pop\n        /* \"Upstore.sol\":1564:1574  msg.sender */\n      caller\n        /* \"Upstore.sol\":1539:1574  app[appIndex].manager == msg.sender */\n      0xffffffffffffffffffffffffffffffffffffffff\n      and\n        /* \"Upstore.sol\":1539:1542  app */\n      0x03\n        /* \"Upstore.sol\":1543:1551  appIndex */\n      dup3\n        /* \"Upstore.sol\":1539:1552  app[appIndex] */\n      dup2\n      sload\n      dup2\n      lt\n      tag_248\n      jumpi\n      tag_249\n      tag_181\n      jump\t// in\n    tag_249:\n    tag_248:\n      swap1\n      0x00\n      mstore\n      keccak256(0x00, 0x20)\n      swap1\n      0x05\n      mul\n      add\n        /* \"Upstore.sol\":1539:1560  app[appIndex].manager */\n      0x02\n      add\n      0x00\n      swap1\n      sload\n      swap1\n      0x0100\n      exp\n      swap1\n      div\n      0xffffffffffffffffffffffffffffffffffffffff\n      and\n        /* \"Upstore.sol\":1539:1574  app[appIndex].manager == msg.sender */\n      0xffffffffffffffffffffffffffffffffffffffff\n      and\n      eq\n        /* \"Upstore.sol\":1531:1631  require(app[appIndex].manager == msg.sender, \"The sender is not the manager of the entered app ID.\") */\n      tag_251\n      jumpi\n      mload(0x40)\n      0x08c379a000000000000000000000000000000000000000000000000000000000\n      dup2\n      mstore\n      0x04\n      add\n      tag_252\n      swap1\n      tag_198\n      jump\t// in\n    tag_252:\n      mload(0x40)\n      dup1\n      swap2\n      sub\n      swap1\n      revert\n    tag_251:\n        /* \"Upstore.sol\":2936:2948  blockStorage */\n      0x05\n        /* \"Upstore.sol\":2936:2955  blockStorage[appId] */\n      0x00\n        /* \"Upstore.sol\":2949:2954  appId */\n      dup7\n        /* \"Upstore.sol\":2936:2955  blockStorage[appId] */\n      dup2\n      mstore\n      0x20\n      add\n      swap1\n      dup2\n      mstore\n      0x20\n      add\n      0x00\n      keccak256\n        /* \"Upstore.sol\":2936:2960  blockStorage[appId][key] */\n      0x00\n        /* \"Upstore.sol\":2956:2959  key */\n      dup6\n        /* \"Upstore.sol\":2936:2960  blockStorage[appId][key] */\n      dup2\n      mstore\n      0x20\n      add\n      swap1\n      dup2\n      mstore\n      0x20\n      add\n      0x00\n      keccak256\n      0x00\n        /* \"Upstore.sol\":2929:2960  delete blockStorage[appId][key] */\n      tag_254\n      swap2\n      swap1\n      tag_255\n      jump\t// in\n    tag_254:\n        /* \"Upstore.sol\":2978:2982  true */\n      0x01\n        /* \"Upstore.sol\":2971:2982  return true */\n      swap3\n      pop\n        /* \"Upstore.sol\":1472:1651  {... */\n      pop\n        /* \"Upstore.sol\":2833:2990  function delKey(bytes32 appId, bytes32 key) public onlyManager(appId) returns (bool) {... */\n      pop\n      swap3\n      swap2\n      pop\n      pop\n      jump\t// out\n        /* \"Upstore.sol\":492:527  Counters.Counter public _appCounter */\n    tag_86:\n      0x01\n      dup1\n      0x00\n      add\n      sload\n      swap1\n      pop\n      dup2\n      jump\t// out\n        /* \"_ownable.sol\":2389:2492  function renounceOwnership() public virtual onlyOwner {... */\n    tag_90:\n        /* \"_ownable.sol\":1600:1613  _checkOwner() */\n      tag_257\n        /* \"_ownable.sol\":1600:1611  _checkOwner */\n      tag_175\n        /* \"_ownable.sol\":1600:1613  _checkOwner() */\n      jump\t// in\n    tag_257:\n        /* \"_ownable.sol\":2454:2484  _transferOwnership(address(0)) */\n      tag_259\n        /* \"_ownable.sol\":2481:2482  0 */\n      0x00\n        /* \"_ownable.sol\":2454:2472  _transferOwnership */\n      tag_260\n        /* \"_ownable.sol\":2454:2484  _transferOwnership(address(0)) */\n      jump\t// in\n    tag_259:\n        /* \"_ownable.sol\":2389:2492  function renounceOwnership() public virtual onlyOwner {... */\n      jump\t// out\n        /* \"Upstore.sol\":4557:5026  function setLike(bytes32 appId) public returns (bool) {... */\n    tag_94:\n        /* \"Upstore.sol\":4605:4609  bool */\n      0x00\n        /* \"Upstore.sol\":4622:4638  uint256 appIndex */\n      0x00\n        /* \"Upstore.sol\":4641:4659  _indexOfApp(appId) */\n      tag_262\n        /* \"Upstore.sol\":4653:4658  appId */\n      dup4\n        /* \"Upstore.sol\":4641:4652  _indexOfApp */\n      tag_178\n        /* \"Upstore.sol\":4641:4659  _indexOfApp(appId) */\n      jump\t// in\n    tag_262:\n        /* \"Upstore.sol\":4622:4659  uint256 appIndex = _indexOfApp(appId) */\n      swap1\n      pop\n        /* \"Upstore.sol\":4677:4686  uint256 i */\n      0x00\n        /* \"Upstore.sol\":4689:4690  0 */\n      0x00\n        /* \"Upstore.sol\":4677:4690  uint256 i = 0 */\n      swap1\n      pop\n        /* \"Upstore.sol\":4672:4842  for (uint256 i = 0; i < like.length; i++) if (like[i].sender == msg.sender && like[i].appId == appId && msg.sender != owner()) revert DuplicatedAddress(appId, msg.sender) */\n    tag_263:\n        /* \"Upstore.sol\":4696:4700  like */\n      0x04\n        /* \"Upstore.sol\":4696:4707  like.length */\n      dup1\n      sload\n      swap1\n      pop\n        /* \"Upstore.sol\":4692:4693  i */\n      dup2\n        /* \"Upstore.sol\":4692:4707  i < like.length */\n      lt\n        /* \"Upstore.sol\":4672:4842  for (uint256 i = 0; i < like.length; i++) if (like[i].sender == msg.sender && like[i].appId == appId && msg.sender != owner()) revert DuplicatedAddress(appId, msg.sender) */\n      iszero\n      tag_264\n      jumpi\n        /* \"Upstore.sol\":4736:4746  msg.sender */\n      caller\n        /* \"Upstore.sol\":4718:4746  like[i].sender == msg.sender */\n      0xffffffffffffffffffffffffffffffffffffffff\n      and\n        /* \"Upstore.sol\":4718:4722  like */\n      0x04\n        /* \"Upstore.sol\":4723:4724  i */\n      dup3\n        /* \"Upstore.sol\":4718:4725  like[i] */\n      dup2\n      sload\n      dup2\n      lt\n      tag_266\n      jumpi\n      tag_267\n      tag_181\n      jump\t// in\n    tag_267:\n    tag_266:\n      swap1\n      0x00\n      mstore\n      keccak256(0x00, 0x20)\n      swap1\n      0x03\n      mul\n      add\n        /* \"Upstore.sol\":4718:4732  like[i].sender */\n      0x01\n      add\n      0x00\n      swap1\n      sload\n      swap1\n      0x0100\n      exp\n      swap1\n      div\n      0xffffffffffffffffffffffffffffffffffffffff\n      and\n        /* \"Upstore.sol\":4718:4746  like[i].sender == msg.sender */\n      0xffffffffffffffffffffffffffffffffffffffff\n      and\n      eq\n        /* \"Upstore.sol\":4718:4772  like[i].sender == msg.sender && like[i].appId == appId */\n      dup1\n      iszero\n      tag_269\n      jumpi\n      pop\n        /* \"Upstore.sol\":4767:4772  appId */\n      dup4\n        /* \"Upstore.sol\":4750:4754  like */\n      0x04\n        /* \"Upstore.sol\":4755:4756  i */\n      dup3\n        /* \"Upstore.sol\":4750:4757  like[i] */\n      dup2\n      sload\n      dup2\n      lt\n      tag_270\n      jumpi\n      tag_271\n      tag_181\n      jump\t// in\n    tag_271:\n    tag_270:\n      swap1\n      0x00\n      mstore\n      keccak256(0x00, 0x20)\n      swap1\n      0x03\n      mul\n      add\n        /* \"Upstore.sol\":4750:4763  like[i].appId */\n      0x00\n      add\n      sload\n        /* \"Upstore.sol\":4750:4772  like[i].appId == appId */\n      eq\n        /* \"Upstore.sol\":4718:4772  like[i].sender == msg.sender && like[i].appId == appId */\n    tag_269:\n        /* \"Upstore.sol\":4718:4797  like[i].sender == msg.sender && like[i].appId == appId && msg.sender != owner() */\n      dup1\n      iszero\n      tag_273\n      jumpi\n      pop\n        /* \"Upstore.sol\":4790:4797  owner() */\n      tag_274\n        /* \"Upstore.sol\":4790:4795  owner */\n      tag_98\n        /* \"Upstore.sol\":4790:4797  owner() */\n      jump\t// in\n    tag_274:\n        /* \"Upstore.sol\":4776:4797  msg.sender != owner() */\n      0xffffffffffffffffffffffffffffffffffffffff\n      and\n        /* \"Upstore.sol\":4776:4786  msg.sender */\n      caller\n        /* \"Upstore.sol\":4776:4797  msg.sender != owner() */\n      0xffffffffffffffffffffffffffffffffffffffff\n      and\n      eq\n      iszero\n        /* \"Upstore.sol\":4718:4797  like[i].sender == msg.sender && like[i].appId == appId && msg.sender != owner() */\n    tag_273:\n        /* \"Upstore.sol\":4714:4842  if (like[i].sender == msg.sender && like[i].appId == appId && msg.sender != owner()) revert DuplicatedAddress(appId, msg.sender) */\n      iszero\n      tag_275\n      jumpi\n        /* \"Upstore.sol\":4824:4829  appId */\n      dup4\n        /* \"Upstore.sol\":4831:4841  msg.sender */\n      caller\n        /* \"Upstore.sol\":4806:4842  DuplicatedAddress(appId, msg.sender) */\n      mload(0x40)\n      0x6549438900000000000000000000000000000000000000000000000000000000\n      dup2\n      mstore\n      0x04\n      add\n      tag_276\n      swap3\n      swap2\n      swap1\n      tag_277\n      jump\t// in\n    tag_276:\n      mload(0x40)\n      dup1\n      swap2\n      sub\n      swap1\n      revert\n        /* \"Upstore.sol\":4714:4842  if (like[i].sender == msg.sender && like[i].appId == appId && msg.sender != owner()) revert DuplicatedAddress(appId, msg.sender) */\n    tag_275:\n        /* \"Upstore.sol\":4709:4712  i++ */\n      dup1\n      dup1\n      0x01\n      add\n      swap2\n      pop\n      pop\n        /* \"Upstore.sol\":4672:4842  for (uint256 i = 0; i < like.length; i++) if (like[i].sender == msg.sender && like[i].appId == appId && msg.sender != owner()) revert DuplicatedAddress(appId, msg.sender) */\n      jump(tag_263)\n    tag_264:\n      pop\n        /* \"Upstore.sol\":4880:4884  like */\n      0x04\n        /* \"Upstore.sol\":4890:4947  LikeStruct(app[appIndex].id, msg.sender, block.timestamp) */\n      mload(0x40)\n      dup1\n      0x60\n      add\n      0x40\n      mstore\n      dup1\n        /* \"Upstore.sol\":4901:4904  app */\n      0x03\n        /* \"Upstore.sol\":4905:4913  appIndex */\n      dup5\n        /* \"Upstore.sol\":4901:4914  app[appIndex] */\n      dup2\n      sload\n      dup2\n      lt\n      tag_278\n      jumpi\n      tag_279\n      tag_181\n      jump\t// in\n    tag_279:\n    tag_278:\n      swap1\n      0x00\n      mstore\n      keccak256(0x00, 0x20)\n      swap1\n      0x05\n      mul\n      add\n        /* \"Upstore.sol\":4901:4917  app[appIndex].id */\n      0x00\n      add\n      sload\n        /* \"Upstore.sol\":4890:4947  LikeStruct(app[appIndex].id, msg.sender, block.timestamp) */\n      dup2\n      mstore\n      0x20\n      add\n        /* \"Upstore.sol\":4919:4929  msg.sender */\n      caller\n        /* \"Upstore.sol\":4890:4947  LikeStruct(app[appIndex].id, msg.sender, block.timestamp) */\n      0xffffffffffffffffffffffffffffffffffffffff\n      and\n      dup2\n      mstore\n      0x20\n      add\n        /* \"Upstore.sol\":4931:4946  block.timestamp */\n      timestamp\n        /* \"Upstore.sol\":4890:4947  LikeStruct(app[appIndex].id, msg.sender, block.timestamp) */\n      dup2\n      mstore\n      pop\n        /* \"Upstore.sol\":4880:4948  like.push(LikeStruct(app[appIndex].id, msg.sender, block.timestamp)) */\n      swap1\n      dup1\n      0x01\n      dup2\n      sload\n      add\n      dup1\n      dup3\n      sstore\n      dup1\n      swap2\n      pop\n      pop\n      0x01\n      swap1\n      sub\n      swap1\n      0x00\n      mstore\n      keccak256(0x00, 0x20)\n      swap1\n      0x03\n      mul\n      add\n      0x00\n      swap1\n      swap2\n      swap1\n      swap2\n      swap1\n      swap2\n      pop\n      0x00\n      dup3\n      add\n      mload\n      dup2\n      0x00\n      add\n      sstore\n      0x20\n      dup3\n      add\n      mload\n      dup2\n      0x01\n      add\n      exp(0x0100, 0x00)\n      dup2\n      sload\n      dup2\n      0xffffffffffffffffffffffffffffffffffffffff\n      mul\n      not\n      and\n      swap1\n      dup4\n      0xffffffffffffffffffffffffffffffffffffffff\n      and\n      mul\n      or\n      swap1\n      sstore\n      pop\n      0x40\n      dup3\n      add\n      mload\n      dup2\n      0x02\n      add\n      sstore\n      pop\n      pop\n        /* \"Upstore.sol\":4988:4993  appId */\n      dup3\n        /* \"Upstore.sol\":4976:4986  msg.sender */\n      caller\n        /* \"Upstore.sol\":4966:4994  likeAdded(msg.sender, appId) */\n      0xffffffffffffffffffffffffffffffffffffffff\n      and\n      0x4bc97985cf53112a2a1b8c2e8aa21e365ae3dd22eea30342c5d299ca3f775912\n      mload(0x40)\n      mload(0x40)\n      dup1\n      swap2\n      sub\n      swap1\n      log3\n        /* \"Upstore.sol\":5014:5018  true */\n      0x01\n        /* \"Upstore.sol\":5007:5018  return true */\n      swap2\n      pop\n      pop\n        /* \"Upstore.sol\":4557:5026  function setLike(bytes32 appId) public returns (bool) {... */\n      swap2\n      swap1\n      pop\n      jump\t// out\n        /* \"_ownable.sol\":1714:1801  function owner() public view virtual returns (address) {... */\n    tag_98:\n        /* \"_ownable.sol\":1760:1767  address */\n      0x00\n        /* \"_ownable.sol\":1787:1793  _owner */\n      0x00\n      0x00\n      swap1\n      sload\n      swap1\n      0x0100\n      exp\n      swap1\n      div\n      0xffffffffffffffffffffffffffffffffffffffff\n      and\n        /* \"_ownable.sol\":1780:1793  return _owner */\n      swap1\n      pop\n        /* \"_ownable.sol\":1714:1801  function owner() public view virtual returns (address) {... */\n      swap1\n      jump\t// out\n        /* \"Upstore.sol\":2092:2180  function setPrice(uint256 newPrice) public onlyOwner {... */\n    tag_104:\n        /* \"_ownable.sol\":1600:1613  _checkOwner() */\n      tag_284\n        /* \"_ownable.sol\":1600:1611  _checkOwner */\n      tag_175\n        /* \"_ownable.sol\":1600:1613  _checkOwner() */\n      jump\t// in\n    tag_284:\n        /* \"Upstore.sol\":2164:2172  newPrice */\n      dup1\n        /* \"Upstore.sol\":2156:2161  price */\n      0x02\n        /* \"Upstore.sol\":2156:2172  price = newPrice */\n      dup2\n      swap1\n      sstore\n      pop\n        /* \"Upstore.sol\":2092:2180  function setPrice(uint256 newPrice) public onlyOwner {... */\n      pop\n      jump\t// out\n        /* \"Upstore.sol\":534:554  uint256 public price */\n    tag_107:\n      sload(0x02)\n      dup2\n      jump\t// out\n        /* \"Upstore.sol\":7560:7657  function getLikeTotal() public view returns (uint256 total) {... */\n    tag_111:\n        /* \"Upstore.sol\":7605:7618  uint256 total */\n      0x00\n        /* \"Upstore.sol\":7638:7642  like */\n      0x04\n        /* \"Upstore.sol\":7638:7649  like.length */\n      dup1\n      sload\n      swap1\n      pop\n        /* \"Upstore.sol\":7631:7649  return like.length */\n      swap1\n      pop\n        /* \"Upstore.sol\":7560:7657  function getLikeTotal() public view returns (uint256 total) {... */\n      swap1\n      jump\t// out\n        /* \"Upstore.sol\":5434:5660  function updateMetadata(bytes32 appId, string memory metadata) public onlyManager(appId) returns (bool) {... */\n    tag_117:\n        /* \"Upstore.sol\":5532:5536  bool */\n      0x00\n        /* \"Upstore.sol\":5516:5521  appId */\n      dup3\n        /* \"Upstore.sol\":1483:1499  uint256 appIndex */\n      0x00\n        /* \"Upstore.sol\":1502:1520  _indexOfApp(appId) */\n      tag_288\n        /* \"Upstore.sol\":1514:1519  appId */\n      dup3\n        /* \"Upstore.sol\":1502:1513  _indexOfApp */\n      tag_178\n        /* \"Upstore.sol\":1502:1520  _indexOfApp(appId) */\n      jump\t// in\n    tag_288:\n        /* \"Upstore.sol\":1483:1520  uint256 appIndex = _indexOfApp(appId) */\n      swap1\n      pop\n        /* \"Upstore.sol\":1564:1574  msg.sender */\n      caller\n        /* \"Upstore.sol\":1539:1574  app[appIndex].manager == msg.sender */\n      0xffffffffffffffffffffffffffffffffffffffff\n      and\n        /* \"Upstore.sol\":1539:1542  app */\n      0x03\n        /* \"Upstore.sol\":1543:1551  appIndex */\n      dup3\n        /* \"Upstore.sol\":1539:1552  app[appIndex] */\n      dup2\n      sload\n      dup2\n      lt\n      tag_289\n      jumpi\n      tag_290\n      tag_181\n      jump\t// in\n    tag_290:\n    tag_289:\n      swap1\n      0x00\n      mstore\n      keccak256(0x00, 0x20)\n      swap1\n      0x05\n      mul\n      add\n        /* \"Upstore.sol\":1539:1560  app[appIndex].manager */\n      0x02\n      add\n      0x00\n      swap1\n      sload\n      swap1\n      0x0100\n      exp\n      swap1\n      div\n      0xffffffffffffffffffffffffffffffffffffffff\n      and\n        /* \"Upstore.sol\":1539:1574  app[appIndex].manager == msg.sender */\n      0xffffffffffffffffffffffffffffffffffffffff\n      and\n      eq\n        /* \"Upstore.sol\":1531:1631  require(app[appIndex].manager == msg.sender, \"The sender is not the manager of the entered app ID.\") */\n      tag_292\n      jumpi\n      mload(0x40)\n      0x08c379a000000000000000000000000000000000000000000000000000000000\n      dup2\n      mstore\n      0x04\n      add\n      tag_293\n      swap1\n      tag_198\n      jump\t// in\n    tag_293:\n      mload(0x40)\n      dup1\n      swap2\n      sub\n      swap1\n      revert\n    tag_292:\n        /* \"Upstore.sol\":5549:5565  uint256 appIndex */\n      0x00\n        /* \"Upstore.sol\":5568:5586  _indexOfApp(appId) */\n      tag_295\n        /* \"Upstore.sol\":5580:5585  appId */\n      dup7\n        /* \"Upstore.sol\":5568:5579  _indexOfApp */\n      tag_178\n        /* \"Upstore.sol\":5568:5586  _indexOfApp(appId) */\n      jump\t// in\n    tag_295:\n        /* \"Upstore.sol\":5549:5586  uint256 appIndex = _indexOfApp(appId) */\n      swap1\n      pop\n        /* \"Upstore.sol\":5622:5630  metadata */\n      dup5\n        /* \"Upstore.sol\":5597:5600  app */\n      0x03\n        /* \"Upstore.sol\":5601:5609  appIndex */\n      dup3\n        /* \"Upstore.sol\":5597:5610  app[appIndex] */\n      dup2\n      sload\n      dup2\n      lt\n      tag_296\n      jumpi\n      tag_297\n      tag_181\n      jump\t// in\n    tag_297:\n    tag_296:\n      swap1\n      0x00\n      mstore\n      keccak256(0x00, 0x20)\n      swap1\n      0x05\n      mul\n      add\n        /* \"Upstore.sol\":5597:5619  app[appIndex].metadata */\n      0x01\n      add\n        /* \"Upstore.sol\":5597:5630  app[appIndex].metadata = metadata */\n      swap1\n      dup2\n      tag_299\n      swap2\n      swap1\n      tag_184\n      jump\t// in\n    tag_299:\n      pop\n        /* \"Upstore.sol\":5648:5652  true */\n      0x01\n        /* \"Upstore.sol\":5641:5652  return true */\n      swap4\n      pop\n      pop\n        /* \"Upstore.sol\":1472:1651  {... */\n      pop\n        /* \"Upstore.sol\":5434:5660  function updateMetadata(bytes32 appId, string memory metadata) public onlyManager(appId) returns (bool) {... */\n      pop\n      swap3\n      swap2\n      pop\n      pop\n      jump\t// out\n        /* \"Upstore.sol\":8423:8663  function transfer(address payable _to, uint256 _amount) public onlyOwner {... */\n    tag_123:\n        /* \"_ownable.sol\":1600:1613  _checkOwner() */\n      tag_301\n        /* \"_ownable.sol\":1600:1611  _checkOwner */\n      tag_175\n        /* \"_ownable.sol\":1600:1613  _checkOwner() */\n      jump\t// in\n    tag_301:\n        /* \"Upstore.sol\":8558:8570  bool success */\n      0x00\n        /* \"Upstore.sol\":8576:8579  _to */\n      dup3\n        /* \"Upstore.sol\":8576:8584  _to.call */\n      0xffffffffffffffffffffffffffffffffffffffff\n      and\n        /* \"Upstore.sol\":8592:8599  _amount */\n      dup3\n        /* \"Upstore.sol\":8576:8604  _to.call{value: _amount}(\"\") */\n      mload(0x40)\n      tag_303\n      swap1\n      tag_214\n      jump\t// in\n    tag_303:\n      0x00\n      mload(0x40)\n      dup1\n      dup4\n      sub\n      dup2\n      dup6\n      dup8\n      gas\n      call\n      swap3\n      pop\n      pop\n      pop\n      returndatasize\n      dup1\n      0x00\n      dup2\n      eq\n      tag_306\n      jumpi\n      mload(0x40)\n      swap2\n      pop\n      and(add(returndatasize, 0x3f), not(0x1f))\n      dup3\n      add\n      0x40\n      mstore\n      returndatasize\n      dup3\n      mstore\n      returndatasize\n      0x00\n      0x20\n      dup5\n      add\n      returndatacopy\n      jump(tag_305)\n    tag_306:\n      0x60\n      swap2\n      pop\n    tag_305:\n      pop\n        /* \"Upstore.sol\":8557:8604  (bool success, ) = _to.call{value: _amount}(\"\") */\n      pop\n      swap1\n      pop\n        /* \"Upstore.sol\":8623:8630  success */\n      dup1\n        /* \"Upstore.sol\":8615:8655  require(success, \"Failed to send Ether\") */\n      tag_307\n      jumpi\n      mload(0x40)\n      0x08c379a000000000000000000000000000000000000000000000000000000000\n      dup2\n      mstore\n      0x04\n      add\n      tag_308\n      swap1\n      tag_220\n      jump\t// in\n    tag_308:\n      mload(0x40)\n      dup1\n      swap2\n      sub\n      swap1\n      revert\n    tag_307:\n        /* \"Upstore.sol\":8496:8663  {... */\n      pop\n        /* \"Upstore.sol\":8423:8663  function transfer(address payable _to, uint256 _amount) public onlyOwner {... */\n      pop\n      pop\n      jump\t// out\n        /* \"Upstore.sol\":3179:4053  function setApp(string memory metadata, address manager) public payable returns (bytes32 appId) {... */\n    tag_127:\n        /* \"Upstore.sol\":3260:3273  bytes32 appId */\n      0x00\n        /* \"Upstore.sol\":3384:3391  owner() */\n      tag_310\n        /* \"Upstore.sol\":3384:3389  owner */\n      tag_98\n        /* \"Upstore.sol\":3384:3391  owner() */\n      jump\t// in\n    tag_310:\n        /* \"Upstore.sol\":3370:3391  msg.sender != owner() */\n      0xffffffffffffffffffffffffffffffffffffffff\n      and\n        /* \"Upstore.sol\":3370:3380  msg.sender */\n      caller\n        /* \"Upstore.sol\":3370:3391  msg.sender != owner() */\n      0xffffffffffffffffffffffffffffffffffffffff\n      and\n      eq\n        /* \"Upstore.sol\":3366:3479  if (msg.sender != owner()) {... */\n      tag_311\n      jumpi\n        /* \"Upstore.sol\":3424:3429  price */\n      sload(0x02)\n        /* \"Upstore.sol\":3412:3421  msg.value */\n      callvalue\n        /* \"Upstore.sol\":3412:3429  msg.value < price */\n      lt\n        /* \"Upstore.sol\":3408:3467  if (msg.value < price) revert PriceNotMet(price, msg.value) */\n      iszero\n      tag_312\n      jumpi\n        /* \"Upstore.sol\":3450:3455  price */\n      sload(0x02)\n        /* \"Upstore.sol\":3457:3466  msg.value */\n      callvalue\n        /* \"Upstore.sol\":3438:3467  PriceNotMet(price, msg.value) */\n      mload(0x40)\n      0xbc03bccd00000000000000000000000000000000000000000000000000000000\n      dup2\n      mstore\n      0x04\n      add\n      tag_313\n      swap3\n      swap2\n      swap1\n      tag_314\n      jump\t// in\n    tag_313:\n      mload(0x40)\n      dup1\n      swap2\n      sub\n      swap1\n      revert\n        /* \"Upstore.sol\":3408:3467  if (msg.value < price) revert PriceNotMet(price, msg.value) */\n    tag_312:\n        /* \"Upstore.sol\":3366:3479  if (msg.sender != owner()) {... */\n    tag_311:\n        /* \"Upstore.sol\":3529:3552  _appCounter.increment() */\n      tag_315\n        /* \"Upstore.sol\":3529:3540  _appCounter */\n      0x01\n        /* \"Upstore.sol\":3529:3550  _appCounter.increment */\n      tag_316\n        /* \"Upstore.sol\":3529:3552  _appCounter.increment() */\n      jump\t// in\n    tag_315:\n        /* \"Upstore.sol\":3612:3615  app */\n      0x03\n        /* \"Upstore.sol\":3621:3773  AppStruct(bytes32(_appCounter.current()), metadata, manager == address(0) ? msg.sender : manager, block.timestamp, msg.sender == owner() ? true : false) */\n      mload(0x40)\n      dup1\n      0xa0\n      add\n      0x40\n      mstore\n      dup1\n        /* \"Upstore.sol\":3639:3660  _appCounter.current() */\n      tag_317\n        /* \"Upstore.sol\":3639:3650  _appCounter */\n      0x01\n        /* \"Upstore.sol\":3639:3658  _appCounter.current */\n      tag_318\n        /* \"Upstore.sol\":3639:3660  _appCounter.current() */\n      jump\t// in\n    tag_317:\n        /* \"Upstore.sol\":3631:3661  bytes32(_appCounter.current()) */\n      0x00\n      shl\n        /* \"Upstore.sol\":3621:3773  AppStruct(bytes32(_appCounter.current()), metadata, manager == address(0) ? msg.sender : manager, block.timestamp, msg.sender == owner() ? true : false) */\n      dup2\n      mstore\n      0x20\n      add\n        /* \"Upstore.sol\":3663:3671  metadata */\n      dup6\n        /* \"Upstore.sol\":3621:3773  AppStruct(bytes32(_appCounter.current()), metadata, manager == address(0) ? msg.sender : manager, block.timestamp, msg.sender == owner() ? true : false) */\n      dup2\n      mstore\n      0x20\n      add\n        /* \"Upstore.sol\":3692:3693  0 */\n      0x00\n        /* \"Upstore.sol\":3673:3694  manager == address(0) */\n      0xffffffffffffffffffffffffffffffffffffffff\n      and\n        /* \"Upstore.sol\":3673:3680  manager */\n      dup6\n        /* \"Upstore.sol\":3673:3694  manager == address(0) */\n      0xffffffffffffffffffffffffffffffffffffffff\n      and\n      eq\n        /* \"Upstore.sol\":3673:3717  manager == address(0) ? msg.sender : manager */\n      tag_319\n      jumpi\n        /* \"Upstore.sol\":3710:3717  manager */\n      dup5\n        /* \"Upstore.sol\":3673:3717  manager == address(0) ? msg.sender : manager */\n      jump(tag_320)\n    tag_319:\n        /* \"Upstore.sol\":3697:3707  msg.sender */\n      caller\n        /* \"Upstore.sol\":3673:3717  manager == address(0) ? msg.sender : manager */\n    tag_320:\n        /* \"Upstore.sol\":3621:3773  AppStruct(bytes32(_appCounter.current()), metadata, manager == address(0) ? msg.sender : manager, block.timestamp, msg.sender == owner() ? true : false) */\n      0xffffffffffffffffffffffffffffffffffffffff\n      and\n      dup2\n      mstore\n      0x20\n      add\n        /* \"Upstore.sol\":3719:3734  block.timestamp */\n      timestamp\n        /* \"Upstore.sol\":3621:3773  AppStruct(bytes32(_appCounter.current()), metadata, manager == address(0) ? msg.sender : manager, block.timestamp, msg.sender == owner() ? true : false) */\n      dup2\n      mstore\n      0x20\n      add\n        /* \"Upstore.sol\":3750:3757  owner() */\n      tag_321\n        /* \"Upstore.sol\":3750:3755  owner */\n      tag_98\n        /* \"Upstore.sol\":3750:3757  owner() */\n      jump\t// in\n    tag_321:\n        /* \"Upstore.sol\":3736:3757  msg.sender == owner() */\n      0xffffffffffffffffffffffffffffffffffffffff\n      and\n        /* \"Upstore.sol\":3736:3746  msg.sender */\n      caller\n        /* \"Upstore.sol\":3736:3757  msg.sender == owner() */\n      0xffffffffffffffffffffffffffffffffffffffff\n      and\n      eq\n        /* \"Upstore.sol\":3736:3772  msg.sender == owner() ? true : false */\n      tag_322\n      jumpi\n        /* \"Upstore.sol\":3767:3772  false */\n      0x00\n        /* \"Upstore.sol\":3736:3772  msg.sender == owner() ? true : false */\n      jump(tag_323)\n    tag_322:\n        /* \"Upstore.sol\":3760:3764  true */\n      0x01\n        /* \"Upstore.sol\":3736:3772  msg.sender == owner() ? true : false */\n    tag_323:\n        /* \"Upstore.sol\":3621:3773  AppStruct(bytes32(_appCounter.current()), metadata, manager == address(0) ? msg.sender : manager, block.timestamp, msg.sender == owner() ? true : false) */\n      iszero\n      iszero\n      dup2\n      mstore\n      pop\n        /* \"Upstore.sol\":3612:3774  app.push(AppStruct(bytes32(_appCounter.current()), metadata, manager == address(0) ? msg.sender : manager, block.timestamp, msg.sender == owner() ? true : false)) */\n      swap1\n      dup1\n      0x01\n      dup2\n      sload\n      add\n      dup1\n      dup3\n      sstore\n      dup1\n      swap2\n      pop\n      pop\n      0x01\n      swap1\n      sub\n      swap1\n      0x00\n      mstore\n      keccak256(0x00, 0x20)\n      swap1\n      0x05\n      mul\n      add\n      0x00\n      swap1\n      swap2\n      swap1\n      swap2\n      swap1\n      swap2\n      pop\n      0x00\n      dup3\n      add\n      mload\n      dup2\n      0x00\n      add\n      sstore\n      0x20\n      dup3\n      add\n      mload\n      dup2\n      0x01\n      add\n      swap1\n      dup2\n      tag_325\n      swap2\n      swap1\n      tag_184\n      jump\t// in\n    tag_325:\n      pop\n      0x40\n      dup3\n      add\n      mload\n      dup2\n      0x02\n      add\n      exp(0x0100, 0x00)\n      dup2\n      sload\n      dup2\n      0xffffffffffffffffffffffffffffffffffffffff\n      mul\n      not\n      and\n      swap1\n      dup4\n      0xffffffffffffffffffffffffffffffffffffffff\n      and\n      mul\n      or\n      swap1\n      sstore\n      pop\n      0x60\n      dup3\n      add\n      mload\n      dup2\n      0x03\n      add\n      sstore\n      0x80\n      dup3\n      add\n      mload\n      dup2\n      0x04\n      add\n      exp(0x0100, 0x00)\n      dup2\n      sload\n      dup2\n      0xff\n      mul\n      not\n      and\n      swap1\n      dup4\n      iszero\n      iszero\n      mul\n      or\n      swap1\n      sstore\n      pop\n      pop\n      pop\n        /* \"Upstore.sol\":3931:3932  0 */\n      0x00\n        /* \"Upstore.sol\":3912:3933  manager == address(0) */\n      0xffffffffffffffffffffffffffffffffffffffff\n      and\n        /* \"Upstore.sol\":3912:3919  manager */\n      dup3\n        /* \"Upstore.sol\":3912:3933  manager == address(0) */\n      0xffffffffffffffffffffffffffffffffffffffff\n      and\n      eq\n        /* \"Upstore.sol\":3912:3956  manager == address(0) ? msg.sender : manager */\n      tag_326\n      jumpi\n        /* \"Upstore.sol\":3949:3956  manager */\n      dup2\n        /* \"Upstore.sol\":3912:3956  manager == address(0) ? msg.sender : manager */\n      jump(tag_327)\n    tag_326:\n        /* \"Upstore.sol\":3936:3946  msg.sender */\n      caller\n        /* \"Upstore.sol\":3912:3956  manager == address(0) ? msg.sender : manager */\n    tag_327:\n        /* \"Upstore.sol\":3849:3995  appAdded(msg.sender, bytes32(_appCounter.current()), metadata, manager == address(0) ? msg.sender : manager, msg.sender == owner() ? true : false) */\n      0xffffffffffffffffffffffffffffffffffffffff\n      and\n        /* \"Upstore.sol\":3878:3899  _appCounter.current() */\n      tag_328\n        /* \"Upstore.sol\":3878:3889  _appCounter */\n      0x01\n        /* \"Upstore.sol\":3878:3897  _appCounter.current */\n      tag_318\n        /* \"Upstore.sol\":3878:3899  _appCounter.current() */\n      jump\t// in\n    tag_328:\n        /* \"Upstore.sol\":3870:3900  bytes32(_appCounter.current()) */\n      0x00\n      shl\n        /* \"Upstore.sol\":3858:3868  msg.sender */\n      caller\n        /* \"Upstore.sol\":3849:3995  appAdded(msg.sender, bytes32(_appCounter.current()), metadata, manager == address(0) ? msg.sender : manager, msg.sender == owner() ? true : false) */\n      0xffffffffffffffffffffffffffffffffffffffff\n      and\n      0x941cc45c35d8bb191fc75224479d50f4d01c63bebee1b21a4b208143104bf44e\n        /* \"Upstore.sol\":3902:3910  metadata */\n      dup7\n        /* \"Upstore.sol\":3972:3979  owner() */\n      tag_329\n        /* \"Upstore.sol\":3972:3977  owner */\n      tag_98\n        /* \"Upstore.sol\":3972:3979  owner() */\n      jump\t// in\n    tag_329:\n        /* \"Upstore.sol\":3958:3979  msg.sender == owner() */\n      0xffffffffffffffffffffffffffffffffffffffff\n      and\n        /* \"Upstore.sol\":3958:3968  msg.sender */\n      caller\n        /* \"Upstore.sol\":3958:3979  msg.sender == owner() */\n      0xffffffffffffffffffffffffffffffffffffffff\n      and\n      eq\n        /* \"Upstore.sol\":3958:3994  msg.sender == owner() ? true : false */\n      tag_330\n      jumpi\n        /* \"Upstore.sol\":3989:3994  false */\n      0x00\n        /* \"Upstore.sol\":3958:3994  msg.sender == owner() ? true : false */\n      jump(tag_331)\n    tag_330:\n        /* \"Upstore.sol\":3982:3986  true */\n      0x01\n        /* \"Upstore.sol\":3958:3994  msg.sender == owner() ? true : false */\n    tag_331:\n        /* \"Upstore.sol\":3849:3995  appAdded(msg.sender, bytes32(_appCounter.current()), metadata, manager == address(0) ? msg.sender : manager, msg.sender == owner() ? true : false) */\n      mload(0x40)\n      tag_332\n      swap3\n      swap2\n      swap1\n      tag_333\n      jump\t// in\n    tag_332:\n      mload(0x40)\n      dup1\n      swap2\n      sub\n      swap1\n      log4\n        /* \"Upstore.sol\":4023:4044  _appCounter.current() */\n      tag_334\n        /* \"Upstore.sol\":4023:4034  _appCounter */\n      0x01\n        /* \"Upstore.sol\":4023:4042  _appCounter.current */\n      tag_318\n        /* \"Upstore.sol\":4023:4044  _appCounter.current() */\n      jump\t// in\n    tag_334:\n        /* \"Upstore.sol\":4015:4045  bytes32(_appCounter.current()) */\n      0x00\n      shl\n        /* \"Upstore.sol\":4008:4045  return bytes32(_appCounter.current()) */\n      swap1\n      pop\n        /* \"Upstore.sol\":3179:4053  function setApp(string memory metadata, address manager) public payable returns (bytes32 appId) {... */\n      swap3\n      swap2\n      pop\n      pop\n      jump\t// out\n        /* \"Upstore.sol\":2553:2683  function getKey(bytes32 appId, bytes32 key) public view returns (string memory) {... */\n    tag_133:\n        /* \"Upstore.sol\":2618:2631  string memory */\n      0x60\n        /* \"Upstore.sol\":2651:2663  blockStorage */\n      0x05\n        /* \"Upstore.sol\":2651:2670  blockStorage[appId] */\n      0x00\n        /* \"Upstore.sol\":2664:2669  appId */\n      dup5\n        /* \"Upstore.sol\":2651:2670  blockStorage[appId] */\n      dup2\n      mstore\n      0x20\n      add\n      swap1\n      dup2\n      mstore\n      0x20\n      add\n      0x00\n      keccak256\n        /* \"Upstore.sol\":2651:2675  blockStorage[appId][key] */\n      0x00\n        /* \"Upstore.sol\":2671:2674  key */\n      dup4\n        /* \"Upstore.sol\":2651:2675  blockStorage[appId][key] */\n      dup2\n      mstore\n      0x20\n      add\n      swap1\n      dup2\n      mstore\n      0x20\n      add\n      0x00\n      keccak256\n        /* \"Upstore.sol\":2644:2675  return blockStorage[appId][key] */\n      dup1\n      sload\n      tag_336\n      swap1\n      tag_204\n      jump\t// in\n    tag_336:\n      dup1\n      0x1f\n      add\n      0x20\n      dup1\n      swap2\n      div\n      mul\n      0x20\n      add\n      mload(0x40)\n      swap1\n      dup2\n      add\n      0x40\n      mstore\n      dup1\n      swap3\n      swap2\n      swap1\n      dup2\n      dup2\n      mstore\n      0x20\n      add\n      dup3\n      dup1\n      sload\n      tag_337\n      swap1\n      tag_204\n      jump\t// in\n    tag_337:\n      dup1\n      iszero\n      tag_338\n      jumpi\n      dup1\n      0x1f\n      lt\n      tag_339\n      jumpi\n      0x0100\n      dup1\n      dup4\n      sload\n      div\n      mul\n      dup4\n      mstore\n      swap2\n      0x20\n      add\n      swap2\n      jump(tag_338)\n    tag_339:\n      dup3\n      add\n      swap2\n      swap1\n      0x00\n      mstore\n      keccak256(0x00, 0x20)\n      swap1\n    tag_340:\n      dup2\n      sload\n      dup2\n      mstore\n      swap1\n      0x01\n      add\n      swap1\n      0x20\n      add\n      dup1\n      dup4\n      gt\n      tag_340\n      jumpi\n      dup3\n      swap1\n      sub\n      0x1f\n      and\n      dup3\n      add\n      swap2\n    tag_338:\n      pop\n      pop\n      pop\n      pop\n      pop\n      swap1\n      pop\n        /* \"Upstore.sol\":2553:2683  function getKey(bytes32 appId, bytes32 key) public view returns (string memory) {... */\n      swap3\n      swap2\n      pop\n      pop\n      jump\t// out\n        /* \"Upstore.sol\":5128:5348  function getLikeTotal(bytes32 appId) public view returns (uint256) {... */\n    tag_139:\n        /* \"Upstore.sol\":5186:5193  uint256 */\n      0x00\n        /* \"Upstore.sol\":5206:5221  uint256 counter */\n      0x00\n        /* \"Upstore.sol\":5224:5225  0 */\n      0x00\n        /* \"Upstore.sol\":5206:5225  uint256 counter = 0 */\n      swap1\n      pop\n        /* \"Upstore.sol\":5241:5250  uint256 i */\n      0x00\n        /* \"Upstore.sol\":5253:5254  0 */\n      0x00\n        /* \"Upstore.sol\":5241:5254  uint256 i = 0 */\n      swap1\n      pop\n        /* \"Upstore.sol\":5236:5315  for (uint256 i = 0; i < like.length; i++) if (like[i].appId == appId) counter++ */\n    tag_342:\n        /* \"Upstore.sol\":5260:5264  like */\n      0x04\n        /* \"Upstore.sol\":5260:5271  like.length */\n      dup1\n      sload\n      swap1\n      pop\n        /* \"Upstore.sol\":5256:5257  i */\n      dup2\n        /* \"Upstore.sol\":5256:5271  i < like.length */\n      lt\n        /* \"Upstore.sol\":5236:5315  for (uint256 i = 0; i < like.length; i++) if (like[i].appId == appId) counter++ */\n      iszero\n      tag_343\n      jumpi\n        /* \"Upstore.sol\":5299:5304  appId */\n      dup4\n        /* \"Upstore.sol\":5282:5286  like */\n      0x04\n        /* \"Upstore.sol\":5287:5288  i */\n      dup3\n        /* \"Upstore.sol\":5282:5289  like[i] */\n      dup2\n      sload\n      dup2\n      lt\n      tag_345\n      jumpi\n      tag_346\n      tag_181\n      jump\t// in\n    tag_346:\n    tag_345:\n      swap1\n      0x00\n      mstore\n      keccak256(0x00, 0x20)\n      swap1\n      0x03\n      mul\n      add\n        /* \"Upstore.sol\":5282:5295  like[i].appId */\n      0x00\n      add\n      sload\n        /* \"Upstore.sol\":5282:5304  like[i].appId == appId */\n      sub\n        /* \"Upstore.sol\":5278:5315  if (like[i].appId == appId) counter++ */\n      tag_348\n      jumpi\n        /* \"Upstore.sol\":5306:5315  counter++ */\n      dup2\n      dup1\n      tag_349\n      swap1\n      tag_350\n      jump\t// in\n    tag_349:\n      swap3\n      pop\n      pop\n        /* \"Upstore.sol\":5278:5315  if (like[i].appId == appId) counter++ */\n    tag_348:\n        /* \"Upstore.sol\":5273:5276  i++ */\n      dup1\n      dup1\n      0x01\n      add\n      swap2\n      pop\n      pop\n        /* \"Upstore.sol\":5236:5315  for (uint256 i = 0; i < like.length; i++) if (like[i].appId == appId) counter++ */\n      jump(tag_342)\n    tag_343:\n      pop\n        /* \"Upstore.sol\":5333:5340  counter */\n      dup1\n        /* \"Upstore.sol\":5326:5340  return counter */\n      swap2\n      pop\n      pop\n        /* \"Upstore.sol\":5128:5348  function getLikeTotal(bytes32 appId) public view returns (uint256) {... */\n      swap2\n      swap1\n      pop\n      jump\t// out\n        /* \"Upstore.sol\":6435:6748  function verifyManager(bytes32 appId, address manager) public view returns (AppStruct memory) {... */\n    tag_145:\n        /* \"Upstore.sol\":6511:6527  AppStruct memory */\n      tag_351\n      tag_222\n      jump\t// in\n    tag_351:\n        /* \"Upstore.sol\":6540:6556  uint256 appIndex */\n      0x00\n        /* \"Upstore.sol\":6559:6577  _indexOfApp(appId) */\n      tag_353\n        /* \"Upstore.sol\":6571:6576  appId */\n      dup5\n        /* \"Upstore.sol\":6559:6570  _indexOfApp */\n      tag_178\n        /* \"Upstore.sol\":6559:6577  _indexOfApp(appId) */\n      jump\t// in\n    tag_353:\n        /* \"Upstore.sol\":6540:6577  uint256 appIndex = _indexOfApp(appId) */\n      swap1\n      pop\n        /* \"Upstore.sol\":6617:6624  manager */\n      dup3\n        /* \"Upstore.sol\":6592:6624  app[appIndex].manager == manager */\n      0xffffffffffffffffffffffffffffffffffffffff\n      and\n        /* \"Upstore.sol\":6592:6595  app */\n      0x03\n        /* \"Upstore.sol\":6596:6604  appIndex */\n      dup3\n        /* \"Upstore.sol\":6592:6605  app[appIndex] */\n      dup2\n      sload\n      dup2\n      lt\n      tag_354\n      jumpi\n      tag_355\n      tag_181\n      jump\t// in\n    tag_355:\n    tag_354:\n      swap1\n      0x00\n      mstore\n      keccak256(0x00, 0x20)\n      swap1\n      0x05\n      mul\n      add\n        /* \"Upstore.sol\":6592:6613  app[appIndex].manager */\n      0x02\n      add\n      0x00\n      swap1\n      sload\n      swap1\n      0x0100\n      exp\n      swap1\n      div\n      0xffffffffffffffffffffffffffffffffffffffff\n      and\n        /* \"Upstore.sol\":6592:6624  app[appIndex].manager == manager */\n      0xffffffffffffffffffffffffffffffffffffffff\n      and\n      sub\n        /* \"Upstore.sol\":6588:6646  if (app[appIndex].manager == manager) return app[appIndex] */\n      tag_357\n      jumpi\n        /* \"Upstore.sol\":6633:6636  app */\n      0x03\n        /* \"Upstore.sol\":6637:6645  appIndex */\n      dup2\n        /* \"Upstore.sol\":6633:6646  app[appIndex] */\n      dup2\n      sload\n      dup2\n      lt\n      tag_358\n      jumpi\n      tag_359\n      tag_181\n      jump\t// in\n    tag_359:\n    tag_358:\n      swap1\n      0x00\n      mstore\n      keccak256(0x00, 0x20)\n      swap1\n      0x05\n      mul\n      add\n        /* \"Upstore.sol\":6626:6646  return app[appIndex] */\n      mload(0x40)\n      dup1\n      0xa0\n      add\n      0x40\n      mstore\n      swap1\n      dup2\n      0x00\n      dup3\n      add\n      sload\n      dup2\n      mstore\n      0x20\n      add\n      0x01\n      dup3\n      add\n      dup1\n      sload\n      tag_361\n      swap1\n      tag_204\n      jump\t// in\n    tag_361:\n      dup1\n      0x1f\n      add\n      0x20\n      dup1\n      swap2\n      div\n      mul\n      0x20\n      add\n      mload(0x40)\n      swap1\n      dup2\n      add\n      0x40\n      mstore\n      dup1\n      swap3\n      swap2\n      swap1\n      dup2\n      dup2\n      mstore\n      0x20\n      add\n      dup3\n      dup1\n      sload\n      tag_362\n      swap1\n      tag_204\n      jump\t// in\n    tag_362:\n      dup1\n      iszero\n      tag_363\n      jumpi\n      dup1\n      0x1f\n      lt\n      tag_364\n      jumpi\n      0x0100\n      dup1\n      dup4\n      sload\n      div\n      mul\n      dup4\n      mstore\n      swap2\n      0x20\n      add\n      swap2\n      jump(tag_363)\n    tag_364:\n      dup3\n      add\n      swap2\n      swap1\n      0x00\n      mstore\n      keccak256(0x00, 0x20)\n      swap1\n    tag_365:\n      dup2\n      sload\n      dup2\n      mstore\n      swap1\n      0x01\n      add\n      swap1\n      0x20\n      add\n      dup1\n      dup4\n      gt\n      tag_365\n      jumpi\n      dup3\n      swap1\n      sub\n      0x1f\n      and\n      dup3\n      add\n      swap2\n    tag_363:\n      pop\n      pop\n      pop\n      pop\n      pop\n      dup2\n      mstore\n      0x20\n      add\n      0x02\n      dup3\n      add\n      0x00\n      swap1\n      sload\n      swap1\n      0x0100\n      exp\n      swap1\n      div\n      0xffffffffffffffffffffffffffffffffffffffff\n      and\n      0xffffffffffffffffffffffffffffffffffffffff\n      and\n      0xffffffffffffffffffffffffffffffffffffffff\n      and\n      dup2\n      mstore\n      0x20\n      add\n      0x03\n      dup3\n      add\n      sload\n      dup2\n      mstore\n      0x20\n      add\n      0x04\n      dup3\n      add\n      0x00\n      swap1\n      sload\n      swap1\n      0x0100\n      exp\n      swap1\n      div\n      0xff\n      and\n      iszero\n      iszero\n      iszero\n      iszero\n      dup2\n      mstore\n      pop\n      pop\n      swap2\n      pop\n      pop\n      jump(tag_352)\n        /* \"Upstore.sol\":6588:6646  if (app[appIndex].manager == manager) return app[appIndex] */\n    tag_357:\n        /* \"Upstore.sol\":6659:6740  revert(\"The manager address for the app ID you entered has not been determined.\") */\n      mload(0x40)\n      0x08c379a000000000000000000000000000000000000000000000000000000000\n      dup2\n      mstore\n      0x04\n      add\n      tag_366\n      swap1\n      tag_367\n      jump\t// in\n    tag_366:\n      mload(0x40)\n      dup1\n      swap2\n      sub\n      swap1\n      revert\n        /* \"Upstore.sol\":6435:6748  function verifyManager(bytes32 appId, address manager) public view returns (AppStruct memory) {... */\n    tag_352:\n      swap3\n      swap2\n      pop\n      pop\n      jump\t// out\n        /* \"Upstore.sol\":7286:7407  function getAppList() public view returns (AppStruct[] memory, uint256 total) {... */\n    tag_149:\n        /* \"Upstore.sol\":7329:7347  AppStruct[] memory */\n      0x60\n        /* \"Upstore.sol\":7349:7362  uint256 total */\n      0x00\n        /* \"Upstore.sol\":7383:7386  app */\n      0x03\n        /* \"Upstore.sol\":7388:7391  app */\n      dup1\n        /* \"Upstore.sol\":7388:7398  app.length */\n      dup1\n      sload\n      swap1\n      pop\n        /* \"Upstore.sol\":7375:7399  return (app, app.length) */\n      dup2\n      dup1\n      sload\n      dup1\n      0x20\n      mul\n      0x20\n      add\n      mload(0x40)\n      swap1\n      dup2\n      add\n      0x40\n      mstore\n      dup1\n      swap3\n      swap2\n      swap1\n      dup2\n      dup2\n      mstore\n      0x20\n      add\n      0x00\n      swap1\n    tag_369:\n      dup3\n      dup3\n      lt\n      iszero\n      tag_370\n      jumpi\n      dup4\n      dup3\n      swap1\n      0x00\n      mstore\n      keccak256(0x00, 0x20)\n      swap1\n      0x05\n      mul\n      add\n      mload(0x40)\n      dup1\n      0xa0\n      add\n      0x40\n      mstore\n      swap1\n      dup2\n      0x00\n      dup3\n      add\n      sload\n      dup2\n      mstore\n      0x20\n      add\n      0x01\n      dup3\n      add\n      dup1\n      sload\n      tag_372\n      swap1\n      tag_204\n      jump\t// in\n    tag_372:\n      dup1\n      0x1f\n      add\n      0x20\n      dup1\n      swap2\n      div\n      mul\n      0x20\n      add\n      mload(0x40)\n      swap1\n      dup2\n      add\n      0x40\n      mstore\n      dup1\n      swap3\n      swap2\n      swap1\n      dup2\n      dup2\n      mstore\n      0x20\n      add\n      dup3\n      dup1\n      sload\n      tag_373\n      swap1\n      tag_204\n      jump\t// in\n    tag_373:\n      dup1\n      iszero\n      tag_374\n      jumpi\n      dup1\n      0x1f\n      lt\n      tag_375\n      jumpi\n      0x0100\n      dup1\n      dup4\n      sload\n      div\n      mul\n      dup4\n      mstore\n      swap2\n      0x20\n      add\n      swap2\n      jump(tag_374)\n    tag_375:\n      dup3\n      add\n      swap2\n      swap1\n      0x00\n      mstore\n      keccak256(0x00, 0x20)\n      swap1\n    tag_376:\n      dup2\n      sload\n      dup2\n      mstore\n      swap1\n      0x01\n      add\n      swap1\n      0x20\n      add\n      dup1\n      dup4\n      gt\n      tag_376\n      jumpi\n      dup3\n      swap1\n      sub\n      0x1f\n      and\n      dup3\n      add\n      swap2\n    tag_374:\n      pop\n      pop\n      pop\n      pop\n      pop\n      dup2\n      mstore\n      0x20\n      add\n      0x02\n      dup3\n      add\n      0x00\n      swap1\n      sload\n      swap1\n      0x0100\n      exp\n      swap1\n      div\n      0xffffffffffffffffffffffffffffffffffffffff\n      and\n      0xffffffffffffffffffffffffffffffffffffffff\n      and\n      0xffffffffffffffffffffffffffffffffffffffff\n      and\n      dup2\n      mstore\n      0x20\n      add\n      0x03\n      dup3\n      add\n      sload\n      dup2\n      mstore\n      0x20\n      add\n      0x04\n      dup3\n      add\n      0x00\n      swap1\n      sload\n      swap1\n      0x0100\n      exp\n      swap1\n      div\n      0xff\n      and\n      iszero\n      iszero\n      iszero\n      iszero\n      dup2\n      mstore\n      pop\n      pop\n      dup2\n      mstore\n      0x20\n      add\n      swap1\n      0x01\n      add\n      swap1\n      jump(tag_369)\n    tag_370:\n      pop\n      pop\n      pop\n      pop\n      swap2\n      pop\n      swap2\n      pop\n      swap2\n      pop\n        /* \"Upstore.sol\":7286:7407  function getAppList() public view returns (AppStruct[] memory, uint256 total) {... */\n      swap1\n      swap2\n      jump\t// out\n        /* \"Upstore.sol\":1292:1358  mapping(bytes32 => mapping(bytes32 => string)) public blockStorage */\n    tag_155:\n      mstore(0x20, 0x05)\n      dup2\n      0x00\n      mstore\n      mstore(0x20, keccak256(0x00, 0x40))\n      dup1\n      0x00\n      mstore\n      keccak256(0x00, 0x40)\n      0x00\n      swap2\n      pop\n      swap2\n      pop\n      pop\n      dup1\n      sload\n      tag_377\n      swap1\n      tag_204\n      jump\t// in\n    tag_377:\n      dup1\n      0x1f\n      add\n      0x20\n      dup1\n      swap2\n      div\n      mul\n      0x20\n      add\n      mload(0x40)\n      swap1\n      dup2\n      add\n      0x40\n      mstore\n      dup1\n      swap3\n      swap2\n      swap1\n      dup2\n      dup2\n      mstore\n      0x20\n      add\n      dup3\n      dup1\n      sload\n      tag_378\n      swap1\n      tag_204\n      jump\t// in\n    tag_378:\n      dup1\n      iszero\n      tag_379\n      jumpi\n      dup1\n      0x1f\n      lt\n      tag_380\n      jumpi\n      0x0100\n      dup1\n      dup4\n      sload\n      div\n      mul\n      dup4\n      mstore\n      swap2\n      0x20\n      add\n      swap2\n      jump(tag_379)\n    tag_380:\n      dup3\n      add\n      swap2\n      swap1\n      0x00\n      mstore\n      keccak256(0x00, 0x20)\n      swap1\n    tag_381:\n      dup2\n      sload\n      dup2\n      mstore\n      swap1\n      0x01\n      add\n      swap1\n      0x20\n      add\n      dup1\n      dup4\n      gt\n      tag_381\n      jumpi\n      dup3\n      swap1\n      sub\n      0x1f\n      and\n      dup3\n      add\n      swap2\n    tag_379:\n      pop\n      pop\n      pop\n      pop\n      pop\n      dup2\n      jump\t// out\n        /* \"Upstore.sol\":1259:1283  LikeStruct[] public like */\n    tag_160:\n      0x04\n      dup2\n      dup2\n      sload\n      dup2\n      lt\n      tag_382\n      jumpi\n      0x00\n      dup1\n      revert\n    tag_382:\n      swap1\n      0x00\n      mstore\n      keccak256(0x00, 0x20)\n      swap1\n      0x03\n      mul\n      add\n      0x00\n      swap2\n      pop\n      swap1\n      pop\n      dup1\n      0x00\n      add\n      sload\n      swap1\n      dup1\n      0x01\n      add\n      0x00\n      swap1\n      sload\n      swap1\n      0x0100\n      exp\n      swap1\n      div\n      0xffffffffffffffffffffffffffffffffffffffff\n      and\n      swap1\n      dup1\n      0x02\n      add\n      sload\n      swap1\n      pop\n      dup4\n      jump\t// out\n        /* \"Upstore.sol\":6946:7140  function toggleStatus(bytes32 appId) public onlyOwner returns (bool status) {... */\n    tag_166:\n        /* \"Upstore.sol\":7009:7020  bool status */\n      0x00\n        /* \"_ownable.sol\":1600:1613  _checkOwner() */\n      tag_385\n        /* \"_ownable.sol\":1600:1611  _checkOwner */\n      tag_175\n        /* \"_ownable.sol\":1600:1613  _checkOwner() */\n      jump\t// in\n    tag_385:\n        /* \"Upstore.sol\":7033:7049  uint256 appIndex */\n      0x00\n        /* \"Upstore.sol\":7052:7070  _indexOfApp(appId) */\n      tag_387\n        /* \"Upstore.sol\":7064:7069  appId */\n      dup4\n        /* \"Upstore.sol\":7052:7063  _indexOfApp */\n      tag_178\n        /* \"Upstore.sol\":7052:7070  _indexOfApp(appId) */\n      jump\t// in\n    tag_387:\n        /* \"Upstore.sol\":7033:7070  uint256 appIndex = _indexOfApp(appId) */\n      swap1\n      pop\n        /* \"Upstore.sol\":7112:7115  app */\n      0x03\n        /* \"Upstore.sol\":7116:7124  appIndex */\n      dup2\n        /* \"Upstore.sol\":7112:7125  app[appIndex] */\n      dup2\n      sload\n      dup2\n      lt\n      tag_388\n      jumpi\n      tag_389\n      tag_181\n      jump\t// in\n    tag_389:\n    tag_388:\n      swap1\n      0x00\n      mstore\n      keccak256(0x00, 0x20)\n      swap1\n      0x05\n      mul\n      add\n        /* \"Upstore.sol\":7112:7132  app[appIndex].status */\n      0x04\n      add\n      0x00\n      swap1\n      sload\n      swap1\n      0x0100\n      exp\n      swap1\n      div\n      0xff\n      and\n        /* \"Upstore.sol\":7111:7132  !app[appIndex].status */\n      iszero\n        /* \"Upstore.sol\":7088:7091  app */\n      0x03\n        /* \"Upstore.sol\":7092:7100  appIndex */\n      dup3\n        /* \"Upstore.sol\":7088:7101  app[appIndex] */\n      dup2\n      sload\n      dup2\n      lt\n      tag_391\n      jumpi\n      tag_392\n      tag_181\n      jump\t// in\n    tag_392:\n    tag_391:\n      swap1\n      0x00\n      mstore\n      keccak256(0x00, 0x20)\n      swap1\n      0x05\n      mul\n      add\n        /* \"Upstore.sol\":7088:7108  app[appIndex].status */\n      0x04\n      add\n      0x00\n        /* \"Upstore.sol\":7088:7132  app[appIndex].status = !app[appIndex].status */\n      0x0100\n      exp\n      dup2\n      sload\n      dup2\n      0xff\n      mul\n      not\n      and\n      swap1\n      dup4\n      iszero\n      iszero\n      mul\n      or\n      swap1\n      sstore\n        /* \"Upstore.sol\":7081:7132  return app[appIndex].status = !app[appIndex].status */\n      swap2\n      pop\n      pop\n        /* \"Upstore.sol\":6946:7140  function toggleStatus(bytes32 appId) public onlyOwner returns (bool status) {... */\n      swap2\n      swap1\n      pop\n      jump\t// out\n        /* \"_ownable.sol\":2647:2867  function transferOwnership(address newOwner) public virtual onlyOwner {... */\n    tag_172:\n        /* \"_ownable.sol\":1600:1613  _checkOwner() */\n      tag_395\n        /* \"_ownable.sol\":1600:1611  _checkOwner */\n      tag_175\n        /* \"_ownable.sol\":1600:1613  _checkOwner() */\n      jump\t// in\n    tag_395:\n        /* \"_ownable.sol\":2752:2753  0 */\n      0x00\n        /* \"_ownable.sol\":2732:2754  newOwner == address(0) */\n      0xffffffffffffffffffffffffffffffffffffffff\n      and\n        /* \"_ownable.sol\":2732:2740  newOwner */\n      dup2\n        /* \"_ownable.sol\":2732:2754  newOwner == address(0) */\n      0xffffffffffffffffffffffffffffffffffffffff\n      and\n      sub\n        /* \"_ownable.sol\":2728:2821  if (newOwner == address(0)) {... */\n      tag_397\n      jumpi\n        /* \"_ownable.sol\":2806:2807  0 */\n      0x00\n        /* \"_ownable.sol\":2778:2809  OwnableInvalidOwner(address(0)) */\n      mload(0x40)\n      0x1e4fbdf700000000000000000000000000000000000000000000000000000000\n      dup2\n      mstore\n      0x04\n      add\n      tag_398\n      swap2\n      swap1\n      tag_100\n      jump\t// in\n    tag_398:\n      mload(0x40)\n      dup1\n      swap2\n      sub\n      swap1\n      revert\n        /* \"_ownable.sol\":2728:2821  if (newOwner == address(0)) {... */\n    tag_397:\n        /* \"_ownable.sol\":2831:2859  _transferOwnership(newOwner) */\n      tag_399\n        /* \"_ownable.sol\":2850:2858  newOwner */\n      dup2\n        /* \"_ownable.sol\":2831:2849  _transferOwnership */\n      tag_260\n        /* \"_ownable.sol\":2831:2859  _transferOwnership(newOwner) */\n      jump\t// in\n    tag_399:\n        /* \"_ownable.sol\":2647:2867  function transferOwnership(address newOwner) public virtual onlyOwner {... */\n      pop\n      jump\t// out\n        /* \"_ownable.sol\":1879:2045  function _checkOwner() internal view virtual {... */\n    tag_175:\n        /* \"_ownable.sol\":1950:1962  _msgSender() */\n      tag_401\n        /* \"_ownable.sol\":1950:1960  _msgSender */\n      tag_402\n        /* \"_ownable.sol\":1950:1962  _msgSender() */\n      jump\t// in\n    tag_401:\n        /* \"_ownable.sol\":1939:1962  owner() != _msgSender() */\n      0xffffffffffffffffffffffffffffffffffffffff\n      and\n        /* \"_ownable.sol\":1939:1946  owner() */\n      tag_403\n        /* \"_ownable.sol\":1939:1944  owner */\n      tag_98\n        /* \"_ownable.sol\":1939:1946  owner() */\n      jump\t// in\n    tag_403:\n        /* \"_ownable.sol\":1939:1962  owner() != _msgSender() */\n      0xffffffffffffffffffffffffffffffffffffffff\n      and\n      eq\n        /* \"_ownable.sol\":1935:2038  if (owner() != _msgSender()) {... */\n      tag_404\n      jumpi\n        /* \"_ownable.sol\":2013:2025  _msgSender() */\n      tag_405\n        /* \"_ownable.sol\":2013:2023  _msgSender */\n      tag_402\n        /* \"_ownable.sol\":2013:2025  _msgSender() */\n      jump\t// in\n    tag_405:\n        /* \"_ownable.sol\":1986:2026  OwnableUnauthorizedAccount(_msgSender()) */\n      mload(0x40)\n      0x118cdaa700000000000000000000000000000000000000000000000000000000\n      dup2\n      mstore\n      0x04\n      add\n      tag_406\n      swap2\n      swap1\n      tag_100\n      jump\t// in\n    tag_406:\n      mload(0x40)\n      dup1\n      swap2\n      sub\n      swap1\n      revert\n        /* \"_ownable.sol\":1935:2038  if (owner() != _msgSender()) {... */\n    tag_404:\n        /* \"_ownable.sol\":1879:2045  function _checkOwner() internal view virtual {... */\n      jump\t// out\n        /* \"Upstore.sol\":7771:7968  function _indexOfApp(bytes32 appId) internal view returns (uint256) {... */\n    tag_178:\n        /* \"Upstore.sol\":7830:7837  uint256 */\n      0x00\n        /* \"Upstore.sol\":7855:7864  uint256 i */\n      0x00\n        /* \"Upstore.sol\":7867:7868  0 */\n      0x00\n        /* \"Upstore.sol\":7855:7868  uint256 i = 0 */\n      swap1\n      pop\n        /* \"Upstore.sol\":7850:7923  for (uint256 i = 0; i < app.length; i++) if (app[i].id == appId) return i */\n    tag_408:\n        /* \"Upstore.sol\":7874:7877  app */\n      0x03\n        /* \"Upstore.sol\":7874:7884  app.length */\n      dup1\n      sload\n      swap1\n      pop\n        /* \"Upstore.sol\":7870:7871  i */\n      dup2\n        /* \"Upstore.sol\":7870:7884  i < app.length */\n      lt\n        /* \"Upstore.sol\":7850:7923  for (uint256 i = 0; i < app.length; i++) if (app[i].id == appId) return i */\n      iszero\n      tag_409\n      jumpi\n        /* \"Upstore.sol\":7908:7913  appId */\n      dup3\n        /* \"Upstore.sol\":7895:7898  app */\n      0x03\n        /* \"Upstore.sol\":7899:7900  i */\n      dup3\n        /* \"Upstore.sol\":7895:7901  app[i] */\n      dup2\n      sload\n      dup2\n      lt\n      tag_411\n      jumpi\n      tag_412\n      tag_181\n      jump\t// in\n    tag_412:\n    tag_411:\n      swap1\n      0x00\n      mstore\n      keccak256(0x00, 0x20)\n      swap1\n      0x05\n      mul\n      add\n        /* \"Upstore.sol\":7895:7904  app[i].id */\n      0x00\n      add\n      sload\n        /* \"Upstore.sol\":7895:7913  app[i].id == appId */\n      sub\n        /* \"Upstore.sol\":7891:7923  if (app[i].id == appId) return i */\n      tag_414\n      jumpi\n        /* \"Upstore.sol\":7922:7923  i */\n      dup1\n        /* \"Upstore.sol\":7915:7923  return i */\n      swap2\n      pop\n      pop\n      jump(tag_407)\n        /* \"Upstore.sol\":7891:7923  if (app[i].id == appId) return i */\n    tag_414:\n        /* \"Upstore.sol\":7886:7889  i++ */\n      dup1\n      dup1\n      0x01\n      add\n      swap2\n      pop\n      pop\n        /* \"Upstore.sol\":7850:7923  for (uint256 i = 0; i < app.length; i++) if (app[i].id == appId) return i */\n      jump(tag_408)\n    tag_409:\n      pop\n        /* \"Upstore.sol\":7934:7960  revert(\"App Id Not Found\") */\n      mload(0x40)\n      0x08c379a000000000000000000000000000000000000000000000000000000000\n      dup2\n      mstore\n      0x04\n      add\n      tag_415\n      swap1\n      tag_416\n      jump\t// in\n    tag_415:\n      mload(0x40)\n      dup1\n      swap2\n      sub\n      swap1\n      revert\n        /* \"Upstore.sol\":7771:7968  function _indexOfApp(bytes32 appId) internal view returns (uint256) {... */\n    tag_407:\n      swap2\n      swap1\n      pop\n      jump\t// out\n        /* \"_ownable.sol\":3027:3218  function _transferOwnership(address newOwner) internal virtual {... */\n    tag_260:\n        /* \"_ownable.sol\":3101:3117  address oldOwner */\n      0x00\n        /* \"_ownable.sol\":3120:3126  _owner */\n      0x00\n      0x00\n      swap1\n      sload\n      swap1\n      0x0100\n      exp\n      swap1\n      div\n      0xffffffffffffffffffffffffffffffffffffffff\n      and\n        /* \"_ownable.sol\":3101:3126  address oldOwner = _owner */\n      swap1\n      pop\n        /* \"_ownable.sol\":3146:3154  newOwner */\n      dup2\n        /* \"_ownable.sol\":3137:3143  _owner */\n      0x00\n      0x00\n        /* \"_ownable.sol\":3137:3154  _owner = newOwner */\n      0x0100\n      exp\n      dup2\n      sload\n      dup2\n      0xffffffffffffffffffffffffffffffffffffffff\n      mul\n      not\n      and\n      swap1\n      dup4\n      0xffffffffffffffffffffffffffffffffffffffff\n      and\n      mul\n      or\n      swap1\n      sstore\n      pop\n        /* \"_ownable.sol\":3201:3209  newOwner */\n      dup2\n        /* \"_ownable.sol\":3170:3210  OwnershipTransferred(oldOwner, newOwner) */\n      0xffffffffffffffffffffffffffffffffffffffff\n      and\n        /* \"_ownable.sol\":3191:3199  oldOwner */\n      dup2\n        /* \"_ownable.sol\":3170:3210  OwnershipTransferred(oldOwner, newOwner) */\n      0xffffffffffffffffffffffffffffffffffffffff\n      and\n      0x8be0079c531659141344cd1fd0a4f28419497f9722a3daafe3b4186f6b6457e0\n      mload(0x40)\n      mload(0x40)\n      dup1\n      swap2\n      sub\n      swap1\n      log3\n        /* \"_ownable.sol\":3090:3218  {... */\n      pop\n        /* \"_ownable.sol\":3027:3218  function _transferOwnership(address newOwner) internal virtual {... */\n      pop\n      jump\t// out\n        /* \"@openzeppelin/contracts/utils/Counters.sol\":945:1068  function increment(Counter storage counter) internal {... */\n    tag_316:\n        /* \"@openzeppelin/contracts/utils/Counters.sol\":1050:1051  1 */\n      0x01\n        /* \"@openzeppelin/contracts/utils/Counters.sol\":1032:1039  counter */\n      dup2\n        /* \"@openzeppelin/contracts/utils/Counters.sol\":1032:1046  counter._value */\n      0x00\n      add\n      0x00\n        /* \"@openzeppelin/contracts/utils/Counters.sol\":1032:1051  counter._value += 1 */\n      dup3\n      dup3\n      sload\n      add\n      swap3\n      pop\n      pop\n      dup2\n      swap1\n      sstore\n      pop\n        /* \"@openzeppelin/contracts/utils/Counters.sol\":945:1068  function increment(Counter storage counter) internal {... */\n      pop\n      jump\t// out\n        /* \"@openzeppelin/contracts/utils/Counters.sol\":827:939  function current(Counter storage counter) internal view returns (uint256) {... */\n    tag_318:\n        /* \"@openzeppelin/contracts/utils/Counters.sol\":892:899  uint256 */\n      0x00\n        /* \"@openzeppelin/contracts/utils/Counters.sol\":918:925  counter */\n      dup2\n        /* \"@openzeppelin/contracts/utils/Counters.sol\":918:932  counter._value */\n      0x00\n      add\n      sload\n        /* \"@openzeppelin/contracts/utils/Counters.sol\":911:932  return counter._value */\n      swap1\n      pop\n        /* \"@openzeppelin/contracts/utils/Counters.sol\":827:939  function current(Counter storage counter) internal view returns (uint256) {... */\n      swap2\n      swap1\n      pop\n      jump\t// out\n        /* \"@openzeppelin/contracts/utils/Context.sol\":655:751  function _msgSender() internal view virtual returns (address) {... */\n    tag_402:\n        /* \"@openzeppelin/contracts/utils/Context.sol\":708:715  address */\n      0x00\n        /* \"@openzeppelin/contracts/utils/Context.sol\":734:744  msg.sender */\n      caller\n        /* \"@openzeppelin/contracts/utils/Context.sol\":727:744  return msg.sender */\n      swap1\n      pop\n        /* \"@openzeppelin/contracts/utils/Context.sol\":655:751  function _msgSender() internal view virtual returns (address) {... */\n      swap1\n      jump\t// out\n    tag_222:\n      mload(0x40)\n      dup1\n      0xa0\n      add\n      0x40\n      mstore\n      dup1\n      0x00\n      dup2\n      mstore\n      0x20\n      add\n      0x60\n      dup2\n      mstore\n      0x20\n      add\n      and(0xffffffffffffffffffffffffffffffffffffffff, 0x00)\n      dup2\n      mstore\n      0x20\n      add\n      0x00\n      dup2\n      mstore\n      0x20\n      add\n      iszero(iszero(0x00))\n      dup2\n      mstore\n      pop\n      swap1\n      jump\t// out\n    tag_255:\n      pop\n      dup1\n      sload\n      tag_421\n      swap1\n      tag_204\n      jump\t// in\n    tag_421:\n      0x00\n      dup3\n      sstore\n      dup1\n      0x1f\n      lt\n      tag_423\n      jumpi\n      pop\n      jump(tag_422)\n    tag_423:\n      0x1f\n      add\n      0x20\n      swap1\n      div\n      swap1\n      0x00\n      mstore\n      keccak256(0x00, 0x20)\n      swap1\n      dup2\n      add\n      swap1\n      tag_424\n      swap2\n      swap1\n      tag_425\n      jump\t// in\n    tag_424:\n    tag_422:\n      pop\n      jump\t// out\n    tag_425:\n    tag_426:\n      dup1\n      dup3\n      gt\n      iszero\n      tag_427\n      jumpi\n      0x00\n      dup2\n      0x00\n      swap1\n      sstore\n      pop\n      0x01\n      add\n      jump(tag_426)\n    tag_427:\n      pop\n      swap1\n      jump\t// out\n        /* \"#utility.yul\":7:176   */\n    tag_428:\n        /* \"#utility.yul\":91:102   */\n      0x00\n        /* \"#utility.yul\":125:131   */\n      dup3\n        /* \"#utility.yul\":120:123   */\n      dup3\n        /* \"#utility.yul\":113:132   */\n      mstore\n        /* \"#utility.yul\":165:169   */\n      0x20\n        /* \"#utility.yul\":160:163   */\n      dup3\n        /* \"#utility.yul\":156:170   */\n      add\n        /* \"#utility.yul\":141:170   */\n      swap1\n      pop\n        /* \"#utility.yul\":7:176   */\n      swap3\n      swap2\n      pop\n      pop\n      jump\t// out\n        /* \"#utility.yul\":182:340   */\n    tag_429:\n        /* \"#utility.yul\":322:332   */\n      0x66616c6c6261636b000000000000000000000000000000000000000000000000\n        /* \"#utility.yul\":318:319   */\n      0x00\n        /* \"#utility.yul\":310:316   */\n      dup3\n        /* \"#utility.yul\":306:320   */\n      add\n        /* \"#utility.yul\":299:333   */\n      mstore\n        /* \"#utility.yul\":182:340   */\n      pop\n      jump\t// out\n        /* \"#utility.yul\":346:711   */\n    tag_430:\n        /* \"#utility.yul\":488:491   */\n      0x00\n        /* \"#utility.yul\":509:575   */\n      tag_513\n        /* \"#utility.yul\":573:574   */\n      0x08\n        /* \"#utility.yul\":568:571   */\n      dup4\n        /* \"#utility.yul\":509:575   */\n      tag_428\n      jump\t// in\n    tag_513:\n        /* \"#utility.yul\":502:575   */\n      swap2\n      pop\n        /* \"#utility.yul\":584:677   */\n      tag_514\n        /* \"#utility.yul\":673:676   */\n      dup3\n        /* \"#utility.yul\":584:677   */\n      tag_429\n      jump\t// in\n    tag_514:\n        /* \"#utility.yul\":702:704   */\n      0x20\n        /* \"#utility.yul\":697:700   */\n      dup3\n        /* \"#utility.yul\":693:705   */\n      add\n        /* \"#utility.yul\":686:705   */\n      swap1\n      pop\n        /* \"#utility.yul\":346:711   */\n      swap2\n      swap1\n      pop\n      jump\t// out\n        /* \"#utility.yul\":717:794   */\n    tag_431:\n        /* \"#utility.yul\":754:761   */\n      0x00\n        /* \"#utility.yul\":783:788   */\n      dup2\n        /* \"#utility.yul\":772:788   */\n      swap1\n      pop\n        /* \"#utility.yul\":717:794   */\n      swap2\n      swap1\n      pop\n      jump\t// out\n        /* \"#utility.yul\":800:918   */\n    tag_432:\n        /* \"#utility.yul\":887:911   */\n      tag_517\n        /* \"#utility.yul\":905:910   */\n      dup2\n        /* \"#utility.yul\":887:911   */\n      tag_431\n      jump\t// in\n    tag_517:\n        /* \"#utility.yul\":882:885   */\n      dup3\n        /* \"#utility.yul\":875:912   */\n      mstore\n        /* \"#utility.yul\":800:918   */\n      pop\n      pop\n      jump\t// out\n        /* \"#utility.yul\":924:1453   */\n    tag_39:\n        /* \"#utility.yul\":1118:1122   */\n      0x00\n        /* \"#utility.yul\":1156:1158   */\n      0x40\n        /* \"#utility.yul\":1145:1154   */\n      dup3\n        /* \"#utility.yul\":1141:1159   */\n      add\n        /* \"#utility.yul\":1133:1159   */\n      swap1\n      pop\n        /* \"#utility.yul\":1205:1214   */\n      dup2\n        /* \"#utility.yul\":1199:1203   */\n      dup2\n        /* \"#utility.yul\":1195:1215   */\n      sub\n        /* \"#utility.yul\":1191:1192   */\n      0x00\n        /* \"#utility.yul\":1180:1189   */\n      dup4\n        /* \"#utility.yul\":1176:1193   */\n      add\n        /* \"#utility.yul\":1169:1216   */\n      mstore\n        /* \"#utility.yul\":1233:1364   */\n      tag_519\n        /* \"#utility.yul\":1359:1363   */\n      dup2\n        /* \"#utility.yul\":1233:1364   */\n      tag_430\n      jump\t// in\n    tag_519:\n        /* \"#utility.yul\":1225:1364   */\n      swap1\n      pop\n        /* \"#utility.yul\":1374:1446   */\n      tag_520\n        /* \"#utility.yul\":1442:1444   */\n      0x20\n        /* \"#utility.yul\":1431:1440   */\n      dup4\n        /* \"#utility.yul\":1427:1445   */\n      add\n        /* \"#utility.yul\":1418:1424   */\n      dup5\n        /* \"#utility.yul\":1374:1446   */\n      tag_432\n      jump\t// in\n    tag_520:\n        /* \"#utility.yul\":924:1453   */\n      swap3\n      swap2\n      pop\n      pop\n      jump\t// out\n        /* \"#utility.yul\":1459:1534   */\n    tag_433:\n        /* \"#utility.yul\":1492:1498   */\n      0x00\n        /* \"#utility.yul\":1525:1527   */\n      0x40\n        /* \"#utility.yul\":1519:1528   */\n      mload\n        /* \"#utility.yul\":1509:1528   */\n      swap1\n      pop\n        /* \"#utility.yul\":1459:1534   */\n      swap1\n      jump\t// out\n        /* \"#utility.yul\":1540:1657   */\n    tag_434:\n        /* \"#utility.yul\":1649:1650   */\n      0x00\n        /* \"#utility.yul\":1646:1647   */\n      0x00\n        /* \"#utility.yul\":1639:1651   */\n      revert\n        /* \"#utility.yul\":1663:1780   */\n    tag_435:\n        /* \"#utility.yul\":1772:1773   */\n      0x00\n        /* \"#utility.yul\":1769:1770   */\n      0x00\n        /* \"#utility.yul\":1762:1774   */\n      revert\n        /* \"#utility.yul\":1786:1863   */\n    tag_436:\n        /* \"#utility.yul\":1823:1830   */\n      0x00\n        /* \"#utility.yul\":1852:1857   */\n      dup2\n        /* \"#utility.yul\":1841:1857   */\n      swap1\n      pop\n        /* \"#utility.yul\":1786:1863   */\n      swap2\n      swap1\n      pop\n      jump\t// out\n        /* \"#utility.yul\":1869:1991   */\n    tag_437:\n        /* \"#utility.yul\":1942:1966   */\n      tag_526\n        /* \"#utility.yul\":1960:1965   */\n      dup2\n        /* \"#utility.yul\":1942:1966   */\n      tag_436\n      jump\t// in\n    tag_526:\n        /* \"#utility.yul\":1935:1940   */\n      dup2\n        /* \"#utility.yul\":1932:1967   */\n      eq\n        /* \"#utility.yul\":1922:1985   */\n      tag_527\n      jumpi\n        /* \"#utility.yul\":1981:1982   */\n      0x00\n        /* \"#utility.yul\":1978:1979   */\n      0x00\n        /* \"#utility.yul\":1971:1983   */\n      revert\n        /* \"#utility.yul\":1922:1985   */\n    tag_527:\n        /* \"#utility.yul\":1869:1991   */\n      pop\n      jump\t// out\n        /* \"#utility.yul\":1997:2136   */\n    tag_438:\n        /* \"#utility.yul\":2043:2048   */\n      0x00\n        /* \"#utility.yul\":2081:2087   */\n      dup2\n        /* \"#utility.yul\":2068:2088   */\n      calldataload\n        /* \"#utility.yul\":2059:2088   */\n      swap1\n      pop\n        /* \"#utility.yul\":2097:2130   */\n      tag_529\n        /* \"#utility.yul\":2124:2129   */\n      dup2\n        /* \"#utility.yul\":2097:2130   */\n      tag_437\n      jump\t// in\n    tag_529:\n        /* \"#utility.yul\":1997:2136   */\n      swap3\n      swap2\n      pop\n      pop\n      jump\t// out\n        /* \"#utility.yul\":2142:2259   */\n    tag_439:\n        /* \"#utility.yul\":2251:2252   */\n      0x00\n        /* \"#utility.yul\":2248:2249   */\n      0x00\n        /* \"#utility.yul\":2241:2253   */\n      revert\n        /* \"#utility.yul\":2265:2382   */\n    tag_440:\n        /* \"#utility.yul\":2374:2375   */\n      0x00\n        /* \"#utility.yul\":2371:2372   */\n      0x00\n        /* \"#utility.yul\":2364:2376   */\n      revert\n        /* \"#utility.yul\":2388:2490   */\n    tag_441:\n        /* \"#utility.yul\":2429:2435   */\n      0x00\n        /* \"#utility.yul\":2480:2482   */\n      0x1f\n        /* \"#utility.yul\":2476:2483   */\n      not\n        /* \"#utility.yul\":2471:2473   */\n      0x1f\n        /* \"#utility.yul\":2464:2469   */\n      dup4\n        /* \"#utility.yul\":2460:2474   */\n      add\n        /* \"#utility.yul\":2456:2484   */\n      and\n        /* \"#utility.yul\":2446:2484   */\n      swap1\n      pop\n        /* \"#utility.yul\":2388:2490   */\n      swap2\n      swap1\n      pop\n      jump\t// out\n        /* \"#utility.yul\":2496:2676   */\n    tag_442:\n        /* \"#utility.yul\":2544:2621   */\n      0x4e487b7100000000000000000000000000000000000000000000000000000000\n        /* \"#utility.yul\":2541:2542   */\n      0x00\n        /* \"#utility.yul\":2534:2622   */\n      mstore\n        /* \"#utility.yul\":2641:2645   */\n      0x41\n        /* \"#utility.yul\":2638:2639   */\n      0x04\n        /* \"#utility.yul\":2631:2646   */\n      mstore\n        /* \"#utility.yul\":2665:2669   */\n      0x24\n        /* \"#utility.yul\":2662:2663   */\n      0x00\n        /* \"#utility.yul\":2655:2670   */\n      revert\n        /* \"#utility.yul\":2682:2963   */\n    tag_443:\n        /* \"#utility.yul\":2765:2792   */\n      tag_535\n        /* \"#utility.yul\":2787:2791   */\n      dup3\n        /* \"#utility.yul\":2765:2792   */\n      tag_441\n      jump\t// in\n    tag_535:\n        /* \"#utility.yul\":2757:2763   */\n      dup2\n        /* \"#utility.yul\":2753:2793   */\n      add\n        /* \"#utility.yul\":2895:2901   */\n      dup2\n        /* \"#utility.yul\":2883:2893   */\n      dup2\n        /* \"#utility.yul\":2880:2902   */\n      lt\n        /* \"#utility.yul\":2859:2877   */\n      0xffffffffffffffff\n        /* \"#utility.yul\":2847:2857   */\n      dup3\n        /* \"#utility.yul\":2844:2878   */\n      gt\n        /* \"#utility.yul\":2841:2903   */\n      or\n        /* \"#utility.yul\":2838:2926   */\n      iszero\n      tag_536\n      jumpi\n        /* \"#utility.yul\":2906:2924   */\n      tag_537\n      tag_442\n      jump\t// in\n    tag_537:\n        /* \"#utility.yul\":2838:2926   */\n    tag_536:\n        /* \"#utility.yul\":2946:2956   */\n      dup1\n        /* \"#utility.yul\":2942:2944   */\n      0x40\n        /* \"#utility.yul\":2935:2957   */\n      mstore\n        /* \"#utility.yul\":2725:2963   */\n      pop\n        /* \"#utility.yul\":2682:2963   */\n      pop\n      pop\n      jump\t// out\n        /* \"#utility.yul\":2969:3098   */\n    tag_444:\n        /* \"#utility.yul\":3003:3009   */\n      0x00\n        /* \"#utility.yul\":3030:3050   */\n      tag_539\n      tag_433\n      jump\t// in\n    tag_539:\n        /* \"#utility.yul\":3020:3050   */\n      swap1\n      pop\n        /* \"#utility.yul\":3059:3092   */\n      tag_540\n        /* \"#utility.yul\":3087:3091   */\n      dup3\n        /* \"#utility.yul\":3079:3085   */\n      dup3\n        /* \"#utility.yul\":3059:3092   */\n      tag_443\n      jump\t// in\n    tag_540:\n        /* \"#utility.yul\":2969:3098   */\n      swap2\n      swap1\n      pop\n      jump\t// out\n        /* \"#utility.yul\":3104:3412   */\n    tag_445:\n        /* \"#utility.yul\":3166:3170   */\n      0x00\n        /* \"#utility.yul\":3256:3274   */\n      0xffffffffffffffff\n        /* \"#utility.yul\":3248:3254   */\n      dup3\n        /* \"#utility.yul\":3245:3275   */\n      gt\n        /* \"#utility.yul\":3242:3298   */\n      iszero\n      tag_542\n      jumpi\n        /* \"#utility.yul\":3278:3296   */\n      tag_543\n      tag_442\n      jump\t// in\n    tag_543:\n        /* \"#utility.yul\":3242:3298   */\n    tag_542:\n        /* \"#utility.yul\":3316:3345   */\n      tag_544\n        /* \"#utility.yul\":3338:3344   */\n      dup3\n        /* \"#utility.yul\":3316:3345   */\n      tag_441\n      jump\t// in\n    tag_544:\n        /* \"#utility.yul\":3308:3345   */\n      swap1\n      pop\n        /* \"#utility.yul\":3400:3404   */\n      0x20\n        /* \"#utility.yul\":3394:3398   */\n      dup2\n        /* \"#utility.yul\":3390:3405   */\n      add\n        /* \"#utility.yul\":3382:3405   */\n      swap1\n      pop\n        /* \"#utility.yul\":3104:3412   */\n      swap2\n      swap1\n      pop\n      jump\t// out\n        /* \"#utility.yul\":3418:3566   */\n    tag_446:\n        /* \"#utility.yul\":3516:3522   */\n      dup3\n        /* \"#utility.yul\":3511:3514   */\n      dup2\n        /* \"#utility.yul\":3506:3509   */\n      dup4\n        /* \"#utility.yul\":3493:3523   */\n      calldatacopy\n        /* \"#utility.yul\":3557:3558   */\n      0x00\n        /* \"#utility.yul\":3548:3554   */\n      dup4\n        /* \"#utility.yul\":3543:3546   */\n      dup4\n        /* \"#utility.yul\":3539:3555   */\n      add\n        /* \"#utility.yul\":3532:3559   */\n      mstore\n        /* \"#utility.yul\":3418:3566   */\n      pop\n      pop\n      pop\n      jump\t// out\n        /* \"#utility.yul\":3572:3997   */\n    tag_447:\n        /* \"#utility.yul\":3650:3655   */\n      0x00\n        /* \"#utility.yul\":3675:3741   */\n      tag_547\n        /* \"#utility.yul\":3691:3740   */\n      tag_548\n        /* \"#utility.yul\":3733:3739   */\n      dup5\n        /* \"#utility.yul\":3691:3740   */\n      tag_445\n      jump\t// in\n    tag_548:\n        /* \"#utility.yul\":3675:3741   */\n      tag_444\n      jump\t// in\n    tag_547:\n        /* \"#utility.yul\":3666:3741   */\n      swap1\n      pop\n        /* \"#utility.yul\":3764:3770   */\n      dup3\n        /* \"#utility.yul\":3757:3762   */\n      dup2\n        /* \"#utility.yul\":3750:3771   */\n      mstore\n        /* \"#utility.yul\":3802:3806   */\n      0x20\n        /* \"#utility.yul\":3795:3800   */\n      dup2\n        /* \"#utility.yul\":3791:3807   */\n      add\n        /* \"#utility.yul\":3840:3843   */\n      dup5\n        /* \"#utility.yul\":3831:3837   */\n      dup5\n        /* \"#utility.yul\":3826:3829   */\n      dup5\n        /* \"#utility.yul\":3822:3838   */\n      add\n        /* \"#utility.yul\":3819:3844   */\n      gt\n        /* \"#utility.yul\":3816:3928   */\n      iszero\n      tag_549\n      jumpi\n        /* \"#utility.yul\":3847:3926   */\n      tag_550\n      tag_440\n      jump\t// in\n    tag_550:\n        /* \"#utility.yul\":3816:3928   */\n    tag_549:\n        /* \"#utility.yul\":3937:3991   */\n      tag_551\n        /* \"#utility.yul\":3984:3990   */\n      dup5\n        /* \"#utility.yul\":3979:3982   */\n      dup3\n        /* \"#utility.yul\":3974:3977   */\n      dup6\n        /* \"#utility.yul\":3937:3991   */\n      tag_446\n      jump\t// in\n    tag_551:\n        /* \"#utility.yul\":3656:3997   */\n      pop\n        /* \"#utility.yul\":3572:3997   */\n      swap4\n      swap3\n      pop\n      pop\n      pop\n      jump\t// out\n        /* \"#utility.yul\":4017:4357   */\n    tag_448:\n        /* \"#utility.yul\":4073:4078   */\n      0x00\n        /* \"#utility.yul\":4122:4125   */\n      dup3\n        /* \"#utility.yul\":4115:4119   */\n      0x1f\n        /* \"#utility.yul\":4107:4113   */\n      dup4\n        /* \"#utility.yul\":4103:4120   */\n      add\n        /* \"#utility.yul\":4099:4126   */\n      slt\n        /* \"#utility.yul\":4089:4211   */\n      tag_553\n      jumpi\n        /* \"#utility.yul\":4130:4209   */\n      tag_554\n      tag_439\n      jump\t// in\n    tag_554:\n        /* \"#utility.yul\":4089:4211   */\n    tag_553:\n        /* \"#utility.yul\":4247:4253   */\n      dup2\n        /* \"#utility.yul\":4234:4254   */\n      calldataload\n        /* \"#utility.yul\":4272:4351   */\n      tag_555\n        /* \"#utility.yul\":4347:4350   */\n      dup5\n        /* \"#utility.yul\":4339:4345   */\n      dup3\n        /* \"#utility.yul\":4332:4336   */\n      0x20\n        /* \"#utility.yul\":4324:4330   */\n      dup7\n        /* \"#utility.yul\":4320:4337   */\n      add\n        /* \"#utility.yul\":4272:4351   */\n      tag_447\n      jump\t// in\n    tag_555:\n        /* \"#utility.yul\":4263:4351   */\n      swap2\n      pop\n        /* \"#utility.yul\":4079:4357   */\n      pop\n        /* \"#utility.yul\":4017:4357   */\n      swap3\n      swap2\n      pop\n      pop\n      jump\t// out\n        /* \"#utility.yul\":4363:4489   */\n    tag_449:\n        /* \"#utility.yul\":4400:4407   */\n      0x00\n        /* \"#utility.yul\":4440:4482   */\n      0xffffffffffffffffffffffffffffffffffffffff\n        /* \"#utility.yul\":4433:4438   */\n      dup3\n        /* \"#utility.yul\":4429:4483   */\n      and\n        /* \"#utility.yul\":4418:4483   */\n      swap1\n      pop\n        /* \"#utility.yul\":4363:4489   */\n      swap2\n      swap1\n      pop\n      jump\t// out\n        /* \"#utility.yul\":4495:4591   */\n    tag_450:\n        /* \"#utility.yul\":4532:4539   */\n      0x00\n        /* \"#utility.yul\":4561:4585   */\n      tag_558\n        /* \"#utility.yul\":4579:4584   */\n      dup3\n        /* \"#utility.yul\":4561:4585   */\n      tag_449\n      jump\t// in\n    tag_558:\n        /* \"#utility.yul\":4550:4585   */\n      swap1\n      pop\n        /* \"#utility.yul\":4495:4591   */\n      swap2\n      swap1\n      pop\n      jump\t// out\n        /* \"#utility.yul\":4597:4719   */\n    tag_451:\n        /* \"#utility.yul\":4670:4694   */\n      tag_560\n        /* \"#utility.yul\":4688:4693   */\n      dup2\n        /* \"#utility.yul\":4670:4694   */\n      tag_450\n      jump\t// in\n    tag_560:\n        /* \"#utility.yul\":4663:4668   */\n      dup2\n        /* \"#utility.yul\":4660:4695   */\n      eq\n        /* \"#utility.yul\":4650:4713   */\n      tag_561\n      jumpi\n        /* \"#utility.yul\":4709:4710   */\n      0x00\n        /* \"#utility.yul\":4706:4707   */\n      0x00\n        /* \"#utility.yul\":4699:4711   */\n      revert\n        /* \"#utility.yul\":4650:4713   */\n    tag_561:\n        /* \"#utility.yul\":4597:4719   */\n      pop\n      jump\t// out\n        /* \"#utility.yul\":4725:4864   */\n    tag_452:\n        /* \"#utility.yul\":4771:4776   */\n      0x00\n        /* \"#utility.yul\":4809:4815   */\n      dup2\n        /* \"#utility.yul\":4796:4816   */\n      calldataload\n        /* \"#utility.yul\":4787:4816   */\n      swap1\n      pop\n        /* \"#utility.yul\":4825:4858   */\n      tag_563\n        /* \"#utility.yul\":4852:4857   */\n      dup2\n        /* \"#utility.yul\":4825:4858   */\n      tag_451\n      jump\t// in\n    tag_563:\n        /* \"#utility.yul\":4725:4864   */\n      swap3\n      swap2\n      pop\n      pop\n      jump\t// out\n        /* \"#utility.yul\":4870:5669   */\n    tag_43:\n        /* \"#utility.yul\":4957:4963   */\n      0x00\n        /* \"#utility.yul\":4965:4971   */\n      0x00\n        /* \"#utility.yul\":4973:4979   */\n      0x00\n        /* \"#utility.yul\":5022:5024   */\n      0x60\n        /* \"#utility.yul\":5010:5019   */\n      dup5\n        /* \"#utility.yul\":5001:5008   */\n      dup7\n        /* \"#utility.yul\":4997:5020   */\n      sub\n        /* \"#utility.yul\":4993:5025   */\n      slt\n        /* \"#utility.yul\":4990:5109   */\n      iszero\n      tag_565\n      jumpi\n        /* \"#utility.yul\":5028:5107   */\n      tag_566\n      tag_434\n      jump\t// in\n    tag_566:\n        /* \"#utility.yul\":4990:5109   */\n    tag_565:\n        /* \"#utility.yul\":5148:5149   */\n      0x00\n        /* \"#utility.yul\":5173:5226   */\n      tag_567\n        /* \"#utility.yul\":5218:5225   */\n      dup7\n        /* \"#utility.yul\":5209:5215   */\n      dup3\n        /* \"#utility.yul\":5198:5207   */\n      dup8\n        /* \"#utility.yul\":5194:5216   */\n      add\n        /* \"#utility.yul\":5173:5226   */\n      tag_438\n      jump\t// in\n    tag_567:\n        /* \"#utility.yul\":5163:5226   */\n      swap4\n      pop\n        /* \"#utility.yul\":5119:5236   */\n      pop\n        /* \"#utility.yul\":5303:5305   */\n      0x20\n        /* \"#utility.yul\":5292:5301   */\n      dup5\n        /* \"#utility.yul\":5288:5306   */\n      add\n        /* \"#utility.yul\":5275:5307   */\n      calldataload\n        /* \"#utility.yul\":5334:5352   */\n      0xffffffffffffffff\n        /* \"#utility.yul\":5326:5332   */\n      dup2\n        /* \"#utility.yul\":5323:5353   */\n      gt\n        /* \"#utility.yul\":5320:5437   */\n      iszero\n      tag_568\n      jumpi\n        /* \"#utility.yul\":5356:5435   */\n      tag_569\n      tag_435\n      jump\t// in\n    tag_569:\n        /* \"#utility.yul\":5320:5437   */\n    tag_568:\n        /* \"#utility.yul\":5461:5524   */\n      tag_570\n        /* \"#utility.yul\":5516:5523   */\n      dup7\n        /* \"#utility.yul\":5507:5513   */\n      dup3\n        /* \"#utility.yul\":5496:5505   */\n      dup8\n        /* \"#utility.yul\":5492:5514   */\n      add\n        /* \"#utility.yul\":5461:5524   */\n      tag_448\n      jump\t// in\n    tag_570:\n        /* \"#utility.yul\":5451:5524   */\n      swap3\n      pop\n        /* \"#utility.yul\":5246:5534   */\n      pop\n        /* \"#utility.yul\":5573:5575   */\n      0x40\n        /* \"#utility.yul\":5599:5652   */\n      tag_571\n        /* \"#utility.yul\":5644:5651   */\n      dup7\n        /* \"#utility.yul\":5635:5641   */\n      dup3\n        /* \"#utility.yul\":5624:5633   */\n      dup8\n        /* \"#utility.yul\":5620:5642   */\n      add\n        /* \"#utility.yul\":5599:5652   */\n      tag_452\n      jump\t// in\n    tag_571:\n        /* \"#utility.yul\":5589:5652   */\n      swap2\n      pop\n        /* \"#utility.yul\":5544:5662   */\n      pop\n        /* \"#utility.yul\":4870:5669   */\n      swap3\n      pop\n      swap3\n      pop\n      swap3\n      jump\t// out\n        /* \"#utility.yul\":5675:5765   */\n    tag_453:\n        /* \"#utility.yul\":5709:5716   */\n      0x00\n        /* \"#utility.yul\":5752:5757   */\n      dup2\n        /* \"#utility.yul\":5745:5758   */\n      iszero\n        /* \"#utility.yul\":5738:5759   */\n      iszero\n        /* \"#utility.yul\":5727:5759   */\n      swap1\n      pop\n        /* \"#utility.yul\":5675:5765   */\n      swap2\n      swap1\n      pop\n      jump\t// out\n        /* \"#utility.yul\":5771:5880   */\n    tag_454:\n        /* \"#utility.yul\":5852:5873   */\n      tag_574\n        /* \"#utility.yul\":5867:5872   */\n      dup2\n        /* \"#utility.yul\":5852:5873   */\n      tag_453\n      jump\t// in\n    tag_574:\n        /* \"#utility.yul\":5847:5850   */\n      dup3\n        /* \"#utility.yul\":5840:5874   */\n      mstore\n        /* \"#utility.yul\":5771:5880   */\n      pop\n      pop\n      jump\t// out\n        /* \"#utility.yul\":5886:6096   */\n    tag_46:\n        /* \"#utility.yul\":5973:5977   */\n      0x00\n        /* \"#utility.yul\":6011:6013   */\n      0x20\n        /* \"#utility.yul\":6000:6009   */\n      dup3\n        /* \"#utility.yul\":5996:6014   */\n      add\n        /* \"#utility.yul\":5988:6014   */\n      swap1\n      pop\n        /* \"#utility.yul\":6024:6089   */\n      tag_576\n        /* \"#utility.yul\":6086:6087   */\n      0x00\n        /* \"#utility.yul\":6075:6084   */\n      dup4\n        /* \"#utility.yul\":6071:6088   */\n      add\n        /* \"#utility.yul\":6062:6068   */\n      dup5\n        /* \"#utility.yul\":6024:6089   */\n      tag_454\n      jump\t// in\n    tag_576:\n        /* \"#utility.yul\":5886:6096   */\n      swap3\n      swap2\n      pop\n      pop\n      jump\t// out\n        /* \"#utility.yul\":6102:6324   */\n    tag_51:\n        /* \"#utility.yul\":6195:6199   */\n      0x00\n        /* \"#utility.yul\":6233:6235   */\n      0x20\n        /* \"#utility.yul\":6222:6231   */\n      dup3\n        /* \"#utility.yul\":6218:6236   */\n      add\n        /* \"#utility.yul\":6210:6236   */\n      swap1\n      pop\n        /* \"#utility.yul\":6246:6317   */\n      tag_578\n        /* \"#utility.yul\":6314:6315   */\n      0x00\n        /* \"#utility.yul\":6303:6312   */\n      dup4\n        /* \"#utility.yul\":6299:6316   */\n      add\n        /* \"#utility.yul\":6290:6296   */\n      dup5\n        /* \"#utility.yul\":6246:6317   */\n      tag_432\n      jump\t// in\n    tag_578:\n        /* \"#utility.yul\":6102:6324   */\n      swap3\n      swap2\n      pop\n      pop\n      jump\t// out\n        /* \"#utility.yul\":6330:7129   */\n    tag_55:\n        /* \"#utility.yul\":6417:6423   */\n      0x00\n        /* \"#utility.yul\":6425:6431   */\n      0x00\n        /* \"#utility.yul\":6433:6439   */\n      0x00\n        /* \"#utility.yul\":6482:6484   */\n      0x60\n        /* \"#utility.yul\":6470:6479   */\n      dup5\n        /* \"#utility.yul\":6461:6468   */\n      dup7\n        /* \"#utility.yul\":6457:6480   */\n      sub\n        /* \"#utility.yul\":6453:6485   */\n      slt\n        /* \"#utility.yul\":6450:6569   */\n      iszero\n      tag_580\n      jumpi\n        /* \"#utility.yul\":6488:6567   */\n      tag_581\n      tag_434\n      jump\t// in\n    tag_581:\n        /* \"#utility.yul\":6450:6569   */\n    tag_580:\n        /* \"#utility.yul\":6608:6609   */\n      0x00\n        /* \"#utility.yul\":6633:6686   */\n      tag_582\n        /* \"#utility.yul\":6678:6685   */\n      dup7\n        /* \"#utility.yul\":6669:6675   */\n      dup3\n        /* \"#utility.yul\":6658:6667   */\n      dup8\n        /* \"#utility.yul\":6654:6676   */\n      add\n        /* \"#utility.yul\":6633:6686   */\n      tag_438\n      jump\t// in\n    tag_582:\n        /* \"#utility.yul\":6623:6686   */\n      swap4\n      pop\n        /* \"#utility.yul\":6579:6696   */\n      pop\n        /* \"#utility.yul\":6735:6737   */\n      0x20\n        /* \"#utility.yul\":6761:6814   */\n      tag_583\n        /* \"#utility.yul\":6806:6813   */\n      dup7\n        /* \"#utility.yul\":6797:6803   */\n      dup3\n        /* \"#utility.yul\":6786:6795   */\n      dup8\n        /* \"#utility.yul\":6782:6804   */\n      add\n        /* \"#utility.yul\":6761:6814   */\n      tag_438\n      jump\t// in\n    tag_583:\n        /* \"#utility.yul\":6751:6814   */\n      swap3\n      pop\n        /* \"#utility.yul\":6706:6824   */\n      pop\n        /* \"#utility.yul\":6891:6893   */\n      0x40\n        /* \"#utility.yul\":6880:6889   */\n      dup5\n        /* \"#utility.yul\":6876:6894   */\n      add\n        /* \"#utility.yul\":6863:6895   */\n      calldataload\n        /* \"#utility.yul\":6922:6940   */\n      0xffffffffffffffff\n        /* \"#utility.yul\":6914:6920   */\n      dup2\n        /* \"#utility.yul\":6911:6941   */\n      gt\n        /* \"#utility.yul\":6908:7025   */\n      iszero\n      tag_584\n      jumpi\n        /* \"#utility.yul\":6944:7023   */\n      tag_585\n      tag_435\n      jump\t// in\n    tag_585:\n        /* \"#utility.yul\":6908:7025   */\n    tag_584:\n        /* \"#utility.yul\":7049:7112   */\n      tag_586\n        /* \"#utility.yul\":7104:7111   */\n      dup7\n        /* \"#utility.yul\":7095:7101   */\n      dup3\n        /* \"#utility.yul\":7084:7093   */\n      dup8\n        /* \"#utility.yul\":7080:7102   */\n      add\n        /* \"#utility.yul\":7049:7112   */\n      tag_448\n      jump\t// in\n    tag_586:\n        /* \"#utility.yul\":7039:7112   */\n      swap2\n      pop\n        /* \"#utility.yul\":6834:7122   */\n      pop\n        /* \"#utility.yul\":6330:7129   */\n      swap3\n      pop\n      swap3\n      pop\n      swap3\n      jump\t// out\n        /* \"#utility.yul\":7135:7257   */\n    tag_455:\n        /* \"#utility.yul\":7208:7232   */\n      tag_588\n        /* \"#utility.yul\":7226:7231   */\n      dup2\n        /* \"#utility.yul\":7208:7232   */\n      tag_431\n      jump\t// in\n    tag_588:\n        /* \"#utility.yul\":7201:7206   */\n      dup2\n        /* \"#utility.yul\":7198:7233   */\n      eq\n        /* \"#utility.yul\":7188:7251   */\n      tag_589\n      jumpi\n        /* \"#utility.yul\":7247:7248   */\n      0x00\n        /* \"#utility.yul\":7244:7245   */\n      0x00\n        /* \"#utility.yul\":7237:7249   */\n      revert\n        /* \"#utility.yul\":7188:7251   */\n    tag_589:\n        /* \"#utility.yul\":7135:7257   */\n      pop\n      jump\t// out\n        /* \"#utility.yul\":7263:7402   */\n    tag_456:\n        /* \"#utility.yul\":7309:7314   */\n      0x00\n        /* \"#utility.yul\":7347:7353   */\n      dup2\n        /* \"#utility.yul\":7334:7354   */\n      calldataload\n        /* \"#utility.yul\":7325:7354   */\n      swap1\n      pop\n        /* \"#utility.yul\":7363:7396   */\n      tag_591\n        /* \"#utility.yul\":7390:7395   */\n      dup2\n        /* \"#utility.yul\":7363:7396   */\n      tag_455\n      jump\t// in\n    tag_591:\n        /* \"#utility.yul\":7263:7402   */\n      swap3\n      swap2\n      pop\n      pop\n      jump\t// out\n        /* \"#utility.yul\":7408:7737   */\n    tag_60:\n        /* \"#utility.yul\":7467:7473   */\n      0x00\n        /* \"#utility.yul\":7516:7518   */\n      0x20\n        /* \"#utility.yul\":7504:7513   */\n      dup3\n        /* \"#utility.yul\":7495:7502   */\n      dup5\n        /* \"#utility.yul\":7491:7514   */\n      sub\n        /* \"#utility.yul\":7487:7519   */\n      slt\n        /* \"#utility.yul\":7484:7603   */\n      iszero\n      tag_593\n      jumpi\n        /* \"#utility.yul\":7522:7601   */\n      tag_594\n      tag_434\n      jump\t// in\n    tag_594:\n        /* \"#utility.yul\":7484:7603   */\n    tag_593:\n        /* \"#utility.yul\":7642:7643   */\n      0x00\n        /* \"#utility.yul\":7667:7720   */\n      tag_595\n        /* \"#utility.yul\":7712:7719   */\n      dup5\n        /* \"#utility.yul\":7703:7709   */\n      dup3\n        /* \"#utility.yul\":7692:7701   */\n      dup6\n        /* \"#utility.yul\":7688:7710   */\n      add\n        /* \"#utility.yul\":7667:7720   */\n      tag_456\n      jump\t// in\n    tag_595:\n        /* \"#utility.yul\":7657:7720   */\n      swap2\n      pop\n        /* \"#utility.yul\":7613:7730   */\n      pop\n        /* \"#utility.yul\":7408:7737   */\n      swap3\n      swap2\n      pop\n      pop\n      jump\t// out\n        /* \"#utility.yul\":7743:7861   */\n    tag_457:\n        /* \"#utility.yul\":7830:7854   */\n      tag_597\n        /* \"#utility.yul\":7848:7853   */\n      dup2\n        /* \"#utility.yul\":7830:7854   */\n      tag_436\n      jump\t// in\n    tag_597:\n        /* \"#utility.yul\":7825:7828   */\n      dup3\n        /* \"#utility.yul\":7818:7855   */\n      mstore\n        /* \"#utility.yul\":7743:7861   */\n      pop\n      pop\n      jump\t// out\n        /* \"#utility.yul\":7867:7966   */\n    tag_458:\n        /* \"#utility.yul\":7919:7925   */\n      0x00\n        /* \"#utility.yul\":7953:7958   */\n      dup2\n        /* \"#utility.yul\":7947:7959   */\n      mload\n        /* \"#utility.yul\":7937:7959   */\n      swap1\n      pop\n        /* \"#utility.yul\":7867:7966   */\n      swap2\n      swap1\n      pop\n      jump\t// out\n        /* \"#utility.yul\":7972:8220   */\n    tag_459:\n        /* \"#utility.yul\":8054:8055   */\n      0x00\n        /* \"#utility.yul\":8064:8177   */\n    tag_600:\n        /* \"#utility.yul\":8078:8084   */\n      dup4\n        /* \"#utility.yul\":8075:8076   */\n      dup2\n        /* \"#utility.yul\":8072:8085   */\n      lt\n        /* \"#utility.yul\":8064:8177   */\n      iszero\n      tag_602\n      jumpi\n        /* \"#utility.yul\":8163:8164   */\n      dup1\n        /* \"#utility.yul\":8158:8161   */\n      dup3\n        /* \"#utility.yul\":8154:8165   */\n      add\n        /* \"#utility.yul\":8148:8166   */\n      mload\n        /* \"#utility.yul\":8144:8145   */\n      dup2\n        /* \"#utility.yul\":8139:8142   */\n      dup5\n        /* \"#utility.yul\":8135:8146   */\n      add\n        /* \"#utility.yul\":8128:8167   */\n      mstore\n        /* \"#utility.yul\":8100:8102   */\n      0x20\n        /* \"#utility.yul\":8097:8098   */\n      dup2\n        /* \"#utility.yul\":8093:8103   */\n      add\n        /* \"#utility.yul\":8088:8103   */\n      swap1\n      pop\n        /* \"#utility.yul\":8064:8177   */\n      jump(tag_600)\n    tag_602:\n        /* \"#utility.yul\":8211:8212   */\n      0x00\n        /* \"#utility.yul\":8202:8208   */\n      dup5\n        /* \"#utility.yul\":8197:8200   */\n      dup5\n        /* \"#utility.yul\":8193:8209   */\n      add\n        /* \"#utility.yul\":8186:8213   */\n      mstore\n        /* \"#utility.yul\":8034:8220   */\n      pop\n        /* \"#utility.yul\":7972:8220   */\n      pop\n      pop\n      pop\n      jump\t// out\n        /* \"#utility.yul\":8226:8603   */\n    tag_460:\n        /* \"#utility.yul\":8314:8317   */\n      0x00\n        /* \"#utility.yul\":8342:8381   */\n      tag_604\n        /* \"#utility.yul\":8375:8380   */\n      dup3\n        /* \"#utility.yul\":8342:8381   */\n      tag_458\n      jump\t// in\n    tag_604:\n        /* \"#utility.yul\":8397:8468   */\n      tag_605\n        /* \"#utility.yul\":8461:8467   */\n      dup2\n        /* \"#utility.yul\":8456:8459   */\n      dup6\n        /* \"#utility.yul\":8397:8468   */\n      tag_428\n      jump\t// in\n    tag_605:\n        /* \"#utility.yul\":8390:8468   */\n      swap4\n      pop\n        /* \"#utility.yul\":8477:8542   */\n      tag_606\n        /* \"#utility.yul\":8535:8541   */\n      dup2\n        /* \"#utility.yul\":8530:8533   */\n      dup6\n        /* \"#utility.yul\":8523:8527   */\n      0x20\n        /* \"#utility.yul\":8516:8521   */\n      dup7\n        /* \"#utility.yul\":8512:8528   */\n      add\n        /* \"#utility.yul\":8477:8542   */\n      tag_459\n      jump\t// in\n    tag_606:\n        /* \"#utility.yul\":8567:8596   */\n      tag_607\n        /* \"#utility.yul\":8589:8595   */\n      dup2\n        /* \"#utility.yul\":8567:8596   */\n      tag_441\n      jump\t// in\n    tag_607:\n        /* \"#utility.yul\":8562:8565   */\n      dup5\n        /* \"#utility.yul\":8558:8597   */\n      add\n        /* \"#utility.yul\":8551:8597   */\n      swap2\n      pop\n        /* \"#utility.yul\":8318:8603   */\n      pop\n        /* \"#utility.yul\":8226:8603   */\n      swap3\n      swap2\n      pop\n      pop\n      jump\t// out\n        /* \"#utility.yul\":8609:8727   */\n    tag_461:\n        /* \"#utility.yul\":8696:8720   */\n      tag_609\n        /* \"#utility.yul\":8714:8719   */\n      dup2\n        /* \"#utility.yul\":8696:8720   */\n      tag_450\n      jump\t// in\n    tag_609:\n        /* \"#utility.yul\":8691:8694   */\n      dup3\n        /* \"#utility.yul\":8684:8721   */\n      mstore\n        /* \"#utility.yul\":8609:8727   */\n      pop\n      pop\n      jump\t// out\n        /* \"#utility.yul\":8733:9476   */\n    tag_63:\n        /* \"#utility.yul\":8952:8956   */\n      0x00\n        /* \"#utility.yul\":8990:8993   */\n      0xa0\n        /* \"#utility.yul\":8979:8988   */\n      dup3\n        /* \"#utility.yul\":8975:8994   */\n      add\n        /* \"#utility.yul\":8967:8994   */\n      swap1\n      pop\n        /* \"#utility.yul\":9004:9075   */\n      tag_611\n        /* \"#utility.yul\":9072:9073   */\n      0x00\n        /* \"#utility.yul\":9061:9070   */\n      dup4\n        /* \"#utility.yul\":9057:9074   */\n      add\n        /* \"#utility.yul\":9048:9054   */\n      dup9\n        /* \"#utility.yul\":9004:9075   */\n      tag_457\n      jump\t// in\n    tag_611:\n        /* \"#utility.yul\":9122:9131   */\n      dup2\n        /* \"#utility.yul\":9116:9120   */\n      dup2\n        /* \"#utility.yul\":9112:9132   */\n      sub\n        /* \"#utility.yul\":9107:9109   */\n      0x20\n        /* \"#utility.yul\":9096:9105   */\n      dup4\n        /* \"#utility.yul\":9092:9110   */\n      add\n        /* \"#utility.yul\":9085:9133   */\n      mstore\n        /* \"#utility.yul\":9150:9228   */\n      tag_612\n        /* \"#utility.yul\":9223:9227   */\n      dup2\n        /* \"#utility.yul\":9214:9220   */\n      dup8\n        /* \"#utility.yul\":9150:9228   */\n      tag_460\n      jump\t// in\n    tag_612:\n        /* \"#utility.yul\":9142:9228   */\n      swap1\n      pop\n        /* \"#utility.yul\":9238:9310   */\n      tag_613\n        /* \"#utility.yul\":9306:9308   */\n      0x40\n        /* \"#utility.yul\":9295:9304   */\n      dup4\n        /* \"#utility.yul\":9291:9309   */\n      add\n        /* \"#utility.yul\":9282:9288   */\n      dup7\n        /* \"#utility.yul\":9238:9310   */\n      tag_461\n      jump\t// in\n    tag_613:\n        /* \"#utility.yul\":9320:9392   */\n      tag_614\n        /* \"#utility.yul\":9388:9390   */\n      0x60\n        /* \"#utility.yul\":9377:9386   */\n      dup4\n        /* \"#utility.yul\":9373:9391   */\n      add\n        /* \"#utility.yul\":9364:9370   */\n      dup6\n        /* \"#utility.yul\":9320:9392   */\n      tag_432\n      jump\t// in\n    tag_614:\n        /* \"#utility.yul\":9402:9469   */\n      tag_615\n        /* \"#utility.yul\":9464:9467   */\n      0x80\n        /* \"#utility.yul\":9453:9462   */\n      dup4\n        /* \"#utility.yul\":9449:9468   */\n      add\n        /* \"#utility.yul\":9440:9446   */\n      dup5\n        /* \"#utility.yul\":9402:9469   */\n      tag_454\n      jump\t// in\n    tag_615:\n        /* \"#utility.yul\":8733:9476   */\n      swap7\n      swap6\n      pop\n      pop\n      pop\n      pop\n      pop\n      pop\n      jump\t// out\n        /* \"#utility.yul\":9482:9811   */\n    tag_70:\n        /* \"#utility.yul\":9541:9547   */\n      0x00\n        /* \"#utility.yul\":9590:9592   */\n      0x20\n        /* \"#utility.yul\":9578:9587   */\n      dup3\n        /* \"#utility.yul\":9569:9576   */\n      dup5\n        /* \"#utility.yul\":9565:9588   */\n      sub\n        /* \"#utility.yul\":9561:9593   */\n      slt\n        /* \"#utility.yul\":9558:9677   */\n      iszero\n      tag_617\n      jumpi\n        /* \"#utility.yul\":9596:9675   */\n      tag_618\n      tag_434\n      jump\t// in\n    tag_618:\n        /* \"#utility.yul\":9558:9677   */\n    tag_617:\n        /* \"#utility.yul\":9716:9717   */\n      0x00\n        /* \"#utility.yul\":9741:9794   */\n      tag_619\n        /* \"#utility.yul\":9786:9793   */\n      dup5\n        /* \"#utility.yul\":9777:9783   */\n      dup3\n        /* \"#utility.yul\":9766:9775   */\n      dup6\n        /* \"#utility.yul\":9762:9784   */\n      add\n        /* \"#utility.yul\":9741:9794   */\n      tag_438\n      jump\t// in\n    tag_619:\n        /* \"#utility.yul\":9731:9794   */\n      swap2\n      pop\n        /* \"#utility.yul\":9687:9804   */\n      pop\n        /* \"#utility.yul\":9482:9811   */\n      swap3\n      swap2\n      pop\n      pop\n      jump\t// out\n        /* \"#utility.yul\":9817:9925   */\n    tag_462:\n        /* \"#utility.yul\":9894:9918   */\n      tag_621\n        /* \"#utility.yul\":9912:9917   */\n      dup2\n        /* \"#utility.yul\":9894:9918   */\n      tag_436\n      jump\t// in\n    tag_621:\n        /* \"#utility.yul\":9889:9892   */\n      dup3\n        /* \"#utility.yul\":9882:9919   */\n      mstore\n        /* \"#utility.yul\":9817:9925   */\n      pop\n      pop\n      jump\t// out\n        /* \"#utility.yul\":9931:10090   */\n    tag_463:\n        /* \"#utility.yul\":10005:10016   */\n      0x00\n        /* \"#utility.yul\":10039:10045   */\n      dup3\n        /* \"#utility.yul\":10034:10037   */\n      dup3\n        /* \"#utility.yul\":10027:10046   */\n      mstore\n        /* \"#utility.yul\":10079:10083   */\n      0x20\n        /* \"#utility.yul\":10074:10077   */\n      dup3\n        /* \"#utility.yul\":10070:10084   */\n      add\n        /* \"#utility.yul\":10055:10084   */\n      swap1\n      pop\n        /* \"#utility.yul\":9931:10090   */\n      swap3\n      swap2\n      pop\n      pop\n      jump\t// out\n        /* \"#utility.yul\":10096:10453   */\n    tag_464:\n        /* \"#utility.yul\":10174:10177   */\n      0x00\n        /* \"#utility.yul\":10202:10241   */\n      tag_624\n        /* \"#utility.yul\":10235:10240   */\n      dup3\n        /* \"#utility.yul\":10202:10241   */\n      tag_458\n      jump\t// in\n    tag_624:\n        /* \"#utility.yul\":10257:10318   */\n      tag_625\n        /* \"#utility.yul\":10311:10317   */\n      dup2\n        /* \"#utility.yul\":10306:10309   */\n      dup6\n        /* \"#utility.yul\":10257:10318   */\n      tag_463\n      jump\t// in\n    tag_625:\n        /* \"#utility.yul\":10250:10318   */\n      swap4\n      pop\n        /* \"#utility.yul\":10327:10392   */\n      tag_626\n        /* \"#utility.yul\":10385:10391   */\n      dup2\n        /* \"#utility.yul\":10380:10383   */\n      dup6\n        /* \"#utility.yul\":10373:10377   */\n      0x20\n        /* \"#utility.yul\":10366:10371   */\n      dup7\n        /* \"#utility.yul\":10362:10378   */\n      add\n        /* \"#utility.yul\":10327:10392   */\n      tag_459\n      jump\t// in\n    tag_626:\n        /* \"#utility.yul\":10417:10446   */\n      tag_627\n        /* \"#utility.yul\":10439:10445   */\n      dup2\n        /* \"#utility.yul\":10417:10446   */\n      tag_441\n      jump\t// in\n    tag_627:\n        /* \"#utility.yul\":10412:10415   */\n      dup5\n        /* \"#utility.yul\":10408:10447   */\n      add\n        /* \"#utility.yul\":10401:10447   */\n      swap2\n      pop\n        /* \"#utility.yul\":10178:10453   */\n      pop\n        /* \"#utility.yul\":10096:10453   */\n      swap3\n      swap2\n      pop\n      pop\n      jump\t// out\n        /* \"#utility.yul\":10459:10567   */\n    tag_465:\n        /* \"#utility.yul\":10536:10560   */\n      tag_629\n        /* \"#utility.yul\":10554:10559   */\n      dup2\n        /* \"#utility.yul\":10536:10560   */\n      tag_450\n      jump\t// in\n    tag_629:\n        /* \"#utility.yul\":10531:10534   */\n      dup3\n        /* \"#utility.yul\":10524:10561   */\n      mstore\n        /* \"#utility.yul\":10459:10567   */\n      pop\n      pop\n      jump\t// out\n        /* \"#utility.yul\":10573:10681   */\n    tag_466:\n        /* \"#utility.yul\":10650:10674   */\n      tag_631\n        /* \"#utility.yul\":10668:10673   */\n      dup2\n        /* \"#utility.yul\":10650:10674   */\n      tag_431\n      jump\t// in\n    tag_631:\n        /* \"#utility.yul\":10645:10648   */\n      dup3\n        /* \"#utility.yul\":10638:10675   */\n      mstore\n        /* \"#utility.yul\":10573:10681   */\n      pop\n      pop\n      jump\t// out\n        /* \"#utility.yul\":10687:10786   */\n    tag_467:\n        /* \"#utility.yul\":10758:10779   */\n      tag_633\n        /* \"#utility.yul\":10773:10778   */\n      dup2\n        /* \"#utility.yul\":10758:10779   */\n      tag_453\n      jump\t// in\n    tag_633:\n        /* \"#utility.yul\":10753:10756   */\n      dup3\n        /* \"#utility.yul\":10746:10780   */\n      mstore\n        /* \"#utility.yul\":10687:10786   */\n      pop\n      pop\n      jump\t// out\n        /* \"#utility.yul\":10852:11981   */\n    tag_468:\n        /* \"#utility.yul\":10973:10976   */\n      0x00\n        /* \"#utility.yul\":11009:11013   */\n      0xa0\n        /* \"#utility.yul\":11004:11007   */\n      dup4\n        /* \"#utility.yul\":11000:11014   */\n      add\n        /* \"#utility.yul\":11094:11098   */\n      0x00\n        /* \"#utility.yul\":11087:11092   */\n      dup4\n        /* \"#utility.yul\":11083:11099   */\n      add\n        /* \"#utility.yul\":11077:11100   */\n      mload\n        /* \"#utility.yul\":11113:11176   */\n      tag_635\n        /* \"#utility.yul\":11170:11174   */\n      0x00\n        /* \"#utility.yul\":11165:11168   */\n      dup7\n        /* \"#utility.yul\":11161:11175   */\n      add\n        /* \"#utility.yul\":11147:11159   */\n      dup3\n        /* \"#utility.yul\":11113:11176   */\n      tag_462\n      jump\t// in\n    tag_635:\n        /* \"#utility.yul\":11024:11186   */\n      pop\n        /* \"#utility.yul\":11272:11276   */\n      0x20\n        /* \"#utility.yul\":11265:11270   */\n      dup4\n        /* \"#utility.yul\":11261:11277   */\n      add\n        /* \"#utility.yul\":11255:11278   */\n      mload\n        /* \"#utility.yul\":11325:11328   */\n      dup5\n        /* \"#utility.yul\":11319:11323   */\n      dup3\n        /* \"#utility.yul\":11315:11329   */\n      sub\n        /* \"#utility.yul\":11308:11312   */\n      0x20\n        /* \"#utility.yul\":11303:11306   */\n      dup7\n        /* \"#utility.yul\":11299:11313   */\n      add\n        /* \"#utility.yul\":11292:11330   */\n      mstore\n        /* \"#utility.yul\":11351:11424   */\n      tag_636\n        /* \"#utility.yul\":11419:11423   */\n      dup3\n        /* \"#utility.yul\":11405:11417   */\n      dup3\n        /* \"#utility.yul\":11351:11424   */\n      tag_464\n      jump\t// in\n    tag_636:\n        /* \"#utility.yul\":11343:11424   */\n      swap2\n      pop\n        /* \"#utility.yul\":11196:11435   */\n      pop\n        /* \"#utility.yul\":11520:11524   */\n      0x40\n        /* \"#utility.yul\":11513:11518   */\n      dup4\n        /* \"#utility.yul\":11509:11525   */\n      add\n        /* \"#utility.yul\":11503:11526   */\n      mload\n        /* \"#utility.yul\":11539:11602   */\n      tag_637\n        /* \"#utility.yul\":11596:11600   */\n      0x40\n        /* \"#utility.yul\":11591:11594   */\n      dup7\n        /* \"#utility.yul\":11587:11601   */\n      add\n        /* \"#utility.yul\":11573:11585   */\n      dup3\n        /* \"#utility.yul\":11539:11602   */\n      tag_465\n      jump\t// in\n    tag_637:\n        /* \"#utility.yul\":11445:11612   */\n      pop\n        /* \"#utility.yul\":11692:11696   */\n      0x60\n        /* \"#utility.yul\":11685:11690   */\n      dup4\n        /* \"#utility.yul\":11681:11697   */\n      add\n        /* \"#utility.yul\":11675:11698   */\n      mload\n        /* \"#utility.yul\":11711:11774   */\n      tag_638\n        /* \"#utility.yul\":11768:11772   */\n      0x60\n        /* \"#utility.yul\":11763:11766   */\n      dup7\n        /* \"#utility.yul\":11759:11773   */\n      add\n        /* \"#utility.yul\":11745:11757   */\n      dup3\n        /* \"#utility.yul\":11711:11774   */\n      tag_466\n      jump\t// in\n    tag_638:\n        /* \"#utility.yul\":11622:11784   */\n      pop\n        /* \"#utility.yul\":11868:11872   */\n      0x80\n        /* \"#utility.yul\":11861:11866   */\n      dup4\n        /* \"#utility.yul\":11857:11873   */\n      add\n        /* \"#utility.yul\":11851:11874   */\n      mload\n        /* \"#utility.yul\":11887:11944   */\n      tag_639\n        /* \"#utility.yul\":11938:11942   */\n      0x80\n        /* \"#utility.yul\":11933:11936   */\n      dup7\n        /* \"#utility.yul\":11929:11943   */\n      add\n        /* \"#utility.yul\":11915:11927   */\n      dup3\n        /* \"#utility.yul\":11887:11944   */\n      tag_467\n      jump\t// in\n    tag_639:\n        /* \"#utility.yul\":11794:11954   */\n      pop\n        /* \"#utility.yul\":11971:11975   */\n      dup1\n        /* \"#utility.yul\":11964:11975   */\n      swap2\n      pop\n        /* \"#utility.yul\":10978:11981   */\n      pop\n        /* \"#utility.yul\":10852:11981   */\n      swap3\n      swap2\n      pop\n      pop\n      jump\t// out\n        /* \"#utility.yul\":11987:12364   */\n    tag_73:\n        /* \"#utility.yul\":12132:12136   */\n      0x00\n        /* \"#utility.yul\":12170:12172   */\n      0x20\n        /* \"#utility.yul\":12159:12168   */\n      dup3\n        /* \"#utility.yul\":12155:12173   */\n      add\n        /* \"#utility.yul\":12147:12173   */\n      swap1\n      pop\n        /* \"#utility.yul\":12219:12228   */\n      dup2\n        /* \"#utility.yul\":12213:12217   */\n      dup2\n        /* \"#utility.yul\":12209:12229   */\n      sub\n        /* \"#utility.yul\":12205:12206   */\n      0x00\n        /* \"#utility.yul\":12194:12203   */\n      dup4\n        /* \"#utility.yul\":12190:12207   */\n      add\n        /* \"#utility.yul\":12183:12230   */\n      mstore\n        /* \"#utility.yul\":12247:12357   */\n      tag_641\n        /* \"#utility.yul\":12352:12356   */\n      dup2\n        /* \"#utility.yul\":12343:12349   */\n      dup5\n        /* \"#utility.yul\":12247:12357   */\n      tag_468\n      jump\t// in\n    tag_641:\n        /* \"#utility.yul\":12239:12357   */\n      swap1\n      pop\n        /* \"#utility.yul\":11987:12364   */\n      swap3\n      swap2\n      pop\n      pop\n      jump\t// out\n        /* \"#utility.yul\":12370:12844   */\n    tag_81:\n        /* \"#utility.yul\":12438:12444   */\n      0x00\n        /* \"#utility.yul\":12446:12452   */\n      0x00\n        /* \"#utility.yul\":12495:12497   */\n      0x40\n        /* \"#utility.yul\":12483:12492   */\n      dup4\n        /* \"#utility.yul\":12474:12481   */\n      dup6\n        /* \"#utility.yul\":12470:12493   */\n      sub\n        /* \"#utility.yul\":12466:12498   */\n      slt\n        /* \"#utility.yul\":12463:12582   */\n      iszero\n      tag_643\n      jumpi\n        /* \"#utility.yul\":12501:12580   */\n      tag_644\n      tag_434\n      jump\t// in\n    tag_644:\n        /* \"#utility.yul\":12463:12582   */\n    tag_643:\n        /* \"#utility.yul\":12621:12622   */\n      0x00\n        /* \"#utility.yul\":12646:12699   */\n      tag_645\n        /* \"#utility.yul\":12691:12698   */\n      dup6\n        /* \"#utility.yul\":12682:12688   */\n      dup3\n        /* \"#utility.yul\":12671:12680   */\n      dup7\n        /* \"#utility.yul\":12667:12689   */\n      add\n        /* \"#utility.yul\":12646:12699   */\n      tag_438\n      jump\t// in\n    tag_645:\n        /* \"#utility.yul\":12636:12699   */\n      swap3\n      pop\n        /* \"#utility.yul\":12592:12709   */\n      pop\n        /* \"#utility.yul\":12748:12750   */\n      0x20\n        /* \"#utility.yul\":12774:12827   */\n      tag_646\n        /* \"#utility.yul\":12819:12826   */\n      dup6\n        /* \"#utility.yul\":12810:12816   */\n      dup3\n        /* \"#utility.yul\":12799:12808   */\n      dup7\n        /* \"#utility.yul\":12795:12817   */\n      add\n        /* \"#utility.yul\":12774:12827   */\n      tag_438\n      jump\t// in\n    tag_646:\n        /* \"#utility.yul\":12764:12827   */\n      swap2\n      pop\n        /* \"#utility.yul\":12719:12837   */\n      pop\n        /* \"#utility.yul\":12370:12844   */\n      swap3\n      pop\n      swap3\n      swap1\n      pop\n      jump\t// out\n        /* \"#utility.yul\":12850:13072   */\n    tag_100:\n        /* \"#utility.yul\":12943:12947   */\n      0x00\n        /* \"#utility.yul\":12981:12983   */\n      0x20\n        /* \"#utility.yul\":12970:12979   */\n      dup3\n        /* \"#utility.yul\":12966:12984   */\n      add\n        /* \"#utility.yul\":12958:12984   */\n      swap1\n      pop\n        /* \"#utility.yul\":12994:13065   */\n      tag_648\n        /* \"#utility.yul\":13062:13063   */\n      0x00\n        /* \"#utility.yul\":13051:13060   */\n      dup4\n        /* \"#utility.yul\":13047:13064   */\n      add\n        /* \"#utility.yul\":13038:13044   */\n      dup5\n        /* \"#utility.yul\":12994:13065   */\n      tag_461\n      jump\t// in\n    tag_648:\n        /* \"#utility.yul\":12850:13072   */\n      swap3\n      swap2\n      pop\n      pop\n      jump\t// out\n        /* \"#utility.yul\":13078:13732   */\n    tag_116:\n        /* \"#utility.yul\":13156:13162   */\n      0x00\n        /* \"#utility.yul\":13164:13170   */\n      0x00\n        /* \"#utility.yul\":13213:13215   */\n      0x40\n        /* \"#utility.yul\":13201:13210   */\n      dup4\n        /* \"#utility.yul\":13192:13199   */\n      dup6\n        /* \"#utility.yul\":13188:13211   */\n      sub\n        /* \"#utility.yul\":13184:13216   */\n      slt\n        /* \"#utility.yul\":13181:13300   */\n      iszero\n      tag_650\n      jumpi\n        /* \"#utility.yul\":13219:13298   */\n      tag_651\n      tag_434\n      jump\t// in\n    tag_651:\n        /* \"#utility.yul\":13181:13300   */\n    tag_650:\n        /* \"#utility.yul\":13339:13340   */\n      0x00\n        /* \"#utility.yul\":13364:13417   */\n      tag_652\n        /* \"#utility.yul\":13409:13416   */\n      dup6\n        /* \"#utility.yul\":13400:13406   */\n      dup3\n        /* \"#utility.yul\":13389:13398   */\n      dup7\n        /* \"#utility.yul\":13385:13407   */\n      add\n        /* \"#utility.yul\":13364:13417   */\n      tag_438\n      jump\t// in\n    tag_652:\n        /* \"#utility.yul\":13354:13417   */\n      swap3\n      pop\n        /* \"#utility.yul\":13310:13427   */\n      pop\n        /* \"#utility.yul\":13494:13496   */\n      0x20\n        /* \"#utility.yul\":13483:13492   */\n      dup4\n        /* \"#utility.yul\":13479:13497   */\n      add\n        /* \"#utility.yul\":13466:13498   */\n      calldataload\n        /* \"#utility.yul\":13525:13543   */\n      0xffffffffffffffff\n        /* \"#utility.yul\":13517:13523   */\n      dup2\n        /* \"#utility.yul\":13514:13544   */\n      gt\n        /* \"#utility.yul\":13511:13628   */\n      iszero\n      tag_653\n      jumpi\n        /* \"#utility.yul\":13547:13626   */\n      tag_654\n      tag_435\n      jump\t// in\n    tag_654:\n        /* \"#utility.yul\":13511:13628   */\n    tag_653:\n        /* \"#utility.yul\":13652:13715   */\n      tag_655\n        /* \"#utility.yul\":13707:13714   */\n      dup6\n        /* \"#utility.yul\":13698:13704   */\n      dup3\n        /* \"#utility.yul\":13687:13696   */\n      dup7\n        /* \"#utility.yul\":13683:13705   */\n      add\n        /* \"#utility.yul\":13652:13715   */\n      tag_448\n      jump\t// in\n    tag_655:\n        /* \"#utility.yul\":13642:13715   */\n      swap2\n      pop\n        /* \"#utility.yul\":13437:13725   */\n      pop\n        /* \"#utility.yul\":13078:13732   */\n      swap3\n      pop\n      swap3\n      swap1\n      pop\n      jump\t// out\n        /* \"#utility.yul\":13738:13842   */\n    tag_469:\n        /* \"#utility.yul\":13783:13790   */\n      0x00\n        /* \"#utility.yul\":13812:13836   */\n      tag_657\n        /* \"#utility.yul\":13830:13835   */\n      dup3\n        /* \"#utility.yul\":13812:13836   */\n      tag_449\n      jump\t// in\n    tag_657:\n        /* \"#utility.yul\":13801:13836   */\n      swap1\n      pop\n        /* \"#utility.yul\":13738:13842   */\n      swap2\n      swap1\n      pop\n      jump\t// out\n        /* \"#utility.yul\":13848:13986   */\n    tag_470:\n        /* \"#utility.yul\":13929:13961   */\n      tag_659\n        /* \"#utility.yul\":13955:13960   */\n      dup2\n        /* \"#utility.yul\":13929:13961   */\n      tag_469\n      jump\t// in\n    tag_659:\n        /* \"#utility.yul\":13922:13927   */\n      dup2\n        /* \"#utility.yul\":13919:13962   */\n      eq\n        /* \"#utility.yul\":13909:13980   */\n      tag_660\n      jumpi\n        /* \"#utility.yul\":13976:13977   */\n      0x00\n        /* \"#utility.yul\":13973:13974   */\n      0x00\n        /* \"#utility.yul\":13966:13978   */\n      revert\n        /* \"#utility.yul\":13909:13980   */\n    tag_660:\n        /* \"#utility.yul\":13848:13986   */\n      pop\n      jump\t// out\n        /* \"#utility.yul\":13992:14147   */\n    tag_471:\n        /* \"#utility.yul\":14046:14051   */\n      0x00\n        /* \"#utility.yul\":14084:14090   */\n      dup2\n        /* \"#utility.yul\":14071:14091   */\n      calldataload\n        /* \"#utility.yul\":14062:14091   */\n      swap1\n      pop\n        /* \"#utility.yul\":14100:14141   */\n      tag_662\n        /* \"#utility.yul\":14135:14140   */\n      dup2\n        /* \"#utility.yul\":14100:14141   */\n      tag_470\n      jump\t// in\n    tag_662:\n        /* \"#utility.yul\":13992:14147   */\n      swap3\n      swap2\n      pop\n      pop\n      jump\t// out\n        /* \"#utility.yul\":14153:14643   */\n    tag_122:\n        /* \"#utility.yul\":14229:14235   */\n      0x00\n        /* \"#utility.yul\":14237:14243   */\n      0x00\n        /* \"#utility.yul\":14286:14288   */\n      0x40\n        /* \"#utility.yul\":14274:14283   */\n      dup4\n        /* \"#utility.yul\":14265:14272   */\n      dup6\n        /* \"#utility.yul\":14261:14284   */\n      sub\n        /* \"#utility.yul\":14257:14289   */\n      slt\n        /* \"#utility.yul\":14254:14373   */\n      iszero\n      tag_664\n      jumpi\n        /* \"#utility.yul\":14292:14371   */\n      tag_665\n      tag_434\n      jump\t// in\n    tag_665:\n        /* \"#utility.yul\":14254:14373   */\n    tag_664:\n        /* \"#utility.yul\":14412:14413   */\n      0x00\n        /* \"#utility.yul\":14437:14498   */\n      tag_666\n        /* \"#utility.yul\":14490:14497   */\n      dup6\n        /* \"#utility.yul\":14481:14487   */\n      dup3\n        /* \"#utility.yul\":14470:14479   */\n      dup7\n        /* \"#utility.yul\":14466:14488   */\n      add\n        /* \"#utility.yul\":14437:14498   */\n      tag_471\n      jump\t// in\n    tag_666:\n        /* \"#utility.yul\":14427:14498   */\n      swap3\n      pop\n        /* \"#utility.yul\":14383:14508   */\n      pop\n        /* \"#utility.yul\":14547:14549   */\n      0x20\n        /* \"#utility.yul\":14573:14626   */\n      tag_667\n        /* \"#utility.yul\":14618:14625   */\n      dup6\n        /* \"#utility.yul\":14609:14615   */\n      dup3\n        /* \"#utility.yul\":14598:14607   */\n      dup7\n        /* \"#utility.yul\":14594:14616   */\n      add\n        /* \"#utility.yul\":14573:14626   */\n      tag_456\n      jump\t// in\n    tag_667:\n        /* \"#utility.yul\":14563:14626   */\n      swap2\n      pop\n        /* \"#utility.yul\":14518:14636   */\n      pop\n        /* \"#utility.yul\":14153:14643   */\n      swap3\n      pop\n      swap3\n      swap1\n      pop\n      jump\t// out\n        /* \"#utility.yul\":14649:15303   */\n    tag_126:\n        /* \"#utility.yul\":14727:14733   */\n      0x00\n        /* \"#utility.yul\":14735:14741   */\n      0x00\n        /* \"#utility.yul\":14784:14786   */\n      0x40\n        /* \"#utility.yul\":14772:14781   */\n      dup4\n        /* \"#utility.yul\":14763:14770   */\n      dup6\n        /* \"#utility.yul\":14759:14782   */\n      sub\n        /* \"#utility.yul\":14755:14787   */\n      slt\n        /* \"#utility.yul\":14752:14871   */\n      iszero\n      tag_669\n      jumpi\n        /* \"#utility.yul\":14790:14869   */\n      tag_670\n      tag_434\n      jump\t// in\n    tag_670:\n        /* \"#utility.yul\":14752:14871   */\n    tag_669:\n        /* \"#utility.yul\":14938:14939   */\n      0x00\n        /* \"#utility.yul\":14927:14936   */\n      dup4\n        /* \"#utility.yul\":14923:14940   */\n      add\n        /* \"#utility.yul\":14910:14941   */\n      calldataload\n        /* \"#utility.yul\":14968:14986   */\n      0xffffffffffffffff\n        /* \"#utility.yul\":14960:14966   */\n      dup2\n        /* \"#utility.yul\":14957:14987   */\n      gt\n        /* \"#utility.yul\":14954:15071   */\n      iszero\n      tag_671\n      jumpi\n        /* \"#utility.yul\":14990:15069   */\n      tag_672\n      tag_435\n      jump\t// in\n    tag_672:\n        /* \"#utility.yul\":14954:15071   */\n    tag_671:\n        /* \"#utility.yul\":15095:15158   */\n      tag_673\n        /* \"#utility.yul\":15150:15157   */\n      dup6\n        /* \"#utility.yul\":15141:15147   */\n      dup3\n        /* \"#utility.yul\":15130:15139   */\n      dup7\n        /* \"#utility.yul\":15126:15148   */\n      add\n        /* \"#utility.yul\":15095:15158   */\n      tag_448\n      jump\t// in\n    tag_673:\n        /* \"#utility.yul\":15085:15158   */\n      swap3\n      pop\n        /* \"#utility.yul\":14881:15168   */\n      pop\n        /* \"#utility.yul\":15207:15209   */\n      0x20\n        /* \"#utility.yul\":15233:15286   */\n      tag_674\n        /* \"#utility.yul\":15278:15285   */\n      dup6\n        /* \"#utility.yul\":15269:15275   */\n      dup3\n        /* \"#utility.yul\":15258:15267   */\n      dup7\n        /* \"#utility.yul\":15254:15276   */\n      add\n        /* \"#utility.yul\":15233:15286   */\n      tag_452\n      jump\t// in\n    tag_674:\n        /* \"#utility.yul\":15223:15286   */\n      swap2\n      pop\n        /* \"#utility.yul\":15178:15296   */\n      pop\n        /* \"#utility.yul\":14649:15303   */\n      swap3\n      pop\n      swap3\n      swap1\n      pop\n      jump\t// out\n        /* \"#utility.yul\":15309:15531   */\n    tag_129:\n        /* \"#utility.yul\":15402:15406   */\n      0x00\n        /* \"#utility.yul\":15440:15442   */\n      0x20\n        /* \"#utility.yul\":15429:15438   */\n      dup3\n        /* \"#utility.yul\":15425:15443   */\n      add\n        /* \"#utility.yul\":15417:15443   */\n      swap1\n      pop\n        /* \"#utility.yul\":15453:15524   */\n      tag_676\n        /* \"#utility.yul\":15521:15522   */\n      0x00\n        /* \"#utility.yul\":15510:15519   */\n      dup4\n        /* \"#utility.yul\":15506:15523   */\n      add\n        /* \"#utility.yul\":15497:15503   */\n      dup5\n        /* \"#utility.yul\":15453:15524   */\n      tag_457\n      jump\t// in\n    tag_676:\n        /* \"#utility.yul\":15309:15531   */\n      swap3\n      swap2\n      pop\n      pop\n      jump\t// out\n        /* \"#utility.yul\":15537:15850   */\n    tag_135:\n        /* \"#utility.yul\":15650:15654   */\n      0x00\n        /* \"#utility.yul\":15688:15690   */\n      0x20\n        /* \"#utility.yul\":15677:15686   */\n      dup3\n        /* \"#utility.yul\":15673:15691   */\n      add\n        /* \"#utility.yul\":15665:15691   */\n      swap1\n      pop\n        /* \"#utility.yul\":15737:15746   */\n      dup2\n        /* \"#utility.yul\":15731:15735   */\n      dup2\n        /* \"#utility.yul\":15727:15747   */\n      sub\n        /* \"#utility.yul\":15723:15724   */\n      0x00\n        /* \"#utility.yul\":15712:15721   */\n      dup4\n        /* \"#utility.yul\":15708:15725   */\n      add\n        /* \"#utility.yul\":15701:15748   */\n      mstore\n        /* \"#utility.yul\":15765:15843   */\n      tag_678\n        /* \"#utility.yul\":15838:15842   */\n      dup2\n        /* \"#utility.yul\":15829:15835   */\n      dup5\n        /* \"#utility.yul\":15765:15843   */\n      tag_460\n      jump\t// in\n    tag_678:\n        /* \"#utility.yul\":15757:15843   */\n      swap1\n      pop\n        /* \"#utility.yul\":15537:15850   */\n      swap3\n      swap2\n      pop\n      pop\n      jump\t// out\n        /* \"#utility.yul\":15856:16330   */\n    tag_144:\n        /* \"#utility.yul\":15924:15930   */\n      0x00\n        /* \"#utility.yul\":15932:15938   */\n      0x00\n        /* \"#utility.yul\":15981:15983   */\n      0x40\n        /* \"#utility.yul\":15969:15978   */\n      dup4\n        /* \"#utility.yul\":15960:15967   */\n      dup6\n        /* \"#utility.yul\":15956:15979   */\n      sub\n        /* \"#utility.yul\":15952:15984   */\n      slt\n        /* \"#utility.yul\":15949:16068   */\n      iszero\n      tag_680\n      jumpi\n        /* \"#utility.yul\":15987:16066   */\n      tag_681\n      tag_434\n      jump\t// in\n    tag_681:\n        /* \"#utility.yul\":15949:16068   */\n    tag_680:\n        /* \"#utility.yul\":16107:16108   */\n      0x00\n        /* \"#utility.yul\":16132:16185   */\n      tag_682\n        /* \"#utility.yul\":16177:16184   */\n      dup6\n        /* \"#utility.yul\":16168:16174   */\n      dup3\n        /* \"#utility.yul\":16157:16166   */\n      dup7\n        /* \"#utility.yul\":16153:16175   */\n      add\n        /* \"#utility.yul\":16132:16185   */\n      tag_438\n      jump\t// in\n    tag_682:\n        /* \"#utility.yul\":16122:16185   */\n      swap3\n      pop\n        /* \"#utility.yul\":16078:16195   */\n      pop\n        /* \"#utility.yul\":16234:16236   */\n      0x20\n        /* \"#utility.yul\":16260:16313   */\n      tag_683\n        /* \"#utility.yul\":16305:16312   */\n      dup6\n        /* \"#utility.yul\":16296:16302   */\n      dup3\n        /* \"#utility.yul\":16285:16294   */\n      dup7\n        /* \"#utility.yul\":16281:16303   */\n      add\n        /* \"#utility.yul\":16260:16313   */\n      tag_452\n      jump\t// in\n    tag_683:\n        /* \"#utility.yul\":16250:16313   */\n      swap2\n      pop\n        /* \"#utility.yul\":16205:16323   */\n      pop\n        /* \"#utility.yul\":15856:16330   */\n      swap3\n      pop\n      swap3\n      swap1\n      pop\n      jump\t// out\n        /* \"#utility.yul\":16336:16476   */\n    tag_472:\n        /* \"#utility.yul\":16429:16435   */\n      0x00\n        /* \"#utility.yul\":16463:16468   */\n      dup2\n        /* \"#utility.yul\":16457:16469   */\n      mload\n        /* \"#utility.yul\":16447:16469   */\n      swap1\n      pop\n        /* \"#utility.yul\":16336:16476   */\n      swap2\n      swap1\n      pop\n      jump\t// out\n        /* \"#utility.yul\":16482:16692   */\n    tag_473:\n        /* \"#utility.yul\":16607:16618   */\n      0x00\n        /* \"#utility.yul\":16641:16647   */\n      dup3\n        /* \"#utility.yul\":16636:16639   */\n      dup3\n        /* \"#utility.yul\":16629:16648   */\n      mstore\n        /* \"#utility.yul\":16681:16685   */\n      0x20\n        /* \"#utility.yul\":16676:16679   */\n      dup3\n        /* \"#utility.yul\":16672:16686   */\n      add\n        /* \"#utility.yul\":16657:16686   */\n      swap1\n      pop\n        /* \"#utility.yul\":16482:16692   */\n      swap3\n      swap2\n      pop\n      pop\n      jump\t// out\n        /* \"#utility.yul\":16698:16856   */\n    tag_474:\n        /* \"#utility.yul\":16791:16795   */\n      0x00\n        /* \"#utility.yul\":16814:16817   */\n      dup2\n        /* \"#utility.yul\":16806:16817   */\n      swap1\n      pop\n        /* \"#utility.yul\":16844:16848   */\n      0x20\n        /* \"#utility.yul\":16839:16842   */\n      dup3\n        /* \"#utility.yul\":16835:16849   */\n      add\n        /* \"#utility.yul\":16827:16849   */\n      swap1\n      pop\n        /* \"#utility.yul\":16698:16856   */\n      swap2\n      swap1\n      pop\n      jump\t// out\n        /* \"#utility.yul\":16922:18041   */\n    tag_475:\n        /* \"#utility.yul\":17033:17036   */\n      0x00\n        /* \"#utility.yul\":17069:17073   */\n      0xa0\n        /* \"#utility.yul\":17064:17067   */\n      dup4\n        /* \"#utility.yul\":17060:17074   */\n      add\n        /* \"#utility.yul\":17154:17158   */\n      0x00\n        /* \"#utility.yul\":17147:17152   */\n      dup4\n        /* \"#utility.yul\":17143:17159   */\n      add\n        /* \"#utility.yul\":17137:17160   */\n      mload\n        /* \"#utility.yul\":17173:17236   */\n      tag_688\n        /* \"#utility.yul\":17230:17234   */\n      0x00\n        /* \"#utility.yul\":17225:17228   */\n      dup7\n        /* \"#utility.yul\":17221:17235   */\n      add\n        /* \"#utility.yul\":17207:17219   */\n      dup3\n        /* \"#utility.yul\":17173:17236   */\n      tag_462\n      jump\t// in\n    tag_688:\n        /* \"#utility.yul\":17084:17246   */\n      pop\n        /* \"#utility.yul\":17332:17336   */\n      0x20\n        /* \"#utility.yul\":17325:17330   */\n      dup4\n        /* \"#utility.yul\":17321:17337   */\n      add\n        /* \"#utility.yul\":17315:17338   */\n      mload\n        /* \"#utility.yul\":17385:17388   */\n      dup5\n        /* \"#utility.yul\":17379:17383   */\n      dup3\n        /* \"#utility.yul\":17375:17389   */\n      sub\n        /* \"#utility.yul\":17368:17372   */\n      0x20\n        /* \"#utility.yul\":17363:17366   */\n      dup7\n        /* \"#utility.yul\":17359:17373   */\n      add\n        /* \"#utility.yul\":17352:17390   */\n      mstore\n        /* \"#utility.yul\":17411:17484   */\n      tag_689\n        /* \"#utility.yul\":17479:17483   */\n      dup3\n        /* \"#utility.yul\":17465:17477   */\n      dup3\n        /* \"#utility.yul\":17411:17484   */\n      tag_464\n      jump\t// in\n    tag_689:\n        /* \"#utility.yul\":17403:17484   */\n      swap2\n      pop\n        /* \"#utility.yul\":17256:17495   */\n      pop\n        /* \"#utility.yul\":17580:17584   */\n      0x40\n        /* \"#utility.yul\":17573:17578   */\n      dup4\n        /* \"#utility.yul\":17569:17585   */\n      add\n        /* \"#utility.yul\":17563:17586   */\n      mload\n        /* \"#utility.yul\":17599:17662   */\n      tag_690\n        /* \"#utility.yul\":17656:17660   */\n      0x40\n        /* \"#utility.yul\":17651:17654   */\n      dup7\n        /* \"#utility.yul\":17647:17661   */\n      add\n        /* \"#utility.yul\":17633:17645   */\n      dup3\n        /* \"#utility.yul\":17599:17662   */\n      tag_465\n      jump\t// in\n    tag_690:\n        /* \"#utility.yul\":17505:17672   */\n      pop\n        /* \"#utility.yul\":17752:17756   */\n      0x60\n        /* \"#utility.yul\":17745:17750   */\n      dup4\n        /* \"#utility.yul\":17741:17757   */\n      add\n        /* \"#utility.yul\":17735:17758   */\n      mload\n        /* \"#utility.yul\":17771:17834   */\n      tag_691\n        /* \"#utility.yul\":17828:17832   */\n      0x60\n        /* \"#utility.yul\":17823:17826   */\n      dup7\n        /* \"#utility.yul\":17819:17833   */\n      add\n        /* \"#utility.yul\":17805:17817   */\n      dup3\n        /* \"#utility.yul\":17771:17834   */\n      tag_466\n      jump\t// in\n    tag_691:\n        /* \"#utility.yul\":17682:17844   */\n      pop\n        /* \"#utility.yul\":17928:17932   */\n      0x80\n        /* \"#utility.yul\":17921:17926   */\n      dup4\n        /* \"#utility.yul\":17917:17933   */\n      add\n        /* \"#utility.yul\":17911:17934   */\n      mload\n        /* \"#utility.yul\":17947:18004   */\n      tag_692\n        /* \"#utility.yul\":17998:18002   */\n      0x80\n        /* \"#utility.yul\":17993:17996   */\n      dup7\n        /* \"#utility.yul\":17989:18003   */\n      add\n        /* \"#utility.yul\":17975:17987   */\n      dup3\n        /* \"#utility.yul\":17947:18004   */\n      tag_467\n      jump\t// in\n    tag_692:\n        /* \"#utility.yul\":17854:18014   */\n      pop\n        /* \"#utility.yul\":18031:18035   */\n      dup1\n        /* \"#utility.yul\":18024:18035   */\n      swap2\n      pop\n        /* \"#utility.yul\":17038:18041   */\n      pop\n        /* \"#utility.yul\":16922:18041   */\n      swap3\n      swap2\n      pop\n      pop\n      jump\t// out\n        /* \"#utility.yul\":18047:18307   */\n    tag_476:\n        /* \"#utility.yul\":18168:18178   */\n      0x00\n        /* \"#utility.yul\":18203:18301   */\n      tag_694\n        /* \"#utility.yul\":18297:18300   */\n      dup4\n        /* \"#utility.yul\":18289:18295   */\n      dup4\n        /* \"#utility.yul\":18203:18301   */\n      tag_475\n      jump\t// in\n    tag_694:\n        /* \"#utility.yul\":18189:18301   */\n      swap1\n      pop\n        /* \"#utility.yul\":18047:18307   */\n      swap3\n      swap2\n      pop\n      pop\n      jump\t// out\n        /* \"#utility.yul\":18313:18452   */\n    tag_477:\n        /* \"#utility.yul\":18409:18413   */\n      0x00\n        /* \"#utility.yul\":18441:18445   */\n      0x20\n        /* \"#utility.yul\":18436:18439   */\n      dup3\n        /* \"#utility.yul\":18432:18446   */\n      add\n        /* \"#utility.yul\":18424:18446   */\n      swap1\n      pop\n        /* \"#utility.yul\":18313:18452   */\n      swap2\n      swap1\n      pop\n      jump\t// out\n        /* \"#utility.yul\":18522:19641   */\n    tag_478:\n        /* \"#utility.yul\":18693:18696   */\n      0x00\n        /* \"#utility.yul\":18722:18802   */\n      tag_697\n        /* \"#utility.yul\":18796:18801   */\n      dup3\n        /* \"#utility.yul\":18722:18802   */\n      tag_472\n      jump\t// in\n    tag_697:\n        /* \"#utility.yul\":18818:18930   */\n      tag_698\n        /* \"#utility.yul\":18923:18929   */\n      dup2\n        /* \"#utility.yul\":18918:18921   */\n      dup6\n        /* \"#utility.yul\":18818:18930   */\n      tag_473\n      jump\t// in\n    tag_698:\n        /* \"#utility.yul\":18811:18930   */\n      swap4\n      pop\n        /* \"#utility.yul\":18956:18959   */\n      dup4\n        /* \"#utility.yul\":19001:19005   */\n      0x20\n        /* \"#utility.yul\":18993:18999   */\n      dup3\n        /* \"#utility.yul\":18989:19006   */\n      mul\n        /* \"#utility.yul\":18984:18987   */\n      dup6\n        /* \"#utility.yul\":18980:19007   */\n      add\n        /* \"#utility.yul\":19031:19113   */\n      tag_699\n        /* \"#utility.yul\":19107:19112   */\n      dup6\n        /* \"#utility.yul\":19031:19113   */\n      tag_474\n      jump\t// in\n    tag_699:\n        /* \"#utility.yul\":19136:19143   */\n      dup1\n        /* \"#utility.yul\":19167:19168   */\n      0x00\n        /* \"#utility.yul\":19152:19596   */\n    tag_700:\n        /* \"#utility.yul\":19177:19183   */\n      dup6\n        /* \"#utility.yul\":19174:19175   */\n      dup2\n        /* \"#utility.yul\":19171:19184   */\n      lt\n        /* \"#utility.yul\":19152:19596   */\n      iszero\n      tag_702\n      jumpi\n        /* \"#utility.yul\":19248:19257   */\n      dup5\n        /* \"#utility.yul\":19242:19246   */\n      dup5\n        /* \"#utility.yul\":19238:19258   */\n      sub\n        /* \"#utility.yul\":19233:19236   */\n      dup10\n        /* \"#utility.yul\":19226:19259   */\n      mstore\n        /* \"#utility.yul\":19299:19305   */\n      dup2\n        /* \"#utility.yul\":19293:19306   */\n      mload\n        /* \"#utility.yul\":19327:19443   */\n      tag_703\n        /* \"#utility.yul\":19438:19442   */\n      dup6\n        /* \"#utility.yul\":19423:19436   */\n      dup3\n        /* \"#utility.yul\":19327:19443   */\n      tag_476\n      jump\t// in\n    tag_703:\n        /* \"#utility.yul\":19319:19443   */\n      swap5\n      pop\n        /* \"#utility.yul\":19466:19552   */\n      tag_704\n        /* \"#utility.yul\":19545:19551   */\n      dup4\n        /* \"#utility.yul\":19466:19552   */\n      tag_477\n      jump\t// in\n    tag_704:\n        /* \"#utility.yul\":19456:19552   */\n      swap3\n      pop\n        /* \"#utility.yul\":19581:19585   */\n      0x20\n        /* \"#utility.yul\":19576:19579   */\n      dup11\n        /* \"#utility.yul\":19572:19586   */\n      add\n        /* \"#utility.yul\":19565:19586   */\n      swap10\n      pop\n        /* \"#utility.yul\":19212:19596   */\n      pop\n        /* \"#utility.yul\":19199:19200   */\n      0x01\n        /* \"#utility.yul\":19196:19197   */\n      dup2\n        /* \"#utility.yul\":19192:19201   */\n      add\n        /* \"#utility.yul\":19187:19201   */\n      swap1\n      pop\n        /* \"#utility.yul\":19152:19596   */\n      jump(tag_700)\n    tag_702:\n        /* \"#utility.yul\":19156:19170   */\n      pop\n        /* \"#utility.yul\":19612:19616   */\n      dup3\n        /* \"#utility.yul\":19605:19616   */\n      swap8\n      pop\n        /* \"#utility.yul\":19632:19635   */\n      dup8\n        /* \"#utility.yul\":19625:19635   */\n      swap6\n      pop\n        /* \"#utility.yul\":18698:19641   */\n      pop\n      pop\n      pop\n      pop\n      pop\n        /* \"#utility.yul\":18522:19641   */\n      swap3\n      swap2\n      pop\n      pop\n      jump\t// out\n        /* \"#utility.yul\":19647:20234   */\n    tag_151:\n        /* \"#utility.yul\":19870:19874   */\n      0x00\n        /* \"#utility.yul\":19908:19910   */\n      0x40\n        /* \"#utility.yul\":19897:19906   */\n      dup3\n        /* \"#utility.yul\":19893:19911   */\n      add\n        /* \"#utility.yul\":19885:19911   */\n      swap1\n      pop\n        /* \"#utility.yul\":19957:19966   */\n      dup2\n        /* \"#utility.yul\":19951:19955   */\n      dup2\n        /* \"#utility.yul\":19947:19967   */\n      sub\n        /* \"#utility.yul\":19943:19944   */\n      0x00\n        /* \"#utility.yul\":19932:19941   */\n      dup4\n        /* \"#utility.yul\":19928:19945   */\n      add\n        /* \"#utility.yul\":19921:19968   */\n      mstore\n        /* \"#utility.yul\":19985:20145   */\n      tag_706\n        /* \"#utility.yul\":20140:20144   */\n      dup2\n        /* \"#utility.yul\":20131:20137   */\n      dup6\n        /* \"#utility.yul\":19985:20145   */\n      tag_478\n      jump\t// in\n    tag_706:\n        /* \"#utility.yul\":19977:20145   */\n      swap1\n      pop\n        /* \"#utility.yul\":20155:20227   */\n      tag_707\n        /* \"#utility.yul\":20223:20225   */\n      0x20\n        /* \"#utility.yul\":20212:20221   */\n      dup4\n        /* \"#utility.yul\":20208:20226   */\n      add\n        /* \"#utility.yul\":20199:20205   */\n      dup5\n        /* \"#utility.yul\":20155:20227   */\n      tag_432\n      jump\t// in\n    tag_707:\n        /* \"#utility.yul\":19647:20234   */\n      swap4\n      swap3\n      pop\n      pop\n      pop\n      jump\t// out\n        /* \"#utility.yul\":20240:20682   */\n    tag_162:\n        /* \"#utility.yul\":20389:20393   */\n      0x00\n        /* \"#utility.yul\":20427:20429   */\n      0x60\n        /* \"#utility.yul\":20416:20425   */\n      dup3\n        /* \"#utility.yul\":20412:20430   */\n      add\n        /* \"#utility.yul\":20404:20430   */\n      swap1\n      pop\n        /* \"#utility.yul\":20440:20511   */\n      tag_709\n        /* \"#utility.yul\":20508:20509   */\n      0x00\n        /* \"#utility.yul\":20497:20506   */\n      dup4\n        /* \"#utility.yul\":20493:20510   */\n      add\n        /* \"#utility.yul\":20484:20490   */\n      dup7\n        /* \"#utility.yul\":20440:20511   */\n      tag_457\n      jump\t// in\n    tag_709:\n        /* \"#utility.yul\":20521:20593   */\n      tag_710\n        /* \"#utility.yul\":20589:20591   */\n      0x20\n        /* \"#utility.yul\":20578:20587   */\n      dup4\n        /* \"#utility.yul\":20574:20592   */\n      add\n        /* \"#utility.yul\":20565:20571   */\n      dup6\n        /* \"#utility.yul\":20521:20593   */\n      tag_461\n      jump\t// in\n    tag_710:\n        /* \"#utility.yul\":20603:20675   */\n      tag_711\n        /* \"#utility.yul\":20671:20673   */\n      0x40\n        /* \"#utility.yul\":20660:20669   */\n      dup4\n        /* \"#utility.yul\":20656:20674   */\n      add\n        /* \"#utility.yul\":20647:20653   */\n      dup5\n        /* \"#utility.yul\":20603:20675   */\n      tag_432\n      jump\t// in\n    tag_711:\n        /* \"#utility.yul\":20240:20682   */\n      swap5\n      swap4\n      pop\n      pop\n      pop\n      pop\n      jump\t// out\n        /* \"#utility.yul\":20688:21017   */\n    tag_171:\n        /* \"#utility.yul\":20747:20753   */\n      0x00\n        /* \"#utility.yul\":20796:20798   */\n      0x20\n        /* \"#utility.yul\":20784:20793   */\n      dup3\n        /* \"#utility.yul\":20775:20782   */\n      dup5\n        /* \"#utility.yul\":20771:20794   */\n      sub\n        /* \"#utility.yul\":20767:20799   */\n      slt\n        /* \"#utility.yul\":20764:20883   */\n      iszero\n      tag_713\n      jumpi\n        /* \"#utility.yul\":20802:20881   */\n      tag_714\n      tag_434\n      jump\t// in\n    tag_714:\n        /* \"#utility.yul\":20764:20883   */\n    tag_713:\n        /* \"#utility.yul\":20922:20923   */\n      0x00\n        /* \"#utility.yul\":20947:21000   */\n      tag_715\n        /* \"#utility.yul\":20992:20999   */\n      dup5\n        /* \"#utility.yul\":20983:20989   */\n      dup3\n        /* \"#utility.yul\":20972:20981   */\n      dup6\n        /* \"#utility.yul\":20968:20990   */\n      add\n        /* \"#utility.yul\":20947:21000   */\n      tag_452\n      jump\t// in\n    tag_715:\n        /* \"#utility.yul\":20937:21000   */\n      swap2\n      pop\n        /* \"#utility.yul\":20893:21010   */\n      pop\n        /* \"#utility.yul\":20688:21017   */\n      swap3\n      swap2\n      pop\n      pop\n      jump\t// out\n        /* \"#utility.yul\":21023:21203   */\n    tag_181:\n        /* \"#utility.yul\":21071:21148   */\n      0x4e487b7100000000000000000000000000000000000000000000000000000000\n        /* \"#utility.yul\":21068:21069   */\n      0x00\n        /* \"#utility.yul\":21061:21149   */\n      mstore\n        /* \"#utility.yul\":21168:21172   */\n      0x32\n        /* \"#utility.yul\":21165:21166   */\n      0x04\n        /* \"#utility.yul\":21158:21173   */\n      mstore\n        /* \"#utility.yul\":21192:21196   */\n      0x24\n        /* \"#utility.yul\":21189:21190   */\n      0x00\n        /* \"#utility.yul\":21182:21197   */\n      revert\n        /* \"#utility.yul\":21209:21389   */\n    tag_479:\n        /* \"#utility.yul\":21257:21334   */\n      0x4e487b7100000000000000000000000000000000000000000000000000000000\n        /* \"#utility.yul\":21254:21255   */\n      0x00\n        /* \"#utility.yul\":21247:21335   */\n      mstore\n        /* \"#utility.yul\":21354:21358   */\n      0x22\n        /* \"#utility.yul\":21351:21352   */\n      0x04\n        /* \"#utility.yul\":21344:21359   */\n      mstore\n        /* \"#utility.yul\":21378:21382   */\n      0x24\n        /* \"#utility.yul\":21375:21376   */\n      0x00\n        /* \"#utility.yul\":21368:21383   */\n      revert\n        /* \"#utility.yul\":21395:21715   */\n    tag_204:\n        /* \"#utility.yul\":21439:21445   */\n      0x00\n        /* \"#utility.yul\":21476:21477   */\n      0x02\n        /* \"#utility.yul\":21470:21474   */\n      dup3\n        /* \"#utility.yul\":21466:21478   */\n      div\n        /* \"#utility.yul\":21456:21478   */\n      swap1\n      pop\n        /* \"#utility.yul\":21523:21524   */\n      0x01\n        /* \"#utility.yul\":21517:21521   */\n      dup3\n        /* \"#utility.yul\":21513:21525   */\n      and\n        /* \"#utility.yul\":21544:21562   */\n      dup1\n        /* \"#utility.yul\":21534:21615   */\n      tag_719\n      jumpi\n        /* \"#utility.yul\":21600:21604   */\n      0x7f\n        /* \"#utility.yul\":21592:21598   */\n      dup3\n        /* \"#utility.yul\":21588:21605   */\n      and\n        /* \"#utility.yul\":21578:21605   */\n      swap2\n      pop\n        /* \"#utility.yul\":21534:21615   */\n    tag_719:\n        /* \"#utility.yul\":21662:21664   */\n      0x20\n        /* \"#utility.yul\":21654:21660   */\n      dup3\n        /* \"#utility.yul\":21651:21665   */\n      lt\n        /* \"#utility.yul\":21631:21649   */\n      dup2\n        /* \"#utility.yul\":21628:21666   */\n      sub\n        /* \"#utility.yul\":21625:21709   */\n      tag_720\n      jumpi\n        /* \"#utility.yul\":21681:21699   */\n      tag_721\n      tag_479\n      jump\t// in\n    tag_721:\n        /* \"#utility.yul\":21625:21709   */\n    tag_720:\n        /* \"#utility.yul\":21446:21715   */\n      pop\n        /* \"#utility.yul\":21395:21715   */\n      swap2\n      swap1\n      pop\n      jump\t// out\n        /* \"#utility.yul\":21721:21862   */\n    tag_480:\n        /* \"#utility.yul\":21770:21774   */\n      0x00\n        /* \"#utility.yul\":21793:21796   */\n      dup2\n        /* \"#utility.yul\":21785:21796   */\n      swap1\n      pop\n        /* \"#utility.yul\":21816:21819   */\n      dup2\n        /* \"#utility.yul\":21813:21814   */\n      0x00\n        /* \"#utility.yul\":21806:21820   */\n      mstore\n        /* \"#utility.yul\":21850:21854   */\n      0x20\n        /* \"#utility.yul\":21847:21848   */\n      0x00\n        /* \"#utility.yul\":21837:21855   */\n      keccak256\n        /* \"#utility.yul\":21829:21855   */\n      swap1\n      pop\n        /* \"#utility.yul\":21721:21862   */\n      swap2\n      swap1\n      pop\n      jump\t// out\n        /* \"#utility.yul\":21868:21961   */\n    tag_481:\n        /* \"#utility.yul\":21905:21911   */\n      0x00\n        /* \"#utility.yul\":21952:21954   */\n      0x20\n        /* \"#utility.yul\":21947:21949   */\n      0x1f\n        /* \"#utility.yul\":21940:21945   */\n      dup4\n        /* \"#utility.yul\":21936:21950   */\n      add\n        /* \"#utility.yul\":21932:21955   */\n      div\n        /* \"#utility.yul\":21922:21955   */\n      swap1\n      pop\n        /* \"#utility.yul\":21868:21961   */\n      swap2\n      swap1\n      pop\n      jump\t// out\n        /* \"#utility.yul\":21967:22074   */\n    tag_482:\n        /* \"#utility.yul\":22011:22019   */\n      0x00\n        /* \"#utility.yul\":22061:22066   */\n      dup3\n        /* \"#utility.yul\":22055:22059   */\n      dup3\n        /* \"#utility.yul\":22051:22067   */\n      shl\n        /* \"#utility.yul\":22030:22067   */\n      swap1\n      pop\n        /* \"#utility.yul\":21967:22074   */\n      swap3\n      swap2\n      pop\n      pop\n      jump\t// out\n        /* \"#utility.yul\":22080:22473   */\n    tag_483:\n        /* \"#utility.yul\":22149:22155   */\n      0x00\n        /* \"#utility.yul\":22199:22200   */\n      0x08\n        /* \"#utility.yul\":22187:22197   */\n      dup4\n        /* \"#utility.yul\":22183:22201   */\n      mul\n        /* \"#utility.yul\":22222:22319   */\n      tag_726\n        /* \"#utility.yul\":22252:22318   */\n      0xffffffffffffffffffffffffffffffffffffffffffffffffffffffffffffffff\n        /* \"#utility.yul\":22241:22250   */\n      dup3\n        /* \"#utility.yul\":22222:22319   */\n      tag_482\n      jump\t// in\n    tag_726:\n        /* \"#utility.yul\":22340:22379   */\n      tag_727\n        /* \"#utility.yul\":22370:22378   */\n      dup7\n        /* \"#utility.yul\":22359:22368   */\n      dup4\n        /* \"#utility.yul\":22340:22379   */\n      tag_482\n      jump\t// in\n    tag_727:\n        /* \"#utility.yul\":22328:22379   */\n      swap6\n      pop\n        /* \"#utility.yul\":22412:22416   */\n      dup1\n        /* \"#utility.yul\":22408:22417   */\n      not\n        /* \"#utility.yul\":22401:22406   */\n      dup5\n        /* \"#utility.yul\":22397:22418   */\n      and\n        /* \"#utility.yul\":22388:22418   */\n      swap4\n      pop\n        /* \"#utility.yul\":22461:22465   */\n      dup1\n        /* \"#utility.yul\":22451:22459   */\n      dup7\n        /* \"#utility.yul\":22447:22466   */\n      and\n        /* \"#utility.yul\":22440:22445   */\n      dup5\n        /* \"#utility.yul\":22437:22467   */\n      or\n        /* \"#utility.yul\":22427:22467   */\n      swap3\n      pop\n        /* \"#utility.yul\":22156:22473   */\n      pop\n      pop\n        /* \"#utility.yul\":22080:22473   */\n      swap4\n      swap3\n      pop\n      pop\n      pop\n      jump\t// out\n        /* \"#utility.yul\":22479:22539   */\n    tag_484:\n        /* \"#utility.yul\":22507:22510   */\n      0x00\n        /* \"#utility.yul\":22528:22533   */\n      dup2\n        /* \"#utility.yul\":22521:22533   */\n      swap1\n      pop\n        /* \"#utility.yul\":22479:22539   */\n      swap2\n      swap1\n      pop\n      jump\t// out\n        /* \"#utility.yul\":22545:22687   */\n    tag_485:\n        /* \"#utility.yul\":22595:22604   */\n      0x00\n        /* \"#utility.yul\":22628:22681   */\n      tag_730\n        /* \"#utility.yul\":22646:22680   */\n      tag_731\n        /* \"#utility.yul\":22655:22679   */\n      tag_732\n        /* \"#utility.yul\":22673:22678   */\n      dup5\n        /* \"#utility.yul\":22655:22679   */\n      tag_431\n      jump\t// in\n    tag_732:\n        /* \"#utility.yul\":22646:22680   */\n      tag_484\n      jump\t// in\n    tag_731:\n        /* \"#utility.yul\":22628:22681   */\n      tag_431\n      jump\t// in\n    tag_730:\n        /* \"#utility.yul\":22615:22681   */\n      swap1\n      pop\n        /* \"#utility.yul\":22545:22687   */\n      swap2\n      swap1\n      pop\n      jump\t// out\n        /* \"#utility.yul\":22693:22768   */\n    tag_486:\n        /* \"#utility.yul\":22736:22739   */\n      0x00\n        /* \"#utility.yul\":22757:22762   */\n      dup2\n        /* \"#utility.yul\":22750:22762   */\n      swap1\n      pop\n        /* \"#utility.yul\":22693:22768   */\n      swap2\n      swap1\n      pop\n      jump\t// out\n        /* \"#utility.yul\":22774:23043   */\n    tag_487:\n        /* \"#utility.yul\":22884:22923   */\n      tag_735\n        /* \"#utility.yul\":22915:22922   */\n      dup4\n        /* \"#utility.yul\":22884:22923   */\n      tag_485\n      jump\t// in\n    tag_735:\n        /* \"#utility.yul\":22945:23036   */\n      tag_736\n        /* \"#utility.yul\":22994:23035   */\n      tag_737\n        /* \"#utility.yul\":23018:23034   */\n      dup3\n        /* \"#utility.yul\":22994:23035   */\n      tag_486\n      jump\t// in\n    tag_737:\n        /* \"#utility.yul\":22986:22992   */\n      dup5\n        /* \"#utility.yul\":22979:22983   */\n      dup5\n        /* \"#utility.yul\":22973:22984   */\n      sload\n        /* \"#utility.yul\":22945:23036   */\n      tag_483\n      jump\t// in\n    tag_736:\n        /* \"#utility.yul\":22939:22943   */\n      dup3\n        /* \"#utility.yul\":22932:23037   */\n      sstore\n        /* \"#utility.yul\":22850:23043   */\n      pop\n        /* \"#utility.yul\":22774:23043   */\n      pop\n      pop\n      pop\n      jump\t// out\n        /* \"#utility.yul\":23049:23122   */\n    tag_488:\n        /* \"#utility.yul\":23094:23097   */\n      0x00\n        /* \"#utility.yul\":23115:23116   */\n      0x00\n        /* \"#utility.yul\":23108:23116   */\n      swap1\n      pop\n        /* \"#utility.yul\":23049:23122   */\n      swap1\n      jump\t// out\n        /* \"#utility.yul\":23128:23317   */\n    tag_489:\n        /* \"#utility.yul\":23205:23237   */\n      tag_740\n      tag_488\n      jump\t// in\n    tag_740:\n        /* \"#utility.yul\":23246:23311   */\n      tag_741\n        /* \"#utility.yul\":23304:23310   */\n      dup2\n        /* \"#utility.yul\":23296:23302   */\n      dup5\n        /* \"#utility.yul\":23290:23294   */\n      dup5\n        /* \"#utility.yul\":23246:23311   */\n      tag_487\n      jump\t// in\n    tag_741:\n        /* \"#utility.yul\":23181:23317   */\n      pop\n        /* \"#utility.yul\":23128:23317   */\n      pop\n      pop\n      jump\t// out\n        /* \"#utility.yul\":23323:23509   */\n    tag_490:\n        /* \"#utility.yul\":23383:23503   */\n    tag_743:\n        /* \"#utility.yul\":23400:23403   */\n      dup2\n        /* \"#utility.yul\":23393:23398   */\n      dup2\n        /* \"#utility.yul\":23390:23404   */\n      lt\n        /* \"#utility.yul\":23383:23503   */\n      iszero\n      tag_745\n      jumpi\n        /* \"#utility.yul\":23454:23493   */\n      tag_746\n        /* \"#utility.yul\":23491:23492   */\n      0x00\n        /* \"#utility.yul\":23484:23489   */\n      dup3\n        /* \"#utility.yul\":23454:23493   */\n      tag_489\n      jump\t// in\n    tag_746:\n        /* \"#utility.yul\":23427:23428   */\n      0x01\n        /* \"#utility.yul\":23420:23425   */\n      dup2\n        /* \"#utility.yul\":23416:23429   */\n      add\n        /* \"#utility.yul\":23407:23429   */\n      swap1\n      pop\n        /* \"#utility.yul\":23383:23503   */\n      jump(tag_743)\n    tag_745:\n        /* \"#utility.yul\":23323:23509   */\n      pop\n      pop\n      jump\t// out\n        /* \"#utility.yul\":23515:24058   */\n    tag_491:\n        /* \"#utility.yul\":23616:23618   */\n      0x1f\n        /* \"#utility.yul\":23611:23614   */\n      dup3\n        /* \"#utility.yul\":23608:23619   */\n      gt\n        /* \"#utility.yul\":23605:24051   */\n      iszero\n      tag_748\n      jumpi\n        /* \"#utility.yul\":23650:23688   */\n      tag_749\n        /* \"#utility.yul\":23682:23687   */\n      dup2\n        /* \"#utility.yul\":23650:23688   */\n      tag_480\n      jump\t// in\n    tag_749:\n        /* \"#utility.yul\":23734:23763   */\n      tag_750\n        /* \"#utility.yul\":23752:23762   */\n      dup5\n        /* \"#utility.yul\":23734:23763   */\n      tag_481\n      jump\t// in\n    tag_750:\n        /* \"#utility.yul\":23724:23732   */\n      dup2\n        /* \"#utility.yul\":23720:23764   */\n      add\n        /* \"#utility.yul\":23917:23919   */\n      0x20\n        /* \"#utility.yul\":23905:23915   */\n      dup6\n        /* \"#utility.yul\":23902:23920   */\n      lt\n        /* \"#utility.yul\":23899:23948   */\n      iszero\n      tag_751\n      jumpi\n        /* \"#utility.yul\":23938:23946   */\n      dup2\n        /* \"#utility.yul\":23923:23946   */\n      swap1\n      pop\n        /* \"#utility.yul\":23899:23948   */\n    tag_751:\n        /* \"#utility.yul\":23961:24041   */\n      tag_752\n        /* \"#utility.yul\":24017:24039   */\n      tag_753\n        /* \"#utility.yul\":24035:24038   */\n      dup6\n        /* \"#utility.yul\":24017:24039   */\n      tag_481\n      jump\t// in\n    tag_753:\n        /* \"#utility.yul\":24007:24015   */\n      dup4\n        /* \"#utility.yul\":24003:24040   */\n      add\n        /* \"#utility.yul\":23990:24001   */\n      dup3\n        /* \"#utility.yul\":23961:24041   */\n      tag_490\n      jump\t// in\n    tag_752:\n        /* \"#utility.yul\":23620:24051   */\n      pop\n      pop\n        /* \"#utility.yul\":23605:24051   */\n    tag_748:\n        /* \"#utility.yul\":23515:24058   */\n      pop\n      pop\n      pop\n      jump\t// out\n        /* \"#utility.yul\":24064:24181   */\n    tag_492:\n        /* \"#utility.yul\":24118:24126   */\n      0x00\n        /* \"#utility.yul\":24168:24173   */\n      dup3\n        /* \"#utility.yul\":24162:24166   */\n      dup3\n        /* \"#utility.yul\":24158:24174   */\n      shr\n        /* \"#utility.yul\":24137:24174   */\n      swap1\n      pop\n        /* \"#utility.yul\":24064:24181   */\n      swap3\n      swap2\n      pop\n      pop\n      jump\t// out\n        /* \"#utility.yul\":24187:24356   */\n    tag_493:\n        /* \"#utility.yul\":24231:24237   */\n      0x00\n        /* \"#utility.yul\":24264:24315   */\n      tag_756\n        /* \"#utility.yul\":24312:24313   */\n      0x00\n        /* \"#utility.yul\":24308:24314   */\n      not\n        /* \"#utility.yul\":24300:24305   */\n      dup5\n        /* \"#utility.yul\":24297:24298   */\n      0x08\n        /* \"#utility.yul\":24293:24306   */\n      mul\n        /* \"#utility.yul\":24264:24315   */\n      tag_492\n      jump\t// in\n    tag_756:\n        /* \"#utility.yul\":24260:24316   */\n      not\n        /* \"#utility.yul\":24345:24349   */\n      dup1\n        /* \"#utility.yul\":24339:24343   */\n      dup4\n        /* \"#utility.yul\":24335:24350   */\n      and\n        /* \"#utility.yul\":24325:24350   */\n      swap2\n      pop\n        /* \"#utility.yul\":24238:24356   */\n      pop\n        /* \"#utility.yul\":24187:24356   */\n      swap3\n      swap2\n      pop\n      pop\n      jump\t// out\n        /* \"#utility.yul\":24361:24656   */\n    tag_494:\n        /* \"#utility.yul\":24437:24441   */\n      0x00\n        /* \"#utility.yul\":24583:24612   */\n      tag_758\n        /* \"#utility.yul\":24608:24611   */\n      dup4\n        /* \"#utility.yul\":24602:24606   */\n      dup4\n        /* \"#utility.yul\":24583:24612   */\n      tag_493\n      jump\t// in\n    tag_758:\n        /* \"#utility.yul\":24575:24612   */\n      swap2\n      pop\n        /* \"#utility.yul\":24645:24648   */\n      dup3\n        /* \"#utility.yul\":24642:24643   */\n      0x02\n        /* \"#utility.yul\":24638:24649   */\n      mul\n        /* \"#utility.yul\":24632:24636   */\n      dup3\n        /* \"#utility.yul\":24629:24650   */\n      or\n        /* \"#utility.yul\":24621:24650   */\n      swap1\n      pop\n        /* \"#utility.yul\":24361:24656   */\n      swap3\n      swap2\n      pop\n      pop\n      jump\t// out\n        /* \"#utility.yul\":24661:26056   */\n    tag_184:\n        /* \"#utility.yul\":24778:24815   */\n      tag_760\n        /* \"#utility.yul\":24811:24814   */\n      dup3\n        /* \"#utility.yul\":24778:24815   */\n      tag_458\n      jump\t// in\n    tag_760:\n        /* \"#utility.yul\":24880:24898   */\n      0xffffffffffffffff\n        /* \"#utility.yul\":24872:24878   */\n      dup2\n        /* \"#utility.yul\":24869:24899   */\n      gt\n        /* \"#utility.yul\":24866:24922   */\n      iszero\n      tag_761\n      jumpi\n        /* \"#utility.yul\":24902:24920   */\n      tag_762\n      tag_442\n      jump\t// in\n    tag_762:\n        /* \"#utility.yul\":24866:24922   */\n    tag_761:\n        /* \"#utility.yul\":24946:24984   */\n      tag_763\n        /* \"#utility.yul\":24978:24982   */\n      dup3\n        /* \"#utility.yul\":24972:24983   */\n      sload\n        /* \"#utility.yul\":24946:24984   */\n      tag_204\n      jump\t// in\n    tag_763:\n        /* \"#utility.yul\":25031:25098   */\n      tag_764\n        /* \"#utility.yul\":25091:25097   */\n      dup3\n        /* \"#utility.yul\":25083:25089   */\n      dup3\n        /* \"#utility.yul\":25077:25081   */\n      dup6\n        /* \"#utility.yul\":25031:25098   */\n      tag_491\n      jump\t// in\n    tag_764:\n        /* \"#utility.yul\":25125:25126   */\n      0x00\n        /* \"#utility.yul\":25149:25153   */\n      0x20\n        /* \"#utility.yul\":25136:25153   */\n      swap1\n      pop\n        /* \"#utility.yul\":25181:25183   */\n      0x1f\n        /* \"#utility.yul\":25173:25179   */\n      dup4\n        /* \"#utility.yul\":25170:25184   */\n      gt\n        /* \"#utility.yul\":25198:25199   */\n      0x01\n        /* \"#utility.yul\":25193:25811   */\n      dup2\n      eq\n      tag_766\n      jumpi\n        /* \"#utility.yul\":25855:25856   */\n      0x00\n        /* \"#utility.yul\":25872:25878   */\n      dup5\n        /* \"#utility.yul\":25869:25946   */\n      iszero\n      tag_767\n      jumpi\n        /* \"#utility.yul\":25921:25930   */\n      dup3\n        /* \"#utility.yul\":25916:25919   */\n      dup8\n        /* \"#utility.yul\":25912:25931   */\n      add\n        /* \"#utility.yul\":25906:25932   */\n      mload\n        /* \"#utility.yul\":25897:25932   */\n      swap1\n      pop\n        /* \"#utility.yul\":25869:25946   */\n    tag_767:\n        /* \"#utility.yul\":25972:26039   */\n      tag_768\n        /* \"#utility.yul\":26032:26038   */\n      dup6\n        /* \"#utility.yul\":26025:26030   */\n      dup3\n        /* \"#utility.yul\":25972:26039   */\n      tag_494\n      jump\t// in\n    tag_768:\n        /* \"#utility.yul\":25966:25970   */\n      dup7\n        /* \"#utility.yul\":25959:26040   */\n      sstore\n        /* \"#utility.yul\":25828:26050   */\n      pop\n        /* \"#utility.yul\":25163:26050   */\n      jump(tag_765)\n        /* \"#utility.yul\":25193:25811   */\n    tag_766:\n        /* \"#utility.yul\":25245:25249   */\n      0x1f\n        /* \"#utility.yul\":25241:25250   */\n      not\n        /* \"#utility.yul\":25233:25239   */\n      dup5\n        /* \"#utility.yul\":25229:25251   */\n      and\n        /* \"#utility.yul\":25279:25316   */\n      tag_769\n        /* \"#utility.yul\":25311:25315   */\n      dup7\n        /* \"#utility.yul\":25279:25316   */\n      tag_480\n      jump\t// in\n    tag_769:\n        /* \"#utility.yul\":25338:25339   */\n      0x00\n        /* \"#utility.yul\":25352:25560   */\n    tag_770:\n        /* \"#utility.yul\":25366:25373   */\n      dup3\n        /* \"#utility.yul\":25363:25364   */\n      dup2\n        /* \"#utility.yul\":25360:25374   */\n      lt\n        /* \"#utility.yul\":25352:25560   */\n      iszero\n      tag_772\n      jumpi\n        /* \"#utility.yul\":25445:25454   */\n      dup5\n        /* \"#utility.yul\":25440:25443   */\n      dup10\n        /* \"#utility.yul\":25436:25455   */\n      add\n        /* \"#utility.yul\":25430:25456   */\n      mload\n        /* \"#utility.yul\":25422:25428   */\n      dup3\n        /* \"#utility.yul\":25415:25457   */\n      sstore\n        /* \"#utility.yul\":25496:25497   */\n      0x01\n        /* \"#utility.yul\":25488:25494   */\n      dup3\n        /* \"#utility.yul\":25484:25498   */\n      add\n        /* \"#utility.yul\":25474:25498   */\n      swap2\n      pop\n        /* \"#utility.yul\":25543:25545   */\n      0x20\n        /* \"#utility.yul\":25532:25541   */\n      dup6\n        /* \"#utility.yul\":25528:25546   */\n      add\n        /* \"#utility.yul\":25515:25546   */\n      swap5\n      pop\n        /* \"#utility.yul\":25389:25393   */\n      0x20\n        /* \"#utility.yul\":25386:25387   */\n      dup2\n        /* \"#utility.yul\":25382:25394   */\n      add\n        /* \"#utility.yul\":25377:25394   */\n      swap1\n      pop\n        /* \"#utility.yul\":25352:25560   */\n      jump(tag_770)\n    tag_772:\n        /* \"#utility.yul\":25588:25594   */\n      dup7\n        /* \"#utility.yul\":25579:25586   */\n      dup4\n        /* \"#utility.yul\":25576:25595   */\n      lt\n        /* \"#utility.yul\":25573:25752   */\n      iszero\n      tag_773\n      jumpi\n        /* \"#utility.yul\":25646:25655   */\n      dup5\n        /* \"#utility.yul\":25641:25644   */\n      dup10\n        /* \"#utility.yul\":25637:25656   */\n      add\n        /* \"#utility.yul\":25631:25657   */\n      mload\n        /* \"#utility.yul\":25689:25737   */\n      tag_774\n        /* \"#utility.yul\":25731:25735   */\n      0x1f\n        /* \"#utility.yul\":25723:25729   */\n      dup10\n        /* \"#utility.yul\":25719:25736   */\n      and\n        /* \"#utility.yul\":25708:25717   */\n      dup3\n        /* \"#utility.yul\":25689:25737   */\n      tag_493\n      jump\t// in\n    tag_774:\n        /* \"#utility.yul\":25681:25687   */\n      dup4\n        /* \"#utility.yul\":25674:25738   */\n      sstore\n        /* \"#utility.yul\":25596:25752   */\n      pop\n        /* \"#utility.yul\":25573:25752   */\n    tag_773:\n        /* \"#utility.yul\":25798:25799   */\n      0x01\n        /* \"#utility.yul\":25794:25795   */\n      0x02\n        /* \"#utility.yul\":25786:25792   */\n      dup9\n        /* \"#utility.yul\":25782:25796   */\n      mul\n        /* \"#utility.yul\":25778:25800   */\n      add\n        /* \"#utility.yul\":25772:25776   */\n      dup9\n        /* \"#utility.yul\":25765:25801   */\n      sstore\n        /* \"#utility.yul\":25200:25811   */\n      pop\n      pop\n      pop\n        /* \"#utility.yul\":25163:26050   */\n    tag_765:\n      pop\n        /* \"#utility.yul\":24753:26056   */\n      pop\n      pop\n      pop\n        /* \"#utility.yul\":24661:26056   */\n      pop\n      pop\n      jump\t// out\n        /* \"#utility.yul\":26062:26301   */\n    tag_495:\n        /* \"#utility.yul\":26202:26236   */\n      0x5468652073656e646572206973206e6f7420746865206d616e61676572206f66\n        /* \"#utility.yul\":26198:26199   */\n      0x00\n        /* \"#utility.yul\":26190:26196   */\n      dup3\n        /* \"#utility.yul\":26186:26200   */\n      add\n        /* \"#utility.yul\":26179:26237   */\n      mstore\n        /* \"#utility.yul\":26271:26293   */\n      0x2074686520656e7465726564206170702049442e000000000000000000000000\n        /* \"#utility.yul\":26266:26268   */\n      0x20\n        /* \"#utility.yul\":26258:26264   */\n      dup3\n        /* \"#utility.yul\":26254:26269   */\n      add\n        /* \"#utility.yul\":26247:26294   */\n      mstore\n        /* \"#utility.yul\":26062:26301   */\n      pop\n      jump\t// out\n        /* \"#utility.yul\":26307:26673   */\n    tag_496:\n        /* \"#utility.yul\":26449:26452   */\n      0x00\n        /* \"#utility.yul\":26470:26537   */\n      tag_777\n        /* \"#utility.yul\":26534:26536   */\n      0x34\n        /* \"#utility.yul\":26529:26532   */\n      dup4\n        /* \"#utility.yul\":26470:26537   */\n      tag_428\n      jump\t// in\n    tag_777:\n        /* \"#utility.yul\":26463:26537   */\n      swap2\n      pop\n        /* \"#utility.yul\":26546:26639   */\n      tag_778\n        /* \"#utility.yul\":26635:26638   */\n      dup3\n        /* \"#utility.yul\":26546:26639   */\n      tag_495\n      jump\t// in\n    tag_778:\n        /* \"#utility.yul\":26664:26666   */\n      0x40\n        /* \"#utility.yul\":26659:26662   */\n      dup3\n        /* \"#utility.yul\":26655:26667   */\n      add\n        /* \"#utility.yul\":26648:26667   */\n      swap1\n      pop\n        /* \"#utility.yul\":26307:26673   */\n      swap2\n      swap1\n      pop\n      jump\t// out\n        /* \"#utility.yul\":26679:27098   */\n    tag_198:\n        /* \"#utility.yul\":26845:26849   */\n      0x00\n        /* \"#utility.yul\":26883:26885   */\n      0x20\n        /* \"#utility.yul\":26872:26881   */\n      dup3\n        /* \"#utility.yul\":26868:26886   */\n      add\n        /* \"#utility.yul\":26860:26886   */\n      swap1\n      pop\n        /* \"#utility.yul\":26932:26941   */\n      dup2\n        /* \"#utility.yul\":26926:26930   */\n      dup2\n        /* \"#utility.yul\":26922:26942   */\n      sub\n        /* \"#utility.yul\":26918:26919   */\n      0x00\n        /* \"#utility.yul\":26907:26916   */\n      dup4\n        /* \"#utility.yul\":26903:26920   */\n      add\n        /* \"#utility.yul\":26896:26943   */\n      mstore\n        /* \"#utility.yul\":26960:27091   */\n      tag_780\n        /* \"#utility.yul\":27086:27090   */\n      dup2\n        /* \"#utility.yul\":26960:27091   */\n      tag_496\n      jump\t// in\n    tag_780:\n        /* \"#utility.yul\":26952:27091   */\n      swap1\n      pop\n        /* \"#utility.yul\":26679:27098   */\n      swap2\n      swap1\n      pop\n      jump\t// out\n        /* \"#utility.yul\":27104:27251   */\n    tag_497:\n        /* \"#utility.yul\":27205:27216   */\n      0x00\n        /* \"#utility.yul\":27242:27245   */\n      dup2\n        /* \"#utility.yul\":27227:27245   */\n      swap1\n      pop\n        /* \"#utility.yul\":27104:27251   */\n      swap3\n      swap2\n      pop\n      pop\n      jump\t// out\n        /* \"#utility.yul\":27257:27371   */\n    tag_498:\n      pop\n      jump\t// out\n        /* \"#utility.yul\":27377:27775   */\n    tag_499:\n        /* \"#utility.yul\":27536:27539   */\n      0x00\n        /* \"#utility.yul\":27557:27640   */\n      tag_784\n        /* \"#utility.yul\":27638:27639   */\n      0x00\n        /* \"#utility.yul\":27633:27636   */\n      dup4\n        /* \"#utility.yul\":27557:27640   */\n      tag_497\n      jump\t// in\n    tag_784:\n        /* \"#utility.yul\":27550:27640   */\n      swap2\n      pop\n        /* \"#utility.yul\":27649:27742   */\n      tag_785\n        /* \"#utility.yul\":27738:27741   */\n      dup3\n        /* \"#utility.yul\":27649:27742   */\n      tag_498\n      jump\t// in\n    tag_785:\n        /* \"#utility.yul\":27767:27768   */\n      0x00\n        /* \"#utility.yul\":27762:27765   */\n      dup3\n        /* \"#utility.yul\":27758:27769   */\n      add\n        /* \"#utility.yul\":27751:27769   */\n      swap1\n      pop\n        /* \"#utility.yul\":27377:27775   */\n      swap2\n      swap1\n      pop\n      jump\t// out\n        /* \"#utility.yul\":27781:28160   */\n    tag_214:\n        /* \"#utility.yul\":27965:27968   */\n      0x00\n        /* \"#utility.yul\":27987:28134   */\n      tag_787\n        /* \"#utility.yul\":28130:28133   */\n      dup3\n        /* \"#utility.yul\":27987:28134   */\n      tag_499\n      jump\t// in\n    tag_787:\n        /* \"#utility.yul\":27980:28134   */\n      swap2\n      pop\n        /* \"#utility.yul\":28151:28154   */\n      dup2\n        /* \"#utility.yul\":28144:28154   */\n      swap1\n      pop\n        /* \"#utility.yul\":27781:28160   */\n      swap2\n      swap1\n      pop\n      jump\t// out\n        /* \"#utility.yul\":28166:28336   */\n    tag_500:\n        /* \"#utility.yul\":28306:28328   */\n      0x4661696c656420746f2073656e64204574686572000000000000000000000000\n        /* \"#utility.yul\":28302:28303   */\n      0x00\n        /* \"#utility.yul\":28294:28300   */\n      dup3\n        /* \"#utility.yul\":28290:28304   */\n      add\n        /* \"#utility.yul\":28283:28329   */\n      mstore\n        /* \"#utility.yul\":28166:28336   */\n      pop\n      jump\t// out\n        /* \"#utility.yul\":28342:28708   */\n    tag_501:\n        /* \"#utility.yul\":28484:28487   */\n      0x00\n        /* \"#utility.yul\":28505:28572   */\n      tag_790\n        /* \"#utility.yul\":28569:28571   */\n      0x14\n        /* \"#utility.yul\":28564:28567   */\n      dup4\n        /* \"#utility.yul\":28505:28572   */\n      tag_428\n      jump\t// in\n    tag_790:\n        /* \"#utility.yul\":28498:28572   */\n      swap2\n      pop\n        /* \"#utility.yul\":28581:28674   */\n      tag_791\n        /* \"#utility.yul\":28670:28673   */\n      dup3\n        /* \"#utility.yul\":28581:28674   */\n      tag_500\n      jump\t// in\n    tag_791:\n        /* \"#utility.yul\":28699:28701   */\n      0x20\n        /* \"#utility.yul\":28694:28697   */\n      dup3\n        /* \"#utility.yul\":28690:28702   */\n      add\n        /* \"#utility.yul\":28683:28702   */\n      swap1\n      pop\n        /* \"#utility.yul\":28342:28708   */\n      swap2\n      swap1\n      pop\n      jump\t// out\n        /* \"#utility.yul\":28714:29133   */\n    tag_220:\n        /* \"#utility.yul\":28880:28884   */\n      0x00\n        /* \"#utility.yul\":28918:28920   */\n      0x20\n        /* \"#utility.yul\":28907:28916   */\n      dup3\n        /* \"#utility.yul\":28903:28921   */\n      add\n        /* \"#utility.yul\":28895:28921   */\n      swap1\n      pop\n        /* \"#utility.yul\":28967:28976   */\n      dup2\n        /* \"#utility.yul\":28961:28965   */\n      dup2\n        /* \"#utility.yul\":28957:28977   */\n      sub\n        /* \"#utility.yul\":28953:28954   */\n      0x00\n        /* \"#utility.yul\":28942:28951   */\n      dup4\n        /* \"#utility.yul\":28938:28955   */\n      add\n        /* \"#utility.yul\":28931:28978   */\n      mstore\n        /* \"#utility.yul\":28995:29126   */\n      tag_793\n        /* \"#utility.yul\":29121:29125   */\n      dup2\n        /* \"#utility.yul\":28995:29126   */\n      tag_501\n      jump\t// in\n    tag_793:\n        /* \"#utility.yul\":28987:29126   */\n      swap1\n      pop\n        /* \"#utility.yul\":28714:29133   */\n      swap2\n      swap1\n      pop\n      jump\t// out\n        /* \"#utility.yul\":29139:29383   */\n    tag_502:\n        /* \"#utility.yul\":29279:29313   */\n      0x5468652064417070496420656e746572656420686173206e6f74206265656e20\n        /* \"#utility.yul\":29275:29276   */\n      0x00\n        /* \"#utility.yul\":29267:29273   */\n      dup3\n        /* \"#utility.yul\":29263:29277   */\n      add\n        /* \"#utility.yul\":29256:29314   */\n      mstore\n        /* \"#utility.yul\":29348:29375   */\n      0x6465636c61726564206f7220617070726f766564207965742e00000000000000\n        /* \"#utility.yul\":29343:29345   */\n      0x20\n        /* \"#utility.yul\":29335:29341   */\n      dup3\n        /* \"#utility.yul\":29331:29346   */\n      add\n        /* \"#utility.yul\":29324:29376   */\n      mstore\n        /* \"#utility.yul\":29139:29383   */\n      pop\n      jump\t// out\n        /* \"#utility.yul\":29389:29755   */\n    tag_503:\n        /* \"#utility.yul\":29531:29534   */\n      0x00\n        /* \"#utility.yul\":29552:29619   */\n      tag_796\n        /* \"#utility.yul\":29616:29618   */\n      0x39\n        /* \"#utility.yul\":29611:29614   */\n      dup4\n        /* \"#utility.yul\":29552:29619   */\n      tag_428\n      jump\t// in\n    tag_796:\n        /* \"#utility.yul\":29545:29619   */\n      swap2\n      pop\n        /* \"#utility.yul\":29628:29721   */\n      tag_797\n        /* \"#utility.yul\":29717:29720   */\n      dup3\n        /* \"#utility.yul\":29628:29721   */\n      tag_502\n      jump\t// in\n    tag_797:\n        /* \"#utility.yul\":29746:29748   */\n      0x40\n        /* \"#utility.yul\":29741:29744   */\n      dup3\n        /* \"#utility.yul\":29737:29749   */\n      add\n        /* \"#utility.yul\":29730:29749   */\n      swap1\n      pop\n        /* \"#utility.yul\":29389:29755   */\n      swap2\n      swap1\n      pop\n      jump\t// out\n        /* \"#utility.yul\":29761:30180   */\n    tag_244:\n        /* \"#utility.yul\":29927:29931   */\n      0x00\n        /* \"#utility.yul\":29965:29967   */\n      0x20\n        /* \"#utility.yul\":29954:29963   */\n      dup3\n        /* \"#utility.yul\":29950:29968   */\n      add\n        /* \"#utility.yul\":29942:29968   */\n      swap1\n      pop\n        /* \"#utility.yul\":30014:30023   */\n      dup2\n        /* \"#utility.yul\":30008:30012   */\n      dup2\n        /* \"#utility.yul\":30004:30024   */\n      sub\n        /* \"#utility.yul\":30000:30001   */\n      0x00\n        /* \"#utility.yul\":29989:29998   */\n      dup4\n        /* \"#utility.yul\":29985:30002   */\n      add\n        /* \"#utility.yul\":29978:30025   */\n      mstore\n        /* \"#utility.yul\":30042:30173   */\n      tag_799\n        /* \"#utility.yul\":30168:30172   */\n      dup2\n        /* \"#utility.yul\":30042:30173   */\n      tag_503\n      jump\t// in\n    tag_799:\n        /* \"#utility.yul\":30034:30173   */\n      swap1\n      pop\n        /* \"#utility.yul\":29761:30180   */\n      swap2\n      swap1\n      pop\n      jump\t// out\n        /* \"#utility.yul\":30186:30518   */\n    tag_277:\n        /* \"#utility.yul\":30307:30311   */\n      0x00\n        /* \"#utility.yul\":30345:30347   */\n      0x40\n        /* \"#utility.yul\":30334:30343   */\n      dup3\n        /* \"#utility.yul\":30330:30348   */\n      add\n        /* \"#utility.yul\":30322:30348   */\n      swap1\n      pop\n        /* \"#utility.yul\":30358:30429   */\n      tag_801\n        /* \"#utility.yul\":30426:30427   */\n      0x00\n        /* \"#utility.yul\":30415:30424   */\n      dup4\n        /* \"#utility.yul\":30411:30428   */\n      add\n        /* \"#utility.yul\":30402:30408   */\n      dup6\n        /* \"#utility.yul\":30358:30429   */\n      tag_457\n      jump\t// in\n    tag_801:\n        /* \"#utility.yul\":30439:30511   */\n      tag_802\n        /* \"#utility.yul\":30507:30509   */\n      0x20\n        /* \"#utility.yul\":30496:30505   */\n      dup4\n        /* \"#utility.yul\":30492:30510   */\n      add\n        /* \"#utility.yul\":30483:30489   */\n      dup5\n        /* \"#utility.yul\":30439:30511   */\n      tag_461\n      jump\t// in\n    tag_802:\n        /* \"#utility.yul\":30186:30518   */\n      swap4\n      swap3\n      pop\n      pop\n      pop\n      jump\t// out\n        /* \"#utility.yul\":30524:30856   */\n    tag_314:\n        /* \"#utility.yul\":30645:30649   */\n      0x00\n        /* \"#utility.yul\":30683:30685   */\n      0x40\n        /* \"#utility.yul\":30672:30681   */\n      dup3\n        /* \"#utility.yul\":30668:30686   */\n      add\n        /* \"#utility.yul\":30660:30686   */\n      swap1\n      pop\n        /* \"#utility.yul\":30696:30767   */\n      tag_804\n        /* \"#utility.yul\":30764:30765   */\n      0x00\n        /* \"#utility.yul\":30753:30762   */\n      dup4\n        /* \"#utility.yul\":30749:30766   */\n      add\n        /* \"#utility.yul\":30740:30746   */\n      dup6\n        /* \"#utility.yul\":30696:30767   */\n      tag_432\n      jump\t// in\n    tag_804:\n        /* \"#utility.yul\":30777:30849   */\n      tag_805\n        /* \"#utility.yul\":30845:30847   */\n      0x20\n        /* \"#utility.yul\":30834:30843   */\n      dup4\n        /* \"#utility.yul\":30830:30848   */\n      add\n        /* \"#utility.yul\":30821:30827   */\n      dup5\n        /* \"#utility.yul\":30777:30849   */\n      tag_432\n      jump\t// in\n    tag_805:\n        /* \"#utility.yul\":30524:30856   */\n      swap4\n      swap3\n      pop\n      pop\n      pop\n      jump\t// out\n        /* \"#utility.yul\":30862:31273   */\n    tag_333:\n        /* \"#utility.yul\":30997:31001   */\n      0x00\n        /* \"#utility.yul\":31035:31037   */\n      0x40\n        /* \"#utility.yul\":31024:31033   */\n      dup3\n        /* \"#utility.yul\":31020:31038   */\n      add\n        /* \"#utility.yul\":31012:31038   */\n      swap1\n      pop\n        /* \"#utility.yul\":31084:31093   */\n      dup2\n        /* \"#utility.yul\":31078:31082   */\n      dup2\n        /* \"#utility.yul\":31074:31094   */\n      sub\n        /* \"#utility.yul\":31070:31071   */\n      0x00\n        /* \"#utility.yul\":31059:31068   */\n      dup4\n        /* \"#utility.yul\":31055:31072   */\n      add\n        /* \"#utility.yul\":31048:31095   */\n      mstore\n        /* \"#utility.yul\":31112:31190   */\n      tag_807\n        /* \"#utility.yul\":31185:31189   */\n      dup2\n        /* \"#utility.yul\":31176:31182   */\n      dup6\n        /* \"#utility.yul\":31112:31190   */\n      tag_460\n      jump\t// in\n    tag_807:\n        /* \"#utility.yul\":31104:31190   */\n      swap1\n      pop\n        /* \"#utility.yul\":31200:31266   */\n      tag_808\n        /* \"#utility.yul\":31262:31264   */\n      0x20\n        /* \"#utility.yul\":31251:31260   */\n      dup4\n        /* \"#utility.yul\":31247:31265   */\n      add\n        /* \"#utility.yul\":31238:31244   */\n      dup5\n        /* \"#utility.yul\":31200:31266   */\n      tag_454\n      jump\t// in\n    tag_808:\n        /* \"#utility.yul\":30862:31273   */\n      swap4\n      swap3\n      pop\n      pop\n      pop\n      jump\t// out\n        /* \"#utility.yul\":31279:31459   */\n    tag_504:\n        /* \"#utility.yul\":31327:31404   */\n      0x4e487b7100000000000000000000000000000000000000000000000000000000\n        /* \"#utility.yul\":31324:31325   */\n      0x00\n        /* \"#utility.yul\":31317:31405   */\n      mstore\n        /* \"#utility.yul\":31424:31428   */\n      0x11\n        /* \"#utility.yul\":31421:31422   */\n      0x04\n        /* \"#utility.yul\":31414:31429   */\n      mstore\n        /* \"#utility.yul\":31448:31452   */\n      0x24\n        /* \"#utility.yul\":31445:31446   */\n      0x00\n        /* \"#utility.yul\":31438:31453   */\n      revert\n        /* \"#utility.yul\":31465:31698   */\n    tag_350:\n        /* \"#utility.yul\":31504:31507   */\n      0x00\n        /* \"#utility.yul\":31527:31551   */\n      tag_811\n        /* \"#utility.yul\":31545:31550   */\n      dup3\n        /* \"#utility.yul\":31527:31551   */\n      tag_431\n      jump\t// in\n    tag_811:\n        /* \"#utility.yul\":31518:31551   */\n      swap2\n      pop\n        /* \"#utility.yul\":31573:31639   */\n      0xffffffffffffffffffffffffffffffffffffffffffffffffffffffffffffffff\n        /* \"#utility.yul\":31566:31571   */\n      dup3\n        /* \"#utility.yul\":31563:31640   */\n      sub\n        /* \"#utility.yul\":31560:31663   */\n      tag_812\n      jumpi\n        /* \"#utility.yul\":31643:31661   */\n      tag_813\n      tag_504\n      jump\t// in\n    tag_813:\n        /* \"#utility.yul\":31560:31663   */\n    tag_812:\n        /* \"#utility.yul\":31690:31691   */\n      0x01\n        /* \"#utility.yul\":31683:31688   */\n      dup3\n        /* \"#utility.yul\":31679:31692   */\n      add\n        /* \"#utility.yul\":31672:31692   */\n      swap1\n      pop\n        /* \"#utility.yul\":31465:31698   */\n      swap2\n      swap1\n      pop\n      jump\t// out\n        /* \"#utility.yul\":31704:31999   */\n    tag_505:\n        /* \"#utility.yul\":31844:31878   */\n      0x546865206d616e61676572206164647265737320666f72207468652061707020\n        /* \"#utility.yul\":31840:31841   */\n      0x00\n        /* \"#utility.yul\":31832:31838   */\n      dup3\n        /* \"#utility.yul\":31828:31842   */\n      add\n        /* \"#utility.yul\":31821:31879   */\n      mstore\n        /* \"#utility.yul\":31913:31947   */\n      0x494420796f7520656e746572656420686173206e6f74206265656e2064657465\n        /* \"#utility.yul\":31908:31910   */\n      0x20\n        /* \"#utility.yul\":31900:31906   */\n      dup3\n        /* \"#utility.yul\":31896:31911   */\n      add\n        /* \"#utility.yul\":31889:31948   */\n      mstore\n        /* \"#utility.yul\":31982:31991   */\n      0x726d696e65642e00000000000000000000000000000000000000000000000000\n        /* \"#utility.yul\":31977:31979   */\n      0x40\n        /* \"#utility.yul\":31969:31975   */\n      dup3\n        /* \"#utility.yul\":31965:31980   */\n      add\n        /* \"#utility.yul\":31958:31992   */\n      mstore\n        /* \"#utility.yul\":31704:31999   */\n      pop\n      jump\t// out\n        /* \"#utility.yul\":32005:32371   */\n    tag_506:\n        /* \"#utility.yul\":32147:32150   */\n      0x00\n        /* \"#utility.yul\":32168:32235   */\n      tag_816\n        /* \"#utility.yul\":32232:32234   */\n      0x47\n        /* \"#utility.yul\":32227:32230   */\n      dup4\n        /* \"#utility.yul\":32168:32235   */\n      tag_428\n      jump\t// in\n    tag_816:\n        /* \"#utility.yul\":32161:32235   */\n      swap2\n      pop\n        /* \"#utility.yul\":32244:32337   */\n      tag_817\n        /* \"#utility.yul\":32333:32336   */\n      dup3\n        /* \"#utility.yul\":32244:32337   */\n      tag_505\n      jump\t// in\n    tag_817:\n        /* \"#utility.yul\":32362:32364   */\n      0x60\n        /* \"#utility.yul\":32357:32360   */\n      dup3\n        /* \"#utility.yul\":32353:32365   */\n      add\n        /* \"#utility.yul\":32346:32365   */\n      swap1\n      pop\n        /* \"#utility.yul\":32005:32371   */\n      swap2\n      swap1\n      pop\n      jump\t// out\n        /* \"#utility.yul\":32377:32796   */\n    tag_367:\n        /* \"#utility.yul\":32543:32547   */\n      0x00\n        /* \"#utility.yul\":32581:32583   */\n      0x20\n        /* \"#utility.yul\":32570:32579   */\n      dup3\n        /* \"#utility.yul\":32566:32584   */\n      add\n        /* \"#utility.yul\":32558:32584   */\n      swap1\n      pop\n        /* \"#utility.yul\":32630:32639   */\n      dup2\n        /* \"#utility.yul\":32624:32628   */\n      dup2\n        /* \"#utility.yul\":32620:32640   */\n      sub\n        /* \"#utility.yul\":32616:32617   */\n      0x00\n        /* \"#utility.yul\":32605:32614   */\n      dup4\n        /* \"#utility.yul\":32601:32618   */\n      add\n        /* \"#utility.yul\":32594:32641   */\n      mstore\n        /* \"#utility.yul\":32658:32789   */\n      tag_819\n        /* \"#utility.yul\":32784:32788   */\n      dup2\n        /* \"#utility.yul\":32658:32789   */\n      tag_506\n      jump\t// in\n    tag_819:\n        /* \"#utility.yul\":32650:32789   */\n      swap1\n      pop\n        /* \"#utility.yul\":32377:32796   */\n      swap2\n      swap1\n      pop\n      jump\t// out\n        /* \"#utility.yul\":32802:32968   */\n    tag_507:\n        /* \"#utility.yul\":32942:32960   */\n      0x417070204964204e6f7420466f756e6400000000000000000000000000000000\n        /* \"#utility.yul\":32938:32939   */\n      0x00\n        /* \"#utility.yul\":32930:32936   */\n      dup3\n        /* \"#utility.yul\":32926:32940   */\n      add\n        /* \"#utility.yul\":32919:32961   */\n      mstore\n        /* \"#utility.yul\":32802:32968   */\n      pop\n      jump\t// out\n        /* \"#utility.yul\":32974:33340   */\n    tag_508:\n        /* \"#utility.yul\":33116:33119   */\n      0x00\n        /* \"#utility.yul\":33137:33204   */\n      tag_822\n        /* \"#utility.yul\":33201:33203   */\n      0x10\n        /* \"#utility.yul\":33196:33199   */\n      dup4\n        /* \"#utility.yul\":33137:33204   */\n      tag_428\n      jump\t// in\n    tag_822:\n        /* \"#utility.yul\":33130:33204   */\n      swap2\n      pop\n        /* \"#utility.yul\":33213:33306   */\n      tag_823\n        /* \"#utility.yul\":33302:33305   */\n      dup3\n        /* \"#utility.yul\":33213:33306   */\n      tag_507\n      jump\t// in\n    tag_823:\n        /* \"#utility.yul\":33331:33333   */\n      0x20\n        /* \"#utility.yul\":33326:33329   */\n      dup3\n        /* \"#utility.yul\":33322:33334   */\n      add\n        /* \"#utility.yul\":33315:33334   */\n      swap1\n      pop\n        /* \"#utility.yul\":32974:33340   */\n      swap2\n      swap1\n      pop\n      jump\t// out\n        /* \"#utility.yul\":33346:33765   */\n    tag_416:\n        /* \"#utility.yul\":33512:33516   */\n      0x00\n        /* \"#utility.yul\":33550:33552   */\n      0x20\n        /* \"#utility.yul\":33539:33548   */\n      dup3\n        /* \"#utility.yul\":33535:33553   */\n      add\n        /* \"#utility.yul\":33527:33553   */\n      swap1\n      pop\n        /* \"#utility.yul\":33599:33608   */\n      dup2\n        /* \"#utility.yul\":33593:33597   */\n      dup2\n        /* \"#utility.yul\":33589:33609   */\n      sub\n        /* \"#utility.yul\":33585:33586   */\n      0x00\n        /* \"#utility.yul\":33574:33583   */\n      dup4\n        /* \"#utility.yul\":33570:33587   */\n      add\n        /* \"#utility.yul\":33563:33610   */\n      mstore\n        /* \"#utility.yul\":33627:33758   */\n      tag_825\n        /* \"#utility.yul\":33753:33757   */\n      dup2\n        /* \"#utility.yul\":33627:33758   */\n      tag_508\n      jump\t// in\n    tag_825:\n        /* \"#utility.yul\":33619:33758   */\n      swap1\n      pop\n        /* \"#utility.yul\":33346:33765   */\n      swap2\n      swap1\n      pop\n      jump\t// out\n\n    auxdata: 0xa2646970667358221220b6ab51aebde98f9d56ac4bf1a65166f14b3cb4c58cceb0a9020c7f45b6673e5b64736f6c634300081c0033\n}\n",
				"bytecode": {
					"linkReferences": {},
					"object": "608060405234801561000f575f5ffd5b50335f73ffffffffffffffffffffffffffffffffffffffff168173ffffffffffffffffffffffffffffffffffffffff1603610081575f6040517f1e4fbdf700000000000000000000000000000000000000000000000000000000815260040161007891906101d0565b60405180910390fd5b610090816100c460201b60201c565b505f6100a2600161018560201b60201c565b146100b0576100af6101e9565b5b670de0b6b3a7640000600281905550610216565b5f5f5f9054906101000a900473ffffffffffffffffffffffffffffffffffffffff169050815f5f6101000a81548173ffffffffffffffffffffffffffffffffffffffff021916908373ffffffffffffffffffffffffffffffffffffffff1602179055508173ffffffffffffffffffffffffffffffffffffffff168173ffffffffffffffffffffffffffffffffffffffff167f8be0079c531659141344cd1fd0a4f28419497f9722a3daafe3b4186f6b6457e060405160405180910390a35050565b5f815f01549050919050565b5f73ffffffffffffffffffffffffffffffffffffffff82169050919050565b5f6101ba82610191565b9050919050565b6101ca816101b0565b82525050565b5f6020820190506101e35f8301846101c1565b92915050565b7f4e487b71000000000000000000000000000000000000000000000000000000005f52600160045260245ffd5b612ee5806102235f395ff3fe608060405260043610610184575f3560e01c8063a035b1fe116100d0578063c37f016c11610089578063e0caa72911610063578063e0caa729146105df578063e82935da1461061b578063ea2b77f214610659578063f2fde38b146106955761018b565b8063c37f016c1461053c578063c5bdc0d314610578578063d0f34b10146105b45761018b565b8063a035b1fe14610418578063a15ed1bc14610442578063a375765e1461046c578063a9059cbb146104a8578063b440c736146104d0578063c3105a6b146105005761018b565b806347a8cfa41161013d578063715018a611610117578063715018a61461037457806378b67b4f1461038a5780638da5cb5b146103c657806391b7f5ed146103f05761018b565b806347a8cfa4146102e45780635de3b5981461030e5780635e4710a21461034a5761018b565b80630ab03bf2146101c457806312065fe01461020057806322a012401461022a57806333e466ae146102525780633ccfd60b1461029257806342c71f1d146102a85761018b565b3661018b57005b7fdd970dd9b5bfe707922155b058a407655cb18288b807e2216442bca8ad83d6b55a6040516101ba9190611e8d565b60405180910390a1005b3480156101cf575f5ffd5b506101ea60048036038101906101e59190612093565b6106bd565b6040516101f79190612119565b60405180910390f35b34801561020b575f5ffd5b50610214610770565b6040516102219190612132565b60405180910390f35b348015610235575f5ffd5b50610250600480360381019061024b919061214b565b61077f565b005b34801561025d575f5ffd5b50610278600480360381019061027391906121e1565b610871565b604051610289959493929190612294565b60405180910390f35b34801561029d575f5ffd5b506102a6610963565b005b3480156102b3575f5ffd5b506102ce60048036038101906102c991906122ec565b610a22565b6040516102db919061240e565b60405180910390f35b3480156102ef575f5ffd5b506102f8610c31565b6040516103059190612132565b60405180910390f35b348015610319575f5ffd5b50610334600480360381019061032f919061242e565b610c3d565b6040516103419190612119565b60405180910390f35b348015610355575f5ffd5b5061035e610d32565b60405161036b9190612132565b60405180910390f35b34801561037f575f5ffd5b50610388610d3d565b005b348015610395575f5ffd5b506103b060048036038101906103ab91906122ec565b610d50565b6040516103bd9190612119565b60405180910390f35b3480156103d1575f5ffd5b506103da610fc1565b6040516103e7919061246c565b60405180910390f35b3480156103fb575f5ffd5b50610416600480360381019061041191906121e1565b610fe8565b005b348015610423575f5ffd5b5061042c610ffa565b6040516104399190612132565b60405180910390f35b34801561044d575f5ffd5b50610456611000565b6040516104639190612132565b60405180910390f35b348015610477575f5ffd5b50610492600480360381019061048d9190612485565b61100c565b60405161049f9190612119565b60405180910390f35b3480156104b3575f5ffd5b506104ce60048036038101906104c9919061251a565b611114565b005b6104ea60048036038101906104e59190612558565b6111c9565b6040516104f791906125b2565b60405180910390f35b34801561050b575f5ffd5b506105266004803603810190610521919061242e565b6114da565b60405161053391906125cb565b60405180910390f35b348015610547575f5ffd5b50610562600480360381019061055d91906122ec565b61158b565b60405161056f9190612132565b60405180910390f35b348015610583575f5ffd5b5061059e600480360381019061059991906125eb565b6115f1565b6040516105ab919061240e565b60405180910390f35b3480156105bf575f5ffd5b506105c8611800565b6040516105d6929190612757565b60405180910390f35b3480156105ea575f5ffd5b506106056004803603810190610600919061242e565b61197a565b60405161061291906125cb565b60405180910390f35b348015610626575f5ffd5b50610641600480360381019061063c91906121e1565b611a20565b60405161065093929190612785565b60405180910390f35b348015610664575f5ffd5b5061067f600480360381019061067a91906122ec565b611a74565b60405161068c9190612119565b60405180910390f35b3480156106a0575f5ffd5b506106bb60048036038101906106b691906127ba565b611afa565b005b5f6106c6611b7e565b5f6106d085611c05565b905083600382815481106106e7576106e66127e5565b5b905f5260205f20906005020160010190816107029190612a0f565b508260038281548110610718576107176127e5565b5b905f5260205f2090600502016002015f6101000a81548173ffffffffffffffffffffffffffffffffffffffff021916908373ffffffffffffffffffffffffffffffffffffffff16021790555060019150509392505050565b5f610779611b7e565b47905090565b825f61078a82611c05565b90503373ffffffffffffffffffffffffffffffffffffffff16600382815481106107b7576107b66127e5565b5b905f5260205f2090600502016002015f9054906101000a900473ffffffffffffffffffffffffffffffffffffffff1673ffffffffffffffffffffffffffffffffffffffff161461083c576040517f08c379a000000000000000000000000000000000000000000000000000000000815260040161083390612b4e565b60405180910390fd5b8260055f8781526020019081526020015f205f8681526020019081526020015f2090816108699190612a0f565b505050505050565b60038181548110610880575f80fd5b905f5260205f2090600502015f91509050805f0154908060010180546108a59061283f565b80601f01602080910402602001604051908101604052809291908181526020018280546108d19061283f565b801561091c5780601f106108f35761010080835404028352916020019161091c565b820191905f5260205f20905b8154815290600101906020018083116108ff57829003601f168201915b505050505090806002015f9054906101000a900473ffffffffffffffffffffffffffffffffffffffff1690806003015490806004015f9054906101000a900460ff16905085565b61096b611b7e565b5f4790505f610978610fc1565b73ffffffffffffffffffffffffffffffffffffffff168260405161099b90612b99565b5f6040518083038185875af1925050503d805f81146109d5576040519150601f19603f3d011682016040523d82523d5f602084013e6109da565b606091505b5050905080610a1e576040517f08c379a0000000000000000000000000000000000000000000000000000000008152600401610a1590612bf7565b60405180910390fd5b5050565b610a2a611d80565b5f5f90505b600380549050811015610bf0578260038281548110610a5157610a506127e5565b5b905f5260205f2090600502015f0154148015610a99575060038181548110610a7c57610a7b6127e5565b5b905f5260205f2090600502016004015f9054906101000a900460ff165b15610be35760038181548110610ab257610ab16127e5565b5b905f5260205f2090600502016040518060a00160405290815f8201548152602001600182018054610ae29061283f565b80601f0160208091040260200160405190810160405280929190818152602001828054610b0e9061283f565b8015610b595780601f10610b3057610100808354040283529160200191610b59565b820191905f5260205f20905b815481529060010190602001808311610b3c57829003601f168201915b50505050508152602001600282015f9054906101000a900473ffffffffffffffffffffffffffffffffffffffff1673ffffffffffffffffffffffffffffffffffffffff1673ffffffffffffffffffffffffffffffffffffffff16815260200160038201548152602001600482015f9054906101000a900460ff161515151581525050915050610c2c565b8080600101915050610a2f565b506040517f08c379a0000000000000000000000000000000000000000000000000000000008152600401610c2390612c85565b60405180910390fd5b919050565b5f600380549050905090565b5f825f610c4982611c05565b90503373ffffffffffffffffffffffffffffffffffffffff1660038281548110610c7657610c756127e5565b5b905f5260205f2090600502016002015f9054906101000a900473ffffffffffffffffffffffffffffffffffffffff1673ffffffffffffffffffffffffffffffffffffffff1614610cfb576040517f08c379a0000000000000000000000000000000000000000000000000000000008152600401610cf290612b4e565b60405180910390fd5b60055f8681526020019081526020015f205f8581526020019081526020015f205f610d269190611dc3565b60019250505092915050565b6001805f0154905081565b610d45611b7e565b610d4e5f611c98565b565b5f5f610d5b83611c05565b90505f5f90505b600480549050811015610e9d573373ffffffffffffffffffffffffffffffffffffffff1660048281548110610d9a57610d996127e5565b5b905f5260205f2090600302016001015f9054906101000a900473ffffffffffffffffffffffffffffffffffffffff1673ffffffffffffffffffffffffffffffffffffffff16148015610e0d57508360048281548110610dfc57610dfb6127e5565b5b905f5260205f2090600302015f0154145b8015610e4c5750610e1c610fc1565b73ffffffffffffffffffffffffffffffffffffffff163373ffffffffffffffffffffffffffffffffffffffff1614155b15610e905783336040517f65494389000000000000000000000000000000000000000000000000000000008152600401610e87929190612ca3565b60405180910390fd5b8080600101915050610d62565b506004604051806060016040528060038481548110610ebf57610ebe6127e5565b5b905f5260205f2090600502015f015481526020013373ffffffffffffffffffffffffffffffffffffffff16815260200142815250908060018154018082558091505060019003905f5260205f2090600302015f909190919091505f820151815f01556020820151816001015f6101000a81548173ffffffffffffffffffffffffffffffffffffffff021916908373ffffffffffffffffffffffffffffffffffffffff160217905550604082015181600201555050823373ffffffffffffffffffffffffffffffffffffffff167f4bc97985cf53112a2a1b8c2e8aa21e365ae3dd22eea30342c5d299ca3f77591260405160405180910390a36001915050919050565b5f5f5f9054906101000a900473ffffffffffffffffffffffffffffffffffffffff16905090565b610ff0611b7e565b8060028190555050565b60025481565b5f600480549050905090565b5f825f61101882611c05565b90503373ffffffffffffffffffffffffffffffffffffffff1660038281548110611045576110446127e5565b5b905f5260205f2090600502016002015f9054906101000a900473ffffffffffffffffffffffffffffffffffffffff1673ffffffffffffffffffffffffffffffffffffffff16146110ca576040517f08c379a00000000000000000000000000000000000000000000000000000000081526004016110c190612b4e565b60405180910390fd5b5f6110d486611c05565b905084600382815481106110eb576110ea6127e5565b5b905f5260205f20906005020160010190816111069190612a0f565b506001935050505092915050565b61111c611b7e565b5f8273ffffffffffffffffffffffffffffffffffffffff168260405161114190612b99565b5f6040518083038185875af1925050503d805f811461117b576040519150601f19603f3d011682016040523d82523d5f602084013e611180565b606091505b50509050806111c4576040517f08c379a00000000000000000000000000000000000000000000000000000000081526004016111bb90612bf7565b60405180910390fd5b505050565b5f6111d2610fc1565b73ffffffffffffffffffffffffffffffffffffffff163373ffffffffffffffffffffffffffffffffffffffff16146112505760025434101561124f57600254346040517fbc03bccd000000000000000000000000000000000000000000000000000000008152600401611246929190612cca565b60405180910390fd5b5b61125a6001611d59565b60036040518060a001604052806112716001611d6d565b5f1b81526020018581526020015f73ffffffffffffffffffffffffffffffffffffffff168573ffffffffffffffffffffffffffffffffffffffff16146112b757846112b9565b335b73ffffffffffffffffffffffffffffffffffffffff1681526020014281526020016112e2610fc1565b73ffffffffffffffffffffffffffffffffffffffff163373ffffffffffffffffffffffffffffffffffffffff161461131a575f61131d565b60015b1515815250908060018154018082558091505060019003905f5260205f2090600502015f909190919091505f820151815f015560208201518160010190816113659190612a0f565b506040820151816002015f6101000a81548173ffffffffffffffffffffffffffffffffffffffff021916908373ffffffffffffffffffffffffffffffffffffffff160217905550606082015181600301556080820151816004015f6101000a81548160ff02191690831515021790555050505f73ffffffffffffffffffffffffffffffffffffffff168273ffffffffffffffffffffffffffffffffffffffff16146114105781611412565b335b73ffffffffffffffffffffffffffffffffffffffff166114326001611d6d565b5f1b3373ffffffffffffffffffffffffffffffffffffffff167f941cc45c35d8bb191fc75224479d50f4d01c63bebee1b21a4b208143104bf44e86611475610fc1565b73ffffffffffffffffffffffffffffffffffffffff163373ffffffffffffffffffffffffffffffffffffffff16146114ad575f6114b0565b60015b6040516114be929190612cf1565b60405180910390a46114d06001611d6d565b5f1b905092915050565b606060055f8481526020019081526020015f205f8381526020019081526020015f2080546115079061283f565b80601f01602080910402602001604051908101604052809291908181526020018280546115339061283f565b801561157e5780601f106115555761010080835404028352916020019161157e565b820191905f5260205f20905b81548152906001019060200180831161156157829003601f168201915b5050505050905092915050565b5f5f5f90505f5f90505b6004805490508110156115e75783600482815481106115b7576115b66127e5565b5b905f5260205f2090600302015f0154036115da5781806115d690612d4c565b9250505b8080600101915050611595565b5080915050919050565b6115f9611d80565b5f61160384611c05565b90508273ffffffffffffffffffffffffffffffffffffffff16600382815481106116305761162f6127e5565b5b905f5260205f2090600502016002015f9054906101000a900473ffffffffffffffffffffffffffffffffffffffff1673ffffffffffffffffffffffffffffffffffffffff16036117bf576003818154811061168e5761168d6127e5565b5b905f5260205f2090600502016040518060a00160405290815f82015481526020016001820180546116be9061283f565b80601f01602080910402602001604051908101604052809291908181526020018280546116ea9061283f565b80156117355780601f1061170c57610100808354040283529160200191611735565b820191905f5260205f20905b81548152906001019060200180831161171857829003601f168201915b50505050508152602001600282015f9054906101000a900473ffffffffffffffffffffffffffffffffffffffff1673ffffffffffffffffffffffffffffffffffffffff1673ffffffffffffffffffffffffffffffffffffffff16815260200160038201548152602001600482015f9054906101000a900460ff1615151515815250509150506117fa565b6040517f08c379a00000000000000000000000000000000000000000000000000000000081526004016117f190612e29565b60405180910390fd5b92915050565b60605f6003808054905081805480602002602001604051908101604052809291908181526020015f905b8282101561196c578382905f5260205f2090600502016040518060a00160405290815f82015481526020016001820180546118649061283f565b80601f01602080910402602001604051908101604052809291908181526020018280546118909061283f565b80156118db5780601f106118b2576101008083540402835291602001916118db565b820191905f5260205f20905b8154815290600101906020018083116118be57829003601f168201915b50505050508152602001600282015f9054906101000a900473ffffffffffffffffffffffffffffffffffffffff1673ffffffffffffffffffffffffffffffffffffffff1673ffffffffffffffffffffffffffffffffffffffff16815260200160038201548152602001600482015f9054906101000a900460ff1615151515815250508152602001906001019061182a565b505050509150915091509091565b6005602052815f5260405f20602052805f5260405f205f915091505080546119a19061283f565b80601f01602080910402602001604051908101604052809291908181526020018280546119cd9061283f565b8015611a185780601f106119ef57610100808354040283529160200191611a18565b820191905f5260205f20905b8154815290600101906020018083116119fb57829003601f168201915b505050505081565b60048181548110611a2f575f80fd5b905f5260205f2090600302015f91509050805f015490806001015f9054906101000a900473ffffffffffffffffffffffffffffffffffffffff16908060020154905083565b5f611a7d611b7e565b5f611a8783611c05565b905060038181548110611a9d57611a9c6127e5565b5b905f5260205f2090600502016004015f9054906101000a900460ff161560038281548110611ace57611acd6127e5565b5b905f5260205f2090600502016004015f6101000a81548160ff0219169083151502179055915050919050565b611b02611b7e565b5f73ffffffffffffffffffffffffffffffffffffffff168173ffffffffffffffffffffffffffffffffffffffff1603611b72575f6040517f1e4fbdf7000000000000000000000000000000000000000000000000000000008152600401611b69919061246c565b60405180910390fd5b611b7b81611c98565b50565b611b86611d79565b73ffffffffffffffffffffffffffffffffffffffff16611ba4610fc1565b73ffffffffffffffffffffffffffffffffffffffff1614611c0357611bc7611d79565b6040517f118cdaa7000000000000000000000000000000000000000000000000000000008152600401611bfa919061246c565b60405180910390fd5b565b5f5f5f90505b600380549050811015611c57578260038281548110611c2d57611c2c6127e5565b5b905f5260205f2090600502015f015403611c4a5780915050611c93565b8080600101915050611c0b565b506040517f08c379a0000000000000000000000000000000000000000000000000000000008152600401611c8a90612e91565b60405180910390fd5b919050565b5f5f5f9054906101000a900473ffffffffffffffffffffffffffffffffffffffff169050815f5f6101000a81548173ffffffffffffffffffffffffffffffffffffffff021916908373ffffffffffffffffffffffffffffffffffffffff1602179055508173ffffffffffffffffffffffffffffffffffffffff168173ffffffffffffffffffffffffffffffffffffffff167f8be0079c531659141344cd1fd0a4f28419497f9722a3daafe3b4186f6b6457e060405160405180910390a35050565b6001815f015f828254019250508190555050565b5f815f01549050919050565b5f33905090565b6040518060a001604052805f8152602001606081526020015f73ffffffffffffffffffffffffffffffffffffffff1681526020015f81526020015f151581525090565b508054611dcf9061283f565b5f825580601f10611de05750611dfd565b601f0160209004905f5260205f2090810190611dfc9190611e00565b5b50565b5b80821115611e17575f815f905550600101611e01565b5090565b5f82825260208201905092915050565b7f66616c6c6261636b0000000000000000000000000000000000000000000000005f82015250565b5f611e5f600883611e1b565b9150611e6a82611e2b565b602082019050919050565b5f819050919050565b611e8781611e75565b82525050565b5f6040820190508181035f830152611ea481611e53565b9050611eb36020830184611e7e565b92915050565b5f604051905090565b5f5ffd5b5f5ffd5b5f819050919050565b611edc81611eca565b8114611ee6575f5ffd5b50565b5f81359050611ef781611ed3565b92915050565b5f5ffd5b5f5ffd5b5f601f19601f8301169050919050565b7f4e487b71000000000000000000000000000000000000000000000000000000005f52604160045260245ffd5b611f4b82611f05565b810181811067ffffffffffffffff82111715611f6a57611f69611f15565b5b80604052505050565b5f611f7c611eb9565b9050611f888282611f42565b919050565b5f67ffffffffffffffff821115611fa757611fa6611f15565b5b611fb082611f05565b9050602081019050919050565b828183375f83830152505050565b5f611fdd611fd884611f8d565b611f73565b905082815260208101848484011115611ff957611ff8611f01565b5b612004848285611fbd565b509392505050565b5f82601f8301126120205761201f611efd565b5b8135612030848260208601611fcb565b91505092915050565b5f73ffffffffffffffffffffffffffffffffffffffff82169050919050565b5f61206282612039565b9050919050565b61207281612058565b811461207c575f5ffd5b50565b5f8135905061208d81612069565b92915050565b5f5f5f606084860312156120aa576120a9611ec2565b5b5f6120b786828701611ee9565b935050602084013567ffffffffffffffff8111156120d8576120d7611ec6565b5b6120e48682870161200c565b92505060406120f58682870161207f565b9150509250925092565b5f8115159050919050565b612113816120ff565b82525050565b5f60208201905061212c5f83018461210a565b92915050565b5f6020820190506121455f830184611e7e565b92915050565b5f5f5f6060848603121561216257612161611ec2565b5b5f61216f86828701611ee9565b935050602061218086828701611ee9565b925050604084013567ffffffffffffffff8111156121a1576121a0611ec6565b5b6121ad8682870161200c565b9150509250925092565b6121c081611e75565b81146121ca575f5ffd5b50565b5f813590506121db816121b7565b92915050565b5f602082840312156121f6576121f5611ec2565b5b5f612203848285016121cd565b91505092915050565b61221581611eca565b82525050565b5f81519050919050565b5f5b83811015612242578082015181840152602081019050612227565b5f8484015250505050565b5f6122578261221b565b6122618185611e1b565b9350612271818560208601612225565b61227a81611f05565b840191505092915050565b61228e81612058565b82525050565b5f60a0820190506122a75f83018861220c565b81810360208301526122b9818761224d565b90506122c86040830186612285565b6122d56060830185611e7e565b6122e2608083018461210a565b9695505050505050565b5f6020828403121561230157612300611ec2565b5b5f61230e84828501611ee9565b91505092915050565b61232081611eca565b82525050565b5f82825260208201905092915050565b5f6123408261221b565b61234a8185612326565b935061235a818560208601612225565b61236381611f05565b840191505092915050565b61237781612058565b82525050565b61238681611e75565b82525050565b612395816120ff565b82525050565b5f60a083015f8301516123b05f860182612317565b50602083015184820360208601526123c88282612336565b91505060408301516123dd604086018261236e565b5060608301516123f0606086018261237d565b506080830151612403608086018261238c565b508091505092915050565b5f6020820190508181035f830152612426818461239b565b905092915050565b5f5f6040838503121561244457612443611ec2565b5b5f61245185828601611ee9565b925050602061246285828601611ee9565b9150509250929050565b5f60208201905061247f5f830184612285565b92915050565b5f5f6040838503121561249b5761249a611ec2565b5b5f6124a885828601611ee9565b925050602083013567ffffffffffffffff8111156124c9576124c8611ec6565b5b6124d58582860161200c565b9150509250929050565b5f6124e982612039565b9050919050565b6124f9816124df565b8114612503575f5ffd5b50565b5f81359050612514816124f0565b92915050565b5f5f604083850312156125305761252f611ec2565b5b5f61253d85828601612506565b925050602061254e858286016121cd565b9150509250929050565b5f5f6040838503121561256e5761256d611ec2565b5b5f83013567ffffffffffffffff81111561258b5761258a611ec6565b5b6125978582860161200c565b92505060206125a88582860161207f565b9150509250929050565b5f6020820190506125c55f83018461220c565b92915050565b5f6020820190508181035f8301526125e3818461224d565b905092915050565b5f5f6040838503121561260157612600611ec2565b5b5f61260e85828601611ee9565b925050602061261f8582860161207f565b9150509250929050565b5f81519050919050565b5f82825260208201905092915050565b5f819050602082019050919050565b5f60a083015f8301516126675f860182612317565b506020830151848203602086015261267f8282612336565b9150506040830151612694604086018261236e565b5060608301516126a7606086018261237d565b5060808301516126ba608086018261238c565b508091505092915050565b5f6126d08383612652565b905092915050565b5f602082019050919050565b5f6126ee82612629565b6126f88185612633565b93508360208202850161270a85612643565b805f5b85811015612745578484038952815161272685826126c5565b9450612731836126d8565b925060208a0199505060018101905061270d565b50829750879550505050505092915050565b5f6040820190508181035f83015261276f81856126e4565b905061277e6020830184611e7e565b9392505050565b5f6060820190506127985f83018661220c565b6127a56020830185612285565b6127b26040830184611e7e565b949350505050565b5f602082840312156127cf576127ce611ec2565b5b5f6127dc8482850161207f565b91505092915050565b7f4e487b71000000000000000000000000000000000000000000000000000000005f52603260045260245ffd5b7f4e487b71000000000000000000000000000000000000000000000000000000005f52602260045260245ffd5b5f600282049050600182168061285657607f821691505b60208210810361286957612868612812565b5b50919050565b5f819050815f5260205f209050919050565b5f6020601f8301049050919050565b5f82821b905092915050565b5f600883026128cb7fffffffffffffffffffffffffffffffffffffffffffffffffffffffffffffffff82612890565b6128d58683612890565b95508019841693508086168417925050509392505050565b5f819050919050565b5f61291061290b61290684611e75565b6128ed565b611e75565b9050919050565b5f819050919050565b612929836128f6565b61293d61293582612917565b84845461289c565b825550505050565b5f5f905090565b612954612945565b61295f818484612920565b505050565b5b81811015612982576129775f8261294c565b600181019050612965565b5050565b601f8211156129c7576129988161286f565b6129a184612881565b810160208510156129b0578190505b6129c46129bc85612881565b830182612964565b50505b505050565b5f82821c905092915050565b5f6129e75f19846008026129cc565b1980831691505092915050565b5f6129ff83836129d8565b9150826002028217905092915050565b612a188261221b565b67ffffffffffffffff811115612a3157612a30611f15565b5b612a3b825461283f565b612a46828285612986565b5f60209050601f831160018114612a77575f8415612a65578287015190505b612a6f85826129f4565b865550612ad6565b601f198416612a858661286f565b5f5b82811015612aac57848901518255600182019150602085019450602081019050612a87565b86831015612ac95784890151612ac5601f8916826129d8565b8355505b6001600288020188555050505b505050505050565b7f5468652073656e646572206973206e6f7420746865206d616e61676572206f665f8201527f2074686520656e7465726564206170702049442e000000000000000000000000602082015250565b5f612b38603483611e1b565b9150612b4382612ade565b604082019050919050565b5f6020820190508181035f830152612b6581612b2c565b9050919050565b5f81905092915050565b50565b5f612b845f83612b6c565b9150612b8f82612b76565b5f82019050919050565b5f612ba382612b79565b9150819050919050565b7f4661696c656420746f2073656e642045746865720000000000000000000000005f82015250565b5f612be1601483611e1b565b9150612bec82612bad565b602082019050919050565b5f6020820190508181035f830152612c0e81612bd5565b9050919050565b7f5468652064417070496420656e746572656420686173206e6f74206265656e205f8201527f6465636c61726564206f7220617070726f766564207965742e00000000000000602082015250565b5f612c6f603983611e1b565b9150612c7a82612c15565b604082019050919050565b5f6020820190508181035f830152612c9c81612c63565b9050919050565b5f604082019050612cb65f83018561220c565b612cc36020830184612285565b9392505050565b5f604082019050612cdd5f830185611e7e565b612cea6020830184611e7e565b9392505050565b5f6040820190508181035f830152612d09818561224d565b9050612d18602083018461210a565b9392505050565b7f4e487b71000000000000000000000000000000000000000000000000000000005f52601160045260245ffd5b5f612d5682611e75565b91507fffffffffffffffffffffffffffffffffffffffffffffffffffffffffffffffff8203612d8857612d87612d1f565b5b600182019050919050565b7f546865206d616e61676572206164647265737320666f722074686520617070205f8201527f494420796f7520656e746572656420686173206e6f74206265656e206465746560208201527f726d696e65642e00000000000000000000000000000000000000000000000000604082015250565b5f612e13604783611e1b565b9150612e1e82612d93565b606082019050919050565b5f6020820190508181035f830152612e4081612e07565b9050919050565b7f417070204964204e6f7420466f756e64000000000000000000000000000000005f82015250565b5f612e7b601083611e1b565b9150612e8682612e47565b602082019050919050565b5f6020820190508181035f830152612ea881612e6f565b905091905056fea2646970667358221220b6ab51aebde98f9d56ac4bf1a65166f14b3cb4c58cceb0a9020c7f45b6673e5b64736f6c634300081c0033",
					"opcodes": "PUSH1 0x80 PUSH1 0x40 MSTORE CALLVALUE DUP1 ISZERO PUSH2 0xF JUMPI PUSH0 PUSH0 REVERT JUMPDEST POP CALLER PUSH0 PUSH20 0xFFFFFFFFFFFFFFFFFFFFFFFFFFFFFFFFFFFFFFFF AND DUP2 PUSH20 0xFFFFFFFFFFFFFFFFFFFFFFFFFFFFFFFFFFFFFFFF AND SUB PUSH2 0x81 JUMPI PUSH0 PUSH1 0x40 MLOAD PUSH32 0x1E4FBDF700000000000000000000000000000000000000000000000000000000 DUP2 MSTORE PUSH1 0x4 ADD PUSH2 0x78 SWAP2 SWAP1 PUSH2 0x1D0 JUMP JUMPDEST PUSH1 0x40 MLOAD DUP1 SWAP2 SUB SWAP1 REVERT JUMPDEST PUSH2 0x90 DUP2 PUSH2 0xC4 PUSH1 0x20 SHL PUSH1 0x20 SHR JUMP JUMPDEST POP PUSH0 PUSH2 0xA2 PUSH1 0x1 PUSH2 0x185 PUSH1 0x20 SHL PUSH1 0x20 SHR JUMP JUMPDEST EQ PUSH2 0xB0 JUMPI PUSH2 0xAF PUSH2 0x1E9 JUMP JUMPDEST JUMPDEST PUSH8 0xDE0B6B3A7640000 PUSH1 0x2 DUP2 SWAP1 SSTORE POP PUSH2 0x216 JUMP JUMPDEST PUSH0 PUSH0 PUSH0 SWAP1 SLOAD SWAP1 PUSH2 0x100 EXP SWAP1 DIV PUSH20 0xFFFFFFFFFFFFFFFFFFFFFFFFFFFFFFFFFFFFFFFF AND SWAP1 POP DUP2 PUSH0 PUSH0 PUSH2 0x100 EXP DUP2 SLOAD DUP2 PUSH20 0xFFFFFFFFFFFFFFFFFFFFFFFFFFFFFFFFFFFFFFFF MUL NOT AND SWAP1 DUP4 PUSH20 0xFFFFFFFFFFFFFFFFFFFFFFFFFFFFFFFFFFFFFFFF AND MUL OR SWAP1 SSTORE POP DUP2 PUSH20 0xFFFFFFFFFFFFFFFFFFFFFFFFFFFFFFFFFFFFFFFF AND DUP2 PUSH20 0xFFFFFFFFFFFFFFFFFFFFFFFFFFFFFFFFFFFFFFFF AND PUSH32 0x8BE0079C531659141344CD1FD0A4F28419497F9722A3DAAFE3B4186F6B6457E0 PUSH1 0x40 MLOAD PUSH1 0x40 MLOAD DUP1 SWAP2 SUB SWAP1 LOG3 POP POP JUMP JUMPDEST PUSH0 DUP2 PUSH0 ADD SLOAD SWAP1 POP SWAP2 SWAP1 POP JUMP JUMPDEST PUSH0 PUSH20 0xFFFFFFFFFFFFFFFFFFFFFFFFFFFFFFFFFFFFFFFF DUP3 AND SWAP1 POP SWAP2 SWAP1 POP JUMP JUMPDEST PUSH0 PUSH2 0x1BA DUP3 PUSH2 0x191 JUMP JUMPDEST SWAP1 POP SWAP2 SWAP1 POP JUMP JUMPDEST PUSH2 0x1CA DUP2 PUSH2 0x1B0 JUMP JUMPDEST DUP3 MSTORE POP POP JUMP JUMPDEST PUSH0 PUSH1 0x20 DUP3 ADD SWAP1 POP PUSH2 0x1E3 PUSH0 DUP4 ADD DUP5 PUSH2 0x1C1 JUMP JUMPDEST SWAP3 SWAP2 POP POP JUMP JUMPDEST PUSH32 0x4E487B7100000000000000000000000000000000000000000000000000000000 PUSH0 MSTORE PUSH1 0x1 PUSH1 0x4 MSTORE PUSH1 0x24 PUSH0 REVERT JUMPDEST PUSH2 0x2EE5 DUP1 PUSH2 0x223 PUSH0 CODECOPY PUSH0 RETURN INVALID PUSH1 0x80 PUSH1 0x40 MSTORE PUSH1 0x4 CALLDATASIZE LT PUSH2 0x184 JUMPI PUSH0 CALLDATALOAD PUSH1 0xE0 SHR DUP1 PUSH4 0xA035B1FE GT PUSH2 0xD0 JUMPI DUP1 PUSH4 0xC37F016C GT PUSH2 0x89 JUMPI DUP1 PUSH4 0xE0CAA729 GT PUSH2 0x63 JUMPI DUP1 PUSH4 0xE0CAA729 EQ PUSH2 0x5DF JUMPI DUP1 PUSH4 0xE82935DA EQ PUSH2 0x61B JUMPI DUP1 PUSH4 0xEA2B77F2 EQ PUSH2 0x659 JUMPI DUP1 PUSH4 0xF2FDE38B EQ PUSH2 0x695 JUMPI PUSH2 0x18B JUMP JUMPDEST DUP1 PUSH4 0xC37F016C EQ PUSH2 0x53C JUMPI DUP1 PUSH4 0xC5BDC0D3 EQ PUSH2 0x578 JUMPI DUP1 PUSH4 0xD0F34B10 EQ PUSH2 0x5B4 JUMPI PUSH2 0x18B JUMP JUMPDEST DUP1 PUSH4 0xA035B1FE EQ PUSH2 0x418 JUMPI DUP1 PUSH4 0xA15ED1BC EQ PUSH2 0x442 JUMPI DUP1 PUSH4 0xA375765E EQ PUSH2 0x46C JUMPI DUP1 PUSH4 0xA9059CBB EQ PUSH2 0x4A8 JUMPI DUP1 PUSH4 0xB440C736 EQ PUSH2 0x4D0 JUMPI DUP1 PUSH4 0xC3105A6B EQ PUSH2 0x500 JUMPI PUSH2 0x18B JUMP JUMPDEST DUP1 PUSH4 0x47A8CFA4 GT PUSH2 0x13D JUMPI DUP1 PUSH4 0x715018A6 GT PUSH2 0x117 JUMPI DUP1 PUSH4 0x715018A6 EQ PUSH2 0x374 JUMPI DUP1 PUSH4 0x78B67B4F EQ PUSH2 0x38A JUMPI DUP1 PUSH4 0x8DA5CB5B EQ PUSH2 0x3C6 JUMPI DUP1 PUSH4 0x91B7F5ED EQ PUSH2 0x3F0 JUMPI PUSH2 0x18B JUMP JUMPDEST DUP1 PUSH4 0x47A8CFA4 EQ PUSH2 0x2E4 JUMPI DUP1 PUSH4 0x5DE3B598 EQ PUSH2 0x30E JUMPI DUP1 PUSH4 0x5E4710A2 EQ PUSH2 0x34A JUMPI PUSH2 0x18B JUMP JUMPDEST DUP1 PUSH4 0xAB03BF2 EQ PUSH2 0x1C4 JUMPI DUP1 PUSH4 0x12065FE0 EQ PUSH2 0x200 JUMPI DUP1 PUSH4 0x22A01240 EQ PUSH2 0x22A JUMPI DUP1 PUSH4 0x33E466AE EQ PUSH2 0x252 JUMPI DUP1 PUSH4 0x3CCFD60B EQ PUSH2 0x292 JUMPI DUP1 PUSH4 0x42C71F1D EQ PUSH2 0x2A8 JUMPI PUSH2 0x18B JUMP JUMPDEST CALLDATASIZE PUSH2 0x18B JUMPI STOP JUMPDEST PUSH32 0xDD970DD9B5BFE707922155B058A407655CB18288B807E2216442BCA8AD83D6B5 GAS PUSH1 0x40 MLOAD PUSH2 0x1BA SWAP2 SWAP1 PUSH2 0x1E8D JUMP JUMPDEST PUSH1 0x40 MLOAD DUP1 SWAP2 SUB SWAP1 LOG1 STOP JUMPDEST CALLVALUE DUP1 ISZERO PUSH2 0x1CF JUMPI PUSH0 PUSH0 REVERT JUMPDEST POP PUSH2 0x1EA PUSH1 0x4 DUP1 CALLDATASIZE SUB DUP2 ADD SWAP1 PUSH2 0x1E5 SWAP2 SWAP1 PUSH2 0x2093 JUMP JUMPDEST PUSH2 0x6BD JUMP JUMPDEST PUSH1 0x40 MLOAD PUSH2 0x1F7 SWAP2 SWAP1 PUSH2 0x2119 JUMP JUMPDEST PUSH1 0x40 MLOAD DUP1 SWAP2 SUB SWAP1 RETURN JUMPDEST CALLVALUE DUP1 ISZERO PUSH2 0x20B JUMPI PUSH0 PUSH0 REVERT JUMPDEST POP PUSH2 0x214 PUSH2 0x770 JUMP JUMPDEST PUSH1 0x40 MLOAD PUSH2 0x221 SWAP2 SWAP1 PUSH2 0x2132 JUMP JUMPDEST PUSH1 0x40 MLOAD DUP1 SWAP2 SUB SWAP1 RETURN JUMPDEST CALLVALUE DUP1 ISZERO PUSH2 0x235 JUMPI PUSH0 PUSH0 REVERT JUMPDEST POP PUSH2 0x250 PUSH1 0x4 DUP1 CALLDATASIZE SUB DUP2 ADD SWAP1 PUSH2 0x24B SWAP2 SWAP1 PUSH2 0x214B JUMP JUMPDEST PUSH2 0x77F JUMP JUMPDEST STOP JUMPDEST CALLVALUE DUP1 ISZERO PUSH2 0x25D JUMPI PUSH0 PUSH0 REVERT JUMPDEST POP PUSH2 0x278 PUSH1 0x4 DUP1 CALLDATASIZE SUB DUP2 ADD SWAP1 PUSH2 0x273 SWAP2 SWAP1 PUSH2 0x21E1 JUMP JUMPDEST PUSH2 0x871 JUMP JUMPDEST PUSH1 0x40 MLOAD PUSH2 0x289 SWAP6 SWAP5 SWAP4 SWAP3 SWAP2 SWAP1 PUSH2 0x2294 JUMP JUMPDEST PUSH1 0x40 MLOAD DUP1 SWAP2 SUB SWAP1 RETURN JUMPDEST CALLVALUE DUP1 ISZERO PUSH2 0x29D JUMPI PUSH0 PUSH0 REVERT JUMPDEST POP PUSH2 0x2A6 PUSH2 0x963 JUMP JUMPDEST STOP JUMPDEST CALLVALUE DUP1 ISZERO PUSH2 0x2B3 JUMPI PUSH0 PUSH0 REVERT JUMPDEST POP PUSH2 0x2CE PUSH1 0x4 DUP1 CALLDATASIZE SUB DUP2 ADD SWAP1 PUSH2 0x2C9 SWAP2 SWAP1 PUSH2 0x22EC JUMP JUMPDEST PUSH2 0xA22 JUMP JUMPDEST PUSH1 0x40 MLOAD PUSH2 0x2DB SWAP2 SWAP1 PUSH2 0x240E JUMP JUMPDEST PUSH1 0x40 MLOAD DUP1 SWAP2 SUB SWAP1 RETURN JUMPDEST CALLVALUE DUP1 ISZERO PUSH2 0x2EF JUMPI PUSH0 PUSH0 REVERT JUMPDEST POP PUSH2 0x2F8 PUSH2 0xC31 JUMP JUMPDEST PUSH1 0x40 MLOAD PUSH2 0x305 SWAP2 SWAP1 PUSH2 0x2132 JUMP JUMPDEST PUSH1 0x40 MLOAD DUP1 SWAP2 SUB SWAP1 RETURN JUMPDEST CALLVALUE DUP1 ISZERO PUSH2 0x319 JUMPI PUSH0 PUSH0 REVERT JUMPDEST POP PUSH2 0x334 PUSH1 0x4 DUP1 CALLDATASIZE SUB DUP2 ADD SWAP1 PUSH2 0x32F SWAP2 SWAP1 PUSH2 0x242E JUMP JUMPDEST PUSH2 0xC3D JUMP JUMPDEST PUSH1 0x40 MLOAD PUSH2 0x341 SWAP2 SWAP1 PUSH2 0x2119 JUMP JUMPDEST PUSH1 0x40 MLOAD DUP1 SWAP2 SUB SWAP1 RETURN JUMPDEST CALLVALUE DUP1 ISZERO PUSH2 0x355 JUMPI PUSH0 PUSH0 REVERT JUMPDEST POP PUSH2 0x35E PUSH2 0xD32 JUMP JUMPDEST PUSH1 0x40 MLOAD PUSH2 0x36B SWAP2 SWAP1 PUSH2 0x2132 JUMP JUMPDEST PUSH1 0x40 MLOAD DUP1 SWAP2 SUB SWAP1 RETURN JUMPDEST CALLVALUE DUP1 ISZERO PUSH2 0x37F JUMPI PUSH0 PUSH0 REVERT JUMPDEST POP PUSH2 0x388 PUSH2 0xD3D JUMP JUMPDEST STOP JUMPDEST CALLVALUE DUP1 ISZERO PUSH2 0x395 JUMPI PUSH0 PUSH0 REVERT JUMPDEST POP PUSH2 0x3B0 PUSH1 0x4 DUP1 CALLDATASIZE SUB DUP2 ADD SWAP1 PUSH2 0x3AB SWAP2 SWAP1 PUSH2 0x22EC JUMP JUMPDEST PUSH2 0xD50 JUMP JUMPDEST PUSH1 0x40 MLOAD PUSH2 0x3BD SWAP2 SWAP1 PUSH2 0x2119 JUMP JUMPDEST PUSH1 0x40 MLOAD DUP1 SWAP2 SUB SWAP1 RETURN JUMPDEST CALLVALUE DUP1 ISZERO PUSH2 0x3D1 JUMPI PUSH0 PUSH0 REVERT JUMPDEST POP PUSH2 0x3DA PUSH2 0xFC1 JUMP JUMPDEST PUSH1 0x40 MLOAD PUSH2 0x3E7 SWAP2 SWAP1 PUSH2 0x246C JUMP JUMPDEST PUSH1 0x40 MLOAD DUP1 SWAP2 SUB SWAP1 RETURN JUMPDEST CALLVALUE DUP1 ISZERO PUSH2 0x3FB JUMPI PUSH0 PUSH0 REVERT JUMPDEST POP PUSH2 0x416 PUSH1 0x4 DUP1 CALLDATASIZE SUB DUP2 ADD SWAP1 PUSH2 0x411 SWAP2 SWAP1 PUSH2 0x21E1 JUMP JUMPDEST PUSH2 0xFE8 JUMP JUMPDEST STOP JUMPDEST CALLVALUE DUP1 ISZERO PUSH2 0x423 JUMPI PUSH0 PUSH0 REVERT JUMPDEST POP PUSH2 0x42C PUSH2 0xFFA JUMP JUMPDEST PUSH1 0x40 MLOAD PUSH2 0x439 SWAP2 SWAP1 PUSH2 0x2132 JUMP JUMPDEST PUSH1 0x40 MLOAD DUP1 SWAP2 SUB SWAP1 RETURN JUMPDEST CALLVALUE DUP1 ISZERO PUSH2 0x44D JUMPI PUSH0 PUSH0 REVERT JUMPDEST POP PUSH2 0x456 PUSH2 0x1000 JUMP JUMPDEST PUSH1 0x40 MLOAD PUSH2 0x463 SWAP2 SWAP1 PUSH2 0x2132 JUMP JUMPDEST PUSH1 0x40 MLOAD DUP1 SWAP2 SUB SWAP1 RETURN JUMPDEST CALLVALUE DUP1 ISZERO PUSH2 0x477 JUMPI PUSH0 PUSH0 REVERT JUMPDEST POP PUSH2 0x492 PUSH1 0x4 DUP1 CALLDATASIZE SUB DUP2 ADD SWAP1 PUSH2 0x48D SWAP2 SWAP1 PUSH2 0x2485 JUMP JUMPDEST PUSH2 0x100C JUMP JUMPDEST PUSH1 0x40 MLOAD PUSH2 0x49F SWAP2 SWAP1 PUSH2 0x2119 JUMP JUMPDEST PUSH1 0x40 MLOAD DUP1 SWAP2 SUB SWAP1 RETURN JUMPDEST CALLVALUE DUP1 ISZERO PUSH2 0x4B3 JUMPI PUSH0 PUSH0 REVERT JUMPDEST POP PUSH2 0x4CE PUSH1 0x4 DUP1 CALLDATASIZE SUB DUP2 ADD SWAP1 PUSH2 0x4C9 SWAP2 SWAP1 PUSH2 0x251A JUMP JUMPDEST PUSH2 0x1114 JUMP JUMPDEST STOP JUMPDEST PUSH2 0x4EA PUSH1 0x4 DUP1 CALLDATASIZE SUB DUP2 ADD SWAP1 PUSH2 0x4E5 SWAP2 SWAP1 PUSH2 0x2558 JUMP JUMPDEST PUSH2 0x11C9 JUMP JUMPDEST PUSH1 0x40 MLOAD PUSH2 0x4F7 SWAP2 SWAP1 PUSH2 0x25B2 JUMP JUMPDEST PUSH1 0x40 MLOAD DUP1 SWAP2 SUB SWAP1 RETURN JUMPDEST CALLVALUE DUP1 ISZERO PUSH2 0x50B JUMPI PUSH0 PUSH0 REVERT JUMPDEST POP PUSH2 0x526 PUSH1 0x4 DUP1 CALLDATASIZE SUB DUP2 ADD SWAP1 PUSH2 0x521 SWAP2 SWAP1 PUSH2 0x242E JUMP JUMPDEST PUSH2 0x14DA JUMP JUMPDEST PUSH1 0x40 MLOAD PUSH2 0x533 SWAP2 SWAP1 PUSH2 0x25CB JUMP JUMPDEST PUSH1 0x40 MLOAD DUP1 SWAP2 SUB SWAP1 RETURN JUMPDEST CALLVALUE DUP1 ISZERO PUSH2 0x547 JUMPI PUSH0 PUSH0 REVERT JUMPDEST POP PUSH2 0x562 PUSH1 0x4 DUP1 CALLDATASIZE SUB DUP2 ADD SWAP1 PUSH2 0x55D SWAP2 SWAP1 PUSH2 0x22EC JUMP JUMPDEST PUSH2 0x158B JUMP JUMPDEST PUSH1 0x40 MLOAD PUSH2 0x56F SWAP2 SWAP1 PUSH2 0x2132 JUMP JUMPDEST PUSH1 0x40 MLOAD DUP1 SWAP2 SUB SWAP1 RETURN JUMPDEST CALLVALUE DUP1 ISZERO PUSH2 0x583 JUMPI PUSH0 PUSH0 REVERT JUMPDEST POP PUSH2 0x59E PUSH1 0x4 DUP1 CALLDATASIZE SUB DUP2 ADD SWAP1 PUSH2 0x599 SWAP2 SWAP1 PUSH2 0x25EB JUMP JUMPDEST PUSH2 0x15F1 JUMP JUMPDEST PUSH1 0x40 MLOAD PUSH2 0x5AB SWAP2 SWAP1 PUSH2 0x240E JUMP JUMPDEST PUSH1 0x40 MLOAD DUP1 SWAP2 SUB SWAP1 RETURN JUMPDEST CALLVALUE DUP1 ISZERO PUSH2 0x5BF JUMPI PUSH0 PUSH0 REVERT JUMPDEST POP PUSH2 0x5C8 PUSH2 0x1800 JUMP JUMPDEST PUSH1 0x40 MLOAD PUSH2 0x5D6 SWAP3 SWAP2 SWAP1 PUSH2 0x2757 JUMP JUMPDEST PUSH1 0x40 MLOAD DUP1 SWAP2 SUB SWAP1 RETURN JUMPDEST CALLVALUE DUP1 ISZERO PUSH2 0x5EA JUMPI PUSH0 PUSH0 REVERT JUMPDEST POP PUSH2 0x605 PUSH1 0x4 DUP1 CALLDATASIZE SUB DUP2 ADD SWAP1 PUSH2 0x600 SWAP2 SWAP1 PUSH2 0x242E JUMP JUMPDEST PUSH2 0x197A JUMP JUMPDEST PUSH1 0x40 MLOAD PUSH2 0x612 SWAP2 SWAP1 PUSH2 0x25CB JUMP JUMPDEST PUSH1 0x40 MLOAD DUP1 SWAP2 SUB SWAP1 RETURN JUMPDEST CALLVALUE DUP1 ISZERO PUSH2 0x626 JUMPI PUSH0 PUSH0 REVERT JUMPDEST POP PUSH2 0x641 PUSH1 0x4 DUP1 CALLDATASIZE SUB DUP2 ADD SWAP1 PUSH2 0x63C SWAP2 SWAP1 PUSH2 0x21E1 JUMP JUMPDEST PUSH2 0x1A20 JUMP JUMPDEST PUSH1 0x40 MLOAD PUSH2 0x650 SWAP4 SWAP3 SWAP2 SWAP1 PUSH2 0x2785 JUMP JUMPDEST PUSH1 0x40 MLOAD DUP1 SWAP2 SUB SWAP1 RETURN JUMPDEST CALLVALUE DUP1 ISZERO PUSH2 0x664 JUMPI PUSH0 PUSH0 REVERT JUMPDEST POP PUSH2 0x67F PUSH1 0x4 DUP1 CALLDATASIZE SUB DUP2 ADD SWAP1 PUSH2 0x67A SWAP2 SWAP1 PUSH2 0x22EC JUMP JUMPDEST PUSH2 0x1A74 JUMP JUMPDEST PUSH1 0x40 MLOAD PUSH2 0x68C SWAP2 SWAP1 PUSH2 0x2119 JUMP JUMPDEST PUSH1 0x40 MLOAD DUP1 SWAP2 SUB SWAP1 RETURN JUMPDEST CALLVALUE DUP1 ISZERO PUSH2 0x6A0 JUMPI PUSH0 PUSH0 REVERT JUMPDEST POP PUSH2 0x6BB PUSH1 0x4 DUP1 CALLDATASIZE SUB DUP2 ADD SWAP1 PUSH2 0x6B6 SWAP2 SWAP1 PUSH2 0x27BA JUMP JUMPDEST PUSH2 0x1AFA JUMP JUMPDEST STOP JUMPDEST PUSH0 PUSH2 0x6C6 PUSH2 0x1B7E JUMP JUMPDEST PUSH0 PUSH2 0x6D0 DUP6 PUSH2 0x1C05 JUMP JUMPDEST SWAP1 POP DUP4 PUSH1 0x3 DUP3 DUP2 SLOAD DUP2 LT PUSH2 0x6E7 JUMPI PUSH2 0x6E6 PUSH2 0x27E5 JUMP JUMPDEST JUMPDEST SWAP1 PUSH0 MSTORE PUSH1 0x20 PUSH0 KECCAK256 SWAP1 PUSH1 0x5 MUL ADD PUSH1 0x1 ADD SWAP1 DUP2 PUSH2 0x702 SWAP2 SWAP1 PUSH2 0x2A0F JUMP JUMPDEST POP DUP3 PUSH1 0x3 DUP3 DUP2 SLOAD DUP2 LT PUSH2 0x718 JUMPI PUSH2 0x717 PUSH2 0x27E5 JUMP JUMPDEST JUMPDEST SWAP1 PUSH0 MSTORE PUSH1 0x20 PUSH0 KECCAK256 SWAP1 PUSH1 0x5 MUL ADD PUSH1 0x2 ADD PUSH0 PUSH2 0x100 EXP DUP2 SLOAD DUP2 PUSH20 0xFFFFFFFFFFFFFFFFFFFFFFFFFFFFFFFFFFFFFFFF MUL NOT AND SWAP1 DUP4 PUSH20 0xFFFFFFFFFFFFFFFFFFFFFFFFFFFFFFFFFFFFFFFF AND MUL OR SWAP1 SSTORE POP PUSH1 0x1 SWAP2 POP POP SWAP4 SWAP3 POP POP POP JUMP JUMPDEST PUSH0 PUSH2 0x779 PUSH2 0x1B7E JUMP JUMPDEST SELFBALANCE SWAP1 POP SWAP1 JUMP JUMPDEST DUP3 PUSH0 PUSH2 0x78A DUP3 PUSH2 0x1C05 JUMP JUMPDEST SWAP1 POP CALLER PUSH20 0xFFFFFFFFFFFFFFFFFFFFFFFFFFFFFFFFFFFFFFFF AND PUSH1 0x3 DUP3 DUP2 SLOAD DUP2 LT PUSH2 0x7B7 JUMPI PUSH2 0x7B6 PUSH2 0x27E5 JUMP JUMPDEST JUMPDEST SWAP1 PUSH0 MSTORE PUSH1 0x20 PUSH0 KECCAK256 SWAP1 PUSH1 0x5 MUL ADD PUSH1 0x2 ADD PUSH0 SWAP1 SLOAD SWAP1 PUSH2 0x100 EXP SWAP1 DIV PUSH20 0xFFFFFFFFFFFFFFFFFFFFFFFFFFFFFFFFFFFFFFFF AND PUSH20 0xFFFFFFFFFFFFFFFFFFFFFFFFFFFFFFFFFFFFFFFF AND EQ PUSH2 0x83C JUMPI PUSH1 0x40 MLOAD PUSH32 0x8C379A000000000000000000000000000000000000000000000000000000000 DUP2 MSTORE PUSH1 0x4 ADD PUSH2 0x833 SWAP1 PUSH2 0x2B4E JUMP JUMPDEST PUSH1 0x40 MLOAD DUP1 SWAP2 SUB SWAP1 REVERT JUMPDEST DUP3 PUSH1 0x5 PUSH0 DUP8 DUP2 MSTORE PUSH1 0x20 ADD SWAP1 DUP2 MSTORE PUSH1 0x20 ADD PUSH0 KECCAK256 PUSH0 DUP7 DUP2 MSTORE PUSH1 0x20 ADD SWAP1 DUP2 MSTORE PUSH1 0x20 ADD PUSH0 KECCAK256 SWAP1 DUP2 PUSH2 0x869 SWAP2 SWAP1 PUSH2 0x2A0F JUMP JUMPDEST POP POP POP POP POP POP JUMP JUMPDEST PUSH1 0x3 DUP2 DUP2 SLOAD DUP2 LT PUSH2 0x880 JUMPI PUSH0 DUP1 REVERT JUMPDEST SWAP1 PUSH0 MSTORE PUSH1 0x20 PUSH0 KECCAK256 SWAP1 PUSH1 0x5 MUL ADD PUSH0 SWAP2 POP SWAP1 POP DUP1 PUSH0 ADD SLOAD SWAP1 DUP1 PUSH1 0x1 ADD DUP1 SLOAD PUSH2 0x8A5 SWAP1 PUSH2 0x283F JUMP JUMPDEST DUP1 PUSH1 0x1F ADD PUSH1 0x20 DUP1 SWAP2 DIV MUL PUSH1 0x20 ADD PUSH1 0x40 MLOAD SWAP1 DUP2 ADD PUSH1 0x40 MSTORE DUP1 SWAP3 SWAP2 SWAP1 DUP2 DUP2 MSTORE PUSH1 0x20 ADD DUP3 DUP1 SLOAD PUSH2 0x8D1 SWAP1 PUSH2 0x283F JUMP JUMPDEST DUP1 ISZERO PUSH2 0x91C JUMPI DUP1 PUSH1 0x1F LT PUSH2 0x8F3 JUMPI PUSH2 0x100 DUP1 DUP4 SLOAD DIV MUL DUP4 MSTORE SWAP2 PUSH1 0x20 ADD SWAP2 PUSH2 0x91C JUMP JUMPDEST DUP3 ADD SWAP2 SWAP1 PUSH0 MSTORE PUSH1 0x20 PUSH0 KECCAK256 SWAP1 JUMPDEST DUP2 SLOAD DUP2 MSTORE SWAP1 PUSH1 0x1 ADD SWAP1 PUSH1 0x20 ADD DUP1 DUP4 GT PUSH2 0x8FF JUMPI DUP3 SWAP1 SUB PUSH1 0x1F AND DUP3 ADD SWAP2 JUMPDEST POP POP POP POP POP SWAP1 DUP1 PUSH1 0x2 ADD PUSH0 SWAP1 SLOAD SWAP1 PUSH2 0x100 EXP SWAP1 DIV PUSH20 0xFFFFFFFFFFFFFFFFFFFFFFFFFFFFFFFFFFFFFFFF AND SWAP1 DUP1 PUSH1 0x3 ADD SLOAD SWAP1 DUP1 PUSH1 0x4 ADD PUSH0 SWAP1 SLOAD SWAP1 PUSH2 0x100 EXP SWAP1 DIV PUSH1 0xFF AND SWAP1 POP DUP6 JUMP JUMPDEST PUSH2 0x96B PUSH2 0x1B7E JUMP JUMPDEST PUSH0 SELFBALANCE SWAP1 POP PUSH0 PUSH2 0x978 PUSH2 0xFC1 JUMP JUMPDEST PUSH20 0xFFFFFFFFFFFFFFFFFFFFFFFFFFFFFFFFFFFFFFFF AND DUP3 PUSH1 0x40 MLOAD PUSH2 0x99B SWAP1 PUSH2 0x2B99 JUMP JUMPDEST PUSH0 PUSH1 0x40 MLOAD DUP1 DUP4 SUB DUP2 DUP6 DUP8 GAS CALL SWAP3 POP POP POP RETURNDATASIZE DUP1 PUSH0 DUP2 EQ PUSH2 0x9D5 JUMPI PUSH1 0x40 MLOAD SWAP2 POP PUSH1 0x1F NOT PUSH1 0x3F RETURNDATASIZE ADD AND DUP3 ADD PUSH1 0x40 MSTORE RETURNDATASIZE DUP3 MSTORE RETURNDATASIZE PUSH0 PUSH1 0x20 DUP5 ADD RETURNDATACOPY PUSH2 0x9DA JUMP JUMPDEST PUSH1 0x60 SWAP2 POP JUMPDEST POP POP SWAP1 POP DUP1 PUSH2 0xA1E JUMPI PUSH1 0x40 MLOAD PUSH32 0x8C379A000000000000000000000000000000000000000000000000000000000 DUP2 MSTORE PUSH1 0x4 ADD PUSH2 0xA15 SWAP1 PUSH2 0x2BF7 JUMP JUMPDEST PUSH1 0x40 MLOAD DUP1 SWAP2 SUB SWAP1 REVERT JUMPDEST POP POP JUMP JUMPDEST PUSH2 0xA2A PUSH2 0x1D80 JUMP JUMPDEST PUSH0 PUSH0 SWAP1 POP JUMPDEST PUSH1 0x3 DUP1 SLOAD SWAP1 POP DUP2 LT ISZERO PUSH2 0xBF0 JUMPI DUP3 PUSH1 0x3 DUP3 DUP2 SLOAD DUP2 LT PUSH2 0xA51 JUMPI PUSH2 0xA50 PUSH2 0x27E5 JUMP JUMPDEST JUMPDEST SWAP1 PUSH0 MSTORE PUSH1 0x20 PUSH0 KECCAK256 SWAP1 PUSH1 0x5 MUL ADD PUSH0 ADD SLOAD EQ DUP1 ISZERO PUSH2 0xA99 JUMPI POP PUSH1 0x3 DUP2 DUP2 SLOAD DUP2 LT PUSH2 0xA7C JUMPI PUSH2 0xA7B PUSH2 0x27E5 JUMP JUMPDEST JUMPDEST SWAP1 PUSH0 MSTORE PUSH1 0x20 PUSH0 KECCAK256 SWAP1 PUSH1 0x5 MUL ADD PUSH1 0x4 ADD PUSH0 SWAP1 SLOAD SWAP1 PUSH2 0x100 EXP SWAP1 DIV PUSH1 0xFF AND JUMPDEST ISZERO PUSH2 0xBE3 JUMPI PUSH1 0x3 DUP2 DUP2 SLOAD DUP2 LT PUSH2 0xAB2 JUMPI PUSH2 0xAB1 PUSH2 0x27E5 JUMP JUMPDEST JUMPDEST SWAP1 PUSH0 MSTORE PUSH1 0x20 PUSH0 KECCAK256 SWAP1 PUSH1 0x5 MUL ADD PUSH1 0x40 MLOAD DUP1 PUSH1 0xA0 ADD PUSH1 0x40 MSTORE SWAP1 DUP2 PUSH0 DUP3 ADD SLOAD DUP2 MSTORE PUSH1 0x20 ADD PUSH1 0x1 DUP3 ADD DUP1 SLOAD PUSH2 0xAE2 SWAP1 PUSH2 0x283F JUMP JUMPDEST DUP1 PUSH1 0x1F ADD PUSH1 0x20 DUP1 SWAP2 DIV MUL PUSH1 0x20 ADD PUSH1 0x40 MLOAD SWAP1 DUP2 ADD PUSH1 0x40 MSTORE DUP1 SWAP3 SWAP2 SWAP1 DUP2 DUP2 MSTORE PUSH1 0x20 ADD DUP3 DUP1 SLOAD PUSH2 0xB0E SWAP1 PUSH2 0x283F JUMP JUMPDEST DUP1 ISZERO PUSH2 0xB59 JUMPI DUP1 PUSH1 0x1F LT PUSH2 0xB30 JUMPI PUSH2 0x100 DUP1 DUP4 SLOAD DIV MUL DUP4 MSTORE SWAP2 PUSH1 0x20 ADD SWAP2 PUSH2 0xB59 JUMP JUMPDEST DUP3 ADD SWAP2 SWAP1 PUSH0 MSTORE PUSH1 0x20 PUSH0 KECCAK256 SWAP1 JUMPDEST DUP2 SLOAD DUP2 MSTORE SWAP1 PUSH1 0x1 ADD SWAP1 PUSH1 0x20 ADD DUP1 DUP4 GT PUSH2 0xB3C JUMPI DUP3 SWAP1 SUB PUSH1 0x1F AND DUP3 ADD SWAP2 JUMPDEST POP POP POP POP POP DUP2 MSTORE PUSH1 0x20 ADD PUSH1 0x2 DUP3 ADD PUSH0 SWAP1 SLOAD SWAP1 PUSH2 0x100 EXP SWAP1 DIV PUSH20 0xFFFFFFFFFFFFFFFFFFFFFFFFFFFFFFFFFFFFFFFF AND PUSH20 0xFFFFFFFFFFFFFFFFFFFFFFFFFFFFFFFFFFFFFFFF AND PUSH20 0xFFFFFFFFFFFFFFFFFFFFFFFFFFFFFFFFFFFFFFFF AND DUP2 MSTORE PUSH1 0x20 ADD PUSH1 0x3 DUP3 ADD SLOAD DUP2 MSTORE PUSH1 0x20 ADD PUSH1 0x4 DUP3 ADD PUSH0 SWAP1 SLOAD SWAP1 PUSH2 0x100 EXP SWAP1 DIV PUSH1 0xFF AND ISZERO ISZERO ISZERO ISZERO DUP2 MSTORE POP POP SWAP2 POP POP PUSH2 0xC2C JUMP JUMPDEST DUP1 DUP1 PUSH1 0x1 ADD SWAP2 POP POP PUSH2 0xA2F JUMP JUMPDEST POP PUSH1 0x40 MLOAD PUSH32 0x8C379A000000000000000000000000000000000000000000000000000000000 DUP2 MSTORE PUSH1 0x4 ADD PUSH2 0xC23 SWAP1 PUSH2 0x2C85 JUMP JUMPDEST PUSH1 0x40 MLOAD DUP1 SWAP2 SUB SWAP1 REVERT JUMPDEST SWAP2 SWAP1 POP JUMP JUMPDEST PUSH0 PUSH1 0x3 DUP1 SLOAD SWAP1 POP SWAP1 POP SWAP1 JUMP JUMPDEST PUSH0 DUP3 PUSH0 PUSH2 0xC49 DUP3 PUSH2 0x1C05 JUMP JUMPDEST SWAP1 POP CALLER PUSH20 0xFFFFFFFFFFFFFFFFFFFFFFFFFFFFFFFFFFFFFFFF AND PUSH1 0x3 DUP3 DUP2 SLOAD DUP2 LT PUSH2 0xC76 JUMPI PUSH2 0xC75 PUSH2 0x27E5 JUMP JUMPDEST JUMPDEST SWAP1 PUSH0 MSTORE PUSH1 0x20 PUSH0 KECCAK256 SWAP1 PUSH1 0x5 MUL ADD PUSH1 0x2 ADD PUSH0 SWAP1 SLOAD SWAP1 PUSH2 0x100 EXP SWAP1 DIV PUSH20 0xFFFFFFFFFFFFFFFFFFFFFFFFFFFFFFFFFFFFFFFF AND PUSH20 0xFFFFFFFFFFFFFFFFFFFFFFFFFFFFFFFFFFFFFFFF AND EQ PUSH2 0xCFB JUMPI PUSH1 0x40 MLOAD PUSH32 0x8C379A000000000000000000000000000000000000000000000000000000000 DUP2 MSTORE PUSH1 0x4 ADD PUSH2 0xCF2 SWAP1 PUSH2 0x2B4E JUMP JUMPDEST PUSH1 0x40 MLOAD DUP1 SWAP2 SUB SWAP1 REVERT JUMPDEST PUSH1 0x5 PUSH0 DUP7 DUP2 MSTORE PUSH1 0x20 ADD SWAP1 DUP2 MSTORE PUSH1 0x20 ADD PUSH0 KECCAK256 PUSH0 DUP6 DUP2 MSTORE PUSH1 0x20 ADD SWAP1 DUP2 MSTORE PUSH1 0x20 ADD PUSH0 KECCAK256 PUSH0 PUSH2 0xD26 SWAP2 SWAP1 PUSH2 0x1DC3 JUMP JUMPDEST PUSH1 0x1 SWAP3 POP POP POP SWAP3 SWAP2 POP POP JUMP JUMPDEST PUSH1 0x1 DUP1 PUSH0 ADD SLOAD SWAP1 POP DUP2 JUMP JUMPDEST PUSH2 0xD45 PUSH2 0x1B7E JUMP JUMPDEST PUSH2 0xD4E PUSH0 PUSH2 0x1C98 JUMP JUMPDEST JUMP JUMPDEST PUSH0 PUSH0 PUSH2 0xD5B DUP4 PUSH2 0x1C05 JUMP JUMPDEST SWAP1 POP PUSH0 PUSH0 SWAP1 POP JUMPDEST PUSH1 0x4 DUP1 SLOAD SWAP1 POP DUP2 LT ISZERO PUSH2 0xE9D JUMPI CALLER PUSH20 0xFFFFFFFFFFFFFFFFFFFFFFFFFFFFFFFFFFFFFFFF AND PUSH1 0x4 DUP3 DUP2 SLOAD DUP2 LT PUSH2 0xD9A JUMPI PUSH2 0xD99 PUSH2 0x27E5 JUMP JUMPDEST JUMPDEST SWAP1 PUSH0 MSTORE PUSH1 0x20 PUSH0 KECCAK256 SWAP1 PUSH1 0x3 MUL ADD PUSH1 0x1 ADD PUSH0 SWAP1 SLOAD SWAP1 PUSH2 0x100 EXP SWAP1 DIV PUSH20 0xFFFFFFFFFFFFFFFFFFFFFFFFFFFFFFFFFFFFFFFF AND PUSH20 0xFFFFFFFFFFFFFFFFFFFFFFFFFFFFFFFFFFFFFFFF AND EQ DUP1 ISZERO PUSH2 0xE0D JUMPI POP DUP4 PUSH1 0x4 DUP3 DUP2 SLOAD DUP2 LT PUSH2 0xDFC JUMPI PUSH2 0xDFB PUSH2 0x27E5 JUMP JUMPDEST JUMPDEST SWAP1 PUSH0 MSTORE PUSH1 0x20 PUSH0 KECCAK256 SWAP1 PUSH1 0x3 MUL ADD PUSH0 ADD SLOAD EQ JUMPDEST DUP1 ISZERO PUSH2 0xE4C JUMPI POP PUSH2 0xE1C PUSH2 0xFC1 JUMP JUMPDEST PUSH20 0xFFFFFFFFFFFFFFFFFFFFFFFFFFFFFFFFFFFFFFFF AND CALLER PUSH20 0xFFFFFFFFFFFFFFFFFFFFFFFFFFFFFFFFFFFFFFFF AND EQ ISZERO JUMPDEST ISZERO PUSH2 0xE90 JUMPI DUP4 CALLER PUSH1 0x40 MLOAD PUSH32 0x6549438900000000000000000000000000000000000000000000000000000000 DUP2 MSTORE PUSH1 0x4 ADD PUSH2 0xE87 SWAP3 SWAP2 SWAP1 PUSH2 0x2CA3 JUMP JUMPDEST PUSH1 0x40 MLOAD DUP1 SWAP2 SUB SWAP1 REVERT JUMPDEST DUP1 DUP1 PUSH1 0x1 ADD SWAP2 POP POP PUSH2 0xD62 JUMP JUMPDEST POP PUSH1 0x4 PUSH1 0x40 MLOAD DUP1 PUSH1 0x60 ADD PUSH1 0x40 MSTORE DUP1 PUSH1 0x3 DUP5 DUP2 SLOAD DUP2 LT PUSH2 0xEBF JUMPI PUSH2 0xEBE PUSH2 0x27E5 JUMP JUMPDEST JUMPDEST SWAP1 PUSH0 MSTORE PUSH1 0x20 PUSH0 KECCAK256 SWAP1 PUSH1 0x5 MUL ADD PUSH0 ADD SLOAD DUP2 MSTORE PUSH1 0x20 ADD CALLER PUSH20 0xFFFFFFFFFFFFFFFFFFFFFFFFFFFFFFFFFFFFFFFF AND DUP2 MSTORE PUSH1 0x20 ADD TIMESTAMP DUP2 MSTORE POP SWAP1 DUP1 PUSH1 0x1 DUP2 SLOAD ADD DUP1 DUP3 SSTORE DUP1 SWAP2 POP POP PUSH1 0x1 SWAP1 SUB SWAP1 PUSH0 MSTORE PUSH1 0x20 PUSH0 KECCAK256 SWAP1 PUSH1 0x3 MUL ADD PUSH0 SWAP1 SWAP2 SWAP1 SWAP2 SWAP1 SWAP2 POP PUSH0 DUP3 ADD MLOAD DUP2 PUSH0 ADD SSTORE PUSH1 0x20 DUP3 ADD MLOAD DUP2 PUSH1 0x1 ADD PUSH0 PUSH2 0x100 EXP DUP2 SLOAD DUP2 PUSH20 0xFFFFFFFFFFFFFFFFFFFFFFFFFFFFFFFFFFFFFFFF MUL NOT AND SWAP1 DUP4 PUSH20 0xFFFFFFFFFFFFFFFFFFFFFFFFFFFFFFFFFFFFFFFF AND MUL OR SWAP1 SSTORE POP PUSH1 0x40 DUP3 ADD MLOAD DUP2 PUSH1 0x2 ADD SSTORE POP POP DUP3 CALLER PUSH20 0xFFFFFFFFFFFFFFFFFFFFFFFFFFFFFFFFFFFFFFFF AND PUSH32 0x4BC97985CF53112A2A1B8C2E8AA21E365AE3DD22EEA30342C5D299CA3F775912 PUSH1 0x40 MLOAD PUSH1 0x40 MLOAD DUP1 SWAP2 SUB SWAP1 LOG3 PUSH1 0x1 SWAP2 POP POP SWAP2 SWAP1 POP JUMP JUMPDEST PUSH0 PUSH0 PUSH0 SWAP1 SLOAD SWAP1 PUSH2 0x100 EXP SWAP1 DIV PUSH20 0xFFFFFFFFFFFFFFFFFFFFFFFFFFFFFFFFFFFFFFFF AND SWAP1 POP SWAP1 JUMP JUMPDEST PUSH2 0xFF0 PUSH2 0x1B7E JUMP JUMPDEST DUP1 PUSH1 0x2 DUP2 SWAP1 SSTORE POP POP JUMP JUMPDEST PUSH1 0x2 SLOAD DUP2 JUMP JUMPDEST PUSH0 PUSH1 0x4 DUP1 SLOAD SWAP1 POP SWAP1 POP SWAP1 JUMP JUMPDEST PUSH0 DUP3 PUSH0 PUSH2 0x1018 DUP3 PUSH2 0x1C05 JUMP JUMPDEST SWAP1 POP CALLER PUSH20 0xFFFFFFFFFFFFFFFFFFFFFFFFFFFFFFFFFFFFFFFF AND PUSH1 0x3 DUP3 DUP2 SLOAD DUP2 LT PUSH2 0x1045 JUMPI PUSH2 0x1044 PUSH2 0x27E5 JUMP JUMPDEST JUMPDEST SWAP1 PUSH0 MSTORE PUSH1 0x20 PUSH0 KECCAK256 SWAP1 PUSH1 0x5 MUL ADD PUSH1 0x2 ADD PUSH0 SWAP1 SLOAD SWAP1 PUSH2 0x100 EXP SWAP1 DIV PUSH20 0xFFFFFFFFFFFFFFFFFFFFFFFFFFFFFFFFFFFFFFFF AND PUSH20 0xFFFFFFFFFFFFFFFFFFFFFFFFFFFFFFFFFFFFFFFF AND EQ PUSH2 0x10CA JUMPI PUSH1 0x40 MLOAD PUSH32 0x8C379A000000000000000000000000000000000000000000000000000000000 DUP2 MSTORE PUSH1 0x4 ADD PUSH2 0x10C1 SWAP1 PUSH2 0x2B4E JUMP JUMPDEST PUSH1 0x40 MLOAD DUP1 SWAP2 SUB SWAP1 REVERT JUMPDEST PUSH0 PUSH2 0x10D4 DUP7 PUSH2 0x1C05 JUMP JUMPDEST SWAP1 POP DUP5 PUSH1 0x3 DUP3 DUP2 SLOAD DUP2 LT PUSH2 0x10EB JUMPI PUSH2 0x10EA PUSH2 0x27E5 JUMP JUMPDEST JUMPDEST SWAP1 PUSH0 MSTORE PUSH1 0x20 PUSH0 KECCAK256 SWAP1 PUSH1 0x5 MUL ADD PUSH1 0x1 ADD SWAP1 DUP2 PUSH2 0x1106 SWAP2 SWAP1 PUSH2 0x2A0F JUMP JUMPDEST POP PUSH1 0x1 SWAP4 POP POP POP POP SWAP3 SWAP2 POP POP JUMP JUMPDEST PUSH2 0x111C PUSH2 0x1B7E JUMP JUMPDEST PUSH0 DUP3 PUSH20 0xFFFFFFFFFFFFFFFFFFFFFFFFFFFFFFFFFFFFFFFF AND DUP3 PUSH1 0x40 MLOAD PUSH2 0x1141 SWAP1 PUSH2 0x2B99 JUMP JUMPDEST PUSH0 PUSH1 0x40 MLOAD DUP1 DUP4 SUB DUP2 DUP6 DUP8 GAS CALL SWAP3 POP POP POP RETURNDATASIZE DUP1 PUSH0 DUP2 EQ PUSH2 0x117B JUMPI PUSH1 0x40 MLOAD SWAP2 POP PUSH1 0x1F NOT PUSH1 0x3F RETURNDATASIZE ADD AND DUP3 ADD PUSH1 0x40 MSTORE RETURNDATASIZE DUP3 MSTORE RETURNDATASIZE PUSH0 PUSH1 0x20 DUP5 ADD RETURNDATACOPY PUSH2 0x1180 JUMP JUMPDEST PUSH1 0x60 SWAP2 POP JUMPDEST POP POP SWAP1 POP DUP1 PUSH2 0x11C4 JUMPI PUSH1 0x40 MLOAD PUSH32 0x8C379A000000000000000000000000000000000000000000000000000000000 DUP2 MSTORE PUSH1 0x4 ADD PUSH2 0x11BB SWAP1 PUSH2 0x2BF7 JUMP JUMPDEST PUSH1 0x40 MLOAD DUP1 SWAP2 SUB SWAP1 REVERT JUMPDEST POP POP POP JUMP JUMPDEST PUSH0 PUSH2 0x11D2 PUSH2 0xFC1 JUMP JUMPDEST PUSH20 0xFFFFFFFFFFFFFFFFFFFFFFFFFFFFFFFFFFFFFFFF AND CALLER PUSH20 0xFFFFFFFFFFFFFFFFFFFFFFFFFFFFFFFFFFFFFFFF AND EQ PUSH2 0x1250 JUMPI PUSH1 0x2 SLOAD CALLVALUE LT ISZERO PUSH2 0x124F JUMPI PUSH1 0x2 SLOAD CALLVALUE PUSH1 0x40 MLOAD PUSH32 0xBC03BCCD00000000000000000000000000000000000000000000000000000000 DUP2 MSTORE PUSH1 0x4 ADD PUSH2 0x1246 SWAP3 SWAP2 SWAP1 PUSH2 0x2CCA JUMP JUMPDEST PUSH1 0x40 MLOAD DUP1 SWAP2 SUB SWAP1 REVERT JUMPDEST JUMPDEST PUSH2 0x125A PUSH1 0x1 PUSH2 0x1D59 JUMP JUMPDEST PUSH1 0x3 PUSH1 0x40 MLOAD DUP1 PUSH1 0xA0 ADD PUSH1 0x40 MSTORE DUP1 PUSH2 0x1271 PUSH1 0x1 PUSH2 0x1D6D JUMP JUMPDEST PUSH0 SHL DUP2 MSTORE PUSH1 0x20 ADD DUP6 DUP2 MSTORE PUSH1 0x20 ADD PUSH0 PUSH20 0xFFFFFFFFFFFFFFFFFFFFFFFFFFFFFFFFFFFFFFFF AND DUP6 PUSH20 0xFFFFFFFFFFFFFFFFFFFFFFFFFFFFFFFFFFFFFFFF AND EQ PUSH2 0x12B7 JUMPI DUP5 PUSH2 0x12B9 JUMP JUMPDEST CALLER JUMPDEST PUSH20 0xFFFFFFFFFFFFFFFFFFFFFFFFFFFFFFFFFFFFFFFF AND DUP2 MSTORE PUSH1 0x20 ADD TIMESTAMP DUP2 MSTORE PUSH1 0x20 ADD PUSH2 0x12E2 PUSH2 0xFC1 JUMP JUMPDEST PUSH20 0xFFFFFFFFFFFFFFFFFFFFFFFFFFFFFFFFFFFFFFFF AND CALLER PUSH20 0xFFFFFFFFFFFFFFFFFFFFFFFFFFFFFFFFFFFFFFFF AND EQ PUSH2 0x131A JUMPI PUSH0 PUSH2 0x131D JUMP JUMPDEST PUSH1 0x1 JUMPDEST ISZERO ISZERO DUP2 MSTORE POP SWAP1 DUP1 PUSH1 0x1 DUP2 SLOAD ADD DUP1 DUP3 SSTORE DUP1 SWAP2 POP POP PUSH1 0x1 SWAP1 SUB SWAP1 PUSH0 MSTORE PUSH1 0x20 PUSH0 KECCAK256 SWAP1 PUSH1 0x5 MUL ADD PUSH0 SWAP1 SWAP2 SWAP1 SWAP2 SWAP1 SWAP2 POP PUSH0 DUP3 ADD MLOAD DUP2 PUSH0 ADD SSTORE PUSH1 0x20 DUP3 ADD MLOAD DUP2 PUSH1 0x1 ADD SWAP1 DUP2 PUSH2 0x1365 SWAP2 SWAP1 PUSH2 0x2A0F JUMP JUMPDEST POP PUSH1 0x40 DUP3 ADD MLOAD DUP2 PUSH1 0x2 ADD PUSH0 PUSH2 0x100 EXP DUP2 SLOAD DUP2 PUSH20 0xFFFFFFFFFFFFFFFFFFFFFFFFFFFFFFFFFFFFFFFF MUL NOT AND SWAP1 DUP4 PUSH20 0xFFFFFFFFFFFFFFFFFFFFFFFFFFFFFFFFFFFFFFFF AND MUL OR SWAP1 SSTORE POP PUSH1 0x60 DUP3 ADD MLOAD DUP2 PUSH1 0x3 ADD SSTORE PUSH1 0x80 DUP3 ADD MLOAD DUP2 PUSH1 0x4 ADD PUSH0 PUSH2 0x100 EXP DUP2 SLOAD DUP2 PUSH1 0xFF MUL NOT AND SWAP1 DUP4 ISZERO ISZERO MUL OR SWAP1 SSTORE POP POP POP PUSH0 PUSH20 0xFFFFFFFFFFFFFFFFFFFFFFFFFFFFFFFFFFFFFFFF AND DUP3 PUSH20 0xFFFFFFFFFFFFFFFFFFFFFFFFFFFFFFFFFFFFFFFF AND EQ PUSH2 0x1410 JUMPI DUP2 PUSH2 0x1412 JUMP JUMPDEST CALLER JUMPDEST PUSH20 0xFFFFFFFFFFFFFFFFFFFFFFFFFFFFFFFFFFFFFFFF AND PUSH2 0x1432 PUSH1 0x1 PUSH2 0x1D6D JUMP JUMPDEST PUSH0 SHL CALLER PUSH20 0xFFFFFFFFFFFFFFFFFFFFFFFFFFFFFFFFFFFFFFFF AND PUSH32 0x941CC45C35D8BB191FC75224479D50F4D01C63BEBEE1B21A4B208143104BF44E DUP7 PUSH2 0x1475 PUSH2 0xFC1 JUMP JUMPDEST PUSH20 0xFFFFFFFFFFFFFFFFFFFFFFFFFFFFFFFFFFFFFFFF AND CALLER PUSH20 0xFFFFFFFFFFFFFFFFFFFFFFFFFFFFFFFFFFFFFFFF AND EQ PUSH2 0x14AD JUMPI PUSH0 PUSH2 0x14B0 JUMP JUMPDEST PUSH1 0x1 JUMPDEST PUSH1 0x40 MLOAD PUSH2 0x14BE SWAP3 SWAP2 SWAP1 PUSH2 0x2CF1 JUMP JUMPDEST PUSH1 0x40 MLOAD DUP1 SWAP2 SUB SWAP1 LOG4 PUSH2 0x14D0 PUSH1 0x1 PUSH2 0x1D6D JUMP JUMPDEST PUSH0 SHL SWAP1 POP SWAP3 SWAP2 POP POP JUMP JUMPDEST PUSH1 0x60 PUSH1 0x5 PUSH0 DUP5 DUP2 MSTORE PUSH1 0x20 ADD SWAP1 DUP2 MSTORE PUSH1 0x20 ADD PUSH0 KECCAK256 PUSH0 DUP4 DUP2 MSTORE PUSH1 0x20 ADD SWAP1 DUP2 MSTORE PUSH1 0x20 ADD PUSH0 KECCAK256 DUP1 SLOAD PUSH2 0x1507 SWAP1 PUSH2 0x283F JUMP JUMPDEST DUP1 PUSH1 0x1F ADD PUSH1 0x20 DUP1 SWAP2 DIV MUL PUSH1 0x20 ADD PUSH1 0x40 MLOAD SWAP1 DUP2 ADD PUSH1 0x40 MSTORE DUP1 SWAP3 SWAP2 SWAP1 DUP2 DUP2 MSTORE PUSH1 0x20 ADD DUP3 DUP1 SLOAD PUSH2 0x1533 SWAP1 PUSH2 0x283F JUMP JUMPDEST DUP1 ISZERO PUSH2 0x157E JUMPI DUP1 PUSH1 0x1F LT PUSH2 0x1555 JUMPI PUSH2 0x100 DUP1 DUP4 SLOAD DIV MUL DUP4 MSTORE SWAP2 PUSH1 0x20 ADD SWAP2 PUSH2 0x157E JUMP JUMPDEST DUP3 ADD SWAP2 SWAP1 PUSH0 MSTORE PUSH1 0x20 PUSH0 KECCAK256 SWAP1 JUMPDEST DUP2 SLOAD DUP2 MSTORE SWAP1 PUSH1 0x1 ADD SWAP1 PUSH1 0x20 ADD DUP1 DUP4 GT PUSH2 0x1561 JUMPI DUP3 SWAP1 SUB PUSH1 0x1F AND DUP3 ADD SWAP2 JUMPDEST POP POP POP POP POP SWAP1 POP SWAP3 SWAP2 POP POP JUMP JUMPDEST PUSH0 PUSH0 PUSH0 SWAP1 POP PUSH0 PUSH0 SWAP1 POP JUMPDEST PUSH1 0x4 DUP1 SLOAD SWAP1 POP DUP2 LT ISZERO PUSH2 0x15E7 JUMPI DUP4 PUSH1 0x4 DUP3 DUP2 SLOAD DUP2 LT PUSH2 0x15B7 JUMPI PUSH2 0x15B6 PUSH2 0x27E5 JUMP JUMPDEST JUMPDEST SWAP1 PUSH0 MSTORE PUSH1 0x20 PUSH0 KECCAK256 SWAP1 PUSH1 0x3 MUL ADD PUSH0 ADD SLOAD SUB PUSH2 0x15DA JUMPI DUP2 DUP1 PUSH2 0x15D6 SWAP1 PUSH2 0x2D4C JUMP JUMPDEST SWAP3 POP POP JUMPDEST DUP1 DUP1 PUSH1 0x1 ADD SWAP2 POP POP PUSH2 0x1595 JUMP JUMPDEST POP DUP1 SWAP2 POP POP SWAP2 SWAP1 POP JUMP JUMPDEST PUSH2 0x15F9 PUSH2 0x1D80 JUMP JUMPDEST PUSH0 PUSH2 0x1603 DUP5 PUSH2 0x1C05 JUMP JUMPDEST SWAP1 POP DUP3 PUSH20 0xFFFFFFFFFFFFFFFFFFFFFFFFFFFFFFFFFFFFFFFF AND PUSH1 0x3 DUP3 DUP2 SLOAD DUP2 LT PUSH2 0x1630 JUMPI PUSH2 0x162F PUSH2 0x27E5 JUMP JUMPDEST JUMPDEST SWAP1 PUSH0 MSTORE PUSH1 0x20 PUSH0 KECCAK256 SWAP1 PUSH1 0x5 MUL ADD PUSH1 0x2 ADD PUSH0 SWAP1 SLOAD SWAP1 PUSH2 0x100 EXP SWAP1 DIV PUSH20 0xFFFFFFFFFFFFFFFFFFFFFFFFFFFFFFFFFFFFFFFF AND PUSH20 0xFFFFFFFFFFFFFFFFFFFFFFFFFFFFFFFFFFFFFFFF AND SUB PUSH2 0x17BF JUMPI PUSH1 0x3 DUP2 DUP2 SLOAD DUP2 LT PUSH2 0x168E JUMPI PUSH2 0x168D PUSH2 0x27E5 JUMP JUMPDEST JUMPDEST SWAP1 PUSH0 MSTORE PUSH1 0x20 PUSH0 KECCAK256 SWAP1 PUSH1 0x5 MUL ADD PUSH1 0x40 MLOAD DUP1 PUSH1 0xA0 ADD PUSH1 0x40 MSTORE SWAP1 DUP2 PUSH0 DUP3 ADD SLOAD DUP2 MSTORE PUSH1 0x20 ADD PUSH1 0x1 DUP3 ADD DUP1 SLOAD PUSH2 0x16BE SWAP1 PUSH2 0x283F JUMP JUMPDEST DUP1 PUSH1 0x1F ADD PUSH1 0x20 DUP1 SWAP2 DIV MUL PUSH1 0x20 ADD PUSH1 0x40 MLOAD SWAP1 DUP2 ADD PUSH1 0x40 MSTORE DUP1 SWAP3 SWAP2 SWAP1 DUP2 DUP2 MSTORE PUSH1 0x20 ADD DUP3 DUP1 SLOAD PUSH2 0x16EA SWAP1 PUSH2 0x283F JUMP JUMPDEST DUP1 ISZERO PUSH2 0x1735 JUMPI DUP1 PUSH1 0x1F LT PUSH2 0x170C JUMPI PUSH2 0x100 DUP1 DUP4 SLOAD DIV MUL DUP4 MSTORE SWAP2 PUSH1 0x20 ADD SWAP2 PUSH2 0x1735 JUMP JUMPDEST DUP3 ADD SWAP2 SWAP1 PUSH0 MSTORE PUSH1 0x20 PUSH0 KECCAK256 SWAP1 JUMPDEST DUP2 SLOAD DUP2 MSTORE SWAP1 PUSH1 0x1 ADD SWAP1 PUSH1 0x20 ADD DUP1 DUP4 GT PUSH2 0x1718 JUMPI DUP3 SWAP1 SUB PUSH1 0x1F AND DUP3 ADD SWAP2 JUMPDEST POP POP POP POP POP DUP2 MSTORE PUSH1 0x20 ADD PUSH1 0x2 DUP3 ADD PUSH0 SWAP1 SLOAD SWAP1 PUSH2 0x100 EXP SWAP1 DIV PUSH20 0xFFFFFFFFFFFFFFFFFFFFFFFFFFFFFFFFFFFFFFFF AND PUSH20 0xFFFFFFFFFFFFFFFFFFFFFFFFFFFFFFFFFFFFFFFF AND PUSH20 0xFFFFFFFFFFFFFFFFFFFFFFFFFFFFFFFFFFFFFFFF AND DUP2 MSTORE PUSH1 0x20 ADD PUSH1 0x3 DUP3 ADD SLOAD DUP2 MSTORE PUSH1 0x20 ADD PUSH1 0x4 DUP3 ADD PUSH0 SWAP1 SLOAD SWAP1 PUSH2 0x100 EXP SWAP1 DIV PUSH1 0xFF AND ISZERO ISZERO ISZERO ISZERO DUP2 MSTORE POP POP SWAP2 POP POP PUSH2 0x17FA JUMP JUMPDEST PUSH1 0x40 MLOAD PUSH32 0x8C379A000000000000000000000000000000000000000000000000000000000 DUP2 MSTORE PUSH1 0x4 ADD PUSH2 0x17F1 SWAP1 PUSH2 0x2E29 JUMP JUMPDEST PUSH1 0x40 MLOAD DUP1 SWAP2 SUB SWAP1 REVERT JUMPDEST SWAP3 SWAP2 POP POP JUMP JUMPDEST PUSH1 0x60 PUSH0 PUSH1 0x3 DUP1 DUP1 SLOAD SWAP1 POP DUP2 DUP1 SLOAD DUP1 PUSH1 0x20 MUL PUSH1 0x20 ADD PUSH1 0x40 MLOAD SWAP1 DUP2 ADD PUSH1 0x40 MSTORE DUP1 SWAP3 SWAP2 SWAP1 DUP2 DUP2 MSTORE PUSH1 0x20 ADD PUSH0 SWAP1 JUMPDEST DUP3 DUP3 LT ISZERO PUSH2 0x196C JUMPI DUP4 DUP3 SWAP1 PUSH0 MSTORE PUSH1 0x20 PUSH0 KECCAK256 SWAP1 PUSH1 0x5 MUL ADD PUSH1 0x40 MLOAD DUP1 PUSH1 0xA0 ADD PUSH1 0x40 MSTORE SWAP1 DUP2 PUSH0 DUP3 ADD SLOAD DUP2 MSTORE PUSH1 0x20 ADD PUSH1 0x1 DUP3 ADD DUP1 SLOAD PUSH2 0x1864 SWAP1 PUSH2 0x283F JUMP JUMPDEST DUP1 PUSH1 0x1F ADD PUSH1 0x20 DUP1 SWAP2 DIV MUL PUSH1 0x20 ADD PUSH1 0x40 MLOAD SWAP1 DUP2 ADD PUSH1 0x40 MSTORE DUP1 SWAP3 SWAP2 SWAP1 DUP2 DUP2 MSTORE PUSH1 0x20 ADD DUP3 DUP1 SLOAD PUSH2 0x1890 SWAP1 PUSH2 0x283F JUMP JUMPDEST DUP1 ISZERO PUSH2 0x18DB JUMPI DUP1 PUSH1 0x1F LT PUSH2 0x18B2 JUMPI PUSH2 0x100 DUP1 DUP4 SLOAD DIV MUL DUP4 MSTORE SWAP2 PUSH1 0x20 ADD SWAP2 PUSH2 0x18DB JUMP JUMPDEST DUP3 ADD SWAP2 SWAP1 PUSH0 MSTORE PUSH1 0x20 PUSH0 KECCAK256 SWAP1 JUMPDEST DUP2 SLOAD DUP2 MSTORE SWAP1 PUSH1 0x1 ADD SWAP1 PUSH1 0x20 ADD DUP1 DUP4 GT PUSH2 0x18BE JUMPI DUP3 SWAP1 SUB PUSH1 0x1F AND DUP3 ADD SWAP2 JUMPDEST POP POP POP POP POP DUP2 MSTORE PUSH1 0x20 ADD PUSH1 0x2 DUP3 ADD PUSH0 SWAP1 SLOAD SWAP1 PUSH2 0x100 EXP SWAP1 DIV PUSH20 0xFFFFFFFFFFFFFFFFFFFFFFFFFFFFFFFFFFFFFFFF AND PUSH20 0xFFFFFFFFFFFFFFFFFFFFFFFFFFFFFFFFFFFFFFFF AND PUSH20 0xFFFFFFFFFFFFFFFFFFFFFFFFFFFFFFFFFFFFFFFF AND DUP2 MSTORE PUSH1 0x20 ADD PUSH1 0x3 DUP3 ADD SLOAD DUP2 MSTORE PUSH1 0x20 ADD PUSH1 0x4 DUP3 ADD PUSH0 SWAP1 SLOAD SWAP1 PUSH2 0x100 EXP SWAP1 DIV PUSH1 0xFF AND ISZERO ISZERO ISZERO ISZERO DUP2 MSTORE POP POP DUP2 MSTORE PUSH1 0x20 ADD SWAP1 PUSH1 0x1 ADD SWAP1 PUSH2 0x182A JUMP JUMPDEST POP POP POP POP SWAP2 POP SWAP2 POP SWAP2 POP SWAP1 SWAP2 JUMP JUMPDEST PUSH1 0x5 PUSH1 0x20 MSTORE DUP2 PUSH0 MSTORE PUSH1 0x40 PUSH0 KECCAK256 PUSH1 0x20 MSTORE DUP1 PUSH0 MSTORE PUSH1 0x40 PUSH0 KECCAK256 PUSH0 SWAP2 POP SWAP2 POP POP DUP1 SLOAD PUSH2 0x19A1 SWAP1 PUSH2 0x283F JUMP JUMPDEST DUP1 PUSH1 0x1F ADD PUSH1 0x20 DUP1 SWAP2 DIV MUL PUSH1 0x20 ADD PUSH1 0x40 MLOAD SWAP1 DUP2 ADD PUSH1 0x40 MSTORE DUP1 SWAP3 SWAP2 SWAP1 DUP2 DUP2 MSTORE PUSH1 0x20 ADD DUP3 DUP1 SLOAD PUSH2 0x19CD SWAP1 PUSH2 0x283F JUMP JUMPDEST DUP1 ISZERO PUSH2 0x1A18 JUMPI DUP1 PUSH1 0x1F LT PUSH2 0x19EF JUMPI PUSH2 0x100 DUP1 DUP4 SLOAD DIV MUL DUP4 MSTORE SWAP2 PUSH1 0x20 ADD SWAP2 PUSH2 0x1A18 JUMP JUMPDEST DUP3 ADD SWAP2 SWAP1 PUSH0 MSTORE PUSH1 0x20 PUSH0 KECCAK256 SWAP1 JUMPDEST DUP2 SLOAD DUP2 MSTORE SWAP1 PUSH1 0x1 ADD SWAP1 PUSH1 0x20 ADD DUP1 DUP4 GT PUSH2 0x19FB JUMPI DUP3 SWAP1 SUB PUSH1 0x1F AND DUP3 ADD SWAP2 JUMPDEST POP POP POP POP POP DUP2 JUMP JUMPDEST PUSH1 0x4 DUP2 DUP2 SLOAD DUP2 LT PUSH2 0x1A2F JUMPI PUSH0 DUP1 REVERT JUMPDEST SWAP1 PUSH0 MSTORE PUSH1 0x20 PUSH0 KECCAK256 SWAP1 PUSH1 0x3 MUL ADD PUSH0 SWAP2 POP SWAP1 POP DUP1 PUSH0 ADD SLOAD SWAP1 DUP1 PUSH1 0x1 ADD PUSH0 SWAP1 SLOAD SWAP1 PUSH2 0x100 EXP SWAP1 DIV PUSH20 0xFFFFFFFFFFFFFFFFFFFFFFFFFFFFFFFFFFFFFFFF AND SWAP1 DUP1 PUSH1 0x2 ADD SLOAD SWAP1 POP DUP4 JUMP JUMPDEST PUSH0 PUSH2 0x1A7D PUSH2 0x1B7E JUMP JUMPDEST PUSH0 PUSH2 0x1A87 DUP4 PUSH2 0x1C05 JUMP JUMPDEST SWAP1 POP PUSH1 0x3 DUP2 DUP2 SLOAD DUP2 LT PUSH2 0x1A9D JUMPI PUSH2 0x1A9C PUSH2 0x27E5 JUMP JUMPDEST JUMPDEST SWAP1 PUSH0 MSTORE PUSH1 0x20 PUSH0 KECCAK256 SWAP1 PUSH1 0x5 MUL ADD PUSH1 0x4 ADD PUSH0 SWAP1 SLOAD SWAP1 PUSH2 0x100 EXP SWAP1 DIV PUSH1 0xFF AND ISZERO PUSH1 0x3 DUP3 DUP2 SLOAD DUP2 LT PUSH2 0x1ACE JUMPI PUSH2 0x1ACD PUSH2 0x27E5 JUMP JUMPDEST JUMPDEST SWAP1 PUSH0 MSTORE PUSH1 0x20 PUSH0 KECCAK256 SWAP1 PUSH1 0x5 MUL ADD PUSH1 0x4 ADD PUSH0 PUSH2 0x100 EXP DUP2 SLOAD DUP2 PUSH1 0xFF MUL NOT AND SWAP1 DUP4 ISZERO ISZERO MUL OR SWAP1 SSTORE SWAP2 POP POP SWAP2 SWAP1 POP JUMP JUMPDEST PUSH2 0x1B02 PUSH2 0x1B7E JUMP JUMPDEST PUSH0 PUSH20 0xFFFFFFFFFFFFFFFFFFFFFFFFFFFFFFFFFFFFFFFF AND DUP2 PUSH20 0xFFFFFFFFFFFFFFFFFFFFFFFFFFFFFFFFFFFFFFFF AND SUB PUSH2 0x1B72 JUMPI PUSH0 PUSH1 0x40 MLOAD PUSH32 0x1E4FBDF700000000000000000000000000000000000000000000000000000000 DUP2 MSTORE PUSH1 0x4 ADD PUSH2 0x1B69 SWAP2 SWAP1 PUSH2 0x246C JUMP JUMPDEST PUSH1 0x40 MLOAD DUP1 SWAP2 SUB SWAP1 REVERT JUMPDEST PUSH2 0x1B7B DUP2 PUSH2 0x1C98 JUMP JUMPDEST POP JUMP JUMPDEST PUSH2 0x1B86 PUSH2 0x1D79 JUMP JUMPDEST PUSH20 0xFFFFFFFFFFFFFFFFFFFFFFFFFFFFFFFFFFFFFFFF AND PUSH2 0x1BA4 PUSH2 0xFC1 JUMP JUMPDEST PUSH20 0xFFFFFFFFFFFFFFFFFFFFFFFFFFFFFFFFFFFFFFFF AND EQ PUSH2 0x1C03 JUMPI PUSH2 0x1BC7 PUSH2 0x1D79 JUMP JUMPDEST PUSH1 0x40 MLOAD PUSH32 0x118CDAA700000000000000000000000000000000000000000000000000000000 DUP2 MSTORE PUSH1 0x4 ADD PUSH2 0x1BFA SWAP2 SWAP1 PUSH2 0x246C JUMP JUMPDEST PUSH1 0x40 MLOAD DUP1 SWAP2 SUB SWAP1 REVERT JUMPDEST JUMP JUMPDEST PUSH0 PUSH0 PUSH0 SWAP1 POP JUMPDEST PUSH1 0x3 DUP1 SLOAD SWAP1 POP DUP2 LT ISZERO PUSH2 0x1C57 JUMPI DUP3 PUSH1 0x3 DUP3 DUP2 SLOAD DUP2 LT PUSH2 0x1C2D JUMPI PUSH2 0x1C2C PUSH2 0x27E5 JUMP JUMPDEST JUMPDEST SWAP1 PUSH0 MSTORE PUSH1 0x20 PUSH0 KECCAK256 SWAP1 PUSH1 0x5 MUL ADD PUSH0 ADD SLOAD SUB PUSH2 0x1C4A JUMPI DUP1 SWAP2 POP POP PUSH2 0x1C93 JUMP JUMPDEST DUP1 DUP1 PUSH1 0x1 ADD SWAP2 POP POP PUSH2 0x1C0B JUMP JUMPDEST POP PUSH1 0x40 MLOAD PUSH32 0x8C379A000000000000000000000000000000000000000000000000000000000 DUP2 MSTORE PUSH1 0x4 ADD PUSH2 0x1C8A SWAP1 PUSH2 0x2E91 JUMP JUMPDEST PUSH1 0x40 MLOAD DUP1 SWAP2 SUB SWAP1 REVERT JUMPDEST SWAP2 SWAP1 POP JUMP JUMPDEST PUSH0 PUSH0 PUSH0 SWAP1 SLOAD SWAP1 PUSH2 0x100 EXP SWAP1 DIV PUSH20 0xFFFFFFFFFFFFFFFFFFFFFFFFFFFFFFFFFFFFFFFF AND SWAP1 POP DUP2 PUSH0 PUSH0 PUSH2 0x100 EXP DUP2 SLOAD DUP2 PUSH20 0xFFFFFFFFFFFFFFFFFFFFFFFFFFFFFFFFFFFFFFFF MUL NOT AND SWAP1 DUP4 PUSH20 0xFFFFFFFFFFFFFFFFFFFFFFFFFFFFFFFFFFFFFFFF AND MUL OR SWAP1 SSTORE POP DUP2 PUSH20 0xFFFFFFFFFFFFFFFFFFFFFFFFFFFFFFFFFFFFFFFF AND DUP2 PUSH20 0xFFFFFFFFFFFFFFFFFFFFFFFFFFFFFFFFFFFFFFFF AND PUSH32 0x8BE0079C531659141344CD1FD0A4F28419497F9722A3DAAFE3B4186F6B6457E0 PUSH1 0x40 MLOAD PUSH1 0x40 MLOAD DUP1 SWAP2 SUB SWAP1 LOG3 POP POP JUMP JUMPDEST PUSH1 0x1 DUP2 PUSH0 ADD PUSH0 DUP3 DUP3 SLOAD ADD SWAP3 POP POP DUP2 SWAP1 SSTORE POP POP JUMP JUMPDEST PUSH0 DUP2 PUSH0 ADD SLOAD SWAP1 POP SWAP2 SWAP1 POP JUMP JUMPDEST PUSH0 CALLER SWAP1 POP SWAP1 JUMP JUMPDEST PUSH1 0x40 MLOAD DUP1 PUSH1 0xA0 ADD PUSH1 0x40 MSTORE DUP1 PUSH0 DUP2 MSTORE PUSH1 0x20 ADD PUSH1 0x60 DUP2 MSTORE PUSH1 0x20 ADD PUSH0 PUSH20 0xFFFFFFFFFFFFFFFFFFFFFFFFFFFFFFFFFFFFFFFF AND DUP2 MSTORE PUSH1 0x20 ADD PUSH0 DUP2 MSTORE PUSH1 0x20 ADD PUSH0 ISZERO ISZERO DUP2 MSTORE POP SWAP1 JUMP JUMPDEST POP DUP1 SLOAD PUSH2 0x1DCF SWAP1 PUSH2 0x283F JUMP JUMPDEST PUSH0 DUP3 SSTORE DUP1 PUSH1 0x1F LT PUSH2 0x1DE0 JUMPI POP PUSH2 0x1DFD JUMP JUMPDEST PUSH1 0x1F ADD PUSH1 0x20 SWAP1 DIV SWAP1 PUSH0 MSTORE PUSH1 0x20 PUSH0 KECCAK256 SWAP1 DUP2 ADD SWAP1 PUSH2 0x1DFC SWAP2 SWAP1 PUSH2 0x1E00 JUMP JUMPDEST JUMPDEST POP JUMP JUMPDEST JUMPDEST DUP1 DUP3 GT ISZERO PUSH2 0x1E17 JUMPI PUSH0 DUP2 PUSH0 SWAP1 SSTORE POP PUSH1 0x1 ADD PUSH2 0x1E01 JUMP JUMPDEST POP SWAP1 JUMP JUMPDEST PUSH0 DUP3 DUP3 MSTORE PUSH1 0x20 DUP3 ADD SWAP1 POP SWAP3 SWAP2 POP POP JUMP JUMPDEST PUSH32 0x66616C6C6261636B000000000000000000000000000000000000000000000000 PUSH0 DUP3 ADD MSTORE POP JUMP JUMPDEST PUSH0 PUSH2 0x1E5F PUSH1 0x8 DUP4 PUSH2 0x1E1B JUMP JUMPDEST SWAP2 POP PUSH2 0x1E6A DUP3 PUSH2 0x1E2B JUMP JUMPDEST PUSH1 0x20 DUP3 ADD SWAP1 POP SWAP2 SWAP1 POP JUMP JUMPDEST PUSH0 DUP2 SWAP1 POP SWAP2 SWAP1 POP JUMP JUMPDEST PUSH2 0x1E87 DUP2 PUSH2 0x1E75 JUMP JUMPDEST DUP3 MSTORE POP POP JUMP JUMPDEST PUSH0 PUSH1 0x40 DUP3 ADD SWAP1 POP DUP2 DUP2 SUB PUSH0 DUP4 ADD MSTORE PUSH2 0x1EA4 DUP2 PUSH2 0x1E53 JUMP JUMPDEST SWAP1 POP PUSH2 0x1EB3 PUSH1 0x20 DUP4 ADD DUP5 PUSH2 0x1E7E JUMP JUMPDEST SWAP3 SWAP2 POP POP JUMP JUMPDEST PUSH0 PUSH1 0x40 MLOAD SWAP1 POP SWAP1 JUMP JUMPDEST PUSH0 PUSH0 REVERT JUMPDEST PUSH0 PUSH0 REVERT JUMPDEST PUSH0 DUP2 SWAP1 POP SWAP2 SWAP1 POP JUMP JUMPDEST PUSH2 0x1EDC DUP2 PUSH2 0x1ECA JUMP JUMPDEST DUP2 EQ PUSH2 0x1EE6 JUMPI PUSH0 PUSH0 REVERT JUMPDEST POP JUMP JUMPDEST PUSH0 DUP2 CALLDATALOAD SWAP1 POP PUSH2 0x1EF7 DUP2 PUSH2 0x1ED3 JUMP JUMPDEST SWAP3 SWAP2 POP POP JUMP JUMPDEST PUSH0 PUSH0 REVERT JUMPDEST PUSH0 PUSH0 REVERT JUMPDEST PUSH0 PUSH1 0x1F NOT PUSH1 0x1F DUP4 ADD AND SWAP1 POP SWAP2 SWAP1 POP JUMP JUMPDEST PUSH32 0x4E487B7100000000000000000000000000000000000000000000000000000000 PUSH0 MSTORE PUSH1 0x41 PUSH1 0x4 MSTORE PUSH1 0x24 PUSH0 REVERT JUMPDEST PUSH2 0x1F4B DUP3 PUSH2 0x1F05 JUMP JUMPDEST DUP2 ADD DUP2 DUP2 LT PUSH8 0xFFFFFFFFFFFFFFFF DUP3 GT OR ISZERO PUSH2 0x1F6A JUMPI PUSH2 0x1F69 PUSH2 0x1F15 JUMP JUMPDEST JUMPDEST DUP1 PUSH1 0x40 MSTORE POP POP POP JUMP JUMPDEST PUSH0 PUSH2 0x1F7C PUSH2 0x1EB9 JUMP JUMPDEST SWAP1 POP PUSH2 0x1F88 DUP3 DUP3 PUSH2 0x1F42 JUMP JUMPDEST SWAP2 SWAP1 POP JUMP JUMPDEST PUSH0 PUSH8 0xFFFFFFFFFFFFFFFF DUP3 GT ISZERO PUSH2 0x1FA7 JUMPI PUSH2 0x1FA6 PUSH2 0x1F15 JUMP JUMPDEST JUMPDEST PUSH2 0x1FB0 DUP3 PUSH2 0x1F05 JUMP JUMPDEST SWAP1 POP PUSH1 0x20 DUP2 ADD SWAP1 POP SWAP2 SWAP1 POP JUMP JUMPDEST DUP3 DUP2 DUP4 CALLDATACOPY PUSH0 DUP4 DUP4 ADD MSTORE POP POP POP JUMP JUMPDEST PUSH0 PUSH2 0x1FDD PUSH2 0x1FD8 DUP5 PUSH2 0x1F8D JUMP JUMPDEST PUSH2 0x1F73 JUMP JUMPDEST SWAP1 POP DUP3 DUP2 MSTORE PUSH1 0x20 DUP2 ADD DUP5 DUP5 DUP5 ADD GT ISZERO PUSH2 0x1FF9 JUMPI PUSH2 0x1FF8 PUSH2 0x1F01 JUMP JUMPDEST JUMPDEST PUSH2 0x2004 DUP5 DUP3 DUP6 PUSH2 0x1FBD JUMP JUMPDEST POP SWAP4 SWAP3 POP POP POP JUMP JUMPDEST PUSH0 DUP3 PUSH1 0x1F DUP4 ADD SLT PUSH2 0x2020 JUMPI PUSH2 0x201F PUSH2 0x1EFD JUMP JUMPDEST JUMPDEST DUP2 CALLDATALOAD PUSH2 0x2030 DUP5 DUP3 PUSH1 0x20 DUP7 ADD PUSH2 0x1FCB JUMP JUMPDEST SWAP2 POP POP SWAP3 SWAP2 POP POP JUMP JUMPDEST PUSH0 PUSH20 0xFFFFFFFFFFFFFFFFFFFFFFFFFFFFFFFFFFFFFFFF DUP3 AND SWAP1 POP SWAP2 SWAP1 POP JUMP JUMPDEST PUSH0 PUSH2 0x2062 DUP3 PUSH2 0x2039 JUMP JUMPDEST SWAP1 POP SWAP2 SWAP1 POP JUMP JUMPDEST PUSH2 0x2072 DUP2 PUSH2 0x2058 JUMP JUMPDEST DUP2 EQ PUSH2 0x207C JUMPI PUSH0 PUSH0 REVERT JUMPDEST POP JUMP JUMPDEST PUSH0 DUP2 CALLDATALOAD SWAP1 POP PUSH2 0x208D DUP2 PUSH2 0x2069 JUMP JUMPDEST SWAP3 SWAP2 POP POP JUMP JUMPDEST PUSH0 PUSH0 PUSH0 PUSH1 0x60 DUP5 DUP7 SUB SLT ISZERO PUSH2 0x20AA JUMPI PUSH2 0x20A9 PUSH2 0x1EC2 JUMP JUMPDEST JUMPDEST PUSH0 PUSH2 0x20B7 DUP7 DUP3 DUP8 ADD PUSH2 0x1EE9 JUMP JUMPDEST SWAP4 POP POP PUSH1 0x20 DUP5 ADD CALLDATALOAD PUSH8 0xFFFFFFFFFFFFFFFF DUP2 GT ISZERO PUSH2 0x20D8 JUMPI PUSH2 0x20D7 PUSH2 0x1EC6 JUMP JUMPDEST JUMPDEST PUSH2 0x20E4 DUP7 DUP3 DUP8 ADD PUSH2 0x200C JUMP JUMPDEST SWAP3 POP POP PUSH1 0x40 PUSH2 0x20F5 DUP7 DUP3 DUP8 ADD PUSH2 0x207F JUMP JUMPDEST SWAP2 POP POP SWAP3 POP SWAP3 POP SWAP3 JUMP JUMPDEST PUSH0 DUP2 ISZERO ISZERO SWAP1 POP SWAP2 SWAP1 POP JUMP JUMPDEST PUSH2 0x2113 DUP2 PUSH2 0x20FF JUMP JUMPDEST DUP3 MSTORE POP POP JUMP JUMPDEST PUSH0 PUSH1 0x20 DUP3 ADD SWAP1 POP PUSH2 0x212C PUSH0 DUP4 ADD DUP5 PUSH2 0x210A JUMP JUMPDEST SWAP3 SWAP2 POP POP JUMP JUMPDEST PUSH0 PUSH1 0x20 DUP3 ADD SWAP1 POP PUSH2 0x2145 PUSH0 DUP4 ADD DUP5 PUSH2 0x1E7E JUMP JUMPDEST SWAP3 SWAP2 POP POP JUMP JUMPDEST PUSH0 PUSH0 PUSH0 PUSH1 0x60 DUP5 DUP7 SUB SLT ISZERO PUSH2 0x2162 JUMPI PUSH2 0x2161 PUSH2 0x1EC2 JUMP JUMPDEST JUMPDEST PUSH0 PUSH2 0x216F DUP7 DUP3 DUP8 ADD PUSH2 0x1EE9 JUMP JUMPDEST SWAP4 POP POP PUSH1 0x20 PUSH2 0x2180 DUP7 DUP3 DUP8 ADD PUSH2 0x1EE9 JUMP JUMPDEST SWAP3 POP POP PUSH1 0x40 DUP5 ADD CALLDATALOAD PUSH8 0xFFFFFFFFFFFFFFFF DUP2 GT ISZERO PUSH2 0x21A1 JUMPI PUSH2 0x21A0 PUSH2 0x1EC6 JUMP JUMPDEST JUMPDEST PUSH2 0x21AD DUP7 DUP3 DUP8 ADD PUSH2 0x200C JUMP JUMPDEST SWAP2 POP POP SWAP3 POP SWAP3 POP SWAP3 JUMP JUMPDEST PUSH2 0x21C0 DUP2 PUSH2 0x1E75 JUMP JUMPDEST DUP2 EQ PUSH2 0x21CA JUMPI PUSH0 PUSH0 REVERT JUMPDEST POP JUMP JUMPDEST PUSH0 DUP2 CALLDATALOAD SWAP1 POP PUSH2 0x21DB DUP2 PUSH2 0x21B7 JUMP JUMPDEST SWAP3 SWAP2 POP POP JUMP JUMPDEST PUSH0 PUSH1 0x20 DUP3 DUP5 SUB SLT ISZERO PUSH2 0x21F6 JUMPI PUSH2 0x21F5 PUSH2 0x1EC2 JUMP JUMPDEST JUMPDEST PUSH0 PUSH2 0x2203 DUP5 DUP3 DUP6 ADD PUSH2 0x21CD JUMP JUMPDEST SWAP2 POP POP SWAP3 SWAP2 POP POP JUMP JUMPDEST PUSH2 0x2215 DUP2 PUSH2 0x1ECA JUMP JUMPDEST DUP3 MSTORE POP POP JUMP JUMPDEST PUSH0 DUP2 MLOAD SWAP1 POP SWAP2 SWAP1 POP JUMP JUMPDEST PUSH0 JUMPDEST DUP4 DUP2 LT ISZERO PUSH2 0x2242 JUMPI DUP1 DUP3 ADD MLOAD DUP2 DUP5 ADD MSTORE PUSH1 0x20 DUP2 ADD SWAP1 POP PUSH2 0x2227 JUMP JUMPDEST PUSH0 DUP5 DUP5 ADD MSTORE POP POP POP POP JUMP JUMPDEST PUSH0 PUSH2 0x2257 DUP3 PUSH2 0x221B JUMP JUMPDEST PUSH2 0x2261 DUP2 DUP6 PUSH2 0x1E1B JUMP JUMPDEST SWAP4 POP PUSH2 0x2271 DUP2 DUP6 PUSH1 0x20 DUP7 ADD PUSH2 0x2225 JUMP JUMPDEST PUSH2 0x227A DUP2 PUSH2 0x1F05 JUMP JUMPDEST DUP5 ADD SWAP2 POP POP SWAP3 SWAP2 POP POP JUMP JUMPDEST PUSH2 0x228E DUP2 PUSH2 0x2058 JUMP JUMPDEST DUP3 MSTORE POP POP JUMP JUMPDEST PUSH0 PUSH1 0xA0 DUP3 ADD SWAP1 POP PUSH2 0x22A7 PUSH0 DUP4 ADD DUP9 PUSH2 0x220C JUMP JUMPDEST DUP2 DUP2 SUB PUSH1 0x20 DUP4 ADD MSTORE PUSH2 0x22B9 DUP2 DUP8 PUSH2 0x224D JUMP JUMPDEST SWAP1 POP PUSH2 0x22C8 PUSH1 0x40 DUP4 ADD DUP7 PUSH2 0x2285 JUMP JUMPDEST PUSH2 0x22D5 PUSH1 0x60 DUP4 ADD DUP6 PUSH2 0x1E7E JUMP JUMPDEST PUSH2 0x22E2 PUSH1 0x80 DUP4 ADD DUP5 PUSH2 0x210A JUMP JUMPDEST SWAP7 SWAP6 POP POP POP POP POP POP JUMP JUMPDEST PUSH0 PUSH1 0x20 DUP3 DUP5 SUB SLT ISZERO PUSH2 0x2301 JUMPI PUSH2 0x2300 PUSH2 0x1EC2 JUMP JUMPDEST JUMPDEST PUSH0 PUSH2 0x230E DUP5 DUP3 DUP6 ADD PUSH2 0x1EE9 JUMP JUMPDEST SWAP2 POP POP SWAP3 SWAP2 POP POP JUMP JUMPDEST PUSH2 0x2320 DUP2 PUSH2 0x1ECA JUMP JUMPDEST DUP3 MSTORE POP POP JUMP JUMPDEST PUSH0 DUP3 DUP3 MSTORE PUSH1 0x20 DUP3 ADD SWAP1 POP SWAP3 SWAP2 POP POP JUMP JUMPDEST PUSH0 PUSH2 0x2340 DUP3 PUSH2 0x221B JUMP JUMPDEST PUSH2 0x234A DUP2 DUP6 PUSH2 0x2326 JUMP JUMPDEST SWAP4 POP PUSH2 0x235A DUP2 DUP6 PUSH1 0x20 DUP7 ADD PUSH2 0x2225 JUMP JUMPDEST PUSH2 0x2363 DUP2 PUSH2 0x1F05 JUMP JUMPDEST DUP5 ADD SWAP2 POP POP SWAP3 SWAP2 POP POP JUMP JUMPDEST PUSH2 0x2377 DUP2 PUSH2 0x2058 JUMP JUMPDEST DUP3 MSTORE POP POP JUMP JUMPDEST PUSH2 0x2386 DUP2 PUSH2 0x1E75 JUMP JUMPDEST DUP3 MSTORE POP POP JUMP JUMPDEST PUSH2 0x2395 DUP2 PUSH2 0x20FF JUMP JUMPDEST DUP3 MSTORE POP POP JUMP JUMPDEST PUSH0 PUSH1 0xA0 DUP4 ADD PUSH0 DUP4 ADD MLOAD PUSH2 0x23B0 PUSH0 DUP7 ADD DUP3 PUSH2 0x2317 JUMP JUMPDEST POP PUSH1 0x20 DUP4 ADD MLOAD DUP5 DUP3 SUB PUSH1 0x20 DUP7 ADD MSTORE PUSH2 0x23C8 DUP3 DUP3 PUSH2 0x2336 JUMP JUMPDEST SWAP2 POP POP PUSH1 0x40 DUP4 ADD MLOAD PUSH2 0x23DD PUSH1 0x40 DUP7 ADD DUP3 PUSH2 0x236E JUMP JUMPDEST POP PUSH1 0x60 DUP4 ADD MLOAD PUSH2 0x23F0 PUSH1 0x60 DUP7 ADD DUP3 PUSH2 0x237D JUMP JUMPDEST POP PUSH1 0x80 DUP4 ADD MLOAD PUSH2 0x2403 PUSH1 0x80 DUP7 ADD DUP3 PUSH2 0x238C JUMP JUMPDEST POP DUP1 SWAP2 POP POP SWAP3 SWAP2 POP POP JUMP JUMPDEST PUSH0 PUSH1 0x20 DUP3 ADD SWAP1 POP DUP2 DUP2 SUB PUSH0 DUP4 ADD MSTORE PUSH2 0x2426 DUP2 DUP5 PUSH2 0x239B JUMP JUMPDEST SWAP1 POP SWAP3 SWAP2 POP POP JUMP JUMPDEST PUSH0 PUSH0 PUSH1 0x40 DUP4 DUP6 SUB SLT ISZERO PUSH2 0x2444 JUMPI PUSH2 0x2443 PUSH2 0x1EC2 JUMP JUMPDEST JUMPDEST PUSH0 PUSH2 0x2451 DUP6 DUP3 DUP7 ADD PUSH2 0x1EE9 JUMP JUMPDEST SWAP3 POP POP PUSH1 0x20 PUSH2 0x2462 DUP6 DUP3 DUP7 ADD PUSH2 0x1EE9 JUMP JUMPDEST SWAP2 POP POP SWAP3 POP SWAP3 SWAP1 POP JUMP JUMPDEST PUSH0 PUSH1 0x20 DUP3 ADD SWAP1 POP PUSH2 0x247F PUSH0 DUP4 ADD DUP5 PUSH2 0x2285 JUMP JUMPDEST SWAP3 SWAP2 POP POP JUMP JUMPDEST PUSH0 PUSH0 PUSH1 0x40 DUP4 DUP6 SUB SLT ISZERO PUSH2 0x249B JUMPI PUSH2 0x249A PUSH2 0x1EC2 JUMP JUMPDEST JUMPDEST PUSH0 PUSH2 0x24A8 DUP6 DUP3 DUP7 ADD PUSH2 0x1EE9 JUMP JUMPDEST SWAP3 POP POP PUSH1 0x20 DUP4 ADD CALLDATALOAD PUSH8 0xFFFFFFFFFFFFFFFF DUP2 GT ISZERO PUSH2 0x24C9 JUMPI PUSH2 0x24C8 PUSH2 0x1EC6 JUMP JUMPDEST JUMPDEST PUSH2 0x24D5 DUP6 DUP3 DUP7 ADD PUSH2 0x200C JUMP JUMPDEST SWAP2 POP POP SWAP3 POP SWAP3 SWAP1 POP JUMP JUMPDEST PUSH0 PUSH2 0x24E9 DUP3 PUSH2 0x2039 JUMP JUMPDEST SWAP1 POP SWAP2 SWAP1 POP JUMP JUMPDEST PUSH2 0x24F9 DUP2 PUSH2 0x24DF JUMP JUMPDEST DUP2 EQ PUSH2 0x2503 JUMPI PUSH0 PUSH0 REVERT JUMPDEST POP JUMP JUMPDEST PUSH0 DUP2 CALLDATALOAD SWAP1 POP PUSH2 0x2514 DUP2 PUSH2 0x24F0 JUMP JUMPDEST SWAP3 SWAP2 POP POP JUMP JUMPDEST PUSH0 PUSH0 PUSH1 0x40 DUP4 DUP6 SUB SLT ISZERO PUSH2 0x2530 JUMPI PUSH2 0x252F PUSH2 0x1EC2 JUMP JUMPDEST JUMPDEST PUSH0 PUSH2 0x253D DUP6 DUP3 DUP7 ADD PUSH2 0x2506 JUMP JUMPDEST SWAP3 POP POP PUSH1 0x20 PUSH2 0x254E DUP6 DUP3 DUP7 ADD PUSH2 0x21CD JUMP JUMPDEST SWAP2 POP POP SWAP3 POP SWAP3 SWAP1 POP JUMP JUMPDEST PUSH0 PUSH0 PUSH1 0x40 DUP4 DUP6 SUB SLT ISZERO PUSH2 0x256E JUMPI PUSH2 0x256D PUSH2 0x1EC2 JUMP JUMPDEST JUMPDEST PUSH0 DUP4 ADD CALLDATALOAD PUSH8 0xFFFFFFFFFFFFFFFF DUP2 GT ISZERO PUSH2 0x258B JUMPI PUSH2 0x258A PUSH2 0x1EC6 JUMP JUMPDEST JUMPDEST PUSH2 0x2597 DUP6 DUP3 DUP7 ADD PUSH2 0x200C JUMP JUMPDEST SWAP3 POP POP PUSH1 0x20 PUSH2 0x25A8 DUP6 DUP3 DUP7 ADD PUSH2 0x207F JUMP JUMPDEST SWAP2 POP POP SWAP3 POP SWAP3 SWAP1 POP JUMP JUMPDEST PUSH0 PUSH1 0x20 DUP3 ADD SWAP1 POP PUSH2 0x25C5 PUSH0 DUP4 ADD DUP5 PUSH2 0x220C JUMP JUMPDEST SWAP3 SWAP2 POP POP JUMP JUMPDEST PUSH0 PUSH1 0x20 DUP3 ADD SWAP1 POP DUP2 DUP2 SUB PUSH0 DUP4 ADD MSTORE PUSH2 0x25E3 DUP2 DUP5 PUSH2 0x224D JUMP JUMPDEST SWAP1 POP SWAP3 SWAP2 POP POP JUMP JUMPDEST PUSH0 PUSH0 PUSH1 0x40 DUP4 DUP6 SUB SLT ISZERO PUSH2 0x2601 JUMPI PUSH2 0x2600 PUSH2 0x1EC2 JUMP JUMPDEST JUMPDEST PUSH0 PUSH2 0x260E DUP6 DUP3 DUP7 ADD PUSH2 0x1EE9 JUMP JUMPDEST SWAP3 POP POP PUSH1 0x20 PUSH2 0x261F DUP6 DUP3 DUP7 ADD PUSH2 0x207F JUMP JUMPDEST SWAP2 POP POP SWAP3 POP SWAP3 SWAP1 POP JUMP JUMPDEST PUSH0 DUP2 MLOAD SWAP1 POP SWAP2 SWAP1 POP JUMP JUMPDEST PUSH0 DUP3 DUP3 MSTORE PUSH1 0x20 DUP3 ADD SWAP1 POP SWAP3 SWAP2 POP POP JUMP JUMPDEST PUSH0 DUP2 SWAP1 POP PUSH1 0x20 DUP3 ADD SWAP1 POP SWAP2 SWAP1 POP JUMP JUMPDEST PUSH0 PUSH1 0xA0 DUP4 ADD PUSH0 DUP4 ADD MLOAD PUSH2 0x2667 PUSH0 DUP7 ADD DUP3 PUSH2 0x2317 JUMP JUMPDEST POP PUSH1 0x20 DUP4 ADD MLOAD DUP5 DUP3 SUB PUSH1 0x20 DUP7 ADD MSTORE PUSH2 0x267F DUP3 DUP3 PUSH2 0x2336 JUMP JUMPDEST SWAP2 POP POP PUSH1 0x40 DUP4 ADD MLOAD PUSH2 0x2694 PUSH1 0x40 DUP7 ADD DUP3 PUSH2 0x236E JUMP JUMPDEST POP PUSH1 0x60 DUP4 ADD MLOAD PUSH2 0x26A7 PUSH1 0x60 DUP7 ADD DUP3 PUSH2 0x237D JUMP JUMPDEST POP PUSH1 0x80 DUP4 ADD MLOAD PUSH2 0x26BA PUSH1 0x80 DUP7 ADD DUP3 PUSH2 0x238C JUMP JUMPDEST POP DUP1 SWAP2 POP POP SWAP3 SWAP2 POP POP JUMP JUMPDEST PUSH0 PUSH2 0x26D0 DUP4 DUP4 PUSH2 0x2652 JUMP JUMPDEST SWAP1 POP SWAP3 SWAP2 POP POP JUMP JUMPDEST PUSH0 PUSH1 0x20 DUP3 ADD SWAP1 POP SWAP2 SWAP1 POP JUMP JUMPDEST PUSH0 PUSH2 0x26EE DUP3 PUSH2 0x2629 JUMP JUMPDEST PUSH2 0x26F8 DUP2 DUP6 PUSH2 0x2633 JUMP JUMPDEST SWAP4 POP DUP4 PUSH1 0x20 DUP3 MUL DUP6 ADD PUSH2 0x270A DUP6 PUSH2 0x2643 JUMP JUMPDEST DUP1 PUSH0 JUMPDEST DUP6 DUP2 LT ISZERO PUSH2 0x2745 JUMPI DUP5 DUP5 SUB DUP10 MSTORE DUP2 MLOAD PUSH2 0x2726 DUP6 DUP3 PUSH2 0x26C5 JUMP JUMPDEST SWAP5 POP PUSH2 0x2731 DUP4 PUSH2 0x26D8 JUMP JUMPDEST SWAP3 POP PUSH1 0x20 DUP11 ADD SWAP10 POP POP PUSH1 0x1 DUP2 ADD SWAP1 POP PUSH2 0x270D JUMP JUMPDEST POP DUP3 SWAP8 POP DUP8 SWAP6 POP POP POP POP POP POP SWAP3 SWAP2 POP POP JUMP JUMPDEST PUSH0 PUSH1 0x40 DUP3 ADD SWAP1 POP DUP2 DUP2 SUB PUSH0 DUP4 ADD MSTORE PUSH2 0x276F DUP2 DUP6 PUSH2 0x26E4 JUMP JUMPDEST SWAP1 POP PUSH2 0x277E PUSH1 0x20 DUP4 ADD DUP5 PUSH2 0x1E7E JUMP JUMPDEST SWAP4 SWAP3 POP POP POP JUMP JUMPDEST PUSH0 PUSH1 0x60 DUP3 ADD SWAP1 POP PUSH2 0x2798 PUSH0 DUP4 ADD DUP7 PUSH2 0x220C JUMP JUMPDEST PUSH2 0x27A5 PUSH1 0x20 DUP4 ADD DUP6 PUSH2 0x2285 JUMP JUMPDEST PUSH2 0x27B2 PUSH1 0x40 DUP4 ADD DUP5 PUSH2 0x1E7E JUMP JUMPDEST SWAP5 SWAP4 POP POP POP POP JUMP JUMPDEST PUSH0 PUSH1 0x20 DUP3 DUP5 SUB SLT ISZERO PUSH2 0x27CF JUMPI PUSH2 0x27CE PUSH2 0x1EC2 JUMP JUMPDEST JUMPDEST PUSH0 PUSH2 0x27DC DUP5 DUP3 DUP6 ADD PUSH2 0x207F JUMP JUMPDEST SWAP2 POP POP SWAP3 SWAP2 POP POP JUMP JUMPDEST PUSH32 0x4E487B7100000000000000000000000000000000000000000000000000000000 PUSH0 MSTORE PUSH1 0x32 PUSH1 0x4 MSTORE PUSH1 0x24 PUSH0 REVERT JUMPDEST PUSH32 0x4E487B7100000000000000000000000000000000000000000000000000000000 PUSH0 MSTORE PUSH1 0x22 PUSH1 0x4 MSTORE PUSH1 0x24 PUSH0 REVERT JUMPDEST PUSH0 PUSH1 0x2 DUP3 DIV SWAP1 POP PUSH1 0x1 DUP3 AND DUP1 PUSH2 0x2856 JUMPI PUSH1 0x7F DUP3 AND SWAP2 POP JUMPDEST PUSH1 0x20 DUP3 LT DUP2 SUB PUSH2 0x2869 JUMPI PUSH2 0x2868 PUSH2 0x2812 JUMP JUMPDEST JUMPDEST POP SWAP2 SWAP1 POP JUMP JUMPDEST PUSH0 DUP2 SWAP1 POP DUP2 PUSH0 MSTORE PUSH1 0x20 PUSH0 KECCAK256 SWAP1 POP SWAP2 SWAP1 POP JUMP JUMPDEST PUSH0 PUSH1 0x20 PUSH1 0x1F DUP4 ADD DIV SWAP1 POP SWAP2 SWAP1 POP JUMP JUMPDEST PUSH0 DUP3 DUP3 SHL SWAP1 POP SWAP3 SWAP2 POP POP JUMP JUMPDEST PUSH0 PUSH1 0x8 DUP4 MUL PUSH2 0x28CB PUSH32 0xFFFFFFFFFFFFFFFFFFFFFFFFFFFFFFFFFFFFFFFFFFFFFFFFFFFFFFFFFFFFFFFF DUP3 PUSH2 0x2890 JUMP JUMPDEST PUSH2 0x28D5 DUP7 DUP4 PUSH2 0x2890 JUMP JUMPDEST SWAP6 POP DUP1 NOT DUP5 AND SWAP4 POP DUP1 DUP7 AND DUP5 OR SWAP3 POP POP POP SWAP4 SWAP3 POP POP POP JUMP JUMPDEST PUSH0 DUP2 SWAP1 POP SWAP2 SWAP1 POP JUMP JUMPDEST PUSH0 PUSH2 0x2910 PUSH2 0x290B PUSH2 0x2906 DUP5 PUSH2 0x1E75 JUMP JUMPDEST PUSH2 0x28ED JUMP JUMPDEST PUSH2 0x1E75 JUMP JUMPDEST SWAP1 POP SWAP2 SWAP1 POP JUMP JUMPDEST PUSH0 DUP2 SWAP1 POP SWAP2 SWAP1 POP JUMP JUMPDEST PUSH2 0x2929 DUP4 PUSH2 0x28F6 JUMP JUMPDEST PUSH2 0x293D PUSH2 0x2935 DUP3 PUSH2 0x2917 JUMP JUMPDEST DUP5 DUP5 SLOAD PUSH2 0x289C JUMP JUMPDEST DUP3 SSTORE POP POP POP POP JUMP JUMPDEST PUSH0 PUSH0 SWAP1 POP SWAP1 JUMP JUMPDEST PUSH2 0x2954 PUSH2 0x2945 JUMP JUMPDEST PUSH2 0x295F DUP2 DUP5 DUP5 PUSH2 0x2920 JUMP JUMPDEST POP POP POP JUMP JUMPDEST JUMPDEST DUP2 DUP2 LT ISZERO PUSH2 0x2982 JUMPI PUSH2 0x2977 PUSH0 DUP3 PUSH2 0x294C JUMP JUMPDEST PUSH1 0x1 DUP2 ADD SWAP1 POP PUSH2 0x2965 JUMP JUMPDEST POP POP JUMP JUMPDEST PUSH1 0x1F DUP3 GT ISZERO PUSH2 0x29C7 JUMPI PUSH2 0x2998 DUP2 PUSH2 0x286F JUMP JUMPDEST PUSH2 0x29A1 DUP5 PUSH2 0x2881 JUMP JUMPDEST DUP2 ADD PUSH1 0x20 DUP6 LT ISZERO PUSH2 0x29B0 JUMPI DUP2 SWAP1 POP JUMPDEST PUSH2 0x29C4 PUSH2 0x29BC DUP6 PUSH2 0x2881 JUMP JUMPDEST DUP4 ADD DUP3 PUSH2 0x2964 JUMP JUMPDEST POP POP JUMPDEST POP POP POP JUMP JUMPDEST PUSH0 DUP3 DUP3 SHR SWAP1 POP SWAP3 SWAP2 POP POP JUMP JUMPDEST PUSH0 PUSH2 0x29E7 PUSH0 NOT DUP5 PUSH1 0x8 MUL PUSH2 0x29CC JUMP JUMPDEST NOT DUP1 DUP4 AND SWAP2 POP POP SWAP3 SWAP2 POP POP JUMP JUMPDEST PUSH0 PUSH2 0x29FF DUP4 DUP4 PUSH2 0x29D8 JUMP JUMPDEST SWAP2 POP DUP3 PUSH1 0x2 MUL DUP3 OR SWAP1 POP SWAP3 SWAP2 POP POP JUMP JUMPDEST PUSH2 0x2A18 DUP3 PUSH2 0x221B JUMP JUMPDEST PUSH8 0xFFFFFFFFFFFFFFFF DUP2 GT ISZERO PUSH2 0x2A31 JUMPI PUSH2 0x2A30 PUSH2 0x1F15 JUMP JUMPDEST JUMPDEST PUSH2 0x2A3B DUP3 SLOAD PUSH2 0x283F JUMP JUMPDEST PUSH2 0x2A46 DUP3 DUP3 DUP6 PUSH2 0x2986 JUMP JUMPDEST PUSH0 PUSH1 0x20 SWAP1 POP PUSH1 0x1F DUP4 GT PUSH1 0x1 DUP2 EQ PUSH2 0x2A77 JUMPI PUSH0 DUP5 ISZERO PUSH2 0x2A65 JUMPI DUP3 DUP8 ADD MLOAD SWAP1 POP JUMPDEST PUSH2 0x2A6F DUP6 DUP3 PUSH2 0x29F4 JUMP JUMPDEST DUP7 SSTORE POP PUSH2 0x2AD6 JUMP JUMPDEST PUSH1 0x1F NOT DUP5 AND PUSH2 0x2A85 DUP7 PUSH2 0x286F JUMP JUMPDEST PUSH0 JUMPDEST DUP3 DUP2 LT ISZERO PUSH2 0x2AAC JUMPI DUP5 DUP10 ADD MLOAD DUP3 SSTORE PUSH1 0x1 DUP3 ADD SWAP2 POP PUSH1 0x20 DUP6 ADD SWAP5 POP PUSH1 0x20 DUP2 ADD SWAP1 POP PUSH2 0x2A87 JUMP JUMPDEST DUP7 DUP4 LT ISZERO PUSH2 0x2AC9 JUMPI DUP5 DUP10 ADD MLOAD PUSH2 0x2AC5 PUSH1 0x1F DUP10 AND DUP3 PUSH2 0x29D8 JUMP JUMPDEST DUP4 SSTORE POP JUMPDEST PUSH1 0x1 PUSH1 0x2 DUP9 MUL ADD DUP9 SSTORE POP POP POP JUMPDEST POP POP POP POP POP POP JUMP JUMPDEST PUSH32 0x5468652073656E646572206973206E6F7420746865206D616E61676572206F66 PUSH0 DUP3 ADD MSTORE PUSH32 0x2074686520656E7465726564206170702049442E000000000000000000000000 PUSH1 0x20 DUP3 ADD MSTORE POP JUMP JUMPDEST PUSH0 PUSH2 0x2B38 PUSH1 0x34 DUP4 PUSH2 0x1E1B JUMP JUMPDEST SWAP2 POP PUSH2 0x2B43 DUP3 PUSH2 0x2ADE JUMP JUMPDEST PUSH1 0x40 DUP3 ADD SWAP1 POP SWAP2 SWAP1 POP JUMP JUMPDEST PUSH0 PUSH1 0x20 DUP3 ADD SWAP1 POP DUP2 DUP2 SUB PUSH0 DUP4 ADD MSTORE PUSH2 0x2B65 DUP2 PUSH2 0x2B2C JUMP JUMPDEST SWAP1 POP SWAP2 SWAP1 POP JUMP JUMPDEST PUSH0 DUP2 SWAP1 POP SWAP3 SWAP2 POP POP JUMP JUMPDEST POP JUMP JUMPDEST PUSH0 PUSH2 0x2B84 PUSH0 DUP4 PUSH2 0x2B6C JUMP JUMPDEST SWAP2 POP PUSH2 0x2B8F DUP3 PUSH2 0x2B76 JUMP JUMPDEST PUSH0 DUP3 ADD SWAP1 POP SWAP2 SWAP1 POP JUMP JUMPDEST PUSH0 PUSH2 0x2BA3 DUP3 PUSH2 0x2B79 JUMP JUMPDEST SWAP2 POP DUP2 SWAP1 POP SWAP2 SWAP1 POP JUMP JUMPDEST PUSH32 0x4661696C656420746F2073656E64204574686572000000000000000000000000 PUSH0 DUP3 ADD MSTORE POP JUMP JUMPDEST PUSH0 PUSH2 0x2BE1 PUSH1 0x14 DUP4 PUSH2 0x1E1B JUMP JUMPDEST SWAP2 POP PUSH2 0x2BEC DUP3 PUSH2 0x2BAD JUMP JUMPDEST PUSH1 0x20 DUP3 ADD SWAP1 POP SWAP2 SWAP1 POP JUMP JUMPDEST PUSH0 PUSH1 0x20 DUP3 ADD SWAP1 POP DUP2 DUP2 SUB PUSH0 DUP4 ADD MSTORE PUSH2 0x2C0E DUP2 PUSH2 0x2BD5 JUMP JUMPDEST SWAP1 POP SWAP2 SWAP1 POP JUMP JUMPDEST PUSH32 0x5468652064417070496420656E746572656420686173206E6F74206265656E20 PUSH0 DUP3 ADD MSTORE PUSH32 0x6465636C61726564206F7220617070726F766564207965742E00000000000000 PUSH1 0x20 DUP3 ADD MSTORE POP JUMP JUMPDEST PUSH0 PUSH2 0x2C6F PUSH1 0x39 DUP4 PUSH2 0x1E1B JUMP JUMPDEST SWAP2 POP PUSH2 0x2C7A DUP3 PUSH2 0x2C15 JUMP JUMPDEST PUSH1 0x40 DUP3 ADD SWAP1 POP SWAP2 SWAP1 POP JUMP JUMPDEST PUSH0 PUSH1 0x20 DUP3 ADD SWAP1 POP DUP2 DUP2 SUB PUSH0 DUP4 ADD MSTORE PUSH2 0x2C9C DUP2 PUSH2 0x2C63 JUMP JUMPDEST SWAP1 POP SWAP2 SWAP1 POP JUMP JUMPDEST PUSH0 PUSH1 0x40 DUP3 ADD SWAP1 POP PUSH2 0x2CB6 PUSH0 DUP4 ADD DUP6 PUSH2 0x220C JUMP JUMPDEST PUSH2 0x2CC3 PUSH1 0x20 DUP4 ADD DUP5 PUSH2 0x2285 JUMP JUMPDEST SWAP4 SWAP3 POP POP POP JUMP JUMPDEST PUSH0 PUSH1 0x40 DUP3 ADD SWAP1 POP PUSH2 0x2CDD PUSH0 DUP4 ADD DUP6 PUSH2 0x1E7E JUMP JUMPDEST PUSH2 0x2CEA PUSH1 0x20 DUP4 ADD DUP5 PUSH2 0x1E7E JUMP JUMPDEST SWAP4 SWAP3 POP POP POP JUMP JUMPDEST PUSH0 PUSH1 0x40 DUP3 ADD SWAP1 POP DUP2 DUP2 SUB PUSH0 DUP4 ADD MSTORE PUSH2 0x2D09 DUP2 DUP6 PUSH2 0x224D JUMP JUMPDEST SWAP1 POP PUSH2 0x2D18 PUSH1 0x20 DUP4 ADD DUP5 PUSH2 0x210A JUMP JUMPDEST SWAP4 SWAP3 POP POP POP JUMP JUMPDEST PUSH32 0x4E487B7100000000000000000000000000000000000000000000000000000000 PUSH0 MSTORE PUSH1 0x11 PUSH1 0x4 MSTORE PUSH1 0x24 PUSH0 REVERT JUMPDEST PUSH0 PUSH2 0x2D56 DUP3 PUSH2 0x1E75 JUMP JUMPDEST SWAP2 POP PUSH32 0xFFFFFFFFFFFFFFFFFFFFFFFFFFFFFFFFFFFFFFFFFFFFFFFFFFFFFFFFFFFFFFFF DUP3 SUB PUSH2 0x2D88 JUMPI PUSH2 0x2D87 PUSH2 0x2D1F JUMP JUMPDEST JUMPDEST PUSH1 0x1 DUP3 ADD SWAP1 POP SWAP2 SWAP1 POP JUMP JUMPDEST PUSH32 0x546865206D616E61676572206164647265737320666F72207468652061707020 PUSH0 DUP3 ADD MSTORE PUSH32 0x494420796F7520656E746572656420686173206E6F74206265656E2064657465 PUSH1 0x20 DUP3 ADD MSTORE PUSH32 0x726D696E65642E00000000000000000000000000000000000000000000000000 PUSH1 0x40 DUP3 ADD MSTORE POP JUMP JUMPDEST PUSH0 PUSH2 0x2E13 PUSH1 0x47 DUP4 PUSH2 0x1E1B JUMP JUMPDEST SWAP2 POP PUSH2 0x2E1E DUP3 PUSH2 0x2D93 JUMP JUMPDEST PUSH1 0x60 DUP3 ADD SWAP1 POP SWAP2 SWAP1 POP JUMP JUMPDEST PUSH0 PUSH1 0x20 DUP3 ADD SWAP1 POP DUP2 DUP2 SUB PUSH0 DUP4 ADD MSTORE PUSH2 0x2E40 DUP2 PUSH2 0x2E07 JUMP JUMPDEST SWAP1 POP SWAP2 SWAP1 POP JUMP JUMPDEST PUSH32 0x417070204964204E6F7420466F756E6400000000000000000000000000000000 PUSH0 DUP3 ADD MSTORE POP JUMP JUMPDEST PUSH0 PUSH2 0x2E7B PUSH1 0x10 DUP4 PUSH2 0x1E1B JUMP JUMPDEST SWAP2 POP PUSH2 0x2E86 DUP3 PUSH2 0x2E47 JUMP JUMPDEST PUSH1 0x20 DUP3 ADD SWAP1 POP SWAP2 SWAP1 POP JUMP JUMPDEST PUSH0 PUSH1 0x20 DUP3 ADD SWAP1 POP DUP2 DUP2 SUB PUSH0 DUP4 ADD MSTORE PUSH2 0x2EA8 DUP2 PUSH2 0x2E6F JUMP JUMPDEST SWAP1 POP SWAP2 SWAP1 POP JUMP INVALID LOG2 PUSH5 0x6970667358 0x22 SLT KECCAK256 0xB6 0xAB MLOAD 0xAE 0xBD 0xE9 DUP16 SWAP14 JUMP 0xAC 0x4B CALL 0xA6 MLOAD PUSH7 0xF14B3CB4C58CCE 0xB0 0xA9 MUL 0xC PUSH32 0x45B6673E5B64736F6C634300081C003300000000000000000000000000000000 "
				},
				"gasEstimates": {
					"creation": {
						"codeDepositCost": "2401000",
						"executionCost": "infinite",
						"totalCost": "infinite"
					},
					"external": {
						"": "2394",
						"_appCounter()": "2528",
						"app(uint256)": "infinite",
						"blockStorage(bytes32,bytes32)": "infinite",
						"delKey(bytes32,bytes32)": "infinite",
						"getApp(bytes32)": "infinite",
						"getAppList()": "infinite",
						"getAppTotal()": "2486",
						"getBalance()": "infinite",
						"getKey(bytes32,bytes32)": "infinite",
						"getLikeTotal()": "2485",
						"getLikeTotal(bytes32)": "infinite",
						"like(uint256)": "infinite",
						"owner()": "2603",
						"price()": "2448",
						"renounceOwnership()": "infinite",
						"setApp(string,address)": "infinite",
						"setKey(bytes32,bytes32,string)": "infinite",
						"setLike(bytes32)": "infinite",
						"setPrice(uint256)": "infinite",
						"toggleStatus(bytes32)": "infinite",
						"transfer(address,uint256)": "infinite",
						"transferOwnership(address)": "infinite",
						"updateApp(bytes32,string,address)": "infinite",
						"updateMetadata(bytes32,string)": "infinite",
						"verifyManager(bytes32,address)": "infinite",
						"withdraw()": "infinite"
					},
					"internal": {
						"_indexOfApp(bytes32)": "infinite"
					}
				},
				"methodIdentifiers": {
					"_appCounter()": "5e4710a2",
					"app(uint256)": "33e466ae",
					"blockStorage(bytes32,bytes32)": "e0caa729",
					"delKey(bytes32,bytes32)": "5de3b598",
					"getApp(bytes32)": "42c71f1d",
					"getAppList()": "d0f34b10",
					"getAppTotal()": "47a8cfa4",
					"getBalance()": "12065fe0",
					"getKey(bytes32,bytes32)": "c3105a6b",
					"getLikeTotal()": "a15ed1bc",
					"getLikeTotal(bytes32)": "c37f016c",
					"like(uint256)": "e82935da",
					"owner()": "8da5cb5b",
					"price()": "a035b1fe",
					"renounceOwnership()": "715018a6",
					"setApp(string,address)": "b440c736",
					"setKey(bytes32,bytes32,string)": "22a01240",
					"setLike(bytes32)": "78b67b4f",
					"setPrice(uint256)": "91b7f5ed",
					"toggleStatus(bytes32)": "ea2b77f2",
					"transfer(address,uint256)": "a9059cbb",
					"transferOwnership(address)": "f2fde38b",
					"updateApp(bytes32,string,address)": "0ab03bf2",
					"updateMetadata(bytes32,string)": "a375765e",
					"verifyManager(bytes32,address)": "c5bdc0d3",
					"withdraw()": "3ccfd60b"
				}
			},
			"storageLayout": {
				"storage": [
					{
						"astId": 856,
						"contract": "Upstore.sol:Upstore",
						"label": "_owner",
						"offset": 0,
						"slot": "0",
						"type": "t_address"
					},
					{
						"astId": 119,
						"contract": "Upstore.sol:Upstore",
						"label": "_appCounter",
						"offset": 0,
						"slot": "1",
						"type": "t_struct(Counter)35_storage"
					},
					{
						"astId": 121,
						"contract": "Upstore.sol:Upstore",
						"label": "price",
						"offset": 0,
						"slot": "2",
						"type": "t_uint256"
					},
					{
						"astId": 175,
						"contract": "Upstore.sol:Upstore",
						"label": "app",
						"offset": 0,
						"slot": "3",
						"type": "t_array(t_struct(AppStruct)171_storage)dyn_storage"
					},
					{
						"astId": 186,
						"contract": "Upstore.sol:Upstore",
						"label": "like",
						"offset": 0,
						"slot": "4",
						"type": "t_array(t_struct(LikeStruct)182_storage)dyn_storage"
					},
					{
						"astId": 192,
						"contract": "Upstore.sol:Upstore",
						"label": "blockStorage",
						"offset": 0,
						"slot": "5",
						"type": "t_mapping(t_bytes32,t_mapping(t_bytes32,t_string_storage))"
					}
				],
				"types": {
					"t_address": {
						"encoding": "inplace",
						"label": "address",
						"numberOfBytes": "20"
					},
					"t_array(t_struct(AppStruct)171_storage)dyn_storage": {
						"base": "t_struct(AppStruct)171_storage",
						"encoding": "dynamic_array",
						"label": "struct Upstore.AppStruct[]",
						"numberOfBytes": "32"
					},
					"t_array(t_struct(LikeStruct)182_storage)dyn_storage": {
						"base": "t_struct(LikeStruct)182_storage",
						"encoding": "dynamic_array",
						"label": "struct Upstore.LikeStruct[]",
						"numberOfBytes": "32"
					},
					"t_bool": {
						"encoding": "inplace",
						"label": "bool",
						"numberOfBytes": "1"
					},
					"t_bytes32": {
						"encoding": "inplace",
						"label": "bytes32",
						"numberOfBytes": "32"
					},
					"t_mapping(t_bytes32,t_mapping(t_bytes32,t_string_storage))": {
						"encoding": "mapping",
						"key": "t_bytes32",
						"label": "mapping(bytes32 => mapping(bytes32 => string))",
						"numberOfBytes": "32",
						"value": "t_mapping(t_bytes32,t_string_storage)"
					},
					"t_mapping(t_bytes32,t_string_storage)": {
						"encoding": "mapping",
						"key": "t_bytes32",
						"label": "mapping(bytes32 => string)",
						"numberOfBytes": "32",
						"value": "t_string_storage"
					},
					"t_string_storage": {
						"encoding": "bytes",
						"label": "string",
						"numberOfBytes": "32"
					},
					"t_struct(AppStruct)171_storage": {
						"encoding": "inplace",
						"label": "struct Upstore.AppStruct",
						"members": [
							{
								"astId": 162,
								"contract": "Upstore.sol:Upstore",
								"label": "id",
								"offset": 0,
								"slot": "0",
								"type": "t_bytes32"
							},
							{
								"astId": 164,
								"contract": "Upstore.sol:Upstore",
								"label": "metadata",
								"offset": 0,
								"slot": "1",
								"type": "t_string_storage"
							},
							{
								"astId": 166,
								"contract": "Upstore.sol:Upstore",
								"label": "manager",
								"offset": 0,
								"slot": "2",
								"type": "t_address"
							},
							{
								"astId": 168,
								"contract": "Upstore.sol:Upstore",
								"label": "dt",
								"offset": 0,
								"slot": "3",
								"type": "t_uint256"
							},
							{
								"astId": 170,
								"contract": "Upstore.sol:Upstore",
								"label": "status",
								"offset": 0,
								"slot": "4",
								"type": "t_bool"
							}
						],
						"numberOfBytes": "160"
					},
					"t_struct(Counter)35_storage": {
						"encoding": "inplace",
						"label": "struct Counters.Counter",
						"members": [
							{
								"astId": 34,
								"contract": "Upstore.sol:Upstore",
								"label": "_value",
								"offset": 0,
								"slot": "0",
								"type": "t_uint256"
							}
						],
						"numberOfBytes": "32"
					},
					"t_struct(LikeStruct)182_storage": {
						"encoding": "inplace",
						"label": "struct Upstore.LikeStruct",
						"members": [
							{
								"astId": 177,
								"contract": "Upstore.sol:Upstore",
								"label": "appId",
								"offset": 0,
								"slot": "0",
								"type": "t_bytes32"
							},
							{
								"astId": 179,
								"contract": "Upstore.sol:Upstore",
								"label": "sender",
								"offset": 0,
								"slot": "1",
								"type": "t_address"
							},
							{
								"astId": 181,
								"contract": "Upstore.sol:Upstore",
								"label": "dt",
								"offset": 0,
								"slot": "2",
								"type": "t_uint256"
							}
						],
						"numberOfBytes": "96"
					},
					"t_uint256": {
						"encoding": "inplace",
						"label": "uint256",
						"numberOfBytes": "32"
					}
				}
			},
			"userdoc": {
				"errors": {
					"Unauthorized()": [
						{
							"notice": "errors"
						}
					]
				},
				"kind": "user",
				"methods": {
					"delKey(bytes32,bytes32)": {
						"notice": "Delete a key from the storage"
					},
					"getApp(bytes32)": {
						"notice": "get app detail"
					},
					"getAppList()": {
						"notice": "Retrive the App array"
					},
					"getAppTotal()": {
						"notice": "Number of apps currently added on the contract"
					},
					"getBalance()": {
						"notice": "Get contract's balance"
					},
					"getKey(bytes32,bytes32)": {
						"notice": "Get the stored value"
					},
					"getLikeTotal()": {
						"notice": "Retrive the App array"
					},
					"getLikeTotal(bytes32)": {
						"notice": "Get total like"
					},
					"setApp(string,address)": {
						"notice": "Add a new dApp"
					},
					"setKey(bytes32,bytes32,string)": {
						"notice": "Store a new key/ value"
					},
					"setLike(bytes32)": {
						"notice": "Like an app"
					},
					"setPrice(uint256)": {
						"notice": "Update the price"
					},
					"toggleStatus(bytes32)": {
						"notice": "Display or hide the dApp from the store"
					},
					"updateApp(bytes32,string,address)": {
						"notice": "Display or hide the dApp from the store"
					},
					"verifyManager(bytes32,address)": {
						"notice": "Verify if a address is on a manager"
					}
				},
				"notice": "Read the use cases",
				"version": 1
			}
		}
	}
}