{
	"DirectDonation.sol": {
		"DirectDonation": {
			"abi": [
				{
					"inputs": [],
					"stateMutability": "nonpayable",
					"type": "constructor"
				},
				{
					"inputs": [],
					"name": "EnforcedPause",
					"type": "error"
				},
				{
					"inputs": [],
					"name": "ExpectedPause",
					"type": "error"
				},
				{
					"inputs": [
						{
							"internalType": "uint256",
							"name": "msgValue",
							"type": "uint256"
						}
					],
					"name": "InsufficientBalance",
					"type": "error"
				},
				{
					"inputs": [
						{
							"internalType": "uint256",
							"name": "totalAmount",
							"type": "uint256"
						},
						{
							"internalType": "uint256",
							"name": "authorizedAmount",
							"type": "uint256"
						}
					],
					"name": "NotAuthorizedAmount",
					"type": "error"
				},
				{
					"inputs": [
						{
							"internalType": "address",
							"name": "owner",
							"type": "address"
						}
					],
					"name": "OwnableInvalidOwner",
					"type": "error"
				},
				{
					"inputs": [
						{
							"internalType": "address",
							"name": "account",
							"type": "address"
						}
					],
					"name": "OwnableUnauthorizedAccount",
					"type": "error"
				},
				{
					"anonymous": false,
					"inputs": [
						{
							"indexed": false,
							"internalType": "address",
							"name": "_from",
							"type": "address"
						},
						{
							"indexed": false,
							"internalType": "address",
							"name": "_to",
							"type": "address"
						},
						{
							"indexed": false,
							"internalType": "uint256",
							"name": "_amount",
							"type": "uint256"
						},
						{
							"indexed": true,
							"internalType": "bytes32",
							"name": "_tokenId",
							"type": "bytes32"
						},
						{
							"indexed": true,
							"internalType": "bytes32",
							"name": "_appId",
							"type": "bytes32"
						}
					],
					"name": "Donated",
					"type": "event"
				},
				{
					"anonymous": false,
					"inputs": [
						{
							"indexed": true,
							"internalType": "address",
							"name": "previousOwner",
							"type": "address"
						},
						{
							"indexed": true,
							"internalType": "address",
							"name": "newOwner",
							"type": "address"
						}
					],
					"name": "OwnershipTransferred",
					"type": "event"
				},
				{
					"anonymous": false,
					"inputs": [
						{
							"indexed": false,
							"internalType": "address",
							"name": "account",
							"type": "address"
						}
					],
					"name": "Paused",
					"type": "event"
				},
				{
					"anonymous": false,
					"inputs": [
						{
							"indexed": true,
							"internalType": "bytes32",
							"name": "id",
							"type": "bytes32"
						},
						{
							"indexed": false,
							"internalType": "address",
							"name": "addr",
							"type": "address"
						},
						{
							"indexed": false,
							"internalType": "address",
							"name": "sender",
							"type": "address"
						}
					],
					"name": "TokenAdded",
					"type": "event"
				},
				{
					"anonymous": false,
					"inputs": [
						{
							"indexed": true,
							"internalType": "bytes32",
							"name": "_tokenId",
							"type": "bytes32"
						},
						{
							"indexed": false,
							"internalType": "address",
							"name": "sender",
							"type": "address"
						}
					],
					"name": "TokenRemoved",
					"type": "event"
				},
				{
					"anonymous": false,
					"inputs": [
						{
							"indexed": true,
							"internalType": "bytes32",
							"name": "id",
							"type": "bytes32"
						},
						{
							"indexed": false,
							"internalType": "address",
							"name": "addr",
							"type": "address"
						},
						{
							"indexed": false,
							"internalType": "address",
							"name": "sender",
							"type": "address"
						}
					],
					"name": "TokenUpdated",
					"type": "event"
				},
				{
					"anonymous": false,
					"inputs": [
						{
							"indexed": false,
							"internalType": "address",
							"name": "account",
							"type": "address"
						}
					],
					"name": "Unpaused",
					"type": "event"
				},
				{
					"anonymous": false,
					"inputs": [
						{
							"indexed": false,
							"internalType": "uint8",
							"name": "fee",
							"type": "uint8"
						}
					],
					"name": "feeUpdated",
					"type": "event"
				},
				{
					"inputs": [],
					"name": "_donateCounter",
					"outputs": [
						{
							"internalType": "uint256",
							"name": "_value",
							"type": "uint256"
						}
					],
					"stateMutability": "view",
					"type": "function"
				},
				{
					"inputs": [],
					"name": "_tokenCounter",
					"outputs": [
						{
							"internalType": "uint256",
							"name": "_value",
							"type": "uint256"
						}
					],
					"stateMutability": "view",
					"type": "function"
				},
				{
					"inputs": [
						{
							"internalType": "address",
							"name": "_addr",
							"type": "address"
						}
					],
					"name": "addToken",
					"outputs": [
						{
							"internalType": "bytes32",
							"name": "",
							"type": "bytes32"
						}
					],
					"stateMutability": "nonpayable",
					"type": "function"
				},
				{
					"inputs": [
						{
							"internalType": "uint256",
							"name": "amount",
							"type": "uint256"
						},
						{
							"internalType": "uint256",
							"name": "bps",
							"type": "uint256"
						}
					],
					"name": "calcPercentage",
					"outputs": [
						{
							"internalType": "uint256",
							"name": "",
							"type": "uint256"
						}
					],
					"stateMutability": "pure",
					"type": "function"
				},
				{
					"inputs": [
						{
							"internalType": "bytes32",
							"name": "_tokenId",
							"type": "bytes32"
						}
					],
					"name": "deleteToken",
					"outputs": [
						{
							"internalType": "uint256",
							"name": "",
							"type": "uint256"
						}
					],
					"stateMutability": "nonpayable",
					"type": "function"
				},
				{
					"inputs": [
						{
							"internalType": "bytes32",
							"name": "_appId",
							"type": "bytes32"
						},
						{
							"internalType": "address",
							"name": "_to",
							"type": "address"
						},
						{
							"internalType": "uint256",
							"name": "_amount",
							"type": "uint256"
						},
						{
							"internalType": "bool",
							"name": "_force",
							"type": "bool"
						},
						{
							"internalType": "bytes",
							"name": "_data",
							"type": "bytes"
						},
						{
							"internalType": "bytes32",
							"name": "_tokenId",
							"type": "bytes32"
						}
					],
					"name": "donate",
					"outputs": [
						{
							"internalType": "bool",
							"name": "",
							"type": "bool"
						}
					],
					"stateMutability": "payable",
					"type": "function"
				},
				{
					"inputs": [
						{
							"internalType": "bytes32",
							"name": "",
							"type": "bytes32"
						}
					],
					"name": "donation",
					"outputs": [
						{
							"internalType": "address",
							"name": "donator",
							"type": "address"
						},
						{
							"internalType": "bytes32",
							"name": "tokenId",
							"type": "bytes32"
						},
						{
							"internalType": "bytes32",
							"name": "appId",
							"type": "bytes32"
						},
						{
							"internalType": "uint256",
							"name": "amount",
							"type": "uint256"
						},
						{
							"internalType": "address",
							"name": "to",
							"type": "address"
						},
						{
							"internalType": "uint256",
							"name": "dt",
							"type": "uint256"
						}
					],
					"stateMutability": "view",
					"type": "function"
				},
				{
					"inputs": [],
					"name": "getBalance",
					"outputs": [
						{
							"internalType": "uint256",
							"name": "",
							"type": "uint256"
						}
					],
					"stateMutability": "view",
					"type": "function"
				},
				{
					"inputs": [
						{
							"internalType": "address",
							"name": "_donator",
							"type": "address"
						}
					],
					"name": "getDonation",
					"outputs": [
						{
							"components": [
								{
									"internalType": "address",
									"name": "donator",
									"type": "address"
								},
								{
									"internalType": "bytes32",
									"name": "tokenId",
									"type": "bytes32"
								},
								{
									"internalType": "bytes32",
									"name": "appId",
									"type": "bytes32"
								},
								{
									"internalType": "uint256",
									"name": "amount",
									"type": "uint256"
								},
								{
									"internalType": "address",
									"name": "to",
									"type": "address"
								},
								{
									"internalType": "uint256",
									"name": "dt",
									"type": "uint256"
								}
							],
							"internalType": "struct DirectDonation.DonationStruct[]",
							"name": "list",
							"type": "tuple[]"
						}
					],
					"stateMutability": "view",
					"type": "function"
				},
				{
					"inputs": [
						{
							"internalType": "bytes32",
							"name": "_appId",
							"type": "bytes32"
						}
					],
					"name": "getDonationByAppId",
					"outputs": [
						{
							"components": [
								{
									"internalType": "address",
									"name": "donator",
									"type": "address"
								},
								{
									"internalType": "bytes32",
									"name": "tokenId",
									"type": "bytes32"
								},
								{
									"internalType": "bytes32",
									"name": "appId",
									"type": "bytes32"
								},
								{
									"internalType": "uint256",
									"name": "amount",
									"type": "uint256"
								},
								{
									"internalType": "address",
									"name": "to",
									"type": "address"
								},
								{
									"internalType": "uint256",
									"name": "dt",
									"type": "uint256"
								}
							],
							"internalType": "struct DirectDonation.DonationStruct[]",
							"name": "list",
							"type": "tuple[]"
						}
					],
					"stateMutability": "view",
					"type": "function"
				},
				{
					"inputs": [
						{
							"internalType": "bytes32",
							"name": "_tokenId",
							"type": "bytes32"
						}
					],
					"name": "getDonationByToekn",
					"outputs": [
						{
							"components": [
								{
									"internalType": "address",
									"name": "donator",
									"type": "address"
								},
								{
									"internalType": "bytes32",
									"name": "tokenId",
									"type": "bytes32"
								},
								{
									"internalType": "bytes32",
									"name": "appId",
									"type": "bytes32"
								},
								{
									"internalType": "uint256",
									"name": "amount",
									"type": "uint256"
								},
								{
									"internalType": "address",
									"name": "to",
									"type": "address"
								},
								{
									"internalType": "uint256",
									"name": "dt",
									"type": "uint256"
								}
							],
							"internalType": "struct DirectDonation.DonationStruct[]",
							"name": "list",
							"type": "tuple[]"
						}
					],
					"stateMutability": "view",
					"type": "function"
				},
				{
					"inputs": [],
					"name": "getDonationList",
					"outputs": [
						{
							"components": [
								{
									"internalType": "address",
									"name": "donator",
									"type": "address"
								},
								{
									"internalType": "bytes32",
									"name": "tokenId",
									"type": "bytes32"
								},
								{
									"internalType": "bytes32",
									"name": "appId",
									"type": "bytes32"
								},
								{
									"internalType": "uint256",
									"name": "amount",
									"type": "uint256"
								},
								{
									"internalType": "address",
									"name": "to",
									"type": "address"
								},
								{
									"internalType": "uint256",
									"name": "dt",
									"type": "uint256"
								}
							],
							"internalType": "struct DirectDonation.DonationStruct[]",
							"name": "list",
							"type": "tuple[]"
						}
					],
					"stateMutability": "view",
					"type": "function"
				},
				{
					"inputs": [
						{
							"internalType": "address",
							"name": "_addr",
							"type": "address"
						}
					],
					"name": "getToken",
					"outputs": [
						{
							"components": [
								{
									"internalType": "address",
									"name": "addr",
									"type": "address"
								},
								{
									"internalType": "bool",
									"name": "pause",
									"type": "bool"
								},
								{
									"internalType": "uint256",
									"name": "dt",
									"type": "uint256"
								}
							],
							"internalType": "struct DirectDonation.TokenStruct[]",
							"name": "list",
							"type": "tuple[]"
						}
					],
					"stateMutability": "view",
					"type": "function"
				},
				{
					"inputs": [],
					"name": "getTokenList",
					"outputs": [
						{
							"components": [
								{
									"internalType": "bytes32",
									"name": "id",
									"type": "bytes32"
								},
								{
									"internalType": "address",
									"name": "addr",
									"type": "address"
								},
								{
									"internalType": "bool",
									"name": "pause",
									"type": "bool"
								},
								{
									"internalType": "uint256",
									"name": "dt",
									"type": "uint256"
								}
							],
							"internalType": "struct DirectDonation.TokenExportStruct[]",
							"name": "list",
							"type": "tuple[]"
						}
					],
					"stateMutability": "view",
					"type": "function"
				},
				{
					"inputs": [],
					"name": "owner",
					"outputs": [
						{
							"internalType": "address",
							"name": "",
							"type": "address"
						}
					],
					"stateMutability": "view",
					"type": "function"
				},
				{
					"inputs": [],
					"name": "pause",
					"outputs": [],
					"stateMutability": "nonpayable",
					"type": "function"
				},
				{
					"inputs": [],
					"name": "paused",
					"outputs": [
						{
							"internalType": "bool",
							"name": "",
							"type": "bool"
						}
					],
					"stateMutability": "view",
					"type": "function"
				},
				{
					"inputs": [],
					"name": "renounceOwnership",
					"outputs": [],
					"stateMutability": "nonpayable",
					"type": "function"
				},
				{
					"inputs": [
						{
							"internalType": "bytes32",
							"name": "",
							"type": "bytes32"
						}
					],
					"name": "token",
					"outputs": [
						{
							"internalType": "address",
							"name": "addr",
							"type": "address"
						},
						{
							"internalType": "bool",
							"name": "pause",
							"type": "bool"
						},
						{
							"internalType": "uint256",
							"name": "dt",
							"type": "uint256"
						}
					],
					"stateMutability": "view",
					"type": "function"
				},
				{
					"inputs": [
						{
							"internalType": "address payable",
							"name": "_to",
							"type": "address"
						},
						{
							"internalType": "uint256",
							"name": "_amount",
							"type": "uint256"
						}
					],
					"name": "transferBalance",
					"outputs": [],
					"stateMutability": "nonpayable",
					"type": "function"
				},
				{
					"inputs": [
						{
							"internalType": "address",
							"name": "newOwner",
							"type": "address"
						}
					],
					"name": "transferOwnership",
					"outputs": [],
					"stateMutability": "nonpayable",
					"type": "function"
				},
				{
					"inputs": [],
					"name": "unpause",
					"outputs": [],
					"stateMutability": "nonpayable",
					"type": "function"
				},
				{
					"inputs": [
						{
							"internalType": "uint8",
							"name": "_fee",
							"type": "uint8"
						}
					],
					"name": "updateToken",
					"outputs": [
						{
							"internalType": "bool",
							"name": "",
							"type": "bool"
						}
					],
					"stateMutability": "nonpayable",
					"type": "function"
				},
				{
					"inputs": [
						{
							"internalType": "bytes32",
							"name": "_tokenId",
							"type": "bytes32"
						},
						{
							"internalType": "address",
							"name": "_addr",
							"type": "address"
						},
						{
							"internalType": "bool",
							"name": "_pause",
							"type": "bool"
						}
					],
					"name": "updateToken",
					"outputs": [
						{
							"internalType": "bool",
							"name": "",
							"type": "bool"
						}
					],
					"stateMutability": "nonpayable",
					"type": "function"
				},
				{
					"inputs": [],
					"name": "withdraw",
					"outputs": [],
					"stateMutability": "nonpayable",
					"type": "function"
				}
			],
			"devdoc": {
				"author": "Aratta Labs",
				"custom:emoji": "💸",
				"custom:security-contact": "atenyun@gmail.com",
				"details": "You will find the deployed contract addresses in the repo",
				"errors": {
					"EnforcedPause()": [
						{
							"details": "The operation failed because the contract is paused."
						}
					],
					"ExpectedPause()": [
						{
							"details": "The operation failed because the contract is not paused."
						}
					],
					"OwnableInvalidOwner(address)": [
						{
							"details": "The owner is not a valid owner account. (eg. `address(0)`)"
						}
					],
					"OwnableUnauthorizedAccount(address)": [
						{
							"details": "The caller account is not authorized to perform an operation."
						}
					]
				},
				"events": {
					"Paused(address)": {
						"details": "Emitted when the pause is triggered by `account`."
					},
					"Unpaused(address)": {
						"details": "Emitted when the pause is lifted by `account`."
					}
				},
				"kind": "dev",
				"methods": {
					"calcPercentage(uint256,uint256)": {
						"params": {
							"amount": "The total amount",
							"bps": "The precentage"
						},
						"returns": {
							"_0": "percentage"
						}
					},
					"owner()": {
						"details": "Returns the address of the current owner."
					},
					"paused()": {
						"details": "Returns true if the contract is paused, and false otherwise."
					},
					"renounceOwnership()": {
						"details": "Leaves the contract without owner. It will not be possible to call `onlyOwner` functions. Can only be called by the current owner. NOTE: Renouncing ownership will leave the contract without an owner, thereby disabling any functionality that is only available to the owner."
					},
					"transferOwnership(address)": {
						"details": "Transfers ownership of the contract to a new account (`newOwner`). Can only be called by the current owner."
					}
				},
				"title": "DirectDonation",
				"version": 1
			},
			"evm": {
				"assembly": "    /* \"DirectDonation.sol\":671:8236  contract DirectDonation is Ownable(msg.sender), Pausable {... */\n  mstore(0x40, 0x80)\n    /* \"DirectDonation.sol\":874:875  2 */\n  0x02\n    /* \"DirectDonation.sol\":862:875  uint8 fee = 2 */\n  0x03\n  exp(0x0100, 0x00)\n  dup2\n  sload\n  dup2\n  0xff\n  mul\n  not\n  and\n  swap1\n  dup4\n  0xff\n  and\n  mul\n  or\n  swap1\n  sstore\n  pop\n    /* \"DirectDonation.sol\":1375:1530  constructor() {... */\n  callvalue\n  dup1\n  iszero\n  tag_1\n  jumpi\n  0x00\n  dup1\n  revert\ntag_1:\n  pop\n    /* \"DirectDonation.sol\":706:716  msg.sender */\n  caller\n    /* \"_ownable.sol\":1318:1319  0 */\n  0x00\n    /* \"_ownable.sol\":1294:1320  initialOwner == address(0) */\n  0xffffffffffffffffffffffffffffffffffffffff\n  and\n    /* \"_ownable.sol\":1294:1306  initialOwner */\n  dup2\n    /* \"_ownable.sol\":1294:1320  initialOwner == address(0) */\n  0xffffffffffffffffffffffffffffffffffffffff\n  and\n  sub\n    /* \"_ownable.sol\":1290:1385  if (initialOwner == address(0)) {... */\n  tag_6\n  jumpi\n    /* \"_ownable.sol\":1371:1372  0 */\n  0x00\n    /* \"_ownable.sol\":1343:1374  OwnableInvalidOwner(address(0)) */\n  mload(0x40)\n  0x1e4fbdf700000000000000000000000000000000000000000000000000000000\n  dup2\n  mstore\n  0x04\n  add\n  tag_7\n  swap2\n  swap1\n  tag_8\n  jump\t// in\ntag_7:\n  mload(0x40)\n  dup1\n  swap2\n  sub\n  swap1\n  revert\n    /* \"_ownable.sol\":1290:1385  if (initialOwner == address(0)) {... */\ntag_6:\n    /* \"_ownable.sol\":1394:1426  _transferOwnership(initialOwner) */\n  tag_9\n    /* \"_ownable.sol\":1413:1425  initialOwner */\n  dup2\n    /* \"_ownable.sol\":1394:1412  _transferOwnership */\n  shl(0x20, tag_10)\n    /* \"_ownable.sol\":1394:1426  _transferOwnership(initialOwner) */\n  0x20\n  shr\n  jump\t// in\ntag_9:\n    /* \"_ownable.sol\":1246:1433  constructor(address initialOwner) {... */\n  pop\n    /* \"_pausable.sol\":1262:1267  false */\n  0x00\n    /* \"_pausable.sol\":1252:1259  _paused */\n  dup1\n  0x14\n    /* \"_pausable.sol\":1252:1267  _paused = false */\n  0x0100\n  exp\n  dup2\n  sload\n  dup2\n  0xff\n  mul\n  not\n  and\n  swap1\n  dup4\n  iszero\n  iszero\n  mul\n  or\n  swap1\n  sstore\n  pop\n    /* \"DirectDonation.sol\":1399:1424  _tokenCounter.increment() */\n  tag_13\n    /* \"DirectDonation.sol\":1399:1412  _tokenCounter */\n  0x02\n    /* \"DirectDonation.sol\":1399:1422  _tokenCounter.increment */\n  shl(0x20, tag_14)\n    /* \"DirectDonation.sol\":1399:1424  _tokenCounter.increment() */\n  0x20\n  shr\n  jump\t// in\ntag_13:\n    /* \"DirectDonation.sol\":1476:1523  TokenStruct(address(0), false, block.timestamp) */\n  mload(0x40)\n  dup1\n  0x60\n  add\n  0x40\n  mstore\n  dup1\n    /* \"DirectDonation.sol\":1496:1497  0 */\n  0x00\n    /* \"DirectDonation.sol\":1476:1523  TokenStruct(address(0), false, block.timestamp) */\n  0xffffffffffffffffffffffffffffffffffffffff\n  and\n  dup2\n  mstore\n  0x20\n  add\n    /* \"DirectDonation.sol\":1500:1505  false */\n  0x00\n    /* \"DirectDonation.sol\":1476:1523  TokenStruct(address(0), false, block.timestamp) */\n  iszero\n  iszero\n  dup2\n  mstore\n  0x20\n  add\n    /* \"DirectDonation.sol\":1507:1522  block.timestamp */\n  timestamp\n    /* \"DirectDonation.sol\":1476:1523  TokenStruct(address(0), false, block.timestamp) */\n  dup2\n  mstore\n  pop\n    /* \"DirectDonation.sol\":1434:1439  token */\n  0x05\n    /* \"DirectDonation.sol\":1434:1473  token[bytes32(_tokenCounter.current())] */\n  0x00\n    /* \"DirectDonation.sol\":1448:1471  _tokenCounter.current() */\n  tag_15\n    /* \"DirectDonation.sol\":1448:1461  _tokenCounter */\n  0x02\n    /* \"DirectDonation.sol\":1448:1469  _tokenCounter.current */\n  shl(0x20, tag_16)\n    /* \"DirectDonation.sol\":1448:1471  _tokenCounter.current() */\n  0x20\n  shr\n  jump\t// in\ntag_15:\n    /* \"DirectDonation.sol\":1440:1472  bytes32(_tokenCounter.current()) */\n  0x00\n  shl\n    /* \"DirectDonation.sol\":1434:1473  token[bytes32(_tokenCounter.current())] */\n  dup2\n  mstore\n  0x20\n  add\n  swap1\n  dup2\n  mstore\n  0x20\n  add\n  0x00\n  keccak256\n    /* \"DirectDonation.sol\":1434:1523  token[bytes32(_tokenCounter.current())] = TokenStruct(address(0), false, block.timestamp) */\n  0x00\n  dup3\n  add\n  mload\n  dup2\n  0x00\n  add\n  exp(0x0100, 0x00)\n  dup2\n  sload\n  dup2\n  0xffffffffffffffffffffffffffffffffffffffff\n  mul\n  not\n  and\n  swap1\n  dup4\n  0xffffffffffffffffffffffffffffffffffffffff\n  and\n  mul\n  or\n  swap1\n  sstore\n  pop\n  0x20\n  dup3\n  add\n  mload\n  dup2\n  0x00\n  add\n  exp(0x0100, 0x14)\n  dup2\n  sload\n  dup2\n  0xff\n  mul\n  not\n  and\n  swap1\n  dup4\n  iszero\n  iszero\n  mul\n  or\n  swap1\n  sstore\n  pop\n  0x40\n  dup3\n  add\n  mload\n  dup2\n  0x01\n  add\n  sstore\n  swap1\n  pop\n  pop\n    /* \"DirectDonation.sol\":671:8236  contract DirectDonation is Ownable(msg.sender), Pausable {... */\n  jump(tag_17)\n    /* \"_ownable.sol\":2933:3120  function _transferOwnership(address newOwner) internal virtual {... */\ntag_10:\n    /* \"_ownable.sol\":3006:3022  address oldOwner */\n  0x00\n    /* \"_ownable.sol\":3025:3031  _owner */\n  dup1\n  0x00\n  swap1\n  sload\n  swap1\n  0x0100\n  exp\n  swap1\n  div\n  0xffffffffffffffffffffffffffffffffffffffff\n  and\n    /* \"_ownable.sol\":3006:3031  address oldOwner = _owner */\n  swap1\n  pop\n    /* \"_ownable.sol\":3050:3058  newOwner */\n  dup2\n    /* \"_ownable.sol\":3041:3047  _owner */\n  0x00\n  dup1\n    /* \"_ownable.sol\":3041:3058  _owner = newOwner */\n  0x0100\n  exp\n  dup2\n  sload\n  dup2\n  0xffffffffffffffffffffffffffffffffffffffff\n  mul\n  not\n  and\n  swap1\n  dup4\n  0xffffffffffffffffffffffffffffffffffffffff\n  and\n  mul\n  or\n  swap1\n  sstore\n  pop\n    /* \"_ownable.sol\":3104:3112  newOwner */\n  dup2\n    /* \"_ownable.sol\":3073:3113  OwnershipTransferred(oldOwner, newOwner) */\n  0xffffffffffffffffffffffffffffffffffffffff\n  and\n    /* \"_ownable.sol\":3094:3102  oldOwner */\n  dup2\n    /* \"_ownable.sol\":3073:3113  OwnershipTransferred(oldOwner, newOwner) */\n  0xffffffffffffffffffffffffffffffffffffffff\n  and\n  0x8be0079c531659141344cd1fd0a4f28419497f9722a3daafe3b4186f6b6457e0\n  mload(0x40)\n  mload(0x40)\n  dup1\n  swap2\n  sub\n  swap1\n  log3\n    /* \"_ownable.sol\":2996:3120  {... */\n  pop\n    /* \"_ownable.sol\":2933:3120  function _transferOwnership(address newOwner) internal virtual {... */\n  pop\n  jump\t// out\n    /* \"@openzeppelin/contracts/utils/Counters.sol\":945:1068  function increment(Counter storage counter) internal {... */\ntag_14:\n    /* \"@openzeppelin/contracts/utils/Counters.sol\":1050:1051  1 */\n  0x01\n    /* \"@openzeppelin/contracts/utils/Counters.sol\":1032:1039  counter */\n  dup2\n    /* \"@openzeppelin/contracts/utils/Counters.sol\":1032:1046  counter._value */\n  0x00\n  add\n  0x00\n    /* \"@openzeppelin/contracts/utils/Counters.sol\":1032:1051  counter._value += 1 */\n  dup3\n  dup3\n  sload\n  add\n  swap3\n  pop\n  pop\n  dup2\n  swap1\n  sstore\n  pop\n    /* \"@openzeppelin/contracts/utils/Counters.sol\":945:1068  function increment(Counter storage counter) internal {... */\n  pop\n  jump\t// out\n    /* \"@openzeppelin/contracts/utils/Counters.sol\":827:939  function current(Counter storage counter) internal view returns (uint256) {... */\ntag_16:\n    /* \"@openzeppelin/contracts/utils/Counters.sol\":892:899  uint256 */\n  0x00\n    /* \"@openzeppelin/contracts/utils/Counters.sol\":918:925  counter */\n  dup2\n    /* \"@openzeppelin/contracts/utils/Counters.sol\":918:932  counter._value */\n  0x00\n  add\n  sload\n    /* \"@openzeppelin/contracts/utils/Counters.sol\":911:932  return counter._value */\n  swap1\n  pop\n    /* \"@openzeppelin/contracts/utils/Counters.sol\":827:939  function current(Counter storage counter) internal view returns (uint256) {... */\n  swap2\n  swap1\n  pop\n  jump\t// out\n    /* \"#utility.yul\":7:133   */\ntag_21:\n    /* \"#utility.yul\":44:51   */\n  0x00\n    /* \"#utility.yul\":84:126   */\n  0xffffffffffffffffffffffffffffffffffffffff\n    /* \"#utility.yul\":77:82   */\n  dup3\n    /* \"#utility.yul\":73:127   */\n  and\n    /* \"#utility.yul\":62:127   */\n  swap1\n  pop\n    /* \"#utility.yul\":7:133   */\n  swap2\n  swap1\n  pop\n  jump\t// out\n    /* \"#utility.yul\":139:235   */\ntag_22:\n    /* \"#utility.yul\":176:183   */\n  0x00\n    /* \"#utility.yul\":205:229   */\n  tag_27\n    /* \"#utility.yul\":223:228   */\n  dup3\n    /* \"#utility.yul\":205:229   */\n  tag_21\n  jump\t// in\ntag_27:\n    /* \"#utility.yul\":194:229   */\n  swap1\n  pop\n    /* \"#utility.yul\":139:235   */\n  swap2\n  swap1\n  pop\n  jump\t// out\n    /* \"#utility.yul\":241:359   */\ntag_23:\n    /* \"#utility.yul\":328:352   */\n  tag_29\n    /* \"#utility.yul\":346:351   */\n  dup2\n    /* \"#utility.yul\":328:352   */\n  tag_22\n  jump\t// in\ntag_29:\n    /* \"#utility.yul\":323:326   */\n  dup3\n    /* \"#utility.yul\":316:353   */\n  mstore\n    /* \"#utility.yul\":241:359   */\n  pop\n  pop\n  jump\t// out\n    /* \"#utility.yul\":365:587   */\ntag_8:\n    /* \"#utility.yul\":458:462   */\n  0x00\n    /* \"#utility.yul\":496:498   */\n  0x20\n    /* \"#utility.yul\":485:494   */\n  dup3\n    /* \"#utility.yul\":481:499   */\n  add\n    /* \"#utility.yul\":473:499   */\n  swap1\n  pop\n    /* \"#utility.yul\":509:580   */\n  tag_31\n    /* \"#utility.yul\":577:578   */\n  0x00\n    /* \"#utility.yul\":566:575   */\n  dup4\n    /* \"#utility.yul\":562:579   */\n  add\n    /* \"#utility.yul\":553:559   */\n  dup5\n    /* \"#utility.yul\":509:580   */\n  tag_23\n  jump\t// in\ntag_31:\n    /* \"#utility.yul\":365:587   */\n  swap3\n  swap2\n  pop\n  pop\n  jump\t// out\n    /* \"DirectDonation.sol\":671:8236  contract DirectDonation is Ownable(msg.sender), Pausable {... */\ntag_17:\n  dataSize(sub_0)\n  dup1\n  dataOffset(sub_0)\n  0x00\n  codecopy\n  0x00\n  return\nstop\n\nsub_0: assembly {\n        /* \"DirectDonation.sol\":671:8236  contract DirectDonation is Ownable(msg.sender), Pausable {... */\n      mstore(0x40, 0x80)\n      jumpi(tag_1, lt(calldatasize, 0x04))\n      shr(0xe0, calldataload(0x00))\n      dup1\n      0x75e6e600\n      gt\n      tag_27\n      jumpi\n      dup1\n      0xb2f7c6e0\n      gt\n      tag_28\n      jumpi\n      dup1\n      0xe6062e1a\n      gt\n      tag_29\n      jumpi\n      dup1\n      0xe6062e1a\n      eq\n      tag_23\n      jumpi\n      dup1\n      0xf1a3b943\n      eq\n      tag_24\n      jumpi\n      dup1\n      0xf2fde38b\n      eq\n      tag_25\n      jumpi\n      dup1\n      0xf7edbbac\n      eq\n      tag_26\n      jumpi\n      jump(tag_1)\n    tag_29:\n      dup1\n      0xb2f7c6e0\n      eq\n      tag_20\n      jumpi\n      dup1\n      0xcacf11e7\n      eq\n      tag_21\n      jumpi\n      dup1\n      0xd48bfca7\n      eq\n      tag_22\n      jumpi\n      jump(tag_1)\n    tag_28:\n      dup1\n      0x75e6e600\n      eq\n      tag_14\n      jumpi\n      dup1\n      0x8456cb59\n      eq\n      tag_15\n      jumpi\n      dup1\n      0x8da5cb5b\n      eq\n      tag_16\n      jumpi\n      dup1\n      0x9230b2bc\n      eq\n      tag_17\n      jumpi\n      dup1\n      0x95a7a953\n      eq\n      tag_18\n      jumpi\n      dup1\n      0xa37b06d4\n      eq\n      tag_19\n      jumpi\n      jump(tag_1)\n    tag_27:\n      dup1\n      0x443910e0\n      gt\n      tag_30\n      jumpi\n      dup1\n      0x443910e0\n      eq\n      tag_8\n      jumpi\n      dup1\n      0x4df71212\n      eq\n      tag_9\n      jumpi\n      dup1\n      0x56a6d9ef\n      eq\n      tag_10\n      jumpi\n      dup1\n      0x59770438\n      eq\n      tag_11\n      jumpi\n      dup1\n      0x5c975abb\n      eq\n      tag_12\n      jumpi\n      dup1\n      0x715018a6\n      eq\n      tag_13\n      jumpi\n      jump(tag_1)\n    tag_30:\n      dup1\n      0x12065fe0\n      eq\n      tag_2\n      jumpi\n      dup1\n      0x273cbaa0\n      eq\n      tag_3\n      jumpi\n      dup1\n      0x3ccfd60b\n      eq\n      tag_4\n      jumpi\n      dup1\n      0x3d496362\n      eq\n      tag_5\n      jumpi\n      dup1\n      0x3f4ba83a\n      eq\n      tag_6\n      jumpi\n      dup1\n      0x410a1d32\n      eq\n      tag_7\n      jumpi\n    tag_1:\n      0x00\n      dup1\n      revert\n        /* \"DirectDonation.sol\":7957:8054  function getBalance() public view returns (uint256) {... */\n    tag_2:\n      callvalue\n      dup1\n      iszero\n      tag_31\n      jumpi\n      0x00\n      dup1\n      revert\n    tag_31:\n      pop\n      tag_32\n      tag_33\n      jump\t// in\n    tag_32:\n      mload(0x40)\n      tag_34\n      swap2\n      swap1\n      tag_35\n      jump\t// in\n    tag_34:\n      mload(0x40)\n      dup1\n      swap2\n      sub\n      swap1\n      return\n        /* \"DirectDonation.sol\":1566:1960  function getTokenList() public view returns (TokenExportStruct[] memory list) {... */\n    tag_3:\n      callvalue\n      dup1\n      iszero\n      tag_36\n      jumpi\n      0x00\n      dup1\n      revert\n    tag_36:\n      pop\n      tag_37\n      tag_38\n      jump\t// in\n    tag_37:\n      mload(0x40)\n      tag_39\n      swap2\n      swap1\n      tag_40\n      jump\t// in\n    tag_39:\n      mload(0x40)\n      dup1\n      swap2\n      sub\n      swap1\n      return\n        /* \"DirectDonation.sol\":7408:7596  function withdraw() public onlyOwner {... */\n    tag_4:\n      callvalue\n      dup1\n      iszero\n      tag_41\n      jumpi\n      0x00\n      dup1\n      revert\n    tag_41:\n      pop\n      tag_42\n      tag_43\n      jump\t// in\n    tag_42:\n      stop\n        /* \"DirectDonation.sol\":3381:3867  function getDonationByToekn(bytes32 _tokenId) public view returns (DonationStruct[] memory list) {... */\n    tag_5:\n      callvalue\n      dup1\n      iszero\n      tag_44\n      jumpi\n      0x00\n      dup1\n      revert\n    tag_44:\n      pop\n      tag_45\n      0x04\n      dup1\n      calldatasize\n      sub\n      dup2\n      add\n      swap1\n      tag_46\n      swap2\n      swap1\n      tag_47\n      jump\t// in\n    tag_46:\n      tag_48\n      jump\t// in\n    tag_45:\n      mload(0x40)\n      tag_49\n      swap2\n      swap1\n      tag_50\n      jump\t// in\n    tag_49:\n      mload(0x40)\n      dup1\n      swap2\n      sub\n      swap1\n      return\n        /* \"DirectDonation.sol\":8171:8234  function unpause() public onlyOwner {... */\n    tag_6:\n      callvalue\n      dup1\n      iszero\n      tag_51\n      jumpi\n      0x00\n      dup1\n      revert\n    tag_51:\n      pop\n      tag_52\n      tag_53\n      jump\t// in\n    tag_52:\n      stop\n        /* \"DirectDonation.sol\":2834:3323  function getDonation(address _donator) public view returns (DonationStruct[] memory list) {... */\n    tag_7:\n      callvalue\n      dup1\n      iszero\n      tag_54\n      jumpi\n      0x00\n      dup1\n      revert\n    tag_54:\n      pop\n      tag_55\n      0x04\n      dup1\n      calldatasize\n      sub\n      dup2\n      add\n      swap1\n      tag_56\n      swap2\n      swap1\n      tag_57\n      jump\t// in\n    tag_56:\n      tag_58\n      jump\t// in\n    tag_55:\n      mload(0x40)\n      tag_59\n      swap2\n      swap1\n      tag_50\n      jump\t// in\n    tag_59:\n      mload(0x40)\n      dup1\n      swap2\n      sub\n      swap1\n      return\n        /* \"DirectDonation.sol\":2478:2776  function getDonationList() public view returns (DonationStruct[] memory list) {... */\n    tag_8:\n      callvalue\n      dup1\n      iszero\n      tag_60\n      jumpi\n      0x00\n      dup1\n      revert\n    tag_60:\n      pop\n      tag_61\n      tag_62\n      jump\t// in\n    tag_61:\n      mload(0x40)\n      tag_63\n      swap2\n      swap1\n      tag_50\n      jump\t// in\n    tag_63:\n      mload(0x40)\n      dup1\n      swap2\n      sub\n      swap1\n      return\n        /* \"DirectDonation.sol\":7164:7308  function updateToken(uint8 _fee) public onlyOwner returns (bool) {... */\n    tag_9:\n      callvalue\n      dup1\n      iszero\n      tag_64\n      jumpi\n      0x00\n      dup1\n      revert\n    tag_64:\n      pop\n      tag_65\n      0x04\n      dup1\n      calldatasize\n      sub\n      dup2\n      add\n      swap1\n      tag_66\n      swap2\n      swap1\n      tag_67\n      jump\t// in\n    tag_66:\n      tag_68\n      jump\t// in\n    tag_65:\n      mload(0x40)\n      tag_69\n      swap2\n      swap1\n      tag_70\n      jump\t// in\n    tag_69:\n      mload(0x40)\n      dup1\n      swap2\n      sub\n      swap1\n      return\n        /* \"DirectDonation.sol\":7670:7899  function transferBalance(address payable _to, uint256 _amount) public onlyOwner {... */\n    tag_10:\n      callvalue\n      dup1\n      iszero\n      tag_71\n      jumpi\n      0x00\n      dup1\n      revert\n    tag_71:\n      pop\n      tag_72\n      0x04\n      dup1\n      calldatasize\n      sub\n      dup2\n      add\n      swap1\n      tag_73\n      swap2\n      swap1\n      tag_74\n      jump\t// in\n    tag_73:\n      tag_75\n      jump\t// in\n    tag_72:\n      stop\n        /* \"DirectDonation.sol\":1991:2442  function getToken(address _addr) public view returns (TokenStruct[] memory list) {... */\n    tag_11:\n      callvalue\n      dup1\n      iszero\n      tag_76\n      jumpi\n      0x00\n      dup1\n      revert\n    tag_76:\n      pop\n      tag_77\n      0x04\n      dup1\n      calldatasize\n      sub\n      dup2\n      add\n      swap1\n      tag_78\n      swap2\n      swap1\n      tag_57\n      jump\t// in\n    tag_78:\n      tag_79\n      jump\t// in\n    tag_77:\n      mload(0x40)\n      tag_80\n      swap2\n      swap1\n      tag_81\n      jump\t// in\n    tag_80:\n      mload(0x40)\n      dup1\n      swap2\n      sub\n      swap1\n      return\n        /* \"_pausable.sol\":1871:1955  function paused() public view virtual returns (bool) {... */\n    tag_12:\n      callvalue\n      dup1\n      iszero\n      tag_82\n      jumpi\n      0x00\n      dup1\n      revert\n    tag_82:\n      pop\n      tag_83\n      tag_84\n      jump\t// in\n    tag_83:\n      mload(0x40)\n      tag_85\n      swap2\n      swap1\n      tag_70\n      jump\t// in\n    tag_85:\n      mload(0x40)\n      dup1\n      swap2\n      sub\n      swap1\n      return\n        /* \"_ownable.sol\":2314:2415  function renounceOwnership() public virtual onlyOwner {... */\n    tag_13:\n      callvalue\n      dup1\n      iszero\n      tag_86\n      jumpi\n      0x00\n      dup1\n      revert\n    tag_86:\n      pop\n      tag_87\n      tag_88\n      jump\t// in\n    tag_87:\n      stop\n        /* \"DirectDonation.sol\":1268:1318  mapping(bytes32 => DonationStruct) public donation */\n    tag_14:\n      callvalue\n      dup1\n      iszero\n      tag_89\n      jumpi\n      0x00\n      dup1\n      revert\n    tag_89:\n      pop\n      tag_90\n      0x04\n      dup1\n      calldatasize\n      sub\n      dup2\n      add\n      swap1\n      tag_91\n      swap2\n      swap1\n      tag_47\n      jump\t// in\n    tag_91:\n      tag_92\n      jump\t// in\n    tag_90:\n      mload(0x40)\n      tag_93\n      swap7\n      swap6\n      swap5\n      swap4\n      swap3\n      swap2\n      swap1\n      tag_94\n      jump\t// in\n    tag_93:\n      mload(0x40)\n      dup1\n      swap2\n      sub\n      swap1\n      return\n        /* \"DirectDonation.sol\":8082:8141  function pause() public onlyOwner {... */\n    tag_15:\n      callvalue\n      dup1\n      iszero\n      tag_95\n      jumpi\n      0x00\n      dup1\n      revert\n    tag_95:\n      pop\n      tag_96\n      tag_97\n      jump\t// in\n    tag_96:\n      stop\n        /* \"_ownable.sol\":1659:1744  function owner() public view virtual returns (address) {... */\n    tag_16:\n      callvalue\n      dup1\n      iszero\n      tag_98\n      jumpi\n      0x00\n      dup1\n      revert\n    tag_98:\n      pop\n      tag_99\n      tag_100\n      jump\t// in\n    tag_99:\n      mload(0x40)\n      tag_101\n      swap2\n      swap1\n      tag_102\n      jump\t// in\n    tag_101:\n      mload(0x40)\n      dup1\n      swap2\n      sub\n      swap1\n      return\n        /* \"DirectDonation.sol\":819:856  Counters.Counter public _tokenCounter */\n    tag_17:\n      callvalue\n      dup1\n      iszero\n      tag_103\n      jumpi\n      0x00\n      dup1\n      revert\n    tag_103:\n      pop\n      tag_104\n      tag_105\n      jump\t// in\n    tag_104:\n      mload(0x40)\n      tag_106\n      swap2\n      swap1\n      tag_35\n      jump\t// in\n    tag_106:\n      mload(0x40)\n      dup1\n      swap2\n      sub\n      swap1\n      return\n        /* \"DirectDonation.sol\":6800:7131  function updateToken(... */\n    tag_18:\n      callvalue\n      dup1\n      iszero\n      tag_107\n      jumpi\n      0x00\n      dup1\n      revert\n    tag_107:\n      pop\n      tag_108\n      0x04\n      dup1\n      calldatasize\n      sub\n      dup2\n      add\n      swap1\n      tag_109\n      swap2\n      swap1\n      tag_110\n      jump\t// in\n    tag_109:\n      tag_111\n      jump\t// in\n    tag_108:\n      mload(0x40)\n      tag_112\n      swap2\n      swap1\n      tag_70\n      jump\t// in\n    tag_112:\n      mload(0x40)\n      dup1\n      swap2\n      sub\n      swap1\n      return\n        /* \"DirectDonation.sol\":5847:6014  function calcPercentage(uint256 amount, uint256 bps) public pure returns (uint256) {... */\n    tag_19:\n      callvalue\n      dup1\n      iszero\n      tag_113\n      jumpi\n      0x00\n      dup1\n      revert\n    tag_113:\n      pop\n      tag_114\n      0x04\n      dup1\n      calldatasize\n      sub\n      dup2\n      add\n      swap1\n      tag_115\n      swap2\n      swap1\n      tag_116\n      jump\t// in\n    tag_115:\n      tag_117\n      jump\t// in\n    tag_114:\n      mload(0x40)\n      tag_118\n      swap2\n      swap1\n      tag_35\n      jump\t// in\n    tag_118:\n      mload(0x40)\n      dup1\n      swap2\n      sub\n      swap1\n      return\n        /* \"DirectDonation.sol\":4434:5703  function donate(... */\n    tag_20:\n      tag_119\n      0x04\n      dup1\n      calldatasize\n      sub\n      dup2\n      add\n      swap1\n      tag_120\n      swap2\n      swap1\n      tag_121\n      jump\t// in\n    tag_120:\n      tag_122\n      jump\t// in\n    tag_119:\n      mload(0x40)\n      tag_123\n      swap2\n      swap1\n      tag_70\n      jump\t// in\n    tag_123:\n      mload(0x40)\n      dup1\n      swap2\n      sub\n      swap1\n      return\n        /* \"DirectDonation.sol\":3925:4406  function getDonationByAppId(bytes32 _appId) public view returns (DonationStruct[] memory list) {... */\n    tag_21:\n      callvalue\n      dup1\n      iszero\n      tag_124\n      jumpi\n      0x00\n      dup1\n      revert\n    tag_124:\n      pop\n      tag_125\n      0x04\n      dup1\n      calldatasize\n      sub\n      dup2\n      add\n      swap1\n      tag_126\n      swap2\n      swap1\n      tag_47\n      jump\t// in\n    tag_126:\n      tag_127\n      jump\t// in\n    tag_125:\n      mload(0x40)\n      tag_128\n      swap2\n      swap1\n      tag_50\n      jump\t// in\n    tag_128:\n      mload(0x40)\n      dup1\n      swap2\n      sub\n      swap1\n      return\n        /* \"DirectDonation.sol\":6048:6427  function addToken(address _addr) public onlyOwner returns (bytes32) {... */\n    tag_22:\n      callvalue\n      dup1\n      iszero\n      tag_129\n      jumpi\n      0x00\n      dup1\n      revert\n    tag_129:\n      pop\n      tag_130\n      0x04\n      dup1\n      calldatasize\n      sub\n      dup2\n      add\n      swap1\n      tag_131\n      swap2\n      swap1\n      tag_57\n      jump\t// in\n    tag_131:\n      tag_132\n      jump\t// in\n    tag_130:\n      mload(0x40)\n      tag_133\n      swap2\n      swap1\n      tag_134\n      jump\t// in\n    tag_133:\n      mload(0x40)\n      dup1\n      swap2\n      sub\n      swap1\n      return\n        /* \"DirectDonation.sol\":1324:1368  mapping(bytes32 => TokenStruct) public token */\n    tag_23:\n      callvalue\n      dup1\n      iszero\n      tag_135\n      jumpi\n      0x00\n      dup1\n      revert\n    tag_135:\n      pop\n      tag_136\n      0x04\n      dup1\n      calldatasize\n      sub\n      dup2\n      add\n      swap1\n      tag_137\n      swap2\n      swap1\n      tag_47\n      jump\t// in\n    tag_137:\n      tag_138\n      jump\t// in\n    tag_136:\n      mload(0x40)\n      tag_139\n      swap4\n      swap3\n      swap2\n      swap1\n      tag_140\n      jump\t// in\n    tag_139:\n      mload(0x40)\n      dup1\n      swap2\n      sub\n      swap1\n      return\n        /* \"DirectDonation.sol\":6464:6765  function deleteToken(bytes32 _tokenId) public onlyOwner returns (uint256) {... */\n    tag_24:\n      callvalue\n      dup1\n      iszero\n      tag_141\n      jumpi\n      0x00\n      dup1\n      revert\n    tag_141:\n      pop\n      tag_142\n      0x04\n      dup1\n      calldatasize\n      sub\n      dup2\n      add\n      swap1\n      tag_143\n      swap2\n      swap1\n      tag_47\n      jump\t// in\n    tag_143:\n      tag_144\n      jump\t// in\n    tag_142:\n      mload(0x40)\n      tag_145\n      swap2\n      swap1\n      tag_35\n      jump\t// in\n    tag_145:\n      mload(0x40)\n      dup1\n      swap2\n      sub\n      swap1\n      return\n        /* \"_ownable.sol\":2564:2779  function transferOwnership(address newOwner) public virtual onlyOwner {... */\n    tag_25:\n      callvalue\n      dup1\n      iszero\n      tag_146\n      jumpi\n      0x00\n      dup1\n      revert\n    tag_146:\n      pop\n      tag_147\n      0x04\n      dup1\n      calldatasize\n      sub\n      dup2\n      add\n      swap1\n      tag_148\n      swap2\n      swap1\n      tag_57\n      jump\t// in\n    tag_148:\n      tag_149\n      jump\t// in\n    tag_147:\n      stop\n        /* \"DirectDonation.sol\":775:813  Counters.Counter public _donateCounter */\n    tag_26:\n      callvalue\n      dup1\n      iszero\n      tag_150\n      jumpi\n      0x00\n      dup1\n      revert\n    tag_150:\n      pop\n      tag_151\n      tag_152\n      jump\t// in\n    tag_151:\n      mload(0x40)\n      tag_153\n      swap2\n      swap1\n      tag_35\n      jump\t// in\n    tag_153:\n      mload(0x40)\n      dup1\n      swap2\n      sub\n      swap1\n      return\n        /* \"DirectDonation.sol\":7957:8054  function getBalance() public view returns (uint256) {... */\n    tag_33:\n        /* \"DirectDonation.sol\":8000:8007  uint256 */\n      0x00\n        /* \"DirectDonation.sol\":8026:8047  address(this).balance */\n      selfbalance\n        /* \"DirectDonation.sol\":8019:8047  return address(this).balance */\n      swap1\n      pop\n        /* \"DirectDonation.sol\":7957:8054  function getBalance() public view returns (uint256) {... */\n      swap1\n      jump\t// out\n        /* \"DirectDonation.sol\":1566:1960  function getTokenList() public view returns (TokenExportStruct[] memory list) {... */\n    tag_38:\n        /* \"DirectDonation.sol\":1611:1642  TokenExportStruct[] memory list */\n      0x60\n        /* \"DirectDonation.sol\":1654:1687  TokenExportStruct[] memory result */\n      0x00\n        /* \"DirectDonation.sol\":1714:1737  _tokenCounter.current() */\n      tag_156\n        /* \"DirectDonation.sol\":1714:1727  _tokenCounter */\n      0x02\n        /* \"DirectDonation.sol\":1714:1735  _tokenCounter.current */\n      tag_157\n        /* \"DirectDonation.sol\":1714:1737  _tokenCounter.current() */\n      jump\t// in\n    tag_156:\n        /* \"DirectDonation.sol\":1690:1738  new TokenExportStruct[](_tokenCounter.current()) */\n      0xffffffffffffffff\n      dup2\n      gt\n      iszero\n      tag_158\n      jumpi\n      tag_159\n      tag_160\n      jump\t// in\n    tag_159:\n    tag_158:\n      mload(0x40)\n      swap1\n      dup1\n      dup3\n      mstore\n      dup1\n      0x20\n      mul\n      0x20\n      add\n      dup3\n      add\n      0x40\n      mstore\n      dup1\n      iszero\n      tag_161\n      jumpi\n      dup2\n      0x20\n      add\n    tag_162:\n      tag_163\n      tag_164\n      jump\t// in\n    tag_163:\n      dup2\n      mstore\n      0x20\n      add\n      swap1\n      0x01\n      swap1\n      sub\n      swap1\n      dup2\n      tag_162\n      jumpi\n      swap1\n      pop\n    tag_161:\n      pop\n        /* \"DirectDonation.sol\":1654:1738  TokenExportStruct[] memory result = new TokenExportStruct[](_tokenCounter.current()) */\n      swap1\n      pop\n        /* \"DirectDonation.sol\":1753:1762  uint256 i */\n      0x00\n        /* \"DirectDonation.sol\":1748:1930  for (uint256 i = 0; i < _tokenCounter.current(); i++) result[i] = TokenExportStruct(bytes32(i + 1), token[bytes32(i + 1)].addr, token[bytes32(i + 1)].pause, token[bytes32(i + 1)].dt) */\n    tag_165:\n        /* \"DirectDonation.sol\":1772:1795  _tokenCounter.current() */\n      tag_168\n        /* \"DirectDonation.sol\":1772:1785  _tokenCounter */\n      0x02\n        /* \"DirectDonation.sol\":1772:1793  _tokenCounter.current */\n      tag_157\n        /* \"DirectDonation.sol\":1772:1795  _tokenCounter.current() */\n      jump\t// in\n    tag_168:\n        /* \"DirectDonation.sol\":1768:1769  i */\n      dup2\n        /* \"DirectDonation.sol\":1768:1795  i < _tokenCounter.current() */\n      lt\n        /* \"DirectDonation.sol\":1748:1930  for (uint256 i = 0; i < _tokenCounter.current(); i++) result[i] = TokenExportStruct(bytes32(i + 1), token[bytes32(i + 1)].addr, token[bytes32(i + 1)].pause, token[bytes32(i + 1)].dt) */\n      iszero\n      tag_166\n      jumpi\n        /* \"DirectDonation.sol\":1814:1930  TokenExportStruct(bytes32(i + 1), token[bytes32(i + 1)].addr, token[bytes32(i + 1)].pause, token[bytes32(i + 1)].dt) */\n      mload(0x40)\n      dup1\n      0x80\n      add\n      0x40\n      mstore\n      dup1\n        /* \"DirectDonation.sol\":1844:1845  1 */\n      0x01\n        /* \"DirectDonation.sol\":1840:1841  i */\n      dup4\n        /* \"DirectDonation.sol\":1840:1845  i + 1 */\n      tag_169\n      swap2\n      swap1\n      tag_170\n      jump\t// in\n    tag_169:\n        /* \"DirectDonation.sol\":1832:1846  bytes32(i + 1) */\n      0x00\n      shl\n        /* \"DirectDonation.sol\":1814:1930  TokenExportStruct(bytes32(i + 1), token[bytes32(i + 1)].addr, token[bytes32(i + 1)].pause, token[bytes32(i + 1)].dt) */\n      dup2\n      mstore\n      0x20\n      add\n        /* \"DirectDonation.sol\":1848:1853  token */\n      0x05\n        /* \"DirectDonation.sol\":1848:1869  token[bytes32(i + 1)] */\n      0x00\n        /* \"DirectDonation.sol\":1866:1867  1 */\n      0x01\n        /* \"DirectDonation.sol\":1862:1863  i */\n      dup6\n        /* \"DirectDonation.sol\":1862:1867  i + 1 */\n      tag_171\n      swap2\n      swap1\n      tag_170\n      jump\t// in\n    tag_171:\n        /* \"DirectDonation.sol\":1854:1868  bytes32(i + 1) */\n      0x00\n      shl\n        /* \"DirectDonation.sol\":1848:1869  token[bytes32(i + 1)] */\n      dup2\n      mstore\n      0x20\n      add\n      swap1\n      dup2\n      mstore\n      0x20\n      add\n      0x00\n      keccak256\n        /* \"DirectDonation.sol\":1848:1874  token[bytes32(i + 1)].addr */\n      0x00\n      add\n      0x00\n      swap1\n      sload\n      swap1\n      0x0100\n      exp\n      swap1\n      div\n      0xffffffffffffffffffffffffffffffffffffffff\n      and\n        /* \"DirectDonation.sol\":1814:1930  TokenExportStruct(bytes32(i + 1), token[bytes32(i + 1)].addr, token[bytes32(i + 1)].pause, token[bytes32(i + 1)].dt) */\n      0xffffffffffffffffffffffffffffffffffffffff\n      and\n      dup2\n      mstore\n      0x20\n      add\n        /* \"DirectDonation.sol\":1876:1881  token */\n      0x05\n        /* \"DirectDonation.sol\":1876:1897  token[bytes32(i + 1)] */\n      0x00\n        /* \"DirectDonation.sol\":1894:1895  1 */\n      0x01\n        /* \"DirectDonation.sol\":1890:1891  i */\n      dup6\n        /* \"DirectDonation.sol\":1890:1895  i + 1 */\n      tag_172\n      swap2\n      swap1\n      tag_170\n      jump\t// in\n    tag_172:\n        /* \"DirectDonation.sol\":1882:1896  bytes32(i + 1) */\n      0x00\n      shl\n        /* \"DirectDonation.sol\":1876:1897  token[bytes32(i + 1)] */\n      dup2\n      mstore\n      0x20\n      add\n      swap1\n      dup2\n      mstore\n      0x20\n      add\n      0x00\n      keccak256\n        /* \"DirectDonation.sol\":1876:1903  token[bytes32(i + 1)].pause */\n      0x00\n      add\n      0x14\n      swap1\n      sload\n      swap1\n      0x0100\n      exp\n      swap1\n      div\n      0xff\n      and\n        /* \"DirectDonation.sol\":1814:1930  TokenExportStruct(bytes32(i + 1), token[bytes32(i + 1)].addr, token[bytes32(i + 1)].pause, token[bytes32(i + 1)].dt) */\n      iszero\n      iszero\n      dup2\n      mstore\n      0x20\n      add\n        /* \"DirectDonation.sol\":1905:1910  token */\n      0x05\n        /* \"DirectDonation.sol\":1905:1926  token[bytes32(i + 1)] */\n      0x00\n        /* \"DirectDonation.sol\":1923:1924  1 */\n      0x01\n        /* \"DirectDonation.sol\":1919:1920  i */\n      dup6\n        /* \"DirectDonation.sol\":1919:1924  i + 1 */\n      tag_173\n      swap2\n      swap1\n      tag_170\n      jump\t// in\n    tag_173:\n        /* \"DirectDonation.sol\":1911:1925  bytes32(i + 1) */\n      0x00\n      shl\n        /* \"DirectDonation.sol\":1905:1926  token[bytes32(i + 1)] */\n      dup2\n      mstore\n      0x20\n      add\n      swap1\n      dup2\n      mstore\n      0x20\n      add\n      0x00\n      keccak256\n        /* \"DirectDonation.sol\":1905:1929  token[bytes32(i + 1)].dt */\n      0x01\n      add\n      sload\n        /* \"DirectDonation.sol\":1814:1930  TokenExportStruct(bytes32(i + 1), token[bytes32(i + 1)].addr, token[bytes32(i + 1)].pause, token[bytes32(i + 1)].dt) */\n      dup2\n      mstore\n      pop\n        /* \"DirectDonation.sol\":1802:1808  result */\n      dup3\n        /* \"DirectDonation.sol\":1809:1810  i */\n      dup3\n        /* \"DirectDonation.sol\":1802:1811  result[i] */\n      dup2\n      mload\n      dup2\n      lt\n      tag_174\n      jumpi\n      tag_175\n      tag_176\n      jump\t// in\n    tag_175:\n    tag_174:\n      0x20\n      mul\n      0x20\n      add\n      add\n        /* \"DirectDonation.sol\":1802:1930  result[i] = TokenExportStruct(bytes32(i + 1), token[bytes32(i + 1)].addr, token[bytes32(i + 1)].pause, token[bytes32(i + 1)].dt) */\n      dup2\n      swap1\n      mstore\n      pop\n        /* \"DirectDonation.sol\":1797:1800  i++ */\n      dup1\n      dup1\n      0x01\n      add\n      swap2\n      pop\n      pop\n        /* \"DirectDonation.sol\":1748:1930  for (uint256 i = 0; i < _tokenCounter.current(); i++) result[i] = TokenExportStruct(bytes32(i + 1), token[bytes32(i + 1)].addr, token[bytes32(i + 1)].pause, token[bytes32(i + 1)].dt) */\n      jump(tag_165)\n    tag_166:\n      pop\n        /* \"DirectDonation.sol\":1947:1953  result */\n      dup1\n        /* \"DirectDonation.sol\":1940:1953  return result */\n      swap2\n      pop\n      pop\n        /* \"DirectDonation.sol\":1566:1960  function getTokenList() public view returns (TokenExportStruct[] memory list) {... */\n      swap1\n      jump\t// out\n        /* \"DirectDonation.sol\":7408:7596  function withdraw() public onlyOwner {... */\n    tag_43:\n        /* \"_ownable.sol\":1552:1565  _checkOwner() */\n      tag_178\n        /* \"_ownable.sol\":1552:1563  _checkOwner */\n      tag_179\n        /* \"_ownable.sol\":1552:1565  _checkOwner() */\n      jump\t// in\n    tag_178:\n        /* \"DirectDonation.sol\":7455:7469  uint256 amount */\n      0x00\n        /* \"DirectDonation.sol\":7472:7493  address(this).balance */\n      selfbalance\n        /* \"DirectDonation.sol\":7455:7493  uint256 amount = address(this).balance */\n      swap1\n      pop\n        /* \"DirectDonation.sol\":7504:7516  bool success */\n      0x00\n        /* \"DirectDonation.sol\":7522:7529  owner() */\n      tag_181\n        /* \"DirectDonation.sol\":7522:7527  owner */\n      tag_100\n        /* \"DirectDonation.sol\":7522:7529  owner() */\n      jump\t// in\n    tag_181:\n        /* \"DirectDonation.sol\":7522:7534  owner().call */\n      0xffffffffffffffffffffffffffffffffffffffff\n      and\n        /* \"DirectDonation.sol\":7542:7548  amount */\n      dup3\n        /* \"DirectDonation.sol\":7522:7553  owner().call{value: amount}(\"\") */\n      mload(0x40)\n      tag_182\n      swap1\n      tag_183\n      jump\t// in\n    tag_182:\n      0x00\n      mload(0x40)\n      dup1\n      dup4\n      sub\n      dup2\n      dup6\n      dup8\n      gas\n      call\n      swap3\n      pop\n      pop\n      pop\n      returndatasize\n      dup1\n      0x00\n      dup2\n      eq\n      tag_186\n      jumpi\n      mload(0x40)\n      swap2\n      pop\n      and(add(returndatasize, 0x3f), not(0x1f))\n      dup3\n      add\n      0x40\n      mstore\n      returndatasize\n      dup3\n      mstore\n      returndatasize\n      0x00\n      0x20\n      dup5\n      add\n      returndatacopy\n      jump(tag_185)\n    tag_186:\n      0x60\n      swap2\n      pop\n    tag_185:\n      pop\n        /* \"DirectDonation.sol\":7503:7553  (bool success, ) = owner().call{value: amount}(\"\") */\n      pop\n      swap1\n      pop\n        /* \"DirectDonation.sol\":7571:7578  success */\n      dup1\n        /* \"DirectDonation.sol\":7563:7589  require(success, \"Failed\") */\n      tag_187\n      jumpi\n      mload(0x40)\n      0x08c379a000000000000000000000000000000000000000000000000000000000\n      dup2\n      mstore\n      0x04\n      add\n      tag_188\n      swap1\n      tag_189\n      jump\t// in\n    tag_188:\n      mload(0x40)\n      dup1\n      swap2\n      sub\n      swap1\n      revert\n    tag_187:\n        /* \"DirectDonation.sol\":7445:7596  {... */\n      pop\n      pop\n        /* \"DirectDonation.sol\":7408:7596  function withdraw() public onlyOwner {... */\n      jump\t// out\n        /* \"DirectDonation.sol\":3381:3867  function getDonationByToekn(bytes32 _tokenId) public view returns (DonationStruct[] memory list) {... */\n    tag_48:\n        /* \"DirectDonation.sol\":3448:3476  DonationStruct[] memory list */\n      0x60\n        /* \"DirectDonation.sol\":3488:3518  DonationStruct[] memory result */\n      0x00\n        /* \"DirectDonation.sol\":3542:3566  _donateCounter.current() */\n      tag_191\n        /* \"DirectDonation.sol\":3542:3556  _donateCounter */\n      0x01\n        /* \"DirectDonation.sol\":3542:3564  _donateCounter.current */\n      tag_157\n        /* \"DirectDonation.sol\":3542:3566  _donateCounter.current() */\n      jump\t// in\n    tag_191:\n        /* \"DirectDonation.sol\":3521:3567  new DonationStruct[](_donateCounter.current()) */\n      0xffffffffffffffff\n      dup2\n      gt\n      iszero\n      tag_192\n      jumpi\n      tag_193\n      tag_160\n      jump\t// in\n    tag_193:\n    tag_192:\n      mload(0x40)\n      swap1\n      dup1\n      dup3\n      mstore\n      dup1\n      0x20\n      mul\n      0x20\n      add\n      dup3\n      add\n      0x40\n      mstore\n      dup1\n      iszero\n      tag_194\n      jumpi\n      dup2\n      0x20\n      add\n    tag_195:\n      tag_196\n      tag_197\n      jump\t// in\n    tag_196:\n      dup2\n      mstore\n      0x20\n      add\n      swap1\n      0x01\n      swap1\n      sub\n      swap1\n      dup2\n      tag_195\n      jumpi\n      swap1\n      pop\n    tag_194:\n      pop\n        /* \"DirectDonation.sol\":3488:3567  DonationStruct[] memory result = new DonationStruct[](_donateCounter.current()) */\n      swap1\n      pop\n        /* \"DirectDonation.sol\":3578:3593  uint256 counter */\n      0x00\n        /* \"DirectDonation.sol\":3612:3621  uint256 i */\n      dup1\n        /* \"DirectDonation.sol\":3607:3838  for (uint256 i = 0; i < _donateCounter.current(); i++) {... */\n    tag_198:\n        /* \"DirectDonation.sol\":3631:3655  _donateCounter.current() */\n      tag_201\n        /* \"DirectDonation.sol\":3631:3645  _donateCounter */\n      0x01\n        /* \"DirectDonation.sol\":3631:3653  _donateCounter.current */\n      tag_157\n        /* \"DirectDonation.sol\":3631:3655  _donateCounter.current() */\n      jump\t// in\n    tag_201:\n        /* \"DirectDonation.sol\":3627:3628  i */\n      dup2\n        /* \"DirectDonation.sol\":3627:3655  i < _donateCounter.current() */\n      lt\n        /* \"DirectDonation.sol\":3607:3838  for (uint256 i = 0; i < _donateCounter.current(); i++) {... */\n      iszero\n      tag_199\n      jumpi\n        /* \"DirectDonation.sol\":3716:3724  _tokenId */\n      dup5\n        /* \"DirectDonation.sol\":3680:3688  donation */\n      0x04\n        /* \"DirectDonation.sol\":3680:3704  donation[bytes32(i + 1)] */\n      0x00\n        /* \"DirectDonation.sol\":3701:3702  1 */\n      0x01\n        /* \"DirectDonation.sol\":3697:3698  i */\n      dup5\n        /* \"DirectDonation.sol\":3697:3702  i + 1 */\n      tag_202\n      swap2\n      swap1\n      tag_170\n      jump\t// in\n    tag_202:\n        /* \"DirectDonation.sol\":3689:3703  bytes32(i + 1) */\n      0x00\n      shl\n        /* \"DirectDonation.sol\":3680:3704  donation[bytes32(i + 1)] */\n      dup2\n      mstore\n      0x20\n      add\n      swap1\n      dup2\n      mstore\n      0x20\n      add\n      0x00\n      keccak256\n        /* \"DirectDonation.sol\":3680:3712  donation[bytes32(i + 1)].tokenId */\n      0x01\n      add\n      sload\n        /* \"DirectDonation.sol\":3680:3724  donation[bytes32(i + 1)].tokenId == _tokenId */\n      sub\n        /* \"DirectDonation.sol\":3676:3828  if (donation[bytes32(i + 1)].tokenId == _tokenId) {... */\n      tag_203\n      jumpi\n        /* \"DirectDonation.sol\":3762:3770  donation */\n      0x04\n        /* \"DirectDonation.sol\":3762:3786  donation[bytes32(i + 1)] */\n      0x00\n        /* \"DirectDonation.sol\":3783:3784  1 */\n      0x01\n        /* \"DirectDonation.sol\":3779:3780  i */\n      dup4\n        /* \"DirectDonation.sol\":3779:3784  i + 1 */\n      tag_204\n      swap2\n      swap1\n      tag_170\n      jump\t// in\n    tag_204:\n        /* \"DirectDonation.sol\":3771:3785  bytes32(i + 1) */\n      0x00\n      shl\n        /* \"DirectDonation.sol\":3762:3786  donation[bytes32(i + 1)] */\n      dup2\n      mstore\n      0x20\n      add\n      swap1\n      dup2\n      mstore\n      0x20\n      add\n      0x00\n      keccak256\n        /* \"DirectDonation.sol\":3744:3786  result[counter] = donation[bytes32(i + 1)] */\n      mload(0x40)\n      dup1\n      0xc0\n      add\n      0x40\n      mstore\n      swap1\n      dup2\n      0x00\n      dup3\n      add\n      0x00\n      swap1\n      sload\n      swap1\n      0x0100\n      exp\n      swap1\n      div\n      0xffffffffffffffffffffffffffffffffffffffff\n      and\n      0xffffffffffffffffffffffffffffffffffffffff\n      and\n      0xffffffffffffffffffffffffffffffffffffffff\n      and\n      dup2\n      mstore\n      0x20\n      add\n      0x01\n      dup3\n      add\n      sload\n      dup2\n      mstore\n      0x20\n      add\n      0x02\n      dup3\n      add\n      sload\n      dup2\n      mstore\n      0x20\n      add\n      0x03\n      dup3\n      add\n      sload\n      dup2\n      mstore\n      0x20\n      add\n      0x04\n      dup3\n      add\n      0x00\n      swap1\n      sload\n      swap1\n      0x0100\n      exp\n      swap1\n      div\n      0xffffffffffffffffffffffffffffffffffffffff\n      and\n      0xffffffffffffffffffffffffffffffffffffffff\n      and\n      0xffffffffffffffffffffffffffffffffffffffff\n      and\n      dup2\n      mstore\n      0x20\n      add\n      0x05\n      dup3\n      add\n      sload\n      dup2\n      mstore\n      pop\n      pop\n        /* \"DirectDonation.sol\":3744:3750  result */\n      dup4\n        /* \"DirectDonation.sol\":3751:3758  counter */\n      dup4\n        /* \"DirectDonation.sol\":3744:3759  result[counter] */\n      dup2\n      mload\n      dup2\n      lt\n      tag_205\n      jumpi\n      tag_206\n      tag_176\n      jump\t// in\n    tag_206:\n    tag_205:\n      0x20\n      mul\n      0x20\n      add\n      add\n        /* \"DirectDonation.sol\":3744:3786  result[counter] = donation[bytes32(i + 1)] */\n      dup2\n      swap1\n      mstore\n      pop\n        /* \"DirectDonation.sol\":3804:3813  counter++ */\n      dup2\n      dup1\n      tag_207\n      swap1\n      tag_208\n      jump\t// in\n    tag_207:\n      swap3\n      pop\n      pop\n        /* \"DirectDonation.sol\":3676:3828  if (donation[bytes32(i + 1)].tokenId == _tokenId) {... */\n    tag_203:\n        /* \"DirectDonation.sol\":3657:3660  i++ */\n      dup1\n      dup1\n      0x01\n      add\n      swap2\n      pop\n      pop\n        /* \"DirectDonation.sol\":3607:3838  for (uint256 i = 0; i < _donateCounter.current(); i++) {... */\n      jump(tag_198)\n    tag_199:\n      pop\n        /* \"DirectDonation.sol\":3854:3860  result */\n      dup2\n        /* \"DirectDonation.sol\":3847:3860  return result */\n      swap3\n      pop\n      pop\n      pop\n        /* \"DirectDonation.sol\":3381:3867  function getDonationByToekn(bytes32 _tokenId) public view returns (DonationStruct[] memory list) {... */\n      swap2\n      swap1\n      pop\n      jump\t// out\n        /* \"DirectDonation.sol\":8171:8234  function unpause() public onlyOwner {... */\n    tag_53:\n        /* \"_ownable.sol\":1552:1565  _checkOwner() */\n      tag_210\n        /* \"_ownable.sol\":1552:1563  _checkOwner */\n      tag_179\n        /* \"_ownable.sol\":1552:1565  _checkOwner() */\n      jump\t// in\n    tag_210:\n        /* \"DirectDonation.sol\":8217:8227  _unpause() */\n      tag_212\n        /* \"DirectDonation.sol\":8217:8225  _unpause */\n      tag_213\n        /* \"DirectDonation.sol\":8217:8227  _unpause() */\n      jump\t// in\n    tag_212:\n        /* \"DirectDonation.sol\":8171:8234  function unpause() public onlyOwner {... */\n      jump\t// out\n        /* \"DirectDonation.sol\":2834:3323  function getDonation(address _donator) public view returns (DonationStruct[] memory list) {... */\n    tag_58:\n        /* \"DirectDonation.sol\":2894:2922  DonationStruct[] memory list */\n      0x60\n        /* \"DirectDonation.sol\":2934:2964  DonationStruct[] memory result */\n      0x00\n        /* \"DirectDonation.sol\":2988:3012  _donateCounter.current() */\n      tag_215\n        /* \"DirectDonation.sol\":2988:3002  _donateCounter */\n      0x01\n        /* \"DirectDonation.sol\":2988:3010  _donateCounter.current */\n      tag_157\n        /* \"DirectDonation.sol\":2988:3012  _donateCounter.current() */\n      jump\t// in\n    tag_215:\n        /* \"DirectDonation.sol\":2967:3013  new DonationStruct[](_donateCounter.current()) */\n      0xffffffffffffffff\n      dup2\n      gt\n      iszero\n      tag_216\n      jumpi\n      tag_217\n      tag_160\n      jump\t// in\n    tag_217:\n    tag_216:\n      mload(0x40)\n      swap1\n      dup1\n      dup3\n      mstore\n      dup1\n      0x20\n      mul\n      0x20\n      add\n      dup3\n      add\n      0x40\n      mstore\n      dup1\n      iszero\n      tag_218\n      jumpi\n      dup2\n      0x20\n      add\n    tag_219:\n      tag_220\n      tag_197\n      jump\t// in\n    tag_220:\n      dup2\n      mstore\n      0x20\n      add\n      swap1\n      0x01\n      swap1\n      sub\n      swap1\n      dup2\n      tag_219\n      jumpi\n      swap1\n      pop\n    tag_218:\n      pop\n        /* \"DirectDonation.sol\":2934:3013  DonationStruct[] memory result = new DonationStruct[](_donateCounter.current()) */\n      swap1\n      pop\n        /* \"DirectDonation.sol\":3024:3039  uint256 counter */\n      0x00\n        /* \"DirectDonation.sol\":3058:3067  uint256 i */\n      dup1\n        /* \"DirectDonation.sol\":3053:3293  for (uint256 i = 0; i < _donateCounter.current(); i++) {... */\n    tag_221:\n        /* \"DirectDonation.sol\":3077:3101  _donateCounter.current() */\n      tag_224\n        /* \"DirectDonation.sol\":3077:3091  _donateCounter */\n      0x01\n        /* \"DirectDonation.sol\":3077:3099  _donateCounter.current */\n      tag_157\n        /* \"DirectDonation.sol\":3077:3101  _donateCounter.current() */\n      jump\t// in\n    tag_224:\n        /* \"DirectDonation.sol\":3073:3074  i */\n      dup2\n        /* \"DirectDonation.sol\":3073:3101  i < _donateCounter.current() */\n      lt\n        /* \"DirectDonation.sol\":3053:3293  for (uint256 i = 0; i < _donateCounter.current(); i++) {... */\n      iszero\n      tag_222\n      jumpi\n        /* \"DirectDonation.sol\":3170:3178  _donator */\n      dup5\n        /* \"DirectDonation.sol\":3126:3179  donation[bytes32(i + 1)].donator == address(_donator) */\n      0xffffffffffffffffffffffffffffffffffffffff\n      and\n        /* \"DirectDonation.sol\":3126:3134  donation */\n      0x04\n        /* \"DirectDonation.sol\":3126:3150  donation[bytes32(i + 1)] */\n      0x00\n        /* \"DirectDonation.sol\":3147:3148  1 */\n      0x01\n        /* \"DirectDonation.sol\":3143:3144  i */\n      dup5\n        /* \"DirectDonation.sol\":3143:3148  i + 1 */\n      tag_225\n      swap2\n      swap1\n      tag_170\n      jump\t// in\n    tag_225:\n        /* \"DirectDonation.sol\":3135:3149  bytes32(i + 1) */\n      0x00\n      shl\n        /* \"DirectDonation.sol\":3126:3150  donation[bytes32(i + 1)] */\n      dup2\n      mstore\n      0x20\n      add\n      swap1\n      dup2\n      mstore\n      0x20\n      add\n      0x00\n      keccak256\n        /* \"DirectDonation.sol\":3126:3158  donation[bytes32(i + 1)].donator */\n      0x00\n      add\n      0x00\n      swap1\n      sload\n      swap1\n      0x0100\n      exp\n      swap1\n      div\n      0xffffffffffffffffffffffffffffffffffffffff\n      and\n        /* \"DirectDonation.sol\":3126:3179  donation[bytes32(i + 1)].donator == address(_donator) */\n      0xffffffffffffffffffffffffffffffffffffffff\n      and\n      sub\n        /* \"DirectDonation.sol\":3122:3283  if (donation[bytes32(i + 1)].donator == address(_donator)) {... */\n      tag_226\n      jumpi\n        /* \"DirectDonation.sol\":3217:3225  donation */\n      0x04\n        /* \"DirectDonation.sol\":3217:3241  donation[bytes32(i + 1)] */\n      0x00\n        /* \"DirectDonation.sol\":3238:3239  1 */\n      0x01\n        /* \"DirectDonation.sol\":3234:3235  i */\n      dup4\n        /* \"DirectDonation.sol\":3234:3239  i + 1 */\n      tag_227\n      swap2\n      swap1\n      tag_170\n      jump\t// in\n    tag_227:\n        /* \"DirectDonation.sol\":3226:3240  bytes32(i + 1) */\n      0x00\n      shl\n        /* \"DirectDonation.sol\":3217:3241  donation[bytes32(i + 1)] */\n      dup2\n      mstore\n      0x20\n      add\n      swap1\n      dup2\n      mstore\n      0x20\n      add\n      0x00\n      keccak256\n        /* \"DirectDonation.sol\":3199:3241  result[counter] = donation[bytes32(i + 1)] */\n      mload(0x40)\n      dup1\n      0xc0\n      add\n      0x40\n      mstore\n      swap1\n      dup2\n      0x00\n      dup3\n      add\n      0x00\n      swap1\n      sload\n      swap1\n      0x0100\n      exp\n      swap1\n      div\n      0xffffffffffffffffffffffffffffffffffffffff\n      and\n      0xffffffffffffffffffffffffffffffffffffffff\n      and\n      0xffffffffffffffffffffffffffffffffffffffff\n      and\n      dup2\n      mstore\n      0x20\n      add\n      0x01\n      dup3\n      add\n      sload\n      dup2\n      mstore\n      0x20\n      add\n      0x02\n      dup3\n      add\n      sload\n      dup2\n      mstore\n      0x20\n      add\n      0x03\n      dup3\n      add\n      sload\n      dup2\n      mstore\n      0x20\n      add\n      0x04\n      dup3\n      add\n      0x00\n      swap1\n      sload\n      swap1\n      0x0100\n      exp\n      swap1\n      div\n      0xffffffffffffffffffffffffffffffffffffffff\n      and\n      0xffffffffffffffffffffffffffffffffffffffff\n      and\n      0xffffffffffffffffffffffffffffffffffffffff\n      and\n      dup2\n      mstore\n      0x20\n      add\n      0x05\n      dup3\n      add\n      sload\n      dup2\n      mstore\n      pop\n      pop\n        /* \"DirectDonation.sol\":3199:3205  result */\n      dup4\n        /* \"DirectDonation.sol\":3206:3213  counter */\n      dup4\n        /* \"DirectDonation.sol\":3199:3214  result[counter] */\n      dup2\n      mload\n      dup2\n      lt\n      tag_228\n      jumpi\n      tag_229\n      tag_176\n      jump\t// in\n    tag_229:\n    tag_228:\n      0x20\n      mul\n      0x20\n      add\n      add\n        /* \"DirectDonation.sol\":3199:3241  result[counter] = donation[bytes32(i + 1)] */\n      dup2\n      swap1\n      mstore\n      pop\n        /* \"DirectDonation.sol\":3259:3268  counter++ */\n      dup2\n      dup1\n      tag_230\n      swap1\n      tag_208\n      jump\t// in\n    tag_230:\n      swap3\n      pop\n      pop\n        /* \"DirectDonation.sol\":3122:3283  if (donation[bytes32(i + 1)].donator == address(_donator)) {... */\n    tag_226:\n        /* \"DirectDonation.sol\":3103:3106  i++ */\n      dup1\n      dup1\n      0x01\n      add\n      swap2\n      pop\n      pop\n        /* \"DirectDonation.sol\":3053:3293  for (uint256 i = 0; i < _donateCounter.current(); i++) {... */\n      jump(tag_221)\n    tag_222:\n      pop\n        /* \"DirectDonation.sol\":3310:3316  result */\n      dup2\n        /* \"DirectDonation.sol\":3303:3316  return result */\n      swap3\n      pop\n      pop\n      pop\n        /* \"DirectDonation.sol\":2834:3323  function getDonation(address _donator) public view returns (DonationStruct[] memory list) {... */\n      swap2\n      swap1\n      pop\n      jump\t// out\n        /* \"DirectDonation.sol\":2478:2776  function getDonationList() public view returns (DonationStruct[] memory list) {... */\n    tag_62:\n        /* \"DirectDonation.sol\":2526:2554  DonationStruct[] memory list */\n      0x60\n        /* \"DirectDonation.sol\":2566:2596  DonationStruct[] memory result */\n      0x00\n        /* \"DirectDonation.sol\":2620:2644  _donateCounter.current() */\n      tag_232\n        /* \"DirectDonation.sol\":2620:2634  _donateCounter */\n      0x01\n        /* \"DirectDonation.sol\":2620:2642  _donateCounter.current */\n      tag_157\n        /* \"DirectDonation.sol\":2620:2644  _donateCounter.current() */\n      jump\t// in\n    tag_232:\n        /* \"DirectDonation.sol\":2599:2645  new DonationStruct[](_donateCounter.current()) */\n      0xffffffffffffffff\n      dup2\n      gt\n      iszero\n      tag_233\n      jumpi\n      tag_234\n      tag_160\n      jump\t// in\n    tag_234:\n    tag_233:\n      mload(0x40)\n      swap1\n      dup1\n      dup3\n      mstore\n      dup1\n      0x20\n      mul\n      0x20\n      add\n      dup3\n      add\n      0x40\n      mstore\n      dup1\n      iszero\n      tag_235\n      jumpi\n      dup2\n      0x20\n      add\n    tag_236:\n      tag_237\n      tag_197\n      jump\t// in\n    tag_237:\n      dup2\n      mstore\n      0x20\n      add\n      swap1\n      0x01\n      swap1\n      sub\n      swap1\n      dup2\n      tag_236\n      jumpi\n      swap1\n      pop\n    tag_235:\n      pop\n        /* \"DirectDonation.sol\":2566:2645  DonationStruct[] memory result = new DonationStruct[](_donateCounter.current()) */\n      swap1\n      pop\n        /* \"DirectDonation.sol\":2660:2669  uint256 i */\n      0x00\n        /* \"DirectDonation.sol\":2655:2746  for (uint256 i = 0; i < _donateCounter.current(); i++) result[i] = donation[bytes32(i + 1)] */\n    tag_238:\n        /* \"DirectDonation.sol\":2679:2703  _donateCounter.current() */\n      tag_241\n        /* \"DirectDonation.sol\":2679:2693  _donateCounter */\n      0x01\n        /* \"DirectDonation.sol\":2679:2701  _donateCounter.current */\n      tag_157\n        /* \"DirectDonation.sol\":2679:2703  _donateCounter.current() */\n      jump\t// in\n    tag_241:\n        /* \"DirectDonation.sol\":2675:2676  i */\n      dup2\n        /* \"DirectDonation.sol\":2675:2703  i < _donateCounter.current() */\n      lt\n        /* \"DirectDonation.sol\":2655:2746  for (uint256 i = 0; i < _donateCounter.current(); i++) result[i] = donation[bytes32(i + 1)] */\n      iszero\n      tag_239\n      jumpi\n        /* \"DirectDonation.sol\":2722:2730  donation */\n      0x04\n        /* \"DirectDonation.sol\":2722:2746  donation[bytes32(i + 1)] */\n      0x00\n        /* \"DirectDonation.sol\":2743:2744  1 */\n      0x01\n        /* \"DirectDonation.sol\":2739:2740  i */\n      dup4\n        /* \"DirectDonation.sol\":2739:2744  i + 1 */\n      tag_242\n      swap2\n      swap1\n      tag_170\n      jump\t// in\n    tag_242:\n        /* \"DirectDonation.sol\":2731:2745  bytes32(i + 1) */\n      0x00\n      shl\n        /* \"DirectDonation.sol\":2722:2746  donation[bytes32(i + 1)] */\n      dup2\n      mstore\n      0x20\n      add\n      swap1\n      dup2\n      mstore\n      0x20\n      add\n      0x00\n      keccak256\n        /* \"DirectDonation.sol\":2710:2746  result[i] = donation[bytes32(i + 1)] */\n      mload(0x40)\n      dup1\n      0xc0\n      add\n      0x40\n      mstore\n      swap1\n      dup2\n      0x00\n      dup3\n      add\n      0x00\n      swap1\n      sload\n      swap1\n      0x0100\n      exp\n      swap1\n      div\n      0xffffffffffffffffffffffffffffffffffffffff\n      and\n      0xffffffffffffffffffffffffffffffffffffffff\n      and\n      0xffffffffffffffffffffffffffffffffffffffff\n      and\n      dup2\n      mstore\n      0x20\n      add\n      0x01\n      dup3\n      add\n      sload\n      dup2\n      mstore\n      0x20\n      add\n      0x02\n      dup3\n      add\n      sload\n      dup2\n      mstore\n      0x20\n      add\n      0x03\n      dup3\n      add\n      sload\n      dup2\n      mstore\n      0x20\n      add\n      0x04\n      dup3\n      add\n      0x00\n      swap1\n      sload\n      swap1\n      0x0100\n      exp\n      swap1\n      div\n      0xffffffffffffffffffffffffffffffffffffffff\n      and\n      0xffffffffffffffffffffffffffffffffffffffff\n      and\n      0xffffffffffffffffffffffffffffffffffffffff\n      and\n      dup2\n      mstore\n      0x20\n      add\n      0x05\n      dup3\n      add\n      sload\n      dup2\n      mstore\n      pop\n      pop\n        /* \"DirectDonation.sol\":2710:2716  result */\n      dup3\n        /* \"DirectDonation.sol\":2717:2718  i */\n      dup3\n        /* \"DirectDonation.sol\":2710:2719  result[i] */\n      dup2\n      mload\n      dup2\n      lt\n      tag_243\n      jumpi\n      tag_244\n      tag_176\n      jump\t// in\n    tag_244:\n    tag_243:\n      0x20\n      mul\n      0x20\n      add\n      add\n        /* \"DirectDonation.sol\":2710:2746  result[i] = donation[bytes32(i + 1)] */\n      dup2\n      swap1\n      mstore\n      pop\n        /* \"DirectDonation.sol\":2705:2708  i++ */\n      dup1\n      dup1\n      0x01\n      add\n      swap2\n      pop\n      pop\n        /* \"DirectDonation.sol\":2655:2746  for (uint256 i = 0; i < _donateCounter.current(); i++) result[i] = donation[bytes32(i + 1)] */\n      jump(tag_238)\n    tag_239:\n      pop\n        /* \"DirectDonation.sol\":2763:2769  result */\n      dup1\n        /* \"DirectDonation.sol\":2756:2769  return result */\n      swap2\n      pop\n      pop\n        /* \"DirectDonation.sol\":2478:2776  function getDonationList() public view returns (DonationStruct[] memory list) {... */\n      swap1\n      jump\t// out\n        /* \"DirectDonation.sol\":7164:7308  function updateToken(uint8 _fee) public onlyOwner returns (bool) {... */\n    tag_68:\n        /* \"DirectDonation.sol\":7223:7227  bool */\n      0x00\n        /* \"_ownable.sol\":1552:1565  _checkOwner() */\n      tag_246\n        /* \"_ownable.sol\":1552:1563  _checkOwner */\n      tag_179\n        /* \"_ownable.sol\":1552:1565  _checkOwner() */\n      jump\t// in\n    tag_246:\n        /* \"DirectDonation.sol\":7245:7249  _fee */\n      dup2\n        /* \"DirectDonation.sol\":7239:7242  fee */\n      0x03\n      0x00\n        /* \"DirectDonation.sol\":7239:7249  fee = _fee */\n      0x0100\n      exp\n      dup2\n      sload\n      dup2\n      0xff\n      mul\n      not\n      and\n      swap1\n      dup4\n      0xff\n      and\n      mul\n      or\n      swap1\n      sstore\n      pop\n        /* \"DirectDonation.sol\":7264:7280  feeUpdated(_fee) */\n      0xb5c0fbe3c7e536e86ea6d91ec04bd37128a9bf1e981e06dae9834031254831f9\n        /* \"DirectDonation.sol\":7275:7279  _fee */\n      dup3\n        /* \"DirectDonation.sol\":7264:7280  feeUpdated(_fee) */\n      mload(0x40)\n      tag_248\n      swap2\n      swap1\n      tag_249\n      jump\t// in\n    tag_248:\n      mload(0x40)\n      dup1\n      swap2\n      sub\n      swap1\n      log1\n        /* \"DirectDonation.sol\":7297:7301  true */\n      0x01\n        /* \"DirectDonation.sol\":7290:7301  return true */\n      swap1\n      pop\n        /* \"DirectDonation.sol\":7164:7308  function updateToken(uint8 _fee) public onlyOwner returns (bool) {... */\n      swap2\n      swap1\n      pop\n      jump\t// out\n        /* \"DirectDonation.sol\":7670:7899  function transferBalance(address payable _to, uint256 _amount) public onlyOwner {... */\n    tag_75:\n        /* \"_ownable.sol\":1552:1565  _checkOwner() */\n      tag_251\n        /* \"_ownable.sol\":1552:1563  _checkOwner */\n      tag_179\n        /* \"_ownable.sol\":1552:1565  _checkOwner() */\n      jump\t// in\n    tag_251:\n        /* \"DirectDonation.sol\":7810:7822  bool success */\n      0x00\n        /* \"DirectDonation.sol\":7828:7831  _to */\n      dup3\n        /* \"DirectDonation.sol\":7828:7836  _to.call */\n      0xffffffffffffffffffffffffffffffffffffffff\n      and\n        /* \"DirectDonation.sol\":7844:7851  _amount */\n      dup3\n        /* \"DirectDonation.sol\":7828:7856  _to.call{value: _amount}(\"\") */\n      mload(0x40)\n      tag_253\n      swap1\n      tag_183\n      jump\t// in\n    tag_253:\n      0x00\n      mload(0x40)\n      dup1\n      dup4\n      sub\n      dup2\n      dup6\n      dup8\n      gas\n      call\n      swap3\n      pop\n      pop\n      pop\n      returndatasize\n      dup1\n      0x00\n      dup2\n      eq\n      tag_256\n      jumpi\n      mload(0x40)\n      swap2\n      pop\n      and(add(returndatasize, 0x3f), not(0x1f))\n      dup3\n      add\n      0x40\n      mstore\n      returndatasize\n      dup3\n      mstore\n      returndatasize\n      0x00\n      0x20\n      dup5\n      add\n      returndatacopy\n      jump(tag_255)\n    tag_256:\n      0x60\n      swap2\n      pop\n    tag_255:\n      pop\n        /* \"DirectDonation.sol\":7809:7856  (bool success, ) = _to.call{value: _amount}(\"\") */\n      pop\n      swap1\n      pop\n        /* \"DirectDonation.sol\":7874:7881  success */\n      dup1\n        /* \"DirectDonation.sol\":7866:7892  require(success, \"Failed\") */\n      tag_257\n      jumpi\n      mload(0x40)\n      0x08c379a000000000000000000000000000000000000000000000000000000000\n      dup2\n      mstore\n      0x04\n      add\n      tag_258\n      swap1\n      tag_189\n      jump\t// in\n    tag_258:\n      mload(0x40)\n      dup1\n      swap2\n      sub\n      swap1\n      revert\n    tag_257:\n        /* \"DirectDonation.sol\":7750:7899  {... */\n      pop\n        /* \"DirectDonation.sol\":7670:7899  function transferBalance(address payable _to, uint256 _amount) public onlyOwner {... */\n      pop\n      pop\n      jump\t// out\n        /* \"DirectDonation.sol\":1991:2442  function getToken(address _addr) public view returns (TokenStruct[] memory list) {... */\n    tag_79:\n        /* \"DirectDonation.sol\":2045:2070  TokenStruct[] memory list */\n      0x60\n        /* \"DirectDonation.sol\":2082:2109  TokenStruct[] memory result */\n      0x00\n        /* \"DirectDonation.sol\":2130:2153  _tokenCounter.current() */\n      tag_260\n        /* \"DirectDonation.sol\":2130:2143  _tokenCounter */\n      0x02\n        /* \"DirectDonation.sol\":2130:2151  _tokenCounter.current */\n      tag_157\n        /* \"DirectDonation.sol\":2130:2153  _tokenCounter.current() */\n      jump\t// in\n    tag_260:\n        /* \"DirectDonation.sol\":2112:2154  new TokenStruct[](_tokenCounter.current()) */\n      0xffffffffffffffff\n      dup2\n      gt\n      iszero\n      tag_261\n      jumpi\n      tag_262\n      tag_160\n      jump\t// in\n    tag_262:\n    tag_261:\n      mload(0x40)\n      swap1\n      dup1\n      dup3\n      mstore\n      dup1\n      0x20\n      mul\n      0x20\n      add\n      dup3\n      add\n      0x40\n      mstore\n      dup1\n      iszero\n      tag_263\n      jumpi\n      dup2\n      0x20\n      add\n    tag_264:\n      tag_265\n      tag_266\n      jump\t// in\n    tag_265:\n      dup2\n      mstore\n      0x20\n      add\n      swap1\n      0x01\n      swap1\n      sub\n      swap1\n      dup2\n      tag_264\n      jumpi\n      swap1\n      pop\n    tag_263:\n      pop\n        /* \"DirectDonation.sol\":2082:2154  TokenStruct[] memory result = new TokenStruct[](_tokenCounter.current()) */\n      swap1\n      pop\n        /* \"DirectDonation.sol\":2165:2180  uint256 counter */\n      0x00\n        /* \"DirectDonation.sol\":2199:2208  uint256 i */\n      dup1\n        /* \"DirectDonation.sol\":2194:2412  for (uint256 i = 0; i < _tokenCounter.current(); i++) {... */\n    tag_267:\n        /* \"DirectDonation.sol\":2218:2241  _tokenCounter.current() */\n      tag_270\n        /* \"DirectDonation.sol\":2218:2231  _tokenCounter */\n      0x02\n        /* \"DirectDonation.sol\":2218:2239  _tokenCounter.current */\n      tag_157\n        /* \"DirectDonation.sol\":2218:2241  _tokenCounter.current() */\n      jump\t// in\n    tag_270:\n        /* \"DirectDonation.sol\":2214:2215  i */\n      dup2\n        /* \"DirectDonation.sol\":2214:2241  i < _tokenCounter.current() */\n      lt\n        /* \"DirectDonation.sol\":2194:2412  for (uint256 i = 0; i < _tokenCounter.current(); i++) {... */\n      iszero\n      tag_268\n      jumpi\n        /* \"DirectDonation.sol\":2296:2301  _addr */\n      dup5\n        /* \"DirectDonation.sol\":2266:2301  token[bytes32(i + 1)].addr == _addr */\n      0xffffffffffffffffffffffffffffffffffffffff\n      and\n        /* \"DirectDonation.sol\":2266:2271  token */\n      0x05\n        /* \"DirectDonation.sol\":2266:2287  token[bytes32(i + 1)] */\n      0x00\n        /* \"DirectDonation.sol\":2284:2285  1 */\n      0x01\n        /* \"DirectDonation.sol\":2280:2281  i */\n      dup5\n        /* \"DirectDonation.sol\":2280:2285  i + 1 */\n      tag_271\n      swap2\n      swap1\n      tag_170\n      jump\t// in\n    tag_271:\n        /* \"DirectDonation.sol\":2272:2286  bytes32(i + 1) */\n      0x00\n      shl\n        /* \"DirectDonation.sol\":2266:2287  token[bytes32(i + 1)] */\n      dup2\n      mstore\n      0x20\n      add\n      swap1\n      dup2\n      mstore\n      0x20\n      add\n      0x00\n      keccak256\n        /* \"DirectDonation.sol\":2266:2292  token[bytes32(i + 1)].addr */\n      0x00\n      add\n      0x00\n      swap1\n      sload\n      swap1\n      0x0100\n      exp\n      swap1\n      div\n      0xffffffffffffffffffffffffffffffffffffffff\n      and\n        /* \"DirectDonation.sol\":2266:2301  token[bytes32(i + 1)].addr == _addr */\n      0xffffffffffffffffffffffffffffffffffffffff\n      and\n      sub\n        /* \"DirectDonation.sol\":2262:2402  if (token[bytes32(i + 1)].addr == _addr) {... */\n      tag_272\n      jumpi\n        /* \"DirectDonation.sol\":2339:2344  token */\n      0x05\n        /* \"DirectDonation.sol\":2339:2360  token[bytes32(i + 1)] */\n      0x00\n        /* \"DirectDonation.sol\":2357:2358  1 */\n      0x01\n        /* \"DirectDonation.sol\":2353:2354  i */\n      dup4\n        /* \"DirectDonation.sol\":2353:2358  i + 1 */\n      tag_273\n      swap2\n      swap1\n      tag_170\n      jump\t// in\n    tag_273:\n        /* \"DirectDonation.sol\":2345:2359  bytes32(i + 1) */\n      0x00\n      shl\n        /* \"DirectDonation.sol\":2339:2360  token[bytes32(i + 1)] */\n      dup2\n      mstore\n      0x20\n      add\n      swap1\n      dup2\n      mstore\n      0x20\n      add\n      0x00\n      keccak256\n        /* \"DirectDonation.sol\":2321:2360  result[counter] = token[bytes32(i + 1)] */\n      mload(0x40)\n      dup1\n      0x60\n      add\n      0x40\n      mstore\n      swap1\n      dup2\n      0x00\n      dup3\n      add\n      0x00\n      swap1\n      sload\n      swap1\n      0x0100\n      exp\n      swap1\n      div\n      0xffffffffffffffffffffffffffffffffffffffff\n      and\n      0xffffffffffffffffffffffffffffffffffffffff\n      and\n      0xffffffffffffffffffffffffffffffffffffffff\n      and\n      dup2\n      mstore\n      0x20\n      add\n      0x00\n      dup3\n      add\n      0x14\n      swap1\n      sload\n      swap1\n      0x0100\n      exp\n      swap1\n      div\n      0xff\n      and\n      iszero\n      iszero\n      iszero\n      iszero\n      dup2\n      mstore\n      0x20\n      add\n      0x01\n      dup3\n      add\n      sload\n      dup2\n      mstore\n      pop\n      pop\n        /* \"DirectDonation.sol\":2321:2327  result */\n      dup4\n        /* \"DirectDonation.sol\":2328:2335  counter */\n      dup4\n        /* \"DirectDonation.sol\":2321:2336  result[counter] */\n      dup2\n      mload\n      dup2\n      lt\n      tag_274\n      jumpi\n      tag_275\n      tag_176\n      jump\t// in\n    tag_275:\n    tag_274:\n      0x20\n      mul\n      0x20\n      add\n      add\n        /* \"DirectDonation.sol\":2321:2360  result[counter] = token[bytes32(i + 1)] */\n      dup2\n      swap1\n      mstore\n      pop\n        /* \"DirectDonation.sol\":2378:2387  counter++ */\n      dup2\n      dup1\n      tag_276\n      swap1\n      tag_208\n      jump\t// in\n    tag_276:\n      swap3\n      pop\n      pop\n        /* \"DirectDonation.sol\":2262:2402  if (token[bytes32(i + 1)].addr == _addr) {... */\n    tag_272:\n        /* \"DirectDonation.sol\":2243:2246  i++ */\n      dup1\n      dup1\n      0x01\n      add\n      swap2\n      pop\n      pop\n        /* \"DirectDonation.sol\":2194:2412  for (uint256 i = 0; i < _tokenCounter.current(); i++) {... */\n      jump(tag_267)\n    tag_268:\n      pop\n        /* \"DirectDonation.sol\":2429:2435  result */\n      dup2\n        /* \"DirectDonation.sol\":2422:2435  return result */\n      swap3\n      pop\n      pop\n      pop\n        /* \"DirectDonation.sol\":1991:2442  function getToken(address _addr) public view returns (TokenStruct[] memory list) {... */\n      swap2\n      swap1\n      pop\n      jump\t// out\n        /* \"_pausable.sol\":1871:1955  function paused() public view virtual returns (bool) {... */\n    tag_84:\n        /* \"_pausable.sol\":1918:1922  bool */\n      0x00\n        /* \"_pausable.sol\":1941:1948  _paused */\n      dup1\n      0x14\n      swap1\n      sload\n      swap1\n      0x0100\n      exp\n      swap1\n      div\n      0xff\n      and\n        /* \"_pausable.sol\":1934:1948  return _paused */\n      swap1\n      pop\n        /* \"_pausable.sol\":1871:1955  function paused() public view virtual returns (bool) {... */\n      swap1\n      jump\t// out\n        /* \"_ownable.sol\":2314:2415  function renounceOwnership() public virtual onlyOwner {... */\n    tag_88:\n        /* \"_ownable.sol\":1552:1565  _checkOwner() */\n      tag_279\n        /* \"_ownable.sol\":1552:1563  _checkOwner */\n      tag_179\n        /* \"_ownable.sol\":1552:1565  _checkOwner() */\n      jump\t// in\n    tag_279:\n        /* \"_ownable.sol\":2378:2408  _transferOwnership(address(0)) */\n      tag_281\n        /* \"_ownable.sol\":2405:2406  0 */\n      0x00\n        /* \"_ownable.sol\":2378:2396  _transferOwnership */\n      tag_282\n        /* \"_ownable.sol\":2378:2408  _transferOwnership(address(0)) */\n      jump\t// in\n    tag_281:\n        /* \"_ownable.sol\":2314:2415  function renounceOwnership() public virtual onlyOwner {... */\n      jump\t// out\n        /* \"DirectDonation.sol\":1268:1318  mapping(bytes32 => DonationStruct) public donation */\n    tag_92:\n      mstore(0x20, 0x04)\n      dup1\n      0x00\n      mstore\n      keccak256(0x00, 0x40)\n      0x00\n      swap2\n      pop\n      swap1\n      pop\n      dup1\n      0x00\n      add\n      0x00\n      swap1\n      sload\n      swap1\n      0x0100\n      exp\n      swap1\n      div\n      0xffffffffffffffffffffffffffffffffffffffff\n      and\n      swap1\n      dup1\n      0x01\n      add\n      sload\n      swap1\n      dup1\n      0x02\n      add\n      sload\n      swap1\n      dup1\n      0x03\n      add\n      sload\n      swap1\n      dup1\n      0x04\n      add\n      0x00\n      swap1\n      sload\n      swap1\n      0x0100\n      exp\n      swap1\n      div\n      0xffffffffffffffffffffffffffffffffffffffff\n      and\n      swap1\n      dup1\n      0x05\n      add\n      sload\n      swap1\n      pop\n      dup7\n      jump\t// out\n        /* \"DirectDonation.sol\":8082:8141  function pause() public onlyOwner {... */\n    tag_97:\n        /* \"_ownable.sol\":1552:1565  _checkOwner() */\n      tag_284\n        /* \"_ownable.sol\":1552:1563  _checkOwner */\n      tag_179\n        /* \"_ownable.sol\":1552:1565  _checkOwner() */\n      jump\t// in\n    tag_284:\n        /* \"DirectDonation.sol\":8126:8134  _pause() */\n      tag_286\n        /* \"DirectDonation.sol\":8126:8132  _pause */\n      tag_287\n        /* \"DirectDonation.sol\":8126:8134  _pause() */\n      jump\t// in\n    tag_286:\n        /* \"DirectDonation.sol\":8082:8141  function pause() public onlyOwner {... */\n      jump\t// out\n        /* \"_ownable.sol\":1659:1744  function owner() public view virtual returns (address) {... */\n    tag_100:\n        /* \"_ownable.sol\":1705:1712  address */\n      0x00\n        /* \"_ownable.sol\":1731:1737  _owner */\n      dup1\n      0x00\n      swap1\n      sload\n      swap1\n      0x0100\n      exp\n      swap1\n      div\n      0xffffffffffffffffffffffffffffffffffffffff\n      and\n        /* \"_ownable.sol\":1724:1737  return _owner */\n      swap1\n      pop\n        /* \"_ownable.sol\":1659:1744  function owner() public view virtual returns (address) {... */\n      swap1\n      jump\t// out\n        /* \"DirectDonation.sol\":819:856  Counters.Counter public _tokenCounter */\n    tag_105:\n      0x02\n      dup1\n      0x00\n      add\n      sload\n      swap1\n      pop\n      dup2\n      jump\t// out\n        /* \"DirectDonation.sol\":6800:7131  function updateToken(... */\n    tag_111:\n        /* \"DirectDonation.sol\":6923:6927  bool */\n      0x00\n        /* \"_ownable.sol\":1552:1565  _checkOwner() */\n      tag_290\n        /* \"_ownable.sol\":1552:1563  _checkOwner */\n      tag_179\n        /* \"_ownable.sol\":1552:1565  _checkOwner() */\n      jump\t// in\n    tag_290:\n        /* \"DirectDonation.sol\":6962:6967  _addr */\n      dup3\n        /* \"DirectDonation.sol\":6939:6944  token */\n      0x05\n        /* \"DirectDonation.sol\":6939:6954  token[_tokenId] */\n      0x00\n        /* \"DirectDonation.sol\":6945:6953  _tokenId */\n      dup7\n        /* \"DirectDonation.sol\":6939:6954  token[_tokenId] */\n      dup2\n      mstore\n      0x20\n      add\n      swap1\n      dup2\n      mstore\n      0x20\n      add\n      0x00\n      keccak256\n        /* \"DirectDonation.sol\":6939:6959  token[_tokenId].addr */\n      0x00\n      add\n      0x00\n        /* \"DirectDonation.sol\":6939:6967  token[_tokenId].addr = _addr */\n      0x0100\n      exp\n      dup2\n      sload\n      dup2\n      0xffffffffffffffffffffffffffffffffffffffff\n      mul\n      not\n      and\n      swap1\n      dup4\n      0xffffffffffffffffffffffffffffffffffffffff\n      and\n      mul\n      or\n      swap1\n      sstore\n      pop\n        /* \"DirectDonation.sol\":7001:7007  _pause */\n      dup2\n        /* \"DirectDonation.sol\":6977:6982  token */\n      0x05\n        /* \"DirectDonation.sol\":6977:6992  token[_tokenId] */\n      0x00\n        /* \"DirectDonation.sol\":6983:6991  _tokenId */\n      dup7\n        /* \"DirectDonation.sol\":6977:6992  token[_tokenId] */\n      dup2\n      mstore\n      0x20\n      add\n      swap1\n      dup2\n      mstore\n      0x20\n      add\n      0x00\n      keccak256\n        /* \"DirectDonation.sol\":6977:6998  token[_tokenId].pause */\n      0x00\n      add\n      0x14\n        /* \"DirectDonation.sol\":6977:7007  token[_tokenId].pause = _pause */\n      0x0100\n      exp\n      dup2\n      sload\n      dup2\n      0xff\n      mul\n      not\n      and\n      swap1\n      dup4\n      iszero\n      iszero\n      mul\n      or\n      swap1\n      sstore\n      pop\n        /* \"DirectDonation.sol\":7073:7081  _tokenId */\n      dup4\n        /* \"DirectDonation.sol\":7060:7103  TokenUpdated(_tokenId, _addr, _msgSender()) */\n      0x0178cc6533afb1053a370099de33a8f4a6c10adf023eba537c33721e13dc1273\n        /* \"DirectDonation.sol\":7083:7088  _addr */\n      dup5\n        /* \"DirectDonation.sol\":7090:7102  _msgSender() */\n      tag_292\n        /* \"DirectDonation.sol\":7090:7100  _msgSender */\n      tag_293\n        /* \"DirectDonation.sol\":7090:7102  _msgSender() */\n      jump\t// in\n    tag_292:\n        /* \"DirectDonation.sol\":7060:7103  TokenUpdated(_tokenId, _addr, _msgSender()) */\n      mload(0x40)\n      tag_294\n      swap3\n      swap2\n      swap1\n      tag_295\n      jump\t// in\n    tag_294:\n      mload(0x40)\n      dup1\n      swap2\n      sub\n      swap1\n      log2\n        /* \"DirectDonation.sol\":7120:7124  true */\n      0x01\n        /* \"DirectDonation.sol\":7113:7124  return true */\n      swap1\n      pop\n        /* \"DirectDonation.sol\":6800:7131  function updateToken(... */\n      swap4\n      swap3\n      pop\n      pop\n      pop\n      jump\t// out\n        /* \"DirectDonation.sol\":5847:6014  function calcPercentage(uint256 amount, uint256 bps) public pure returns (uint256) {... */\n    tag_117:\n        /* \"DirectDonation.sol\":5921:5928  uint256 */\n      0x00\n        /* \"DirectDonation.sol\":5966:5969  100 */\n      0x64\n        /* \"DirectDonation.sol\":5958:5961  bps */\n      dup3\n        /* \"DirectDonation.sol\":5949:5955  amount */\n      dup5\n        /* \"DirectDonation.sol\":5949:5961  amount * bps */\n      tag_297\n      swap2\n      swap1\n      tag_298\n      jump\t// in\n    tag_297:\n        /* \"DirectDonation.sol\":5948:5969  (amount * bps) >= 100 */\n      lt\n      iszero\n        /* \"DirectDonation.sol\":5940:5970  require((amount * bps) >= 100) */\n      tag_299\n      jumpi\n      0x00\n      dup1\n      revert\n    tag_299:\n        /* \"DirectDonation.sol\":6004:6007  100 */\n      0x64\n        /* \"DirectDonation.sol\":5997:6000  bps */\n      dup3\n        /* \"DirectDonation.sol\":5988:5994  amount */\n      dup5\n        /* \"DirectDonation.sol\":5988:6000  amount * bps */\n      tag_300\n      swap2\n      swap1\n      tag_298\n      jump\t// in\n    tag_300:\n        /* \"DirectDonation.sol\":5987:6007  (amount * bps) / 100 */\n      tag_301\n      swap2\n      swap1\n      tag_302\n      jump\t// in\n    tag_301:\n        /* \"DirectDonation.sol\":5980:6007  return (amount * bps) / 100 */\n      swap1\n      pop\n        /* \"DirectDonation.sol\":5847:6014  function calcPercentage(uint256 amount, uint256 bps) public pure returns (uint256) {... */\n      swap3\n      swap2\n      pop\n      pop\n      jump\t// out\n        /* \"DirectDonation.sol\":4434:5703  function donate(... */\n    tag_122:\n        /* \"DirectDonation.sol\":4639:4643  bool */\n      0x00\n        /* \"_pausable.sol\":1495:1514  _requireNotPaused() */\n      tag_304\n        /* \"_pausable.sol\":1495:1512  _requireNotPaused */\n      tag_305\n        /* \"_pausable.sol\":1495:1514  _requireNotPaused() */\n      jump\t// in\n    tag_304:\n        /* \"DirectDonation.sol\":4687:4688  1 */\n      0x01\n        /* \"DirectDonation.sol\":4671:4690  bytes32(uint256(1)) */\n      0x00\n      shl\n        /* \"DirectDonation.sol\":4659:4667  _tokenId */\n      dup3\n        /* \"DirectDonation.sol\":4659:4690  _tokenId == bytes32(uint256(1)) */\n      sub\n        /* \"DirectDonation.sol\":4655:5413  if (_tokenId == bytes32(uint256(1))) {... */\n      tag_307\n      jumpi\n        /* \"DirectDonation.sol\":4723:4724  0 */\n      0x00\n        /* \"DirectDonation.sol\":4710:4719  msg.value */\n      callvalue\n        /* \"DirectDonation.sol\":4710:4724  msg.value == 0 */\n      sub\n        /* \"DirectDonation.sol\":4706:4763  if (msg.value == 0) revert InsufficientBalance(msg.value) */\n      tag_308\n      jumpi\n        /* \"DirectDonation.sol\":4753:4762  msg.value */\n      callvalue\n        /* \"DirectDonation.sol\":4733:4763  InsufficientBalance(msg.value) */\n      mload(0x40)\n      0x9266535100000000000000000000000000000000000000000000000000000000\n      dup2\n      mstore\n      0x04\n      add\n      tag_309\n      swap2\n      swap1\n      tag_35\n      jump\t// in\n    tag_309:\n      mload(0x40)\n      dup1\n      swap2\n      sub\n      swap1\n      revert\n        /* \"DirectDonation.sol\":4706:4763  if (msg.value == 0) revert InsufficientBalance(msg.value) */\n    tag_308:\n        /* \"DirectDonation.sol\":4778:4790  bool success */\n      0x00\n        /* \"DirectDonation.sol\":4796:4799  _to */\n      dup7\n        /* \"DirectDonation.sol\":4796:4804  _to.call */\n      0xffffffffffffffffffffffffffffffffffffffff\n      and\n        /* \"DirectDonation.sol\":4812:4846  calcPercentage(_amount, 100 - fee) */\n      tag_310\n        /* \"DirectDonation.sol\":4827:4834  _amount */\n      dup8\n        /* \"DirectDonation.sol\":4842:4845  fee */\n      0x03\n      0x00\n      swap1\n      sload\n      swap1\n      0x0100\n      exp\n      swap1\n      div\n      0xff\n      and\n        /* \"DirectDonation.sol\":4836:4839  100 */\n      0x64\n        /* \"DirectDonation.sol\":4836:4845  100 - fee */\n      tag_311\n      swap2\n      swap1\n      tag_312\n      jump\t// in\n    tag_311:\n        /* \"DirectDonation.sol\":4812:4846  calcPercentage(_amount, 100 - fee) */\n      0xff\n      and\n        /* \"DirectDonation.sol\":4812:4826  calcPercentage */\n      tag_117\n        /* \"DirectDonation.sol\":4812:4846  calcPercentage(_amount, 100 - fee) */\n      jump\t// in\n    tag_310:\n        /* \"DirectDonation.sol\":4796:4851  _to.call{value: calcPercentage(_amount, 100 - fee)}(\"\") */\n      mload(0x40)\n      tag_313\n      swap1\n      tag_183\n      jump\t// in\n    tag_313:\n      0x00\n      mload(0x40)\n      dup1\n      dup4\n      sub\n      dup2\n      dup6\n      dup8\n      gas\n      call\n      swap3\n      pop\n      pop\n      pop\n      returndatasize\n      dup1\n      0x00\n      dup2\n      eq\n      tag_316\n      jumpi\n      mload(0x40)\n      swap2\n      pop\n      and(add(returndatasize, 0x3f), not(0x1f))\n      dup3\n      add\n      0x40\n      mstore\n      returndatasize\n      dup3\n      mstore\n      returndatasize\n      0x00\n      0x20\n      dup5\n      add\n      returndatacopy\n      jump(tag_315)\n    tag_316:\n      0x60\n      swap2\n      pop\n    tag_315:\n      pop\n        /* \"DirectDonation.sol\":4777:4851  (bool success, ) = _to.call{value: calcPercentage(_amount, 100 - fee)}(\"\") */\n      pop\n      swap1\n      pop\n        /* \"DirectDonation.sol\":4873:4880  success */\n      dup1\n        /* \"DirectDonation.sol\":4865:4920  require(success, \"Failed to send Ether to the manager\") */\n      tag_317\n      jumpi\n      mload(0x40)\n      0x08c379a000000000000000000000000000000000000000000000000000000000\n      dup2\n      mstore\n      0x04\n      add\n      tag_318\n      swap1\n      tag_319\n      jump\t// in\n    tag_318:\n      mload(0x40)\n      dup1\n      swap2\n      sub\n      swap1\n      revert\n    tag_317:\n        /* \"DirectDonation.sol\":4692:4931  {... */\n      pop\n        /* \"DirectDonation.sol\":4655:5413  if (_tokenId == bytes32(uint256(1))) {... */\n      jump(tag_320)\n    tag_307:\n        /* \"DirectDonation.sol\":4951:4975  uint256 authorizedAmount */\n      0x00\n        /* \"DirectDonation.sol\":4984:4989  token */\n      0x05\n        /* \"DirectDonation.sol\":4984:4999  token[_tokenId] */\n      0x00\n        /* \"DirectDonation.sol\":4990:4998  _tokenId */\n      dup5\n        /* \"DirectDonation.sol\":4984:4999  token[_tokenId] */\n      dup2\n      mstore\n      0x20\n      add\n      swap1\n      dup2\n      mstore\n      0x20\n      add\n      0x00\n      keccak256\n        /* \"DirectDonation.sol\":4984:5004  token[_tokenId].addr */\n      0x00\n      add\n      0x00\n      swap1\n      sload\n      swap1\n      0x0100\n      exp\n      swap1\n      div\n      0xffffffffffffffffffffffffffffffffffffffff\n      and\n        /* \"DirectDonation.sol\":4978:5025  ILSP7(token[_tokenId].addr).authorizedAmountFor */\n      0xffffffffffffffffffffffffffffffffffffffff\n      and\n      0x65aeaa95\n        /* \"DirectDonation.sol\":5034:5038  this */\n      address\n        /* \"DirectDonation.sol\":5041:5053  _msgSender() */\n      tag_321\n        /* \"DirectDonation.sol\":5041:5051  _msgSender */\n      tag_293\n        /* \"DirectDonation.sol\":5041:5053  _msgSender() */\n      jump\t// in\n    tag_321:\n        /* \"DirectDonation.sol\":4978:5054  ILSP7(token[_tokenId].addr).authorizedAmountFor(address(this), _msgSender()) */\n      mload(0x40)\n      dup4\n      0xffffffff\n      and\n      0xe0\n      shl\n      dup2\n      mstore\n      0x04\n      add\n      tag_322\n      swap3\n      swap2\n      swap1\n      tag_295\n      jump\t// in\n    tag_322:\n      0x20\n      mload(0x40)\n      dup1\n      dup4\n      sub\n      dup2\n      dup7\n      gas\n      staticcall\n      iszero\n      dup1\n      iszero\n      tag_324\n      jumpi\n      returndatasize\n      0x00\n      dup1\n      returndatacopy\n      revert(0x00, returndatasize)\n    tag_324:\n      pop\n      pop\n      pop\n      pop\n      mload(0x40)\n      returndatasize\n      not(0x1f)\n      0x1f\n      dup3\n      add\n      and\n      dup3\n      add\n      dup1\n      0x40\n      mstore\n      pop\n      dup2\n      add\n      swap1\n      tag_325\n      swap2\n      swap1\n      tag_326\n      jump\t// in\n    tag_325:\n        /* \"DirectDonation.sol\":4951:5054  uint256 authorizedAmount = ILSP7(token[_tokenId].addr).authorizedAmountFor(address(this), _msgSender()) */\n      swap1\n      pop\n        /* \"DirectDonation.sol\":5092:5099  _amount */\n      dup6\n        /* \"DirectDonation.sol\":5072:5088  authorizedAmount */\n      dup2\n        /* \"DirectDonation.sol\":5072:5099  authorizedAmount != _amount */\n      eq\n        /* \"DirectDonation.sol\":5068:5154  if (authorizedAmount != _amount) revert NotAuthorizedAmount(_amount, authorizedAmount) */\n      tag_327\n      jumpi\n        /* \"DirectDonation.sol\":5128:5135  _amount */\n      dup6\n        /* \"DirectDonation.sol\":5137:5153  authorizedAmount */\n      dup2\n        /* \"DirectDonation.sol\":5108:5154  NotAuthorizedAmount(_amount, authorizedAmount) */\n      mload(0x40)\n      0xa24f8be900000000000000000000000000000000000000000000000000000000\n      dup2\n      mstore\n      0x04\n      add\n      tag_328\n      swap3\n      swap2\n      swap1\n      tag_329\n      jump\t// in\n    tag_328:\n      mload(0x40)\n      dup1\n      swap2\n      sub\n      swap1\n      revert\n        /* \"DirectDonation.sol\":5068:5154  if (authorizedAmount != _amount) revert NotAuthorizedAmount(_amount, authorizedAmount) */\n    tag_327:\n        /* \"DirectDonation.sol\":5175:5180  token */\n      0x05\n        /* \"DirectDonation.sol\":5175:5190  token[_tokenId] */\n      0x00\n        /* \"DirectDonation.sol\":5181:5189  _tokenId */\n      dup5\n        /* \"DirectDonation.sol\":5175:5190  token[_tokenId] */\n      dup2\n      mstore\n      0x20\n      add\n      swap1\n      dup2\n      mstore\n      0x20\n      add\n      0x00\n      keccak256\n        /* \"DirectDonation.sol\":5175:5195  token[_tokenId].addr */\n      0x00\n      add\n      0x00\n      swap1\n      sload\n      swap1\n      0x0100\n      exp\n      swap1\n      div\n      0xffffffffffffffffffffffffffffffffffffffff\n      and\n        /* \"DirectDonation.sol\":5169:5205  ILSP7(token[_tokenId].addr).transfer */\n      0xffffffffffffffffffffffffffffffffffffffff\n      and\n      0x760d9bba\n        /* \"DirectDonation.sol\":5206:5218  _msgSender() */\n      tag_330\n        /* \"DirectDonation.sol\":5206:5216  _msgSender */\n      tag_293\n        /* \"DirectDonation.sol\":5206:5218  _msgSender() */\n      jump\t// in\n    tag_330:\n        /* \"DirectDonation.sol\":5228:5231  _to */\n      dup10\n        /* \"DirectDonation.sol\":5234:5268  calcPercentage(_amount, 100 - fee) */\n      tag_331\n        /* \"DirectDonation.sol\":5249:5256  _amount */\n      dup11\n        /* \"DirectDonation.sol\":5264:5267  fee */\n      0x03\n      0x00\n      swap1\n      sload\n      swap1\n      0x0100\n      exp\n      swap1\n      div\n      0xff\n      and\n        /* \"DirectDonation.sol\":5258:5261  100 */\n      0x64\n        /* \"DirectDonation.sol\":5258:5267  100 - fee */\n      tag_332\n      swap2\n      swap1\n      tag_312\n      jump\t// in\n    tag_332:\n        /* \"DirectDonation.sol\":5234:5268  calcPercentage(_amount, 100 - fee) */\n      0xff\n      and\n        /* \"DirectDonation.sol\":5234:5248  calcPercentage */\n      tag_117\n        /* \"DirectDonation.sol\":5234:5268  calcPercentage(_amount, 100 - fee) */\n      jump\t// in\n    tag_331:\n        /* \"DirectDonation.sol\":5270:5276  _force */\n      dup10\n        /* \"DirectDonation.sol\":5278:5283  _data */\n      dup10\n        /* \"DirectDonation.sol\":5169:5284  ILSP7(token[_tokenId].addr).transfer(_msgSender(), address(_to), calcPercentage(_amount, 100 - fee), _force, _data) */\n      mload(0x40)\n      dup7\n      0xffffffff\n      and\n      0xe0\n      shl\n      dup2\n      mstore\n      0x04\n      add\n      tag_333\n      swap6\n      swap5\n      swap4\n      swap3\n      swap2\n      swap1\n      tag_334\n      jump\t// in\n    tag_333:\n      0x00\n      mload(0x40)\n      dup1\n      dup4\n      sub\n      dup2\n      0x00\n      dup8\n      dup1\n      extcodesize\n      iszero\n      dup1\n      iszero\n      tag_335\n      jumpi\n      0x00\n      dup1\n      revert\n    tag_335:\n      pop\n      gas\n      call\n      iszero\n      dup1\n      iszero\n      tag_337\n      jumpi\n      returndatasize\n      0x00\n      dup1\n      returndatacopy\n      revert(0x00, returndatasize)\n    tag_337:\n      pop\n      pop\n      pop\n      pop\n        /* \"DirectDonation.sol\":5304:5309  token */\n      0x05\n        /* \"DirectDonation.sol\":5304:5319  token[_tokenId] */\n      0x00\n        /* \"DirectDonation.sol\":5310:5318  _tokenId */\n      dup5\n        /* \"DirectDonation.sol\":5304:5319  token[_tokenId] */\n      dup2\n      mstore\n      0x20\n      add\n      swap1\n      dup2\n      mstore\n      0x20\n      add\n      0x00\n      keccak256\n        /* \"DirectDonation.sol\":5304:5324  token[_tokenId].addr */\n      0x00\n      add\n      0x00\n      swap1\n      sload\n      swap1\n      0x0100\n      exp\n      swap1\n      div\n      0xffffffffffffffffffffffffffffffffffffffff\n      and\n        /* \"DirectDonation.sol\":5298:5334  ILSP7(token[_tokenId].addr).transfer */\n      0xffffffffffffffffffffffffffffffffffffffff\n      and\n      0x760d9bba\n        /* \"DirectDonation.sol\":5335:5347  _msgSender() */\n      tag_338\n        /* \"DirectDonation.sol\":5335:5345  _msgSender */\n      tag_293\n        /* \"DirectDonation.sol\":5335:5347  _msgSender() */\n      jump\t// in\n    tag_338:\n        /* \"DirectDonation.sol\":5349:5356  owner() */\n      tag_339\n        /* \"DirectDonation.sol\":5349:5354  owner */\n      tag_100\n        /* \"DirectDonation.sol\":5349:5356  owner() */\n      jump\t// in\n    tag_339:\n        /* \"DirectDonation.sol\":5358:5386  calcPercentage(_amount, fee) */\n      tag_340\n        /* \"DirectDonation.sol\":5373:5380  _amount */\n      dup11\n        /* \"DirectDonation.sol\":5382:5385  fee */\n      0x03\n      0x00\n      swap1\n      sload\n      swap1\n      0x0100\n      exp\n      swap1\n      div\n      0xff\n      and\n        /* \"DirectDonation.sol\":5358:5386  calcPercentage(_amount, fee) */\n      0xff\n      and\n        /* \"DirectDonation.sol\":5358:5372  calcPercentage */\n      tag_117\n        /* \"DirectDonation.sol\":5358:5386  calcPercentage(_amount, fee) */\n      jump\t// in\n    tag_340:\n        /* \"DirectDonation.sol\":5388:5394  _force */\n      dup10\n        /* \"DirectDonation.sol\":5396:5401  _data */\n      dup10\n        /* \"DirectDonation.sol\":5298:5402  ILSP7(token[_tokenId].addr).transfer(_msgSender(), owner(), calcPercentage(_amount, fee), _force, _data) */\n      mload(0x40)\n      dup7\n      0xffffffff\n      and\n      0xe0\n      shl\n      dup2\n      mstore\n      0x04\n      add\n      tag_341\n      swap6\n      swap5\n      swap4\n      swap3\n      swap2\n      swap1\n      tag_334\n      jump\t// in\n    tag_341:\n      0x00\n      mload(0x40)\n      dup1\n      dup4\n      sub\n      dup2\n      0x00\n      dup8\n      dup1\n      extcodesize\n      iszero\n      dup1\n      iszero\n      tag_342\n      jumpi\n      0x00\n      dup1\n      revert\n    tag_342:\n      pop\n      gas\n      call\n      iszero\n      dup1\n      iszero\n      tag_344\n      jumpi\n      returndatasize\n      0x00\n      dup1\n      returndatacopy\n      revert(0x00, returndatasize)\n    tag_344:\n      pop\n      pop\n      pop\n      pop\n        /* \"DirectDonation.sol\":4937:5413  {... */\n      pop\n        /* \"DirectDonation.sol\":4655:5413  if (_tokenId == bytes32(uint256(1))) {... */\n    tag_320:\n        /* \"DirectDonation.sol\":5423:5449  _donateCounter.increment() */\n      tag_345\n        /* \"DirectDonation.sol\":5423:5437  _donateCounter */\n      0x01\n        /* \"DirectDonation.sol\":5423:5447  _donateCounter.increment */\n      tag_346\n        /* \"DirectDonation.sol\":5423:5449  _donateCounter.increment() */\n      jump\t// in\n    tag_345:\n        /* \"DirectDonation.sol\":5505:5582  DonationStruct(_msgSender(), _tokenId, _appId, _amount, _to, block.timestamp) */\n      mload(0x40)\n      dup1\n      0xc0\n      add\n      0x40\n      mstore\n      dup1\n        /* \"DirectDonation.sol\":5520:5532  _msgSender() */\n      tag_347\n        /* \"DirectDonation.sol\":5520:5530  _msgSender */\n      tag_293\n        /* \"DirectDonation.sol\":5520:5532  _msgSender() */\n      jump\t// in\n    tag_347:\n        /* \"DirectDonation.sol\":5505:5582  DonationStruct(_msgSender(), _tokenId, _appId, _amount, _to, block.timestamp) */\n      0xffffffffffffffffffffffffffffffffffffffff\n      and\n      dup2\n      mstore\n      0x20\n      add\n        /* \"DirectDonation.sol\":5534:5542  _tokenId */\n      dup4\n        /* \"DirectDonation.sol\":5505:5582  DonationStruct(_msgSender(), _tokenId, _appId, _amount, _to, block.timestamp) */\n      dup2\n      mstore\n      0x20\n      add\n        /* \"DirectDonation.sol\":5544:5550  _appId */\n      dup9\n        /* \"DirectDonation.sol\":5505:5582  DonationStruct(_msgSender(), _tokenId, _appId, _amount, _to, block.timestamp) */\n      dup2\n      mstore\n      0x20\n      add\n        /* \"DirectDonation.sol\":5552:5559  _amount */\n      dup7\n        /* \"DirectDonation.sol\":5505:5582  DonationStruct(_msgSender(), _tokenId, _appId, _amount, _to, block.timestamp) */\n      dup2\n      mstore\n      0x20\n      add\n        /* \"DirectDonation.sol\":5561:5564  _to */\n      dup8\n        /* \"DirectDonation.sol\":5505:5582  DonationStruct(_msgSender(), _tokenId, _appId, _amount, _to, block.timestamp) */\n      0xffffffffffffffffffffffffffffffffffffffff\n      and\n      dup2\n      mstore\n      0x20\n      add\n        /* \"DirectDonation.sol\":5566:5581  block.timestamp */\n      timestamp\n        /* \"DirectDonation.sol\":5505:5582  DonationStruct(_msgSender(), _tokenId, _appId, _amount, _to, block.timestamp) */\n      dup2\n      mstore\n      pop\n        /* \"DirectDonation.sol\":5459:5467  donation */\n      0x04\n        /* \"DirectDonation.sol\":5459:5502  donation[bytes32(_donateCounter.current())] */\n      0x00\n        /* \"DirectDonation.sol\":5476:5500  _donateCounter.current() */\n      tag_348\n        /* \"DirectDonation.sol\":5476:5490  _donateCounter */\n      0x01\n        /* \"DirectDonation.sol\":5476:5498  _donateCounter.current */\n      tag_157\n        /* \"DirectDonation.sol\":5476:5500  _donateCounter.current() */\n      jump\t// in\n    tag_348:\n        /* \"DirectDonation.sol\":5468:5501  bytes32(_donateCounter.current()) */\n      0x00\n      shl\n        /* \"DirectDonation.sol\":5459:5502  donation[bytes32(_donateCounter.current())] */\n      dup2\n      mstore\n      0x20\n      add\n      swap1\n      dup2\n      mstore\n      0x20\n      add\n      0x00\n      keccak256\n        /* \"DirectDonation.sol\":5459:5582  donation[bytes32(_donateCounter.current())] = DonationStruct(_msgSender(), _tokenId, _appId, _amount, _to, block.timestamp) */\n      0x00\n      dup3\n      add\n      mload\n      dup2\n      0x00\n      add\n      exp(0x0100, 0x00)\n      dup2\n      sload\n      dup2\n      0xffffffffffffffffffffffffffffffffffffffff\n      mul\n      not\n      and\n      swap1\n      dup4\n      0xffffffffffffffffffffffffffffffffffffffff\n      and\n      mul\n      or\n      swap1\n      sstore\n      pop\n      0x20\n      dup3\n      add\n      mload\n      dup2\n      0x01\n      add\n      sstore\n      0x40\n      dup3\n      add\n      mload\n      dup2\n      0x02\n      add\n      sstore\n      0x60\n      dup3\n      add\n      mload\n      dup2\n      0x03\n      add\n      sstore\n      0x80\n      dup3\n      add\n      mload\n      dup2\n      0x04\n      add\n      exp(0x0100, 0x00)\n      dup2\n      sload\n      dup2\n      0xffffffffffffffffffffffffffffffffffffffff\n      mul\n      not\n      and\n      swap1\n      dup4\n      0xffffffffffffffffffffffffffffffffffffffff\n      and\n      mul\n      or\n      swap1\n      sstore\n      pop\n      0xa0\n      dup3\n      add\n      mload\n      dup2\n      0x05\n      add\n      sstore\n      swap1\n      pop\n      pop\n        /* \"DirectDonation.sol\":5667:5673  _appId */\n      dup7\n        /* \"DirectDonation.sol\":5657:5665  _tokenId */\n      dup3\n        /* \"DirectDonation.sol\":5621:5674  Donated(_msgSender(), _to, _amount, _tokenId, _appId) */\n      0xd96b33cd6e9829949c7f13033f0a8230587efc5e5d0cff68861945efded28b8a\n        /* \"DirectDonation.sol\":5629:5641  _msgSender() */\n      tag_349\n        /* \"DirectDonation.sol\":5629:5639  _msgSender */\n      tag_293\n        /* \"DirectDonation.sol\":5629:5641  _msgSender() */\n      jump\t// in\n    tag_349:\n        /* \"DirectDonation.sol\":5643:5646  _to */\n      dup10\n        /* \"DirectDonation.sol\":5648:5655  _amount */\n      dup10\n        /* \"DirectDonation.sol\":5621:5674  Donated(_msgSender(), _to, _amount, _tokenId, _appId) */\n      mload(0x40)\n      tag_350\n      swap4\n      swap3\n      swap2\n      swap1\n      tag_351\n      jump\t// in\n    tag_350:\n      mload(0x40)\n      dup1\n      swap2\n      sub\n      swap1\n      log3\n        /* \"DirectDonation.sol\":5692:5696  true */\n      0x01\n        /* \"DirectDonation.sol\":5685:5696  return true */\n      swap1\n      pop\n        /* \"DirectDonation.sol\":4434:5703  function donate(... */\n      swap7\n      swap6\n      pop\n      pop\n      pop\n      pop\n      pop\n      pop\n      jump\t// out\n        /* \"DirectDonation.sol\":3925:4406  function getDonationByAppId(bytes32 _appId) public view returns (DonationStruct[] memory list) {... */\n    tag_127:\n        /* \"DirectDonation.sol\":3990:4018  DonationStruct[] memory list */\n      0x60\n        /* \"DirectDonation.sol\":4030:4060  DonationStruct[] memory result */\n      0x00\n        /* \"DirectDonation.sol\":4084:4108  _donateCounter.current() */\n      tag_353\n        /* \"DirectDonation.sol\":4084:4098  _donateCounter */\n      0x01\n        /* \"DirectDonation.sol\":4084:4106  _donateCounter.current */\n      tag_157\n        /* \"DirectDonation.sol\":4084:4108  _donateCounter.current() */\n      jump\t// in\n    tag_353:\n        /* \"DirectDonation.sol\":4063:4109  new DonationStruct[](_donateCounter.current()) */\n      0xffffffffffffffff\n      dup2\n      gt\n      iszero\n      tag_354\n      jumpi\n      tag_355\n      tag_160\n      jump\t// in\n    tag_355:\n    tag_354:\n      mload(0x40)\n      swap1\n      dup1\n      dup3\n      mstore\n      dup1\n      0x20\n      mul\n      0x20\n      add\n      dup3\n      add\n      0x40\n      mstore\n      dup1\n      iszero\n      tag_356\n      jumpi\n      dup2\n      0x20\n      add\n    tag_357:\n      tag_358\n      tag_197\n      jump\t// in\n    tag_358:\n      dup2\n      mstore\n      0x20\n      add\n      swap1\n      0x01\n      swap1\n      sub\n      swap1\n      dup2\n      tag_357\n      jumpi\n      swap1\n      pop\n    tag_356:\n      pop\n        /* \"DirectDonation.sol\":4030:4109  DonationStruct[] memory result = new DonationStruct[](_donateCounter.current()) */\n      swap1\n      pop\n        /* \"DirectDonation.sol\":4120:4135  uint256 counter */\n      0x00\n        /* \"DirectDonation.sol\":4154:4163  uint256 i */\n      dup1\n        /* \"DirectDonation.sol\":4149:4376  for (uint256 i = 0; i < _donateCounter.current(); i++) {... */\n    tag_359:\n        /* \"DirectDonation.sol\":4173:4197  _donateCounter.current() */\n      tag_362\n        /* \"DirectDonation.sol\":4173:4187  _donateCounter */\n      0x01\n        /* \"DirectDonation.sol\":4173:4195  _donateCounter.current */\n      tag_157\n        /* \"DirectDonation.sol\":4173:4197  _donateCounter.current() */\n      jump\t// in\n    tag_362:\n        /* \"DirectDonation.sol\":4169:4170  i */\n      dup2\n        /* \"DirectDonation.sol\":4169:4197  i < _donateCounter.current() */\n      lt\n        /* \"DirectDonation.sol\":4149:4376  for (uint256 i = 0; i < _donateCounter.current(); i++) {... */\n      iszero\n      tag_360\n      jumpi\n        /* \"DirectDonation.sol\":4256:4262  _appId */\n      dup5\n        /* \"DirectDonation.sol\":4222:4230  donation */\n      0x04\n        /* \"DirectDonation.sol\":4222:4246  donation[bytes32(i + 1)] */\n      0x00\n        /* \"DirectDonation.sol\":4243:4244  1 */\n      0x01\n        /* \"DirectDonation.sol\":4239:4240  i */\n      dup5\n        /* \"DirectDonation.sol\":4239:4244  i + 1 */\n      tag_363\n      swap2\n      swap1\n      tag_170\n      jump\t// in\n    tag_363:\n        /* \"DirectDonation.sol\":4231:4245  bytes32(i + 1) */\n      0x00\n      shl\n        /* \"DirectDonation.sol\":4222:4246  donation[bytes32(i + 1)] */\n      dup2\n      mstore\n      0x20\n      add\n      swap1\n      dup2\n      mstore\n      0x20\n      add\n      0x00\n      keccak256\n        /* \"DirectDonation.sol\":4222:4252  donation[bytes32(i + 1)].appId */\n      0x02\n      add\n      sload\n        /* \"DirectDonation.sol\":4222:4262  donation[bytes32(i + 1)].appId == _appId */\n      sub\n        /* \"DirectDonation.sol\":4218:4366  if (donation[bytes32(i + 1)].appId == _appId) {... */\n      tag_364\n      jumpi\n        /* \"DirectDonation.sol\":4300:4308  donation */\n      0x04\n        /* \"DirectDonation.sol\":4300:4324  donation[bytes32(i + 1)] */\n      0x00\n        /* \"DirectDonation.sol\":4321:4322  1 */\n      0x01\n        /* \"DirectDonation.sol\":4317:4318  i */\n      dup4\n        /* \"DirectDonation.sol\":4317:4322  i + 1 */\n      tag_365\n      swap2\n      swap1\n      tag_170\n      jump\t// in\n    tag_365:\n        /* \"DirectDonation.sol\":4309:4323  bytes32(i + 1) */\n      0x00\n      shl\n        /* \"DirectDonation.sol\":4300:4324  donation[bytes32(i + 1)] */\n      dup2\n      mstore\n      0x20\n      add\n      swap1\n      dup2\n      mstore\n      0x20\n      add\n      0x00\n      keccak256\n        /* \"DirectDonation.sol\":4282:4324  result[counter] = donation[bytes32(i + 1)] */\n      mload(0x40)\n      dup1\n      0xc0\n      add\n      0x40\n      mstore\n      swap1\n      dup2\n      0x00\n      dup3\n      add\n      0x00\n      swap1\n      sload\n      swap1\n      0x0100\n      exp\n      swap1\n      div\n      0xffffffffffffffffffffffffffffffffffffffff\n      and\n      0xffffffffffffffffffffffffffffffffffffffff\n      and\n      0xffffffffffffffffffffffffffffffffffffffff\n      and\n      dup2\n      mstore\n      0x20\n      add\n      0x01\n      dup3\n      add\n      sload\n      dup2\n      mstore\n      0x20\n      add\n      0x02\n      dup3\n      add\n      sload\n      dup2\n      mstore\n      0x20\n      add\n      0x03\n      dup3\n      add\n      sload\n      dup2\n      mstore\n      0x20\n      add\n      0x04\n      dup3\n      add\n      0x00\n      swap1\n      sload\n      swap1\n      0x0100\n      exp\n      swap1\n      div\n      0xffffffffffffffffffffffffffffffffffffffff\n      and\n      0xffffffffffffffffffffffffffffffffffffffff\n      and\n      0xffffffffffffffffffffffffffffffffffffffff\n      and\n      dup2\n      mstore\n      0x20\n      add\n      0x05\n      dup3\n      add\n      sload\n      dup2\n      mstore\n      pop\n      pop\n        /* \"DirectDonation.sol\":4282:4288  result */\n      dup4\n        /* \"DirectDonation.sol\":4289:4296  counter */\n      dup4\n        /* \"DirectDonation.sol\":4282:4297  result[counter] */\n      dup2\n      mload\n      dup2\n      lt\n      tag_366\n      jumpi\n      tag_367\n      tag_176\n      jump\t// in\n    tag_367:\n    tag_366:\n      0x20\n      mul\n      0x20\n      add\n      add\n        /* \"DirectDonation.sol\":4282:4324  result[counter] = donation[bytes32(i + 1)] */\n      dup2\n      swap1\n      mstore\n      pop\n        /* \"DirectDonation.sol\":4342:4351  counter++ */\n      dup2\n      dup1\n      tag_368\n      swap1\n      tag_208\n      jump\t// in\n    tag_368:\n      swap3\n      pop\n      pop\n        /* \"DirectDonation.sol\":4218:4366  if (donation[bytes32(i + 1)].appId == _appId) {... */\n    tag_364:\n        /* \"DirectDonation.sol\":4199:4202  i++ */\n      dup1\n      dup1\n      0x01\n      add\n      swap2\n      pop\n      pop\n        /* \"DirectDonation.sol\":4149:4376  for (uint256 i = 0; i < _donateCounter.current(); i++) {... */\n      jump(tag_359)\n    tag_360:\n      pop\n        /* \"DirectDonation.sol\":4393:4399  result */\n      dup2\n        /* \"DirectDonation.sol\":4386:4399  return result */\n      swap3\n      pop\n      pop\n      pop\n        /* \"DirectDonation.sol\":3925:4406  function getDonationByAppId(bytes32 _appId) public view returns (DonationStruct[] memory list) {... */\n      swap2\n      swap1\n      pop\n      jump\t// out\n        /* \"DirectDonation.sol\":6048:6427  function addToken(address _addr) public onlyOwner returns (bytes32) {... */\n    tag_132:\n        /* \"DirectDonation.sol\":6107:6114  bytes32 */\n      0x00\n        /* \"_ownable.sol\":1552:1565  _checkOwner() */\n      tag_370\n        /* \"_ownable.sol\":1552:1563  _checkOwner */\n      tag_179\n        /* \"_ownable.sol\":1552:1565  _checkOwner() */\n      jump\t// in\n    tag_370:\n        /* \"DirectDonation.sol\":6126:6151  _tokenCounter.increment() */\n      tag_372\n        /* \"DirectDonation.sol\":6126:6139  _tokenCounter */\n      0x02\n        /* \"DirectDonation.sol\":6126:6149  _tokenCounter.increment */\n      tag_346\n        /* \"DirectDonation.sol\":6126:6151  _tokenCounter.increment() */\n      jump\t// in\n    tag_372:\n        /* \"DirectDonation.sol\":6203:6254  TokenStruct(address(_addr), false, block.timestamp) */\n      mload(0x40)\n      dup1\n      0x60\n      add\n      0x40\n      mstore\n      dup1\n        /* \"DirectDonation.sol\":6223:6228  _addr */\n      dup4\n        /* \"DirectDonation.sol\":6203:6254  TokenStruct(address(_addr), false, block.timestamp) */\n      0xffffffffffffffffffffffffffffffffffffffff\n      and\n      dup2\n      mstore\n      0x20\n      add\n        /* \"DirectDonation.sol\":6231:6236  false */\n      0x00\n        /* \"DirectDonation.sol\":6203:6254  TokenStruct(address(_addr), false, block.timestamp) */\n      iszero\n      iszero\n      dup2\n      mstore\n      0x20\n      add\n        /* \"DirectDonation.sol\":6238:6253  block.timestamp */\n      timestamp\n        /* \"DirectDonation.sol\":6203:6254  TokenStruct(address(_addr), false, block.timestamp) */\n      dup2\n      mstore\n      pop\n        /* \"DirectDonation.sol\":6161:6166  token */\n      0x05\n        /* \"DirectDonation.sol\":6161:6200  token[bytes32(_tokenCounter.current())] */\n      0x00\n        /* \"DirectDonation.sol\":6175:6198  _tokenCounter.current() */\n      tag_373\n        /* \"DirectDonation.sol\":6175:6188  _tokenCounter */\n      0x02\n        /* \"DirectDonation.sol\":6175:6196  _tokenCounter.current */\n      tag_157\n        /* \"DirectDonation.sol\":6175:6198  _tokenCounter.current() */\n      jump\t// in\n    tag_373:\n        /* \"DirectDonation.sol\":6167:6199  bytes32(_tokenCounter.current()) */\n      0x00\n      shl\n        /* \"DirectDonation.sol\":6161:6200  token[bytes32(_tokenCounter.current())] */\n      dup2\n      mstore\n      0x20\n      add\n      swap1\n      dup2\n      mstore\n      0x20\n      add\n      0x00\n      keccak256\n        /* \"DirectDonation.sol\":6161:6254  token[bytes32(_tokenCounter.current())] = TokenStruct(address(_addr), false, block.timestamp) */\n      0x00\n      dup3\n      add\n      mload\n      dup2\n      0x00\n      add\n      exp(0x0100, 0x00)\n      dup2\n      sload\n      dup2\n      0xffffffffffffffffffffffffffffffffffffffff\n      mul\n      not\n      and\n      swap1\n      dup4\n      0xffffffffffffffffffffffffffffffffffffffff\n      and\n      mul\n      or\n      swap1\n      sstore\n      pop\n      0x20\n      dup3\n      add\n      mload\n      dup2\n      0x00\n      add\n      exp(0x0100, 0x14)\n      dup2\n      sload\n      dup2\n      0xff\n      mul\n      not\n      and\n      swap1\n      dup4\n      iszero\n      iszero\n      mul\n      or\n      swap1\n      sstore\n      pop\n      0x40\n      dup3\n      add\n      mload\n      dup2\n      0x01\n      add\n      sstore\n      swap1\n      pop\n      pop\n        /* \"DirectDonation.sol\":6316:6339  _tokenCounter.current() */\n      tag_374\n        /* \"DirectDonation.sol\":6316:6329  _tokenCounter */\n      0x02\n        /* \"DirectDonation.sol\":6316:6337  _tokenCounter.current */\n      tag_157\n        /* \"DirectDonation.sol\":6316:6339  _tokenCounter.current() */\n      jump\t// in\n    tag_374:\n        /* \"DirectDonation.sol\":6308:6340  bytes32(_tokenCounter.current()) */\n      0x00\n      shl\n        /* \"DirectDonation.sol\":6297:6371  TokenAdded(bytes32(_tokenCounter.current()), address(_addr), _msgSender()) */\n      0x0e50ffa2b79cb01d7c5404bfe02189a4c5b297cd59bc80608efdc52e3b334616\n        /* \"DirectDonation.sol\":6350:6355  _addr */\n      dup4\n        /* \"DirectDonation.sol\":6358:6370  _msgSender() */\n      tag_375\n        /* \"DirectDonation.sol\":6358:6368  _msgSender */\n      tag_293\n        /* \"DirectDonation.sol\":6358:6370  _msgSender() */\n      jump\t// in\n    tag_375:\n        /* \"DirectDonation.sol\":6297:6371  TokenAdded(bytes32(_tokenCounter.current()), address(_addr), _msgSender()) */\n      mload(0x40)\n      tag_376\n      swap3\n      swap2\n      swap1\n      tag_295\n      jump\t// in\n    tag_376:\n      mload(0x40)\n      dup1\n      swap2\n      sub\n      swap1\n      log2\n        /* \"DirectDonation.sol\":6396:6419  _tokenCounter.current() */\n      tag_377\n        /* \"DirectDonation.sol\":6396:6409  _tokenCounter */\n      0x02\n        /* \"DirectDonation.sol\":6396:6417  _tokenCounter.current */\n      tag_157\n        /* \"DirectDonation.sol\":6396:6419  _tokenCounter.current() */\n      jump\t// in\n    tag_377:\n        /* \"DirectDonation.sol\":6388:6420  bytes32(_tokenCounter.current()) */\n      0x00\n      shl\n        /* \"DirectDonation.sol\":6381:6420  return bytes32(_tokenCounter.current()) */\n      swap1\n      pop\n        /* \"DirectDonation.sol\":6048:6427  function addToken(address _addr) public onlyOwner returns (bytes32) {... */\n      swap2\n      swap1\n      pop\n      jump\t// out\n        /* \"DirectDonation.sol\":1324:1368  mapping(bytes32 => TokenStruct) public token */\n    tag_138:\n      mstore(0x20, 0x05)\n      dup1\n      0x00\n      mstore\n      keccak256(0x00, 0x40)\n      0x00\n      swap2\n      pop\n      swap1\n      pop\n      dup1\n      0x00\n      add\n      0x00\n      swap1\n      sload\n      swap1\n      0x0100\n      exp\n      swap1\n      div\n      0xffffffffffffffffffffffffffffffffffffffff\n      and\n      swap1\n      dup1\n      0x00\n      add\n      0x14\n      swap1\n      sload\n      swap1\n      0x0100\n      exp\n      swap1\n      div\n      0xff\n      and\n      swap1\n      dup1\n      0x01\n      add\n      sload\n      swap1\n      pop\n      dup4\n      jump\t// out\n        /* \"DirectDonation.sol\":6464:6765  function deleteToken(bytes32 _tokenId) public onlyOwner returns (uint256) {... */\n    tag_144:\n        /* \"DirectDonation.sol\":6529:6536  uint256 */\n      0x00\n        /* \"_ownable.sol\":1552:1565  _checkOwner() */\n      tag_379\n        /* \"_ownable.sol\":1552:1563  _checkOwner */\n      tag_179\n        /* \"_ownable.sol\":1552:1565  _checkOwner() */\n      jump\t// in\n    tag_379:\n        /* \"DirectDonation.sol\":6555:6560  token */\n      0x05\n        /* \"DirectDonation.sol\":6555:6570  token[_tokenId] */\n      0x00\n        /* \"DirectDonation.sol\":6561:6569  _tokenId */\n      dup4\n        /* \"DirectDonation.sol\":6555:6570  token[_tokenId] */\n      dup2\n      mstore\n      0x20\n      add\n      swap1\n      dup2\n      mstore\n      0x20\n      add\n      0x00\n      keccak256\n      0x00\n        /* \"DirectDonation.sol\":6548:6570  delete token[_tokenId] */\n      dup1\n      dup3\n      add\n      exp(0x0100, 0x00)\n      dup2\n      sload\n      swap1\n      0xffffffffffffffffffffffffffffffffffffffff\n      mul\n      not\n      and\n      swap1\n      sstore\n      0x00\n      dup3\n      add\n      exp(0x0100, 0x14)\n      dup2\n      sload\n      swap1\n      0xff\n      mul\n      not\n      and\n      swap1\n      sstore\n      0x01\n      dup3\n      add\n      0x00\n      swap1\n      sstore\n      pop\n      pop\n        /* \"DirectDonation.sol\":6580:6605  _tokenCounter.decrement() */\n      tag_381\n        /* \"DirectDonation.sol\":6580:6593  _tokenCounter */\n      0x02\n        /* \"DirectDonation.sol\":6580:6603  _tokenCounter.decrement */\n      tag_382\n        /* \"DirectDonation.sol\":6580:6605  _tokenCounter.decrement() */\n      jump\t// in\n    tag_381:\n        /* \"DirectDonation.sol\":6679:6702  _tokenCounter.current() */\n      tag_383\n        /* \"DirectDonation.sol\":6679:6692  _tokenCounter */\n      0x02\n        /* \"DirectDonation.sol\":6679:6700  _tokenCounter.current */\n      tag_157\n        /* \"DirectDonation.sol\":6679:6702  _tokenCounter.current() */\n      jump\t// in\n    tag_383:\n        /* \"DirectDonation.sol\":6671:6703  bytes32(_tokenCounter.current()) */\n      0x00\n      shl\n        /* \"DirectDonation.sol\":6658:6718  TokenRemoved(bytes32(_tokenCounter.current()), _msgSender()) */\n      0x3afbc119e23990903d2ef3fdf9210a7b06b5f6f85438b0edfcfbf630ad594fcc\n        /* \"DirectDonation.sol\":6705:6717  _msgSender() */\n      tag_384\n        /* \"DirectDonation.sol\":6705:6715  _msgSender */\n      tag_293\n        /* \"DirectDonation.sol\":6705:6717  _msgSender() */\n      jump\t// in\n    tag_384:\n        /* \"DirectDonation.sol\":6658:6718  TokenRemoved(bytes32(_tokenCounter.current()), _msgSender()) */\n      mload(0x40)\n      tag_385\n      swap2\n      swap1\n      tag_102\n      jump\t// in\n    tag_385:\n      mload(0x40)\n      dup1\n      swap2\n      sub\n      swap1\n      log2\n        /* \"DirectDonation.sol\":6735:6758  _tokenCounter.current() */\n      tag_386\n        /* \"DirectDonation.sol\":6735:6748  _tokenCounter */\n      0x02\n        /* \"DirectDonation.sol\":6735:6756  _tokenCounter.current */\n      tag_157\n        /* \"DirectDonation.sol\":6735:6758  _tokenCounter.current() */\n      jump\t// in\n    tag_386:\n        /* \"DirectDonation.sol\":6728:6758  return _tokenCounter.current() */\n      swap1\n      pop\n        /* \"DirectDonation.sol\":6464:6765  function deleteToken(bytes32 _tokenId) public onlyOwner returns (uint256) {... */\n      swap2\n      swap1\n      pop\n      jump\t// out\n        /* \"_ownable.sol\":2564:2779  function transferOwnership(address newOwner) public virtual onlyOwner {... */\n    tag_149:\n        /* \"_ownable.sol\":1552:1565  _checkOwner() */\n      tag_388\n        /* \"_ownable.sol\":1552:1563  _checkOwner */\n      tag_179\n        /* \"_ownable.sol\":1552:1565  _checkOwner() */\n      jump\t// in\n    tag_388:\n        /* \"_ownable.sol\":2668:2669  0 */\n      0x00\n        /* \"_ownable.sol\":2648:2670  newOwner == address(0) */\n      0xffffffffffffffffffffffffffffffffffffffff\n      and\n        /* \"_ownable.sol\":2648:2656  newOwner */\n      dup2\n        /* \"_ownable.sol\":2648:2670  newOwner == address(0) */\n      0xffffffffffffffffffffffffffffffffffffffff\n      and\n      sub\n        /* \"_ownable.sol\":2644:2735  if (newOwner == address(0)) {... */\n      tag_390\n      jumpi\n        /* \"_ownable.sol\":2721:2722  0 */\n      0x00\n        /* \"_ownable.sol\":2693:2724  OwnableInvalidOwner(address(0)) */\n      mload(0x40)\n      0x1e4fbdf700000000000000000000000000000000000000000000000000000000\n      dup2\n      mstore\n      0x04\n      add\n      tag_391\n      swap2\n      swap1\n      tag_102\n      jump\t// in\n    tag_391:\n      mload(0x40)\n      dup1\n      swap2\n      sub\n      swap1\n      revert\n        /* \"_ownable.sol\":2644:2735  if (newOwner == address(0)) {... */\n    tag_390:\n        /* \"_ownable.sol\":2744:2772  _transferOwnership(newOwner) */\n      tag_392\n        /* \"_ownable.sol\":2763:2771  newOwner */\n      dup2\n        /* \"_ownable.sol\":2744:2762  _transferOwnership */\n      tag_282\n        /* \"_ownable.sol\":2744:2772  _transferOwnership(newOwner) */\n      jump\t// in\n    tag_392:\n        /* \"_ownable.sol\":2564:2779  function transferOwnership(address newOwner) public virtual onlyOwner {... */\n      pop\n      jump\t// out\n        /* \"DirectDonation.sol\":775:813  Counters.Counter public _donateCounter */\n    tag_152:\n      0x01\n      dup1\n      0x00\n      add\n      sload\n      swap1\n      pop\n      dup2\n      jump\t// out\n        /* \"@openzeppelin/contracts/utils/Counters.sol\":827:939  function current(Counter storage counter) internal view returns (uint256) {... */\n    tag_157:\n        /* \"@openzeppelin/contracts/utils/Counters.sol\":892:899  uint256 */\n      0x00\n        /* \"@openzeppelin/contracts/utils/Counters.sol\":918:925  counter */\n      dup2\n        /* \"@openzeppelin/contracts/utils/Counters.sol\":918:932  counter._value */\n      0x00\n      add\n      sload\n        /* \"@openzeppelin/contracts/utils/Counters.sol\":911:932  return counter._value */\n      swap1\n      pop\n        /* \"@openzeppelin/contracts/utils/Counters.sol\":827:939  function current(Counter storage counter) internal view returns (uint256) {... */\n      swap2\n      swap1\n      pop\n      jump\t// out\n        /* \"_ownable.sol\":1817:1979  function _checkOwner() internal view virtual {... */\n    tag_179:\n        /* \"_ownable.sol\":1887:1899  _msgSender() */\n      tag_395\n        /* \"_ownable.sol\":1887:1897  _msgSender */\n      tag_293\n        /* \"_ownable.sol\":1887:1899  _msgSender() */\n      jump\t// in\n    tag_395:\n        /* \"_ownable.sol\":1876:1899  owner() != _msgSender() */\n      0xffffffffffffffffffffffffffffffffffffffff\n      and\n        /* \"_ownable.sol\":1876:1883  owner() */\n      tag_396\n        /* \"_ownable.sol\":1876:1881  owner */\n      tag_100\n        /* \"_ownable.sol\":1876:1883  owner() */\n      jump\t// in\n    tag_396:\n        /* \"_ownable.sol\":1876:1899  owner() != _msgSender() */\n      0xffffffffffffffffffffffffffffffffffffffff\n      and\n      eq\n        /* \"_ownable.sol\":1872:1973  if (owner() != _msgSender()) {... */\n      tag_397\n      jumpi\n        /* \"_ownable.sol\":1949:1961  _msgSender() */\n      tag_398\n        /* \"_ownable.sol\":1949:1959  _msgSender */\n      tag_293\n        /* \"_ownable.sol\":1949:1961  _msgSender() */\n      jump\t// in\n    tag_398:\n        /* \"_ownable.sol\":1922:1962  OwnableUnauthorizedAccount(_msgSender()) */\n      mload(0x40)\n      0x118cdaa700000000000000000000000000000000000000000000000000000000\n      dup2\n      mstore\n      0x04\n      add\n      tag_399\n      swap2\n      swap1\n      tag_102\n      jump\t// in\n    tag_399:\n      mload(0x40)\n      dup1\n      swap2\n      sub\n      swap1\n      revert\n        /* \"_ownable.sol\":1872:1973  if (owner() != _msgSender()) {... */\n    tag_397:\n        /* \"_ownable.sol\":1817:1979  function _checkOwner() internal view virtual {... */\n      jump\t// out\n        /* \"_pausable.sol\":2731:2848  function _unpause() internal virtual whenPaused {... */\n    tag_213:\n        /* \"_pausable.sol\":1742:1758  _requirePaused() */\n      tag_401\n        /* \"_pausable.sol\":1742:1756  _requirePaused */\n      tag_402\n        /* \"_pausable.sol\":1742:1758  _requirePaused() */\n      jump\t// in\n    tag_401:\n        /* \"_pausable.sol\":2799:2804  false */\n      0x00\n        /* \"_pausable.sol\":2789:2796  _paused */\n      dup1\n      0x14\n        /* \"_pausable.sol\":2789:2804  _paused = false */\n      0x0100\n      exp\n      dup2\n      sload\n      dup2\n      0xff\n      mul\n      not\n      and\n      swap1\n      dup4\n      iszero\n      iszero\n      mul\n      or\n      swap1\n      sstore\n      pop\n        /* \"_pausable.sol\":2819:2841  Unpaused(_msgSender()) */\n      0x5db9ee0a495bf2e6ff9c91a7834c1ba4fdd244a5e8aa4e537bd38aeae4b073aa\n        /* \"_pausable.sol\":2828:2840  _msgSender() */\n      tag_404\n        /* \"_pausable.sol\":2828:2838  _msgSender */\n      tag_293\n        /* \"_pausable.sol\":2828:2840  _msgSender() */\n      jump\t// in\n    tag_404:\n        /* \"_pausable.sol\":2819:2841  Unpaused(_msgSender()) */\n      mload(0x40)\n      tag_405\n      swap2\n      swap1\n      tag_102\n      jump\t// in\n    tag_405:\n      mload(0x40)\n      dup1\n      swap2\n      sub\n      swap1\n      log1\n        /* \"_pausable.sol\":2731:2848  function _unpause() internal virtual whenPaused {... */\n      jump\t// out\n        /* \"_ownable.sol\":2933:3120  function _transferOwnership(address newOwner) internal virtual {... */\n    tag_282:\n        /* \"_ownable.sol\":3006:3022  address oldOwner */\n      0x00\n        /* \"_ownable.sol\":3025:3031  _owner */\n      dup1\n      0x00\n      swap1\n      sload\n      swap1\n      0x0100\n      exp\n      swap1\n      div\n      0xffffffffffffffffffffffffffffffffffffffff\n      and\n        /* \"_ownable.sol\":3006:3031  address oldOwner = _owner */\n      swap1\n      pop\n        /* \"_ownable.sol\":3050:3058  newOwner */\n      dup2\n        /* \"_ownable.sol\":3041:3047  _owner */\n      0x00\n      dup1\n        /* \"_ownable.sol\":3041:3058  _owner = newOwner */\n      0x0100\n      exp\n      dup2\n      sload\n      dup2\n      0xffffffffffffffffffffffffffffffffffffffff\n      mul\n      not\n      and\n      swap1\n      dup4\n      0xffffffffffffffffffffffffffffffffffffffff\n      and\n      mul\n      or\n      swap1\n      sstore\n      pop\n        /* \"_ownable.sol\":3104:3112  newOwner */\n      dup2\n        /* \"_ownable.sol\":3073:3113  OwnershipTransferred(oldOwner, newOwner) */\n      0xffffffffffffffffffffffffffffffffffffffff\n      and\n        /* \"_ownable.sol\":3094:3102  oldOwner */\n      dup2\n        /* \"_ownable.sol\":3073:3113  OwnershipTransferred(oldOwner, newOwner) */\n      0xffffffffffffffffffffffffffffffffffffffff\n      and\n      0x8be0079c531659141344cd1fd0a4f28419497f9722a3daafe3b4186f6b6457e0\n      mload(0x40)\n      mload(0x40)\n      dup1\n      swap2\n      sub\n      swap1\n      log3\n        /* \"_ownable.sol\":2996:3120  {... */\n      pop\n        /* \"_ownable.sol\":2933:3120  function _transferOwnership(address newOwner) internal virtual {... */\n      pop\n      jump\t// out\n        /* \"_pausable.sol\":2484:2599  function _pause() internal virtual whenNotPaused {... */\n    tag_287:\n        /* \"_pausable.sol\":1495:1514  _requireNotPaused() */\n      tag_408\n        /* \"_pausable.sol\":1495:1512  _requireNotPaused */\n      tag_305\n        /* \"_pausable.sol\":1495:1514  _requireNotPaused() */\n      jump\t// in\n    tag_408:\n        /* \"_pausable.sol\":2553:2557  true */\n      0x01\n        /* \"_pausable.sol\":2543:2550  _paused */\n      0x00\n      0x14\n        /* \"_pausable.sol\":2543:2557  _paused = true */\n      0x0100\n      exp\n      dup2\n      sload\n      dup2\n      0xff\n      mul\n      not\n      and\n      swap1\n      dup4\n      iszero\n      iszero\n      mul\n      or\n      swap1\n      sstore\n      pop\n        /* \"_pausable.sol\":2572:2592  Paused(_msgSender()) */\n      0x62e78cea01bee320cd4e420270b5ea74000d11b0c9f74754ebdbfc544b05a258\n        /* \"_pausable.sol\":2579:2591  _msgSender() */\n      tag_410\n        /* \"_pausable.sol\":2579:2589  _msgSender */\n      tag_293\n        /* \"_pausable.sol\":2579:2591  _msgSender() */\n      jump\t// in\n    tag_410:\n        /* \"_pausable.sol\":2572:2592  Paused(_msgSender()) */\n      mload(0x40)\n      tag_411\n      swap2\n      swap1\n      tag_102\n      jump\t// in\n    tag_411:\n      mload(0x40)\n      dup1\n      swap2\n      sub\n      swap1\n      log1\n        /* \"_pausable.sol\":2484:2599  function _pause() internal virtual whenNotPaused {... */\n      jump\t// out\n        /* \"@openzeppelin/contracts/utils/Context.sol\":656:752  function _msgSender() internal view virtual returns (address) {... */\n    tag_293:\n        /* \"@openzeppelin/contracts/utils/Context.sol\":709:716  address */\n      0x00\n        /* \"@openzeppelin/contracts/utils/Context.sol\":735:745  msg.sender */\n      caller\n        /* \"@openzeppelin/contracts/utils/Context.sol\":728:745  return msg.sender */\n      swap1\n      pop\n        /* \"@openzeppelin/contracts/utils/Context.sol\":656:752  function _msgSender() internal view virtual returns (address) {... */\n      swap1\n      jump\t// out\n        /* \"_pausable.sol\":2023:2151  function _requireNotPaused() internal view virtual {... */\n    tag_305:\n        /* \"_pausable.sol\":2088:2096  paused() */\n      tag_414\n        /* \"_pausable.sol\":2088:2094  paused */\n      tag_84\n        /* \"_pausable.sol\":2088:2096  paused() */\n      jump\t// in\n    tag_414:\n        /* \"_pausable.sol\":2084:2145  if (paused()) {... */\n      iszero\n      tag_415\n      jumpi\n        /* \"_pausable.sol\":2119:2134  EnforcedPause() */\n      mload(0x40)\n      0xd93c066500000000000000000000000000000000000000000000000000000000\n      dup2\n      mstore\n      0x04\n      add\n      mload(0x40)\n      dup1\n      swap2\n      sub\n      swap1\n      revert\n        /* \"_pausable.sol\":2084:2145  if (paused()) {... */\n    tag_415:\n        /* \"_pausable.sol\":2023:2151  function _requireNotPaused() internal view virtual {... */\n      jump\t// out\n        /* \"@openzeppelin/contracts/utils/Counters.sol\":945:1068  function increment(Counter storage counter) internal {... */\n    tag_346:\n        /* \"@openzeppelin/contracts/utils/Counters.sol\":1050:1051  1 */\n      0x01\n        /* \"@openzeppelin/contracts/utils/Counters.sol\":1032:1039  counter */\n      dup2\n        /* \"@openzeppelin/contracts/utils/Counters.sol\":1032:1046  counter._value */\n      0x00\n      add\n      0x00\n        /* \"@openzeppelin/contracts/utils/Counters.sol\":1032:1051  counter._value += 1 */\n      dup3\n      dup3\n      sload\n      add\n      swap3\n      pop\n      pop\n      dup2\n      swap1\n      sstore\n      pop\n        /* \"@openzeppelin/contracts/utils/Counters.sol\":945:1068  function increment(Counter storage counter) internal {... */\n      pop\n      jump\t// out\n        /* \"@openzeppelin/contracts/utils/Counters.sol\":1074:1303  function decrement(Counter storage counter) internal {... */\n    tag_382:\n        /* \"@openzeppelin/contracts/utils/Counters.sol\":1137:1150  uint256 value */\n      0x00\n        /* \"@openzeppelin/contracts/utils/Counters.sol\":1153:1160  counter */\n      dup2\n        /* \"@openzeppelin/contracts/utils/Counters.sol\":1153:1167  counter._value */\n      0x00\n      add\n      sload\n        /* \"@openzeppelin/contracts/utils/Counters.sol\":1137:1167  uint256 value = counter._value */\n      swap1\n      pop\n        /* \"@openzeppelin/contracts/utils/Counters.sol\":1193:1194  0 */\n      0x00\n        /* \"@openzeppelin/contracts/utils/Counters.sol\":1185:1190  value */\n      dup2\n        /* \"@openzeppelin/contracts/utils/Counters.sol\":1185:1194  value > 0 */\n      gt\n        /* \"@openzeppelin/contracts/utils/Counters.sol\":1177:1226  require(value > 0, \"Counter: decrement overflow\") */\n      tag_418\n      jumpi\n      mload(0x40)\n      0x08c379a000000000000000000000000000000000000000000000000000000000\n      dup2\n      mstore\n      0x04\n      add\n      tag_419\n      swap1\n      tag_420\n      jump\t// in\n    tag_419:\n      mload(0x40)\n      dup1\n      swap2\n      sub\n      swap1\n      revert\n    tag_418:\n        /* \"@openzeppelin/contracts/utils/Counters.sol\":1285:1286  1 */\n      0x01\n        /* \"@openzeppelin/contracts/utils/Counters.sol\":1277:1282  value */\n      dup2\n        /* \"@openzeppelin/contracts/utils/Counters.sol\":1277:1286  value - 1 */\n      sub\n        /* \"@openzeppelin/contracts/utils/Counters.sol\":1260:1267  counter */\n      dup3\n        /* \"@openzeppelin/contracts/utils/Counters.sol\":1260:1274  counter._value */\n      0x00\n      add\n        /* \"@openzeppelin/contracts/utils/Counters.sol\":1260:1286  counter._value = value - 1 */\n      dup2\n      swap1\n      sstore\n      pop\n        /* \"@openzeppelin/contracts/utils/Counters.sol\":1127:1303  {... */\n      pop\n        /* \"@openzeppelin/contracts/utils/Counters.sol\":1074:1303  function decrement(Counter storage counter) internal {... */\n      pop\n      jump\t// out\n        /* \"_pausable.sol\":2223:2349  function _requirePaused() internal view virtual {... */\n    tag_402:\n        /* \"_pausable.sol\":2286:2294  paused() */\n      tag_422\n        /* \"_pausable.sol\":2286:2292  paused */\n      tag_84\n        /* \"_pausable.sol\":2286:2294  paused() */\n      jump\t// in\n    tag_422:\n        /* \"_pausable.sol\":2281:2343  if (!paused()) {... */\n      tag_423\n      jumpi\n        /* \"_pausable.sol\":2317:2332  ExpectedPause() */\n      mload(0x40)\n      0x8dfc202b00000000000000000000000000000000000000000000000000000000\n      dup2\n      mstore\n      0x04\n      add\n      mload(0x40)\n      dup1\n      swap2\n      sub\n      swap1\n      revert\n        /* \"_pausable.sol\":2281:2343  if (!paused()) {... */\n    tag_423:\n        /* \"_pausable.sol\":2223:2349  function _requirePaused() internal view virtual {... */\n      jump\t// out\n    tag_164:\n      mload(0x40)\n      dup1\n      0x80\n      add\n      0x40\n      mstore\n      dup1\n      0x00\n      dup1\n      not\n      and\n      dup2\n      mstore\n      0x20\n      add\n      and(0xffffffffffffffffffffffffffffffffffffffff, 0x00)\n      dup2\n      mstore\n      0x20\n      add\n      iszero(iszero(0x00))\n      dup2\n      mstore\n      0x20\n      add\n      0x00\n      dup2\n      mstore\n      pop\n      swap1\n      jump\t// out\n    tag_197:\n      mload(0x40)\n      dup1\n      0xc0\n      add\n      0x40\n      mstore\n      dup1\n      and(0xffffffffffffffffffffffffffffffffffffffff, 0x00)\n      dup2\n      mstore\n      0x20\n      add\n      0x00\n      dup1\n      not\n      and\n      dup2\n      mstore\n      0x20\n      add\n      0x00\n      dup1\n      not\n      and\n      dup2\n      mstore\n      0x20\n      add\n      0x00\n      dup2\n      mstore\n      0x20\n      add\n      and(0xffffffffffffffffffffffffffffffffffffffff, 0x00)\n      dup2\n      mstore\n      0x20\n      add\n      0x00\n      dup2\n      mstore\n      pop\n      swap1\n      jump\t// out\n    tag_266:\n      mload(0x40)\n      dup1\n      0x60\n      add\n      0x40\n      mstore\n      dup1\n      and(0xffffffffffffffffffffffffffffffffffffffff, 0x00)\n      dup2\n      mstore\n      0x20\n      add\n      iszero(iszero(0x00))\n      dup2\n      mstore\n      0x20\n      add\n      0x00\n      dup2\n      mstore\n      pop\n      swap1\n      jump\t// out\n        /* \"#utility.yul\":7:84   */\n    tag_424:\n        /* \"#utility.yul\":44:51   */\n      0x00\n        /* \"#utility.yul\":73:78   */\n      dup2\n        /* \"#utility.yul\":62:78   */\n      swap1\n      pop\n        /* \"#utility.yul\":7:84   */\n      swap2\n      swap1\n      pop\n      jump\t// out\n        /* \"#utility.yul\":90:208   */\n    tag_425:\n        /* \"#utility.yul\":177:201   */\n      tag_505\n        /* \"#utility.yul\":195:200   */\n      dup2\n        /* \"#utility.yul\":177:201   */\n      tag_424\n      jump\t// in\n    tag_505:\n        /* \"#utility.yul\":172:175   */\n      dup3\n        /* \"#utility.yul\":165:202   */\n      mstore\n        /* \"#utility.yul\":90:208   */\n      pop\n      pop\n      jump\t// out\n        /* \"#utility.yul\":214:436   */\n    tag_35:\n        /* \"#utility.yul\":307:311   */\n      0x00\n        /* \"#utility.yul\":345:347   */\n      0x20\n        /* \"#utility.yul\":334:343   */\n      dup3\n        /* \"#utility.yul\":330:348   */\n      add\n        /* \"#utility.yul\":322:348   */\n      swap1\n      pop\n        /* \"#utility.yul\":358:429   */\n      tag_507\n        /* \"#utility.yul\":426:427   */\n      0x00\n        /* \"#utility.yul\":415:424   */\n      dup4\n        /* \"#utility.yul\":411:428   */\n      add\n        /* \"#utility.yul\":402:408   */\n      dup5\n        /* \"#utility.yul\":358:429   */\n      tag_425\n      jump\t// in\n    tag_507:\n        /* \"#utility.yul\":214:436   */\n      swap3\n      swap2\n      pop\n      pop\n      jump\t// out\n        /* \"#utility.yul\":442:591   */\n    tag_426:\n        /* \"#utility.yul\":544:550   */\n      0x00\n        /* \"#utility.yul\":578:583   */\n      dup2\n        /* \"#utility.yul\":572:584   */\n      mload\n        /* \"#utility.yul\":562:584   */\n      swap1\n      pop\n        /* \"#utility.yul\":442:591   */\n      swap2\n      swap1\n      pop\n      jump\t// out\n        /* \"#utility.yul\":597:816   */\n    tag_427:\n        /* \"#utility.yul\":731:742   */\n      0x00\n        /* \"#utility.yul\":765:771   */\n      dup3\n        /* \"#utility.yul\":760:763   */\n      dup3\n        /* \"#utility.yul\":753:772   */\n      mstore\n        /* \"#utility.yul\":805:809   */\n      0x20\n        /* \"#utility.yul\":800:803   */\n      dup3\n        /* \"#utility.yul\":796:810   */\n      add\n        /* \"#utility.yul\":781:810   */\n      swap1\n      pop\n        /* \"#utility.yul\":597:816   */\n      swap3\n      swap2\n      pop\n      pop\n      jump\t// out\n        /* \"#utility.yul\":822:989   */\n    tag_428:\n        /* \"#utility.yul\":924:928   */\n      0x00\n        /* \"#utility.yul\":947:950   */\n      dup2\n        /* \"#utility.yul\":939:950   */\n      swap1\n      pop\n        /* \"#utility.yul\":977:981   */\n      0x20\n        /* \"#utility.yul\":972:975   */\n      dup3\n        /* \"#utility.yul\":968:982   */\n      add\n        /* \"#utility.yul\":960:982   */\n      swap1\n      pop\n        /* \"#utility.yul\":822:989   */\n      swap2\n      swap1\n      pop\n      jump\t// out\n        /* \"#utility.yul\":995:1072   */\n    tag_429:\n        /* \"#utility.yul\":1032:1039   */\n      0x00\n        /* \"#utility.yul\":1061:1066   */\n      dup2\n        /* \"#utility.yul\":1050:1066   */\n      swap1\n      pop\n        /* \"#utility.yul\":995:1072   */\n      swap2\n      swap1\n      pop\n      jump\t// out\n        /* \"#utility.yul\":1078:1186   */\n    tag_430:\n        /* \"#utility.yul\":1155:1179   */\n      tag_513\n        /* \"#utility.yul\":1173:1178   */\n      dup2\n        /* \"#utility.yul\":1155:1179   */\n      tag_429\n      jump\t// in\n    tag_513:\n        /* \"#utility.yul\":1150:1153   */\n      dup3\n        /* \"#utility.yul\":1143:1180   */\n      mstore\n        /* \"#utility.yul\":1078:1186   */\n      pop\n      pop\n      jump\t// out\n        /* \"#utility.yul\":1192:1318   */\n    tag_431:\n        /* \"#utility.yul\":1229:1236   */\n      0x00\n        /* \"#utility.yul\":1269:1311   */\n      0xffffffffffffffffffffffffffffffffffffffff\n        /* \"#utility.yul\":1262:1267   */\n      dup3\n        /* \"#utility.yul\":1258:1312   */\n      and\n        /* \"#utility.yul\":1247:1312   */\n      swap1\n      pop\n        /* \"#utility.yul\":1192:1318   */\n      swap2\n      swap1\n      pop\n      jump\t// out\n        /* \"#utility.yul\":1324:1420   */\n    tag_432:\n        /* \"#utility.yul\":1361:1368   */\n      0x00\n        /* \"#utility.yul\":1390:1414   */\n      tag_516\n        /* \"#utility.yul\":1408:1413   */\n      dup3\n        /* \"#utility.yul\":1390:1414   */\n      tag_431\n      jump\t// in\n    tag_516:\n        /* \"#utility.yul\":1379:1414   */\n      swap1\n      pop\n        /* \"#utility.yul\":1324:1420   */\n      swap2\n      swap1\n      pop\n      jump\t// out\n        /* \"#utility.yul\":1426:1534   */\n    tag_433:\n        /* \"#utility.yul\":1503:1527   */\n      tag_518\n        /* \"#utility.yul\":1521:1526   */\n      dup2\n        /* \"#utility.yul\":1503:1527   */\n      tag_432\n      jump\t// in\n    tag_518:\n        /* \"#utility.yul\":1498:1501   */\n      dup3\n        /* \"#utility.yul\":1491:1528   */\n      mstore\n        /* \"#utility.yul\":1426:1534   */\n      pop\n      pop\n      jump\t// out\n        /* \"#utility.yul\":1540:1630   */\n    tag_434:\n        /* \"#utility.yul\":1574:1581   */\n      0x00\n        /* \"#utility.yul\":1617:1622   */\n      dup2\n        /* \"#utility.yul\":1610:1623   */\n      iszero\n        /* \"#utility.yul\":1603:1624   */\n      iszero\n        /* \"#utility.yul\":1592:1624   */\n      swap1\n      pop\n        /* \"#utility.yul\":1540:1630   */\n      swap2\n      swap1\n      pop\n      jump\t// out\n        /* \"#utility.yul\":1636:1735   */\n    tag_435:\n        /* \"#utility.yul\":1707:1728   */\n      tag_521\n        /* \"#utility.yul\":1722:1727   */\n      dup2\n        /* \"#utility.yul\":1707:1728   */\n      tag_434\n      jump\t// in\n    tag_521:\n        /* \"#utility.yul\":1702:1705   */\n      dup3\n        /* \"#utility.yul\":1695:1729   */\n      mstore\n        /* \"#utility.yul\":1636:1735   */\n      pop\n      pop\n      jump\t// out\n        /* \"#utility.yul\":1741:1849   */\n    tag_436:\n        /* \"#utility.yul\":1818:1842   */\n      tag_523\n        /* \"#utility.yul\":1836:1841   */\n      dup2\n        /* \"#utility.yul\":1818:1842   */\n      tag_424\n      jump\t// in\n    tag_523:\n        /* \"#utility.yul\":1813:1816   */\n      dup3\n        /* \"#utility.yul\":1806:1843   */\n      mstore\n        /* \"#utility.yul\":1741:1849   */\n      pop\n      pop\n      jump\t// out\n        /* \"#utility.yul\":1945:2801   */\n    tag_437:\n        /* \"#utility.yul\":2102:2106   */\n      0x80\n        /* \"#utility.yul\":2097:2100   */\n      dup3\n        /* \"#utility.yul\":2093:2107   */\n      add\n        /* \"#utility.yul\":2187:2191   */\n      0x00\n        /* \"#utility.yul\":2180:2185   */\n      dup3\n        /* \"#utility.yul\":2176:2192   */\n      add\n        /* \"#utility.yul\":2170:2193   */\n      mload\n        /* \"#utility.yul\":2206:2269   */\n      tag_525\n        /* \"#utility.yul\":2263:2267   */\n      0x00\n        /* \"#utility.yul\":2258:2261   */\n      dup6\n        /* \"#utility.yul\":2254:2268   */\n      add\n        /* \"#utility.yul\":2240:2252   */\n      dup3\n        /* \"#utility.yul\":2206:2269   */\n      tag_430\n      jump\t// in\n    tag_525:\n        /* \"#utility.yul\":2117:2279   */\n      pop\n        /* \"#utility.yul\":2361:2365   */\n      0x20\n        /* \"#utility.yul\":2354:2359   */\n      dup3\n        /* \"#utility.yul\":2350:2366   */\n      add\n        /* \"#utility.yul\":2344:2367   */\n      mload\n        /* \"#utility.yul\":2380:2443   */\n      tag_526\n        /* \"#utility.yul\":2437:2441   */\n      0x20\n        /* \"#utility.yul\":2432:2435   */\n      dup6\n        /* \"#utility.yul\":2428:2442   */\n      add\n        /* \"#utility.yul\":2414:2426   */\n      dup3\n        /* \"#utility.yul\":2380:2443   */\n      tag_433\n      jump\t// in\n    tag_526:\n        /* \"#utility.yul\":2289:2453   */\n      pop\n        /* \"#utility.yul\":2536:2540   */\n      0x40\n        /* \"#utility.yul\":2529:2534   */\n      dup3\n        /* \"#utility.yul\":2525:2541   */\n      add\n        /* \"#utility.yul\":2519:2542   */\n      mload\n        /* \"#utility.yul\":2555:2612   */\n      tag_527\n        /* \"#utility.yul\":2606:2610   */\n      0x40\n        /* \"#utility.yul\":2601:2604   */\n      dup6\n        /* \"#utility.yul\":2597:2611   */\n      add\n        /* \"#utility.yul\":2583:2595   */\n      dup3\n        /* \"#utility.yul\":2555:2612   */\n      tag_435\n      jump\t// in\n    tag_527:\n        /* \"#utility.yul\":2463:2622   */\n      pop\n        /* \"#utility.yul\":2702:2706   */\n      0x60\n        /* \"#utility.yul\":2695:2700   */\n      dup3\n        /* \"#utility.yul\":2691:2707   */\n      add\n        /* \"#utility.yul\":2685:2708   */\n      mload\n        /* \"#utility.yul\":2721:2784   */\n      tag_528\n        /* \"#utility.yul\":2778:2782   */\n      0x60\n        /* \"#utility.yul\":2773:2776   */\n      dup6\n        /* \"#utility.yul\":2769:2783   */\n      add\n        /* \"#utility.yul\":2755:2767   */\n      dup3\n        /* \"#utility.yul\":2721:2784   */\n      tag_436\n      jump\t// in\n    tag_528:\n        /* \"#utility.yul\":2632:2794   */\n      pop\n        /* \"#utility.yul\":2071:2801   */\n      pop\n        /* \"#utility.yul\":1945:2801   */\n      pop\n      pop\n      jump\t// out\n        /* \"#utility.yul\":2807:3126   */\n    tag_438:\n        /* \"#utility.yul\":2946:2956   */\n      0x00\n        /* \"#utility.yul\":2967:3083   */\n      tag_530\n        /* \"#utility.yul\":3079:3082   */\n      dup4\n        /* \"#utility.yul\":3071:3077   */\n      dup4\n        /* \"#utility.yul\":2967:3083   */\n      tag_437\n      jump\t// in\n    tag_530:\n        /* \"#utility.yul\":3115:3119   */\n      0x80\n        /* \"#utility.yul\":3110:3113   */\n      dup4\n        /* \"#utility.yul\":3106:3120   */\n      add\n        /* \"#utility.yul\":3092:3120   */\n      swap1\n      pop\n        /* \"#utility.yul\":2807:3126   */\n      swap3\n      swap2\n      pop\n      pop\n      jump\t// out\n        /* \"#utility.yul\":3132:3280   */\n    tag_439:\n        /* \"#utility.yul\":3237:3241   */\n      0x00\n        /* \"#utility.yul\":3269:3273   */\n      0x20\n        /* \"#utility.yul\":3264:3267   */\n      dup3\n        /* \"#utility.yul\":3260:3274   */\n      add\n        /* \"#utility.yul\":3252:3274   */\n      swap1\n      pop\n        /* \"#utility.yul\":3132:3280   */\n      swap2\n      swap1\n      pop\n      jump\t// out\n        /* \"#utility.yul\":3380:4392   */\n    tag_440:\n        /* \"#utility.yul\":3569:3572   */\n      0x00\n        /* \"#utility.yul\":3598:3687   */\n      tag_533\n        /* \"#utility.yul\":3681:3686   */\n      dup3\n        /* \"#utility.yul\":3598:3687   */\n      tag_426\n      jump\t// in\n    tag_533:\n        /* \"#utility.yul\":3703:3824   */\n      tag_534\n        /* \"#utility.yul\":3817:3823   */\n      dup2\n        /* \"#utility.yul\":3812:3815   */\n      dup6\n        /* \"#utility.yul\":3703:3824   */\n      tag_427\n      jump\t// in\n    tag_534:\n        /* \"#utility.yul\":3696:3824   */\n      swap4\n      pop\n        /* \"#utility.yul\":3848:3939   */\n      tag_535\n        /* \"#utility.yul\":3933:3938   */\n      dup4\n        /* \"#utility.yul\":3848:3939   */\n      tag_428\n      jump\t// in\n    tag_535:\n        /* \"#utility.yul\":3962:3969   */\n      dup1\n        /* \"#utility.yul\":3993:3994   */\n      0x00\n        /* \"#utility.yul\":3978:4367   */\n    tag_536:\n        /* \"#utility.yul\":4003:4009   */\n      dup4\n        /* \"#utility.yul\":4000:4001   */\n      dup2\n        /* \"#utility.yul\":3997:4010   */\n      lt\n        /* \"#utility.yul\":3978:4367   */\n      iszero\n      tag_538\n      jumpi\n        /* \"#utility.yul\":4079:4085   */\n      dup2\n        /* \"#utility.yul\":4073:4086   */\n      mload\n        /* \"#utility.yul\":4106:4239   */\n      tag_539\n        /* \"#utility.yul\":4235:4238   */\n      dup9\n        /* \"#utility.yul\":4220:4233   */\n      dup3\n        /* \"#utility.yul\":4106:4239   */\n      tag_438\n      jump\t// in\n    tag_539:\n        /* \"#utility.yul\":4099:4239   */\n      swap8\n      pop\n        /* \"#utility.yul\":4262:4357   */\n      tag_540\n        /* \"#utility.yul\":4350:4356   */\n      dup4\n        /* \"#utility.yul\":4262:4357   */\n      tag_439\n      jump\t// in\n    tag_540:\n        /* \"#utility.yul\":4252:4357   */\n      swap3\n      pop\n        /* \"#utility.yul\":4038:4367   */\n      pop\n        /* \"#utility.yul\":4025:4026   */\n      0x01\n        /* \"#utility.yul\":4022:4023   */\n      dup2\n        /* \"#utility.yul\":4018:4027   */\n      add\n        /* \"#utility.yul\":4013:4027   */\n      swap1\n      pop\n        /* \"#utility.yul\":3978:4367   */\n      jump(tag_536)\n    tag_538:\n        /* \"#utility.yul\":3982:3996   */\n      pop\n        /* \"#utility.yul\":4383:4386   */\n      dup6\n        /* \"#utility.yul\":4376:4386   */\n      swap4\n      pop\n        /* \"#utility.yul\":3574:4392   */\n      pop\n      pop\n      pop\n        /* \"#utility.yul\":3380:4392   */\n      swap3\n      swap2\n      pop\n      pop\n      jump\t// out\n        /* \"#utility.yul\":4398:4911   */\n    tag_40:\n        /* \"#utility.yul\":4611:4615   */\n      0x00\n        /* \"#utility.yul\":4649:4651   */\n      0x20\n        /* \"#utility.yul\":4638:4647   */\n      dup3\n        /* \"#utility.yul\":4634:4652   */\n      add\n        /* \"#utility.yul\":4626:4652   */\n      swap1\n      pop\n        /* \"#utility.yul\":4698:4707   */\n      dup2\n        /* \"#utility.yul\":4692:4696   */\n      dup2\n        /* \"#utility.yul\":4688:4708   */\n      sub\n        /* \"#utility.yul\":4684:4685   */\n      0x00\n        /* \"#utility.yul\":4673:4682   */\n      dup4\n        /* \"#utility.yul\":4669:4686   */\n      add\n        /* \"#utility.yul\":4662:4709   */\n      mstore\n        /* \"#utility.yul\":4726:4904   */\n      tag_542\n        /* \"#utility.yul\":4899:4903   */\n      dup2\n        /* \"#utility.yul\":4890:4896   */\n      dup5\n        /* \"#utility.yul\":4726:4904   */\n      tag_440\n      jump\t// in\n    tag_542:\n        /* \"#utility.yul\":4718:4904   */\n      swap1\n      pop\n        /* \"#utility.yul\":4398:4911   */\n      swap3\n      swap2\n      pop\n      pop\n      jump\t// out\n        /* \"#utility.yul\":4917:4992   */\n    tag_441:\n        /* \"#utility.yul\":4950:4956   */\n      0x00\n        /* \"#utility.yul\":4983:4985   */\n      0x40\n        /* \"#utility.yul\":4977:4986   */\n      mload\n        /* \"#utility.yul\":4967:4986   */\n      swap1\n      pop\n        /* \"#utility.yul\":4917:4992   */\n      swap1\n      jump\t// out\n        /* \"#utility.yul\":4998:5115   */\n    tag_442:\n        /* \"#utility.yul\":5107:5108   */\n      0x00\n        /* \"#utility.yul\":5104:5105   */\n      dup1\n        /* \"#utility.yul\":5097:5109   */\n      revert\n        /* \"#utility.yul\":5121:5238   */\n    tag_443:\n        /* \"#utility.yul\":5230:5231   */\n      0x00\n        /* \"#utility.yul\":5227:5228   */\n      dup1\n        /* \"#utility.yul\":5220:5232   */\n      revert\n        /* \"#utility.yul\":5244:5366   */\n    tag_444:\n        /* \"#utility.yul\":5317:5341   */\n      tag_547\n        /* \"#utility.yul\":5335:5340   */\n      dup2\n        /* \"#utility.yul\":5317:5341   */\n      tag_429\n      jump\t// in\n    tag_547:\n        /* \"#utility.yul\":5310:5315   */\n      dup2\n        /* \"#utility.yul\":5307:5342   */\n      eq\n        /* \"#utility.yul\":5297:5360   */\n      tag_548\n      jumpi\n        /* \"#utility.yul\":5356:5357   */\n      0x00\n        /* \"#utility.yul\":5353:5354   */\n      dup1\n        /* \"#utility.yul\":5346:5358   */\n      revert\n        /* \"#utility.yul\":5297:5360   */\n    tag_548:\n        /* \"#utility.yul\":5244:5366   */\n      pop\n      jump\t// out\n        /* \"#utility.yul\":5372:5511   */\n    tag_445:\n        /* \"#utility.yul\":5418:5423   */\n      0x00\n        /* \"#utility.yul\":5456:5462   */\n      dup2\n        /* \"#utility.yul\":5443:5463   */\n      calldataload\n        /* \"#utility.yul\":5434:5463   */\n      swap1\n      pop\n        /* \"#utility.yul\":5472:5505   */\n      tag_550\n        /* \"#utility.yul\":5499:5504   */\n      dup2\n        /* \"#utility.yul\":5472:5505   */\n      tag_444\n      jump\t// in\n    tag_550:\n        /* \"#utility.yul\":5372:5511   */\n      swap3\n      swap2\n      pop\n      pop\n      jump\t// out\n        /* \"#utility.yul\":5517:5846   */\n    tag_47:\n        /* \"#utility.yul\":5576:5582   */\n      0x00\n        /* \"#utility.yul\":5625:5627   */\n      0x20\n        /* \"#utility.yul\":5613:5622   */\n      dup3\n        /* \"#utility.yul\":5604:5611   */\n      dup5\n        /* \"#utility.yul\":5600:5623   */\n      sub\n        /* \"#utility.yul\":5596:5628   */\n      slt\n        /* \"#utility.yul\":5593:5712   */\n      iszero\n      tag_552\n      jumpi\n        /* \"#utility.yul\":5631:5710   */\n      tag_553\n      tag_442\n      jump\t// in\n    tag_553:\n        /* \"#utility.yul\":5593:5712   */\n    tag_552:\n        /* \"#utility.yul\":5751:5752   */\n      0x00\n        /* \"#utility.yul\":5776:5829   */\n      tag_554\n        /* \"#utility.yul\":5821:5828   */\n      dup5\n        /* \"#utility.yul\":5812:5818   */\n      dup3\n        /* \"#utility.yul\":5801:5810   */\n      dup6\n        /* \"#utility.yul\":5797:5819   */\n      add\n        /* \"#utility.yul\":5776:5829   */\n      tag_445\n      jump\t// in\n    tag_554:\n        /* \"#utility.yul\":5766:5829   */\n      swap2\n      pop\n        /* \"#utility.yul\":5722:5839   */\n      pop\n        /* \"#utility.yul\":5517:5846   */\n      swap3\n      swap2\n      pop\n      pop\n      jump\t// out\n        /* \"#utility.yul\":5852:5998   */\n    tag_446:\n        /* \"#utility.yul\":5951:5957   */\n      0x00\n        /* \"#utility.yul\":5985:5990   */\n      dup2\n        /* \"#utility.yul\":5979:5991   */\n      mload\n        /* \"#utility.yul\":5969:5991   */\n      swap1\n      pop\n        /* \"#utility.yul\":5852:5998   */\n      swap2\n      swap1\n      pop\n      jump\t// out\n        /* \"#utility.yul\":6004:6220   */\n    tag_447:\n        /* \"#utility.yul\":6135:6146   */\n      0x00\n        /* \"#utility.yul\":6169:6175   */\n      dup3\n        /* \"#utility.yul\":6164:6167   */\n      dup3\n        /* \"#utility.yul\":6157:6176   */\n      mstore\n        /* \"#utility.yul\":6209:6213   */\n      0x20\n        /* \"#utility.yul\":6204:6207   */\n      dup3\n        /* \"#utility.yul\":6200:6214   */\n      add\n        /* \"#utility.yul\":6185:6214   */\n      swap1\n      pop\n        /* \"#utility.yul\":6004:6220   */\n      swap3\n      swap2\n      pop\n      pop\n      jump\t// out\n        /* \"#utility.yul\":6226:6390   */\n    tag_448:\n        /* \"#utility.yul\":6325:6329   */\n      0x00\n        /* \"#utility.yul\":6348:6351   */\n      dup2\n        /* \"#utility.yul\":6340:6351   */\n      swap1\n      pop\n        /* \"#utility.yul\":6378:6382   */\n      0x20\n        /* \"#utility.yul\":6373:6376   */\n      dup3\n        /* \"#utility.yul\":6369:6383   */\n      add\n        /* \"#utility.yul\":6361:6383   */\n      swap1\n      pop\n        /* \"#utility.yul\":6226:6390   */\n      swap2\n      swap1\n      pop\n      jump\t// out\n        /* \"#utility.yul\":6480:7692   */\n    tag_449:\n        /* \"#utility.yul\":6631:6635   */\n      0xc0\n        /* \"#utility.yul\":6626:6629   */\n      dup3\n        /* \"#utility.yul\":6622:6636   */\n      add\n        /* \"#utility.yul\":6721:6725   */\n      0x00\n        /* \"#utility.yul\":6714:6719   */\n      dup3\n        /* \"#utility.yul\":6710:6726   */\n      add\n        /* \"#utility.yul\":6704:6727   */\n      mload\n        /* \"#utility.yul\":6740:6803   */\n      tag_559\n        /* \"#utility.yul\":6797:6801   */\n      0x00\n        /* \"#utility.yul\":6792:6795   */\n      dup6\n        /* \"#utility.yul\":6788:6802   */\n      add\n        /* \"#utility.yul\":6774:6786   */\n      dup3\n        /* \"#utility.yul\":6740:6803   */\n      tag_433\n      jump\t// in\n    tag_559:\n        /* \"#utility.yul\":6646:6813   */\n      pop\n        /* \"#utility.yul\":6898:6902   */\n      0x20\n        /* \"#utility.yul\":6891:6896   */\n      dup3\n        /* \"#utility.yul\":6887:6903   */\n      add\n        /* \"#utility.yul\":6881:6904   */\n      mload\n        /* \"#utility.yul\":6917:6980   */\n      tag_560\n        /* \"#utility.yul\":6974:6978   */\n      0x20\n        /* \"#utility.yul\":6969:6972   */\n      dup6\n        /* \"#utility.yul\":6965:6979   */\n      add\n        /* \"#utility.yul\":6951:6963   */\n      dup3\n        /* \"#utility.yul\":6917:6980   */\n      tag_430\n      jump\t// in\n    tag_560:\n        /* \"#utility.yul\":6823:6990   */\n      pop\n        /* \"#utility.yul\":7073:7077   */\n      0x40\n        /* \"#utility.yul\":7066:7071   */\n      dup3\n        /* \"#utility.yul\":7062:7078   */\n      add\n        /* \"#utility.yul\":7056:7079   */\n      mload\n        /* \"#utility.yul\":7092:7155   */\n      tag_561\n        /* \"#utility.yul\":7149:7153   */\n      0x40\n        /* \"#utility.yul\":7144:7147   */\n      dup6\n        /* \"#utility.yul\":7140:7154   */\n      add\n        /* \"#utility.yul\":7126:7138   */\n      dup3\n        /* \"#utility.yul\":7092:7155   */\n      tag_430\n      jump\t// in\n    tag_561:\n        /* \"#utility.yul\":7000:7165   */\n      pop\n        /* \"#utility.yul\":7249:7253   */\n      0x60\n        /* \"#utility.yul\":7242:7247   */\n      dup3\n        /* \"#utility.yul\":7238:7254   */\n      add\n        /* \"#utility.yul\":7232:7255   */\n      mload\n        /* \"#utility.yul\":7268:7331   */\n      tag_562\n        /* \"#utility.yul\":7325:7329   */\n      0x60\n        /* \"#utility.yul\":7320:7323   */\n      dup6\n        /* \"#utility.yul\":7316:7330   */\n      add\n        /* \"#utility.yul\":7302:7314   */\n      dup3\n        /* \"#utility.yul\":7268:7331   */\n      tag_436\n      jump\t// in\n    tag_562:\n        /* \"#utility.yul\":7175:7341   */\n      pop\n        /* \"#utility.yul\":7421:7425   */\n      0x80\n        /* \"#utility.yul\":7414:7419   */\n      dup3\n        /* \"#utility.yul\":7410:7426   */\n      add\n        /* \"#utility.yul\":7404:7427   */\n      mload\n        /* \"#utility.yul\":7440:7503   */\n      tag_563\n        /* \"#utility.yul\":7497:7501   */\n      0x80\n        /* \"#utility.yul\":7492:7495   */\n      dup6\n        /* \"#utility.yul\":7488:7502   */\n      add\n        /* \"#utility.yul\":7474:7486   */\n      dup3\n        /* \"#utility.yul\":7440:7503   */\n      tag_433\n      jump\t// in\n    tag_563:\n        /* \"#utility.yul\":7351:7513   */\n      pop\n        /* \"#utility.yul\":7593:7597   */\n      0xa0\n        /* \"#utility.yul\":7586:7591   */\n      dup3\n        /* \"#utility.yul\":7582:7598   */\n      add\n        /* \"#utility.yul\":7576:7599   */\n      mload\n        /* \"#utility.yul\":7612:7675   */\n      tag_564\n        /* \"#utility.yul\":7669:7673   */\n      0xa0\n        /* \"#utility.yul\":7664:7667   */\n      dup6\n        /* \"#utility.yul\":7660:7674   */\n      add\n        /* \"#utility.yul\":7646:7658   */\n      dup3\n        /* \"#utility.yul\":7612:7675   */\n      tag_436\n      jump\t// in\n    tag_564:\n        /* \"#utility.yul\":7523:7685   */\n      pop\n        /* \"#utility.yul\":6600:7692   */\n      pop\n        /* \"#utility.yul\":6480:7692   */\n      pop\n      pop\n      jump\t// out\n        /* \"#utility.yul\":7698:8005   */\n    tag_450:\n        /* \"#utility.yul\":7831:7841   */\n      0x00\n        /* \"#utility.yul\":7852:7962   */\n      tag_566\n        /* \"#utility.yul\":7958:7961   */\n      dup4\n        /* \"#utility.yul\":7950:7956   */\n      dup4\n        /* \"#utility.yul\":7852:7962   */\n      tag_449\n      jump\t// in\n    tag_566:\n        /* \"#utility.yul\":7994:7998   */\n      0xc0\n        /* \"#utility.yul\":7989:7992   */\n      dup4\n        /* \"#utility.yul\":7985:7999   */\n      add\n        /* \"#utility.yul\":7971:7999   */\n      swap1\n      pop\n        /* \"#utility.yul\":7698:8005   */\n      swap3\n      swap2\n      pop\n      pop\n      jump\t// out\n        /* \"#utility.yul\":8011:8156   */\n    tag_451:\n        /* \"#utility.yul\":8113:8117   */\n      0x00\n        /* \"#utility.yul\":8145:8149   */\n      0x20\n        /* \"#utility.yul\":8140:8143   */\n      dup3\n        /* \"#utility.yul\":8136:8150   */\n      add\n        /* \"#utility.yul\":8128:8150   */\n      swap1\n      pop\n        /* \"#utility.yul\":8011:8156   */\n      swap2\n      swap1\n      pop\n      jump\t// out\n        /* \"#utility.yul\":8250:9238   */\n    tag_452:\n        /* \"#utility.yul\":8433:8436   */\n      0x00\n        /* \"#utility.yul\":8462:8548   */\n      tag_569\n        /* \"#utility.yul\":8542:8547   */\n      dup3\n        /* \"#utility.yul\":8462:8548   */\n      tag_446\n      jump\t// in\n    tag_569:\n        /* \"#utility.yul\":8564:8682   */\n      tag_570\n        /* \"#utility.yul\":8675:8681   */\n      dup2\n        /* \"#utility.yul\":8670:8673   */\n      dup6\n        /* \"#utility.yul\":8564:8682   */\n      tag_447\n      jump\t// in\n    tag_570:\n        /* \"#utility.yul\":8557:8682   */\n      swap4\n      pop\n        /* \"#utility.yul\":8706:8794   */\n      tag_571\n        /* \"#utility.yul\":8788:8793   */\n      dup4\n        /* \"#utility.yul\":8706:8794   */\n      tag_448\n      jump\t// in\n    tag_571:\n        /* \"#utility.yul\":8817:8824   */\n      dup1\n        /* \"#utility.yul\":8848:8849   */\n      0x00\n        /* \"#utility.yul\":8833:9213   */\n    tag_572:\n        /* \"#utility.yul\":8858:8864   */\n      dup4\n        /* \"#utility.yul\":8855:8856   */\n      dup2\n        /* \"#utility.yul\":8852:8865   */\n      lt\n        /* \"#utility.yul\":8833:9213   */\n      iszero\n      tag_574\n      jumpi\n        /* \"#utility.yul\":8934:8940   */\n      dup2\n        /* \"#utility.yul\":8928:8941   */\n      mload\n        /* \"#utility.yul\":8961:9088   */\n      tag_575\n        /* \"#utility.yul\":9084:9087   */\n      dup9\n        /* \"#utility.yul\":9069:9082   */\n      dup3\n        /* \"#utility.yul\":8961:9088   */\n      tag_450\n      jump\t// in\n    tag_575:\n        /* \"#utility.yul\":8954:9088   */\n      swap8\n      pop\n        /* \"#utility.yul\":9111:9203   */\n      tag_576\n        /* \"#utility.yul\":9196:9202   */\n      dup4\n        /* \"#utility.yul\":9111:9203   */\n      tag_451\n      jump\t// in\n    tag_576:\n        /* \"#utility.yul\":9101:9203   */\n      swap3\n      pop\n        /* \"#utility.yul\":8893:9213   */\n      pop\n        /* \"#utility.yul\":8880:8881   */\n      0x01\n        /* \"#utility.yul\":8877:8878   */\n      dup2\n        /* \"#utility.yul\":8873:8882   */\n      add\n        /* \"#utility.yul\":8868:8882   */\n      swap1\n      pop\n        /* \"#utility.yul\":8833:9213   */\n      jump(tag_572)\n    tag_574:\n        /* \"#utility.yul\":8837:8851   */\n      pop\n        /* \"#utility.yul\":9229:9232   */\n      dup6\n        /* \"#utility.yul\":9222:9232   */\n      swap4\n      pop\n        /* \"#utility.yul\":8438:9238   */\n      pop\n      pop\n      pop\n        /* \"#utility.yul\":8250:9238   */\n      swap3\n      swap2\n      pop\n      pop\n      jump\t// out\n        /* \"#utility.yul\":9244:9745   */\n    tag_50:\n        /* \"#utility.yul\":9451:9455   */\n      0x00\n        /* \"#utility.yul\":9489:9491   */\n      0x20\n        /* \"#utility.yul\":9478:9487   */\n      dup3\n        /* \"#utility.yul\":9474:9492   */\n      add\n        /* \"#utility.yul\":9466:9492   */\n      swap1\n      pop\n        /* \"#utility.yul\":9538:9547   */\n      dup2\n        /* \"#utility.yul\":9532:9536   */\n      dup2\n        /* \"#utility.yul\":9528:9548   */\n      sub\n        /* \"#utility.yul\":9524:9525   */\n      0x00\n        /* \"#utility.yul\":9513:9522   */\n      dup4\n        /* \"#utility.yul\":9509:9526   */\n      add\n        /* \"#utility.yul\":9502:9549   */\n      mstore\n        /* \"#utility.yul\":9566:9738   */\n      tag_578\n        /* \"#utility.yul\":9733:9737   */\n      dup2\n        /* \"#utility.yul\":9724:9730   */\n      dup5\n        /* \"#utility.yul\":9566:9738   */\n      tag_452\n      jump\t// in\n    tag_578:\n        /* \"#utility.yul\":9558:9738   */\n      swap1\n      pop\n        /* \"#utility.yul\":9244:9745   */\n      swap3\n      swap2\n      pop\n      pop\n      jump\t// out\n        /* \"#utility.yul\":9751:9873   */\n    tag_453:\n        /* \"#utility.yul\":9824:9848   */\n      tag_580\n        /* \"#utility.yul\":9842:9847   */\n      dup2\n        /* \"#utility.yul\":9824:9848   */\n      tag_432\n      jump\t// in\n    tag_580:\n        /* \"#utility.yul\":9817:9822   */\n      dup2\n        /* \"#utility.yul\":9814:9849   */\n      eq\n        /* \"#utility.yul\":9804:9867   */\n      tag_581\n      jumpi\n        /* \"#utility.yul\":9863:9864   */\n      0x00\n        /* \"#utility.yul\":9860:9861   */\n      dup1\n        /* \"#utility.yul\":9853:9865   */\n      revert\n        /* \"#utility.yul\":9804:9867   */\n    tag_581:\n        /* \"#utility.yul\":9751:9873   */\n      pop\n      jump\t// out\n        /* \"#utility.yul\":9879:10018   */\n    tag_454:\n        /* \"#utility.yul\":9925:9930   */\n      0x00\n        /* \"#utility.yul\":9963:9969   */\n      dup2\n        /* \"#utility.yul\":9950:9970   */\n      calldataload\n        /* \"#utility.yul\":9941:9970   */\n      swap1\n      pop\n        /* \"#utility.yul\":9979:10012   */\n      tag_583\n        /* \"#utility.yul\":10006:10011   */\n      dup2\n        /* \"#utility.yul\":9979:10012   */\n      tag_453\n      jump\t// in\n    tag_583:\n        /* \"#utility.yul\":9879:10018   */\n      swap3\n      swap2\n      pop\n      pop\n      jump\t// out\n        /* \"#utility.yul\":10024:10353   */\n    tag_57:\n        /* \"#utility.yul\":10083:10089   */\n      0x00\n        /* \"#utility.yul\":10132:10134   */\n      0x20\n        /* \"#utility.yul\":10120:10129   */\n      dup3\n        /* \"#utility.yul\":10111:10118   */\n      dup5\n        /* \"#utility.yul\":10107:10130   */\n      sub\n        /* \"#utility.yul\":10103:10135   */\n      slt\n        /* \"#utility.yul\":10100:10219   */\n      iszero\n      tag_585\n      jumpi\n        /* \"#utility.yul\":10138:10217   */\n      tag_586\n      tag_442\n      jump\t// in\n    tag_586:\n        /* \"#utility.yul\":10100:10219   */\n    tag_585:\n        /* \"#utility.yul\":10258:10259   */\n      0x00\n        /* \"#utility.yul\":10283:10336   */\n      tag_587\n        /* \"#utility.yul\":10328:10335   */\n      dup5\n        /* \"#utility.yul\":10319:10325   */\n      dup3\n        /* \"#utility.yul\":10308:10317   */\n      dup6\n        /* \"#utility.yul\":10304:10326   */\n      add\n        /* \"#utility.yul\":10283:10336   */\n      tag_454\n      jump\t// in\n    tag_587:\n        /* \"#utility.yul\":10273:10336   */\n      swap2\n      pop\n        /* \"#utility.yul\":10229:10346   */\n      pop\n        /* \"#utility.yul\":10024:10353   */\n      swap3\n      swap2\n      pop\n      pop\n      jump\t// out\n        /* \"#utility.yul\":10359:10445   */\n    tag_455:\n        /* \"#utility.yul\":10394:10401   */\n      0x00\n        /* \"#utility.yul\":10434:10438   */\n      0xff\n        /* \"#utility.yul\":10427:10432   */\n      dup3\n        /* \"#utility.yul\":10423:10439   */\n      and\n        /* \"#utility.yul\":10412:10439   */\n      swap1\n      pop\n        /* \"#utility.yul\":10359:10445   */\n      swap2\n      swap1\n      pop\n      jump\t// out\n        /* \"#utility.yul\":10451:10569   */\n    tag_456:\n        /* \"#utility.yul\":10522:10544   */\n      tag_590\n        /* \"#utility.yul\":10538:10543   */\n      dup2\n        /* \"#utility.yul\":10522:10544   */\n      tag_455\n      jump\t// in\n    tag_590:\n        /* \"#utility.yul\":10515:10520   */\n      dup2\n        /* \"#utility.yul\":10512:10545   */\n      eq\n        /* \"#utility.yul\":10502:10563   */\n      tag_591\n      jumpi\n        /* \"#utility.yul\":10559:10560   */\n      0x00\n        /* \"#utility.yul\":10556:10557   */\n      dup1\n        /* \"#utility.yul\":10549:10561   */\n      revert\n        /* \"#utility.yul\":10502:10563   */\n    tag_591:\n        /* \"#utility.yul\":10451:10569   */\n      pop\n      jump\t// out\n        /* \"#utility.yul\":10575:10710   */\n    tag_457:\n        /* \"#utility.yul\":10619:10624   */\n      0x00\n        /* \"#utility.yul\":10657:10663   */\n      dup2\n        /* \"#utility.yul\":10644:10664   */\n      calldataload\n        /* \"#utility.yul\":10635:10664   */\n      swap1\n      pop\n        /* \"#utility.yul\":10673:10704   */\n      tag_593\n        /* \"#utility.yul\":10698:10703   */\n      dup2\n        /* \"#utility.yul\":10673:10704   */\n      tag_456\n      jump\t// in\n    tag_593:\n        /* \"#utility.yul\":10575:10710   */\n      swap3\n      swap2\n      pop\n      pop\n      jump\t// out\n        /* \"#utility.yul\":10716:11041   */\n    tag_67:\n        /* \"#utility.yul\":10773:10779   */\n      0x00\n        /* \"#utility.yul\":10822:10824   */\n      0x20\n        /* \"#utility.yul\":10810:10819   */\n      dup3\n        /* \"#utility.yul\":10801:10808   */\n      dup5\n        /* \"#utility.yul\":10797:10820   */\n      sub\n        /* \"#utility.yul\":10793:10825   */\n      slt\n        /* \"#utility.yul\":10790:10909   */\n      iszero\n      tag_595\n      jumpi\n        /* \"#utility.yul\":10828:10907   */\n      tag_596\n      tag_442\n      jump\t// in\n    tag_596:\n        /* \"#utility.yul\":10790:10909   */\n    tag_595:\n        /* \"#utility.yul\":10948:10949   */\n      0x00\n        /* \"#utility.yul\":10973:11024   */\n      tag_597\n        /* \"#utility.yul\":11016:11023   */\n      dup5\n        /* \"#utility.yul\":11007:11013   */\n      dup3\n        /* \"#utility.yul\":10996:11005   */\n      dup6\n        /* \"#utility.yul\":10992:11014   */\n      add\n        /* \"#utility.yul\":10973:11024   */\n      tag_457\n      jump\t// in\n    tag_597:\n        /* \"#utility.yul\":10963:11024   */\n      swap2\n      pop\n        /* \"#utility.yul\":10919:11034   */\n      pop\n        /* \"#utility.yul\":10716:11041   */\n      swap3\n      swap2\n      pop\n      pop\n      jump\t// out\n        /* \"#utility.yul\":11047:11156   */\n    tag_458:\n        /* \"#utility.yul\":11128:11149   */\n      tag_599\n        /* \"#utility.yul\":11143:11148   */\n      dup2\n        /* \"#utility.yul\":11128:11149   */\n      tag_434\n      jump\t// in\n    tag_599:\n        /* \"#utility.yul\":11123:11126   */\n      dup3\n        /* \"#utility.yul\":11116:11150   */\n      mstore\n        /* \"#utility.yul\":11047:11156   */\n      pop\n      pop\n      jump\t// out\n        /* \"#utility.yul\":11162:11372   */\n    tag_70:\n        /* \"#utility.yul\":11249:11253   */\n      0x00\n        /* \"#utility.yul\":11287:11289   */\n      0x20\n        /* \"#utility.yul\":11276:11285   */\n      dup3\n        /* \"#utility.yul\":11272:11290   */\n      add\n        /* \"#utility.yul\":11264:11290   */\n      swap1\n      pop\n        /* \"#utility.yul\":11300:11365   */\n      tag_601\n        /* \"#utility.yul\":11362:11363   */\n      0x00\n        /* \"#utility.yul\":11351:11360   */\n      dup4\n        /* \"#utility.yul\":11347:11364   */\n      add\n        /* \"#utility.yul\":11338:11344   */\n      dup5\n        /* \"#utility.yul\":11300:11365   */\n      tag_458\n      jump\t// in\n    tag_601:\n        /* \"#utility.yul\":11162:11372   */\n      swap3\n      swap2\n      pop\n      pop\n      jump\t// out\n        /* \"#utility.yul\":11378:11482   */\n    tag_459:\n        /* \"#utility.yul\":11423:11430   */\n      0x00\n        /* \"#utility.yul\":11452:11476   */\n      tag_603\n        /* \"#utility.yul\":11470:11475   */\n      dup3\n        /* \"#utility.yul\":11452:11476   */\n      tag_431\n      jump\t// in\n    tag_603:\n        /* \"#utility.yul\":11441:11476   */\n      swap1\n      pop\n        /* \"#utility.yul\":11378:11482   */\n      swap2\n      swap1\n      pop\n      jump\t// out\n        /* \"#utility.yul\":11488:11626   */\n    tag_460:\n        /* \"#utility.yul\":11569:11601   */\n      tag_605\n        /* \"#utility.yul\":11595:11600   */\n      dup2\n        /* \"#utility.yul\":11569:11601   */\n      tag_459\n      jump\t// in\n    tag_605:\n        /* \"#utility.yul\":11562:11567   */\n      dup2\n        /* \"#utility.yul\":11559:11602   */\n      eq\n        /* \"#utility.yul\":11549:11620   */\n      tag_606\n      jumpi\n        /* \"#utility.yul\":11616:11617   */\n      0x00\n        /* \"#utility.yul\":11613:11614   */\n      dup1\n        /* \"#utility.yul\":11606:11618   */\n      revert\n        /* \"#utility.yul\":11549:11620   */\n    tag_606:\n        /* \"#utility.yul\":11488:11626   */\n      pop\n      jump\t// out\n        /* \"#utility.yul\":11632:11787   */\n    tag_461:\n        /* \"#utility.yul\":11686:11691   */\n      0x00\n        /* \"#utility.yul\":11724:11730   */\n      dup2\n        /* \"#utility.yul\":11711:11731   */\n      calldataload\n        /* \"#utility.yul\":11702:11731   */\n      swap1\n      pop\n        /* \"#utility.yul\":11740:11781   */\n      tag_608\n        /* \"#utility.yul\":11775:11780   */\n      dup2\n        /* \"#utility.yul\":11740:11781   */\n      tag_460\n      jump\t// in\n    tag_608:\n        /* \"#utility.yul\":11632:11787   */\n      swap3\n      swap2\n      pop\n      pop\n      jump\t// out\n        /* \"#utility.yul\":11793:11915   */\n    tag_462:\n        /* \"#utility.yul\":11866:11890   */\n      tag_610\n        /* \"#utility.yul\":11884:11889   */\n      dup2\n        /* \"#utility.yul\":11866:11890   */\n      tag_424\n      jump\t// in\n    tag_610:\n        /* \"#utility.yul\":11859:11864   */\n      dup2\n        /* \"#utility.yul\":11856:11891   */\n      eq\n        /* \"#utility.yul\":11846:11909   */\n      tag_611\n      jumpi\n        /* \"#utility.yul\":11905:11906   */\n      0x00\n        /* \"#utility.yul\":11902:11903   */\n      dup1\n        /* \"#utility.yul\":11895:11907   */\n      revert\n        /* \"#utility.yul\":11846:11909   */\n    tag_611:\n        /* \"#utility.yul\":11793:11915   */\n      pop\n      jump\t// out\n        /* \"#utility.yul\":11921:12060   */\n    tag_463:\n        /* \"#utility.yul\":11967:11972   */\n      0x00\n        /* \"#utility.yul\":12005:12011   */\n      dup2\n        /* \"#utility.yul\":11992:12012   */\n      calldataload\n        /* \"#utility.yul\":11983:12012   */\n      swap1\n      pop\n        /* \"#utility.yul\":12021:12054   */\n      tag_613\n        /* \"#utility.yul\":12048:12053   */\n      dup2\n        /* \"#utility.yul\":12021:12054   */\n      tag_462\n      jump\t// in\n    tag_613:\n        /* \"#utility.yul\":11921:12060   */\n      swap3\n      swap2\n      pop\n      pop\n      jump\t// out\n        /* \"#utility.yul\":12066:12556   */\n    tag_74:\n        /* \"#utility.yul\":12142:12148   */\n      0x00\n        /* \"#utility.yul\":12150:12156   */\n      dup1\n        /* \"#utility.yul\":12199:12201   */\n      0x40\n        /* \"#utility.yul\":12187:12196   */\n      dup4\n        /* \"#utility.yul\":12178:12185   */\n      dup6\n        /* \"#utility.yul\":12174:12197   */\n      sub\n        /* \"#utility.yul\":12170:12202   */\n      slt\n        /* \"#utility.yul\":12167:12286   */\n      iszero\n      tag_615\n      jumpi\n        /* \"#utility.yul\":12205:12284   */\n      tag_616\n      tag_442\n      jump\t// in\n    tag_616:\n        /* \"#utility.yul\":12167:12286   */\n    tag_615:\n        /* \"#utility.yul\":12325:12326   */\n      0x00\n        /* \"#utility.yul\":12350:12411   */\n      tag_617\n        /* \"#utility.yul\":12403:12410   */\n      dup6\n        /* \"#utility.yul\":12394:12400   */\n      dup3\n        /* \"#utility.yul\":12383:12392   */\n      dup7\n        /* \"#utility.yul\":12379:12401   */\n      add\n        /* \"#utility.yul\":12350:12411   */\n      tag_461\n      jump\t// in\n    tag_617:\n        /* \"#utility.yul\":12340:12411   */\n      swap3\n      pop\n        /* \"#utility.yul\":12296:12421   */\n      pop\n        /* \"#utility.yul\":12460:12462   */\n      0x20\n        /* \"#utility.yul\":12486:12539   */\n      tag_618\n        /* \"#utility.yul\":12531:12538   */\n      dup6\n        /* \"#utility.yul\":12522:12528   */\n      dup3\n        /* \"#utility.yul\":12511:12520   */\n      dup7\n        /* \"#utility.yul\":12507:12529   */\n      add\n        /* \"#utility.yul\":12486:12539   */\n      tag_463\n      jump\t// in\n    tag_618:\n        /* \"#utility.yul\":12476:12539   */\n      swap2\n      pop\n        /* \"#utility.yul\":12431:12549   */\n      pop\n        /* \"#utility.yul\":12066:12556   */\n      swap3\n      pop\n      swap3\n      swap1\n      pop\n      jump\t// out\n        /* \"#utility.yul\":12562:12705   */\n    tag_464:\n        /* \"#utility.yul\":12658:12664   */\n      0x00\n        /* \"#utility.yul\":12692:12697   */\n      dup2\n        /* \"#utility.yul\":12686:12698   */\n      mload\n        /* \"#utility.yul\":12676:12698   */\n      swap1\n      pop\n        /* \"#utility.yul\":12562:12705   */\n      swap2\n      swap1\n      pop\n      jump\t// out\n        /* \"#utility.yul\":12711:12924   */\n    tag_465:\n        /* \"#utility.yul\":12839:12850   */\n      0x00\n        /* \"#utility.yul\":12873:12879   */\n      dup3\n        /* \"#utility.yul\":12868:12871   */\n      dup3\n        /* \"#utility.yul\":12861:12880   */\n      mstore\n        /* \"#utility.yul\":12913:12917   */\n      0x20\n        /* \"#utility.yul\":12908:12911   */\n      dup3\n        /* \"#utility.yul\":12904:12918   */\n      add\n        /* \"#utility.yul\":12889:12918   */\n      swap1\n      pop\n        /* \"#utility.yul\":12711:12924   */\n      swap3\n      swap2\n      pop\n      pop\n      jump\t// out\n        /* \"#utility.yul\":12930:13091   */\n    tag_466:\n        /* \"#utility.yul\":13026:13030   */\n      0x00\n        /* \"#utility.yul\":13049:13052   */\n      dup2\n        /* \"#utility.yul\":13041:13052   */\n      swap1\n      pop\n        /* \"#utility.yul\":13079:13083   */\n      0x20\n        /* \"#utility.yul\":13074:13077   */\n      dup3\n        /* \"#utility.yul\":13070:13084   */\n      add\n        /* \"#utility.yul\":13062:13084   */\n      swap1\n      pop\n        /* \"#utility.yul\":12930:13091   */\n      swap2\n      swap1\n      pop\n      jump\t// out\n        /* \"#utility.yul\":13175:13847   */\n    tag_467:\n        /* \"#utility.yul\":13320:13324   */\n      0x60\n        /* \"#utility.yul\":13315:13318   */\n      dup3\n        /* \"#utility.yul\":13311:13325   */\n      add\n        /* \"#utility.yul\":13407:13411   */\n      0x00\n        /* \"#utility.yul\":13400:13405   */\n      dup3\n        /* \"#utility.yul\":13396:13412   */\n      add\n        /* \"#utility.yul\":13390:13413   */\n      mload\n        /* \"#utility.yul\":13426:13489   */\n      tag_623\n        /* \"#utility.yul\":13483:13487   */\n      0x00\n        /* \"#utility.yul\":13478:13481   */\n      dup6\n        /* \"#utility.yul\":13474:13488   */\n      add\n        /* \"#utility.yul\":13460:13472   */\n      dup3\n        /* \"#utility.yul\":13426:13489   */\n      tag_433\n      jump\t// in\n    tag_623:\n        /* \"#utility.yul\":13335:13499   */\n      pop\n        /* \"#utility.yul\":13582:13586   */\n      0x20\n        /* \"#utility.yul\":13575:13580   */\n      dup3\n        /* \"#utility.yul\":13571:13587   */\n      add\n        /* \"#utility.yul\":13565:13588   */\n      mload\n        /* \"#utility.yul\":13601:13658   */\n      tag_624\n        /* \"#utility.yul\":13652:13656   */\n      0x20\n        /* \"#utility.yul\":13647:13650   */\n      dup6\n        /* \"#utility.yul\":13643:13657   */\n      add\n        /* \"#utility.yul\":13629:13641   */\n      dup3\n        /* \"#utility.yul\":13601:13658   */\n      tag_435\n      jump\t// in\n    tag_624:\n        /* \"#utility.yul\":13509:13668   */\n      pop\n        /* \"#utility.yul\":13748:13752   */\n      0x40\n        /* \"#utility.yul\":13741:13746   */\n      dup3\n        /* \"#utility.yul\":13737:13753   */\n      add\n        /* \"#utility.yul\":13731:13754   */\n      mload\n        /* \"#utility.yul\":13767:13830   */\n      tag_625\n        /* \"#utility.yul\":13824:13828   */\n      0x40\n        /* \"#utility.yul\":13819:13822   */\n      dup6\n        /* \"#utility.yul\":13815:13829   */\n      add\n        /* \"#utility.yul\":13801:13813   */\n      dup3\n        /* \"#utility.yul\":13767:13830   */\n      tag_436\n      jump\t// in\n    tag_625:\n        /* \"#utility.yul\":13678:13840   */\n      pop\n        /* \"#utility.yul\":13289:13847   */\n      pop\n        /* \"#utility.yul\":13175:13847   */\n      pop\n      pop\n      jump\t// out\n        /* \"#utility.yul\":13853:14148   */\n    tag_468:\n        /* \"#utility.yul\":13980:13990   */\n      0x00\n        /* \"#utility.yul\":14001:14105   */\n      tag_627\n        /* \"#utility.yul\":14101:14104   */\n      dup4\n        /* \"#utility.yul\":14093:14099   */\n      dup4\n        /* \"#utility.yul\":14001:14105   */\n      tag_467\n      jump\t// in\n    tag_627:\n        /* \"#utility.yul\":14137:14141   */\n      0x60\n        /* \"#utility.yul\":14132:14135   */\n      dup4\n        /* \"#utility.yul\":14128:14142   */\n      add\n        /* \"#utility.yul\":14114:14142   */\n      swap1\n      pop\n        /* \"#utility.yul\":13853:14148   */\n      swap3\n      swap2\n      pop\n      pop\n      jump\t// out\n        /* \"#utility.yul\":14154:14296   */\n    tag_469:\n        /* \"#utility.yul\":14253:14257   */\n      0x00\n        /* \"#utility.yul\":14285:14289   */\n      0x20\n        /* \"#utility.yul\":14280:14283   */\n      dup3\n        /* \"#utility.yul\":14276:14290   */\n      add\n        /* \"#utility.yul\":14268:14290   */\n      swap1\n      pop\n        /* \"#utility.yul\":14154:14296   */\n      swap2\n      swap1\n      pop\n      jump\t// out\n        /* \"#utility.yul\":14384:15348   */\n    tag_470:\n        /* \"#utility.yul\":14561:14564   */\n      0x00\n        /* \"#utility.yul\":14590:14673   */\n      tag_630\n        /* \"#utility.yul\":14667:14672   */\n      dup3\n        /* \"#utility.yul\":14590:14673   */\n      tag_464\n      jump\t// in\n    tag_630:\n        /* \"#utility.yul\":14689:14804   */\n      tag_631\n        /* \"#utility.yul\":14797:14803   */\n      dup2\n        /* \"#utility.yul\":14792:14795   */\n      dup6\n        /* \"#utility.yul\":14689:14804   */\n      tag_465\n      jump\t// in\n    tag_631:\n        /* \"#utility.yul\":14682:14804   */\n      swap4\n      pop\n        /* \"#utility.yul\":14828:14913   */\n      tag_632\n        /* \"#utility.yul\":14907:14912   */\n      dup4\n        /* \"#utility.yul\":14828:14913   */\n      tag_466\n      jump\t// in\n    tag_632:\n        /* \"#utility.yul\":14936:14943   */\n      dup1\n        /* \"#utility.yul\":14967:14968   */\n      0x00\n        /* \"#utility.yul\":14952:15323   */\n    tag_633:\n        /* \"#utility.yul\":14977:14983   */\n      dup4\n        /* \"#utility.yul\":14974:14975   */\n      dup2\n        /* \"#utility.yul\":14971:14984   */\n      lt\n        /* \"#utility.yul\":14952:15323   */\n      iszero\n      tag_635\n      jumpi\n        /* \"#utility.yul\":15053:15059   */\n      dup2\n        /* \"#utility.yul\":15047:15060   */\n      mload\n        /* \"#utility.yul\":15080:15201   */\n      tag_636\n        /* \"#utility.yul\":15197:15200   */\n      dup9\n        /* \"#utility.yul\":15182:15195   */\n      dup3\n        /* \"#utility.yul\":15080:15201   */\n      tag_468\n      jump\t// in\n    tag_636:\n        /* \"#utility.yul\":15073:15201   */\n      swap8\n      pop\n        /* \"#utility.yul\":15224:15313   */\n      tag_637\n        /* \"#utility.yul\":15306:15312   */\n      dup4\n        /* \"#utility.yul\":15224:15313   */\n      tag_469\n      jump\t// in\n    tag_637:\n        /* \"#utility.yul\":15214:15313   */\n      swap3\n      pop\n        /* \"#utility.yul\":15012:15323   */\n      pop\n        /* \"#utility.yul\":14999:15000   */\n      0x01\n        /* \"#utility.yul\":14996:14997   */\n      dup2\n        /* \"#utility.yul\":14992:15001   */\n      add\n        /* \"#utility.yul\":14987:15001   */\n      swap1\n      pop\n        /* \"#utility.yul\":14952:15323   */\n      jump(tag_633)\n    tag_635:\n        /* \"#utility.yul\":14956:14970   */\n      pop\n        /* \"#utility.yul\":15339:15342   */\n      dup6\n        /* \"#utility.yul\":15332:15342   */\n      swap4\n      pop\n        /* \"#utility.yul\":14566:15348   */\n      pop\n      pop\n      pop\n        /* \"#utility.yul\":14384:15348   */\n      swap3\n      swap2\n      pop\n      pop\n      jump\t// out\n        /* \"#utility.yul\":15354:15843   */\n    tag_81:\n        /* \"#utility.yul\":15555:15559   */\n      0x00\n        /* \"#utility.yul\":15593:15595   */\n      0x20\n        /* \"#utility.yul\":15582:15591   */\n      dup3\n        /* \"#utility.yul\":15578:15596   */\n      add\n        /* \"#utility.yul\":15570:15596   */\n      swap1\n      pop\n        /* \"#utility.yul\":15642:15651   */\n      dup2\n        /* \"#utility.yul\":15636:15640   */\n      dup2\n        /* \"#utility.yul\":15632:15652   */\n      sub\n        /* \"#utility.yul\":15628:15629   */\n      0x00\n        /* \"#utility.yul\":15617:15626   */\n      dup4\n        /* \"#utility.yul\":15613:15630   */\n      add\n        /* \"#utility.yul\":15606:15653   */\n      mstore\n        /* \"#utility.yul\":15670:15836   */\n      tag_639\n        /* \"#utility.yul\":15831:15835   */\n      dup2\n        /* \"#utility.yul\":15822:15828   */\n      dup5\n        /* \"#utility.yul\":15670:15836   */\n      tag_470\n      jump\t// in\n    tag_639:\n        /* \"#utility.yul\":15662:15836   */\n      swap1\n      pop\n        /* \"#utility.yul\":15354:15843   */\n      swap3\n      swap2\n      pop\n      pop\n      jump\t// out\n        /* \"#utility.yul\":15849:15967   */\n    tag_471:\n        /* \"#utility.yul\":15936:15960   */\n      tag_641\n        /* \"#utility.yul\":15954:15959   */\n      dup2\n        /* \"#utility.yul\":15936:15960   */\n      tag_432\n      jump\t// in\n    tag_641:\n        /* \"#utility.yul\":15931:15934   */\n      dup3\n        /* \"#utility.yul\":15924:15961   */\n      mstore\n        /* \"#utility.yul\":15849:15967   */\n      pop\n      pop\n      jump\t// out\n        /* \"#utility.yul\":15973:16091   */\n    tag_472:\n        /* \"#utility.yul\":16060:16084   */\n      tag_643\n        /* \"#utility.yul\":16078:16083   */\n      dup2\n        /* \"#utility.yul\":16060:16084   */\n      tag_429\n      jump\t// in\n    tag_643:\n        /* \"#utility.yul\":16055:16058   */\n      dup3\n        /* \"#utility.yul\":16048:16085   */\n      mstore\n        /* \"#utility.yul\":15973:16091   */\n      pop\n      pop\n      jump\t// out\n        /* \"#utility.yul\":16097:16872   */\n    tag_94:\n        /* \"#utility.yul\":16330:16334   */\n      0x00\n        /* \"#utility.yul\":16368:16371   */\n      0xc0\n        /* \"#utility.yul\":16357:16366   */\n      dup3\n        /* \"#utility.yul\":16353:16372   */\n      add\n        /* \"#utility.yul\":16345:16372   */\n      swap1\n      pop\n        /* \"#utility.yul\":16382:16453   */\n      tag_645\n        /* \"#utility.yul\":16450:16451   */\n      0x00\n        /* \"#utility.yul\":16439:16448   */\n      dup4\n        /* \"#utility.yul\":16435:16452   */\n      add\n        /* \"#utility.yul\":16426:16432   */\n      dup10\n        /* \"#utility.yul\":16382:16453   */\n      tag_471\n      jump\t// in\n    tag_645:\n        /* \"#utility.yul\":16463:16535   */\n      tag_646\n        /* \"#utility.yul\":16531:16533   */\n      0x20\n        /* \"#utility.yul\":16520:16529   */\n      dup4\n        /* \"#utility.yul\":16516:16534   */\n      add\n        /* \"#utility.yul\":16507:16513   */\n      dup9\n        /* \"#utility.yul\":16463:16535   */\n      tag_472\n      jump\t// in\n    tag_646:\n        /* \"#utility.yul\":16545:16617   */\n      tag_647\n        /* \"#utility.yul\":16613:16615   */\n      0x40\n        /* \"#utility.yul\":16602:16611   */\n      dup4\n        /* \"#utility.yul\":16598:16616   */\n      add\n        /* \"#utility.yul\":16589:16595   */\n      dup8\n        /* \"#utility.yul\":16545:16617   */\n      tag_472\n      jump\t// in\n    tag_647:\n        /* \"#utility.yul\":16627:16699   */\n      tag_648\n        /* \"#utility.yul\":16695:16697   */\n      0x60\n        /* \"#utility.yul\":16684:16693   */\n      dup4\n        /* \"#utility.yul\":16680:16698   */\n      add\n        /* \"#utility.yul\":16671:16677   */\n      dup7\n        /* \"#utility.yul\":16627:16699   */\n      tag_425\n      jump\t// in\n    tag_648:\n        /* \"#utility.yul\":16709:16782   */\n      tag_649\n        /* \"#utility.yul\":16777:16780   */\n      0x80\n        /* \"#utility.yul\":16766:16775   */\n      dup4\n        /* \"#utility.yul\":16762:16781   */\n      add\n        /* \"#utility.yul\":16753:16759   */\n      dup6\n        /* \"#utility.yul\":16709:16782   */\n      tag_471\n      jump\t// in\n    tag_649:\n        /* \"#utility.yul\":16792:16865   */\n      tag_650\n        /* \"#utility.yul\":16860:16863   */\n      0xa0\n        /* \"#utility.yul\":16849:16858   */\n      dup4\n        /* \"#utility.yul\":16845:16864   */\n      add\n        /* \"#utility.yul\":16836:16842   */\n      dup5\n        /* \"#utility.yul\":16792:16865   */\n      tag_425\n      jump\t// in\n    tag_650:\n        /* \"#utility.yul\":16097:16872   */\n      swap8\n      swap7\n      pop\n      pop\n      pop\n      pop\n      pop\n      pop\n      pop\n      jump\t// out\n        /* \"#utility.yul\":16878:17100   */\n    tag_102:\n        /* \"#utility.yul\":16971:16975   */\n      0x00\n        /* \"#utility.yul\":17009:17011   */\n      0x20\n        /* \"#utility.yul\":16998:17007   */\n      dup3\n        /* \"#utility.yul\":16994:17012   */\n      add\n        /* \"#utility.yul\":16986:17012   */\n      swap1\n      pop\n        /* \"#utility.yul\":17022:17093   */\n      tag_652\n        /* \"#utility.yul\":17090:17091   */\n      0x00\n        /* \"#utility.yul\":17079:17088   */\n      dup4\n        /* \"#utility.yul\":17075:17092   */\n      add\n        /* \"#utility.yul\":17066:17072   */\n      dup5\n        /* \"#utility.yul\":17022:17093   */\n      tag_471\n      jump\t// in\n    tag_652:\n        /* \"#utility.yul\":16878:17100   */\n      swap3\n      swap2\n      pop\n      pop\n      jump\t// out\n        /* \"#utility.yul\":17106:17222   */\n    tag_473:\n        /* \"#utility.yul\":17176:17197   */\n      tag_654\n        /* \"#utility.yul\":17191:17196   */\n      dup2\n        /* \"#utility.yul\":17176:17197   */\n      tag_434\n      jump\t// in\n    tag_654:\n        /* \"#utility.yul\":17169:17174   */\n      dup2\n        /* \"#utility.yul\":17166:17198   */\n      eq\n        /* \"#utility.yul\":17156:17216   */\n      tag_655\n      jumpi\n        /* \"#utility.yul\":17212:17213   */\n      0x00\n        /* \"#utility.yul\":17209:17210   */\n      dup1\n        /* \"#utility.yul\":17202:17214   */\n      revert\n        /* \"#utility.yul\":17156:17216   */\n    tag_655:\n        /* \"#utility.yul\":17106:17222   */\n      pop\n      jump\t// out\n        /* \"#utility.yul\":17228:17361   */\n    tag_474:\n        /* \"#utility.yul\":17271:17276   */\n      0x00\n        /* \"#utility.yul\":17309:17315   */\n      dup2\n        /* \"#utility.yul\":17296:17316   */\n      calldataload\n        /* \"#utility.yul\":17287:17316   */\n      swap1\n      pop\n        /* \"#utility.yul\":17325:17355   */\n      tag_657\n        /* \"#utility.yul\":17349:17354   */\n      dup2\n        /* \"#utility.yul\":17325:17355   */\n      tag_473\n      jump\t// in\n    tag_657:\n        /* \"#utility.yul\":17228:17361   */\n      swap3\n      swap2\n      pop\n      pop\n      jump\t// out\n        /* \"#utility.yul\":17367:17980   */\n    tag_110:\n        /* \"#utility.yul\":17441:17447   */\n      0x00\n        /* \"#utility.yul\":17449:17455   */\n      dup1\n        /* \"#utility.yul\":17457:17463   */\n      0x00\n        /* \"#utility.yul\":17506:17508   */\n      0x60\n        /* \"#utility.yul\":17494:17503   */\n      dup5\n        /* \"#utility.yul\":17485:17492   */\n      dup7\n        /* \"#utility.yul\":17481:17504   */\n      sub\n        /* \"#utility.yul\":17477:17509   */\n      slt\n        /* \"#utility.yul\":17474:17593   */\n      iszero\n      tag_659\n      jumpi\n        /* \"#utility.yul\":17512:17591   */\n      tag_660\n      tag_442\n      jump\t// in\n    tag_660:\n        /* \"#utility.yul\":17474:17593   */\n    tag_659:\n        /* \"#utility.yul\":17632:17633   */\n      0x00\n        /* \"#utility.yul\":17657:17710   */\n      tag_661\n        /* \"#utility.yul\":17702:17709   */\n      dup7\n        /* \"#utility.yul\":17693:17699   */\n      dup3\n        /* \"#utility.yul\":17682:17691   */\n      dup8\n        /* \"#utility.yul\":17678:17700   */\n      add\n        /* \"#utility.yul\":17657:17710   */\n      tag_445\n      jump\t// in\n    tag_661:\n        /* \"#utility.yul\":17647:17710   */\n      swap4\n      pop\n        /* \"#utility.yul\":17603:17720   */\n      pop\n        /* \"#utility.yul\":17759:17761   */\n      0x20\n        /* \"#utility.yul\":17785:17838   */\n      tag_662\n        /* \"#utility.yul\":17830:17837   */\n      dup7\n        /* \"#utility.yul\":17821:17827   */\n      dup3\n        /* \"#utility.yul\":17810:17819   */\n      dup8\n        /* \"#utility.yul\":17806:17828   */\n      add\n        /* \"#utility.yul\":17785:17838   */\n      tag_454\n      jump\t// in\n    tag_662:\n        /* \"#utility.yul\":17775:17838   */\n      swap3\n      pop\n        /* \"#utility.yul\":17730:17848   */\n      pop\n        /* \"#utility.yul\":17887:17889   */\n      0x40\n        /* \"#utility.yul\":17913:17963   */\n      tag_663\n        /* \"#utility.yul\":17955:17962   */\n      dup7\n        /* \"#utility.yul\":17946:17952   */\n      dup3\n        /* \"#utility.yul\":17935:17944   */\n      dup8\n        /* \"#utility.yul\":17931:17953   */\n      add\n        /* \"#utility.yul\":17913:17963   */\n      tag_474\n      jump\t// in\n    tag_663:\n        /* \"#utility.yul\":17903:17963   */\n      swap2\n      pop\n        /* \"#utility.yul\":17858:17973   */\n      pop\n        /* \"#utility.yul\":17367:17980   */\n      swap3\n      pop\n      swap3\n      pop\n      swap3\n      jump\t// out\n        /* \"#utility.yul\":17986:18460   */\n    tag_116:\n        /* \"#utility.yul\":18054:18060   */\n      0x00\n        /* \"#utility.yul\":18062:18068   */\n      dup1\n        /* \"#utility.yul\":18111:18113   */\n      0x40\n        /* \"#utility.yul\":18099:18108   */\n      dup4\n        /* \"#utility.yul\":18090:18097   */\n      dup6\n        /* \"#utility.yul\":18086:18109   */\n      sub\n        /* \"#utility.yul\":18082:18114   */\n      slt\n        /* \"#utility.yul\":18079:18198   */\n      iszero\n      tag_665\n      jumpi\n        /* \"#utility.yul\":18117:18196   */\n      tag_666\n      tag_442\n      jump\t// in\n    tag_666:\n        /* \"#utility.yul\":18079:18198   */\n    tag_665:\n        /* \"#utility.yul\":18237:18238   */\n      0x00\n        /* \"#utility.yul\":18262:18315   */\n      tag_667\n        /* \"#utility.yul\":18307:18314   */\n      dup6\n        /* \"#utility.yul\":18298:18304   */\n      dup3\n        /* \"#utility.yul\":18287:18296   */\n      dup7\n        /* \"#utility.yul\":18283:18305   */\n      add\n        /* \"#utility.yul\":18262:18315   */\n      tag_463\n      jump\t// in\n    tag_667:\n        /* \"#utility.yul\":18252:18315   */\n      swap3\n      pop\n        /* \"#utility.yul\":18208:18325   */\n      pop\n        /* \"#utility.yul\":18364:18366   */\n      0x20\n        /* \"#utility.yul\":18390:18443   */\n      tag_668\n        /* \"#utility.yul\":18435:18442   */\n      dup6\n        /* \"#utility.yul\":18426:18432   */\n      dup3\n        /* \"#utility.yul\":18415:18424   */\n      dup7\n        /* \"#utility.yul\":18411:18433   */\n      add\n        /* \"#utility.yul\":18390:18443   */\n      tag_463\n      jump\t// in\n    tag_668:\n        /* \"#utility.yul\":18380:18443   */\n      swap2\n      pop\n        /* \"#utility.yul\":18335:18453   */\n      pop\n        /* \"#utility.yul\":17986:18460   */\n      swap3\n      pop\n      swap3\n      swap1\n      pop\n      jump\t// out\n        /* \"#utility.yul\":18466:18583   */\n    tag_475:\n        /* \"#utility.yul\":18575:18576   */\n      0x00\n        /* \"#utility.yul\":18572:18573   */\n      dup1\n        /* \"#utility.yul\":18565:18577   */\n      revert\n        /* \"#utility.yul\":18589:18706   */\n    tag_476:\n        /* \"#utility.yul\":18698:18699   */\n      0x00\n        /* \"#utility.yul\":18695:18696   */\n      dup1\n        /* \"#utility.yul\":18688:18700   */\n      revert\n        /* \"#utility.yul\":18712:18814   */\n    tag_477:\n        /* \"#utility.yul\":18753:18759   */\n      0x00\n        /* \"#utility.yul\":18804:18806   */\n      0x1f\n        /* \"#utility.yul\":18800:18807   */\n      not\n        /* \"#utility.yul\":18795:18797   */\n      0x1f\n        /* \"#utility.yul\":18788:18793   */\n      dup4\n        /* \"#utility.yul\":18784:18798   */\n      add\n        /* \"#utility.yul\":18780:18808   */\n      and\n        /* \"#utility.yul\":18770:18808   */\n      swap1\n      pop\n        /* \"#utility.yul\":18712:18814   */\n      swap2\n      swap1\n      pop\n      jump\t// out\n        /* \"#utility.yul\":18820:19000   */\n    tag_160:\n        /* \"#utility.yul\":18868:18945   */\n      0x4e487b7100000000000000000000000000000000000000000000000000000000\n        /* \"#utility.yul\":18865:18866   */\n      0x00\n        /* \"#utility.yul\":18858:18946   */\n      mstore\n        /* \"#utility.yul\":18965:18969   */\n      0x41\n        /* \"#utility.yul\":18962:18963   */\n      0x04\n        /* \"#utility.yul\":18955:18970   */\n      mstore\n        /* \"#utility.yul\":18989:18993   */\n      0x24\n        /* \"#utility.yul\":18986:18987   */\n      0x00\n        /* \"#utility.yul\":18979:18994   */\n      revert\n        /* \"#utility.yul\":19006:19287   */\n    tag_478:\n        /* \"#utility.yul\":19089:19116   */\n      tag_674\n        /* \"#utility.yul\":19111:19115   */\n      dup3\n        /* \"#utility.yul\":19089:19116   */\n      tag_477\n      jump\t// in\n    tag_674:\n        /* \"#utility.yul\":19081:19087   */\n      dup2\n        /* \"#utility.yul\":19077:19117   */\n      add\n        /* \"#utility.yul\":19219:19225   */\n      dup2\n        /* \"#utility.yul\":19207:19217   */\n      dup2\n        /* \"#utility.yul\":19204:19226   */\n      lt\n        /* \"#utility.yul\":19183:19201   */\n      0xffffffffffffffff\n        /* \"#utility.yul\":19171:19181   */\n      dup3\n        /* \"#utility.yul\":19168:19202   */\n      gt\n        /* \"#utility.yul\":19165:19227   */\n      or\n        /* \"#utility.yul\":19162:19250   */\n      iszero\n      tag_675\n      jumpi\n        /* \"#utility.yul\":19230:19248   */\n      tag_676\n      tag_160\n      jump\t// in\n    tag_676:\n        /* \"#utility.yul\":19162:19250   */\n    tag_675:\n        /* \"#utility.yul\":19270:19280   */\n      dup1\n        /* \"#utility.yul\":19266:19268   */\n      0x40\n        /* \"#utility.yul\":19259:19281   */\n      mstore\n        /* \"#utility.yul\":19049:19287   */\n      pop\n        /* \"#utility.yul\":19006:19287   */\n      pop\n      pop\n      jump\t// out\n        /* \"#utility.yul\":19293:19422   */\n    tag_479:\n        /* \"#utility.yul\":19327:19333   */\n      0x00\n        /* \"#utility.yul\":19354:19374   */\n      tag_678\n      tag_441\n      jump\t// in\n    tag_678:\n        /* \"#utility.yul\":19344:19374   */\n      swap1\n      pop\n        /* \"#utility.yul\":19383:19416   */\n      tag_679\n        /* \"#utility.yul\":19411:19415   */\n      dup3\n        /* \"#utility.yul\":19403:19409   */\n      dup3\n        /* \"#utility.yul\":19383:19416   */\n      tag_478\n      jump\t// in\n    tag_679:\n        /* \"#utility.yul\":19293:19422   */\n      swap2\n      swap1\n      pop\n      jump\t// out\n        /* \"#utility.yul\":19428:19735   */\n    tag_480:\n        /* \"#utility.yul\":19489:19493   */\n      0x00\n        /* \"#utility.yul\":19579:19597   */\n      0xffffffffffffffff\n        /* \"#utility.yul\":19571:19577   */\n      dup3\n        /* \"#utility.yul\":19568:19598   */\n      gt\n        /* \"#utility.yul\":19565:19621   */\n      iszero\n      tag_681\n      jumpi\n        /* \"#utility.yul\":19601:19619   */\n      tag_682\n      tag_160\n      jump\t// in\n    tag_682:\n        /* \"#utility.yul\":19565:19621   */\n    tag_681:\n        /* \"#utility.yul\":19639:19668   */\n      tag_683\n        /* \"#utility.yul\":19661:19667   */\n      dup3\n        /* \"#utility.yul\":19639:19668   */\n      tag_477\n      jump\t// in\n    tag_683:\n        /* \"#utility.yul\":19631:19668   */\n      swap1\n      pop\n        /* \"#utility.yul\":19723:19727   */\n      0x20\n        /* \"#utility.yul\":19717:19721   */\n      dup2\n        /* \"#utility.yul\":19713:19728   */\n      add\n        /* \"#utility.yul\":19705:19728   */\n      swap1\n      pop\n        /* \"#utility.yul\":19428:19735   */\n      swap2\n      swap1\n      pop\n      jump\t// out\n        /* \"#utility.yul\":19741:19887   */\n    tag_481:\n        /* \"#utility.yul\":19838:19844   */\n      dup3\n        /* \"#utility.yul\":19833:19836   */\n      dup2\n        /* \"#utility.yul\":19828:19831   */\n      dup4\n        /* \"#utility.yul\":19815:19845   */\n      calldatacopy\n        /* \"#utility.yul\":19879:19880   */\n      0x00\n        /* \"#utility.yul\":19870:19876   */\n      dup4\n        /* \"#utility.yul\":19865:19868   */\n      dup4\n        /* \"#utility.yul\":19861:19877   */\n      add\n        /* \"#utility.yul\":19854:19881   */\n      mstore\n        /* \"#utility.yul\":19741:19887   */\n      pop\n      pop\n      pop\n      jump\t// out\n        /* \"#utility.yul\":19893:20316   */\n    tag_482:\n        /* \"#utility.yul\":19970:19975   */\n      0x00\n        /* \"#utility.yul\":19995:20060   */\n      tag_686\n        /* \"#utility.yul\":20011:20059   */\n      tag_687\n        /* \"#utility.yul\":20052:20058   */\n      dup5\n        /* \"#utility.yul\":20011:20059   */\n      tag_480\n      jump\t// in\n    tag_687:\n        /* \"#utility.yul\":19995:20060   */\n      tag_479\n      jump\t// in\n    tag_686:\n        /* \"#utility.yul\":19986:20060   */\n      swap1\n      pop\n        /* \"#utility.yul\":20083:20089   */\n      dup3\n        /* \"#utility.yul\":20076:20081   */\n      dup2\n        /* \"#utility.yul\":20069:20090   */\n      mstore\n        /* \"#utility.yul\":20121:20125   */\n      0x20\n        /* \"#utility.yul\":20114:20119   */\n      dup2\n        /* \"#utility.yul\":20110:20126   */\n      add\n        /* \"#utility.yul\":20159:20162   */\n      dup5\n        /* \"#utility.yul\":20150:20156   */\n      dup5\n        /* \"#utility.yul\":20145:20148   */\n      dup5\n        /* \"#utility.yul\":20141:20157   */\n      add\n        /* \"#utility.yul\":20138:20163   */\n      gt\n        /* \"#utility.yul\":20135:20247   */\n      iszero\n      tag_688\n      jumpi\n        /* \"#utility.yul\":20166:20245   */\n      tag_689\n      tag_476\n      jump\t// in\n    tag_689:\n        /* \"#utility.yul\":20135:20247   */\n    tag_688:\n        /* \"#utility.yul\":20256:20310   */\n      tag_690\n        /* \"#utility.yul\":20303:20309   */\n      dup5\n        /* \"#utility.yul\":20298:20301   */\n      dup3\n        /* \"#utility.yul\":20293:20296   */\n      dup6\n        /* \"#utility.yul\":20256:20310   */\n      tag_481\n      jump\t// in\n    tag_690:\n        /* \"#utility.yul\":19976:20316   */\n      pop\n        /* \"#utility.yul\":19893:20316   */\n      swap4\n      swap3\n      pop\n      pop\n      pop\n      jump\t// out\n        /* \"#utility.yul\":20335:20673   */\n    tag_483:\n        /* \"#utility.yul\":20390:20395   */\n      0x00\n        /* \"#utility.yul\":20439:20442   */\n      dup3\n        /* \"#utility.yul\":20432:20436   */\n      0x1f\n        /* \"#utility.yul\":20424:20430   */\n      dup4\n        /* \"#utility.yul\":20420:20437   */\n      add\n        /* \"#utility.yul\":20416:20443   */\n      slt\n        /* \"#utility.yul\":20406:20528   */\n      tag_692\n      jumpi\n        /* \"#utility.yul\":20447:20526   */\n      tag_693\n      tag_475\n      jump\t// in\n    tag_693:\n        /* \"#utility.yul\":20406:20528   */\n    tag_692:\n        /* \"#utility.yul\":20564:20570   */\n      dup2\n        /* \"#utility.yul\":20551:20571   */\n      calldataload\n        /* \"#utility.yul\":20589:20667   */\n      tag_694\n        /* \"#utility.yul\":20663:20666   */\n      dup5\n        /* \"#utility.yul\":20655:20661   */\n      dup3\n        /* \"#utility.yul\":20648:20652   */\n      0x20\n        /* \"#utility.yul\":20640:20646   */\n      dup7\n        /* \"#utility.yul\":20636:20653   */\n      add\n        /* \"#utility.yul\":20589:20667   */\n      tag_482\n      jump\t// in\n    tag_694:\n        /* \"#utility.yul\":20580:20667   */\n      swap2\n      pop\n        /* \"#utility.yul\":20396:20673   */\n      pop\n        /* \"#utility.yul\":20335:20673   */\n      swap3\n      swap2\n      pop\n      pop\n      jump\t// out\n        /* \"#utility.yul\":20679:21908   */\n    tag_121:\n        /* \"#utility.yul\":20789:20795   */\n      0x00\n        /* \"#utility.yul\":20797:20803   */\n      dup1\n        /* \"#utility.yul\":20805:20811   */\n      0x00\n        /* \"#utility.yul\":20813:20819   */\n      dup1\n        /* \"#utility.yul\":20821:20827   */\n      0x00\n        /* \"#utility.yul\":20829:20835   */\n      dup1\n        /* \"#utility.yul\":20878:20881   */\n      0xc0\n        /* \"#utility.yul\":20866:20875   */\n      dup8\n        /* \"#utility.yul\":20857:20864   */\n      dup10\n        /* \"#utility.yul\":20853:20876   */\n      sub\n        /* \"#utility.yul\":20849:20882   */\n      slt\n        /* \"#utility.yul\":20846:20966   */\n      iszero\n      tag_696\n      jumpi\n        /* \"#utility.yul\":20885:20964   */\n      tag_697\n      tag_442\n      jump\t// in\n    tag_697:\n        /* \"#utility.yul\":20846:20966   */\n    tag_696:\n        /* \"#utility.yul\":21005:21006   */\n      0x00\n        /* \"#utility.yul\":21030:21083   */\n      tag_698\n        /* \"#utility.yul\":21075:21082   */\n      dup10\n        /* \"#utility.yul\":21066:21072   */\n      dup3\n        /* \"#utility.yul\":21055:21064   */\n      dup11\n        /* \"#utility.yul\":21051:21073   */\n      add\n        /* \"#utility.yul\":21030:21083   */\n      tag_445\n      jump\t// in\n    tag_698:\n        /* \"#utility.yul\":21020:21083   */\n      swap7\n      pop\n        /* \"#utility.yul\":20976:21093   */\n      pop\n        /* \"#utility.yul\":21132:21134   */\n      0x20\n        /* \"#utility.yul\":21158:21211   */\n      tag_699\n        /* \"#utility.yul\":21203:21210   */\n      dup10\n        /* \"#utility.yul\":21194:21200   */\n      dup3\n        /* \"#utility.yul\":21183:21192   */\n      dup11\n        /* \"#utility.yul\":21179:21201   */\n      add\n        /* \"#utility.yul\":21158:21211   */\n      tag_454\n      jump\t// in\n    tag_699:\n        /* \"#utility.yul\":21148:21211   */\n      swap6\n      pop\n        /* \"#utility.yul\":21103:21221   */\n      pop\n        /* \"#utility.yul\":21260:21262   */\n      0x40\n        /* \"#utility.yul\":21286:21339   */\n      tag_700\n        /* \"#utility.yul\":21331:21338   */\n      dup10\n        /* \"#utility.yul\":21322:21328   */\n      dup3\n        /* \"#utility.yul\":21311:21320   */\n      dup11\n        /* \"#utility.yul\":21307:21329   */\n      add\n        /* \"#utility.yul\":21286:21339   */\n      tag_463\n      jump\t// in\n    tag_700:\n        /* \"#utility.yul\":21276:21339   */\n      swap5\n      pop\n        /* \"#utility.yul\":21231:21349   */\n      pop\n        /* \"#utility.yul\":21388:21390   */\n      0x60\n        /* \"#utility.yul\":21414:21464   */\n      tag_701\n        /* \"#utility.yul\":21456:21463   */\n      dup10\n        /* \"#utility.yul\":21447:21453   */\n      dup3\n        /* \"#utility.yul\":21436:21445   */\n      dup11\n        /* \"#utility.yul\":21432:21454   */\n      add\n        /* \"#utility.yul\":21414:21464   */\n      tag_474\n      jump\t// in\n    tag_701:\n        /* \"#utility.yul\":21404:21464   */\n      swap4\n      pop\n        /* \"#utility.yul\":21359:21474   */\n      pop\n        /* \"#utility.yul\":21541:21544   */\n      0x80\n        /* \"#utility.yul\":21530:21539   */\n      dup8\n        /* \"#utility.yul\":21526:21545   */\n      add\n        /* \"#utility.yul\":21513:21546   */\n      calldataload\n        /* \"#utility.yul\":21573:21591   */\n      0xffffffffffffffff\n        /* \"#utility.yul\":21565:21571   */\n      dup2\n        /* \"#utility.yul\":21562:21592   */\n      gt\n        /* \"#utility.yul\":21559:21676   */\n      iszero\n      tag_702\n      jumpi\n        /* \"#utility.yul\":21595:21674   */\n      tag_703\n      tag_443\n      jump\t// in\n    tag_703:\n        /* \"#utility.yul\":21559:21676   */\n    tag_702:\n        /* \"#utility.yul\":21700:21762   */\n      tag_704\n        /* \"#utility.yul\":21754:21761   */\n      dup10\n        /* \"#utility.yul\":21745:21751   */\n      dup3\n        /* \"#utility.yul\":21734:21743   */\n      dup11\n        /* \"#utility.yul\":21730:21752   */\n      add\n        /* \"#utility.yul\":21700:21762   */\n      tag_483\n      jump\t// in\n    tag_704:\n        /* \"#utility.yul\":21690:21762   */\n      swap3\n      pop\n        /* \"#utility.yul\":21484:21772   */\n      pop\n        /* \"#utility.yul\":21811:21814   */\n      0xa0\n        /* \"#utility.yul\":21838:21891   */\n      tag_705\n        /* \"#utility.yul\":21883:21890   */\n      dup10\n        /* \"#utility.yul\":21874:21880   */\n      dup3\n        /* \"#utility.yul\":21863:21872   */\n      dup11\n        /* \"#utility.yul\":21859:21881   */\n      add\n        /* \"#utility.yul\":21838:21891   */\n      tag_445\n      jump\t// in\n    tag_705:\n        /* \"#utility.yul\":21828:21891   */\n      swap2\n      pop\n        /* \"#utility.yul\":21782:21901   */\n      pop\n        /* \"#utility.yul\":20679:21908   */\n      swap3\n      swap6\n      pop\n      swap3\n      swap6\n      pop\n      swap3\n      swap6\n      jump\t// out\n        /* \"#utility.yul\":21914:22136   */\n    tag_134:\n        /* \"#utility.yul\":22007:22011   */\n      0x00\n        /* \"#utility.yul\":22045:22047   */\n      0x20\n        /* \"#utility.yul\":22034:22043   */\n      dup3\n        /* \"#utility.yul\":22030:22048   */\n      add\n        /* \"#utility.yul\":22022:22048   */\n      swap1\n      pop\n        /* \"#utility.yul\":22058:22129   */\n      tag_707\n        /* \"#utility.yul\":22126:22127   */\n      0x00\n        /* \"#utility.yul\":22115:22124   */\n      dup4\n        /* \"#utility.yul\":22111:22128   */\n      add\n        /* \"#utility.yul\":22102:22108   */\n      dup5\n        /* \"#utility.yul\":22058:22129   */\n      tag_472\n      jump\t// in\n    tag_707:\n        /* \"#utility.yul\":21914:22136   */\n      swap3\n      swap2\n      pop\n      pop\n      jump\t// out\n        /* \"#utility.yul\":22142:22572   */\n    tag_140:\n        /* \"#utility.yul\":22285:22289   */\n      0x00\n        /* \"#utility.yul\":22323:22325   */\n      0x60\n        /* \"#utility.yul\":22312:22321   */\n      dup3\n        /* \"#utility.yul\":22308:22326   */\n      add\n        /* \"#utility.yul\":22300:22326   */\n      swap1\n      pop\n        /* \"#utility.yul\":22336:22407   */\n      tag_709\n        /* \"#utility.yul\":22404:22405   */\n      0x00\n        /* \"#utility.yul\":22393:22402   */\n      dup4\n        /* \"#utility.yul\":22389:22406   */\n      add\n        /* \"#utility.yul\":22380:22386   */\n      dup7\n        /* \"#utility.yul\":22336:22407   */\n      tag_471\n      jump\t// in\n    tag_709:\n        /* \"#utility.yul\":22417:22483   */\n      tag_710\n        /* \"#utility.yul\":22479:22481   */\n      0x20\n        /* \"#utility.yul\":22468:22477   */\n      dup4\n        /* \"#utility.yul\":22464:22482   */\n      add\n        /* \"#utility.yul\":22455:22461   */\n      dup6\n        /* \"#utility.yul\":22417:22483   */\n      tag_458\n      jump\t// in\n    tag_710:\n        /* \"#utility.yul\":22493:22565   */\n      tag_711\n        /* \"#utility.yul\":22561:22563   */\n      0x40\n        /* \"#utility.yul\":22550:22559   */\n      dup4\n        /* \"#utility.yul\":22546:22564   */\n      add\n        /* \"#utility.yul\":22537:22543   */\n      dup5\n        /* \"#utility.yul\":22493:22565   */\n      tag_425\n      jump\t// in\n    tag_711:\n        /* \"#utility.yul\":22142:22572   */\n      swap5\n      swap4\n      pop\n      pop\n      pop\n      pop\n      jump\t// out\n        /* \"#utility.yul\":22578:22758   */\n    tag_484:\n        /* \"#utility.yul\":22626:22703   */\n      0x4e487b7100000000000000000000000000000000000000000000000000000000\n        /* \"#utility.yul\":22623:22624   */\n      0x00\n        /* \"#utility.yul\":22616:22704   */\n      mstore\n        /* \"#utility.yul\":22723:22727   */\n      0x11\n        /* \"#utility.yul\":22720:22721   */\n      0x04\n        /* \"#utility.yul\":22713:22728   */\n      mstore\n        /* \"#utility.yul\":22747:22751   */\n      0x24\n        /* \"#utility.yul\":22744:22745   */\n      0x00\n        /* \"#utility.yul\":22737:22752   */\n      revert\n        /* \"#utility.yul\":22764:22955   */\n    tag_170:\n        /* \"#utility.yul\":22804:22807   */\n      0x00\n        /* \"#utility.yul\":22823:22843   */\n      tag_714\n        /* \"#utility.yul\":22841:22842   */\n      dup3\n        /* \"#utility.yul\":22823:22843   */\n      tag_424\n      jump\t// in\n    tag_714:\n        /* \"#utility.yul\":22818:22843   */\n      swap2\n      pop\n        /* \"#utility.yul\":22857:22877   */\n      tag_715\n        /* \"#utility.yul\":22875:22876   */\n      dup4\n        /* \"#utility.yul\":22857:22877   */\n      tag_424\n      jump\t// in\n    tag_715:\n        /* \"#utility.yul\":22852:22877   */\n      swap3\n      pop\n        /* \"#utility.yul\":22900:22901   */\n      dup3\n        /* \"#utility.yul\":22897:22898   */\n      dup3\n        /* \"#utility.yul\":22893:22902   */\n      add\n        /* \"#utility.yul\":22886:22902   */\n      swap1\n      pop\n        /* \"#utility.yul\":22921:22924   */\n      dup1\n        /* \"#utility.yul\":22918:22919   */\n      dup3\n        /* \"#utility.yul\":22915:22925   */\n      gt\n        /* \"#utility.yul\":22912:22948   */\n      iszero\n      tag_716\n      jumpi\n        /* \"#utility.yul\":22928:22946   */\n      tag_717\n      tag_484\n      jump\t// in\n    tag_717:\n        /* \"#utility.yul\":22912:22948   */\n    tag_716:\n        /* \"#utility.yul\":22764:22955   */\n      swap3\n      swap2\n      pop\n      pop\n      jump\t// out\n        /* \"#utility.yul\":22961:23141   */\n    tag_176:\n        /* \"#utility.yul\":23009:23086   */\n      0x4e487b7100000000000000000000000000000000000000000000000000000000\n        /* \"#utility.yul\":23006:23007   */\n      0x00\n        /* \"#utility.yul\":22999:23087   */\n      mstore\n        /* \"#utility.yul\":23106:23110   */\n      0x32\n        /* \"#utility.yul\":23103:23104   */\n      0x04\n        /* \"#utility.yul\":23096:23111   */\n      mstore\n        /* \"#utility.yul\":23130:23134   */\n      0x24\n        /* \"#utility.yul\":23127:23128   */\n      0x00\n        /* \"#utility.yul\":23120:23135   */\n      revert\n        /* \"#utility.yul\":23147:23294   */\n    tag_485:\n        /* \"#utility.yul\":23248:23259   */\n      0x00\n        /* \"#utility.yul\":23285:23288   */\n      dup2\n        /* \"#utility.yul\":23270:23288   */\n      swap1\n      pop\n        /* \"#utility.yul\":23147:23294   */\n      swap3\n      swap2\n      pop\n      pop\n      jump\t// out\n        /* \"#utility.yul\":23300:23414   */\n    tag_486:\n      pop\n      jump\t// out\n        /* \"#utility.yul\":23420:23818   */\n    tag_487:\n        /* \"#utility.yul\":23579:23582   */\n      0x00\n        /* \"#utility.yul\":23600:23683   */\n      tag_722\n        /* \"#utility.yul\":23681:23682   */\n      0x00\n        /* \"#utility.yul\":23676:23679   */\n      dup4\n        /* \"#utility.yul\":23600:23683   */\n      tag_485\n      jump\t// in\n    tag_722:\n        /* \"#utility.yul\":23593:23683   */\n      swap2\n      pop\n        /* \"#utility.yul\":23692:23785   */\n      tag_723\n        /* \"#utility.yul\":23781:23784   */\n      dup3\n        /* \"#utility.yul\":23692:23785   */\n      tag_486\n      jump\t// in\n    tag_723:\n        /* \"#utility.yul\":23810:23811   */\n      0x00\n        /* \"#utility.yul\":23805:23808   */\n      dup3\n        /* \"#utility.yul\":23801:23812   */\n      add\n        /* \"#utility.yul\":23794:23812   */\n      swap1\n      pop\n        /* \"#utility.yul\":23420:23818   */\n      swap2\n      swap1\n      pop\n      jump\t// out\n        /* \"#utility.yul\":23824:24203   */\n    tag_183:\n        /* \"#utility.yul\":24008:24011   */\n      0x00\n        /* \"#utility.yul\":24030:24177   */\n      tag_725\n        /* \"#utility.yul\":24173:24176   */\n      dup3\n        /* \"#utility.yul\":24030:24177   */\n      tag_487\n      jump\t// in\n    tag_725:\n        /* \"#utility.yul\":24023:24177   */\n      swap2\n      pop\n        /* \"#utility.yul\":24194:24197   */\n      dup2\n        /* \"#utility.yul\":24187:24197   */\n      swap1\n      pop\n        /* \"#utility.yul\":23824:24203   */\n      swap2\n      swap1\n      pop\n      jump\t// out\n        /* \"#utility.yul\":24209:24378   */\n    tag_488:\n        /* \"#utility.yul\":24293:24304   */\n      0x00\n        /* \"#utility.yul\":24327:24333   */\n      dup3\n        /* \"#utility.yul\":24322:24325   */\n      dup3\n        /* \"#utility.yul\":24315:24334   */\n      mstore\n        /* \"#utility.yul\":24367:24371   */\n      0x20\n        /* \"#utility.yul\":24362:24365   */\n      dup3\n        /* \"#utility.yul\":24358:24372   */\n      add\n        /* \"#utility.yul\":24343:24372   */\n      swap1\n      pop\n        /* \"#utility.yul\":24209:24378   */\n      swap3\n      swap2\n      pop\n      pop\n      jump\t// out\n        /* \"#utility.yul\":24384:24540   */\n    tag_489:\n        /* \"#utility.yul\":24524:24532   */\n      0x4661696c65640000000000000000000000000000000000000000000000000000\n        /* \"#utility.yul\":24520:24521   */\n      0x00\n        /* \"#utility.yul\":24512:24518   */\n      dup3\n        /* \"#utility.yul\":24508:24522   */\n      add\n        /* \"#utility.yul\":24501:24533   */\n      mstore\n        /* \"#utility.yul\":24384:24540   */\n      pop\n      jump\t// out\n        /* \"#utility.yul\":24546:24911   */\n    tag_490:\n        /* \"#utility.yul\":24688:24691   */\n      0x00\n        /* \"#utility.yul\":24709:24775   */\n      tag_729\n        /* \"#utility.yul\":24773:24774   */\n      0x06\n        /* \"#utility.yul\":24768:24771   */\n      dup4\n        /* \"#utility.yul\":24709:24775   */\n      tag_488\n      jump\t// in\n    tag_729:\n        /* \"#utility.yul\":24702:24775   */\n      swap2\n      pop\n        /* \"#utility.yul\":24784:24877   */\n      tag_730\n        /* \"#utility.yul\":24873:24876   */\n      dup3\n        /* \"#utility.yul\":24784:24877   */\n      tag_489\n      jump\t// in\n    tag_730:\n        /* \"#utility.yul\":24902:24904   */\n      0x20\n        /* \"#utility.yul\":24897:24900   */\n      dup3\n        /* \"#utility.yul\":24893:24905   */\n      add\n        /* \"#utility.yul\":24886:24905   */\n      swap1\n      pop\n        /* \"#utility.yul\":24546:24911   */\n      swap2\n      swap1\n      pop\n      jump\t// out\n        /* \"#utility.yul\":24917:25336   */\n    tag_189:\n        /* \"#utility.yul\":25083:25087   */\n      0x00\n        /* \"#utility.yul\":25121:25123   */\n      0x20\n        /* \"#utility.yul\":25110:25119   */\n      dup3\n        /* \"#utility.yul\":25106:25124   */\n      add\n        /* \"#utility.yul\":25098:25124   */\n      swap1\n      pop\n        /* \"#utility.yul\":25170:25179   */\n      dup2\n        /* \"#utility.yul\":25164:25168   */\n      dup2\n        /* \"#utility.yul\":25160:25180   */\n      sub\n        /* \"#utility.yul\":25156:25157   */\n      0x00\n        /* \"#utility.yul\":25145:25154   */\n      dup4\n        /* \"#utility.yul\":25141:25158   */\n      add\n        /* \"#utility.yul\":25134:25181   */\n      mstore\n        /* \"#utility.yul\":25198:25329   */\n      tag_732\n        /* \"#utility.yul\":25324:25328   */\n      dup2\n        /* \"#utility.yul\":25198:25329   */\n      tag_490\n      jump\t// in\n    tag_732:\n        /* \"#utility.yul\":25190:25329   */\n      swap1\n      pop\n        /* \"#utility.yul\":24917:25336   */\n      swap2\n      swap1\n      pop\n      jump\t// out\n        /* \"#utility.yul\":25342:25575   */\n    tag_208:\n        /* \"#utility.yul\":25381:25384   */\n      0x00\n        /* \"#utility.yul\":25404:25428   */\n      tag_734\n        /* \"#utility.yul\":25422:25427   */\n      dup3\n        /* \"#utility.yul\":25404:25428   */\n      tag_424\n      jump\t// in\n    tag_734:\n        /* \"#utility.yul\":25395:25428   */\n      swap2\n      pop\n        /* \"#utility.yul\":25450:25516   */\n      0xffffffffffffffffffffffffffffffffffffffffffffffffffffffffffffffff\n        /* \"#utility.yul\":25443:25448   */\n      dup3\n        /* \"#utility.yul\":25440:25517   */\n      sub\n        /* \"#utility.yul\":25437:25540   */\n      tag_735\n      jumpi\n        /* \"#utility.yul\":25520:25538   */\n      tag_736\n      tag_484\n      jump\t// in\n    tag_736:\n        /* \"#utility.yul\":25437:25540   */\n    tag_735:\n        /* \"#utility.yul\":25567:25568   */\n      0x01\n        /* \"#utility.yul\":25560:25565   */\n      dup3\n        /* \"#utility.yul\":25556:25569   */\n      add\n        /* \"#utility.yul\":25549:25569   */\n      swap1\n      pop\n        /* \"#utility.yul\":25342:25575   */\n      swap2\n      swap1\n      pop\n      jump\t// out\n        /* \"#utility.yul\":25581:25693   */\n    tag_491:\n        /* \"#utility.yul\":25664:25686   */\n      tag_738\n        /* \"#utility.yul\":25680:25685   */\n      dup2\n        /* \"#utility.yul\":25664:25686   */\n      tag_455\n      jump\t// in\n    tag_738:\n        /* \"#utility.yul\":25659:25662   */\n      dup3\n        /* \"#utility.yul\":25652:25687   */\n      mstore\n        /* \"#utility.yul\":25581:25693   */\n      pop\n      pop\n      jump\t// out\n        /* \"#utility.yul\":25699:25913   */\n    tag_249:\n        /* \"#utility.yul\":25788:25792   */\n      0x00\n        /* \"#utility.yul\":25826:25828   */\n      0x20\n        /* \"#utility.yul\":25815:25824   */\n      dup3\n        /* \"#utility.yul\":25811:25829   */\n      add\n        /* \"#utility.yul\":25803:25829   */\n      swap1\n      pop\n        /* \"#utility.yul\":25839:25906   */\n      tag_740\n        /* \"#utility.yul\":25903:25904   */\n      0x00\n        /* \"#utility.yul\":25892:25901   */\n      dup4\n        /* \"#utility.yul\":25888:25905   */\n      add\n        /* \"#utility.yul\":25879:25885   */\n      dup5\n        /* \"#utility.yul\":25839:25906   */\n      tag_491\n      jump\t// in\n    tag_740:\n        /* \"#utility.yul\":25699:25913   */\n      swap3\n      swap2\n      pop\n      pop\n      jump\t// out\n        /* \"#utility.yul\":25919:26251   */\n    tag_295:\n        /* \"#utility.yul\":26040:26044   */\n      0x00\n        /* \"#utility.yul\":26078:26080   */\n      0x40\n        /* \"#utility.yul\":26067:26076   */\n      dup3\n        /* \"#utility.yul\":26063:26081   */\n      add\n        /* \"#utility.yul\":26055:26081   */\n      swap1\n      pop\n        /* \"#utility.yul\":26091:26162   */\n      tag_742\n        /* \"#utility.yul\":26159:26160   */\n      0x00\n        /* \"#utility.yul\":26148:26157   */\n      dup4\n        /* \"#utility.yul\":26144:26161   */\n      add\n        /* \"#utility.yul\":26135:26141   */\n      dup6\n        /* \"#utility.yul\":26091:26162   */\n      tag_471\n      jump\t// in\n    tag_742:\n        /* \"#utility.yul\":26172:26244   */\n      tag_743\n        /* \"#utility.yul\":26240:26242   */\n      0x20\n        /* \"#utility.yul\":26229:26238   */\n      dup4\n        /* \"#utility.yul\":26225:26243   */\n      add\n        /* \"#utility.yul\":26216:26222   */\n      dup5\n        /* \"#utility.yul\":26172:26244   */\n      tag_471\n      jump\t// in\n    tag_743:\n        /* \"#utility.yul\":25919:26251   */\n      swap4\n      swap3\n      pop\n      pop\n      pop\n      jump\t// out\n        /* \"#utility.yul\":26257:26667   */\n    tag_298:\n        /* \"#utility.yul\":26297:26304   */\n      0x00\n        /* \"#utility.yul\":26320:26340   */\n      tag_745\n        /* \"#utility.yul\":26338:26339   */\n      dup3\n        /* \"#utility.yul\":26320:26340   */\n      tag_424\n      jump\t// in\n    tag_745:\n        /* \"#utility.yul\":26315:26340   */\n      swap2\n      pop\n        /* \"#utility.yul\":26354:26374   */\n      tag_746\n        /* \"#utility.yul\":26372:26373   */\n      dup4\n        /* \"#utility.yul\":26354:26374   */\n      tag_424\n      jump\t// in\n    tag_746:\n        /* \"#utility.yul\":26349:26374   */\n      swap3\n      pop\n        /* \"#utility.yul\":26409:26410   */\n      dup3\n        /* \"#utility.yul\":26406:26407   */\n      dup3\n        /* \"#utility.yul\":26402:26411   */\n      mul\n        /* \"#utility.yul\":26431:26461   */\n      tag_747\n        /* \"#utility.yul\":26449:26460   */\n      dup2\n        /* \"#utility.yul\":26431:26461   */\n      tag_424\n      jump\t// in\n    tag_747:\n        /* \"#utility.yul\":26420:26461   */\n      swap2\n      pop\n        /* \"#utility.yul\":26610:26611   */\n      dup3\n        /* \"#utility.yul\":26601:26608   */\n      dup3\n        /* \"#utility.yul\":26597:26612   */\n      div\n        /* \"#utility.yul\":26594:26595   */\n      dup5\n        /* \"#utility.yul\":26591:26613   */\n      eq\n        /* \"#utility.yul\":26571:26572   */\n      dup4\n        /* \"#utility.yul\":26564:26573   */\n      iszero\n        /* \"#utility.yul\":26544:26627   */\n      or\n        /* \"#utility.yul\":26521:26660   */\n      tag_748\n      jumpi\n        /* \"#utility.yul\":26640:26658   */\n      tag_749\n      tag_484\n      jump\t// in\n    tag_749:\n        /* \"#utility.yul\":26521:26660   */\n    tag_748:\n        /* \"#utility.yul\":26305:26667   */\n      pop\n        /* \"#utility.yul\":26257:26667   */\n      swap3\n      swap2\n      pop\n      pop\n      jump\t// out\n        /* \"#utility.yul\":26673:26853   */\n    tag_492:\n        /* \"#utility.yul\":26721:26798   */\n      0x4e487b7100000000000000000000000000000000000000000000000000000000\n        /* \"#utility.yul\":26718:26719   */\n      0x00\n        /* \"#utility.yul\":26711:26799   */\n      mstore\n        /* \"#utility.yul\":26818:26822   */\n      0x12\n        /* \"#utility.yul\":26815:26816   */\n      0x04\n        /* \"#utility.yul\":26808:26823   */\n      mstore\n        /* \"#utility.yul\":26842:26846   */\n      0x24\n        /* \"#utility.yul\":26839:26840   */\n      0x00\n        /* \"#utility.yul\":26832:26847   */\n      revert\n        /* \"#utility.yul\":26859:27044   */\n    tag_302:\n        /* \"#utility.yul\":26899:26900   */\n      0x00\n        /* \"#utility.yul\":26916:26936   */\n      tag_752\n        /* \"#utility.yul\":26934:26935   */\n      dup3\n        /* \"#utility.yul\":26916:26936   */\n      tag_424\n      jump\t// in\n    tag_752:\n        /* \"#utility.yul\":26911:26936   */\n      swap2\n      pop\n        /* \"#utility.yul\":26950:26970   */\n      tag_753\n        /* \"#utility.yul\":26968:26969   */\n      dup4\n        /* \"#utility.yul\":26950:26970   */\n      tag_424\n      jump\t// in\n    tag_753:\n        /* \"#utility.yul\":26945:26970   */\n      swap3\n      pop\n        /* \"#utility.yul\":26989:26990   */\n      dup3\n        /* \"#utility.yul\":26979:27014   */\n      tag_754\n      jumpi\n        /* \"#utility.yul\":26994:27012   */\n      tag_755\n      tag_492\n      jump\t// in\n    tag_755:\n        /* \"#utility.yul\":26979:27014   */\n    tag_754:\n        /* \"#utility.yul\":27036:27037   */\n      dup3\n        /* \"#utility.yul\":27033:27034   */\n      dup3\n        /* \"#utility.yul\":27029:27038   */\n      div\n        /* \"#utility.yul\":27024:27038   */\n      swap1\n      pop\n        /* \"#utility.yul\":26859:27044   */\n      swap3\n      swap2\n      pop\n      pop\n      jump\t// out\n        /* \"#utility.yul\":27050:27241   */\n    tag_312:\n        /* \"#utility.yul\":27088:27092   */\n      0x00\n        /* \"#utility.yul\":27108:27126   */\n      tag_757\n        /* \"#utility.yul\":27124:27125   */\n      dup3\n        /* \"#utility.yul\":27108:27126   */\n      tag_455\n      jump\t// in\n    tag_757:\n        /* \"#utility.yul\":27103:27126   */\n      swap2\n      pop\n        /* \"#utility.yul\":27140:27158   */\n      tag_758\n        /* \"#utility.yul\":27156:27157   */\n      dup4\n        /* \"#utility.yul\":27140:27158   */\n      tag_455\n      jump\t// in\n    tag_758:\n        /* \"#utility.yul\":27135:27158   */\n      swap3\n      pop\n        /* \"#utility.yul\":27182:27183   */\n      dup3\n        /* \"#utility.yul\":27179:27180   */\n      dup3\n        /* \"#utility.yul\":27175:27184   */\n      sub\n        /* \"#utility.yul\":27167:27184   */\n      swap1\n      pop\n        /* \"#utility.yul\":27206:27210   */\n      0xff\n        /* \"#utility.yul\":27200:27204   */\n      dup2\n        /* \"#utility.yul\":27197:27211   */\n      gt\n        /* \"#utility.yul\":27194:27234   */\n      iszero\n      tag_759\n      jumpi\n        /* \"#utility.yul\":27214:27232   */\n      tag_760\n      tag_484\n      jump\t// in\n    tag_760:\n        /* \"#utility.yul\":27194:27234   */\n    tag_759:\n        /* \"#utility.yul\":27050:27241   */\n      swap3\n      swap2\n      pop\n      pop\n      jump\t// out\n        /* \"#utility.yul\":27247:27469   */\n    tag_493:\n        /* \"#utility.yul\":27387:27421   */\n      0x4661696c656420746f2073656e6420457468657220746f20746865206d616e61\n        /* \"#utility.yul\":27383:27384   */\n      0x00\n        /* \"#utility.yul\":27375:27381   */\n      dup3\n        /* \"#utility.yul\":27371:27385   */\n      add\n        /* \"#utility.yul\":27364:27422   */\n      mstore\n        /* \"#utility.yul\":27456:27461   */\n      0x6765720000000000000000000000000000000000000000000000000000000000\n        /* \"#utility.yul\":27451:27453   */\n      0x20\n        /* \"#utility.yul\":27443:27449   */\n      dup3\n        /* \"#utility.yul\":27439:27454   */\n      add\n        /* \"#utility.yul\":27432:27462   */\n      mstore\n        /* \"#utility.yul\":27247:27469   */\n      pop\n      jump\t// out\n        /* \"#utility.yul\":27475:27841   */\n    tag_494:\n        /* \"#utility.yul\":27617:27620   */\n      0x00\n        /* \"#utility.yul\":27638:27705   */\n      tag_763\n        /* \"#utility.yul\":27702:27704   */\n      0x23\n        /* \"#utility.yul\":27697:27700   */\n      dup4\n        /* \"#utility.yul\":27638:27705   */\n      tag_488\n      jump\t// in\n    tag_763:\n        /* \"#utility.yul\":27631:27705   */\n      swap2\n      pop\n        /* \"#utility.yul\":27714:27807   */\n      tag_764\n        /* \"#utility.yul\":27803:27806   */\n      dup3\n        /* \"#utility.yul\":27714:27807   */\n      tag_493\n      jump\t// in\n    tag_764:\n        /* \"#utility.yul\":27832:27834   */\n      0x40\n        /* \"#utility.yul\":27827:27830   */\n      dup3\n        /* \"#utility.yul\":27823:27835   */\n      add\n        /* \"#utility.yul\":27816:27835   */\n      swap1\n      pop\n        /* \"#utility.yul\":27475:27841   */\n      swap2\n      swap1\n      pop\n      jump\t// out\n        /* \"#utility.yul\":27847:28266   */\n    tag_319:\n        /* \"#utility.yul\":28013:28017   */\n      0x00\n        /* \"#utility.yul\":28051:28053   */\n      0x20\n        /* \"#utility.yul\":28040:28049   */\n      dup3\n        /* \"#utility.yul\":28036:28054   */\n      add\n        /* \"#utility.yul\":28028:28054   */\n      swap1\n      pop\n        /* \"#utility.yul\":28100:28109   */\n      dup2\n        /* \"#utility.yul\":28094:28098   */\n      dup2\n        /* \"#utility.yul\":28090:28110   */\n      sub\n        /* \"#utility.yul\":28086:28087   */\n      0x00\n        /* \"#utility.yul\":28075:28084   */\n      dup4\n        /* \"#utility.yul\":28071:28088   */\n      add\n        /* \"#utility.yul\":28064:28111   */\n      mstore\n        /* \"#utility.yul\":28128:28259   */\n      tag_766\n        /* \"#utility.yul\":28254:28258   */\n      dup2\n        /* \"#utility.yul\":28128:28259   */\n      tag_494\n      jump\t// in\n    tag_766:\n        /* \"#utility.yul\":28120:28259   */\n      swap1\n      pop\n        /* \"#utility.yul\":27847:28266   */\n      swap2\n      swap1\n      pop\n      jump\t// out\n        /* \"#utility.yul\":28272:28415   */\n    tag_495:\n        /* \"#utility.yul\":28329:28334   */\n      0x00\n        /* \"#utility.yul\":28360:28366   */\n      dup2\n        /* \"#utility.yul\":28354:28367   */\n      mload\n        /* \"#utility.yul\":28345:28367   */\n      swap1\n      pop\n        /* \"#utility.yul\":28376:28409   */\n      tag_768\n        /* \"#utility.yul\":28403:28408   */\n      dup2\n        /* \"#utility.yul\":28376:28409   */\n      tag_462\n      jump\t// in\n    tag_768:\n        /* \"#utility.yul\":28272:28415   */\n      swap3\n      swap2\n      pop\n      pop\n      jump\t// out\n        /* \"#utility.yul\":28421:28772   */\n    tag_326:\n        /* \"#utility.yul\":28491:28497   */\n      0x00\n        /* \"#utility.yul\":28540:28542   */\n      0x20\n        /* \"#utility.yul\":28528:28537   */\n      dup3\n        /* \"#utility.yul\":28519:28526   */\n      dup5\n        /* \"#utility.yul\":28515:28538   */\n      sub\n        /* \"#utility.yul\":28511:28543   */\n      slt\n        /* \"#utility.yul\":28508:28627   */\n      iszero\n      tag_770\n      jumpi\n        /* \"#utility.yul\":28546:28625   */\n      tag_771\n      tag_442\n      jump\t// in\n    tag_771:\n        /* \"#utility.yul\":28508:28627   */\n    tag_770:\n        /* \"#utility.yul\":28666:28667   */\n      0x00\n        /* \"#utility.yul\":28691:28755   */\n      tag_772\n        /* \"#utility.yul\":28747:28754   */\n      dup5\n        /* \"#utility.yul\":28738:28744   */\n      dup3\n        /* \"#utility.yul\":28727:28736   */\n      dup6\n        /* \"#utility.yul\":28723:28745   */\n      add\n        /* \"#utility.yul\":28691:28755   */\n      tag_495\n      jump\t// in\n    tag_772:\n        /* \"#utility.yul\":28681:28755   */\n      swap2\n      pop\n        /* \"#utility.yul\":28637:28765   */\n      pop\n        /* \"#utility.yul\":28421:28772   */\n      swap3\n      swap2\n      pop\n      pop\n      jump\t// out\n        /* \"#utility.yul\":28778:29110   */\n    tag_329:\n        /* \"#utility.yul\":28899:28903   */\n      0x00\n        /* \"#utility.yul\":28937:28939   */\n      0x40\n        /* \"#utility.yul\":28926:28935   */\n      dup3\n        /* \"#utility.yul\":28922:28940   */\n      add\n        /* \"#utility.yul\":28914:28940   */\n      swap1\n      pop\n        /* \"#utility.yul\":28950:29021   */\n      tag_774\n        /* \"#utility.yul\":29018:29019   */\n      0x00\n        /* \"#utility.yul\":29007:29016   */\n      dup4\n        /* \"#utility.yul\":29003:29020   */\n      add\n        /* \"#utility.yul\":28994:29000   */\n      dup6\n        /* \"#utility.yul\":28950:29021   */\n      tag_425\n      jump\t// in\n    tag_774:\n        /* \"#utility.yul\":29031:29103   */\n      tag_775\n        /* \"#utility.yul\":29099:29101   */\n      0x20\n        /* \"#utility.yul\":29088:29097   */\n      dup4\n        /* \"#utility.yul\":29084:29102   */\n      add\n        /* \"#utility.yul\":29075:29081   */\n      dup5\n        /* \"#utility.yul\":29031:29103   */\n      tag_425\n      jump\t// in\n    tag_775:\n        /* \"#utility.yul\":28778:29110   */\n      swap4\n      swap3\n      pop\n      pop\n      pop\n      jump\t// out\n        /* \"#utility.yul\":29116:29214   */\n    tag_496:\n        /* \"#utility.yul\":29167:29173   */\n      0x00\n        /* \"#utility.yul\":29201:29206   */\n      dup2\n        /* \"#utility.yul\":29195:29207   */\n      mload\n        /* \"#utility.yul\":29185:29207   */\n      swap1\n      pop\n        /* \"#utility.yul\":29116:29214   */\n      swap2\n      swap1\n      pop\n      jump\t// out\n        /* \"#utility.yul\":29220:29388   */\n    tag_497:\n        /* \"#utility.yul\":29303:29314   */\n      0x00\n        /* \"#utility.yul\":29337:29343   */\n      dup3\n        /* \"#utility.yul\":29332:29335   */\n      dup3\n        /* \"#utility.yul\":29325:29344   */\n      mstore\n        /* \"#utility.yul\":29377:29381   */\n      0x20\n        /* \"#utility.yul\":29372:29375   */\n      dup3\n        /* \"#utility.yul\":29368:29382   */\n      add\n        /* \"#utility.yul\":29353:29382   */\n      swap1\n      pop\n        /* \"#utility.yul\":29220:29388   */\n      swap3\n      swap2\n      pop\n      pop\n      jump\t// out\n        /* \"#utility.yul\":29394:29640   */\n    tag_498:\n        /* \"#utility.yul\":29475:29476   */\n      0x00\n        /* \"#utility.yul\":29485:29598   */\n    tag_779:\n        /* \"#utility.yul\":29499:29505   */\n      dup4\n        /* \"#utility.yul\":29496:29497   */\n      dup2\n        /* \"#utility.yul\":29493:29506   */\n      lt\n        /* \"#utility.yul\":29485:29598   */\n      iszero\n      tag_781\n      jumpi\n        /* \"#utility.yul\":29584:29585   */\n      dup1\n        /* \"#utility.yul\":29579:29582   */\n      dup3\n        /* \"#utility.yul\":29575:29586   */\n      add\n        /* \"#utility.yul\":29569:29587   */\n      mload\n        /* \"#utility.yul\":29565:29566   */\n      dup2\n        /* \"#utility.yul\":29560:29563   */\n      dup5\n        /* \"#utility.yul\":29556:29567   */\n      add\n        /* \"#utility.yul\":29549:29588   */\n      mstore\n        /* \"#utility.yul\":29521:29523   */\n      0x20\n        /* \"#utility.yul\":29518:29519   */\n      dup2\n        /* \"#utility.yul\":29514:29524   */\n      add\n        /* \"#utility.yul\":29509:29524   */\n      swap1\n      pop\n        /* \"#utility.yul\":29485:29598   */\n      jump(tag_779)\n    tag_781:\n        /* \"#utility.yul\":29632:29633   */\n      0x00\n        /* \"#utility.yul\":29623:29629   */\n      dup5\n        /* \"#utility.yul\":29618:29621   */\n      dup5\n        /* \"#utility.yul\":29614:29630   */\n      add\n        /* \"#utility.yul\":29607:29634   */\n      mstore\n        /* \"#utility.yul\":29456:29640   */\n      pop\n        /* \"#utility.yul\":29394:29640   */\n      pop\n      pop\n      pop\n      jump\t// out\n        /* \"#utility.yul\":29646:30019   */\n    tag_499:\n        /* \"#utility.yul\":29732:29735   */\n      0x00\n        /* \"#utility.yul\":29760:29798   */\n      tag_783\n        /* \"#utility.yul\":29792:29797   */\n      dup3\n        /* \"#utility.yul\":29760:29798   */\n      tag_496\n      jump\t// in\n    tag_783:\n        /* \"#utility.yul\":29814:29884   */\n      tag_784\n        /* \"#utility.yul\":29877:29883   */\n      dup2\n        /* \"#utility.yul\":29872:29875   */\n      dup6\n        /* \"#utility.yul\":29814:29884   */\n      tag_497\n      jump\t// in\n    tag_784:\n        /* \"#utility.yul\":29807:29884   */\n      swap4\n      pop\n        /* \"#utility.yul\":29893:29958   */\n      tag_785\n        /* \"#utility.yul\":29951:29957   */\n      dup2\n        /* \"#utility.yul\":29946:29949   */\n      dup6\n        /* \"#utility.yul\":29939:29943   */\n      0x20\n        /* \"#utility.yul\":29932:29937   */\n      dup7\n        /* \"#utility.yul\":29928:29944   */\n      add\n        /* \"#utility.yul\":29893:29958   */\n      tag_498\n      jump\t// in\n    tag_785:\n        /* \"#utility.yul\":29983:30012   */\n      tag_786\n        /* \"#utility.yul\":30005:30011   */\n      dup2\n        /* \"#utility.yul\":29983:30012   */\n      tag_477\n      jump\t// in\n    tag_786:\n        /* \"#utility.yul\":29978:29981   */\n      dup5\n        /* \"#utility.yul\":29974:30013   */\n      add\n        /* \"#utility.yul\":29967:30013   */\n      swap2\n      pop\n        /* \"#utility.yul\":29736:30019   */\n      pop\n        /* \"#utility.yul\":29646:30019   */\n      swap3\n      swap2\n      pop\n      pop\n      jump\t// out\n        /* \"#utility.yul\":30025:30764   */\n    tag_334:\n        /* \"#utility.yul\":30242:30246   */\n      0x00\n        /* \"#utility.yul\":30280:30283   */\n      0xa0\n        /* \"#utility.yul\":30269:30278   */\n      dup3\n        /* \"#utility.yul\":30265:30284   */\n      add\n        /* \"#utility.yul\":30257:30284   */\n      swap1\n      pop\n        /* \"#utility.yul\":30294:30365   */\n      tag_788\n        /* \"#utility.yul\":30362:30363   */\n      0x00\n        /* \"#utility.yul\":30351:30360   */\n      dup4\n        /* \"#utility.yul\":30347:30364   */\n      add\n        /* \"#utility.yul\":30338:30344   */\n      dup9\n        /* \"#utility.yul\":30294:30365   */\n      tag_471\n      jump\t// in\n    tag_788:\n        /* \"#utility.yul\":30375:30447   */\n      tag_789\n        /* \"#utility.yul\":30443:30445   */\n      0x20\n        /* \"#utility.yul\":30432:30441   */\n      dup4\n        /* \"#utility.yul\":30428:30446   */\n      add\n        /* \"#utility.yul\":30419:30425   */\n      dup8\n        /* \"#utility.yul\":30375:30447   */\n      tag_471\n      jump\t// in\n    tag_789:\n        /* \"#utility.yul\":30457:30529   */\n      tag_790\n        /* \"#utility.yul\":30525:30527   */\n      0x40\n        /* \"#utility.yul\":30514:30523   */\n      dup4\n        /* \"#utility.yul\":30510:30528   */\n      add\n        /* \"#utility.yul\":30501:30507   */\n      dup7\n        /* \"#utility.yul\":30457:30529   */\n      tag_425\n      jump\t// in\n    tag_790:\n        /* \"#utility.yul\":30539:30605   */\n      tag_791\n        /* \"#utility.yul\":30601:30603   */\n      0x60\n        /* \"#utility.yul\":30590:30599   */\n      dup4\n        /* \"#utility.yul\":30586:30604   */\n      add\n        /* \"#utility.yul\":30577:30583   */\n      dup6\n        /* \"#utility.yul\":30539:30605   */\n      tag_458\n      jump\t// in\n    tag_791:\n        /* \"#utility.yul\":30653:30662   */\n      dup2\n        /* \"#utility.yul\":30647:30651   */\n      dup2\n        /* \"#utility.yul\":30643:30663   */\n      sub\n        /* \"#utility.yul\":30637:30640   */\n      0x80\n        /* \"#utility.yul\":30626:30635   */\n      dup4\n        /* \"#utility.yul\":30622:30641   */\n      add\n        /* \"#utility.yul\":30615:30664   */\n      mstore\n        /* \"#utility.yul\":30681:30757   */\n      tag_792\n        /* \"#utility.yul\":30752:30756   */\n      dup2\n        /* \"#utility.yul\":30743:30749   */\n      dup5\n        /* \"#utility.yul\":30681:30757   */\n      tag_499\n      jump\t// in\n    tag_792:\n        /* \"#utility.yul\":30673:30757   */\n      swap1\n      pop\n        /* \"#utility.yul\":30025:30764   */\n      swap7\n      swap6\n      pop\n      pop\n      pop\n      pop\n      pop\n      pop\n      jump\t// out\n        /* \"#utility.yul\":30770:31212   */\n    tag_351:\n        /* \"#utility.yul\":30919:30923   */\n      0x00\n        /* \"#utility.yul\":30957:30959   */\n      0x60\n        /* \"#utility.yul\":30946:30955   */\n      dup3\n        /* \"#utility.yul\":30942:30960   */\n      add\n        /* \"#utility.yul\":30934:30960   */\n      swap1\n      pop\n        /* \"#utility.yul\":30970:31041   */\n      tag_794\n        /* \"#utility.yul\":31038:31039   */\n      0x00\n        /* \"#utility.yul\":31027:31036   */\n      dup4\n        /* \"#utility.yul\":31023:31040   */\n      add\n        /* \"#utility.yul\":31014:31020   */\n      dup7\n        /* \"#utility.yul\":30970:31041   */\n      tag_471\n      jump\t// in\n    tag_794:\n        /* \"#utility.yul\":31051:31123   */\n      tag_795\n        /* \"#utility.yul\":31119:31121   */\n      0x20\n        /* \"#utility.yul\":31108:31117   */\n      dup4\n        /* \"#utility.yul\":31104:31122   */\n      add\n        /* \"#utility.yul\":31095:31101   */\n      dup6\n        /* \"#utility.yul\":31051:31123   */\n      tag_471\n      jump\t// in\n    tag_795:\n        /* \"#utility.yul\":31133:31205   */\n      tag_796\n        /* \"#utility.yul\":31201:31203   */\n      0x40\n        /* \"#utility.yul\":31190:31199   */\n      dup4\n        /* \"#utility.yul\":31186:31204   */\n      add\n        /* \"#utility.yul\":31177:31183   */\n      dup5\n        /* \"#utility.yul\":31133:31205   */\n      tag_425\n      jump\t// in\n    tag_796:\n        /* \"#utility.yul\":30770:31212   */\n      swap5\n      swap4\n      pop\n      pop\n      pop\n      pop\n      jump\t// out\n        /* \"#utility.yul\":31218:31395   */\n    tag_500:\n        /* \"#utility.yul\":31358:31387   */\n      0x436f756e7465723a2064656372656d656e74206f766572666c6f770000000000\n        /* \"#utility.yul\":31354:31355   */\n      0x00\n        /* \"#utility.yul\":31346:31352   */\n      dup3\n        /* \"#utility.yul\":31342:31356   */\n      add\n        /* \"#utility.yul\":31335:31388   */\n      mstore\n        /* \"#utility.yul\":31218:31395   */\n      pop\n      jump\t// out\n        /* \"#utility.yul\":31401:31767   */\n    tag_501:\n        /* \"#utility.yul\":31543:31546   */\n      0x00\n        /* \"#utility.yul\":31564:31631   */\n      tag_799\n        /* \"#utility.yul\":31628:31630   */\n      0x1b\n        /* \"#utility.yul\":31623:31626   */\n      dup4\n        /* \"#utility.yul\":31564:31631   */\n      tag_488\n      jump\t// in\n    tag_799:\n        /* \"#utility.yul\":31557:31631   */\n      swap2\n      pop\n        /* \"#utility.yul\":31640:31733   */\n      tag_800\n        /* \"#utility.yul\":31729:31732   */\n      dup3\n        /* \"#utility.yul\":31640:31733   */\n      tag_500\n      jump\t// in\n    tag_800:\n        /* \"#utility.yul\":31758:31760   */\n      0x20\n        /* \"#utility.yul\":31753:31756   */\n      dup3\n        /* \"#utility.yul\":31749:31761   */\n      add\n        /* \"#utility.yul\":31742:31761   */\n      swap1\n      pop\n        /* \"#utility.yul\":31401:31767   */\n      swap2\n      swap1\n      pop\n      jump\t// out\n        /* \"#utility.yul\":31773:32192   */\n    tag_420:\n        /* \"#utility.yul\":31939:31943   */\n      0x00\n        /* \"#utility.yul\":31977:31979   */\n      0x20\n        /* \"#utility.yul\":31966:31975   */\n      dup3\n        /* \"#utility.yul\":31962:31980   */\n      add\n        /* \"#utility.yul\":31954:31980   */\n      swap1\n      pop\n        /* \"#utility.yul\":32026:32035   */\n      dup2\n        /* \"#utility.yul\":32020:32024   */\n      dup2\n        /* \"#utility.yul\":32016:32036   */\n      sub\n        /* \"#utility.yul\":32012:32013   */\n      0x00\n        /* \"#utility.yul\":32001:32010   */\n      dup4\n        /* \"#utility.yul\":31997:32014   */\n      add\n        /* \"#utility.yul\":31990:32037   */\n      mstore\n        /* \"#utility.yul\":32054:32185   */\n      tag_802\n        /* \"#utility.yul\":32180:32184   */\n      dup2\n        /* \"#utility.yul\":32054:32185   */\n      tag_501\n      jump\t// in\n    tag_802:\n        /* \"#utility.yul\":32046:32185   */\n      swap1\n      pop\n        /* \"#utility.yul\":31773:32192   */\n      swap2\n      swap1\n      pop\n      jump\t// out\n\n    auxdata: 0xa2646970667358221220fbe700276f2d99e495cbad5d5faa8c5c21e783c5363adbf45213b4ac37c8e13a64736f6c63430008180033\n}\n",
				"bytecode": {
					"linkReferences": {},
					"object": "6080604052600260035f6101000a81548160ff021916908360ff1602179055503480156200002b575f80fd5b50335f73ffffffffffffffffffffffffffffffffffffffff168173ffffffffffffffffffffffffffffffffffffffff1603620000a0575f6040517f1e4fbdf7000000000000000000000000000000000000000000000000000000008152600401620000979190620002ce565b60405180910390fd5b620000b181620001aa60201b60201c565b505f8060146101000a81548160ff021916908315150217905550620000dd60026200026b60201b60201c565b60405180606001604052805f73ffffffffffffffffffffffffffffffffffffffff1681526020015f151581526020014281525060055f6200012560026200027f60201b60201c565b5f1b81526020019081526020015f205f820151815f015f6101000a81548173ffffffffffffffffffffffffffffffffffffffff021916908373ffffffffffffffffffffffffffffffffffffffff1602179055506020820151815f0160146101000a81548160ff02191690831515021790555060408201518160010155905050620002e9565b5f805f9054906101000a900473ffffffffffffffffffffffffffffffffffffffff169050815f806101000a81548173ffffffffffffffffffffffffffffffffffffffff021916908373ffffffffffffffffffffffffffffffffffffffff1602179055508173ffffffffffffffffffffffffffffffffffffffff168173ffffffffffffffffffffffffffffffffffffffff167f8be0079c531659141344cd1fd0a4f28419497f9722a3daafe3b4186f6b6457e060405160405180910390a35050565b6001815f015f828254019250508190555050565b5f815f01549050919050565b5f73ffffffffffffffffffffffffffffffffffffffff82169050919050565b5f620002b6826200028b565b9050919050565b620002c881620002aa565b82525050565b5f602082019050620002e35f830184620002bd565b92915050565b612f7680620002f75f395ff3fe608060405260043610610165575f3560e01c806375e6e600116100d0578063b2f7c6e011610089578063e6062e1a11610063578063e6062e1a14610536578063f1a3b94314610574578063f2fde38b146105b0578063f7edbbac146105d857610165565b8063b2f7c6e01461048e578063cacf11e7146104be578063d48bfca7146104fa57610165565b806375e6e6001461036b5780638456cb59146103ac5780638da5cb5b146103c25780639230b2bc146103ec57806395a7a95314610416578063a37b06d41461045257610165565b8063443910e011610122578063443910e0146102615780634df712121461028b57806356a6d9ef146102c757806359770438146102ef5780635c975abb1461032b578063715018a61461035557610165565b806312065fe014610169578063273cbaa0146101935780633ccfd60b146101bd5780633d496362146101d35780633f4ba83a1461020f578063410a1d3214610225575b5f80fd5b348015610174575f80fd5b5061017d610602565b60405161018a91906120ce565b60405180910390f35b34801561019e575f80fd5b506101a7610609565b6040516101b49190612262565b60405180910390f35b3480156101c8575f80fd5b506101d1610788565b005b3480156101de575f80fd5b506101f960048036038101906101f491906122bd565b610847565b6040516102069190612409565b60405180910390f35b34801561021a575f80fd5b50610223610a26565b005b348015610230575f80fd5b5061024b60048036038101906102469190612453565b610a38565b6040516102589190612409565b60405180910390f35b34801561026c575f80fd5b50610275610c61565b6040516102829190612409565b60405180910390f35b348015610296575f80fd5b506102b160048036038101906102ac91906124b4565b610e04565b6040516102be91906124ee565b60405180910390f35b3480156102d2575f80fd5b506102ed60048036038101906102e8919061256c565b610e67565b005b3480156102fa575f80fd5b5061031560048036038101906103109190612453565b610f1c565b6040516103229190612692565b60405180910390f35b348015610336575f80fd5b5061033f6110ec565b60405161034c91906124ee565b60405180910390f35b348015610360575f80fd5b50610369611101565b005b348015610376575f80fd5b50610391600480360381019061038c91906122bd565b611114565b6040516103a3969594939291906126d0565b60405180910390f35b3480156103b7575f80fd5b506103c061118a565b005b3480156103cd575f80fd5b506103d661119c565b6040516103e3919061272f565b60405180910390f35b3480156103f7575f80fd5b506104006111c3565b60405161040d91906120ce565b60405180910390f35b348015610421575f80fd5b5061043c60048036038101906104379190612772565b6111ce565b60405161044991906124ee565b60405180910390f35b34801561045d575f80fd5b50610478600480360381019061047391906127c2565b61129f565b60405161048591906120ce565b60405180910390f35b6104a860048036038101906104a3919061293c565b6112d8565b6040516104b591906124ee565b60405180910390f35b3480156104c9575f80fd5b506104e460048036038101906104df91906122bd565b611823565b6040516104f19190612409565b60405180910390f35b348015610505575f80fd5b50610520600480360381019061051b9190612453565b611a02565b60405161052d91906129e1565b60405180910390f35b348015610541575f80fd5b5061055c600480360381019061055791906122bd565b611b33565b60405161056b939291906129fa565b60405180910390f35b34801561057f575f80fd5b5061059a600480360381019061059591906122bd565b611b84565b6040516105a791906120ce565b60405180910390f35b3480156105bb575f80fd5b506105d660048036038101906105d19190612453565b611c45565b005b3480156105e3575f80fd5b506105ec611cc9565b6040516105f991906120ce565b60405180910390f35b5f47905090565b60605f6106166002611cd4565b67ffffffffffffffff81111561062f5761062e612818565b5b60405190808252806020026020018201604052801561066857816020015b610655611fdf565b81526020019060019003908161064d5790505b5090505f5b6106776002611cd4565b8110156107805760405180608001604052806001836106969190612a5c565b5f1b815260200160055f6001856106ad9190612a5c565b5f1b81526020019081526020015f205f015f9054906101000a900473ffffffffffffffffffffffffffffffffffffffff1673ffffffffffffffffffffffffffffffffffffffff16815260200160055f6001856107099190612a5c565b5f1b81526020019081526020015f205f0160149054906101000a900460ff161515815260200160055f60018561073f9190612a5c565b5f1b81526020019081526020015f206001015481525082828151811061076857610767612a8f565b5b6020026020010181905250808060010191505061066d565b508091505090565b610790611ce0565b5f4790505f61079d61119c565b73ffffffffffffffffffffffffffffffffffffffff16826040516107c090612ae9565b5f6040518083038185875af1925050503d805f81146107fa576040519150601f19603f3d011682016040523d82523d5f602084013e6107ff565b606091505b5050905080610843576040517f08c379a000000000000000000000000000000000000000000000000000000000815260040161083a90612b57565b60405180910390fd5b5050565b60605f6108546001611cd4565b67ffffffffffffffff81111561086d5761086c612818565b5b6040519080825280602002602001820160405280156108a657816020015b61089361201e565b81526020019060019003908161088b5790505b5090505f805b6108b66001611cd4565b811015610a1b578460045f6001846108ce9190612a5c565b5f1b81526020019081526020015f206001015403610a0e5760045f6001836108f69190612a5c565b5f1b81526020019081526020015f206040518060c00160405290815f82015f9054906101000a900473ffffffffffffffffffffffffffffffffffffffff1673ffffffffffffffffffffffffffffffffffffffff1673ffffffffffffffffffffffffffffffffffffffff168152602001600182015481526020016002820154815260200160038201548152602001600482015f9054906101000a900473ffffffffffffffffffffffffffffffffffffffff1673ffffffffffffffffffffffffffffffffffffffff1673ffffffffffffffffffffffffffffffffffffffff1681526020016005820154815250508383815181106109f4576109f3612a8f565b5b60200260200101819052508180610a0a90612b75565b9250505b80806001019150506108ac565b508192505050919050565b610a2e611ce0565b610a36611d67565b565b60605f610a456001611cd4565b67ffffffffffffffff811115610a5e57610a5d612818565b5b604051908082528060200260200182016040528015610a9757816020015b610a8461201e565b815260200190600190039081610a7c5790505b5090505f805b610aa76001611cd4565b811015610c56578473ffffffffffffffffffffffffffffffffffffffff1660045f600184610ad59190612a5c565b5f1b81526020019081526020015f205f015f9054906101000a900473ffffffffffffffffffffffffffffffffffffffff1673ffffffffffffffffffffffffffffffffffffffff1603610c495760045f600183610b319190612a5c565b5f1b81526020019081526020015f206040518060c00160405290815f82015f9054906101000a900473ffffffffffffffffffffffffffffffffffffffff1673ffffffffffffffffffffffffffffffffffffffff1673ffffffffffffffffffffffffffffffffffffffff168152602001600182015481526020016002820154815260200160038201548152602001600482015f9054906101000a900473ffffffffffffffffffffffffffffffffffffffff1673ffffffffffffffffffffffffffffffffffffffff1673ffffffffffffffffffffffffffffffffffffffff168152602001600582015481525050838381518110610c2f57610c2e612a8f565b5b60200260200101819052508180610c4590612b75565b9250505b8080600101915050610a9d565b508192505050919050565b60605f610c6e6001611cd4565b67ffffffffffffffff811115610c8757610c86612818565b5b604051908082528060200260200182016040528015610cc057816020015b610cad61201e565b815260200190600190039081610ca55790505b5090505f5b610ccf6001611cd4565b811015610dfc5760045f600183610ce69190612a5c565b5f1b81526020019081526020015f206040518060c00160405290815f82015f9054906101000a900473ffffffffffffffffffffffffffffffffffffffff1673ffffffffffffffffffffffffffffffffffffffff1673ffffffffffffffffffffffffffffffffffffffff168152602001600182015481526020016002820154815260200160038201548152602001600482015f9054906101000a900473ffffffffffffffffffffffffffffffffffffffff1673ffffffffffffffffffffffffffffffffffffffff1673ffffffffffffffffffffffffffffffffffffffff168152602001600582015481525050828281518110610de457610de3612a8f565b5b60200260200101819052508080600101915050610cc5565b508091505090565b5f610e0d611ce0565b8160035f6101000a81548160ff021916908360ff1602179055507fb5c0fbe3c7e536e86ea6d91ec04bd37128a9bf1e981e06dae9834031254831f982604051610e569190612bcb565b60405180910390a160019050919050565b610e6f611ce0565b5f8273ffffffffffffffffffffffffffffffffffffffff1682604051610e9490612ae9565b5f6040518083038185875af1925050503d805f8114610ece576040519150601f19603f3d011682016040523d82523d5f602084013e610ed3565b606091505b5050905080610f17576040517f08c379a0000000000000000000000000000000000000000000000000000000008152600401610f0e90612b57565b60405180910390fd5b505050565b60605f610f296002611cd4565b67ffffffffffffffff811115610f4257610f41612818565b5b604051908082528060200260200182016040528015610f7b57816020015b610f68612080565b815260200190600190039081610f605790505b5090505f805b610f8b6002611cd4565b8110156110e1578473ffffffffffffffffffffffffffffffffffffffff1660055f600184610fb99190612a5c565b5f1b81526020019081526020015f205f015f9054906101000a900473ffffffffffffffffffffffffffffffffffffffff1673ffffffffffffffffffffffffffffffffffffffff16036110d45760055f6001836110159190612a5c565b5f1b81526020019081526020015f206040518060600160405290815f82015f9054906101000a900473ffffffffffffffffffffffffffffffffffffffff1673ffffffffffffffffffffffffffffffffffffffff1673ffffffffffffffffffffffffffffffffffffffff1681526020015f820160149054906101000a900460ff161515151581526020016001820154815250508383815181106110ba576110b9612a8f565b5b602002602001018190525081806110d090612b75565b9250505b8080600101915050610f81565b508192505050919050565b5f8060149054906101000a900460ff16905090565b611109611ce0565b6111125f611dc8565b565b6004602052805f5260405f205f91509050805f015f9054906101000a900473ffffffffffffffffffffffffffffffffffffffff1690806001015490806002015490806003015490806004015f9054906101000a900473ffffffffffffffffffffffffffffffffffffffff16908060050154905086565b611192611ce0565b61119a611e89565b565b5f805f9054906101000a900473ffffffffffffffffffffffffffffffffffffffff16905090565b6002805f0154905081565b5f6111d7611ce0565b8260055f8681526020019081526020015f205f015f6101000a81548173ffffffffffffffffffffffffffffffffffffffff021916908373ffffffffffffffffffffffffffffffffffffffff1602179055508160055f8681526020019081526020015f205f0160146101000a81548160ff021916908315150217905550837f0178cc6533afb1053a370099de33a8f4a6c10adf023eba537c33721e13dc12738461127e611eeb565b60405161128c929190612be4565b60405180910390a2600190509392505050565b5f606482846112ae9190612c0b565b10156112b8575f80fd5b606482846112c69190612c0b565b6112d09190612c79565b905092915050565b5f6112e1611ef2565b60015f1b8203611403575f340361132f57346040517f9266535100000000000000000000000000000000000000000000000000000000815260040161132691906120ce565b60405180910390fd5b5f8673ffffffffffffffffffffffffffffffffffffffff1661136e8760035f9054906101000a900460ff1660646113669190612ca9565b60ff1661129f565b60405161137a90612ae9565b5f6040518083038185875af1925050503d805f81146113b4576040519150601f19603f3d011682016040523d82523d5f602084013e6113b9565b606091505b50509050806113fd576040517f08c379a00000000000000000000000000000000000000000000000000000000081526004016113f490612d4d565b60405180910390fd5b50611696565b5f60055f8481526020019081526020015f205f015f9054906101000a900473ffffffffffffffffffffffffffffffffffffffff1673ffffffffffffffffffffffffffffffffffffffff166365aeaa953061145b611eeb565b6040518363ffffffff1660e01b8152600401611478929190612be4565b602060405180830381865afa158015611493573d5f803e3d5ffd5b505050506040513d601f19601f820116820180604052508101906114b79190612d7f565b90508581146114ff5785816040517fa24f8be90000000000000000000000000000000000000000000000000000000081526004016114f6929190612daa565b60405180910390fd5b60055f8481526020019081526020015f205f015f9054906101000a900473ffffffffffffffffffffffffffffffffffffffff1673ffffffffffffffffffffffffffffffffffffffff1663760d9bba611555611eeb565b8961157d8a60035f9054906101000a900460ff1660646115759190612ca9565b60ff1661129f565b89896040518663ffffffff1660e01b815260040161159f959493929190612e4b565b5f604051808303815f87803b1580156115b6575f80fd5b505af11580156115c8573d5f803e3d5ffd5b5050505060055f8481526020019081526020015f205f015f9054906101000a900473ffffffffffffffffffffffffffffffffffffffff1673ffffffffffffffffffffffffffffffffffffffff1663760d9bba611622611eeb565b61162a61119c565b6116458a60035f9054906101000a900460ff1660ff1661129f565b89896040518663ffffffff1660e01b8152600401611667959493929190612e4b565b5f604051808303815f87803b15801561167e575f80fd5b505af1158015611690573d5f803e3d5ffd5b50505050505b6116a06001611f33565b6040518060c001604052806116b3611eeb565b73ffffffffffffffffffffffffffffffffffffffff1681526020018381526020018881526020018681526020018773ffffffffffffffffffffffffffffffffffffffff1681526020014281525060045f61170d6001611cd4565b5f1b81526020019081526020015f205f820151815f015f6101000a81548173ffffffffffffffffffffffffffffffffffffffff021916908373ffffffffffffffffffffffffffffffffffffffff1602179055506020820151816001015560408201518160020155606082015181600301556080820151816004015f6101000a81548173ffffffffffffffffffffffffffffffffffffffff021916908373ffffffffffffffffffffffffffffffffffffffff16021790555060a0820151816005015590505086827fd96b33cd6e9829949c7f13033f0a8230587efc5e5d0cff68861945efded28b8a6117fc611eeb565b898960405161180d93929190612ea3565b60405180910390a3600190509695505050505050565b60605f6118306001611cd4565b67ffffffffffffffff81111561184957611848612818565b5b60405190808252806020026020018201604052801561188257816020015b61186f61201e565b8152602001906001900390816118675790505b5090505f805b6118926001611cd4565b8110156119f7578460045f6001846118aa9190612a5c565b5f1b81526020019081526020015f2060020154036119ea5760045f6001836118d29190612a5c565b5f1b81526020019081526020015f206040518060c00160405290815f82015f9054906101000a900473ffffffffffffffffffffffffffffffffffffffff1673ffffffffffffffffffffffffffffffffffffffff1673ffffffffffffffffffffffffffffffffffffffff168152602001600182015481526020016002820154815260200160038201548152602001600482015f9054906101000a900473ffffffffffffffffffffffffffffffffffffffff1673ffffffffffffffffffffffffffffffffffffffff1673ffffffffffffffffffffffffffffffffffffffff1681526020016005820154815250508383815181106119d0576119cf612a8f565b5b602002602001018190525081806119e690612b75565b9250505b8080600101915050611888565b508192505050919050565b5f611a0b611ce0565b611a156002611f33565b60405180606001604052808373ffffffffffffffffffffffffffffffffffffffff1681526020015f151581526020014281525060055f611a556002611cd4565b5f1b81526020019081526020015f205f820151815f015f6101000a81548173ffffffffffffffffffffffffffffffffffffffff021916908373ffffffffffffffffffffffffffffffffffffffff1602179055506020820151815f0160146101000a81548160ff02191690831515021790555060408201518160010155905050611ade6002611cd4565b5f1b7f0e50ffa2b79cb01d7c5404bfe02189a4c5b297cd59bc80608efdc52e3b33461683611b0a611eeb565b604051611b18929190612be4565b60405180910390a2611b2a6002611cd4565b5f1b9050919050565b6005602052805f5260405f205f91509050805f015f9054906101000a900473ffffffffffffffffffffffffffffffffffffffff1690805f0160149054906101000a900460ff16908060010154905083565b5f611b8d611ce0565b60055f8381526020019081526020015f205f8082015f6101000a81549073ffffffffffffffffffffffffffffffffffffffff02191690555f820160146101000a81549060ff0219169055600182015f90555050611bea6002611f47565b611bf46002611cd4565b5f1b7f3afbc119e23990903d2ef3fdf9210a7b06b5f6f85438b0edfcfbf630ad594fcc611c1f611eeb565b604051611c2c919061272f565b60405180910390a2611c3e6002611cd4565b9050919050565b611c4d611ce0565b5f73ffffffffffffffffffffffffffffffffffffffff168173ffffffffffffffffffffffffffffffffffffffff1603611cbd575f6040517f1e4fbdf7000000000000000000000000000000000000000000000000000000008152600401611cb4919061272f565b60405180910390fd5b611cc681611dc8565b50565b6001805f0154905081565b5f815f01549050919050565b611ce8611eeb565b73ffffffffffffffffffffffffffffffffffffffff16611d0661119c565b73ffffffffffffffffffffffffffffffffffffffff1614611d6557611d29611eeb565b6040517f118cdaa7000000000000000000000000000000000000000000000000000000008152600401611d5c919061272f565b60405180910390fd5b565b611d6f611f9f565b5f8060146101000a81548160ff0219169083151502179055507f5db9ee0a495bf2e6ff9c91a7834c1ba4fdd244a5e8aa4e537bd38aeae4b073aa611db1611eeb565b604051611dbe919061272f565b60405180910390a1565b5f805f9054906101000a900473ffffffffffffffffffffffffffffffffffffffff169050815f806101000a81548173ffffffffffffffffffffffffffffffffffffffff021916908373ffffffffffffffffffffffffffffffffffffffff1602179055508173ffffffffffffffffffffffffffffffffffffffff168173ffffffffffffffffffffffffffffffffffffffff167f8be0079c531659141344cd1fd0a4f28419497f9722a3daafe3b4186f6b6457e060405160405180910390a35050565b611e91611ef2565b60015f60146101000a81548160ff0219169083151502179055507f62e78cea01bee320cd4e420270b5ea74000d11b0c9f74754ebdbfc544b05a258611ed4611eeb565b604051611ee1919061272f565b60405180910390a1565b5f33905090565b611efa6110ec565b15611f31576040517fd93c066500000000000000000000000000000000000000000000000000000000815260040160405180910390fd5b565b6001815f015f828254019250508190555050565b5f815f015490505f8111611f90576040517f08c379a0000000000000000000000000000000000000000000000000000000008152600401611f8790612f22565b60405180910390fd5b60018103825f01819055505050565b611fa76110ec565b611fdd576040517f8dfc202b00000000000000000000000000000000000000000000000000000000815260040160405180910390fd5b565b60405180608001604052805f80191681526020015f73ffffffffffffffffffffffffffffffffffffffff1681526020015f151581526020015f81525090565b6040518060c001604052805f73ffffffffffffffffffffffffffffffffffffffff1681526020015f80191681526020015f80191681526020015f81526020015f73ffffffffffffffffffffffffffffffffffffffff1681526020015f81525090565b60405180606001604052805f73ffffffffffffffffffffffffffffffffffffffff1681526020015f151581526020015f81525090565b5f819050919050565b6120c8816120b6565b82525050565b5f6020820190506120e15f8301846120bf565b92915050565b5f81519050919050565b5f82825260208201905092915050565b5f819050602082019050919050565b5f819050919050565b61212281612110565b82525050565b5f73ffffffffffffffffffffffffffffffffffffffff82169050919050565b5f61215182612128565b9050919050565b61216181612147565b82525050565b5f8115159050919050565b61217b81612167565b82525050565b61218a816120b6565b82525050565b608082015f8201516121a45f850182612119565b5060208201516121b76020850182612158565b5060408201516121ca6040850182612172565b5060608201516121dd6060850182612181565b50505050565b5f6121ee8383612190565b60808301905092915050565b5f602082019050919050565b5f612210826120e7565b61221a81856120f1565b935061222583612101565b805f5b8381101561225557815161223c88826121e3565b9750612247836121fa565b925050600181019050612228565b5085935050505092915050565b5f6020820190508181035f83015261227a8184612206565b905092915050565b5f604051905090565b5f80fd5b5f80fd5b61229c81612110565b81146122a6575f80fd5b50565b5f813590506122b781612293565b92915050565b5f602082840312156122d2576122d161228b565b5b5f6122df848285016122a9565b91505092915050565b5f81519050919050565b5f82825260208201905092915050565b5f819050602082019050919050565b60c082015f8201516123255f850182612158565b5060208201516123386020850182612119565b50604082015161234b6040850182612119565b50606082015161235e6060850182612181565b5060808201516123716080850182612158565b5060a082015161238460a0850182612181565b50505050565b5f6123958383612311565b60c08301905092915050565b5f602082019050919050565b5f6123b7826122e8565b6123c181856122f2565b93506123cc83612302565b805f5b838110156123fc5781516123e3888261238a565b97506123ee836123a1565b9250506001810190506123cf565b5085935050505092915050565b5f6020820190508181035f83015261242181846123ad565b905092915050565b61243281612147565b811461243c575f80fd5b50565b5f8135905061244d81612429565b92915050565b5f602082840312156124685761246761228b565b5b5f6124758482850161243f565b91505092915050565b5f60ff82169050919050565b6124938161247e565b811461249d575f80fd5b50565b5f813590506124ae8161248a565b92915050565b5f602082840312156124c9576124c861228b565b5b5f6124d6848285016124a0565b91505092915050565b6124e881612167565b82525050565b5f6020820190506125015f8301846124df565b92915050565b5f61251182612128565b9050919050565b61252181612507565b811461252b575f80fd5b50565b5f8135905061253c81612518565b92915050565b61254b816120b6565b8114612555575f80fd5b50565b5f8135905061256681612542565b92915050565b5f80604083850312156125825761258161228b565b5b5f61258f8582860161252e565b92505060206125a085828601612558565b9150509250929050565b5f81519050919050565b5f82825260208201905092915050565b5f819050602082019050919050565b606082015f8201516125e75f850182612158565b5060208201516125fa6020850182612172565b50604082015161260d6040850182612181565b50505050565b5f61261e83836125d3565b60608301905092915050565b5f602082019050919050565b5f612640826125aa565b61264a81856125b4565b9350612655836125c4565b805f5b8381101561268557815161266c8882612613565b97506126778361262a565b925050600181019050612658565b5085935050505092915050565b5f6020820190508181035f8301526126aa8184612636565b905092915050565b6126bb81612147565b82525050565b6126ca81612110565b82525050565b5f60c0820190506126e35f8301896126b2565b6126f060208301886126c1565b6126fd60408301876126c1565b61270a60608301866120bf565b61271760808301856126b2565b61272460a08301846120bf565b979650505050505050565b5f6020820190506127425f8301846126b2565b92915050565b61275181612167565b811461275b575f80fd5b50565b5f8135905061276c81612748565b92915050565b5f805f606084860312156127895761278861228b565b5b5f612796868287016122a9565b93505060206127a78682870161243f565b92505060406127b88682870161275e565b9150509250925092565b5f80604083850312156127d8576127d761228b565b5b5f6127e585828601612558565b92505060206127f685828601612558565b9150509250929050565b5f80fd5b5f80fd5b5f601f19601f8301169050919050565b7f4e487b71000000000000000000000000000000000000000000000000000000005f52604160045260245ffd5b61284e82612808565b810181811067ffffffffffffffff8211171561286d5761286c612818565b5b80604052505050565b5f61287f612282565b905061288b8282612845565b919050565b5f67ffffffffffffffff8211156128aa576128a9612818565b5b6128b382612808565b9050602081019050919050565b828183375f83830152505050565b5f6128e06128db84612890565b612876565b9050828152602081018484840111156128fc576128fb612804565b5b6129078482856128c0565b509392505050565b5f82601f83011261292357612922612800565b5b81356129338482602086016128ce565b91505092915050565b5f805f805f8060c087890312156129565761295561228b565b5b5f61296389828a016122a9565b965050602061297489828a0161243f565b955050604061298589828a01612558565b945050606061299689828a0161275e565b935050608087013567ffffffffffffffff8111156129b7576129b661228f565b5b6129c389828a0161290f565b92505060a06129d489828a016122a9565b9150509295509295509295565b5f6020820190506129f45f8301846126c1565b92915050565b5f606082019050612a0d5f8301866126b2565b612a1a60208301856124df565b612a2760408301846120bf565b949350505050565b7f4e487b71000000000000000000000000000000000000000000000000000000005f52601160045260245ffd5b5f612a66826120b6565b9150612a71836120b6565b9250828201905080821115612a8957612a88612a2f565b5b92915050565b7f4e487b71000000000000000000000000000000000000000000000000000000005f52603260045260245ffd5b5f81905092915050565b50565b5f612ad45f83612abc565b9150612adf82612ac6565b5f82019050919050565b5f612af382612ac9565b9150819050919050565b5f82825260208201905092915050565b7f4661696c656400000000000000000000000000000000000000000000000000005f82015250565b5f612b41600683612afd565b9150612b4c82612b0d565b602082019050919050565b5f6020820190508181035f830152612b6e81612b35565b9050919050565b5f612b7f826120b6565b91507fffffffffffffffffffffffffffffffffffffffffffffffffffffffffffffffff8203612bb157612bb0612a2f565b5b600182019050919050565b612bc58161247e565b82525050565b5f602082019050612bde5f830184612bbc565b92915050565b5f604082019050612bf75f8301856126b2565b612c0460208301846126b2565b9392505050565b5f612c15826120b6565b9150612c20836120b6565b9250828202612c2e816120b6565b91508282048414831517612c4557612c44612a2f565b5b5092915050565b7f4e487b71000000000000000000000000000000000000000000000000000000005f52601260045260245ffd5b5f612c83826120b6565b9150612c8e836120b6565b925082612c9e57612c9d612c4c565b5b828204905092915050565b5f612cb38261247e565b9150612cbe8361247e565b9250828203905060ff811115612cd757612cd6612a2f565b5b92915050565b7f4661696c656420746f2073656e6420457468657220746f20746865206d616e615f8201527f6765720000000000000000000000000000000000000000000000000000000000602082015250565b5f612d37602383612afd565b9150612d4282612cdd565b604082019050919050565b5f6020820190508181035f830152612d6481612d2b565b9050919050565b5f81519050612d7981612542565b92915050565b5f60208284031215612d9457612d9361228b565b5b5f612da184828501612d6b565b91505092915050565b5f604082019050612dbd5f8301856120bf565b612dca60208301846120bf565b9392505050565b5f81519050919050565b5f82825260208201905092915050565b5f5b83811015612e08578082015181840152602081019050612ded565b5f8484015250505050565b5f612e1d82612dd1565b612e278185612ddb565b9350612e37818560208601612deb565b612e4081612808565b840191505092915050565b5f60a082019050612e5e5f8301886126b2565b612e6b60208301876126b2565b612e7860408301866120bf565b612e8560608301856124df565b8181036080830152612e978184612e13565b90509695505050505050565b5f606082019050612eb65f8301866126b2565b612ec360208301856126b2565b612ed060408301846120bf565b949350505050565b7f436f756e7465723a2064656372656d656e74206f766572666c6f7700000000005f82015250565b5f612f0c601b83612afd565b9150612f1782612ed8565b602082019050919050565b5f6020820190508181035f830152612f3981612f00565b905091905056fea2646970667358221220fbe700276f2d99e495cbad5d5faa8c5c21e783c5363adbf45213b4ac37c8e13a64736f6c63430008180033",
					"opcodes": "PUSH1 0x80 PUSH1 0x40 MSTORE PUSH1 0x2 PUSH1 0x3 PUSH0 PUSH2 0x100 EXP DUP2 SLOAD DUP2 PUSH1 0xFF MUL NOT AND SWAP1 DUP4 PUSH1 0xFF AND MUL OR SWAP1 SSTORE POP CALLVALUE DUP1 ISZERO PUSH3 0x2B JUMPI PUSH0 DUP1 REVERT JUMPDEST POP CALLER PUSH0 PUSH20 0xFFFFFFFFFFFFFFFFFFFFFFFFFFFFFFFFFFFFFFFF AND DUP2 PUSH20 0xFFFFFFFFFFFFFFFFFFFFFFFFFFFFFFFFFFFFFFFF AND SUB PUSH3 0xA0 JUMPI PUSH0 PUSH1 0x40 MLOAD PUSH32 0x1E4FBDF700000000000000000000000000000000000000000000000000000000 DUP2 MSTORE PUSH1 0x4 ADD PUSH3 0x97 SWAP2 SWAP1 PUSH3 0x2CE JUMP JUMPDEST PUSH1 0x40 MLOAD DUP1 SWAP2 SUB SWAP1 REVERT JUMPDEST PUSH3 0xB1 DUP2 PUSH3 0x1AA PUSH1 0x20 SHL PUSH1 0x20 SHR JUMP JUMPDEST POP PUSH0 DUP1 PUSH1 0x14 PUSH2 0x100 EXP DUP2 SLOAD DUP2 PUSH1 0xFF MUL NOT AND SWAP1 DUP4 ISZERO ISZERO MUL OR SWAP1 SSTORE POP PUSH3 0xDD PUSH1 0x2 PUSH3 0x26B PUSH1 0x20 SHL PUSH1 0x20 SHR JUMP JUMPDEST PUSH1 0x40 MLOAD DUP1 PUSH1 0x60 ADD PUSH1 0x40 MSTORE DUP1 PUSH0 PUSH20 0xFFFFFFFFFFFFFFFFFFFFFFFFFFFFFFFFFFFFFFFF AND DUP2 MSTORE PUSH1 0x20 ADD PUSH0 ISZERO ISZERO DUP2 MSTORE PUSH1 0x20 ADD TIMESTAMP DUP2 MSTORE POP PUSH1 0x5 PUSH0 PUSH3 0x125 PUSH1 0x2 PUSH3 0x27F PUSH1 0x20 SHL PUSH1 0x20 SHR JUMP JUMPDEST PUSH0 SHL DUP2 MSTORE PUSH1 0x20 ADD SWAP1 DUP2 MSTORE PUSH1 0x20 ADD PUSH0 KECCAK256 PUSH0 DUP3 ADD MLOAD DUP2 PUSH0 ADD PUSH0 PUSH2 0x100 EXP DUP2 SLOAD DUP2 PUSH20 0xFFFFFFFFFFFFFFFFFFFFFFFFFFFFFFFFFFFFFFFF MUL NOT AND SWAP1 DUP4 PUSH20 0xFFFFFFFFFFFFFFFFFFFFFFFFFFFFFFFFFFFFFFFF AND MUL OR SWAP1 SSTORE POP PUSH1 0x20 DUP3 ADD MLOAD DUP2 PUSH0 ADD PUSH1 0x14 PUSH2 0x100 EXP DUP2 SLOAD DUP2 PUSH1 0xFF MUL NOT AND SWAP1 DUP4 ISZERO ISZERO MUL OR SWAP1 SSTORE POP PUSH1 0x40 DUP3 ADD MLOAD DUP2 PUSH1 0x1 ADD SSTORE SWAP1 POP POP PUSH3 0x2E9 JUMP JUMPDEST PUSH0 DUP1 PUSH0 SWAP1 SLOAD SWAP1 PUSH2 0x100 EXP SWAP1 DIV PUSH20 0xFFFFFFFFFFFFFFFFFFFFFFFFFFFFFFFFFFFFFFFF AND SWAP1 POP DUP2 PUSH0 DUP1 PUSH2 0x100 EXP DUP2 SLOAD DUP2 PUSH20 0xFFFFFFFFFFFFFFFFFFFFFFFFFFFFFFFFFFFFFFFF MUL NOT AND SWAP1 DUP4 PUSH20 0xFFFFFFFFFFFFFFFFFFFFFFFFFFFFFFFFFFFFFFFF AND MUL OR SWAP1 SSTORE POP DUP2 PUSH20 0xFFFFFFFFFFFFFFFFFFFFFFFFFFFFFFFFFFFFFFFF AND DUP2 PUSH20 0xFFFFFFFFFFFFFFFFFFFFFFFFFFFFFFFFFFFFFFFF AND PUSH32 0x8BE0079C531659141344CD1FD0A4F28419497F9722A3DAAFE3B4186F6B6457E0 PUSH1 0x40 MLOAD PUSH1 0x40 MLOAD DUP1 SWAP2 SUB SWAP1 LOG3 POP POP JUMP JUMPDEST PUSH1 0x1 DUP2 PUSH0 ADD PUSH0 DUP3 DUP3 SLOAD ADD SWAP3 POP POP DUP2 SWAP1 SSTORE POP POP JUMP JUMPDEST PUSH0 DUP2 PUSH0 ADD SLOAD SWAP1 POP SWAP2 SWAP1 POP JUMP JUMPDEST PUSH0 PUSH20 0xFFFFFFFFFFFFFFFFFFFFFFFFFFFFFFFFFFFFFFFF DUP3 AND SWAP1 POP SWAP2 SWAP1 POP JUMP JUMPDEST PUSH0 PUSH3 0x2B6 DUP3 PUSH3 0x28B JUMP JUMPDEST SWAP1 POP SWAP2 SWAP1 POP JUMP JUMPDEST PUSH3 0x2C8 DUP2 PUSH3 0x2AA JUMP JUMPDEST DUP3 MSTORE POP POP JUMP JUMPDEST PUSH0 PUSH1 0x20 DUP3 ADD SWAP1 POP PUSH3 0x2E3 PUSH0 DUP4 ADD DUP5 PUSH3 0x2BD JUMP JUMPDEST SWAP3 SWAP2 POP POP JUMP JUMPDEST PUSH2 0x2F76 DUP1 PUSH3 0x2F7 PUSH0 CODECOPY PUSH0 RETURN INVALID PUSH1 0x80 PUSH1 0x40 MSTORE PUSH1 0x4 CALLDATASIZE LT PUSH2 0x165 JUMPI PUSH0 CALLDATALOAD PUSH1 0xE0 SHR DUP1 PUSH4 0x75E6E600 GT PUSH2 0xD0 JUMPI DUP1 PUSH4 0xB2F7C6E0 GT PUSH2 0x89 JUMPI DUP1 PUSH4 0xE6062E1A GT PUSH2 0x63 JUMPI DUP1 PUSH4 0xE6062E1A EQ PUSH2 0x536 JUMPI DUP1 PUSH4 0xF1A3B943 EQ PUSH2 0x574 JUMPI DUP1 PUSH4 0xF2FDE38B EQ PUSH2 0x5B0 JUMPI DUP1 PUSH4 0xF7EDBBAC EQ PUSH2 0x5D8 JUMPI PUSH2 0x165 JUMP JUMPDEST DUP1 PUSH4 0xB2F7C6E0 EQ PUSH2 0x48E JUMPI DUP1 PUSH4 0xCACF11E7 EQ PUSH2 0x4BE JUMPI DUP1 PUSH4 0xD48BFCA7 EQ PUSH2 0x4FA JUMPI PUSH2 0x165 JUMP JUMPDEST DUP1 PUSH4 0x75E6E600 EQ PUSH2 0x36B JUMPI DUP1 PUSH4 0x8456CB59 EQ PUSH2 0x3AC JUMPI DUP1 PUSH4 0x8DA5CB5B EQ PUSH2 0x3C2 JUMPI DUP1 PUSH4 0x9230B2BC EQ PUSH2 0x3EC JUMPI DUP1 PUSH4 0x95A7A953 EQ PUSH2 0x416 JUMPI DUP1 PUSH4 0xA37B06D4 EQ PUSH2 0x452 JUMPI PUSH2 0x165 JUMP JUMPDEST DUP1 PUSH4 0x443910E0 GT PUSH2 0x122 JUMPI DUP1 PUSH4 0x443910E0 EQ PUSH2 0x261 JUMPI DUP1 PUSH4 0x4DF71212 EQ PUSH2 0x28B JUMPI DUP1 PUSH4 0x56A6D9EF EQ PUSH2 0x2C7 JUMPI DUP1 PUSH4 0x59770438 EQ PUSH2 0x2EF JUMPI DUP1 PUSH4 0x5C975ABB EQ PUSH2 0x32B JUMPI DUP1 PUSH4 0x715018A6 EQ PUSH2 0x355 JUMPI PUSH2 0x165 JUMP JUMPDEST DUP1 PUSH4 0x12065FE0 EQ PUSH2 0x169 JUMPI DUP1 PUSH4 0x273CBAA0 EQ PUSH2 0x193 JUMPI DUP1 PUSH4 0x3CCFD60B EQ PUSH2 0x1BD JUMPI DUP1 PUSH4 0x3D496362 EQ PUSH2 0x1D3 JUMPI DUP1 PUSH4 0x3F4BA83A EQ PUSH2 0x20F JUMPI DUP1 PUSH4 0x410A1D32 EQ PUSH2 0x225 JUMPI JUMPDEST PUSH0 DUP1 REVERT JUMPDEST CALLVALUE DUP1 ISZERO PUSH2 0x174 JUMPI PUSH0 DUP1 REVERT JUMPDEST POP PUSH2 0x17D PUSH2 0x602 JUMP JUMPDEST PUSH1 0x40 MLOAD PUSH2 0x18A SWAP2 SWAP1 PUSH2 0x20CE JUMP JUMPDEST PUSH1 0x40 MLOAD DUP1 SWAP2 SUB SWAP1 RETURN JUMPDEST CALLVALUE DUP1 ISZERO PUSH2 0x19E JUMPI PUSH0 DUP1 REVERT JUMPDEST POP PUSH2 0x1A7 PUSH2 0x609 JUMP JUMPDEST PUSH1 0x40 MLOAD PUSH2 0x1B4 SWAP2 SWAP1 PUSH2 0x2262 JUMP JUMPDEST PUSH1 0x40 MLOAD DUP1 SWAP2 SUB SWAP1 RETURN JUMPDEST CALLVALUE DUP1 ISZERO PUSH2 0x1C8 JUMPI PUSH0 DUP1 REVERT JUMPDEST POP PUSH2 0x1D1 PUSH2 0x788 JUMP JUMPDEST STOP JUMPDEST CALLVALUE DUP1 ISZERO PUSH2 0x1DE JUMPI PUSH0 DUP1 REVERT JUMPDEST POP PUSH2 0x1F9 PUSH1 0x4 DUP1 CALLDATASIZE SUB DUP2 ADD SWAP1 PUSH2 0x1F4 SWAP2 SWAP1 PUSH2 0x22BD JUMP JUMPDEST PUSH2 0x847 JUMP JUMPDEST PUSH1 0x40 MLOAD PUSH2 0x206 SWAP2 SWAP1 PUSH2 0x2409 JUMP JUMPDEST PUSH1 0x40 MLOAD DUP1 SWAP2 SUB SWAP1 RETURN JUMPDEST CALLVALUE DUP1 ISZERO PUSH2 0x21A JUMPI PUSH0 DUP1 REVERT JUMPDEST POP PUSH2 0x223 PUSH2 0xA26 JUMP JUMPDEST STOP JUMPDEST CALLVALUE DUP1 ISZERO PUSH2 0x230 JUMPI PUSH0 DUP1 REVERT JUMPDEST POP PUSH2 0x24B PUSH1 0x4 DUP1 CALLDATASIZE SUB DUP2 ADD SWAP1 PUSH2 0x246 SWAP2 SWAP1 PUSH2 0x2453 JUMP JUMPDEST PUSH2 0xA38 JUMP JUMPDEST PUSH1 0x40 MLOAD PUSH2 0x258 SWAP2 SWAP1 PUSH2 0x2409 JUMP JUMPDEST PUSH1 0x40 MLOAD DUP1 SWAP2 SUB SWAP1 RETURN JUMPDEST CALLVALUE DUP1 ISZERO PUSH2 0x26C JUMPI PUSH0 DUP1 REVERT JUMPDEST POP PUSH2 0x275 PUSH2 0xC61 JUMP JUMPDEST PUSH1 0x40 MLOAD PUSH2 0x282 SWAP2 SWAP1 PUSH2 0x2409 JUMP JUMPDEST PUSH1 0x40 MLOAD DUP1 SWAP2 SUB SWAP1 RETURN JUMPDEST CALLVALUE DUP1 ISZERO PUSH2 0x296 JUMPI PUSH0 DUP1 REVERT JUMPDEST POP PUSH2 0x2B1 PUSH1 0x4 DUP1 CALLDATASIZE SUB DUP2 ADD SWAP1 PUSH2 0x2AC SWAP2 SWAP1 PUSH2 0x24B4 JUMP JUMPDEST PUSH2 0xE04 JUMP JUMPDEST PUSH1 0x40 MLOAD PUSH2 0x2BE SWAP2 SWAP1 PUSH2 0x24EE JUMP JUMPDEST PUSH1 0x40 MLOAD DUP1 SWAP2 SUB SWAP1 RETURN JUMPDEST CALLVALUE DUP1 ISZERO PUSH2 0x2D2 JUMPI PUSH0 DUP1 REVERT JUMPDEST POP PUSH2 0x2ED PUSH1 0x4 DUP1 CALLDATASIZE SUB DUP2 ADD SWAP1 PUSH2 0x2E8 SWAP2 SWAP1 PUSH2 0x256C JUMP JUMPDEST PUSH2 0xE67 JUMP JUMPDEST STOP JUMPDEST CALLVALUE DUP1 ISZERO PUSH2 0x2FA JUMPI PUSH0 DUP1 REVERT JUMPDEST POP PUSH2 0x315 PUSH1 0x4 DUP1 CALLDATASIZE SUB DUP2 ADD SWAP1 PUSH2 0x310 SWAP2 SWAP1 PUSH2 0x2453 JUMP JUMPDEST PUSH2 0xF1C JUMP JUMPDEST PUSH1 0x40 MLOAD PUSH2 0x322 SWAP2 SWAP1 PUSH2 0x2692 JUMP JUMPDEST PUSH1 0x40 MLOAD DUP1 SWAP2 SUB SWAP1 RETURN JUMPDEST CALLVALUE DUP1 ISZERO PUSH2 0x336 JUMPI PUSH0 DUP1 REVERT JUMPDEST POP PUSH2 0x33F PUSH2 0x10EC JUMP JUMPDEST PUSH1 0x40 MLOAD PUSH2 0x34C SWAP2 SWAP1 PUSH2 0x24EE JUMP JUMPDEST PUSH1 0x40 MLOAD DUP1 SWAP2 SUB SWAP1 RETURN JUMPDEST CALLVALUE DUP1 ISZERO PUSH2 0x360 JUMPI PUSH0 DUP1 REVERT JUMPDEST POP PUSH2 0x369 PUSH2 0x1101 JUMP JUMPDEST STOP JUMPDEST CALLVALUE DUP1 ISZERO PUSH2 0x376 JUMPI PUSH0 DUP1 REVERT JUMPDEST POP PUSH2 0x391 PUSH1 0x4 DUP1 CALLDATASIZE SUB DUP2 ADD SWAP1 PUSH2 0x38C SWAP2 SWAP1 PUSH2 0x22BD JUMP JUMPDEST PUSH2 0x1114 JUMP JUMPDEST PUSH1 0x40 MLOAD PUSH2 0x3A3 SWAP7 SWAP6 SWAP5 SWAP4 SWAP3 SWAP2 SWAP1 PUSH2 0x26D0 JUMP JUMPDEST PUSH1 0x40 MLOAD DUP1 SWAP2 SUB SWAP1 RETURN JUMPDEST CALLVALUE DUP1 ISZERO PUSH2 0x3B7 JUMPI PUSH0 DUP1 REVERT JUMPDEST POP PUSH2 0x3C0 PUSH2 0x118A JUMP JUMPDEST STOP JUMPDEST CALLVALUE DUP1 ISZERO PUSH2 0x3CD JUMPI PUSH0 DUP1 REVERT JUMPDEST POP PUSH2 0x3D6 PUSH2 0x119C JUMP JUMPDEST PUSH1 0x40 MLOAD PUSH2 0x3E3 SWAP2 SWAP1 PUSH2 0x272F JUMP JUMPDEST PUSH1 0x40 MLOAD DUP1 SWAP2 SUB SWAP1 RETURN JUMPDEST CALLVALUE DUP1 ISZERO PUSH2 0x3F7 JUMPI PUSH0 DUP1 REVERT JUMPDEST POP PUSH2 0x400 PUSH2 0x11C3 JUMP JUMPDEST PUSH1 0x40 MLOAD PUSH2 0x40D SWAP2 SWAP1 PUSH2 0x20CE JUMP JUMPDEST PUSH1 0x40 MLOAD DUP1 SWAP2 SUB SWAP1 RETURN JUMPDEST CALLVALUE DUP1 ISZERO PUSH2 0x421 JUMPI PUSH0 DUP1 REVERT JUMPDEST POP PUSH2 0x43C PUSH1 0x4 DUP1 CALLDATASIZE SUB DUP2 ADD SWAP1 PUSH2 0x437 SWAP2 SWAP1 PUSH2 0x2772 JUMP JUMPDEST PUSH2 0x11CE JUMP JUMPDEST PUSH1 0x40 MLOAD PUSH2 0x449 SWAP2 SWAP1 PUSH2 0x24EE JUMP JUMPDEST PUSH1 0x40 MLOAD DUP1 SWAP2 SUB SWAP1 RETURN JUMPDEST CALLVALUE DUP1 ISZERO PUSH2 0x45D JUMPI PUSH0 DUP1 REVERT JUMPDEST POP PUSH2 0x478 PUSH1 0x4 DUP1 CALLDATASIZE SUB DUP2 ADD SWAP1 PUSH2 0x473 SWAP2 SWAP1 PUSH2 0x27C2 JUMP JUMPDEST PUSH2 0x129F JUMP JUMPDEST PUSH1 0x40 MLOAD PUSH2 0x485 SWAP2 SWAP1 PUSH2 0x20CE JUMP JUMPDEST PUSH1 0x40 MLOAD DUP1 SWAP2 SUB SWAP1 RETURN JUMPDEST PUSH2 0x4A8 PUSH1 0x4 DUP1 CALLDATASIZE SUB DUP2 ADD SWAP1 PUSH2 0x4A3 SWAP2 SWAP1 PUSH2 0x293C JUMP JUMPDEST PUSH2 0x12D8 JUMP JUMPDEST PUSH1 0x40 MLOAD PUSH2 0x4B5 SWAP2 SWAP1 PUSH2 0x24EE JUMP JUMPDEST PUSH1 0x40 MLOAD DUP1 SWAP2 SUB SWAP1 RETURN JUMPDEST CALLVALUE DUP1 ISZERO PUSH2 0x4C9 JUMPI PUSH0 DUP1 REVERT JUMPDEST POP PUSH2 0x4E4 PUSH1 0x4 DUP1 CALLDATASIZE SUB DUP2 ADD SWAP1 PUSH2 0x4DF SWAP2 SWAP1 PUSH2 0x22BD JUMP JUMPDEST PUSH2 0x1823 JUMP JUMPDEST PUSH1 0x40 MLOAD PUSH2 0x4F1 SWAP2 SWAP1 PUSH2 0x2409 JUMP JUMPDEST PUSH1 0x40 MLOAD DUP1 SWAP2 SUB SWAP1 RETURN JUMPDEST CALLVALUE DUP1 ISZERO PUSH2 0x505 JUMPI PUSH0 DUP1 REVERT JUMPDEST POP PUSH2 0x520 PUSH1 0x4 DUP1 CALLDATASIZE SUB DUP2 ADD SWAP1 PUSH2 0x51B SWAP2 SWAP1 PUSH2 0x2453 JUMP JUMPDEST PUSH2 0x1A02 JUMP JUMPDEST PUSH1 0x40 MLOAD PUSH2 0x52D SWAP2 SWAP1 PUSH2 0x29E1 JUMP JUMPDEST PUSH1 0x40 MLOAD DUP1 SWAP2 SUB SWAP1 RETURN JUMPDEST CALLVALUE DUP1 ISZERO PUSH2 0x541 JUMPI PUSH0 DUP1 REVERT JUMPDEST POP PUSH2 0x55C PUSH1 0x4 DUP1 CALLDATASIZE SUB DUP2 ADD SWAP1 PUSH2 0x557 SWAP2 SWAP1 PUSH2 0x22BD JUMP JUMPDEST PUSH2 0x1B33 JUMP JUMPDEST PUSH1 0x40 MLOAD PUSH2 0x56B SWAP4 SWAP3 SWAP2 SWAP1 PUSH2 0x29FA JUMP JUMPDEST PUSH1 0x40 MLOAD DUP1 SWAP2 SUB SWAP1 RETURN JUMPDEST CALLVALUE DUP1 ISZERO PUSH2 0x57F JUMPI PUSH0 DUP1 REVERT JUMPDEST POP PUSH2 0x59A PUSH1 0x4 DUP1 CALLDATASIZE SUB DUP2 ADD SWAP1 PUSH2 0x595 SWAP2 SWAP1 PUSH2 0x22BD JUMP JUMPDEST PUSH2 0x1B84 JUMP JUMPDEST PUSH1 0x40 MLOAD PUSH2 0x5A7 SWAP2 SWAP1 PUSH2 0x20CE JUMP JUMPDEST PUSH1 0x40 MLOAD DUP1 SWAP2 SUB SWAP1 RETURN JUMPDEST CALLVALUE DUP1 ISZERO PUSH2 0x5BB JUMPI PUSH0 DUP1 REVERT JUMPDEST POP PUSH2 0x5D6 PUSH1 0x4 DUP1 CALLDATASIZE SUB DUP2 ADD SWAP1 PUSH2 0x5D1 SWAP2 SWAP1 PUSH2 0x2453 JUMP JUMPDEST PUSH2 0x1C45 JUMP JUMPDEST STOP JUMPDEST CALLVALUE DUP1 ISZERO PUSH2 0x5E3 JUMPI PUSH0 DUP1 REVERT JUMPDEST POP PUSH2 0x5EC PUSH2 0x1CC9 JUMP JUMPDEST PUSH1 0x40 MLOAD PUSH2 0x5F9 SWAP2 SWAP1 PUSH2 0x20CE JUMP JUMPDEST PUSH1 0x40 MLOAD DUP1 SWAP2 SUB SWAP1 RETURN JUMPDEST PUSH0 SELFBALANCE SWAP1 POP SWAP1 JUMP JUMPDEST PUSH1 0x60 PUSH0 PUSH2 0x616 PUSH1 0x2 PUSH2 0x1CD4 JUMP JUMPDEST PUSH8 0xFFFFFFFFFFFFFFFF DUP2 GT ISZERO PUSH2 0x62F JUMPI PUSH2 0x62E PUSH2 0x2818 JUMP JUMPDEST JUMPDEST PUSH1 0x40 MLOAD SWAP1 DUP1 DUP3 MSTORE DUP1 PUSH1 0x20 MUL PUSH1 0x20 ADD DUP3 ADD PUSH1 0x40 MSTORE DUP1 ISZERO PUSH2 0x668 JUMPI DUP2 PUSH1 0x20 ADD JUMPDEST PUSH2 0x655 PUSH2 0x1FDF JUMP JUMPDEST DUP2 MSTORE PUSH1 0x20 ADD SWAP1 PUSH1 0x1 SWAP1 SUB SWAP1 DUP2 PUSH2 0x64D JUMPI SWAP1 POP JUMPDEST POP SWAP1 POP PUSH0 JUMPDEST PUSH2 0x677 PUSH1 0x2 PUSH2 0x1CD4 JUMP JUMPDEST DUP2 LT ISZERO PUSH2 0x780 JUMPI PUSH1 0x40 MLOAD DUP1 PUSH1 0x80 ADD PUSH1 0x40 MSTORE DUP1 PUSH1 0x1 DUP4 PUSH2 0x696 SWAP2 SWAP1 PUSH2 0x2A5C JUMP JUMPDEST PUSH0 SHL DUP2 MSTORE PUSH1 0x20 ADD PUSH1 0x5 PUSH0 PUSH1 0x1 DUP6 PUSH2 0x6AD SWAP2 SWAP1 PUSH2 0x2A5C JUMP JUMPDEST PUSH0 SHL DUP2 MSTORE PUSH1 0x20 ADD SWAP1 DUP2 MSTORE PUSH1 0x20 ADD PUSH0 KECCAK256 PUSH0 ADD PUSH0 SWAP1 SLOAD SWAP1 PUSH2 0x100 EXP SWAP1 DIV PUSH20 0xFFFFFFFFFFFFFFFFFFFFFFFFFFFFFFFFFFFFFFFF AND PUSH20 0xFFFFFFFFFFFFFFFFFFFFFFFFFFFFFFFFFFFFFFFF AND DUP2 MSTORE PUSH1 0x20 ADD PUSH1 0x5 PUSH0 PUSH1 0x1 DUP6 PUSH2 0x709 SWAP2 SWAP1 PUSH2 0x2A5C JUMP JUMPDEST PUSH0 SHL DUP2 MSTORE PUSH1 0x20 ADD SWAP1 DUP2 MSTORE PUSH1 0x20 ADD PUSH0 KECCAK256 PUSH0 ADD PUSH1 0x14 SWAP1 SLOAD SWAP1 PUSH2 0x100 EXP SWAP1 DIV PUSH1 0xFF AND ISZERO ISZERO DUP2 MSTORE PUSH1 0x20 ADD PUSH1 0x5 PUSH0 PUSH1 0x1 DUP6 PUSH2 0x73F SWAP2 SWAP1 PUSH2 0x2A5C JUMP JUMPDEST PUSH0 SHL DUP2 MSTORE PUSH1 0x20 ADD SWAP1 DUP2 MSTORE PUSH1 0x20 ADD PUSH0 KECCAK256 PUSH1 0x1 ADD SLOAD DUP2 MSTORE POP DUP3 DUP3 DUP2 MLOAD DUP2 LT PUSH2 0x768 JUMPI PUSH2 0x767 PUSH2 0x2A8F JUMP JUMPDEST JUMPDEST PUSH1 0x20 MUL PUSH1 0x20 ADD ADD DUP2 SWAP1 MSTORE POP DUP1 DUP1 PUSH1 0x1 ADD SWAP2 POP POP PUSH2 0x66D JUMP JUMPDEST POP DUP1 SWAP2 POP POP SWAP1 JUMP JUMPDEST PUSH2 0x790 PUSH2 0x1CE0 JUMP JUMPDEST PUSH0 SELFBALANCE SWAP1 POP PUSH0 PUSH2 0x79D PUSH2 0x119C JUMP JUMPDEST PUSH20 0xFFFFFFFFFFFFFFFFFFFFFFFFFFFFFFFFFFFFFFFF AND DUP3 PUSH1 0x40 MLOAD PUSH2 0x7C0 SWAP1 PUSH2 0x2AE9 JUMP JUMPDEST PUSH0 PUSH1 0x40 MLOAD DUP1 DUP4 SUB DUP2 DUP6 DUP8 GAS CALL SWAP3 POP POP POP RETURNDATASIZE DUP1 PUSH0 DUP2 EQ PUSH2 0x7FA JUMPI PUSH1 0x40 MLOAD SWAP2 POP PUSH1 0x1F NOT PUSH1 0x3F RETURNDATASIZE ADD AND DUP3 ADD PUSH1 0x40 MSTORE RETURNDATASIZE DUP3 MSTORE RETURNDATASIZE PUSH0 PUSH1 0x20 DUP5 ADD RETURNDATACOPY PUSH2 0x7FF JUMP JUMPDEST PUSH1 0x60 SWAP2 POP JUMPDEST POP POP SWAP1 POP DUP1 PUSH2 0x843 JUMPI PUSH1 0x40 MLOAD PUSH32 0x8C379A000000000000000000000000000000000000000000000000000000000 DUP2 MSTORE PUSH1 0x4 ADD PUSH2 0x83A SWAP1 PUSH2 0x2B57 JUMP JUMPDEST PUSH1 0x40 MLOAD DUP1 SWAP2 SUB SWAP1 REVERT JUMPDEST POP POP JUMP JUMPDEST PUSH1 0x60 PUSH0 PUSH2 0x854 PUSH1 0x1 PUSH2 0x1CD4 JUMP JUMPDEST PUSH8 0xFFFFFFFFFFFFFFFF DUP2 GT ISZERO PUSH2 0x86D JUMPI PUSH2 0x86C PUSH2 0x2818 JUMP JUMPDEST JUMPDEST PUSH1 0x40 MLOAD SWAP1 DUP1 DUP3 MSTORE DUP1 PUSH1 0x20 MUL PUSH1 0x20 ADD DUP3 ADD PUSH1 0x40 MSTORE DUP1 ISZERO PUSH2 0x8A6 JUMPI DUP2 PUSH1 0x20 ADD JUMPDEST PUSH2 0x893 PUSH2 0x201E JUMP JUMPDEST DUP2 MSTORE PUSH1 0x20 ADD SWAP1 PUSH1 0x1 SWAP1 SUB SWAP1 DUP2 PUSH2 0x88B JUMPI SWAP1 POP JUMPDEST POP SWAP1 POP PUSH0 DUP1 JUMPDEST PUSH2 0x8B6 PUSH1 0x1 PUSH2 0x1CD4 JUMP JUMPDEST DUP2 LT ISZERO PUSH2 0xA1B JUMPI DUP5 PUSH1 0x4 PUSH0 PUSH1 0x1 DUP5 PUSH2 0x8CE SWAP2 SWAP1 PUSH2 0x2A5C JUMP JUMPDEST PUSH0 SHL DUP2 MSTORE PUSH1 0x20 ADD SWAP1 DUP2 MSTORE PUSH1 0x20 ADD PUSH0 KECCAK256 PUSH1 0x1 ADD SLOAD SUB PUSH2 0xA0E JUMPI PUSH1 0x4 PUSH0 PUSH1 0x1 DUP4 PUSH2 0x8F6 SWAP2 SWAP1 PUSH2 0x2A5C JUMP JUMPDEST PUSH0 SHL DUP2 MSTORE PUSH1 0x20 ADD SWAP1 DUP2 MSTORE PUSH1 0x20 ADD PUSH0 KECCAK256 PUSH1 0x40 MLOAD DUP1 PUSH1 0xC0 ADD PUSH1 0x40 MSTORE SWAP1 DUP2 PUSH0 DUP3 ADD PUSH0 SWAP1 SLOAD SWAP1 PUSH2 0x100 EXP SWAP1 DIV PUSH20 0xFFFFFFFFFFFFFFFFFFFFFFFFFFFFFFFFFFFFFFFF AND PUSH20 0xFFFFFFFFFFFFFFFFFFFFFFFFFFFFFFFFFFFFFFFF AND PUSH20 0xFFFFFFFFFFFFFFFFFFFFFFFFFFFFFFFFFFFFFFFF AND DUP2 MSTORE PUSH1 0x20 ADD PUSH1 0x1 DUP3 ADD SLOAD DUP2 MSTORE PUSH1 0x20 ADD PUSH1 0x2 DUP3 ADD SLOAD DUP2 MSTORE PUSH1 0x20 ADD PUSH1 0x3 DUP3 ADD SLOAD DUP2 MSTORE PUSH1 0x20 ADD PUSH1 0x4 DUP3 ADD PUSH0 SWAP1 SLOAD SWAP1 PUSH2 0x100 EXP SWAP1 DIV PUSH20 0xFFFFFFFFFFFFFFFFFFFFFFFFFFFFFFFFFFFFFFFF AND PUSH20 0xFFFFFFFFFFFFFFFFFFFFFFFFFFFFFFFFFFFFFFFF AND PUSH20 0xFFFFFFFFFFFFFFFFFFFFFFFFFFFFFFFFFFFFFFFF AND DUP2 MSTORE PUSH1 0x20 ADD PUSH1 0x5 DUP3 ADD SLOAD DUP2 MSTORE POP POP DUP4 DUP4 DUP2 MLOAD DUP2 LT PUSH2 0x9F4 JUMPI PUSH2 0x9F3 PUSH2 0x2A8F JUMP JUMPDEST JUMPDEST PUSH1 0x20 MUL PUSH1 0x20 ADD ADD DUP2 SWAP1 MSTORE POP DUP2 DUP1 PUSH2 0xA0A SWAP1 PUSH2 0x2B75 JUMP JUMPDEST SWAP3 POP POP JUMPDEST DUP1 DUP1 PUSH1 0x1 ADD SWAP2 POP POP PUSH2 0x8AC JUMP JUMPDEST POP DUP2 SWAP3 POP POP POP SWAP2 SWAP1 POP JUMP JUMPDEST PUSH2 0xA2E PUSH2 0x1CE0 JUMP JUMPDEST PUSH2 0xA36 PUSH2 0x1D67 JUMP JUMPDEST JUMP JUMPDEST PUSH1 0x60 PUSH0 PUSH2 0xA45 PUSH1 0x1 PUSH2 0x1CD4 JUMP JUMPDEST PUSH8 0xFFFFFFFFFFFFFFFF DUP2 GT ISZERO PUSH2 0xA5E JUMPI PUSH2 0xA5D PUSH2 0x2818 JUMP JUMPDEST JUMPDEST PUSH1 0x40 MLOAD SWAP1 DUP1 DUP3 MSTORE DUP1 PUSH1 0x20 MUL PUSH1 0x20 ADD DUP3 ADD PUSH1 0x40 MSTORE DUP1 ISZERO PUSH2 0xA97 JUMPI DUP2 PUSH1 0x20 ADD JUMPDEST PUSH2 0xA84 PUSH2 0x201E JUMP JUMPDEST DUP2 MSTORE PUSH1 0x20 ADD SWAP1 PUSH1 0x1 SWAP1 SUB SWAP1 DUP2 PUSH2 0xA7C JUMPI SWAP1 POP JUMPDEST POP SWAP1 POP PUSH0 DUP1 JUMPDEST PUSH2 0xAA7 PUSH1 0x1 PUSH2 0x1CD4 JUMP JUMPDEST DUP2 LT ISZERO PUSH2 0xC56 JUMPI DUP5 PUSH20 0xFFFFFFFFFFFFFFFFFFFFFFFFFFFFFFFFFFFFFFFF AND PUSH1 0x4 PUSH0 PUSH1 0x1 DUP5 PUSH2 0xAD5 SWAP2 SWAP1 PUSH2 0x2A5C JUMP JUMPDEST PUSH0 SHL DUP2 MSTORE PUSH1 0x20 ADD SWAP1 DUP2 MSTORE PUSH1 0x20 ADD PUSH0 KECCAK256 PUSH0 ADD PUSH0 SWAP1 SLOAD SWAP1 PUSH2 0x100 EXP SWAP1 DIV PUSH20 0xFFFFFFFFFFFFFFFFFFFFFFFFFFFFFFFFFFFFFFFF AND PUSH20 0xFFFFFFFFFFFFFFFFFFFFFFFFFFFFFFFFFFFFFFFF AND SUB PUSH2 0xC49 JUMPI PUSH1 0x4 PUSH0 PUSH1 0x1 DUP4 PUSH2 0xB31 SWAP2 SWAP1 PUSH2 0x2A5C JUMP JUMPDEST PUSH0 SHL DUP2 MSTORE PUSH1 0x20 ADD SWAP1 DUP2 MSTORE PUSH1 0x20 ADD PUSH0 KECCAK256 PUSH1 0x40 MLOAD DUP1 PUSH1 0xC0 ADD PUSH1 0x40 MSTORE SWAP1 DUP2 PUSH0 DUP3 ADD PUSH0 SWAP1 SLOAD SWAP1 PUSH2 0x100 EXP SWAP1 DIV PUSH20 0xFFFFFFFFFFFFFFFFFFFFFFFFFFFFFFFFFFFFFFFF AND PUSH20 0xFFFFFFFFFFFFFFFFFFFFFFFFFFFFFFFFFFFFFFFF AND PUSH20 0xFFFFFFFFFFFFFFFFFFFFFFFFFFFFFFFFFFFFFFFF AND DUP2 MSTORE PUSH1 0x20 ADD PUSH1 0x1 DUP3 ADD SLOAD DUP2 MSTORE PUSH1 0x20 ADD PUSH1 0x2 DUP3 ADD SLOAD DUP2 MSTORE PUSH1 0x20 ADD PUSH1 0x3 DUP3 ADD SLOAD DUP2 MSTORE PUSH1 0x20 ADD PUSH1 0x4 DUP3 ADD PUSH0 SWAP1 SLOAD SWAP1 PUSH2 0x100 EXP SWAP1 DIV PUSH20 0xFFFFFFFFFFFFFFFFFFFFFFFFFFFFFFFFFFFFFFFF AND PUSH20 0xFFFFFFFFFFFFFFFFFFFFFFFFFFFFFFFFFFFFFFFF AND PUSH20 0xFFFFFFFFFFFFFFFFFFFFFFFFFFFFFFFFFFFFFFFF AND DUP2 MSTORE PUSH1 0x20 ADD PUSH1 0x5 DUP3 ADD SLOAD DUP2 MSTORE POP POP DUP4 DUP4 DUP2 MLOAD DUP2 LT PUSH2 0xC2F JUMPI PUSH2 0xC2E PUSH2 0x2A8F JUMP JUMPDEST JUMPDEST PUSH1 0x20 MUL PUSH1 0x20 ADD ADD DUP2 SWAP1 MSTORE POP DUP2 DUP1 PUSH2 0xC45 SWAP1 PUSH2 0x2B75 JUMP JUMPDEST SWAP3 POP POP JUMPDEST DUP1 DUP1 PUSH1 0x1 ADD SWAP2 POP POP PUSH2 0xA9D JUMP JUMPDEST POP DUP2 SWAP3 POP POP POP SWAP2 SWAP1 POP JUMP JUMPDEST PUSH1 0x60 PUSH0 PUSH2 0xC6E PUSH1 0x1 PUSH2 0x1CD4 JUMP JUMPDEST PUSH8 0xFFFFFFFFFFFFFFFF DUP2 GT ISZERO PUSH2 0xC87 JUMPI PUSH2 0xC86 PUSH2 0x2818 JUMP JUMPDEST JUMPDEST PUSH1 0x40 MLOAD SWAP1 DUP1 DUP3 MSTORE DUP1 PUSH1 0x20 MUL PUSH1 0x20 ADD DUP3 ADD PUSH1 0x40 MSTORE DUP1 ISZERO PUSH2 0xCC0 JUMPI DUP2 PUSH1 0x20 ADD JUMPDEST PUSH2 0xCAD PUSH2 0x201E JUMP JUMPDEST DUP2 MSTORE PUSH1 0x20 ADD SWAP1 PUSH1 0x1 SWAP1 SUB SWAP1 DUP2 PUSH2 0xCA5 JUMPI SWAP1 POP JUMPDEST POP SWAP1 POP PUSH0 JUMPDEST PUSH2 0xCCF PUSH1 0x1 PUSH2 0x1CD4 JUMP JUMPDEST DUP2 LT ISZERO PUSH2 0xDFC JUMPI PUSH1 0x4 PUSH0 PUSH1 0x1 DUP4 PUSH2 0xCE6 SWAP2 SWAP1 PUSH2 0x2A5C JUMP JUMPDEST PUSH0 SHL DUP2 MSTORE PUSH1 0x20 ADD SWAP1 DUP2 MSTORE PUSH1 0x20 ADD PUSH0 KECCAK256 PUSH1 0x40 MLOAD DUP1 PUSH1 0xC0 ADD PUSH1 0x40 MSTORE SWAP1 DUP2 PUSH0 DUP3 ADD PUSH0 SWAP1 SLOAD SWAP1 PUSH2 0x100 EXP SWAP1 DIV PUSH20 0xFFFFFFFFFFFFFFFFFFFFFFFFFFFFFFFFFFFFFFFF AND PUSH20 0xFFFFFFFFFFFFFFFFFFFFFFFFFFFFFFFFFFFFFFFF AND PUSH20 0xFFFFFFFFFFFFFFFFFFFFFFFFFFFFFFFFFFFFFFFF AND DUP2 MSTORE PUSH1 0x20 ADD PUSH1 0x1 DUP3 ADD SLOAD DUP2 MSTORE PUSH1 0x20 ADD PUSH1 0x2 DUP3 ADD SLOAD DUP2 MSTORE PUSH1 0x20 ADD PUSH1 0x3 DUP3 ADD SLOAD DUP2 MSTORE PUSH1 0x20 ADD PUSH1 0x4 DUP3 ADD PUSH0 SWAP1 SLOAD SWAP1 PUSH2 0x100 EXP SWAP1 DIV PUSH20 0xFFFFFFFFFFFFFFFFFFFFFFFFFFFFFFFFFFFFFFFF AND PUSH20 0xFFFFFFFFFFFFFFFFFFFFFFFFFFFFFFFFFFFFFFFF AND PUSH20 0xFFFFFFFFFFFFFFFFFFFFFFFFFFFFFFFFFFFFFFFF AND DUP2 MSTORE PUSH1 0x20 ADD PUSH1 0x5 DUP3 ADD SLOAD DUP2 MSTORE POP POP DUP3 DUP3 DUP2 MLOAD DUP2 LT PUSH2 0xDE4 JUMPI PUSH2 0xDE3 PUSH2 0x2A8F JUMP JUMPDEST JUMPDEST PUSH1 0x20 MUL PUSH1 0x20 ADD ADD DUP2 SWAP1 MSTORE POP DUP1 DUP1 PUSH1 0x1 ADD SWAP2 POP POP PUSH2 0xCC5 JUMP JUMPDEST POP DUP1 SWAP2 POP POP SWAP1 JUMP JUMPDEST PUSH0 PUSH2 0xE0D PUSH2 0x1CE0 JUMP JUMPDEST DUP2 PUSH1 0x3 PUSH0 PUSH2 0x100 EXP DUP2 SLOAD DUP2 PUSH1 0xFF MUL NOT AND SWAP1 DUP4 PUSH1 0xFF AND MUL OR SWAP1 SSTORE POP PUSH32 0xB5C0FBE3C7E536E86EA6D91EC04BD37128A9BF1E981E06DAE9834031254831F9 DUP3 PUSH1 0x40 MLOAD PUSH2 0xE56 SWAP2 SWAP1 PUSH2 0x2BCB JUMP JUMPDEST PUSH1 0x40 MLOAD DUP1 SWAP2 SUB SWAP1 LOG1 PUSH1 0x1 SWAP1 POP SWAP2 SWAP1 POP JUMP JUMPDEST PUSH2 0xE6F PUSH2 0x1CE0 JUMP JUMPDEST PUSH0 DUP3 PUSH20 0xFFFFFFFFFFFFFFFFFFFFFFFFFFFFFFFFFFFFFFFF AND DUP3 PUSH1 0x40 MLOAD PUSH2 0xE94 SWAP1 PUSH2 0x2AE9 JUMP JUMPDEST PUSH0 PUSH1 0x40 MLOAD DUP1 DUP4 SUB DUP2 DUP6 DUP8 GAS CALL SWAP3 POP POP POP RETURNDATASIZE DUP1 PUSH0 DUP2 EQ PUSH2 0xECE JUMPI PUSH1 0x40 MLOAD SWAP2 POP PUSH1 0x1F NOT PUSH1 0x3F RETURNDATASIZE ADD AND DUP3 ADD PUSH1 0x40 MSTORE RETURNDATASIZE DUP3 MSTORE RETURNDATASIZE PUSH0 PUSH1 0x20 DUP5 ADD RETURNDATACOPY PUSH2 0xED3 JUMP JUMPDEST PUSH1 0x60 SWAP2 POP JUMPDEST POP POP SWAP1 POP DUP1 PUSH2 0xF17 JUMPI PUSH1 0x40 MLOAD PUSH32 0x8C379A000000000000000000000000000000000000000000000000000000000 DUP2 MSTORE PUSH1 0x4 ADD PUSH2 0xF0E SWAP1 PUSH2 0x2B57 JUMP JUMPDEST PUSH1 0x40 MLOAD DUP1 SWAP2 SUB SWAP1 REVERT JUMPDEST POP POP POP JUMP JUMPDEST PUSH1 0x60 PUSH0 PUSH2 0xF29 PUSH1 0x2 PUSH2 0x1CD4 JUMP JUMPDEST PUSH8 0xFFFFFFFFFFFFFFFF DUP2 GT ISZERO PUSH2 0xF42 JUMPI PUSH2 0xF41 PUSH2 0x2818 JUMP JUMPDEST JUMPDEST PUSH1 0x40 MLOAD SWAP1 DUP1 DUP3 MSTORE DUP1 PUSH1 0x20 MUL PUSH1 0x20 ADD DUP3 ADD PUSH1 0x40 MSTORE DUP1 ISZERO PUSH2 0xF7B JUMPI DUP2 PUSH1 0x20 ADD JUMPDEST PUSH2 0xF68 PUSH2 0x2080 JUMP JUMPDEST DUP2 MSTORE PUSH1 0x20 ADD SWAP1 PUSH1 0x1 SWAP1 SUB SWAP1 DUP2 PUSH2 0xF60 JUMPI SWAP1 POP JUMPDEST POP SWAP1 POP PUSH0 DUP1 JUMPDEST PUSH2 0xF8B PUSH1 0x2 PUSH2 0x1CD4 JUMP JUMPDEST DUP2 LT ISZERO PUSH2 0x10E1 JUMPI DUP5 PUSH20 0xFFFFFFFFFFFFFFFFFFFFFFFFFFFFFFFFFFFFFFFF AND PUSH1 0x5 PUSH0 PUSH1 0x1 DUP5 PUSH2 0xFB9 SWAP2 SWAP1 PUSH2 0x2A5C JUMP JUMPDEST PUSH0 SHL DUP2 MSTORE PUSH1 0x20 ADD SWAP1 DUP2 MSTORE PUSH1 0x20 ADD PUSH0 KECCAK256 PUSH0 ADD PUSH0 SWAP1 SLOAD SWAP1 PUSH2 0x100 EXP SWAP1 DIV PUSH20 0xFFFFFFFFFFFFFFFFFFFFFFFFFFFFFFFFFFFFFFFF AND PUSH20 0xFFFFFFFFFFFFFFFFFFFFFFFFFFFFFFFFFFFFFFFF AND SUB PUSH2 0x10D4 JUMPI PUSH1 0x5 PUSH0 PUSH1 0x1 DUP4 PUSH2 0x1015 SWAP2 SWAP1 PUSH2 0x2A5C JUMP JUMPDEST PUSH0 SHL DUP2 MSTORE PUSH1 0x20 ADD SWAP1 DUP2 MSTORE PUSH1 0x20 ADD PUSH0 KECCAK256 PUSH1 0x40 MLOAD DUP1 PUSH1 0x60 ADD PUSH1 0x40 MSTORE SWAP1 DUP2 PUSH0 DUP3 ADD PUSH0 SWAP1 SLOAD SWAP1 PUSH2 0x100 EXP SWAP1 DIV PUSH20 0xFFFFFFFFFFFFFFFFFFFFFFFFFFFFFFFFFFFFFFFF AND PUSH20 0xFFFFFFFFFFFFFFFFFFFFFFFFFFFFFFFFFFFFFFFF AND PUSH20 0xFFFFFFFFFFFFFFFFFFFFFFFFFFFFFFFFFFFFFFFF AND DUP2 MSTORE PUSH1 0x20 ADD PUSH0 DUP3 ADD PUSH1 0x14 SWAP1 SLOAD SWAP1 PUSH2 0x100 EXP SWAP1 DIV PUSH1 0xFF AND ISZERO ISZERO ISZERO ISZERO DUP2 MSTORE PUSH1 0x20 ADD PUSH1 0x1 DUP3 ADD SLOAD DUP2 MSTORE POP POP DUP4 DUP4 DUP2 MLOAD DUP2 LT PUSH2 0x10BA JUMPI PUSH2 0x10B9 PUSH2 0x2A8F JUMP JUMPDEST JUMPDEST PUSH1 0x20 MUL PUSH1 0x20 ADD ADD DUP2 SWAP1 MSTORE POP DUP2 DUP1 PUSH2 0x10D0 SWAP1 PUSH2 0x2B75 JUMP JUMPDEST SWAP3 POP POP JUMPDEST DUP1 DUP1 PUSH1 0x1 ADD SWAP2 POP POP PUSH2 0xF81 JUMP JUMPDEST POP DUP2 SWAP3 POP POP POP SWAP2 SWAP1 POP JUMP JUMPDEST PUSH0 DUP1 PUSH1 0x14 SWAP1 SLOAD SWAP1 PUSH2 0x100 EXP SWAP1 DIV PUSH1 0xFF AND SWAP1 POP SWAP1 JUMP JUMPDEST PUSH2 0x1109 PUSH2 0x1CE0 JUMP JUMPDEST PUSH2 0x1112 PUSH0 PUSH2 0x1DC8 JUMP JUMPDEST JUMP JUMPDEST PUSH1 0x4 PUSH1 0x20 MSTORE DUP1 PUSH0 MSTORE PUSH1 0x40 PUSH0 KECCAK256 PUSH0 SWAP2 POP SWAP1 POP DUP1 PUSH0 ADD PUSH0 SWAP1 SLOAD SWAP1 PUSH2 0x100 EXP SWAP1 DIV PUSH20 0xFFFFFFFFFFFFFFFFFFFFFFFFFFFFFFFFFFFFFFFF AND SWAP1 DUP1 PUSH1 0x1 ADD SLOAD SWAP1 DUP1 PUSH1 0x2 ADD SLOAD SWAP1 DUP1 PUSH1 0x3 ADD SLOAD SWAP1 DUP1 PUSH1 0x4 ADD PUSH0 SWAP1 SLOAD SWAP1 PUSH2 0x100 EXP SWAP1 DIV PUSH20 0xFFFFFFFFFFFFFFFFFFFFFFFFFFFFFFFFFFFFFFFF AND SWAP1 DUP1 PUSH1 0x5 ADD SLOAD SWAP1 POP DUP7 JUMP JUMPDEST PUSH2 0x1192 PUSH2 0x1CE0 JUMP JUMPDEST PUSH2 0x119A PUSH2 0x1E89 JUMP JUMPDEST JUMP JUMPDEST PUSH0 DUP1 PUSH0 SWAP1 SLOAD SWAP1 PUSH2 0x100 EXP SWAP1 DIV PUSH20 0xFFFFFFFFFFFFFFFFFFFFFFFFFFFFFFFFFFFFFFFF AND SWAP1 POP SWAP1 JUMP JUMPDEST PUSH1 0x2 DUP1 PUSH0 ADD SLOAD SWAP1 POP DUP2 JUMP JUMPDEST PUSH0 PUSH2 0x11D7 PUSH2 0x1CE0 JUMP JUMPDEST DUP3 PUSH1 0x5 PUSH0 DUP7 DUP2 MSTORE PUSH1 0x20 ADD SWAP1 DUP2 MSTORE PUSH1 0x20 ADD PUSH0 KECCAK256 PUSH0 ADD PUSH0 PUSH2 0x100 EXP DUP2 SLOAD DUP2 PUSH20 0xFFFFFFFFFFFFFFFFFFFFFFFFFFFFFFFFFFFFFFFF MUL NOT AND SWAP1 DUP4 PUSH20 0xFFFFFFFFFFFFFFFFFFFFFFFFFFFFFFFFFFFFFFFF AND MUL OR SWAP1 SSTORE POP DUP2 PUSH1 0x5 PUSH0 DUP7 DUP2 MSTORE PUSH1 0x20 ADD SWAP1 DUP2 MSTORE PUSH1 0x20 ADD PUSH0 KECCAK256 PUSH0 ADD PUSH1 0x14 PUSH2 0x100 EXP DUP2 SLOAD DUP2 PUSH1 0xFF MUL NOT AND SWAP1 DUP4 ISZERO ISZERO MUL OR SWAP1 SSTORE POP DUP4 PUSH32 0x178CC6533AFB1053A370099DE33A8F4A6C10ADF023EBA537C33721E13DC1273 DUP5 PUSH2 0x127E PUSH2 0x1EEB JUMP JUMPDEST PUSH1 0x40 MLOAD PUSH2 0x128C SWAP3 SWAP2 SWAP1 PUSH2 0x2BE4 JUMP JUMPDEST PUSH1 0x40 MLOAD DUP1 SWAP2 SUB SWAP1 LOG2 PUSH1 0x1 SWAP1 POP SWAP4 SWAP3 POP POP POP JUMP JUMPDEST PUSH0 PUSH1 0x64 DUP3 DUP5 PUSH2 0x12AE SWAP2 SWAP1 PUSH2 0x2C0B JUMP JUMPDEST LT ISZERO PUSH2 0x12B8 JUMPI PUSH0 DUP1 REVERT JUMPDEST PUSH1 0x64 DUP3 DUP5 PUSH2 0x12C6 SWAP2 SWAP1 PUSH2 0x2C0B JUMP JUMPDEST PUSH2 0x12D0 SWAP2 SWAP1 PUSH2 0x2C79 JUMP JUMPDEST SWAP1 POP SWAP3 SWAP2 POP POP JUMP JUMPDEST PUSH0 PUSH2 0x12E1 PUSH2 0x1EF2 JUMP JUMPDEST PUSH1 0x1 PUSH0 SHL DUP3 SUB PUSH2 0x1403 JUMPI PUSH0 CALLVALUE SUB PUSH2 0x132F JUMPI CALLVALUE PUSH1 0x40 MLOAD PUSH32 0x9266535100000000000000000000000000000000000000000000000000000000 DUP2 MSTORE PUSH1 0x4 ADD PUSH2 0x1326 SWAP2 SWAP1 PUSH2 0x20CE JUMP JUMPDEST PUSH1 0x40 MLOAD DUP1 SWAP2 SUB SWAP1 REVERT JUMPDEST PUSH0 DUP7 PUSH20 0xFFFFFFFFFFFFFFFFFFFFFFFFFFFFFFFFFFFFFFFF AND PUSH2 0x136E DUP8 PUSH1 0x3 PUSH0 SWAP1 SLOAD SWAP1 PUSH2 0x100 EXP SWAP1 DIV PUSH1 0xFF AND PUSH1 0x64 PUSH2 0x1366 SWAP2 SWAP1 PUSH2 0x2CA9 JUMP JUMPDEST PUSH1 0xFF AND PUSH2 0x129F JUMP JUMPDEST PUSH1 0x40 MLOAD PUSH2 0x137A SWAP1 PUSH2 0x2AE9 JUMP JUMPDEST PUSH0 PUSH1 0x40 MLOAD DUP1 DUP4 SUB DUP2 DUP6 DUP8 GAS CALL SWAP3 POP POP POP RETURNDATASIZE DUP1 PUSH0 DUP2 EQ PUSH2 0x13B4 JUMPI PUSH1 0x40 MLOAD SWAP2 POP PUSH1 0x1F NOT PUSH1 0x3F RETURNDATASIZE ADD AND DUP3 ADD PUSH1 0x40 MSTORE RETURNDATASIZE DUP3 MSTORE RETURNDATASIZE PUSH0 PUSH1 0x20 DUP5 ADD RETURNDATACOPY PUSH2 0x13B9 JUMP JUMPDEST PUSH1 0x60 SWAP2 POP JUMPDEST POP POP SWAP1 POP DUP1 PUSH2 0x13FD JUMPI PUSH1 0x40 MLOAD PUSH32 0x8C379A000000000000000000000000000000000000000000000000000000000 DUP2 MSTORE PUSH1 0x4 ADD PUSH2 0x13F4 SWAP1 PUSH2 0x2D4D JUMP JUMPDEST PUSH1 0x40 MLOAD DUP1 SWAP2 SUB SWAP1 REVERT JUMPDEST POP PUSH2 0x1696 JUMP JUMPDEST PUSH0 PUSH1 0x5 PUSH0 DUP5 DUP2 MSTORE PUSH1 0x20 ADD SWAP1 DUP2 MSTORE PUSH1 0x20 ADD PUSH0 KECCAK256 PUSH0 ADD PUSH0 SWAP1 SLOAD SWAP1 PUSH2 0x100 EXP SWAP1 DIV PUSH20 0xFFFFFFFFFFFFFFFFFFFFFFFFFFFFFFFFFFFFFFFF AND PUSH20 0xFFFFFFFFFFFFFFFFFFFFFFFFFFFFFFFFFFFFFFFF AND PUSH4 0x65AEAA95 ADDRESS PUSH2 0x145B PUSH2 0x1EEB JUMP JUMPDEST PUSH1 0x40 MLOAD DUP4 PUSH4 0xFFFFFFFF AND PUSH1 0xE0 SHL DUP2 MSTORE PUSH1 0x4 ADD PUSH2 0x1478 SWAP3 SWAP2 SWAP1 PUSH2 0x2BE4 JUMP JUMPDEST PUSH1 0x20 PUSH1 0x40 MLOAD DUP1 DUP4 SUB DUP2 DUP7 GAS STATICCALL ISZERO DUP1 ISZERO PUSH2 0x1493 JUMPI RETURNDATASIZE PUSH0 DUP1 RETURNDATACOPY RETURNDATASIZE PUSH0 REVERT JUMPDEST POP POP POP POP PUSH1 0x40 MLOAD RETURNDATASIZE PUSH1 0x1F NOT PUSH1 0x1F DUP3 ADD AND DUP3 ADD DUP1 PUSH1 0x40 MSTORE POP DUP2 ADD SWAP1 PUSH2 0x14B7 SWAP2 SWAP1 PUSH2 0x2D7F JUMP JUMPDEST SWAP1 POP DUP6 DUP2 EQ PUSH2 0x14FF JUMPI DUP6 DUP2 PUSH1 0x40 MLOAD PUSH32 0xA24F8BE900000000000000000000000000000000000000000000000000000000 DUP2 MSTORE PUSH1 0x4 ADD PUSH2 0x14F6 SWAP3 SWAP2 SWAP1 PUSH2 0x2DAA JUMP JUMPDEST PUSH1 0x40 MLOAD DUP1 SWAP2 SUB SWAP1 REVERT JUMPDEST PUSH1 0x5 PUSH0 DUP5 DUP2 MSTORE PUSH1 0x20 ADD SWAP1 DUP2 MSTORE PUSH1 0x20 ADD PUSH0 KECCAK256 PUSH0 ADD PUSH0 SWAP1 SLOAD SWAP1 PUSH2 0x100 EXP SWAP1 DIV PUSH20 0xFFFFFFFFFFFFFFFFFFFFFFFFFFFFFFFFFFFFFFFF AND PUSH20 0xFFFFFFFFFFFFFFFFFFFFFFFFFFFFFFFFFFFFFFFF AND PUSH4 0x760D9BBA PUSH2 0x1555 PUSH2 0x1EEB JUMP JUMPDEST DUP10 PUSH2 0x157D DUP11 PUSH1 0x3 PUSH0 SWAP1 SLOAD SWAP1 PUSH2 0x100 EXP SWAP1 DIV PUSH1 0xFF AND PUSH1 0x64 PUSH2 0x1575 SWAP2 SWAP1 PUSH2 0x2CA9 JUMP JUMPDEST PUSH1 0xFF AND PUSH2 0x129F JUMP JUMPDEST DUP10 DUP10 PUSH1 0x40 MLOAD DUP7 PUSH4 0xFFFFFFFF AND PUSH1 0xE0 SHL DUP2 MSTORE PUSH1 0x4 ADD PUSH2 0x159F SWAP6 SWAP5 SWAP4 SWAP3 SWAP2 SWAP1 PUSH2 0x2E4B JUMP JUMPDEST PUSH0 PUSH1 0x40 MLOAD DUP1 DUP4 SUB DUP2 PUSH0 DUP8 DUP1 EXTCODESIZE ISZERO DUP1 ISZERO PUSH2 0x15B6 JUMPI PUSH0 DUP1 REVERT JUMPDEST POP GAS CALL ISZERO DUP1 ISZERO PUSH2 0x15C8 JUMPI RETURNDATASIZE PUSH0 DUP1 RETURNDATACOPY RETURNDATASIZE PUSH0 REVERT JUMPDEST POP POP POP POP PUSH1 0x5 PUSH0 DUP5 DUP2 MSTORE PUSH1 0x20 ADD SWAP1 DUP2 MSTORE PUSH1 0x20 ADD PUSH0 KECCAK256 PUSH0 ADD PUSH0 SWAP1 SLOAD SWAP1 PUSH2 0x100 EXP SWAP1 DIV PUSH20 0xFFFFFFFFFFFFFFFFFFFFFFFFFFFFFFFFFFFFFFFF AND PUSH20 0xFFFFFFFFFFFFFFFFFFFFFFFFFFFFFFFFFFFFFFFF AND PUSH4 0x760D9BBA PUSH2 0x1622 PUSH2 0x1EEB JUMP JUMPDEST PUSH2 0x162A PUSH2 0x119C JUMP JUMPDEST PUSH2 0x1645 DUP11 PUSH1 0x3 PUSH0 SWAP1 SLOAD SWAP1 PUSH2 0x100 EXP SWAP1 DIV PUSH1 0xFF AND PUSH1 0xFF AND PUSH2 0x129F JUMP JUMPDEST DUP10 DUP10 PUSH1 0x40 MLOAD DUP7 PUSH4 0xFFFFFFFF AND PUSH1 0xE0 SHL DUP2 MSTORE PUSH1 0x4 ADD PUSH2 0x1667 SWAP6 SWAP5 SWAP4 SWAP3 SWAP2 SWAP1 PUSH2 0x2E4B JUMP JUMPDEST PUSH0 PUSH1 0x40 MLOAD DUP1 DUP4 SUB DUP2 PUSH0 DUP8 DUP1 EXTCODESIZE ISZERO DUP1 ISZERO PUSH2 0x167E JUMPI PUSH0 DUP1 REVERT JUMPDEST POP GAS CALL ISZERO DUP1 ISZERO PUSH2 0x1690 JUMPI RETURNDATASIZE PUSH0 DUP1 RETURNDATACOPY RETURNDATASIZE PUSH0 REVERT JUMPDEST POP POP POP POP POP JUMPDEST PUSH2 0x16A0 PUSH1 0x1 PUSH2 0x1F33 JUMP JUMPDEST PUSH1 0x40 MLOAD DUP1 PUSH1 0xC0 ADD PUSH1 0x40 MSTORE DUP1 PUSH2 0x16B3 PUSH2 0x1EEB JUMP JUMPDEST PUSH20 0xFFFFFFFFFFFFFFFFFFFFFFFFFFFFFFFFFFFFFFFF AND DUP2 MSTORE PUSH1 0x20 ADD DUP4 DUP2 MSTORE PUSH1 0x20 ADD DUP9 DUP2 MSTORE PUSH1 0x20 ADD DUP7 DUP2 MSTORE PUSH1 0x20 ADD DUP8 PUSH20 0xFFFFFFFFFFFFFFFFFFFFFFFFFFFFFFFFFFFFFFFF AND DUP2 MSTORE PUSH1 0x20 ADD TIMESTAMP DUP2 MSTORE POP PUSH1 0x4 PUSH0 PUSH2 0x170D PUSH1 0x1 PUSH2 0x1CD4 JUMP JUMPDEST PUSH0 SHL DUP2 MSTORE PUSH1 0x20 ADD SWAP1 DUP2 MSTORE PUSH1 0x20 ADD PUSH0 KECCAK256 PUSH0 DUP3 ADD MLOAD DUP2 PUSH0 ADD PUSH0 PUSH2 0x100 EXP DUP2 SLOAD DUP2 PUSH20 0xFFFFFFFFFFFFFFFFFFFFFFFFFFFFFFFFFFFFFFFF MUL NOT AND SWAP1 DUP4 PUSH20 0xFFFFFFFFFFFFFFFFFFFFFFFFFFFFFFFFFFFFFFFF AND MUL OR SWAP1 SSTORE POP PUSH1 0x20 DUP3 ADD MLOAD DUP2 PUSH1 0x1 ADD SSTORE PUSH1 0x40 DUP3 ADD MLOAD DUP2 PUSH1 0x2 ADD SSTORE PUSH1 0x60 DUP3 ADD MLOAD DUP2 PUSH1 0x3 ADD SSTORE PUSH1 0x80 DUP3 ADD MLOAD DUP2 PUSH1 0x4 ADD PUSH0 PUSH2 0x100 EXP DUP2 SLOAD DUP2 PUSH20 0xFFFFFFFFFFFFFFFFFFFFFFFFFFFFFFFFFFFFFFFF MUL NOT AND SWAP1 DUP4 PUSH20 0xFFFFFFFFFFFFFFFFFFFFFFFFFFFFFFFFFFFFFFFF AND MUL OR SWAP1 SSTORE POP PUSH1 0xA0 DUP3 ADD MLOAD DUP2 PUSH1 0x5 ADD SSTORE SWAP1 POP POP DUP7 DUP3 PUSH32 0xD96B33CD6E9829949C7F13033F0A8230587EFC5E5D0CFF68861945EFDED28B8A PUSH2 0x17FC PUSH2 0x1EEB JUMP JUMPDEST DUP10 DUP10 PUSH1 0x40 MLOAD PUSH2 0x180D SWAP4 SWAP3 SWAP2 SWAP1 PUSH2 0x2EA3 JUMP JUMPDEST PUSH1 0x40 MLOAD DUP1 SWAP2 SUB SWAP1 LOG3 PUSH1 0x1 SWAP1 POP SWAP7 SWAP6 POP POP POP POP POP POP JUMP JUMPDEST PUSH1 0x60 PUSH0 PUSH2 0x1830 PUSH1 0x1 PUSH2 0x1CD4 JUMP JUMPDEST PUSH8 0xFFFFFFFFFFFFFFFF DUP2 GT ISZERO PUSH2 0x1849 JUMPI PUSH2 0x1848 PUSH2 0x2818 JUMP JUMPDEST JUMPDEST PUSH1 0x40 MLOAD SWAP1 DUP1 DUP3 MSTORE DUP1 PUSH1 0x20 MUL PUSH1 0x20 ADD DUP3 ADD PUSH1 0x40 MSTORE DUP1 ISZERO PUSH2 0x1882 JUMPI DUP2 PUSH1 0x20 ADD JUMPDEST PUSH2 0x186F PUSH2 0x201E JUMP JUMPDEST DUP2 MSTORE PUSH1 0x20 ADD SWAP1 PUSH1 0x1 SWAP1 SUB SWAP1 DUP2 PUSH2 0x1867 JUMPI SWAP1 POP JUMPDEST POP SWAP1 POP PUSH0 DUP1 JUMPDEST PUSH2 0x1892 PUSH1 0x1 PUSH2 0x1CD4 JUMP JUMPDEST DUP2 LT ISZERO PUSH2 0x19F7 JUMPI DUP5 PUSH1 0x4 PUSH0 PUSH1 0x1 DUP5 PUSH2 0x18AA SWAP2 SWAP1 PUSH2 0x2A5C JUMP JUMPDEST PUSH0 SHL DUP2 MSTORE PUSH1 0x20 ADD SWAP1 DUP2 MSTORE PUSH1 0x20 ADD PUSH0 KECCAK256 PUSH1 0x2 ADD SLOAD SUB PUSH2 0x19EA JUMPI PUSH1 0x4 PUSH0 PUSH1 0x1 DUP4 PUSH2 0x18D2 SWAP2 SWAP1 PUSH2 0x2A5C JUMP JUMPDEST PUSH0 SHL DUP2 MSTORE PUSH1 0x20 ADD SWAP1 DUP2 MSTORE PUSH1 0x20 ADD PUSH0 KECCAK256 PUSH1 0x40 MLOAD DUP1 PUSH1 0xC0 ADD PUSH1 0x40 MSTORE SWAP1 DUP2 PUSH0 DUP3 ADD PUSH0 SWAP1 SLOAD SWAP1 PUSH2 0x100 EXP SWAP1 DIV PUSH20 0xFFFFFFFFFFFFFFFFFFFFFFFFFFFFFFFFFFFFFFFF AND PUSH20 0xFFFFFFFFFFFFFFFFFFFFFFFFFFFFFFFFFFFFFFFF AND PUSH20 0xFFFFFFFFFFFFFFFFFFFFFFFFFFFFFFFFFFFFFFFF AND DUP2 MSTORE PUSH1 0x20 ADD PUSH1 0x1 DUP3 ADD SLOAD DUP2 MSTORE PUSH1 0x20 ADD PUSH1 0x2 DUP3 ADD SLOAD DUP2 MSTORE PUSH1 0x20 ADD PUSH1 0x3 DUP3 ADD SLOAD DUP2 MSTORE PUSH1 0x20 ADD PUSH1 0x4 DUP3 ADD PUSH0 SWAP1 SLOAD SWAP1 PUSH2 0x100 EXP SWAP1 DIV PUSH20 0xFFFFFFFFFFFFFFFFFFFFFFFFFFFFFFFFFFFFFFFF AND PUSH20 0xFFFFFFFFFFFFFFFFFFFFFFFFFFFFFFFFFFFFFFFF AND PUSH20 0xFFFFFFFFFFFFFFFFFFFFFFFFFFFFFFFFFFFFFFFF AND DUP2 MSTORE PUSH1 0x20 ADD PUSH1 0x5 DUP3 ADD SLOAD DUP2 MSTORE POP POP DUP4 DUP4 DUP2 MLOAD DUP2 LT PUSH2 0x19D0 JUMPI PUSH2 0x19CF PUSH2 0x2A8F JUMP JUMPDEST JUMPDEST PUSH1 0x20 MUL PUSH1 0x20 ADD ADD DUP2 SWAP1 MSTORE POP DUP2 DUP1 PUSH2 0x19E6 SWAP1 PUSH2 0x2B75 JUMP JUMPDEST SWAP3 POP POP JUMPDEST DUP1 DUP1 PUSH1 0x1 ADD SWAP2 POP POP PUSH2 0x1888 JUMP JUMPDEST POP DUP2 SWAP3 POP POP POP SWAP2 SWAP1 POP JUMP JUMPDEST PUSH0 PUSH2 0x1A0B PUSH2 0x1CE0 JUMP JUMPDEST PUSH2 0x1A15 PUSH1 0x2 PUSH2 0x1F33 JUMP JUMPDEST PUSH1 0x40 MLOAD DUP1 PUSH1 0x60 ADD PUSH1 0x40 MSTORE DUP1 DUP4 PUSH20 0xFFFFFFFFFFFFFFFFFFFFFFFFFFFFFFFFFFFFFFFF AND DUP2 MSTORE PUSH1 0x20 ADD PUSH0 ISZERO ISZERO DUP2 MSTORE PUSH1 0x20 ADD TIMESTAMP DUP2 MSTORE POP PUSH1 0x5 PUSH0 PUSH2 0x1A55 PUSH1 0x2 PUSH2 0x1CD4 JUMP JUMPDEST PUSH0 SHL DUP2 MSTORE PUSH1 0x20 ADD SWAP1 DUP2 MSTORE PUSH1 0x20 ADD PUSH0 KECCAK256 PUSH0 DUP3 ADD MLOAD DUP2 PUSH0 ADD PUSH0 PUSH2 0x100 EXP DUP2 SLOAD DUP2 PUSH20 0xFFFFFFFFFFFFFFFFFFFFFFFFFFFFFFFFFFFFFFFF MUL NOT AND SWAP1 DUP4 PUSH20 0xFFFFFFFFFFFFFFFFFFFFFFFFFFFFFFFFFFFFFFFF AND MUL OR SWAP1 SSTORE POP PUSH1 0x20 DUP3 ADD MLOAD DUP2 PUSH0 ADD PUSH1 0x14 PUSH2 0x100 EXP DUP2 SLOAD DUP2 PUSH1 0xFF MUL NOT AND SWAP1 DUP4 ISZERO ISZERO MUL OR SWAP1 SSTORE POP PUSH1 0x40 DUP3 ADD MLOAD DUP2 PUSH1 0x1 ADD SSTORE SWAP1 POP POP PUSH2 0x1ADE PUSH1 0x2 PUSH2 0x1CD4 JUMP JUMPDEST PUSH0 SHL PUSH32 0xE50FFA2B79CB01D7C5404BFE02189A4C5B297CD59BC80608EFDC52E3B334616 DUP4 PUSH2 0x1B0A PUSH2 0x1EEB JUMP JUMPDEST PUSH1 0x40 MLOAD PUSH2 0x1B18 SWAP3 SWAP2 SWAP1 PUSH2 0x2BE4 JUMP JUMPDEST PUSH1 0x40 MLOAD DUP1 SWAP2 SUB SWAP1 LOG2 PUSH2 0x1B2A PUSH1 0x2 PUSH2 0x1CD4 JUMP JUMPDEST PUSH0 SHL SWAP1 POP SWAP2 SWAP1 POP JUMP JUMPDEST PUSH1 0x5 PUSH1 0x20 MSTORE DUP1 PUSH0 MSTORE PUSH1 0x40 PUSH0 KECCAK256 PUSH0 SWAP2 POP SWAP1 POP DUP1 PUSH0 ADD PUSH0 SWAP1 SLOAD SWAP1 PUSH2 0x100 EXP SWAP1 DIV PUSH20 0xFFFFFFFFFFFFFFFFFFFFFFFFFFFFFFFFFFFFFFFF AND SWAP1 DUP1 PUSH0 ADD PUSH1 0x14 SWAP1 SLOAD SWAP1 PUSH2 0x100 EXP SWAP1 DIV PUSH1 0xFF AND SWAP1 DUP1 PUSH1 0x1 ADD SLOAD SWAP1 POP DUP4 JUMP JUMPDEST PUSH0 PUSH2 0x1B8D PUSH2 0x1CE0 JUMP JUMPDEST PUSH1 0x5 PUSH0 DUP4 DUP2 MSTORE PUSH1 0x20 ADD SWAP1 DUP2 MSTORE PUSH1 0x20 ADD PUSH0 KECCAK256 PUSH0 DUP1 DUP3 ADD PUSH0 PUSH2 0x100 EXP DUP2 SLOAD SWAP1 PUSH20 0xFFFFFFFFFFFFFFFFFFFFFFFFFFFFFFFFFFFFFFFF MUL NOT AND SWAP1 SSTORE PUSH0 DUP3 ADD PUSH1 0x14 PUSH2 0x100 EXP DUP2 SLOAD SWAP1 PUSH1 0xFF MUL NOT AND SWAP1 SSTORE PUSH1 0x1 DUP3 ADD PUSH0 SWAP1 SSTORE POP POP PUSH2 0x1BEA PUSH1 0x2 PUSH2 0x1F47 JUMP JUMPDEST PUSH2 0x1BF4 PUSH1 0x2 PUSH2 0x1CD4 JUMP JUMPDEST PUSH0 SHL PUSH32 0x3AFBC119E23990903D2EF3FDF9210A7B06B5F6F85438B0EDFCFBF630AD594FCC PUSH2 0x1C1F PUSH2 0x1EEB JUMP JUMPDEST PUSH1 0x40 MLOAD PUSH2 0x1C2C SWAP2 SWAP1 PUSH2 0x272F JUMP JUMPDEST PUSH1 0x40 MLOAD DUP1 SWAP2 SUB SWAP1 LOG2 PUSH2 0x1C3E PUSH1 0x2 PUSH2 0x1CD4 JUMP JUMPDEST SWAP1 POP SWAP2 SWAP1 POP JUMP JUMPDEST PUSH2 0x1C4D PUSH2 0x1CE0 JUMP JUMPDEST PUSH0 PUSH20 0xFFFFFFFFFFFFFFFFFFFFFFFFFFFFFFFFFFFFFFFF AND DUP2 PUSH20 0xFFFFFFFFFFFFFFFFFFFFFFFFFFFFFFFFFFFFFFFF AND SUB PUSH2 0x1CBD JUMPI PUSH0 PUSH1 0x40 MLOAD PUSH32 0x1E4FBDF700000000000000000000000000000000000000000000000000000000 DUP2 MSTORE PUSH1 0x4 ADD PUSH2 0x1CB4 SWAP2 SWAP1 PUSH2 0x272F JUMP JUMPDEST PUSH1 0x40 MLOAD DUP1 SWAP2 SUB SWAP1 REVERT JUMPDEST PUSH2 0x1CC6 DUP2 PUSH2 0x1DC8 JUMP JUMPDEST POP JUMP JUMPDEST PUSH1 0x1 DUP1 PUSH0 ADD SLOAD SWAP1 POP DUP2 JUMP JUMPDEST PUSH0 DUP2 PUSH0 ADD SLOAD SWAP1 POP SWAP2 SWAP1 POP JUMP JUMPDEST PUSH2 0x1CE8 PUSH2 0x1EEB JUMP JUMPDEST PUSH20 0xFFFFFFFFFFFFFFFFFFFFFFFFFFFFFFFFFFFFFFFF AND PUSH2 0x1D06 PUSH2 0x119C JUMP JUMPDEST PUSH20 0xFFFFFFFFFFFFFFFFFFFFFFFFFFFFFFFFFFFFFFFF AND EQ PUSH2 0x1D65 JUMPI PUSH2 0x1D29 PUSH2 0x1EEB JUMP JUMPDEST PUSH1 0x40 MLOAD PUSH32 0x118CDAA700000000000000000000000000000000000000000000000000000000 DUP2 MSTORE PUSH1 0x4 ADD PUSH2 0x1D5C SWAP2 SWAP1 PUSH2 0x272F JUMP JUMPDEST PUSH1 0x40 MLOAD DUP1 SWAP2 SUB SWAP1 REVERT JUMPDEST JUMP JUMPDEST PUSH2 0x1D6F PUSH2 0x1F9F JUMP JUMPDEST PUSH0 DUP1 PUSH1 0x14 PUSH2 0x100 EXP DUP2 SLOAD DUP2 PUSH1 0xFF MUL NOT AND SWAP1 DUP4 ISZERO ISZERO MUL OR SWAP1 SSTORE POP PUSH32 0x5DB9EE0A495BF2E6FF9C91A7834C1BA4FDD244A5E8AA4E537BD38AEAE4B073AA PUSH2 0x1DB1 PUSH2 0x1EEB JUMP JUMPDEST PUSH1 0x40 MLOAD PUSH2 0x1DBE SWAP2 SWAP1 PUSH2 0x272F JUMP JUMPDEST PUSH1 0x40 MLOAD DUP1 SWAP2 SUB SWAP1 LOG1 JUMP JUMPDEST PUSH0 DUP1 PUSH0 SWAP1 SLOAD SWAP1 PUSH2 0x100 EXP SWAP1 DIV PUSH20 0xFFFFFFFFFFFFFFFFFFFFFFFFFFFFFFFFFFFFFFFF AND SWAP1 POP DUP2 PUSH0 DUP1 PUSH2 0x100 EXP DUP2 SLOAD DUP2 PUSH20 0xFFFFFFFFFFFFFFFFFFFFFFFFFFFFFFFFFFFFFFFF MUL NOT AND SWAP1 DUP4 PUSH20 0xFFFFFFFFFFFFFFFFFFFFFFFFFFFFFFFFFFFFFFFF AND MUL OR SWAP1 SSTORE POP DUP2 PUSH20 0xFFFFFFFFFFFFFFFFFFFFFFFFFFFFFFFFFFFFFFFF AND DUP2 PUSH20 0xFFFFFFFFFFFFFFFFFFFFFFFFFFFFFFFFFFFFFFFF AND PUSH32 0x8BE0079C531659141344CD1FD0A4F28419497F9722A3DAAFE3B4186F6B6457E0 PUSH1 0x40 MLOAD PUSH1 0x40 MLOAD DUP1 SWAP2 SUB SWAP1 LOG3 POP POP JUMP JUMPDEST PUSH2 0x1E91 PUSH2 0x1EF2 JUMP JUMPDEST PUSH1 0x1 PUSH0 PUSH1 0x14 PUSH2 0x100 EXP DUP2 SLOAD DUP2 PUSH1 0xFF MUL NOT AND SWAP1 DUP4 ISZERO ISZERO MUL OR SWAP1 SSTORE POP PUSH32 0x62E78CEA01BEE320CD4E420270B5EA74000D11B0C9F74754EBDBFC544B05A258 PUSH2 0x1ED4 PUSH2 0x1EEB JUMP JUMPDEST PUSH1 0x40 MLOAD PUSH2 0x1EE1 SWAP2 SWAP1 PUSH2 0x272F JUMP JUMPDEST PUSH1 0x40 MLOAD DUP1 SWAP2 SUB SWAP1 LOG1 JUMP JUMPDEST PUSH0 CALLER SWAP1 POP SWAP1 JUMP JUMPDEST PUSH2 0x1EFA PUSH2 0x10EC JUMP JUMPDEST ISZERO PUSH2 0x1F31 JUMPI PUSH1 0x40 MLOAD PUSH32 0xD93C066500000000000000000000000000000000000000000000000000000000 DUP2 MSTORE PUSH1 0x4 ADD PUSH1 0x40 MLOAD DUP1 SWAP2 SUB SWAP1 REVERT JUMPDEST JUMP JUMPDEST PUSH1 0x1 DUP2 PUSH0 ADD PUSH0 DUP3 DUP3 SLOAD ADD SWAP3 POP POP DUP2 SWAP1 SSTORE POP POP JUMP JUMPDEST PUSH0 DUP2 PUSH0 ADD SLOAD SWAP1 POP PUSH0 DUP2 GT PUSH2 0x1F90 JUMPI PUSH1 0x40 MLOAD PUSH32 0x8C379A000000000000000000000000000000000000000000000000000000000 DUP2 MSTORE PUSH1 0x4 ADD PUSH2 0x1F87 SWAP1 PUSH2 0x2F22 JUMP JUMPDEST PUSH1 0x40 MLOAD DUP1 SWAP2 SUB SWAP1 REVERT JUMPDEST PUSH1 0x1 DUP2 SUB DUP3 PUSH0 ADD DUP2 SWAP1 SSTORE POP POP POP JUMP JUMPDEST PUSH2 0x1FA7 PUSH2 0x10EC JUMP JUMPDEST PUSH2 0x1FDD JUMPI PUSH1 0x40 MLOAD PUSH32 0x8DFC202B00000000000000000000000000000000000000000000000000000000 DUP2 MSTORE PUSH1 0x4 ADD PUSH1 0x40 MLOAD DUP1 SWAP2 SUB SWAP1 REVERT JUMPDEST JUMP JUMPDEST PUSH1 0x40 MLOAD DUP1 PUSH1 0x80 ADD PUSH1 0x40 MSTORE DUP1 PUSH0 DUP1 NOT AND DUP2 MSTORE PUSH1 0x20 ADD PUSH0 PUSH20 0xFFFFFFFFFFFFFFFFFFFFFFFFFFFFFFFFFFFFFFFF AND DUP2 MSTORE PUSH1 0x20 ADD PUSH0 ISZERO ISZERO DUP2 MSTORE PUSH1 0x20 ADD PUSH0 DUP2 MSTORE POP SWAP1 JUMP JUMPDEST PUSH1 0x40 MLOAD DUP1 PUSH1 0xC0 ADD PUSH1 0x40 MSTORE DUP1 PUSH0 PUSH20 0xFFFFFFFFFFFFFFFFFFFFFFFFFFFFFFFFFFFFFFFF AND DUP2 MSTORE PUSH1 0x20 ADD PUSH0 DUP1 NOT AND DUP2 MSTORE PUSH1 0x20 ADD PUSH0 DUP1 NOT AND DUP2 MSTORE PUSH1 0x20 ADD PUSH0 DUP2 MSTORE PUSH1 0x20 ADD PUSH0 PUSH20 0xFFFFFFFFFFFFFFFFFFFFFFFFFFFFFFFFFFFFFFFF AND DUP2 MSTORE PUSH1 0x20 ADD PUSH0 DUP2 MSTORE POP SWAP1 JUMP JUMPDEST PUSH1 0x40 MLOAD DUP1 PUSH1 0x60 ADD PUSH1 0x40 MSTORE DUP1 PUSH0 PUSH20 0xFFFFFFFFFFFFFFFFFFFFFFFFFFFFFFFFFFFFFFFF AND DUP2 MSTORE PUSH1 0x20 ADD PUSH0 ISZERO ISZERO DUP2 MSTORE PUSH1 0x20 ADD PUSH0 DUP2 MSTORE POP SWAP1 JUMP JUMPDEST PUSH0 DUP2 SWAP1 POP SWAP2 SWAP1 POP JUMP JUMPDEST PUSH2 0x20C8 DUP2 PUSH2 0x20B6 JUMP JUMPDEST DUP3 MSTORE POP POP JUMP JUMPDEST PUSH0 PUSH1 0x20 DUP3 ADD SWAP1 POP PUSH2 0x20E1 PUSH0 DUP4 ADD DUP5 PUSH2 0x20BF JUMP JUMPDEST SWAP3 SWAP2 POP POP JUMP JUMPDEST PUSH0 DUP2 MLOAD SWAP1 POP SWAP2 SWAP1 POP JUMP JUMPDEST PUSH0 DUP3 DUP3 MSTORE PUSH1 0x20 DUP3 ADD SWAP1 POP SWAP3 SWAP2 POP POP JUMP JUMPDEST PUSH0 DUP2 SWAP1 POP PUSH1 0x20 DUP3 ADD SWAP1 POP SWAP2 SWAP1 POP JUMP JUMPDEST PUSH0 DUP2 SWAP1 POP SWAP2 SWAP1 POP JUMP JUMPDEST PUSH2 0x2122 DUP2 PUSH2 0x2110 JUMP JUMPDEST DUP3 MSTORE POP POP JUMP JUMPDEST PUSH0 PUSH20 0xFFFFFFFFFFFFFFFFFFFFFFFFFFFFFFFFFFFFFFFF DUP3 AND SWAP1 POP SWAP2 SWAP1 POP JUMP JUMPDEST PUSH0 PUSH2 0x2151 DUP3 PUSH2 0x2128 JUMP JUMPDEST SWAP1 POP SWAP2 SWAP1 POP JUMP JUMPDEST PUSH2 0x2161 DUP2 PUSH2 0x2147 JUMP JUMPDEST DUP3 MSTORE POP POP JUMP JUMPDEST PUSH0 DUP2 ISZERO ISZERO SWAP1 POP SWAP2 SWAP1 POP JUMP JUMPDEST PUSH2 0x217B DUP2 PUSH2 0x2167 JUMP JUMPDEST DUP3 MSTORE POP POP JUMP JUMPDEST PUSH2 0x218A DUP2 PUSH2 0x20B6 JUMP JUMPDEST DUP3 MSTORE POP POP JUMP JUMPDEST PUSH1 0x80 DUP3 ADD PUSH0 DUP3 ADD MLOAD PUSH2 0x21A4 PUSH0 DUP6 ADD DUP3 PUSH2 0x2119 JUMP JUMPDEST POP PUSH1 0x20 DUP3 ADD MLOAD PUSH2 0x21B7 PUSH1 0x20 DUP6 ADD DUP3 PUSH2 0x2158 JUMP JUMPDEST POP PUSH1 0x40 DUP3 ADD MLOAD PUSH2 0x21CA PUSH1 0x40 DUP6 ADD DUP3 PUSH2 0x2172 JUMP JUMPDEST POP PUSH1 0x60 DUP3 ADD MLOAD PUSH2 0x21DD PUSH1 0x60 DUP6 ADD DUP3 PUSH2 0x2181 JUMP JUMPDEST POP POP POP POP JUMP JUMPDEST PUSH0 PUSH2 0x21EE DUP4 DUP4 PUSH2 0x2190 JUMP JUMPDEST PUSH1 0x80 DUP4 ADD SWAP1 POP SWAP3 SWAP2 POP POP JUMP JUMPDEST PUSH0 PUSH1 0x20 DUP3 ADD SWAP1 POP SWAP2 SWAP1 POP JUMP JUMPDEST PUSH0 PUSH2 0x2210 DUP3 PUSH2 0x20E7 JUMP JUMPDEST PUSH2 0x221A DUP2 DUP6 PUSH2 0x20F1 JUMP JUMPDEST SWAP4 POP PUSH2 0x2225 DUP4 PUSH2 0x2101 JUMP JUMPDEST DUP1 PUSH0 JUMPDEST DUP4 DUP2 LT ISZERO PUSH2 0x2255 JUMPI DUP2 MLOAD PUSH2 0x223C DUP9 DUP3 PUSH2 0x21E3 JUMP JUMPDEST SWAP8 POP PUSH2 0x2247 DUP4 PUSH2 0x21FA JUMP JUMPDEST SWAP3 POP POP PUSH1 0x1 DUP2 ADD SWAP1 POP PUSH2 0x2228 JUMP JUMPDEST POP DUP6 SWAP4 POP POP POP POP SWAP3 SWAP2 POP POP JUMP JUMPDEST PUSH0 PUSH1 0x20 DUP3 ADD SWAP1 POP DUP2 DUP2 SUB PUSH0 DUP4 ADD MSTORE PUSH2 0x227A DUP2 DUP5 PUSH2 0x2206 JUMP JUMPDEST SWAP1 POP SWAP3 SWAP2 POP POP JUMP JUMPDEST PUSH0 PUSH1 0x40 MLOAD SWAP1 POP SWAP1 JUMP JUMPDEST PUSH0 DUP1 REVERT JUMPDEST PUSH0 DUP1 REVERT JUMPDEST PUSH2 0x229C DUP2 PUSH2 0x2110 JUMP JUMPDEST DUP2 EQ PUSH2 0x22A6 JUMPI PUSH0 DUP1 REVERT JUMPDEST POP JUMP JUMPDEST PUSH0 DUP2 CALLDATALOAD SWAP1 POP PUSH2 0x22B7 DUP2 PUSH2 0x2293 JUMP JUMPDEST SWAP3 SWAP2 POP POP JUMP JUMPDEST PUSH0 PUSH1 0x20 DUP3 DUP5 SUB SLT ISZERO PUSH2 0x22D2 JUMPI PUSH2 0x22D1 PUSH2 0x228B JUMP JUMPDEST JUMPDEST PUSH0 PUSH2 0x22DF DUP5 DUP3 DUP6 ADD PUSH2 0x22A9 JUMP JUMPDEST SWAP2 POP POP SWAP3 SWAP2 POP POP JUMP JUMPDEST PUSH0 DUP2 MLOAD SWAP1 POP SWAP2 SWAP1 POP JUMP JUMPDEST PUSH0 DUP3 DUP3 MSTORE PUSH1 0x20 DUP3 ADD SWAP1 POP SWAP3 SWAP2 POP POP JUMP JUMPDEST PUSH0 DUP2 SWAP1 POP PUSH1 0x20 DUP3 ADD SWAP1 POP SWAP2 SWAP1 POP JUMP JUMPDEST PUSH1 0xC0 DUP3 ADD PUSH0 DUP3 ADD MLOAD PUSH2 0x2325 PUSH0 DUP6 ADD DUP3 PUSH2 0x2158 JUMP JUMPDEST POP PUSH1 0x20 DUP3 ADD MLOAD PUSH2 0x2338 PUSH1 0x20 DUP6 ADD DUP3 PUSH2 0x2119 JUMP JUMPDEST POP PUSH1 0x40 DUP3 ADD MLOAD PUSH2 0x234B PUSH1 0x40 DUP6 ADD DUP3 PUSH2 0x2119 JUMP JUMPDEST POP PUSH1 0x60 DUP3 ADD MLOAD PUSH2 0x235E PUSH1 0x60 DUP6 ADD DUP3 PUSH2 0x2181 JUMP JUMPDEST POP PUSH1 0x80 DUP3 ADD MLOAD PUSH2 0x2371 PUSH1 0x80 DUP6 ADD DUP3 PUSH2 0x2158 JUMP JUMPDEST POP PUSH1 0xA0 DUP3 ADD MLOAD PUSH2 0x2384 PUSH1 0xA0 DUP6 ADD DUP3 PUSH2 0x2181 JUMP JUMPDEST POP POP POP POP JUMP JUMPDEST PUSH0 PUSH2 0x2395 DUP4 DUP4 PUSH2 0x2311 JUMP JUMPDEST PUSH1 0xC0 DUP4 ADD SWAP1 POP SWAP3 SWAP2 POP POP JUMP JUMPDEST PUSH0 PUSH1 0x20 DUP3 ADD SWAP1 POP SWAP2 SWAP1 POP JUMP JUMPDEST PUSH0 PUSH2 0x23B7 DUP3 PUSH2 0x22E8 JUMP JUMPDEST PUSH2 0x23C1 DUP2 DUP6 PUSH2 0x22F2 JUMP JUMPDEST SWAP4 POP PUSH2 0x23CC DUP4 PUSH2 0x2302 JUMP JUMPDEST DUP1 PUSH0 JUMPDEST DUP4 DUP2 LT ISZERO PUSH2 0x23FC JUMPI DUP2 MLOAD PUSH2 0x23E3 DUP9 DUP3 PUSH2 0x238A JUMP JUMPDEST SWAP8 POP PUSH2 0x23EE DUP4 PUSH2 0x23A1 JUMP JUMPDEST SWAP3 POP POP PUSH1 0x1 DUP2 ADD SWAP1 POP PUSH2 0x23CF JUMP JUMPDEST POP DUP6 SWAP4 POP POP POP POP SWAP3 SWAP2 POP POP JUMP JUMPDEST PUSH0 PUSH1 0x20 DUP3 ADD SWAP1 POP DUP2 DUP2 SUB PUSH0 DUP4 ADD MSTORE PUSH2 0x2421 DUP2 DUP5 PUSH2 0x23AD JUMP JUMPDEST SWAP1 POP SWAP3 SWAP2 POP POP JUMP JUMPDEST PUSH2 0x2432 DUP2 PUSH2 0x2147 JUMP JUMPDEST DUP2 EQ PUSH2 0x243C JUMPI PUSH0 DUP1 REVERT JUMPDEST POP JUMP JUMPDEST PUSH0 DUP2 CALLDATALOAD SWAP1 POP PUSH2 0x244D DUP2 PUSH2 0x2429 JUMP JUMPDEST SWAP3 SWAP2 POP POP JUMP JUMPDEST PUSH0 PUSH1 0x20 DUP3 DUP5 SUB SLT ISZERO PUSH2 0x2468 JUMPI PUSH2 0x2467 PUSH2 0x228B JUMP JUMPDEST JUMPDEST PUSH0 PUSH2 0x2475 DUP5 DUP3 DUP6 ADD PUSH2 0x243F JUMP JUMPDEST SWAP2 POP POP SWAP3 SWAP2 POP POP JUMP JUMPDEST PUSH0 PUSH1 0xFF DUP3 AND SWAP1 POP SWAP2 SWAP1 POP JUMP JUMPDEST PUSH2 0x2493 DUP2 PUSH2 0x247E JUMP JUMPDEST DUP2 EQ PUSH2 0x249D JUMPI PUSH0 DUP1 REVERT JUMPDEST POP JUMP JUMPDEST PUSH0 DUP2 CALLDATALOAD SWAP1 POP PUSH2 0x24AE DUP2 PUSH2 0x248A JUMP JUMPDEST SWAP3 SWAP2 POP POP JUMP JUMPDEST PUSH0 PUSH1 0x20 DUP3 DUP5 SUB SLT ISZERO PUSH2 0x24C9 JUMPI PUSH2 0x24C8 PUSH2 0x228B JUMP JUMPDEST JUMPDEST PUSH0 PUSH2 0x24D6 DUP5 DUP3 DUP6 ADD PUSH2 0x24A0 JUMP JUMPDEST SWAP2 POP POP SWAP3 SWAP2 POP POP JUMP JUMPDEST PUSH2 0x24E8 DUP2 PUSH2 0x2167 JUMP JUMPDEST DUP3 MSTORE POP POP JUMP JUMPDEST PUSH0 PUSH1 0x20 DUP3 ADD SWAP1 POP PUSH2 0x2501 PUSH0 DUP4 ADD DUP5 PUSH2 0x24DF JUMP JUMPDEST SWAP3 SWAP2 POP POP JUMP JUMPDEST PUSH0 PUSH2 0x2511 DUP3 PUSH2 0x2128 JUMP JUMPDEST SWAP1 POP SWAP2 SWAP1 POP JUMP JUMPDEST PUSH2 0x2521 DUP2 PUSH2 0x2507 JUMP JUMPDEST DUP2 EQ PUSH2 0x252B JUMPI PUSH0 DUP1 REVERT JUMPDEST POP JUMP JUMPDEST PUSH0 DUP2 CALLDATALOAD SWAP1 POP PUSH2 0x253C DUP2 PUSH2 0x2518 JUMP JUMPDEST SWAP3 SWAP2 POP POP JUMP JUMPDEST PUSH2 0x254B DUP2 PUSH2 0x20B6 JUMP JUMPDEST DUP2 EQ PUSH2 0x2555 JUMPI PUSH0 DUP1 REVERT JUMPDEST POP JUMP JUMPDEST PUSH0 DUP2 CALLDATALOAD SWAP1 POP PUSH2 0x2566 DUP2 PUSH2 0x2542 JUMP JUMPDEST SWAP3 SWAP2 POP POP JUMP JUMPDEST PUSH0 DUP1 PUSH1 0x40 DUP4 DUP6 SUB SLT ISZERO PUSH2 0x2582 JUMPI PUSH2 0x2581 PUSH2 0x228B JUMP JUMPDEST JUMPDEST PUSH0 PUSH2 0x258F DUP6 DUP3 DUP7 ADD PUSH2 0x252E JUMP JUMPDEST SWAP3 POP POP PUSH1 0x20 PUSH2 0x25A0 DUP6 DUP3 DUP7 ADD PUSH2 0x2558 JUMP JUMPDEST SWAP2 POP POP SWAP3 POP SWAP3 SWAP1 POP JUMP JUMPDEST PUSH0 DUP2 MLOAD SWAP1 POP SWAP2 SWAP1 POP JUMP JUMPDEST PUSH0 DUP3 DUP3 MSTORE PUSH1 0x20 DUP3 ADD SWAP1 POP SWAP3 SWAP2 POP POP JUMP JUMPDEST PUSH0 DUP2 SWAP1 POP PUSH1 0x20 DUP3 ADD SWAP1 POP SWAP2 SWAP1 POP JUMP JUMPDEST PUSH1 0x60 DUP3 ADD PUSH0 DUP3 ADD MLOAD PUSH2 0x25E7 PUSH0 DUP6 ADD DUP3 PUSH2 0x2158 JUMP JUMPDEST POP PUSH1 0x20 DUP3 ADD MLOAD PUSH2 0x25FA PUSH1 0x20 DUP6 ADD DUP3 PUSH2 0x2172 JUMP JUMPDEST POP PUSH1 0x40 DUP3 ADD MLOAD PUSH2 0x260D PUSH1 0x40 DUP6 ADD DUP3 PUSH2 0x2181 JUMP JUMPDEST POP POP POP POP JUMP JUMPDEST PUSH0 PUSH2 0x261E DUP4 DUP4 PUSH2 0x25D3 JUMP JUMPDEST PUSH1 0x60 DUP4 ADD SWAP1 POP SWAP3 SWAP2 POP POP JUMP JUMPDEST PUSH0 PUSH1 0x20 DUP3 ADD SWAP1 POP SWAP2 SWAP1 POP JUMP JUMPDEST PUSH0 PUSH2 0x2640 DUP3 PUSH2 0x25AA JUMP JUMPDEST PUSH2 0x264A DUP2 DUP6 PUSH2 0x25B4 JUMP JUMPDEST SWAP4 POP PUSH2 0x2655 DUP4 PUSH2 0x25C4 JUMP JUMPDEST DUP1 PUSH0 JUMPDEST DUP4 DUP2 LT ISZERO PUSH2 0x2685 JUMPI DUP2 MLOAD PUSH2 0x266C DUP9 DUP3 PUSH2 0x2613 JUMP JUMPDEST SWAP8 POP PUSH2 0x2677 DUP4 PUSH2 0x262A JUMP JUMPDEST SWAP3 POP POP PUSH1 0x1 DUP2 ADD SWAP1 POP PUSH2 0x2658 JUMP JUMPDEST POP DUP6 SWAP4 POP POP POP POP SWAP3 SWAP2 POP POP JUMP JUMPDEST PUSH0 PUSH1 0x20 DUP3 ADD SWAP1 POP DUP2 DUP2 SUB PUSH0 DUP4 ADD MSTORE PUSH2 0x26AA DUP2 DUP5 PUSH2 0x2636 JUMP JUMPDEST SWAP1 POP SWAP3 SWAP2 POP POP JUMP JUMPDEST PUSH2 0x26BB DUP2 PUSH2 0x2147 JUMP JUMPDEST DUP3 MSTORE POP POP JUMP JUMPDEST PUSH2 0x26CA DUP2 PUSH2 0x2110 JUMP JUMPDEST DUP3 MSTORE POP POP JUMP JUMPDEST PUSH0 PUSH1 0xC0 DUP3 ADD SWAP1 POP PUSH2 0x26E3 PUSH0 DUP4 ADD DUP10 PUSH2 0x26B2 JUMP JUMPDEST PUSH2 0x26F0 PUSH1 0x20 DUP4 ADD DUP9 PUSH2 0x26C1 JUMP JUMPDEST PUSH2 0x26FD PUSH1 0x40 DUP4 ADD DUP8 PUSH2 0x26C1 JUMP JUMPDEST PUSH2 0x270A PUSH1 0x60 DUP4 ADD DUP7 PUSH2 0x20BF JUMP JUMPDEST PUSH2 0x2717 PUSH1 0x80 DUP4 ADD DUP6 PUSH2 0x26B2 JUMP JUMPDEST PUSH2 0x2724 PUSH1 0xA0 DUP4 ADD DUP5 PUSH2 0x20BF JUMP JUMPDEST SWAP8 SWAP7 POP POP POP POP POP POP POP JUMP JUMPDEST PUSH0 PUSH1 0x20 DUP3 ADD SWAP1 POP PUSH2 0x2742 PUSH0 DUP4 ADD DUP5 PUSH2 0x26B2 JUMP JUMPDEST SWAP3 SWAP2 POP POP JUMP JUMPDEST PUSH2 0x2751 DUP2 PUSH2 0x2167 JUMP JUMPDEST DUP2 EQ PUSH2 0x275B JUMPI PUSH0 DUP1 REVERT JUMPDEST POP JUMP JUMPDEST PUSH0 DUP2 CALLDATALOAD SWAP1 POP PUSH2 0x276C DUP2 PUSH2 0x2748 JUMP JUMPDEST SWAP3 SWAP2 POP POP JUMP JUMPDEST PUSH0 DUP1 PUSH0 PUSH1 0x60 DUP5 DUP7 SUB SLT ISZERO PUSH2 0x2789 JUMPI PUSH2 0x2788 PUSH2 0x228B JUMP JUMPDEST JUMPDEST PUSH0 PUSH2 0x2796 DUP7 DUP3 DUP8 ADD PUSH2 0x22A9 JUMP JUMPDEST SWAP4 POP POP PUSH1 0x20 PUSH2 0x27A7 DUP7 DUP3 DUP8 ADD PUSH2 0x243F JUMP JUMPDEST SWAP3 POP POP PUSH1 0x40 PUSH2 0x27B8 DUP7 DUP3 DUP8 ADD PUSH2 0x275E JUMP JUMPDEST SWAP2 POP POP SWAP3 POP SWAP3 POP SWAP3 JUMP JUMPDEST PUSH0 DUP1 PUSH1 0x40 DUP4 DUP6 SUB SLT ISZERO PUSH2 0x27D8 JUMPI PUSH2 0x27D7 PUSH2 0x228B JUMP JUMPDEST JUMPDEST PUSH0 PUSH2 0x27E5 DUP6 DUP3 DUP7 ADD PUSH2 0x2558 JUMP JUMPDEST SWAP3 POP POP PUSH1 0x20 PUSH2 0x27F6 DUP6 DUP3 DUP7 ADD PUSH2 0x2558 JUMP JUMPDEST SWAP2 POP POP SWAP3 POP SWAP3 SWAP1 POP JUMP JUMPDEST PUSH0 DUP1 REVERT JUMPDEST PUSH0 DUP1 REVERT JUMPDEST PUSH0 PUSH1 0x1F NOT PUSH1 0x1F DUP4 ADD AND SWAP1 POP SWAP2 SWAP1 POP JUMP JUMPDEST PUSH32 0x4E487B7100000000000000000000000000000000000000000000000000000000 PUSH0 MSTORE PUSH1 0x41 PUSH1 0x4 MSTORE PUSH1 0x24 PUSH0 REVERT JUMPDEST PUSH2 0x284E DUP3 PUSH2 0x2808 JUMP JUMPDEST DUP2 ADD DUP2 DUP2 LT PUSH8 0xFFFFFFFFFFFFFFFF DUP3 GT OR ISZERO PUSH2 0x286D JUMPI PUSH2 0x286C PUSH2 0x2818 JUMP JUMPDEST JUMPDEST DUP1 PUSH1 0x40 MSTORE POP POP POP JUMP JUMPDEST PUSH0 PUSH2 0x287F PUSH2 0x2282 JUMP JUMPDEST SWAP1 POP PUSH2 0x288B DUP3 DUP3 PUSH2 0x2845 JUMP JUMPDEST SWAP2 SWAP1 POP JUMP JUMPDEST PUSH0 PUSH8 0xFFFFFFFFFFFFFFFF DUP3 GT ISZERO PUSH2 0x28AA JUMPI PUSH2 0x28A9 PUSH2 0x2818 JUMP JUMPDEST JUMPDEST PUSH2 0x28B3 DUP3 PUSH2 0x2808 JUMP JUMPDEST SWAP1 POP PUSH1 0x20 DUP2 ADD SWAP1 POP SWAP2 SWAP1 POP JUMP JUMPDEST DUP3 DUP2 DUP4 CALLDATACOPY PUSH0 DUP4 DUP4 ADD MSTORE POP POP POP JUMP JUMPDEST PUSH0 PUSH2 0x28E0 PUSH2 0x28DB DUP5 PUSH2 0x2890 JUMP JUMPDEST PUSH2 0x2876 JUMP JUMPDEST SWAP1 POP DUP3 DUP2 MSTORE PUSH1 0x20 DUP2 ADD DUP5 DUP5 DUP5 ADD GT ISZERO PUSH2 0x28FC JUMPI PUSH2 0x28FB PUSH2 0x2804 JUMP JUMPDEST JUMPDEST PUSH2 0x2907 DUP5 DUP3 DUP6 PUSH2 0x28C0 JUMP JUMPDEST POP SWAP4 SWAP3 POP POP POP JUMP JUMPDEST PUSH0 DUP3 PUSH1 0x1F DUP4 ADD SLT PUSH2 0x2923 JUMPI PUSH2 0x2922 PUSH2 0x2800 JUMP JUMPDEST JUMPDEST DUP2 CALLDATALOAD PUSH2 0x2933 DUP5 DUP3 PUSH1 0x20 DUP7 ADD PUSH2 0x28CE JUMP JUMPDEST SWAP2 POP POP SWAP3 SWAP2 POP POP JUMP JUMPDEST PUSH0 DUP1 PUSH0 DUP1 PUSH0 DUP1 PUSH1 0xC0 DUP8 DUP10 SUB SLT ISZERO PUSH2 0x2956 JUMPI PUSH2 0x2955 PUSH2 0x228B JUMP JUMPDEST JUMPDEST PUSH0 PUSH2 0x2963 DUP10 DUP3 DUP11 ADD PUSH2 0x22A9 JUMP JUMPDEST SWAP7 POP POP PUSH1 0x20 PUSH2 0x2974 DUP10 DUP3 DUP11 ADD PUSH2 0x243F JUMP JUMPDEST SWAP6 POP POP PUSH1 0x40 PUSH2 0x2985 DUP10 DUP3 DUP11 ADD PUSH2 0x2558 JUMP JUMPDEST SWAP5 POP POP PUSH1 0x60 PUSH2 0x2996 DUP10 DUP3 DUP11 ADD PUSH2 0x275E JUMP JUMPDEST SWAP4 POP POP PUSH1 0x80 DUP8 ADD CALLDATALOAD PUSH8 0xFFFFFFFFFFFFFFFF DUP2 GT ISZERO PUSH2 0x29B7 JUMPI PUSH2 0x29B6 PUSH2 0x228F JUMP JUMPDEST JUMPDEST PUSH2 0x29C3 DUP10 DUP3 DUP11 ADD PUSH2 0x290F JUMP JUMPDEST SWAP3 POP POP PUSH1 0xA0 PUSH2 0x29D4 DUP10 DUP3 DUP11 ADD PUSH2 0x22A9 JUMP JUMPDEST SWAP2 POP POP SWAP3 SWAP6 POP SWAP3 SWAP6 POP SWAP3 SWAP6 JUMP JUMPDEST PUSH0 PUSH1 0x20 DUP3 ADD SWAP1 POP PUSH2 0x29F4 PUSH0 DUP4 ADD DUP5 PUSH2 0x26C1 JUMP JUMPDEST SWAP3 SWAP2 POP POP JUMP JUMPDEST PUSH0 PUSH1 0x60 DUP3 ADD SWAP1 POP PUSH2 0x2A0D PUSH0 DUP4 ADD DUP7 PUSH2 0x26B2 JUMP JUMPDEST PUSH2 0x2A1A PUSH1 0x20 DUP4 ADD DUP6 PUSH2 0x24DF JUMP JUMPDEST PUSH2 0x2A27 PUSH1 0x40 DUP4 ADD DUP5 PUSH2 0x20BF JUMP JUMPDEST SWAP5 SWAP4 POP POP POP POP JUMP JUMPDEST PUSH32 0x4E487B7100000000000000000000000000000000000000000000000000000000 PUSH0 MSTORE PUSH1 0x11 PUSH1 0x4 MSTORE PUSH1 0x24 PUSH0 REVERT JUMPDEST PUSH0 PUSH2 0x2A66 DUP3 PUSH2 0x20B6 JUMP JUMPDEST SWAP2 POP PUSH2 0x2A71 DUP4 PUSH2 0x20B6 JUMP JUMPDEST SWAP3 POP DUP3 DUP3 ADD SWAP1 POP DUP1 DUP3 GT ISZERO PUSH2 0x2A89 JUMPI PUSH2 0x2A88 PUSH2 0x2A2F JUMP JUMPDEST JUMPDEST SWAP3 SWAP2 POP POP JUMP JUMPDEST PUSH32 0x4E487B7100000000000000000000000000000000000000000000000000000000 PUSH0 MSTORE PUSH1 0x32 PUSH1 0x4 MSTORE PUSH1 0x24 PUSH0 REVERT JUMPDEST PUSH0 DUP2 SWAP1 POP SWAP3 SWAP2 POP POP JUMP JUMPDEST POP JUMP JUMPDEST PUSH0 PUSH2 0x2AD4 PUSH0 DUP4 PUSH2 0x2ABC JUMP JUMPDEST SWAP2 POP PUSH2 0x2ADF DUP3 PUSH2 0x2AC6 JUMP JUMPDEST PUSH0 DUP3 ADD SWAP1 POP SWAP2 SWAP1 POP JUMP JUMPDEST PUSH0 PUSH2 0x2AF3 DUP3 PUSH2 0x2AC9 JUMP JUMPDEST SWAP2 POP DUP2 SWAP1 POP SWAP2 SWAP1 POP JUMP JUMPDEST PUSH0 DUP3 DUP3 MSTORE PUSH1 0x20 DUP3 ADD SWAP1 POP SWAP3 SWAP2 POP POP JUMP JUMPDEST PUSH32 0x4661696C65640000000000000000000000000000000000000000000000000000 PUSH0 DUP3 ADD MSTORE POP JUMP JUMPDEST PUSH0 PUSH2 0x2B41 PUSH1 0x6 DUP4 PUSH2 0x2AFD JUMP JUMPDEST SWAP2 POP PUSH2 0x2B4C DUP3 PUSH2 0x2B0D JUMP JUMPDEST PUSH1 0x20 DUP3 ADD SWAP1 POP SWAP2 SWAP1 POP JUMP JUMPDEST PUSH0 PUSH1 0x20 DUP3 ADD SWAP1 POP DUP2 DUP2 SUB PUSH0 DUP4 ADD MSTORE PUSH2 0x2B6E DUP2 PUSH2 0x2B35 JUMP JUMPDEST SWAP1 POP SWAP2 SWAP1 POP JUMP JUMPDEST PUSH0 PUSH2 0x2B7F DUP3 PUSH2 0x20B6 JUMP JUMPDEST SWAP2 POP PUSH32 0xFFFFFFFFFFFFFFFFFFFFFFFFFFFFFFFFFFFFFFFFFFFFFFFFFFFFFFFFFFFFFFFF DUP3 SUB PUSH2 0x2BB1 JUMPI PUSH2 0x2BB0 PUSH2 0x2A2F JUMP JUMPDEST JUMPDEST PUSH1 0x1 DUP3 ADD SWAP1 POP SWAP2 SWAP1 POP JUMP JUMPDEST PUSH2 0x2BC5 DUP2 PUSH2 0x247E JUMP JUMPDEST DUP3 MSTORE POP POP JUMP JUMPDEST PUSH0 PUSH1 0x20 DUP3 ADD SWAP1 POP PUSH2 0x2BDE PUSH0 DUP4 ADD DUP5 PUSH2 0x2BBC JUMP JUMPDEST SWAP3 SWAP2 POP POP JUMP JUMPDEST PUSH0 PUSH1 0x40 DUP3 ADD SWAP1 POP PUSH2 0x2BF7 PUSH0 DUP4 ADD DUP6 PUSH2 0x26B2 JUMP JUMPDEST PUSH2 0x2C04 PUSH1 0x20 DUP4 ADD DUP5 PUSH2 0x26B2 JUMP JUMPDEST SWAP4 SWAP3 POP POP POP JUMP JUMPDEST PUSH0 PUSH2 0x2C15 DUP3 PUSH2 0x20B6 JUMP JUMPDEST SWAP2 POP PUSH2 0x2C20 DUP4 PUSH2 0x20B6 JUMP JUMPDEST SWAP3 POP DUP3 DUP3 MUL PUSH2 0x2C2E DUP2 PUSH2 0x20B6 JUMP JUMPDEST SWAP2 POP DUP3 DUP3 DIV DUP5 EQ DUP4 ISZERO OR PUSH2 0x2C45 JUMPI PUSH2 0x2C44 PUSH2 0x2A2F JUMP JUMPDEST JUMPDEST POP SWAP3 SWAP2 POP POP JUMP JUMPDEST PUSH32 0x4E487B7100000000000000000000000000000000000000000000000000000000 PUSH0 MSTORE PUSH1 0x12 PUSH1 0x4 MSTORE PUSH1 0x24 PUSH0 REVERT JUMPDEST PUSH0 PUSH2 0x2C83 DUP3 PUSH2 0x20B6 JUMP JUMPDEST SWAP2 POP PUSH2 0x2C8E DUP4 PUSH2 0x20B6 JUMP JUMPDEST SWAP3 POP DUP3 PUSH2 0x2C9E JUMPI PUSH2 0x2C9D PUSH2 0x2C4C JUMP JUMPDEST JUMPDEST DUP3 DUP3 DIV SWAP1 POP SWAP3 SWAP2 POP POP JUMP JUMPDEST PUSH0 PUSH2 0x2CB3 DUP3 PUSH2 0x247E JUMP JUMPDEST SWAP2 POP PUSH2 0x2CBE DUP4 PUSH2 0x247E JUMP JUMPDEST SWAP3 POP DUP3 DUP3 SUB SWAP1 POP PUSH1 0xFF DUP2 GT ISZERO PUSH2 0x2CD7 JUMPI PUSH2 0x2CD6 PUSH2 0x2A2F JUMP JUMPDEST JUMPDEST SWAP3 SWAP2 POP POP JUMP JUMPDEST PUSH32 0x4661696C656420746F2073656E6420457468657220746F20746865206D616E61 PUSH0 DUP3 ADD MSTORE PUSH32 0x6765720000000000000000000000000000000000000000000000000000000000 PUSH1 0x20 DUP3 ADD MSTORE POP JUMP JUMPDEST PUSH0 PUSH2 0x2D37 PUSH1 0x23 DUP4 PUSH2 0x2AFD JUMP JUMPDEST SWAP2 POP PUSH2 0x2D42 DUP3 PUSH2 0x2CDD JUMP JUMPDEST PUSH1 0x40 DUP3 ADD SWAP1 POP SWAP2 SWAP1 POP JUMP JUMPDEST PUSH0 PUSH1 0x20 DUP3 ADD SWAP1 POP DUP2 DUP2 SUB PUSH0 DUP4 ADD MSTORE PUSH2 0x2D64 DUP2 PUSH2 0x2D2B JUMP JUMPDEST SWAP1 POP SWAP2 SWAP1 POP JUMP JUMPDEST PUSH0 DUP2 MLOAD SWAP1 POP PUSH2 0x2D79 DUP2 PUSH2 0x2542 JUMP JUMPDEST SWAP3 SWAP2 POP POP JUMP JUMPDEST PUSH0 PUSH1 0x20 DUP3 DUP5 SUB SLT ISZERO PUSH2 0x2D94 JUMPI PUSH2 0x2D93 PUSH2 0x228B JUMP JUMPDEST JUMPDEST PUSH0 PUSH2 0x2DA1 DUP5 DUP3 DUP6 ADD PUSH2 0x2D6B JUMP JUMPDEST SWAP2 POP POP SWAP3 SWAP2 POP POP JUMP JUMPDEST PUSH0 PUSH1 0x40 DUP3 ADD SWAP1 POP PUSH2 0x2DBD PUSH0 DUP4 ADD DUP6 PUSH2 0x20BF JUMP JUMPDEST PUSH2 0x2DCA PUSH1 0x20 DUP4 ADD DUP5 PUSH2 0x20BF JUMP JUMPDEST SWAP4 SWAP3 POP POP POP JUMP JUMPDEST PUSH0 DUP2 MLOAD SWAP1 POP SWAP2 SWAP1 POP JUMP JUMPDEST PUSH0 DUP3 DUP3 MSTORE PUSH1 0x20 DUP3 ADD SWAP1 POP SWAP3 SWAP2 POP POP JUMP JUMPDEST PUSH0 JUMPDEST DUP4 DUP2 LT ISZERO PUSH2 0x2E08 JUMPI DUP1 DUP3 ADD MLOAD DUP2 DUP5 ADD MSTORE PUSH1 0x20 DUP2 ADD SWAP1 POP PUSH2 0x2DED JUMP JUMPDEST PUSH0 DUP5 DUP5 ADD MSTORE POP POP POP POP JUMP JUMPDEST PUSH0 PUSH2 0x2E1D DUP3 PUSH2 0x2DD1 JUMP JUMPDEST PUSH2 0x2E27 DUP2 DUP6 PUSH2 0x2DDB JUMP JUMPDEST SWAP4 POP PUSH2 0x2E37 DUP2 DUP6 PUSH1 0x20 DUP7 ADD PUSH2 0x2DEB JUMP JUMPDEST PUSH2 0x2E40 DUP2 PUSH2 0x2808 JUMP JUMPDEST DUP5 ADD SWAP2 POP POP SWAP3 SWAP2 POP POP JUMP JUMPDEST PUSH0 PUSH1 0xA0 DUP3 ADD SWAP1 POP PUSH2 0x2E5E PUSH0 DUP4 ADD DUP9 PUSH2 0x26B2 JUMP JUMPDEST PUSH2 0x2E6B PUSH1 0x20 DUP4 ADD DUP8 PUSH2 0x26B2 JUMP JUMPDEST PUSH2 0x2E78 PUSH1 0x40 DUP4 ADD DUP7 PUSH2 0x20BF JUMP JUMPDEST PUSH2 0x2E85 PUSH1 0x60 DUP4 ADD DUP6 PUSH2 0x24DF JUMP JUMPDEST DUP2 DUP2 SUB PUSH1 0x80 DUP4 ADD MSTORE PUSH2 0x2E97 DUP2 DUP5 PUSH2 0x2E13 JUMP JUMPDEST SWAP1 POP SWAP7 SWAP6 POP POP POP POP POP POP JUMP JUMPDEST PUSH0 PUSH1 0x60 DUP3 ADD SWAP1 POP PUSH2 0x2EB6 PUSH0 DUP4 ADD DUP7 PUSH2 0x26B2 JUMP JUMPDEST PUSH2 0x2EC3 PUSH1 0x20 DUP4 ADD DUP6 PUSH2 0x26B2 JUMP JUMPDEST PUSH2 0x2ED0 PUSH1 0x40 DUP4 ADD DUP5 PUSH2 0x20BF JUMP JUMPDEST SWAP5 SWAP4 POP POP POP POP JUMP JUMPDEST PUSH32 0x436F756E7465723A2064656372656D656E74206F766572666C6F770000000000 PUSH0 DUP3 ADD MSTORE POP JUMP JUMPDEST PUSH0 PUSH2 0x2F0C PUSH1 0x1B DUP4 PUSH2 0x2AFD JUMP JUMPDEST SWAP2 POP PUSH2 0x2F17 DUP3 PUSH2 0x2ED8 JUMP JUMPDEST PUSH1 0x20 DUP3 ADD SWAP1 POP SWAP2 SWAP1 POP JUMP JUMPDEST PUSH0 PUSH1 0x20 DUP3 ADD SWAP1 POP DUP2 DUP2 SUB PUSH0 DUP4 ADD MSTORE PUSH2 0x2F39 DUP2 PUSH2 0x2F00 JUMP JUMPDEST SWAP1 POP SWAP2 SWAP1 POP JUMP INVALID LOG2 PUSH5 0x6970667358 0x22 SLT KECCAK256 0xFB 0xE7 STOP 0x27 PUSH16 0x2D99E495CBAD5D5FAA8C5C21E783C536 GASPRICE 0xDB DELEGATECALL MSTORE SGT 0xB4 0xAC CALLDATACOPY 0xC8 0xE1 GASPRICE PUSH5 0x736F6C6343 STOP ADDMOD XOR STOP CALLER "
				},
				"gasEstimates": {
					"creation": {
						"codeDepositCost": "2430000",
						"executionCost": "infinite",
						"totalCost": "infinite"
					},
					"external": {
						"_donateCounter()": "2548",
						"_tokenCounter()": "2527",
						"addToken(address)": "infinite",
						"calcPercentage(uint256,uint256)": "infinite",
						"deleteToken(bytes32)": "infinite",
						"donate(bytes32,address,uint256,bool,bytes,bytes32)": "infinite",
						"donation(bytes32)": "infinite",
						"getBalance()": "358",
						"getDonation(address)": "infinite",
						"getDonationByAppId(bytes32)": "infinite",
						"getDonationByToekn(bytes32)": "infinite",
						"getDonationList()": "infinite",
						"getToken(address)": "infinite",
						"getTokenList()": "infinite",
						"owner()": "2582",
						"pause()": "infinite",
						"paused()": "2635",
						"renounceOwnership()": "infinite",
						"token(bytes32)": "7407",
						"transferBalance(address,uint256)": "infinite",
						"transferOwnership(address)": "infinite",
						"unpause()": "infinite",
						"updateToken(bytes32,address,bool)": "infinite",
						"updateToken(uint8)": "infinite",
						"withdraw()": "infinite"
					}
				},
				"methodIdentifiers": {
					"_donateCounter()": "f7edbbac",
					"_tokenCounter()": "9230b2bc",
					"addToken(address)": "d48bfca7",
					"calcPercentage(uint256,uint256)": "a37b06d4",
					"deleteToken(bytes32)": "f1a3b943",
					"donate(bytes32,address,uint256,bool,bytes,bytes32)": "b2f7c6e0",
					"donation(bytes32)": "75e6e600",
					"getBalance()": "12065fe0",
					"getDonation(address)": "410a1d32",
					"getDonationByAppId(bytes32)": "cacf11e7",
					"getDonationByToekn(bytes32)": "3d496362",
					"getDonationList()": "443910e0",
					"getToken(address)": "59770438",
					"getTokenList()": "273cbaa0",
					"owner()": "8da5cb5b",
					"pause()": "8456cb59",
					"paused()": "5c975abb",
					"renounceOwnership()": "715018a6",
					"token(bytes32)": "e6062e1a",
					"transferBalance(address,uint256)": "56a6d9ef",
					"transferOwnership(address)": "f2fde38b",
					"unpause()": "3f4ba83a",
					"updateToken(bytes32,address,bool)": "95a7a953",
					"updateToken(uint8)": "4df71212",
					"withdraw()": "3ccfd60b"
				}
			},
			"storageLayout": {
				"storage": [
					{
						"astId": 2835,
						"contract": "DirectDonation.sol:DirectDonation",
						"label": "_owner",
						"offset": 0,
						"slot": "0",
						"type": "t_address"
					},
					{
						"astId": 2983,
						"contract": "DirectDonation.sol:DirectDonation",
						"label": "_paused",
						"offset": 20,
						"slot": "0",
						"type": "t_bool"
					},
					{
						"astId": 1831,
						"contract": "DirectDonation.sol:DirectDonation",
						"label": "_donateCounter",
						"offset": 0,
						"slot": "1",
						"type": "t_struct(Counter)311_storage"
					},
					{
						"astId": 1834,
						"contract": "DirectDonation.sol:DirectDonation",
						"label": "_tokenCounter",
						"offset": 0,
						"slot": "2",
						"type": "t_struct(Counter)311_storage"
					},
					{
						"astId": 1837,
						"contract": "DirectDonation.sol:DirectDonation",
						"label": "fee",
						"offset": 0,
						"slot": "3",
						"type": "t_uint8"
					},
					{
						"astId": 1871,
						"contract": "DirectDonation.sol:DirectDonation",
						"label": "donation",
						"offset": 0,
						"slot": "4",
						"type": "t_mapping(t_bytes32,t_struct(DonationStruct)1850_storage)"
					},
					{
						"astId": 1876,
						"contract": "DirectDonation.sol:DirectDonation",
						"label": "token",
						"offset": 0,
						"slot": "5",
						"type": "t_mapping(t_bytes32,t_struct(TokenStruct)1857_storage)"
					}
				],
				"types": {
					"t_address": {
						"encoding": "inplace",
						"label": "address",
						"numberOfBytes": "20"
					},
					"t_bool": {
						"encoding": "inplace",
						"label": "bool",
						"numberOfBytes": "1"
					},
					"t_bytes32": {
						"encoding": "inplace",
						"label": "bytes32",
						"numberOfBytes": "32"
					},
					"t_mapping(t_bytes32,t_struct(DonationStruct)1850_storage)": {
						"encoding": "mapping",
						"key": "t_bytes32",
						"label": "mapping(bytes32 => struct DirectDonation.DonationStruct)",
						"numberOfBytes": "32",
						"value": "t_struct(DonationStruct)1850_storage"
					},
					"t_mapping(t_bytes32,t_struct(TokenStruct)1857_storage)": {
						"encoding": "mapping",
						"key": "t_bytes32",
						"label": "mapping(bytes32 => struct DirectDonation.TokenStruct)",
						"numberOfBytes": "32",
						"value": "t_struct(TokenStruct)1857_storage"
					},
					"t_struct(Counter)311_storage": {
						"encoding": "inplace",
						"label": "struct Counters.Counter",
						"members": [
							{
								"astId": 310,
								"contract": "DirectDonation.sol:DirectDonation",
								"label": "_value",
								"offset": 0,
								"slot": "0",
								"type": "t_uint256"
							}
						],
						"numberOfBytes": "32"
					},
					"t_struct(DonationStruct)1850_storage": {
						"encoding": "inplace",
						"label": "struct DirectDonation.DonationStruct",
						"members": [
							{
								"astId": 1839,
								"contract": "DirectDonation.sol:DirectDonation",
								"label": "donator",
								"offset": 0,
								"slot": "0",
								"type": "t_address"
							},
							{
								"astId": 1841,
								"contract": "DirectDonation.sol:DirectDonation",
								"label": "tokenId",
								"offset": 0,
								"slot": "1",
								"type": "t_bytes32"
							},
							{
								"astId": 1843,
								"contract": "DirectDonation.sol:DirectDonation",
								"label": "appId",
								"offset": 0,
								"slot": "2",
								"type": "t_bytes32"
							},
							{
								"astId": 1845,
								"contract": "DirectDonation.sol:DirectDonation",
								"label": "amount",
								"offset": 0,
								"slot": "3",
								"type": "t_uint256"
							},
							{
								"astId": 1847,
								"contract": "DirectDonation.sol:DirectDonation",
								"label": "to",
								"offset": 0,
								"slot": "4",
								"type": "t_address"
							},
							{
								"astId": 1849,
								"contract": "DirectDonation.sol:DirectDonation",
								"label": "dt",
								"offset": 0,
								"slot": "5",
								"type": "t_uint256"
							}
						],
						"numberOfBytes": "192"
					},
					"t_struct(TokenStruct)1857_storage": {
						"encoding": "inplace",
						"label": "struct DirectDonation.TokenStruct",
						"members": [
							{
								"astId": 1852,
								"contract": "DirectDonation.sol:DirectDonation",
								"label": "addr",
								"offset": 0,
								"slot": "0",
								"type": "t_address"
							},
							{
								"astId": 1854,
								"contract": "DirectDonation.sol:DirectDonation",
								"label": "pause",
								"offset": 20,
								"slot": "0",
								"type": "t_bool"
							},
							{
								"astId": 1856,
								"contract": "DirectDonation.sol:DirectDonation",
								"label": "dt",
								"offset": 0,
								"slot": "1",
								"type": "t_uint256"
							}
						],
						"numberOfBytes": "64"
					},
					"t_uint256": {
						"encoding": "inplace",
						"label": "uint256",
						"numberOfBytes": "32"
					},
					"t_uint8": {
						"encoding": "inplace",
						"label": "uint8",
						"numberOfBytes": "1"
					}
				}
			},
			"userdoc": {
				"kind": "user",
				"methods": {
					"addToken(address)": {
						"notice": "Add a token"
					},
					"calcPercentage(uint256,uint256)": {
						"notice": "calcPercentage percentage"
					},
					"deleteToken(bytes32)": {
						"notice": "Delete a token"
					},
					"donate(bytes32,address,uint256,bool,bytes,bytes32)": {
						"notice": "Donate"
					},
					"getBalance()": {
						"notice": "Return the balance of this contract"
					},
					"getDonation(address)": {
						"notice": "Get donation list, filter by donator"
					},
					"getDonationByAppId(bytes32)": {
						"notice": "Get donation list, filter by tokenId"
					},
					"getDonationByToekn(bytes32)": {
						"notice": "Get donation list, filter by tokenId"
					},
					"getDonationList()": {
						"notice": "Get token list"
					},
					"getToken(address)": {
						"notice": "Get token"
					},
					"getTokenList()": {
						"notice": "Get token list"
					},
					"pause()": {
						"notice": "Pause"
					},
					"transferBalance(address,uint256)": {
						"notice": "Transfer balance from this contract to input address"
					},
					"unpause()": {
						"notice": "Unpause"
					},
					"updateToken(bytes32,address,bool)": {
						"notice": "Update token"
					},
					"updateToken(uint8)": {
						"notice": "Update fee"
					},
					"withdraw()": {
						"notice": "Withdraw the balance from this contract and transfer it to the owner's address"
					}
				},
				"notice": "Direct donation mechanism",
				"version": 1
			}
		}
	}
}